{
  "contractName": "EthordleToken",
  "abi": [
    {
      "inputs": [
        {
          "internalType": "string",
          "name": "_name",
          "type": "string"
        },
        {
          "internalType": "string",
          "name": "_symbol",
          "type": "string"
        },
        {
          "internalType": "uint256",
          "name": "initialPrice_",
          "type": "uint256"
        },
        {
          "internalType": "uint256",
          "name": "royaltyRate_",
          "type": "uint256"
        },
        {
          "internalType": "uint256",
          "name": "priceEscalationRate_",
          "type": "uint256"
        }
      ],
      "stateMutability": "nonpayable",
      "type": "constructor"
    },
    {
      "anonymous": false,
      "inputs": [
        {
          "indexed": true,
          "internalType": "address",
          "name": "owner",
          "type": "address"
        },
        {
          "indexed": true,
          "internalType": "address",
          "name": "approved",
          "type": "address"
        },
        {
          "indexed": true,
          "internalType": "uint256",
          "name": "tokenId",
          "type": "uint256"
        }
      ],
      "name": "Approval",
      "type": "event"
    },
    {
      "anonymous": false,
      "inputs": [
        {
          "indexed": true,
          "internalType": "address",
          "name": "owner",
          "type": "address"
        },
        {
          "indexed": true,
          "internalType": "address",
          "name": "operator",
          "type": "address"
        },
        {
          "indexed": false,
          "internalType": "bool",
          "name": "approved",
          "type": "bool"
        }
      ],
      "name": "ApprovalForAll",
      "type": "event"
    },
    {
      "anonymous": false,
      "inputs": [
        {
          "indexed": true,
          "internalType": "address",
          "name": "previousOwner",
          "type": "address"
        },
        {
          "indexed": true,
          "internalType": "address",
          "name": "newOwner",
          "type": "address"
        }
      ],
      "name": "OwnershipTransferred",
      "type": "event"
    },
    {
      "anonymous": false,
      "inputs": [
        {
          "indexed": false,
          "internalType": "string",
          "name": "solution",
          "type": "string"
        },
        {
          "indexed": false,
          "internalType": "address payable",
          "name": "account",
          "type": "address"
        },
        {
          "indexed": false,
          "internalType": "uint256",
          "name": "tokenId",
          "type": "uint256"
        },
        {
          "indexed": false,
          "internalType": "string",
          "name": "metadataURI",
          "type": "string"
        }
      ],
      "name": "TokenMinted",
      "type": "event"
    },
    {
      "anonymous": false,
      "inputs": [
        {
          "indexed": true,
          "internalType": "address",
          "name": "from",
          "type": "address"
        },
        {
          "indexed": true,
          "internalType": "address",
          "name": "to",
          "type": "address"
        },
        {
          "indexed": true,
          "internalType": "uint256",
          "name": "tokenId",
          "type": "uint256"
        }
      ],
      "name": "Transfer",
      "type": "event"
    },
    {
      "inputs": [
        {
          "internalType": "uint256",
          "name": "",
          "type": "uint256"
        }
      ],
      "name": "_tokens",
      "outputs": [
        {
          "internalType": "uint256",
          "name": "id",
          "type": "uint256"
        },
        {
          "internalType": "address",
          "name": "owner",
          "type": "address"
        },
        {
          "internalType": "uint256",
          "name": "price",
          "type": "uint256"
        },
        {
          "internalType": "string",
          "name": "url",
          "type": "string"
        },
        {
          "internalType": "string",
          "name": "solution",
          "type": "string"
        },
        {
          "internalType": "bool",
          "name": "isForSale",
          "type": "bool"
        },
        {
          "internalType": "uint256",
          "name": "transactionCount",
          "type": "uint256"
        }
      ],
      "stateMutability": "view",
      "type": "function",
      "constant": true
    },
    {
      "inputs": [
        {
          "internalType": "address",
          "name": "to",
          "type": "address"
        },
        {
          "internalType": "uint256",
          "name": "tokenId",
          "type": "uint256"
        }
      ],
      "name": "approve",
      "outputs": [],
      "stateMutability": "nonpayable",
      "type": "function"
    },
    {
      "inputs": [
        {
          "internalType": "address",
          "name": "owner",
          "type": "address"
        }
      ],
      "name": "balanceOf",
      "outputs": [
        {
          "internalType": "uint256",
          "name": "",
          "type": "uint256"
        }
      ],
      "stateMutability": "view",
      "type": "function",
      "constant": true
    },
    {
      "inputs": [
        {
          "internalType": "uint256",
          "name": "tokenId",
          "type": "uint256"
        }
      ],
      "name": "getApproved",
      "outputs": [
        {
          "internalType": "address",
          "name": "",
          "type": "address"
        }
      ],
      "stateMutability": "view",
      "type": "function",
      "constant": true
    },
    {
      "inputs": [
        {
          "internalType": "address",
          "name": "owner",
          "type": "address"
        },
        {
          "internalType": "address",
          "name": "operator",
          "type": "address"
        }
      ],
      "name": "isApprovedForAll",
      "outputs": [
        {
          "internalType": "bool",
          "name": "",
          "type": "bool"
        }
      ],
      "stateMutability": "view",
      "type": "function",
      "constant": true
    },
    {
      "inputs": [],
      "name": "name",
      "outputs": [
        {
          "internalType": "string",
          "name": "",
          "type": "string"
        }
      ],
      "stateMutability": "view",
      "type": "function",
      "constant": true
    },
    {
      "inputs": [],
      "name": "owner",
      "outputs": [
        {
          "internalType": "address",
          "name": "",
          "type": "address"
        }
      ],
      "stateMutability": "view",
      "type": "function",
      "constant": true
    },
    {
      "inputs": [
        {
          "internalType": "uint256",
          "name": "tokenId",
          "type": "uint256"
        }
      ],
      "name": "ownerOf",
      "outputs": [
        {
          "internalType": "address",
          "name": "",
          "type": "address"
        }
      ],
      "stateMutability": "view",
      "type": "function",
      "constant": true
    },
    {
      "inputs": [],
      "name": "renounceOwnership",
      "outputs": [],
      "stateMutability": "nonpayable",
      "type": "function"
    },
    {
      "inputs": [
        {
          "internalType": "address",
          "name": "operator",
          "type": "address"
        },
        {
          "internalType": "bool",
          "name": "approved",
          "type": "bool"
        }
      ],
      "name": "setApprovalForAll",
      "outputs": [],
      "stateMutability": "nonpayable",
      "type": "function"
    },
    {
      "inputs": [
        {
          "internalType": "bytes4",
          "name": "interfaceId",
          "type": "bytes4"
        }
      ],
      "name": "supportsInterface",
      "outputs": [
        {
          "internalType": "bool",
          "name": "",
          "type": "bool"
        }
      ],
      "stateMutability": "view",
      "type": "function",
      "constant": true
    },
    {
      "inputs": [],
      "name": "symbol",
      "outputs": [
        {
          "internalType": "string",
          "name": "",
          "type": "string"
        }
      ],
      "stateMutability": "view",
      "type": "function",
      "constant": true
    },
    {
      "inputs": [
        {
          "internalType": "address",
          "name": "newOwner",
          "type": "address"
        }
      ],
      "name": "transferOwnership",
      "outputs": [],
      "stateMutability": "nonpayable",
      "type": "function"
    },
    {
      "inputs": [
        {
          "internalType": "uint256",
          "name": "initialPrice_",
          "type": "uint256"
        }
      ],
      "name": "setInitialPrice",
      "outputs": [],
      "stateMutability": "nonpayable",
      "type": "function"
    },
    {
      "inputs": [],
      "name": "initialPrice",
      "outputs": [
        {
          "internalType": "uint256",
          "name": "",
          "type": "uint256"
        }
      ],
      "stateMutability": "view",
      "type": "function",
      "constant": true
    },
    {
      "inputs": [
        {
          "internalType": "uint256",
          "name": "royaltyRate_",
          "type": "uint256"
        }
      ],
      "name": "setRoyaltyRate",
      "outputs": [],
      "stateMutability": "nonpayable",
      "type": "function"
    },
    {
      "inputs": [],
      "name": "royaltyRate",
      "outputs": [
        {
          "internalType": "uint256",
          "name": "",
          "type": "uint256"
        }
      ],
      "stateMutability": "view",
      "type": "function",
      "constant": true
    },
    {
      "inputs": [
        {
          "internalType": "uint256",
          "name": "priceEscalationRate_",
          "type": "uint256"
        }
      ],
      "name": "setPriceEscalationRate",
      "outputs": [],
      "stateMutability": "nonpayable",
      "type": "function"
    },
    {
      "inputs": [],
      "name": "priceEscalationRate",
      "outputs": [
        {
          "internalType": "uint256",
          "name": "",
          "type": "uint256"
        }
      ],
      "stateMutability": "view",
      "type": "function",
      "constant": true
    },
    {
      "inputs": [],
      "name": "tokenCount",
      "outputs": [
        {
          "internalType": "uint256",
          "name": "",
          "type": "uint256"
        }
      ],
      "stateMutability": "view",
      "type": "function",
      "constant": true
    },
    {
      "inputs": [
        {
          "internalType": "uint256",
          "name": "tokenId",
          "type": "uint256"
        }
      ],
      "name": "tokenById",
      "outputs": [
        {
          "components": [
            {
              "internalType": "uint256",
              "name": "id",
              "type": "uint256"
            },
            {
              "internalType": "address",
              "name": "owner",
              "type": "address"
            },
            {
              "internalType": "uint256",
              "name": "price",
              "type": "uint256"
            },
            {
              "internalType": "string",
              "name": "url",
              "type": "string"
            },
            {
              "internalType": "string",
              "name": "solution",
              "type": "string"
            },
            {
              "internalType": "bool",
              "name": "isForSale",
              "type": "bool"
            },
            {
              "internalType": "uint256",
              "name": "transactionCount",
              "type": "uint256"
            }
          ],
          "internalType": "struct EthordleToken.Token",
          "name": "",
          "type": "tuple"
        }
      ],
      "stateMutability": "view",
      "type": "function",
      "constant": true
    },
    {
      "inputs": [
        {
          "internalType": "address",
          "name": "_from",
          "type": "address"
        }
      ],
      "name": "tokensOfOwner",
      "outputs": [
        {
          "components": [
            {
              "internalType": "uint256",
              "name": "id",
              "type": "uint256"
            },
            {
              "internalType": "address",
              "name": "owner",
              "type": "address"
            },
            {
              "internalType": "uint256",
              "name": "price",
              "type": "uint256"
            },
            {
              "internalType": "string",
              "name": "url",
              "type": "string"
            },
            {
              "internalType": "string",
              "name": "solution",
              "type": "string"
            },
            {
              "internalType": "bool",
              "name": "isForSale",
              "type": "bool"
            },
            {
              "internalType": "uint256",
              "name": "transactionCount",
              "type": "uint256"
            }
          ],
          "internalType": "struct EthordleToken.Token[]",
          "name": "",
          "type": "tuple[]"
        }
      ],
      "stateMutability": "view",
      "type": "function",
      "constant": true
    },
    {
      "inputs": [],
      "name": "tokens",
      "outputs": [
        {
          "components": [
            {
              "internalType": "uint256",
              "name": "id",
              "type": "uint256"
            },
            {
              "internalType": "address",
              "name": "owner",
              "type": "address"
            },
            {
              "internalType": "uint256",
              "name": "price",
              "type": "uint256"
            },
            {
              "internalType": "string",
              "name": "url",
              "type": "string"
            },
            {
              "internalType": "string",
              "name": "solution",
              "type": "string"
            },
            {
              "internalType": "bool",
              "name": "isForSale",
              "type": "bool"
            },
            {
              "internalType": "uint256",
              "name": "transactionCount",
              "type": "uint256"
            }
          ],
          "internalType": "struct EthordleToken.Token[]",
          "name": "",
          "type": "tuple[]"
        }
      ],
      "stateMutability": "view",
      "type": "function",
      "constant": true
    },
    {
      "inputs": [
        {
          "internalType": "string",
          "name": "baseURI",
          "type": "string"
        }
      ],
      "name": "setBaseURI",
      "outputs": [],
      "stateMutability": "nonpayable",
      "type": "function"
    },
    {
      "inputs": [
        {
          "internalType": "string",
          "name": "solution_",
          "type": "string"
        }
      ],
      "name": "isSolutionUnique",
      "outputs": [
        {
          "internalType": "bool",
          "name": "",
          "type": "bool"
        }
      ],
      "stateMutability": "view",
      "type": "function",
      "constant": true
    },
    {
      "inputs": [
        {
          "internalType": "uint256",
          "name": "tokenId",
          "type": "uint256"
        }
      ],
      "name": "tokenURI",
      "outputs": [
        {
          "internalType": "string",
          "name": "",
          "type": "string"
        }
      ],
      "stateMutability": "view",
      "type": "function",
      "constant": true
    },
    {
      "inputs": [
        {
          "internalType": "address payable",
          "name": "to",
          "type": "address"
        },
        {
          "internalType": "string",
          "name": "solution_",
          "type": "string"
        },
        {
          "internalType": "string",
          "name": "tokenURI_",
          "type": "string"
        }
      ],
      "name": "mint",
      "outputs": [],
      "stateMutability": "payable",
      "type": "function",
      "payable": true
    },
    {
      "inputs": [
        {
          "internalType": "address",
          "name": "from",
          "type": "address"
        },
        {
          "internalType": "uint256",
          "name": "tokenId",
          "type": "uint256"
        }
      ],
      "name": "allowSale",
      "outputs": [],
      "stateMutability": "nonpayable",
      "type": "function"
    },
    {
      "inputs": [
        {
          "internalType": "address",
          "name": "from",
          "type": "address"
        },
        {
          "internalType": "uint256",
          "name": "tokenId",
          "type": "uint256"
        }
      ],
      "name": "preventSale",
      "outputs": [],
      "stateMutability": "nonpayable",
      "type": "function"
    },
    {
      "inputs": [
        {
          "internalType": "address",
          "name": "to",
          "type": "address"
        },
        {
          "internalType": "uint256",
          "name": "tokenId",
          "type": "uint256"
        }
      ],
      "name": "buy",
      "outputs": [],
      "stateMutability": "payable",
      "type": "function",
      "payable": true
    },
    {
      "inputs": [
        {
          "internalType": "address",
          "name": "",
          "type": "address"
        },
        {
          "internalType": "address",
          "name": "",
          "type": "address"
        },
        {
          "internalType": "uint256",
          "name": "",
          "type": "uint256"
        }
      ],
      "name": "transferFrom",
      "outputs": [],
      "stateMutability": "view",
      "type": "function",
      "constant": true
    },
    {
      "inputs": [
        {
          "internalType": "address",
          "name": "",
          "type": "address"
        },
        {
          "internalType": "address",
          "name": "",
          "type": "address"
        },
        {
          "internalType": "uint256",
          "name": "",
          "type": "uint256"
        }
      ],
      "name": "safeTransferFrom",
      "outputs": [],
      "stateMutability": "view",
      "type": "function",
      "constant": true
    },
    {
      "inputs": [
        {
          "internalType": "address",
          "name": "",
          "type": "address"
        },
        {
          "internalType": "address",
          "name": "",
          "type": "address"
        },
        {
          "internalType": "uint256",
          "name": "",
          "type": "uint256"
        },
        {
          "internalType": "bytes",
          "name": "",
          "type": "bytes"
        }
      ],
      "name": "safeTransferFrom",
      "outputs": [],
      "stateMutability": "view",
      "type": "function",
      "constant": true
    }
  ],
  "bytecode": "0x60806040523480156200001157600080fd5b5060405162005b6538038062005b658339818101604052810190620000379190620002fd565b8484816000908051906020019062000051929190620001c4565b5080600190805190602001906200006a929190620001c4565b5050506200008d62000081620000f660201b60201c565b620000fe60201b60201c565b33600a60006101000a81548173ffffffffffffffffffffffffffffffffffffffff021916908373ffffffffffffffffffffffffffffffffffffffff1602179055506000600e8190555082600b8190555081600c8190555080600d81905550505050505062000545565b600033905090565b6000600660009054906101000a900473ffffffffffffffffffffffffffffffffffffffff16905081600660006101000a81548173ffffffffffffffffffffffffffffffffffffffff021916908373ffffffffffffffffffffffffffffffffffffffff1602179055508173ffffffffffffffffffffffffffffffffffffffff168173ffffffffffffffffffffffffffffffffffffffff167f8be0079c531659141344cd1fd0a4f28419497f9722a3daafe3b4186f6b6457e060405160405180910390a35050565b828054620001d29062000450565b90600052602060002090601f016020900481019282620001f6576000855562000242565b82601f106200021157805160ff191683800117855562000242565b8280016001018555821562000242579182015b828111156200024157825182559160200191906001019062000224565b5b50905062000251919062000255565b5090565b5b808211156200027057600081600090555060010162000256565b5090565b60006200028b6200028584620003da565b620003b1565b905082815260208101848484011115620002a457600080fd5b620002b18482856200041a565b509392505050565b600082601f830112620002cb57600080fd5b8151620002dd84826020860162000274565b91505092915050565b600081519050620002f7816200052b565b92915050565b600080600080600060a086880312156200031657600080fd5b600086015167ffffffffffffffff8111156200033157600080fd5b6200033f88828901620002b9565b955050602086015167ffffffffffffffff8111156200035d57600080fd5b6200036b88828901620002b9565b94505060406200037e88828901620002e6565b93505060606200039188828901620002e6565b9250506080620003a488828901620002e6565b9150509295509295909350565b6000620003bd620003d0565b9050620003cb828262000486565b919050565b6000604051905090565b600067ffffffffffffffff821115620003f857620003f7620004eb565b5b62000403826200051a565b9050602081019050919050565b6000819050919050565b60005b838110156200043a5780820151818401526020810190506200041d565b838111156200044a576000848401525b50505050565b600060028204905060018216806200046957607f821691505b6020821081141562000480576200047f620004bc565b5b50919050565b62000491826200051a565b810181811067ffffffffffffffff82111715620004b357620004b2620004eb565b5b80604052505050565b7f4e487b7100000000000000000000000000000000000000000000000000000000600052602260045260246000fd5b7f4e487b7100000000000000000000000000000000000000000000000000000000600052604160045260246000fd5b6000601f19601f8301169050919050565b620005368162000410565b81146200054257600080fd5b50565b61561080620005556000396000f3fe6080604052600436106101ee5760003560e01c80638da5cb5b1161010d578063a22cb465116100a0578063c87b56dd1161006f578063c87b56dd146106ec578063cce7ec1314610729578063e985e9c514610745578063ed70554d14610782578063f2fde38b146107c5576101ee565b8063a22cb46514610632578063a5a025841461065b578063b88d4fde14610698578063c4d1510d146106c1576101ee565b80639d9504f9116100dc5780639d9504f91461058c5780639f181b5e146105b55780639f4ba0ee146105e0578063a129ece914610609576101ee565b80638da5cb5b146104ef57806395d89b411461051a57806399071190146105455780639d63848a14610561576101ee565b806355f804b31161018557806370a082311161015457806370a0823114610433578063715018a614610470578063755381f7146104875780638462151c146104b2576101ee565b806355f804b3146103675780636352211e146103905780636840a4b6146103cd5780636b6af2d5146103f6576101ee565b80631d0806ae116101c15780631d0806ae146102c157806323b872dd146102ec57806342842e0e14610315578063537782a21461033e576101ee565b806301ffc9a7146101f357806306fdde0314610230578063081812fc1461025b578063095ea7b314610298575b600080fd5b3480156101ff57600080fd5b5061021a60048036038101906102159190613f17565b6107ee565b6040516102279190614644565b60405180910390f35b34801561023c57600080fd5b506102456108d0565b604051610252919061465f565b60405180910390f35b34801561026757600080fd5b50610282600480360381019061027d9190613f81565b610962565b60405161028f9190614607565b60405180910390f35b3480156102a457600080fd5b506102bf60048036038101906102ba9190613e9a565b6109e7565b005b3480156102cd57600080fd5b506102d6610aff565b6040516102e39190614a16565b60405180910390f35b3480156102f857600080fd5b50610313600480360381019061030e9190613d94565b610b09565b005b34801561032157600080fd5b5061033c60048036038101906103379190613d94565b610ba5565b005b34801561034a57600080fd5b5061036560048036038101906103609190613f81565b610c41565b005b34801561037357600080fd5b5061038e60048036038101906103899190613f40565b610cc7565b005b34801561039c57600080fd5b506103b760048036038101906103b29190613f81565b610d5d565b6040516103c49190614607565b60405180910390f35b3480156103d957600080fd5b506103f460048036038101906103ef9190613e9a565b610e0f565b005b34801561040257600080fd5b5061041d60048036038101906104189190613f81565b610e1f565b60405161042a91906149f4565b60405180910390f35b34801561043f57600080fd5b5061045a60048036038101906104559190613cb0565b611095565b6040516104679190614a16565b60405180910390f35b34801561047c57600080fd5b5061048561114d565b005b34801561049357600080fd5b5061049c6111d5565b6040516104a99190614a16565b60405180910390f35b3480156104be57600080fd5b506104d960048036038101906104d49190613cb0565b6111df565b6040516104e69190614622565b60405180910390f35b3480156104fb57600080fd5b50610504611437565b6040516105119190614607565b60405180910390f35b34801561052657600080fd5b5061052f611461565b60405161053c919061465f565b60405180910390f35b61055f600480360381019061055a9190613cd9565b6114f3565b005b34801561056d57600080fd5b50610576611a8c565b6040516105839190614622565b60405180910390f35b34801561059857600080fd5b506105b360048036038101906105ae9190613e9a565b611d4b565b005b3480156105c157600080fd5b506105ca611d5b565b6040516105d79190614a16565b60405180910390f35b3480156105ec57600080fd5b5061060760048036038101906106029190613f81565b611d65565b005b34801561061557600080fd5b50610630600480360381019061062b9190613f81565b611deb565b005b34801561063e57600080fd5b5061065960048036038101906106549190613e5e565b611e71565b005b34801561066757600080fd5b50610682600480360381019061067d9190613f40565b611e87565b60405161068f9190614644565b60405180910390f35b3480156106a457600080fd5b506106bf60048036038101906106ba9190613de3565b611efd565b005b3480156106cd57600080fd5b506106d6611f9a565b6040516106e39190614a16565b60405180910390f35b3480156106f857600080fd5b50610713600480360381019061070e9190613f81565b611fa4565b604051610720919061465f565b60405180910390f35b610743600480360381019061073e9190613e9a565b612094565b005b34801561075157600080fd5b5061076c60048036038101906107679190613d58565b6126e2565b6040516107799190614644565b60405180910390f35b34801561078e57600080fd5b506107a960048036038101906107a49190613f81565b612776565b6040516107bc9796959493929190614a31565b60405180910390f35b3480156107d157600080fd5b506107ec60048036038101906107e79190613cb0565b6128f5565b005b60007f80ac58cd000000000000000000000000000000000000000000000000000000007bffffffffffffffffffffffffffffffffffffffffffffffffffffffff1916827bffffffffffffffffffffffffffffffffffffffffffffffffffffffff191614806108b957507f5b5e139f000000000000000000000000000000000000000000000000000000007bffffffffffffffffffffffffffffffffffffffffffffffffffffffff1916827bffffffffffffffffffffffffffffffffffffffffffffffffffffffff1916145b806108c957506108c8826129ed565b5b9050919050565b6060600080546108df90614daf565b80601f016020809104026020016040519081016040528092919081815260200182805461090b90614daf565b80156109585780601f1061092d57610100808354040283529160200191610958565b820191906000526020600020905b81548152906001019060200180831161093b57829003601f168201915b5050505050905090565b600061096d82612a57565b6109ac576040517f08c379a00000000000000000000000000000000000000000000000000000000081526004016109a3906148d4565b60405180910390fd5b6004600083815260200190815260200160002060009054906101000a900473ffffffffffffffffffffffffffffffffffffffff169050919050565b60006109f282610d5d565b90508073ffffffffffffffffffffffffffffffffffffffff168373ffffffffffffffffffffffffffffffffffffffff161415610a63576040517f08c379a0000000000000000000000000000000000000000000000000000000008152600401610a5a90614974565b60405180910390fd5b8073ffffffffffffffffffffffffffffffffffffffff16610a82612ac3565b73ffffffffffffffffffffffffffffffffffffffff161480610ab15750610ab081610aab612ac3565b6126e2565b5b610af0576040517f08c379a0000000000000000000000000000000000000000000000000000000008152600401610ae790614834565b60405180910390fd5b610afa8383612acb565b505050565b6000600b54905090565b600a60009054906101000a900473ffffffffffffffffffffffffffffffffffffffff1673ffffffffffffffffffffffffffffffffffffffff16610b4a612ac3565b73ffffffffffffffffffffffffffffffffffffffff1614610ba0576040517f08c379a0000000000000000000000000000000000000000000000000000000008152600401610b9790614794565b60405180910390fd5b505050565b600a60009054906101000a900473ffffffffffffffffffffffffffffffffffffffff1673ffffffffffffffffffffffffffffffffffffffff16610be6612ac3565b73ffffffffffffffffffffffffffffffffffffffff1614610c3c576040517f08c379a0000000000000000000000000000000000000000000000000000000008152600401610c3390614794565b60405180910390fd5b505050565b610c49612ac3565b73ffffffffffffffffffffffffffffffffffffffff16610c67611437565b73ffffffffffffffffffffffffffffffffffffffff1614610cbd576040517f08c379a0000000000000000000000000000000000000000000000000000000008152600401610cb490614954565b60405180910390fd5b80600c8190555050565b610ccf612ac3565b73ffffffffffffffffffffffffffffffffffffffff16610ced611437565b73ffffffffffffffffffffffffffffffffffffffff1614610d43576040517f08c379a0000000000000000000000000000000000000000000000000000000008152600401610d3a90614954565b60405180910390fd5b80600f9080519060200190610d59929190613871565b5050565b6000806002600084815260200190815260200160002060009054906101000a900473ffffffffffffffffffffffffffffffffffffffff169050600073ffffffffffffffffffffffffffffffffffffffff168173ffffffffffffffffffffffffffffffffffffffff161415610e06576040517f08c379a0000000000000000000000000000000000000000000000000000000008152600401610dfd90614874565b60405180910390fd5b80915050919050565b610e1b82826001612b84565b5050565b610e276138f7565b610e3082612a57565b610e6f576040517f08c379a0000000000000000000000000000000000000000000000000000000008152600401610e6690614994565b60405180910390fd5b6000600760008481526020019081526020016000206040518060e0016040529081600082015481526020016001820160009054906101000a900473ffffffffffffffffffffffffffffffffffffffff1673ffffffffffffffffffffffffffffffffffffffff1673ffffffffffffffffffffffffffffffffffffffff16815260200160028201548152602001600382018054610f0990614daf565b80601f0160208091040260200160405190810160405280929190818152602001828054610f3590614daf565b8015610f825780601f10610f5757610100808354040283529160200191610f82565b820191906000526020600020905b815481529060010190602001808311610f6557829003601f168201915b50505050508152602001600482018054610f9b90614daf565b80601f0160208091040260200160405190810160405280929190818152602001828054610fc790614daf565b80156110145780601f10610fe957610100808354040283529160200191611014565b820191906000526020600020905b815481529060010190602001808311610ff757829003601f168201915b505050505081526020016005820160009054906101000a900460ff16151515158152602001600682015481525050905061104d83612a57565b61108c576040517f08c379a0000000000000000000000000000000000000000000000000000000008152600401611083906147b4565b60405180910390fd5b80915050919050565b60008073ffffffffffffffffffffffffffffffffffffffff168273ffffffffffffffffffffffffffffffffffffffff161415611106576040517f08c379a00000000000000000000000000000000000000000000000000000000081526004016110fd90614854565b60405180910390fd5b600360008373ffffffffffffffffffffffffffffffffffffffff1673ffffffffffffffffffffffffffffffffffffffff168152602001908152602001600020549050919050565b611155612ac3565b73ffffffffffffffffffffffffffffffffffffffff16611173611437565b73ffffffffffffffffffffffffffffffffffffffff16146111c9576040517f08c379a00000000000000000000000000000000000000000000000000000000081526004016111c090614954565b60405180910390fd5b6111d360006130a5565b565b6000600d54905090565b606060006111ec83611095565b90506000808267ffffffffffffffff811115611231577f4e487b7100000000000000000000000000000000000000000000000000000000600052604160045260246000fd5b60405190808252806020026020018201604052801561126a57816020015b6112576138f7565b81526020019060019003908161124f5790505b509050600083111561142c5760003073ffffffffffffffffffffffffffffffffffffffff16639d63848a6040518163ffffffff1660e01b815260040160006040518083038186803b1580156112be57600080fd5b505afa1580156112d2573d6000803e3d6000fd5b505050506040513d6000823e3d601f19601f820116820180604052508101906112fb9190613ed6565b905060005b600e54811015611429578673ffffffffffffffffffffffffffffffffffffffff1682828151811061135a577f4e487b7100000000000000000000000000000000000000000000000000000000600052603260045260246000fd5b60200260200101516020015173ffffffffffffffffffffffffffffffffffffffff161415611416578181815181106113bb577f4e487b7100000000000000000000000000000000000000000000000000000000600052603260045260246000fd5b60200260200101518385815181106113fc577f4e487b7100000000000000000000000000000000000000000000000000000000600052603260045260246000fd5b6020026020010181905250838061141290614e12565b9450505b808061142190614e12565b915050611300565b50505b809350505050919050565b6000600660009054906101000a900473ffffffffffffffffffffffffffffffffffffffff16905090565b60606001805461147090614daf565b80601f016020809104026020016040519081016040528092919081815260200182805461149c90614daf565b80156114e95780601f106114be576101008083540402835291602001916114e9565b820191906000526020600020905b8154815290600101906020018083116114cc57829003601f168201915b5050505050905090565b8273ffffffffffffffffffffffffffffffffffffffff163373ffffffffffffffffffffffffffffffffffffffff16148061157a5750600a60009054906101000a900473ffffffffffffffffffffffffffffffffffffffff1673ffffffffffffffffffffffffffffffffffffffff163373ffffffffffffffffffffffffffffffffffffffff16145b6115b9576040517f08c379a00000000000000000000000000000000000000000000000000000000081526004016115b090614934565b60405180910390fd5b600b543410156115fe576040517f08c379a00000000000000000000000000000000000000000000000000000000081526004016115f5906149b4565b60405180910390fd5b600073ffffffffffffffffffffffffffffffffffffffff1660088360405161162691906145f0565b908152602001604051809103902060009054906101000a900473ffffffffffffffffffffffffffffffffffffffff1673ffffffffffffffffffffffffffffffffffffffff16146116ab576040517f08c379a00000000000000000000000000000000000000000000000000000000081526004016116a290614894565b60405180910390fd5b600073ffffffffffffffffffffffffffffffffffffffff166009826040516116d391906145f0565b908152602001604051809103902060009054906101000a900473ffffffffffffffffffffffffffffffffffffffff1673ffffffffffffffffffffffffffffffffffffffff1614611758576040517f08c379a000000000000000000000000000000000000000000000000000000000815260040161174f906146d4565b60405180910390fd5b60058251101561179d576040517f08c379a000000000000000000000000000000000000000000000000000000000815260040161179490614914565b60405180910390fd5b601c815110156117e2576040517f08c379a00000000000000000000000000000000000000000000000000000000081526004016117d9906149d4565b60405180910390fd5b6117ea611437565b73ffffffffffffffffffffffffffffffffffffffff166108fc349081150290604051600060405180830381858888f1935050505015801561182f573d6000803e3d6000fd5b5061183c83600e5461316b565b600061184734613345565b905060006040518060e00160405280600e5481526020018673ffffffffffffffffffffffffffffffffffffffff168152602001838152602001848152602001858152602001600015158152602001600181525090508060076000600e5481526020019081526020016000206000820151816000015560208201518160010160006101000a81548173ffffffffffffffffffffffffffffffffffffffff021916908373ffffffffffffffffffffffffffffffffffffffff160217905550604082015181600201556060820151816003019080519060200190611929929190613871565b506080820151816004019080519060200190611946929190613871565b5060a08201518160050160006101000a81548160ff02191690831515021790555060c082015181600601559050508460088560405161198591906145f0565b908152602001604051809103902060006101000a81548173ffffffffffffffffffffffffffffffffffffffff021916908373ffffffffffffffffffffffffffffffffffffffff160217905550846009846040516119e291906145f0565b908152602001604051809103902060006101000a81548173ffffffffffffffffffffffffffffffffffffffff021916908373ffffffffffffffffffffffffffffffffffffffff160217905550600e6000815480929190611a4190614e12565b91905055507f69e2cadceb55416f48e5a82e3641de7889495c2e02c86d37aaa313d121e8e7428486600e5486604051611a7d9493929190614681565b60405180910390a15050505050565b60606000600e5467ffffffffffffffff811115611ad2577f4e487b7100000000000000000000000000000000000000000000000000000000600052604160045260246000fd5b604051908082528060200260200182016040528015611b0b57816020015b611af86138f7565b815260200190600190039081611af05790505b50905060005b600e54811015611d4357600760008281526020019081526020016000206040518060e0016040529081600082015481526020016001820160009054906101000a900473ffffffffffffffffffffffffffffffffffffffff1673ffffffffffffffffffffffffffffffffffffffff1673ffffffffffffffffffffffffffffffffffffffff16815260200160028201548152602001600382018054611bb390614daf565b80601f0160208091040260200160405190810160405280929190818152602001828054611bdf90614daf565b8015611c2c5780601f10611c0157610100808354040283529160200191611c2c565b820191906000526020600020905b815481529060010190602001808311611c0f57829003601f168201915b50505050508152602001600482018054611c4590614daf565b80601f0160208091040260200160405190810160405280929190818152602001828054611c7190614daf565b8015611cbe5780601f10611c9357610100808354040283529160200191611cbe565b820191906000526020600020905b815481529060010190602001808311611ca157829003601f168201915b505050505081526020016005820160009054906101000a900460ff16151515158152602001600682015481525050828281518110611d25577f4e487b7100000000000000000000000000000000000000000000000000000000600052603260045260246000fd5b60200260200101819052508080611d3b90614e12565b915050611b11565b508091505090565b611d5782826000612b84565b5050565b6000600e54905090565b611d6d612ac3565b73ffffffffffffffffffffffffffffffffffffffff16611d8b611437565b73ffffffffffffffffffffffffffffffffffffffff1614611de1576040517f08c379a0000000000000000000000000000000000000000000000000000000008152600401611dd890614954565b60405180910390fd5b80600b8190555050565b611df3612ac3565b73ffffffffffffffffffffffffffffffffffffffff16611e11611437565b73ffffffffffffffffffffffffffffffffffffffff1614611e67576040517f08c379a0000000000000000000000000000000000000000000000000000000008152600401611e5e90614954565b60405180910390fd5b80600d8190555050565b611e83611e7c612ac3565b8383613391565b5050565b60008073ffffffffffffffffffffffffffffffffffffffff16600883604051611eb091906145f0565b908152602001604051809103902060009054906101000a900473ffffffffffffffffffffffffffffffffffffffff1673ffffffffffffffffffffffffffffffffffffffff16149050919050565b600a60009054906101000a900473ffffffffffffffffffffffffffffffffffffffff1673ffffffffffffffffffffffffffffffffffffffff16611f3e612ac3565b73ffffffffffffffffffffffffffffffffffffffff1614611f94576040517f08c379a0000000000000000000000000000000000000000000000000000000008152600401611f8b90614794565b60405180910390fd5b50505050565b6000600c54905090565b6060611faf82612a57565b611fee576040517f08c379a0000000000000000000000000000000000000000000000000000000008152600401611fe590614994565b60405180910390fd5b60076000838152602001908152602001600020600301805461200f90614daf565b80601f016020809104026020016040519081016040528092919081815260200182805461203b90614daf565b80156120885780601f1061205d57610100808354040283529160200191612088565b820191906000526020600020905b81548152906001019060200180831161206b57829003601f168201915b50505050509050919050565b61209d81612a57565b6120dc576040517f08c379a00000000000000000000000000000000000000000000000000000000081526004016120d390614994565b60405180910390fd5b6000600760008381526020019081526020016000206040518060e0016040529081600082015481526020016001820160009054906101000a900473ffffffffffffffffffffffffffffffffffffffff1673ffffffffffffffffffffffffffffffffffffffff1673ffffffffffffffffffffffffffffffffffffffff1681526020016002820154815260200160038201805461217690614daf565b80601f01602080910402602001604051908101604052809291908181526020018280546121a290614daf565b80156121ef5780601f106121c4576101008083540402835291602001916121ef565b820191906000526020600020905b8154815290600101906020018083116121d257829003601f168201915b5050505050815260200160048201805461220890614daf565b80601f016020809104026020016040519081016040528092919081815260200182805461223490614daf565b80156122815780601f1061225657610100808354040283529160200191612281565b820191906000526020600020905b81548152906001019060200180831161226457829003601f168201915b505050505081526020016005820160009054906101000a900460ff1615151515815260200160068201548152505090506122be8160000151612a57565b6122fd576040517f08c379a00000000000000000000000000000000000000000000000000000000081526004016122f4906147b4565b60405180910390fd5b8060400151341015612344576040517f08c379a000000000000000000000000000000000000000000000000000000000815260040161233b906149b4565b60405180910390fd5b8060a00151612388576040517f08c379a000000000000000000000000000000000000000000000000000000000815260040161237f906148f4565b60405180910390fd5b8273ffffffffffffffffffffffffffffffffffffffff16816020015173ffffffffffffffffffffffffffffffffffffffff1614156123fb576040517f08c379a00000000000000000000000000000000000000000000000000000000081526004016123f290614814565b60405180910390fd5b6000816080015190506000826060015190506000612418346134fe565b9050600081346124289190614cb3565b9050612432611437565b73ffffffffffffffffffffffffffffffffffffffff166108fc839081150290604051600060405180830381858888f19350505050158015612477573d6000803e3d6000fd5b50846020015173ffffffffffffffffffffffffffffffffffffffff166108fc829081150290604051600060405180830381858888f193505050501580156124c2573d6000803e3d6000fd5b506124d285602001518888613522565b866008856040516124e391906145f0565b908152602001604051809103902060006101000a81548173ffffffffffffffffffffffffffffffffffffffff021916908373ffffffffffffffffffffffffffffffffffffffff1602179055508660098460405161254091906145f0565b908152602001604051809103902060006101000a81548173ffffffffffffffffffffffffffffffffffffffff021916908373ffffffffffffffffffffffffffffffffffffffff160217905550600061259734613345565b905087866020019073ffffffffffffffffffffffffffffffffffffffff16908173ffffffffffffffffffffffffffffffffffffffff16815250508086604001818152505060008660a00190151590811515815250508560c00180518091906125fe90614e12565b8152505085600760008981526020019081526020016000206000820151816000015560208201518160010160006101000a81548173ffffffffffffffffffffffffffffffffffffffff021916908373ffffffffffffffffffffffffffffffffffffffff16021790555060408201518160020155606082015181600301908051906020019061268d929190613871565b5060808201518160040190805190602001906126aa929190613871565b5060a08201518160050160006101000a81548160ff02191690831515021790555060c082015181600601559050505050505050505050565b6000600560008473ffffffffffffffffffffffffffffffffffffffff1673ffffffffffffffffffffffffffffffffffffffff16815260200190815260200160002060008373ffffffffffffffffffffffffffffffffffffffff1673ffffffffffffffffffffffffffffffffffffffff16815260200190815260200160002060009054906101000a900460ff16905092915050565b60076020528060005260406000206000915090508060000154908060010160009054906101000a900473ffffffffffffffffffffffffffffffffffffffff16908060020154908060030180546127cb90614daf565b80601f01602080910402602001604051908101604052809291908181526020018280546127f790614daf565b80156128445780601f1061281957610100808354040283529160200191612844565b820191906000526020600020905b81548152906001019060200180831161282757829003601f168201915b50505050509080600401805461285990614daf565b80601f016020809104026020016040519081016040528092919081815260200182805461288590614daf565b80156128d25780601f106128a7576101008083540402835291602001916128d2565b820191906000526020600020905b8154815290600101906020018083116128b557829003601f168201915b5050505050908060050160009054906101000a900460ff16908060060154905087565b6128fd612ac3565b73ffffffffffffffffffffffffffffffffffffffff1661291b611437565b73ffffffffffffffffffffffffffffffffffffffff1614612971576040517f08c379a000000000000000000000000000000000000000000000000000000000815260040161296890614954565b60405180910390fd5b600073ffffffffffffffffffffffffffffffffffffffff168173ffffffffffffffffffffffffffffffffffffffff1614156129e1576040517f08c379a00000000000000000000000000000000000000000000000000000000081526004016129d8906146f4565b60405180910390fd5b6129ea816130a5565b50565b60007f01ffc9a7000000000000000000000000000000000000000000000000000000007bffffffffffffffffffffffffffffffffffffffffffffffffffffffff1916827bffffffffffffffffffffffffffffffffffffffffffffffffffffffff1916149050919050565b60008073ffffffffffffffffffffffffffffffffffffffff166002600084815260200190815260200160002060009054906101000a900473ffffffffffffffffffffffffffffffffffffffff1673ffffffffffffffffffffffffffffffffffffffff1614159050919050565b600033905090565b816004600083815260200190815260200160002060006101000a81548173ffffffffffffffffffffffffffffffffffffffff021916908373ffffffffffffffffffffffffffffffffffffffff160217905550808273ffffffffffffffffffffffffffffffffffffffff16612b3e83610d5d565b73ffffffffffffffffffffffffffffffffffffffff167f8c5be1e5ebec7d5bd14f71427d1e84f3dd0314c0f7b2291e5b200ac8c7c3b92560405160405180910390a45050565b612b8d82612a57565b612bcc576040517f08c379a0000000000000000000000000000000000000000000000000000000008152600401612bc390614994565b60405180910390fd5b8273ffffffffffffffffffffffffffffffffffffffff16612beb612ac3565b73ffffffffffffffffffffffffffffffffffffffff161480612c615750600a60009054906101000a900473ffffffffffffffffffffffffffffffffffffffff1673ffffffffffffffffffffffffffffffffffffffff16612c49612ac3565b73ffffffffffffffffffffffffffffffffffffffff16145b612ca0576040517f08c379a0000000000000000000000000000000000000000000000000000000008152600401612c97906147f4565b60405180910390fd5b612cb1612cab612ac3565b83613789565b612cf0576040517f08c379a0000000000000000000000000000000000000000000000000000000008152600401612ce7906147f4565b60405180910390fd5b6000600760008481526020019081526020016000206040518060e0016040529081600082015481526020016001820160009054906101000a900473ffffffffffffffffffffffffffffffffffffffff1673ffffffffffffffffffffffffffffffffffffffff1673ffffffffffffffffffffffffffffffffffffffff16815260200160028201548152602001600382018054612d8a90614daf565b80601f0160208091040260200160405190810160405280929190818152602001828054612db690614daf565b8015612e035780601f10612dd857610100808354040283529160200191612e03565b820191906000526020600020905b815481529060010190602001808311612de657829003601f168201915b50505050508152602001600482018054612e1c90614daf565b80601f0160208091040260200160405190810160405280929190818152602001828054612e4890614daf565b8015612e955780601f10612e6a57610100808354040283529160200191612e95565b820191906000526020600020905b815481529060010190602001808311612e7857829003601f168201915b505050505081526020016005820160009054906101000a900460ff161515151581526020016006820154815250509050612ed28160000151612a57565b612f11576040517f08c379a0000000000000000000000000000000000000000000000000000000008152600401612f08906147b4565b60405180910390fd5b8060a001511515821515141582612f40576040518060600160405280602a81526020016155b1602a9139612f77565b6040518060400160405280602081526020017f546f6b656e20697320616c7265616479206d61726b656420666f722073616c658152505b90612fb8576040517f08c379a0000000000000000000000000000000000000000000000000000000008152600401612faf919061465f565b60405180910390fd5b50818160a001901515908115158152505080600760008581526020019081526020016000206000820151816000015560208201518160010160006101000a81548173ffffffffffffffffffffffffffffffffffffffff021916908373ffffffffffffffffffffffffffffffffffffffff160217905550604082015181600201556060820151816003019080519060200190613054929190613871565b506080820151816004019080519060200190613071929190613871565b5060a08201518160050160006101000a81548160ff02191690831515021790555060c0820151816006015590505050505050565b6000600660009054906101000a900473ffffffffffffffffffffffffffffffffffffffff16905081600660006101000a81548173ffffffffffffffffffffffffffffffffffffffff021916908373ffffffffffffffffffffffffffffffffffffffff1602179055508173ffffffffffffffffffffffffffffffffffffffff168173ffffffffffffffffffffffffffffffffffffffff167f8be0079c531659141344cd1fd0a4f28419497f9722a3daafe3b4186f6b6457e060405160405180910390a35050565b600073ffffffffffffffffffffffffffffffffffffffff168273ffffffffffffffffffffffffffffffffffffffff1614156131db576040517f08c379a00000000000000000000000000000000000000000000000000000000081526004016131d2906148b4565b60405180910390fd5b6131e481612a57565b15613224576040517f08c379a000000000000000000000000000000000000000000000000000000000815260040161321b90614734565b60405180910390fd5b61323060008383613867565b6001600360008473ffffffffffffffffffffffffffffffffffffffff1673ffffffffffffffffffffffffffffffffffffffff16815260200190815260200160002060008282546132809190614bd2565b92505081905550816002600083815260200190815260200160002060006101000a81548173ffffffffffffffffffffffffffffffffffffffff021916908373ffffffffffffffffffffffffffffffffffffffff160217905550808273ffffffffffffffffffffffffffffffffffffffff16600073ffffffffffffffffffffffffffffffffffffffff167fddf252ad1be2c89b69c2b068fc378daa952ba7f163c4a11628f55a4df523b3ef60405160405180910390a46133416000838361386c565b5050565b60008066038d7ea4c6800090506000612710600d54856133659190614c59565b61336f9190614c28565b905081828261337e9190614c28565b6133889190614c59565b92505050919050565b8173ffffffffffffffffffffffffffffffffffffffff168373ffffffffffffffffffffffffffffffffffffffff161415613400576040517f08c379a00000000000000000000000000000000000000000000000000000000081526004016133f790614774565b60405180910390fd5b80600560008573ffffffffffffffffffffffffffffffffffffffff1673ffffffffffffffffffffffffffffffffffffffff16815260200190815260200160002060008473ffffffffffffffffffffffffffffffffffffffff1673ffffffffffffffffffffffffffffffffffffffff16815260200190815260200160002060006101000a81548160ff0219169083151502179055508173ffffffffffffffffffffffffffffffffffffffff168373ffffffffffffffffffffffffffffffffffffffff167f17307eab39ab6107e8899845ad3d59bd9653f200f220920489ca2b5937696c31836040516134f19190614644565b60405180910390a3505050565b6000612710600c54836135119190614c59565b61351b9190614c28565b9050919050565b8273ffffffffffffffffffffffffffffffffffffffff1661354282610d5d565b73ffffffffffffffffffffffffffffffffffffffff1614613598576040517f08c379a000000000000000000000000000000000000000000000000000000000815260040161358f90614714565b60405180910390fd5b600073ffffffffffffffffffffffffffffffffffffffff168273ffffffffffffffffffffffffffffffffffffffff161415613608576040517f08c379a00000000000000000000000000000000000000000000000000000000081526004016135ff90614754565b60405180910390fd5b613613838383613867565b61361e600082612acb565b6001600360008573ffffffffffffffffffffffffffffffffffffffff1673ffffffffffffffffffffffffffffffffffffffff168152602001908152602001600020600082825461366e9190614cb3565b925050819055506001600360008473ffffffffffffffffffffffffffffffffffffffff1673ffffffffffffffffffffffffffffffffffffffff16815260200190815260200160002060008282546136c59190614bd2565b92505081905550816002600083815260200190815260200160002060006101000a81548173ffffffffffffffffffffffffffffffffffffffff021916908373ffffffffffffffffffffffffffffffffffffffff160217905550808273ffffffffffffffffffffffffffffffffffffffff168473ffffffffffffffffffffffffffffffffffffffff167fddf252ad1be2c89b69c2b068fc378daa952ba7f163c4a11628f55a4df523b3ef60405160405180910390a461378483838361386c565b505050565b600061379482612a57565b6137d3576040517f08c379a00000000000000000000000000000000000000000000000000000000081526004016137ca906147d4565b60405180910390fd5b60006137de83610d5d565b90508073ffffffffffffffffffffffffffffffffffffffff168473ffffffffffffffffffffffffffffffffffffffff16148061384d57508373ffffffffffffffffffffffffffffffffffffffff1661383584610962565b73ffffffffffffffffffffffffffffffffffffffff16145b8061385e575061385d81856126e2565b5b91505092915050565b505050565b505050565b82805461387d90614daf565b90600052602060002090601f01602090048101928261389f57600085556138e6565b82601f106138b857805160ff19168380011785556138e6565b828001600101855582156138e6579182015b828111156138e55782518255916020019190600101906138ca565b5b5090506138f3919061394c565b5090565b6040518060e0016040528060008152602001600073ffffffffffffffffffffffffffffffffffffffff168152602001600081526020016060815260200160608152602001600015158152602001600081525090565b5b8082111561396557600081600090555060010161394d565b5090565b600061397c61397784614ad3565b614aae565b9050808382526020820190508260005b858110156139bc57815185016139a28882613ba6565b84526020840193506020830192505060018101905061398c565b5050509392505050565b60006139d96139d484614aff565b614aae565b9050828152602081018484840111156139f157600080fd5b6139fc848285614d6d565b509392505050565b6000613a17613a1284614b30565b614aae565b905082815260208101848484011115613a2f57600080fd5b613a3a848285614d6d565b509392505050565b6000613a55613a5084614b30565b614aae565b905082815260208101848484011115613a6d57600080fd5b613a78848285614d7c565b509392505050565b600081359050613a8f8161553d565b92915050565b600081519050613aa48161553d565b92915050565b600081359050613ab981615554565b92915050565b600082601f830112613ad057600080fd5b8151613ae0848260208601613969565b91505092915050565b600081359050613af88161556b565b92915050565b600081519050613b0d8161556b565b92915050565b600081359050613b2281615582565b92915050565b600082601f830112613b3957600080fd5b8135613b498482602086016139c6565b91505092915050565b600082601f830112613b6357600080fd5b8135613b73848260208601613a04565b91505092915050565b600082601f830112613b8d57600080fd5b8151613b9d848260208601613a42565b91505092915050565b600060e08284031215613bb857600080fd5b613bc260e0614aae565b90506000613bd284828501613c9b565b6000830152506020613be684828501613a95565b6020830152506040613bfa84828501613c9b565b604083015250606082015167ffffffffffffffff811115613c1a57600080fd5b613c2684828501613b7c565b606083015250608082015167ffffffffffffffff811115613c4657600080fd5b613c5284828501613b7c565b60808301525060a0613c6684828501613afe565b60a08301525060c0613c7a84828501613c9b565b60c08301525092915050565b600081359050613c9581615599565b92915050565b600081519050613caa81615599565b92915050565b600060208284031215613cc257600080fd5b6000613cd084828501613a80565b91505092915050565b600080600060608486031215613cee57600080fd5b6000613cfc86828701613aaa565b935050602084013567ffffffffffffffff811115613d1957600080fd5b613d2586828701613b52565b925050604084013567ffffffffffffffff811115613d4257600080fd5b613d4e86828701613b52565b9150509250925092565b60008060408385031215613d6b57600080fd5b6000613d7985828601613a80565b9250506020613d8a85828601613a80565b9150509250929050565b600080600060608486031215613da957600080fd5b6000613db786828701613a80565b9350506020613dc886828701613a80565b9250506040613dd986828701613c86565b9150509250925092565b60008060008060808587031215613df957600080fd5b6000613e0787828801613a80565b9450506020613e1887828801613a80565b9350506040613e2987828801613c86565b925050606085013567ffffffffffffffff811115613e4657600080fd5b613e5287828801613b28565b91505092959194509250565b60008060408385031215613e7157600080fd5b6000613e7f85828601613a80565b9250506020613e9085828601613ae9565b9150509250929050565b60008060408385031215613ead57600080fd5b6000613ebb85828601613a80565b9250506020613ecc85828601613c86565b9150509250929050565b600060208284031215613ee857600080fd5b600082015167ffffffffffffffff811115613f0257600080fd5b613f0e84828501613abf565b91505092915050565b600060208284031215613f2957600080fd5b6000613f3784828501613b13565b91505092915050565b600060208284031215613f5257600080fd5b600082013567ffffffffffffffff811115613f6c57600080fd5b613f7884828501613b52565b91505092915050565b600060208284031215613f9357600080fd5b6000613fa184828501613c86565b91505092915050565b6000613fb6838361448c565b905092915050565b613fc781614cf9565b82525050565b613fd681614ce7565b82525050565b613fe581614ce7565b82525050565b6000613ff682614b71565b6140008185614b94565b93508360208202850161401285614b61565b8060005b8581101561404e578484038952815161402f8582613faa565b945061403a83614b87565b925060208a01995050600181019050614016565b50829750879550505050505092915050565b61406981614d0b565b82525050565b61407881614d0b565b82525050565b600061408982614b7c565b6140938185614ba5565b93506140a3818560208601614d7c565b6140ac81614f17565b840191505092915050565b60006140c282614b7c565b6140cc8185614bb6565b93506140dc818560208601614d7c565b6140e581614f17565b840191505092915050565b60006140fb82614b7c565b6141058185614bc7565b9350614115818560208601614d7c565b80840191505092915050565b600061412e602d83614bb6565b915061413982614f28565b604082019050919050565b6000614151602683614bb6565b915061415c82614f77565b604082019050919050565b6000614174602583614bb6565b915061417f82614fc6565b604082019050919050565b6000614197601c83614bb6565b91506141a282615015565b602082019050919050565b60006141ba602483614bb6565b91506141c58261503e565b604082019050919050565b60006141dd601983614bb6565b91506141e88261508d565b602082019050919050565b6000614200602683614bb6565b915061420b826150b6565b604082019050919050565b6000614223601483614bb6565b915061422e82615105565b602082019050919050565b6000614246602c83614bb6565b91506142518261512e565b604082019050919050565b6000614269602c83614bb6565b91506142748261517d565b604082019050919050565b600061428c601883614bb6565b9150614297826151cc565b602082019050919050565b60006142af603883614bb6565b91506142ba826151f5565b604082019050919050565b60006142d2602a83614bb6565b91506142dd82615244565b604082019050919050565b60006142f5602983614bb6565b915061430082615293565b604082019050919050565b6000614318603283614bb6565b9150614323826152e2565b604082019050919050565b600061433b602083614bb6565b915061434682615331565b602082019050919050565b600061435e602c83614bb6565b91506143698261535a565b604082019050919050565b6000614381601583614bb6565b915061438c826153a9565b602082019050919050565b60006143a4602083614bb6565b91506143af826153d2565b602082019050919050565b60006143c7601283614bb6565b91506143d2826153fb565b602082019050919050565b60006143ea602083614bb6565b91506143f582615424565b602082019050919050565b600061440d602183614bb6565b91506144188261544d565b604082019050919050565b6000614430601683614bb6565b915061443b8261549c565b602082019050919050565b6000614453602d83614bb6565b915061445e826154c5565b604082019050919050565b6000614476602083614bb6565b915061448182615514565b602082019050919050565b600060e0830160008301516144a460008601826145d2565b5060208301516144b76020860182613fcd565b5060408301516144ca60408601826145d2565b50606083015184820360608601526144e2828261407e565b915050608083015184820360808601526144fc828261407e565b91505060a083015161451160a0860182614060565b5060c083015161452460c08601826145d2565b508091505092915050565b600060e08301600083015161454760008601826145d2565b50602083015161455a6020860182613fcd565b50604083015161456d60408601826145d2565b5060608301518482036060860152614585828261407e565b9150506080830151848203608086015261459f828261407e565b91505060a08301516145b460a0860182614060565b5060c08301516145c760c08601826145d2565b508091505092915050565b6145db81614d63565b82525050565b6145ea81614d63565b82525050565b60006145fc82846140f0565b915081905092915050565b600060208201905061461c6000830184613fdc565b92915050565b6000602082019050818103600083015261463c8184613feb565b905092915050565b6000602082019050614659600083018461406f565b92915050565b6000602082019050818103600083015261467981846140b7565b905092915050565b6000608082019050818103600083015261469b81876140b7565b90506146aa6020830186613fbe565b6146b760408301856145e1565b81810360608301526146c981846140b7565b905095945050505050565b600060208201905081810360008301526146ed81614121565b9050919050565b6000602082019050818103600083015261470d81614144565b9050919050565b6000602082019050818103600083015261472d81614167565b9050919050565b6000602082019050818103600083015261474d8161418a565b9050919050565b6000602082019050818103600083015261476d816141ad565b9050919050565b6000602082019050818103600083015261478d816141d0565b9050919050565b600060208201905081810360008301526147ad816141f3565b9050919050565b600060208201905081810360008301526147cd81614216565b9050919050565b600060208201905081810360008301526147ed81614239565b9050919050565b6000602082019050818103600083015261480d8161425c565b9050919050565b6000602082019050818103600083015261482d8161427f565b9050919050565b6000602082019050818103600083015261484d816142a2565b9050919050565b6000602082019050818103600083015261486d816142c5565b9050919050565b6000602082019050818103600083015261488d816142e8565b9050919050565b600060208201905081810360008301526148ad8161430b565b9050919050565b600060208201905081810360008301526148cd8161432e565b9050919050565b600060208201905081810360008301526148ed81614351565b9050919050565b6000602082019050818103600083015261490d81614374565b9050919050565b6000602082019050818103600083015261492d81614397565b9050919050565b6000602082019050818103600083015261494d816143ba565b9050919050565b6000602082019050818103600083015261496d816143dd565b9050919050565b6000602082019050818103600083015261498d81614400565b9050919050565b600060208201905081810360008301526149ad81614423565b9050919050565b600060208201905081810360008301526149cd81614446565b9050919050565b600060208201905081810360008301526149ed81614469565b9050919050565b60006020820190508181036000830152614a0e818461452f565b905092915050565b6000602082019050614a2b60008301846145e1565b92915050565b600060e082019050614a46600083018a6145e1565b614a536020830189613fdc565b614a6060408301886145e1565b8181036060830152614a7281876140b7565b90508181036080830152614a8681866140b7565b9050614a9560a083018561406f565b614aa260c08301846145e1565b98975050505050505050565b6000614ab8614ac9565b9050614ac48282614de1565b919050565b6000604051905090565b600067ffffffffffffffff821115614aee57614aed614ee8565b5b602082029050602081019050919050565b600067ffffffffffffffff821115614b1a57614b19614ee8565b5b614b2382614f17565b9050602081019050919050565b600067ffffffffffffffff821115614b4b57614b4a614ee8565b5b614b5482614f17565b9050602081019050919050565b6000819050602082019050919050565b600081519050919050565b600081519050919050565b6000602082019050919050565b600082825260208201905092915050565b600082825260208201905092915050565b600082825260208201905092915050565b600081905092915050565b6000614bdd82614d63565b9150614be883614d63565b9250827fffffffffffffffffffffffffffffffffffffffffffffffffffffffffffffffff03821115614c1d57614c1c614e5b565b5b828201905092915050565b6000614c3382614d63565b9150614c3e83614d63565b925082614c4e57614c4d614e8a565b5b828204905092915050565b6000614c6482614d63565b9150614c6f83614d63565b9250817fffffffffffffffffffffffffffffffffffffffffffffffffffffffffffffffff0483118215151615614ca857614ca7614e5b565b5b828202905092915050565b6000614cbe82614d63565b9150614cc983614d63565b925082821015614cdc57614cdb614e5b565b5b828203905092915050565b6000614cf282614d43565b9050919050565b6000614d0482614d43565b9050919050565b60008115159050919050565b60007fffffffff0000000000000000000000000000000000000000000000000000000082169050919050565b600073ffffffffffffffffffffffffffffffffffffffff82169050919050565b6000819050919050565b82818337600083830152505050565b60005b83811015614d9a578082015181840152602081019050614d7f565b83811115614da9576000848401525b50505050565b60006002820490506001821680614dc757607f821691505b60208210811415614ddb57614dda614eb9565b5b50919050565b614dea82614f17565b810181811067ffffffffffffffff82111715614e0957614e08614ee8565b5b80604052505050565b6000614e1d82614d63565b91507fffffffffffffffffffffffffffffffffffffffffffffffffffffffffffffffff821415614e5057614e4f614e5b565b5b600182019050919050565b7f4e487b7100000000000000000000000000000000000000000000000000000000600052601160045260246000fd5b7f4e487b7100000000000000000000000000000000000000000000000000000000600052601260045260246000fd5b7f4e487b7100000000000000000000000000000000000000000000000000000000600052602260045260246000fd5b7f4e487b7100000000000000000000000000000000000000000000000000000000600052604160045260246000fd5b6000601f19601f8301169050919050565b7f4120746f6b656e2068617320616c7265616479206265656e206d696e7465642060008201527f7769746820746869732055524900000000000000000000000000000000000000602082015250565b7f4f776e61626c653a206e6577206f776e657220697320746865207a65726f206160008201527f6464726573730000000000000000000000000000000000000000000000000000602082015250565b7f4552433732313a207472616e736665722066726f6d20696e636f72726563742060008201527f6f776e6572000000000000000000000000000000000000000000000000000000602082015250565b7f4552433732313a20746f6b656e20616c7265616479206d696e74656400000000600082015250565b7f4552433732313a207472616e7366657220746f20746865207a65726f2061646460008201527f7265737300000000000000000000000000000000000000000000000000000000602082015250565b7f4552433732313a20617070726f766520746f2063616c6c657200000000000000600082015250565b7f4d6574686f64206d6179206f6e6c792062652063616c6c65642062792074686560008201527f206f776e65720000000000000000000000000000000000000000000000000000602082015250565b7f546f6b656e20646f6573206e6f74206578697374000000000000000000000000600082015250565b7f4552433732313a206f70657261746f7220717565727920666f72206e6f6e657860008201527f697374656e7420746f6b656e0000000000000000000000000000000000000000602082015250565b7f53656e646572206d75737420626520746f6b656e206f776e6572206f7220636f60008201527f6e7472616374206f776e65720000000000000000000000000000000000000000602082015250565b7f427579657220616c7265616479206f776e7320746f6b656e0000000000000000600082015250565b7f4552433732313a20617070726f76652063616c6c6572206973206e6f74206f7760008201527f6e6572206e6f7220617070726f76656420666f7220616c6c0000000000000000602082015250565b7f4552433732313a2062616c616e636520717565727920666f7220746865207a6560008201527f726f206164647265737300000000000000000000000000000000000000000000602082015250565b7f4552433732313a206f776e657220717565727920666f72206e6f6e657869737460008201527f656e7420746f6b656e0000000000000000000000000000000000000000000000602082015250565b7f4120746f6b656e2068617320616c7265616479206265656e206d696e7465642060008201527f77697468207468697320736f6c7574696f6e0000000000000000000000000000602082015250565b7f4552433732313a206d696e7420746f20746865207a65726f2061646472657373600082015250565b7f4552433732313a20617070726f76656420717565727920666f72206e6f6e657860008201527f697374656e7420746f6b656e0000000000000000000000000000000000000000602082015250565b7f546f6b656e206973206e6f7420666f722073616c650000000000000000000000600082015250565b7f412076616c756520666f7220736f6c7574696f6e206973207265717569726564600082015250565b7f496e76616c696420746f20616464726573730000000000000000000000000000600082015250565b7f4f776e61626c653a2063616c6c6572206973206e6f7420746865206f776e6572600082015250565b7f4552433732313a20617070726f76616c20746f2063757272656e74206f776e6560008201527f7200000000000000000000000000000000000000000000000000000000000000602082015250565b7f546f6b656e496420646f6573206e6f7420657869737400000000000000000000600082015250565b7f496e73756666696369656e742065746865722073656e7420776974682074686960008201527f73207472616e73616374696f6e00000000000000000000000000000000000000602082015250565b7f412076616c756520666f7220746f6b656e555249206973207265717569726564600082015250565b61554681614ce7565b811461555157600080fd5b50565b61555d81614cf9565b811461556857600080fd5b50565b61557481614d0b565b811461557f57600080fd5b50565b61558b81614d17565b811461559657600080fd5b50565b6155a281614d63565b81146155ad57600080fd5b5056fe546f6b656e20697320616c72656164792070726576656e7465642066726f6d206265696e6720736f6c64a2646970667358221220bb1a20a380f71751806ab13f8f102a9860e43b454844f0dd96da472f1d96447f64736f6c63430008010033",
  "immutableReferences": {},
  "source": "// SPDX-License-Identifier: MIT\r\npragma solidity >=0.4.22 <0.9.0;\r\nimport \"@openzeppelin/contracts/token/ERC721/ERC721.sol\";\r\nimport \"@openzeppelin/contracts/access/Ownable.sol\";\r\n\r\ncontract EthordleToken is ERC721, Ownable {\r\n    \r\nusing Strings for uint256;\r\n    \r\n    struct Token {\r\n        uint256 id;        \r\n        address owner;\r\n        uint256 price;\r\n        string url;\r\n        string solution;\r\n        bool isForSale;\r\n        uint256 transactionCount;        \r\n    }\r\n\r\n    mapping (uint256 => Token) public _tokens;\r\n    mapping (string => address) private _solutionOwners;\r\n    mapping (string => address) private _tokenURIOwners;\r\n\r\n    address private _owner;\r\n    uint256 private _initialPrice;\r\n    uint256 private _royaltyRate;\r\n    uint256 private _priceEscalationRate;\r\n    uint256 private _currentTokenId;\r\n    string private _baseURIextended;\r\n\r\n    event TokenMinted (\r\n        string solution,\r\n        address payable account,\r\n        uint256 tokenId,\r\n        string metadataURI\r\n    );\r\n\r\n    constructor(string memory _name, string memory _symbol, uint256 initialPrice_, uint256 royaltyRate_, uint256 priceEscalationRate_) ERC721(_name, _symbol) {\r\n        _owner = msg.sender;\r\n        _currentTokenId = 0;\r\n        _initialPrice = initialPrice_;\r\n        _royaltyRate = royaltyRate_;\r\n        _priceEscalationRate = priceEscalationRate_;\r\n    }\r\n    \r\n    function setInitialPrice(uint256 initialPrice_) external onlyOwner() {\r\n        _initialPrice = initialPrice_;\r\n    }\r\n\r\n    function initialPrice() external view returns (uint256) {\r\n        return _initialPrice;\r\n    }\r\n\r\n    function setRoyaltyRate(uint256 royaltyRate_) external onlyOwner() {\r\n        _royaltyRate = royaltyRate_;   \r\n    }\r\n\r\n    function royaltyRate() external view returns (uint256) {\r\n        return _royaltyRate;\r\n    }\r\n\r\n    function setPriceEscalationRate(uint256 priceEscalationRate_) external onlyOwner() {\r\n        _priceEscalationRate = priceEscalationRate_;\r\n    }\r\n\r\n    function priceEscalationRate() external view returns (uint256) {\r\n        return _priceEscalationRate;\r\n    }\r\n\r\n    function tokenCount() external view returns (uint256) {\r\n        return _currentTokenId;\r\n    }\r\n\r\n    function tokenById(uint256 tokenId) external view returns(Token memory) {\r\n        require(_exists(tokenId), 'TokenId does not exist');  \r\n\r\n        Token memory token = _tokens[tokenId];\r\n        require(_exists(tokenId), 'Token does not exist');   \r\n\r\n        return token;\r\n    }\r\n\r\n    function tokensOfOwner(address _from) external view returns(Token[] memory) {\r\n        uint256 ownerCount = balanceOf(_from);\r\n        uint256 ownerIndex = 0;\r\n        Token[] memory ownerTokens = new Token[](ownerCount);\r\n\r\n        if (ownerCount > 0) {\r\n            Token[] memory allTokens = this.tokens();\r\n            \r\n            for (uint256 i = 0; i < _currentTokenId; i++) {\r\n                if (allTokens[i].owner == _from) {\r\n                    ownerTokens[ownerIndex] = allTokens[i];\r\n                    ownerIndex++;\r\n                }\r\n            }\r\n        }\r\n\r\n        return ownerTokens;\r\n    }\r\n\r\n    function tokens() external view returns(Token[] memory) {  \r\n        Token[] memory allTokens = new Token[](_currentTokenId);\r\n\r\n        for (uint256 i = 0; i < _currentTokenId; i++) {\r\n            allTokens[i] = _tokens[i];\r\n        }\r\n\r\n        return allTokens;\r\n    }\r\n    \r\n    function setBaseURI(string memory baseURI) external onlyOwner() {\r\n        _baseURIextended = baseURI;\r\n    }\r\n    \r\n    function _baseURI() internal view virtual override returns (string memory) {\r\n        return _baseURIextended;\r\n    }\r\n    \r\n    function isSolutionUnique(string memory solution_) public view returns (bool) {\r\n        return _solutionOwners[solution_] == address(0x0);\r\n    }\r\n\r\n    function tokenURI(uint256 tokenId) public view virtual override returns (string memory) {\r\n        require(_exists(tokenId), 'TokenId does not exist');\r\n\r\n        return _tokens[tokenId].url;\r\n    }\r\n\r\n    function mint(\r\n        address payable to,\r\n        string memory solution_,\r\n        string memory tokenURI_\r\n    ) external payable {  \r\n        require(msg.sender == to || msg.sender == _owner, 'Invalid to address');      \r\n        require(msg.value >= _initialPrice, 'Insufficient ether sent with this transaction'); \r\n        require(_solutionOwners[solution_] == address(0x0), 'A token has already been minted with this solution');\r\n        require(_tokenURIOwners[tokenURI_] == address(0x0), 'A token has already been minted with this URI');\r\n        require(bytes(solution_).length >= 5, 'A value for solution is required');\r\n        require(bytes(tokenURI_).length >= 28, 'A value for tokenURI is required'); // https://ipfs.infura.io/ipfs/\r\n\r\n        payable(owner()).transfer(msg.value);\r\n\r\n        _mint(to, _currentTokenId);\r\n\r\n        uint256 newPrice =_getEscalatedPrice(msg.value);\r\n\r\n        Token memory token = Token(_currentTokenId, to, newPrice, tokenURI_, solution_, false, 1);\r\n       \r\n        _tokens[_currentTokenId] = token;\r\n        _solutionOwners[solution_] = to;\r\n        _tokenURIOwners[tokenURI_] = to;\r\n        _currentTokenId++;        \r\n        \r\n        emit TokenMinted(solution_, to, _currentTokenId, tokenURI_);\r\n    }\r\n\r\n    function allowSale(\r\n        address from,\r\n        uint256 tokenId\r\n    ) external {    \r\n        toggleSale(from, tokenId, true);\r\n    }\r\n\r\n    function preventSale(\r\n        address from,\r\n        uint256 tokenId\r\n    ) external {    \r\n        toggleSale(from, tokenId, false);        \r\n    }\r\n\r\n    function toggleSale( \r\n        address from, \r\n        uint256 tokenId,\r\n        bool markForSale\r\n    ) private {\r\n        require(_exists(tokenId), 'TokenId does not exist');   \r\n        require(_msgSender() == from || _msgSender() == _owner, 'Sender must be token owner or contract owner'); \r\n        require(_isApprovedOrOwner(_msgSender(), tokenId), 'Sender must be token owner or contract owner');   \r\n\r\n        Token memory token = _tokens[tokenId];\r\n        require(_exists(token.id), 'Token does not exist');  \r\n        require(markForSale != token.isForSale, markForSale ? 'Token is already marked for sale' : 'Token is already prevented from being sold'); \r\n        \r\n        token.isForSale = markForSale;\r\n\r\n        _tokens[tokenId] = token; \r\n    }\r\n\r\n    function buy(\r\n        address to,\r\n        uint256 tokenId\r\n    ) external payable {        \r\n        require(_exists(tokenId), 'TokenId does not exist');   \r\n\r\n        Token memory token = _tokens[tokenId];\r\n        require(_exists(token.id), 'Token does not exist');        \r\n        require(msg.value >= token.price, 'Insufficient ether sent with this transaction');\r\n        require(token.isForSale, 'Token is not for sale');\r\n        require(token.owner != to, 'Buyer already owns token'); \r\n       \r\n        string memory solution_ = token.solution;\r\n        string memory tokenURI_ = token.url;\r\n\r\n        uint256 totalRoyalty = _getRoyalty(msg.value); \r\n        uint256 remainder = msg.value - totalRoyalty;\r\n\r\n        payable(owner()).transfer(totalRoyalty);\r\n        payable(address(token.owner)).transfer(remainder);\r\n        \r\n        _transfer(token.owner, to, tokenId);\r\n\r\n        _solutionOwners[solution_] = to;\r\n        _tokenURIOwners[tokenURI_] = to;\r\n\r\n        uint256 newPrice = _getEscalatedPrice(msg.value);\r\n\r\n        token.owner = to;\r\n        token.price = newPrice;\r\n        token.isForSale = false;\r\n        token.transactionCount++;       \r\n\r\n        _tokens[tokenId] = token; \r\n    }\r\n  \r\n    function _getRoyalty(uint256 value) private view returns (uint256) {\r\n        return value * _royaltyRate / 10000 ;  // todo need safe multiply    \r\n    }\r\n\r\n    function _getEscalatedPrice(uint256 value) private view returns (uint256) {\r\n        uint256 divisor = 10**15;\r\n        uint256 newPrice = value * _priceEscalationRate / 10000 ;  // todo need safe multiply    \r\n        \r\n        return (newPrice / divisor) * divisor;  // round off new price to nearest 1E15\r\n    }\r\n  \r\n    // todo how to prevent base _transfer from being called directly\r\n\r\n    function transferFrom(\r\n        address /*from*/,\r\n        address /*to*/,\r\n        uint256 /*tokenId*/\r\n    ) public view override {\r\n        require(_msgSender() == _owner, 'Method may only be called by the owner');\r\n    }\r\n\r\n    function safeTransferFrom(\r\n        address /*from*/,\r\n        address /*to*/,\r\n        uint256 /*tokenId*/\r\n    ) public view override {\r\n        require(_msgSender() == _owner, 'Method may only be called by the owner');\r\n    }\r\n\r\n    function safeTransferFrom(\r\n        address /*from*/,\r\n        address /*to*/,\r\n        uint256 /*tokenId*/,\r\n        bytes memory /*_data*/\r\n    ) public view override {\r\n        require(_msgSender() == _owner, 'Method may only be called by the owner');\r\n    }\r\n}",
  "sourcePath": "C:\\Dev\\Github\\ethordle\\contracts\\EthordleToken.sol",
  "compiler": {
    "name": "solc",
    "version": "0.8.1+commit.df193b15.Emscripten.clang"
  },
  "schemaVersion": "3.4.6",
  "updatedAt": "2022-04-25T20:02:36.234Z",
  "networkType": "ethereum",
  "devdoc": {
    "kind": "dev",
    "methods": {
      "approve(address,uint256)": {
        "details": "See {IERC721-approve}."
      },
      "balanceOf(address)": {
        "details": "See {IERC721-balanceOf}."
      },
      "getApproved(uint256)": {
        "details": "See {IERC721-getApproved}."
      },
      "isApprovedForAll(address,address)": {
        "details": "See {IERC721-isApprovedForAll}."
      },
      "name()": {
        "details": "See {IERC721Metadata-name}."
      },
      "owner()": {
        "details": "Returns the address of the current owner."
      },
      "ownerOf(uint256)": {
        "details": "See {IERC721-ownerOf}."
      },
      "renounceOwnership()": {
        "details": "Leaves the contract without owner. It will not be possible to call `onlyOwner` functions anymore. Can only be called by the current owner. NOTE: Renouncing ownership will leave the contract without an owner, thereby removing any functionality that is only available to the owner."
      },
      "setApprovalForAll(address,bool)": {
        "details": "See {IERC721-setApprovalForAll}."
      },
      "supportsInterface(bytes4)": {
        "details": "See {IERC165-supportsInterface}."
      },
      "symbol()": {
        "details": "See {IERC721Metadata-symbol}."
      },
      "tokenURI(uint256)": {
        "details": "See {IERC721Metadata-tokenURI}."
      },
      "transferOwnership(address)": {
        "details": "Transfers ownership of the contract to a new account (`newOwner`). Can only be called by the current owner."
      }
    },
    "version": 1
  },
  "userdoc": {
    "kind": "user",
    "methods": {},
    "version": 1
  }
}