{
  "contractName": "EthordleToken",
  "abi": [
    {
      "inputs": [
        {
          "internalType": "string",
          "name": "_name",
          "type": "string"
        },
        {
          "internalType": "string",
          "name": "_symbol",
          "type": "string"
        },
        {
          "internalType": "uint256",
          "name": "initialPrice_",
          "type": "uint256"
        },
        {
          "internalType": "uint256",
          "name": "royaltyRate_",
          "type": "uint256"
        },
        {
          "internalType": "uint256",
          "name": "priceEscalationRate_",
          "type": "uint256"
        },
        {
          "internalType": "string",
          "name": "password_",
          "type": "string"
        }
      ],
      "stateMutability": "nonpayable",
      "type": "constructor"
    },
    {
      "anonymous": false,
      "inputs": [
        {
          "indexed": true,
          "internalType": "address",
          "name": "owner",
          "type": "address"
        },
        {
          "indexed": true,
          "internalType": "address",
          "name": "approved",
          "type": "address"
        },
        {
          "indexed": true,
          "internalType": "uint256",
          "name": "tokenId",
          "type": "uint256"
        }
      ],
      "name": "Approval",
      "type": "event"
    },
    {
      "anonymous": false,
      "inputs": [
        {
          "indexed": true,
          "internalType": "address",
          "name": "owner",
          "type": "address"
        },
        {
          "indexed": true,
          "internalType": "address",
          "name": "operator",
          "type": "address"
        },
        {
          "indexed": false,
          "internalType": "bool",
          "name": "approved",
          "type": "bool"
        }
      ],
      "name": "ApprovalForAll",
      "type": "event"
    },
    {
      "anonymous": false,
      "inputs": [
        {
          "indexed": true,
          "internalType": "address",
          "name": "previousOwner",
          "type": "address"
        },
        {
          "indexed": true,
          "internalType": "address",
          "name": "newOwner",
          "type": "address"
        }
      ],
      "name": "OwnershipTransferred",
      "type": "event"
    },
    {
      "anonymous": false,
      "inputs": [
        {
          "indexed": false,
          "internalType": "string",
          "name": "solution",
          "type": "string"
        },
        {
          "indexed": false,
          "internalType": "address",
          "name": "account",
          "type": "address"
        },
        {
          "indexed": false,
          "internalType": "uint256",
          "name": "tokenId",
          "type": "uint256"
        },
        {
          "indexed": false,
          "internalType": "string",
          "name": "metadataURI",
          "type": "string"
        },
        {
          "indexed": false,
          "internalType": "uint256",
          "name": "price",
          "type": "uint256"
        }
      ],
      "name": "TokenSaleAllowed",
      "type": "event"
    },
    {
      "anonymous": false,
      "inputs": [
        {
          "indexed": false,
          "internalType": "string",
          "name": "solution",
          "type": "string"
        },
        {
          "indexed": false,
          "internalType": "address",
          "name": "account",
          "type": "address"
        },
        {
          "indexed": false,
          "internalType": "uint256",
          "name": "tokenId",
          "type": "uint256"
        },
        {
          "indexed": false,
          "internalType": "string",
          "name": "metadataURI",
          "type": "string"
        }
      ],
      "name": "TokenSalePrevented",
      "type": "event"
    },
    {
      "anonymous": false,
      "inputs": [
        {
          "indexed": true,
          "internalType": "address",
          "name": "from",
          "type": "address"
        },
        {
          "indexed": true,
          "internalType": "address",
          "name": "to",
          "type": "address"
        },
        {
          "indexed": true,
          "internalType": "uint256",
          "name": "tokenId",
          "type": "uint256"
        }
      ],
      "name": "Transfer",
      "type": "event"
    },
    {
      "inputs": [
        {
          "internalType": "uint256",
          "name": "",
          "type": "uint256"
        }
      ],
      "name": "_tokens",
      "outputs": [
        {
          "internalType": "uint256",
          "name": "id",
          "type": "uint256"
        },
        {
          "internalType": "address",
          "name": "owner",
          "type": "address"
        },
        {
          "internalType": "uint256",
          "name": "price",
          "type": "uint256"
        },
        {
          "internalType": "uint256",
          "name": "lastPrice",
          "type": "uint256"
        },
        {
          "internalType": "string",
          "name": "url",
          "type": "string"
        },
        {
          "internalType": "string",
          "name": "solution",
          "type": "string"
        },
        {
          "internalType": "bool",
          "name": "isForSale",
          "type": "bool"
        },
        {
          "internalType": "uint256",
          "name": "lastTransactionTimestamp",
          "type": "uint256"
        },
        {
          "internalType": "uint256",
          "name": "transactionCount",
          "type": "uint256"
        }
      ],
      "stateMutability": "view",
      "type": "function"
    },
    {
      "inputs": [
        {
          "internalType": "address",
          "name": "to",
          "type": "address"
        },
        {
          "internalType": "uint256",
          "name": "tokenId",
          "type": "uint256"
        }
      ],
      "name": "approve",
      "outputs": [],
      "stateMutability": "nonpayable",
      "type": "function"
    },
    {
      "inputs": [
        {
          "internalType": "address",
          "name": "owner",
          "type": "address"
        }
      ],
      "name": "balanceOf",
      "outputs": [
        {
          "internalType": "uint256",
          "name": "",
          "type": "uint256"
        }
      ],
      "stateMutability": "view",
      "type": "function"
    },
    {
      "inputs": [
        {
          "internalType": "uint256",
          "name": "tokenId",
          "type": "uint256"
        }
      ],
      "name": "getApproved",
      "outputs": [
        {
          "internalType": "address",
          "name": "",
          "type": "address"
        }
      ],
      "stateMutability": "view",
      "type": "function"
    },
    {
      "inputs": [
        {
          "internalType": "address",
          "name": "owner",
          "type": "address"
        },
        {
          "internalType": "address",
          "name": "operator",
          "type": "address"
        }
      ],
      "name": "isApprovedForAll",
      "outputs": [
        {
          "internalType": "bool",
          "name": "",
          "type": "bool"
        }
      ],
      "stateMutability": "view",
      "type": "function"
    },
    {
      "inputs": [],
      "name": "name",
      "outputs": [
        {
          "internalType": "string",
          "name": "",
          "type": "string"
        }
      ],
      "stateMutability": "view",
      "type": "function"
    },
    {
      "inputs": [],
      "name": "owner",
      "outputs": [
        {
          "internalType": "address",
          "name": "",
          "type": "address"
        }
      ],
      "stateMutability": "view",
      "type": "function"
    },
    {
      "inputs": [
        {
          "internalType": "uint256",
          "name": "tokenId",
          "type": "uint256"
        }
      ],
      "name": "ownerOf",
      "outputs": [
        {
          "internalType": "address",
          "name": "",
          "type": "address"
        }
      ],
      "stateMutability": "view",
      "type": "function"
    },
    {
      "inputs": [],
      "name": "renounceOwnership",
      "outputs": [],
      "stateMutability": "nonpayable",
      "type": "function"
    },
    {
      "inputs": [
        {
          "internalType": "address",
          "name": "operator",
          "type": "address"
        },
        {
          "internalType": "bool",
          "name": "approved",
          "type": "bool"
        }
      ],
      "name": "setApprovalForAll",
      "outputs": [],
      "stateMutability": "nonpayable",
      "type": "function"
    },
    {
      "inputs": [
        {
          "internalType": "bytes4",
          "name": "interfaceId",
          "type": "bytes4"
        }
      ],
      "name": "supportsInterface",
      "outputs": [
        {
          "internalType": "bool",
          "name": "",
          "type": "bool"
        }
      ],
      "stateMutability": "view",
      "type": "function"
    },
    {
      "inputs": [],
      "name": "symbol",
      "outputs": [
        {
          "internalType": "string",
          "name": "",
          "type": "string"
        }
      ],
      "stateMutability": "view",
      "type": "function"
    },
    {
      "inputs": [
        {
          "internalType": "address",
          "name": "newOwner",
          "type": "address"
        }
      ],
      "name": "transferOwnership",
      "outputs": [],
      "stateMutability": "nonpayable",
      "type": "function"
    },
    {
      "inputs": [
        {
          "internalType": "string",
          "name": "a",
          "type": "string"
        },
        {
          "internalType": "string",
          "name": "b",
          "type": "string"
        }
      ],
      "name": "_compareStrings",
      "outputs": [
        {
          "internalType": "bool",
          "name": "",
          "type": "bool"
        }
      ],
      "stateMutability": "pure",
      "type": "function"
    },
    {
      "inputs": [
        {
          "internalType": "uint256",
          "name": "initialPrice_",
          "type": "uint256"
        }
      ],
      "name": "setInitialPrice",
      "outputs": [],
      "stateMutability": "nonpayable",
      "type": "function"
    },
    {
      "inputs": [],
      "name": "initialPrice",
      "outputs": [
        {
          "internalType": "uint256",
          "name": "",
          "type": "uint256"
        }
      ],
      "stateMutability": "view",
      "type": "function"
    },
    {
      "inputs": [
        {
          "internalType": "uint256",
          "name": "royaltyRate_",
          "type": "uint256"
        }
      ],
      "name": "setRoyaltyRate",
      "outputs": [],
      "stateMutability": "nonpayable",
      "type": "function"
    },
    {
      "inputs": [],
      "name": "royaltyRate",
      "outputs": [
        {
          "internalType": "uint256",
          "name": "",
          "type": "uint256"
        }
      ],
      "stateMutability": "view",
      "type": "function"
    },
    {
      "inputs": [
        {
          "internalType": "uint256",
          "name": "priceEscalationRate_",
          "type": "uint256"
        }
      ],
      "name": "setPriceEscalationRate",
      "outputs": [],
      "stateMutability": "nonpayable",
      "type": "function"
    },
    {
      "inputs": [],
      "name": "priceEscalationRate",
      "outputs": [
        {
          "internalType": "uint256",
          "name": "",
          "type": "uint256"
        }
      ],
      "stateMutability": "view",
      "type": "function"
    },
    {
      "inputs": [
        {
          "internalType": "string",
          "name": "password_",
          "type": "string"
        }
      ],
      "name": "setPassword",
      "outputs": [],
      "stateMutability": "nonpayable",
      "type": "function"
    },
    {
      "inputs": [],
      "name": "tokenCount",
      "outputs": [
        {
          "internalType": "uint256",
          "name": "",
          "type": "uint256"
        }
      ],
      "stateMutability": "view",
      "type": "function"
    },
    {
      "inputs": [
        {
          "internalType": "uint256",
          "name": "tokenId",
          "type": "uint256"
        }
      ],
      "name": "tokenById",
      "outputs": [
        {
          "components": [
            {
              "internalType": "uint256",
              "name": "id",
              "type": "uint256"
            },
            {
              "internalType": "address",
              "name": "owner",
              "type": "address"
            },
            {
              "internalType": "uint256",
              "name": "price",
              "type": "uint256"
            },
            {
              "internalType": "uint256",
              "name": "lastPrice",
              "type": "uint256"
            },
            {
              "internalType": "string",
              "name": "url",
              "type": "string"
            },
            {
              "internalType": "string",
              "name": "solution",
              "type": "string"
            },
            {
              "internalType": "bool",
              "name": "isForSale",
              "type": "bool"
            },
            {
              "internalType": "uint256",
              "name": "lastTransactionTimestamp",
              "type": "uint256"
            },
            {
              "internalType": "uint256",
              "name": "transactionCount",
              "type": "uint256"
            }
          ],
          "internalType": "struct EthordleToken.Token",
          "name": "",
          "type": "tuple"
        }
      ],
      "stateMutability": "view",
      "type": "function"
    },
    {
      "inputs": [
        {
          "internalType": "address",
          "name": "_from",
          "type": "address"
        }
      ],
      "name": "tokensOfOwner",
      "outputs": [
        {
          "components": [
            {
              "internalType": "uint256",
              "name": "id",
              "type": "uint256"
            },
            {
              "internalType": "address",
              "name": "owner",
              "type": "address"
            },
            {
              "internalType": "uint256",
              "name": "price",
              "type": "uint256"
            },
            {
              "internalType": "uint256",
              "name": "lastPrice",
              "type": "uint256"
            },
            {
              "internalType": "string",
              "name": "url",
              "type": "string"
            },
            {
              "internalType": "string",
              "name": "solution",
              "type": "string"
            },
            {
              "internalType": "bool",
              "name": "isForSale",
              "type": "bool"
            },
            {
              "internalType": "uint256",
              "name": "lastTransactionTimestamp",
              "type": "uint256"
            },
            {
              "internalType": "uint256",
              "name": "transactionCount",
              "type": "uint256"
            }
          ],
          "internalType": "struct EthordleToken.Token[]",
          "name": "",
          "type": "tuple[]"
        }
      ],
      "stateMutability": "view",
      "type": "function"
    },
    {
      "inputs": [],
      "name": "tokens",
      "outputs": [
        {
          "components": [
            {
              "internalType": "uint256",
              "name": "id",
              "type": "uint256"
            },
            {
              "internalType": "address",
              "name": "owner",
              "type": "address"
            },
            {
              "internalType": "uint256",
              "name": "price",
              "type": "uint256"
            },
            {
              "internalType": "uint256",
              "name": "lastPrice",
              "type": "uint256"
            },
            {
              "internalType": "string",
              "name": "url",
              "type": "string"
            },
            {
              "internalType": "string",
              "name": "solution",
              "type": "string"
            },
            {
              "internalType": "bool",
              "name": "isForSale",
              "type": "bool"
            },
            {
              "internalType": "uint256",
              "name": "lastTransactionTimestamp",
              "type": "uint256"
            },
            {
              "internalType": "uint256",
              "name": "transactionCount",
              "type": "uint256"
            }
          ],
          "internalType": "struct EthordleToken.Token[]",
          "name": "",
          "type": "tuple[]"
        }
      ],
      "stateMutability": "view",
      "type": "function"
    },
    {
      "inputs": [
        {
          "internalType": "string",
          "name": "baseURI",
          "type": "string"
        }
      ],
      "name": "setBaseURI",
      "outputs": [],
      "stateMutability": "nonpayable",
      "type": "function"
    },
    {
      "inputs": [
        {
          "internalType": "string",
          "name": "solution_",
          "type": "string"
        }
      ],
      "name": "isSolutionUnique",
      "outputs": [
        {
          "internalType": "bool",
          "name": "",
          "type": "bool"
        }
      ],
      "stateMutability": "view",
      "type": "function"
    },
    {
      "inputs": [
        {
          "internalType": "uint256",
          "name": "tokenId",
          "type": "uint256"
        }
      ],
      "name": "tokenURI",
      "outputs": [
        {
          "internalType": "string",
          "name": "",
          "type": "string"
        }
      ],
      "stateMutability": "view",
      "type": "function"
    },
    {
      "inputs": [
        {
          "internalType": "address payable",
          "name": "to",
          "type": "address"
        },
        {
          "internalType": "string",
          "name": "solution_",
          "type": "string"
        },
        {
          "internalType": "string",
          "name": "tokenURI_",
          "type": "string"
        },
        {
          "internalType": "string",
          "name": "password_",
          "type": "string"
        }
      ],
      "name": "mint",
      "outputs": [],
      "stateMutability": "payable",
      "type": "function"
    },
    {
      "inputs": [
        {
          "internalType": "uint256",
          "name": "tokenId",
          "type": "uint256"
        },
        {
          "internalType": "address",
          "name": "from",
          "type": "address"
        },
        {
          "internalType": "uint256",
          "name": "price",
          "type": "uint256"
        }
      ],
      "name": "allowSale",
      "outputs": [],
      "stateMutability": "nonpayable",
      "type": "function"
    },
    {
      "inputs": [
        {
          "internalType": "uint256",
          "name": "tokenId",
          "type": "uint256"
        },
        {
          "internalType": "address",
          "name": "from",
          "type": "address"
        }
      ],
      "name": "preventSale",
      "outputs": [],
      "stateMutability": "nonpayable",
      "type": "function"
    },
    {
      "inputs": [
        {
          "internalType": "uint256",
          "name": "tokenId",
          "type": "uint256"
        },
        {
          "internalType": "address",
          "name": "to",
          "type": "address"
        },
        {
          "internalType": "string",
          "name": "password_",
          "type": "string"
        }
      ],
      "name": "buy",
      "outputs": [],
      "stateMutability": "payable",
      "type": "function"
    },
    {
      "inputs": [
        {
          "internalType": "uint256",
          "name": "tokenId",
          "type": "uint256"
        },
        {
          "internalType": "address",
          "name": "to",
          "type": "address"
        }
      ],
      "name": "transfer",
      "outputs": [],
      "stateMutability": "payable",
      "type": "function"
    },
    {
      "inputs": [
        {
          "internalType": "address",
          "name": "",
          "type": "address"
        },
        {
          "internalType": "address",
          "name": "",
          "type": "address"
        },
        {
          "internalType": "uint256",
          "name": "",
          "type": "uint256"
        }
      ],
      "name": "transferFrom",
      "outputs": [],
      "stateMutability": "view",
      "type": "function"
    },
    {
      "inputs": [
        {
          "internalType": "address",
          "name": "",
          "type": "address"
        },
        {
          "internalType": "address",
          "name": "",
          "type": "address"
        },
        {
          "internalType": "uint256",
          "name": "",
          "type": "uint256"
        }
      ],
      "name": "safeTransferFrom",
      "outputs": [],
      "stateMutability": "view",
      "type": "function"
    },
    {
      "inputs": [
        {
          "internalType": "address",
          "name": "",
          "type": "address"
        },
        {
          "internalType": "address",
          "name": "",
          "type": "address"
        },
        {
          "internalType": "uint256",
          "name": "",
          "type": "uint256"
        },
        {
          "internalType": "bytes",
          "name": "",
          "type": "bytes"
        }
      ],
      "name": "safeTransferFrom",
      "outputs": [],
      "stateMutability": "view",
      "type": "function"
    }
  ],
  "bytecode": "0x608060405266038d7ea4c680006012553480156200001c57600080fd5b50604051620065a6380380620065a683398181016040528101906200004291906200032a565b858581600090805190602001906200005c929190620001f1565b50806001908051906020019062000075929190620001f1565b5050506001600681905550620000a0620000946200012360201b60201c565b6200012b60201b60201c565b33600b60006101000a81548173ffffffffffffffffffffffffffffffffffffffff021916908373ffffffffffffffffffffffffffffffffffffffff1602179055506000600f8190555083600c8190555082600d8190555081600e81905550806011908051906020019062000116929190620001f1565b505050505050506200059f565b600033905090565b6000600760009054906101000a900473ffffffffffffffffffffffffffffffffffffffff16905081600760006101000a81548173ffffffffffffffffffffffffffffffffffffffff021916908373ffffffffffffffffffffffffffffffffffffffff1602179055508173ffffffffffffffffffffffffffffffffffffffff168173ffffffffffffffffffffffffffffffffffffffff167f8be0079c531659141344cd1fd0a4f28419497f9722a3daafe3b4186f6b6457e060405160405180910390a35050565b828054620001ff90620004aa565b90600052602060002090601f0160209004810192826200022357600085556200026f565b82601f106200023e57805160ff19168380011785556200026f565b828001600101855582156200026f579182015b828111156200026e57825182559160200191906001019062000251565b5b5090506200027e919062000282565b5090565b5b808211156200029d57600081600090555060010162000283565b5090565b6000620002b8620002b28462000434565b6200040b565b905082815260208101848484011115620002d157600080fd5b620002de84828562000474565b509392505050565b600082601f830112620002f857600080fd5b81516200030a848260208601620002a1565b91505092915050565b600081519050620003248162000585565b92915050565b60008060008060008060c087890312156200034457600080fd5b600087015167ffffffffffffffff8111156200035f57600080fd5b6200036d89828a01620002e6565b965050602087015167ffffffffffffffff8111156200038b57600080fd5b6200039989828a01620002e6565b9550506040620003ac89828a0162000313565b9450506060620003bf89828a0162000313565b9350506080620003d289828a0162000313565b92505060a087015167ffffffffffffffff811115620003f057600080fd5b620003fe89828a01620002e6565b9150509295509295509295565b6000620004176200042a565b9050620004258282620004e0565b919050565b6000604051905090565b600067ffffffffffffffff82111562000452576200045162000545565b5b6200045d8262000574565b9050602081019050919050565b6000819050919050565b60005b838110156200049457808201518184015260208101905062000477565b83811115620004a4576000848401525b50505050565b60006002820490506001821680620004c357607f821691505b60208210811415620004da57620004d962000516565b5b50919050565b620004eb8262000574565b810181811067ffffffffffffffff821117156200050d576200050c62000545565b5b80604052505050565b7f4e487b7100000000000000000000000000000000000000000000000000000000600052602260045260246000fd5b7f4e487b7100000000000000000000000000000000000000000000000000000000600052604160045260246000fd5b6000601f19601f8301169050919050565b62000590816200046a565b81146200059c57600080fd5b50565b615ff780620005af6000396000f3fe60806040526004361061020f5760003560e01c80637c68ec4c11610118578063a5a02584116100a0578063c4d1510d1161006f578063c4d1510d14610780578063c87b56dd146107ab578063e985e9c5146107e8578063ed70554d14610825578063f2fde38b1461086a5761020f565b8063a5a02584146106d5578063a79961cf14610712578063b7760c8f1461073b578063b88d4fde146107575761020f565b80639d63848a116100e75780639d63848a146106045780639f181b5e1461062f5780639f4ba0ee1461065a578063a129ece914610683578063a22cb465146106ac5761020f565b80637c68ec4c146105345780638462151c146105715780638da5cb5b146105ae57806395d89b41146105d95761020f565b80634a0706be1161019b5780636b6af2d51161016a5780636b6af2d51461045c57806370a0823114610499578063715018a6146104d6578063755381f7146104ed578063777be3ec146105185761020f565b80634a0706be146103b1578063537782a2146103cd57806355f804b3146103f65780636352211e1461041f5761020f565b8063095ea7b3116101e2578063095ea7b3146102e25780631d0806ae1461030b57806323b872dd14610336578063290bb4531461035f57806342842e0e146103885761020f565b806301ffc9a71461021457806304f91a121461025157806306fdde031461027a578063081812fc146102a5575b600080fd5b34801561022057600080fd5b5061023b6004803603810190610236919061450c565b610893565b6040516102489190614e66565b60405180910390f35b34801561025d57600080fd5b50610278600480360381019061027391906146ae565b610975565b005b34801561028657600080fd5b5061028f610cb1565b60405161029c9190614e81565b60405180910390f35b3480156102b157600080fd5b506102cc60048036038101906102c791906145e2565b610d43565b6040516102d99190614e29565b60405180910390f35b3480156102ee57600080fd5b506103096004803603810190610304919061448f565b610dc8565b005b34801561031757600080fd5b50610320610ee0565b60405161032d9190615319565b60405180910390f35b34801561034257600080fd5b5061035d60048036038101906103589190614389565b610eea565b005b34801561036b57600080fd5b5061038660048036038101906103819190614535565b610f6b565b005b34801561039457600080fd5b506103af60048036038101906103aa9190614389565b611001565b005b6103cb60048036038101906103c691906142a2565b611082565b005b3480156103d957600080fd5b506103f460048036038101906103ef91906145e2565b61172c565b005b34801561040257600080fd5b5061041d60048036038101906104189190614535565b6117b2565b005b34801561042b57600080fd5b50610446600480360381019061044191906145e2565b611848565b6040516104539190614e29565b60405180910390f35b34801561046857600080fd5b50610483600480360381019061047e91906145e2565b6118fa565b60405161049091906152f7565b60405180910390f35b3480156104a557600080fd5b506104c060048036038101906104bb9190614279565b611918565b6040516104cd9190615319565b60405180910390f35b3480156104e257600080fd5b506104eb6119d0565b005b3480156104f957600080fd5b50610502611a58565b60405161050f9190615319565b60405180910390f35b610532600480360381019061052d9190614647565b611a62565b005b34801561054057600080fd5b5061055b60048036038101906105569190614576565b611fae565b6040516105689190614e66565b60405180910390f35b34801561057d57600080fd5b5061059860048036038101906105939190614279565b612007565b6040516105a59190614e44565b60405180910390f35b3480156105ba57600080fd5b506105c361225f565b6040516105d09190614e29565b60405180910390f35b3480156105e557600080fd5b506105ee612289565b6040516105fb9190614e81565b60405180910390f35b34801561061057600080fd5b5061061961231b565b6040516106269190614e44565b60405180910390f35b34801561063b57600080fd5b506106446125ef565b6040516106519190615319565b60405180910390f35b34801561066657600080fd5b50610681600480360381019061067c91906145e2565b6125f9565b005b34801561068f57600080fd5b506106aa60048036038101906106a591906145e2565b61267f565b005b3480156106b857600080fd5b506106d360048036038101906106ce9190614453565b612705565b005b3480156106e157600080fd5b506106fc60048036038101906106f79190614535565b61271b565b6040516107099190614e66565b60405180910390f35b34801561071e57600080fd5b506107396004803603810190610734919061460b565b612791565b005b6107556004803603810190610750919061460b565b612a50565b005b34801561076357600080fd5b5061077e600480360381019061077991906143d8565b612dd9565b005b34801561078c57600080fd5b50610795612e5b565b6040516107a29190615319565b60405180910390f35b3480156107b757600080fd5b506107d260048036038101906107cd91906145e2565b612e65565b6040516107df9190614e81565b60405180910390f35b3480156107f457600080fd5b5061080f600480360381019061080a919061434d565b612e81565b60405161081c9190614e66565b60405180910390f35b34801561083157600080fd5b5061084c600480360381019061084791906145e2565b612f15565b60405161086199989796959493929190615334565b60405180910390f35b34801561087657600080fd5b50610891600480360381019061088c9190614279565b6130a0565b005b60007f80ac58cd000000000000000000000000000000000000000000000000000000007bffffffffffffffffffffffffffffffffffffffffffffffffffffffff1916827bffffffffffffffffffffffffffffffffffffffffffffffffffffffff1916148061095e57507f5b5e139f000000000000000000000000000000000000000000000000000000007bffffffffffffffffffffffffffffffffffffffffffffffffffffffff1916827bffffffffffffffffffffffffffffffffffffffffffffffffffffffff1916145b8061096e575061096d82613198565b5b9050919050565b600061098084613202565b90508273ffffffffffffffffffffffffffffffffffffffff166109a16134b9565b73ffffffffffffffffffffffffffffffffffffffff161480610a175750600b60009054906101000a900473ffffffffffffffffffffffffffffffffffffffff1673ffffffffffffffffffffffffffffffffffffffff166109ff6134b9565b73ffffffffffffffffffffffffffffffffffffffff16145b610a56576040517f08c379a0000000000000000000000000000000000000000000000000000000008152600401610a4d90615057565b60405180910390fd5b610a67610a616134b9565b856134c1565b610aa6576040517f08c379a0000000000000000000000000000000000000000000000000000000008152600401610a9d90615057565b60405180910390fd5b8060c0015115610aeb576040517f08c379a0000000000000000000000000000000000000000000000000000000008152600401610ae290615017565b60405180910390fd5b8060400151821015610b32576040517f08c379a0000000000000000000000000000000000000000000000000000000008152600401610b2990615217565b60405180910390fd5b610b5b601254610b4d6012548561359f90919063ffffffff16565b6135b590919063ffffffff16565b81604001818152505060018160c001901515908115158152505080600860008681526020019081526020016000206000820151816000015560208201518160010160006101000a81548173ffffffffffffffffffffffffffffffffffffffff021916908373ffffffffffffffffffffffffffffffffffffffff16021790555060408201518160020155606082015181600301556080820151816004019080519060200190610c0a929190613dff565b5060a0820151816005019080519060200190610c27929190613dff565b5060c08201518160060160006101000a81548160ff02191690831515021790555060e0820151816007015561010082015181600801559050507f5d2c7bf90f1fb93dc5c1a182708e82e00fe9ea38d825a4c875373e4829a804438160a00151826020015186846080015186604051610ca3959493929190614ef6565b60405180910390a150505050565b606060008054610cc0906156d0565b80601f0160208091040260200160405190810160405280929190818152602001828054610cec906156d0565b8015610d395780601f10610d0e57610100808354040283529160200191610d39565b820191906000526020600020905b815481529060010190602001808311610d1c57829003601f168201915b5050505050905090565b6000610d4e826135cb565b610d8d576040517f08c379a0000000000000000000000000000000000000000000000000000000008152600401610d8490615137565b60405180910390fd5b6004600083815260200190815260200160002060009054906101000a900473ffffffffffffffffffffffffffffffffffffffff169050919050565b6000610dd382611848565b90508073ffffffffffffffffffffffffffffffffffffffff168373ffffffffffffffffffffffffffffffffffffffff161415610e44576040517f08c379a0000000000000000000000000000000000000000000000000000000008152600401610e3b906151f7565b60405180910390fd5b8073ffffffffffffffffffffffffffffffffffffffff16610e636134b9565b73ffffffffffffffffffffffffffffffffffffffff161480610e925750610e9181610e8c6134b9565b612e81565b5b610ed1576040517f08c379a0000000000000000000000000000000000000000000000000000000008152600401610ec890615097565b60405180910390fd5b610edb8383613637565b505050565b6000600c54905090565b610ef26134b9565b73ffffffffffffffffffffffffffffffffffffffff16610f1061225f565b73ffffffffffffffffffffffffffffffffffffffff1614610f66576040517f08c379a0000000000000000000000000000000000000000000000000000000008152600401610f5d906151b7565b60405180910390fd5b505050565b610f736134b9565b73ffffffffffffffffffffffffffffffffffffffff16610f9161225f565b73ffffffffffffffffffffffffffffffffffffffff1614610fe7576040517f08c379a0000000000000000000000000000000000000000000000000000000008152600401610fde906151b7565b60405180910390fd5b8060119080519060200190610ffd929190613dff565b5050565b6110096134b9565b73ffffffffffffffffffffffffffffffffffffffff1661102761225f565b73ffffffffffffffffffffffffffffffffffffffff161461107d576040517f08c379a0000000000000000000000000000000000000000000000000000000008152600401611074906151b7565b60405180910390fd5b505050565b600260065414156110c8576040517f08c379a00000000000000000000000000000000000000000000000000000000081526004016110bf906152d7565b60405180910390fd5b600260068190555080611165601180546110e1906156d0565b80601f016020809104026020016040519081016040528092919081815260200182805461110d906156d0565b801561115a5780601f1061112f5761010080835404028352916020019161115a565b820191906000526020600020905b81548152906001019060200180831161113d57829003601f168201915b505050505082611fae565b6111a4576040517f08c379a000000000000000000000000000000000000000000000000000000000815260040161119b906151d7565b60405180910390fd5b8473ffffffffffffffffffffffffffffffffffffffff163373ffffffffffffffffffffffffffffffffffffffff16148061122b5750600b60009054906101000a900473ffffffffffffffffffffffffffffffffffffffff1673ffffffffffffffffffffffffffffffffffffffff163373ffffffffffffffffffffffffffffffffffffffff16145b61126a576040517f08c379a000000000000000000000000000000000000000000000000000000000815260040161126190615197565b60405180910390fd5b600c543410156112af576040517f08c379a00000000000000000000000000000000000000000000000000000000081526004016112a690615257565b60405180910390fd5b600073ffffffffffffffffffffffffffffffffffffffff166009856040516112d79190614e12565b908152602001604051809103902060009054906101000a900473ffffffffffffffffffffffffffffffffffffffff1673ffffffffffffffffffffffffffffffffffffffff161461135c576040517f08c379a0000000000000000000000000000000000000000000000000000000008152600401611353906150f7565b60405180910390fd5b600073ffffffffffffffffffffffffffffffffffffffff16600a846040516113849190614e12565b908152602001604051809103902060009054906101000a900473ffffffffffffffffffffffffffffffffffffffff1673ffffffffffffffffffffffffffffffffffffffff1614611409576040517f08c379a000000000000000000000000000000000000000000000000000000000815260040161140090614f57565b60405180910390fd5b60058451101561144e576040517f08c379a000000000000000000000000000000000000000000000000000000000815260040161144590615177565b60405180910390fd5b601c83511015611493576040517f08c379a000000000000000000000000000000000000000000000000000000000815260040161148a90615277565b60405180910390fd5b61149b61225f565b73ffffffffffffffffffffffffffffffffffffffff166108fc349081150290604051600060405180830381858888f193505050501580156114e0573d6000803e3d6000fd5b506114ed85600f546136f0565b60006114f8346138ca565b90506000604051806101200160405280600f5481526020018873ffffffffffffffffffffffffffffffffffffffff168152602001838152602001600c548152602001868152602001878152602001600015158152602001428152602001600181525090508060086000600f5481526020019081526020016000206000820151816000015560208201518160010160006101000a81548173ffffffffffffffffffffffffffffffffffffffff021916908373ffffffffffffffffffffffffffffffffffffffff160217905550604082015181600201556060820151816003015560808201518160040190805190602001906115f3929190613dff565b5060a0820151816005019080519060200190611610929190613dff565b5060c08201518160060160006101000a81548160ff02191690831515021790555060e0820151816007015561010082015181600801559050508660098760405161165a9190614e12565b908152602001604051809103902060006101000a81548173ffffffffffffffffffffffffffffffffffffffff021916908373ffffffffffffffffffffffffffffffffffffffff16021790555086600a866040516116b79190614e12565b908152602001604051809103902060006101000a81548173ffffffffffffffffffffffffffffffffffffffff021916908373ffffffffffffffffffffffffffffffffffffffff160217905550600f600081548092919061171690615733565b9190505550505050600160068190555050505050565b6117346134b9565b73ffffffffffffffffffffffffffffffffffffffff1661175261225f565b73ffffffffffffffffffffffffffffffffffffffff16146117a8576040517f08c379a000000000000000000000000000000000000000000000000000000000815260040161179f906151b7565b60405180910390fd5b80600d8190555050565b6117ba6134b9565b73ffffffffffffffffffffffffffffffffffffffff166117d861225f565b73ffffffffffffffffffffffffffffffffffffffff161461182e576040517f08c379a0000000000000000000000000000000000000000000000000000000008152600401611825906151b7565b60405180910390fd5b8060109080519060200190611844929190613dff565b5050565b6000806002600084815260200190815260200160002060009054906101000a900473ffffffffffffffffffffffffffffffffffffffff169050600073ffffffffffffffffffffffffffffffffffffffff168173ffffffffffffffffffffffffffffffffffffffff1614156118f1576040517f08c379a00000000000000000000000000000000000000000000000000000000081526004016118e8906150d7565b60405180910390fd5b80915050919050565b611902613e85565b600061190d83613202565b905080915050919050565b60008073ffffffffffffffffffffffffffffffffffffffff168273ffffffffffffffffffffffffffffffffffffffff161415611989576040517f08c379a0000000000000000000000000000000000000000000000000000000008152600401611980906150b7565b60405180910390fd5b600360008373ffffffffffffffffffffffffffffffffffffffff1673ffffffffffffffffffffffffffffffffffffffff168152602001908152602001600020549050919050565b6119d86134b9565b73ffffffffffffffffffffffffffffffffffffffff166119f661225f565b73ffffffffffffffffffffffffffffffffffffffff1614611a4c576040517f08c379a0000000000000000000000000000000000000000000000000000000008152600401611a43906151b7565b60405180910390fd5b611a566000613929565b565b6000600e54905090565b60026006541415611aa8576040517f08c379a0000000000000000000000000000000000000000000000000000000008152600401611a9f906152d7565b60405180910390fd5b600260068190555080611b4560118054611ac1906156d0565b80601f0160208091040260200160405190810160405280929190818152602001828054611aed906156d0565b8015611b3a5780601f10611b0f57610100808354040283529160200191611b3a565b820191906000526020600020905b815481529060010190602001808311611b1d57829003601f168201915b505050505082611fae565b611b84576040517f08c379a0000000000000000000000000000000000000000000000000000000008152600401611b7b906151d7565b60405180910390fd5b6000611b8f85613202565b90508060400151341015611bd8576040517f08c379a0000000000000000000000000000000000000000000000000000000008152600401611bcf90615257565b60405180910390fd5b8060c00151611c1c576040517f08c379a0000000000000000000000000000000000000000000000000000000008152600401611c1390615157565b60405180910390fd5b8373ffffffffffffffffffffffffffffffffffffffff16816020015173ffffffffffffffffffffffffffffffffffffffff161415611c8f576040517f08c379a0000000000000000000000000000000000000000000000000000000008152600401611c8690615077565b60405180910390fd5b60008160a0015190506000826080015190506000611cac346139ef565b905060008134611cbc91906155d4565b9050611cc661225f565b73ffffffffffffffffffffffffffffffffffffffff166108fc839081150290604051600060405180830381858888f19350505050158015611d0b573d6000803e3d6000fd5b50846020015173ffffffffffffffffffffffffffffffffffffffff166108fc829081150290604051600060405180830381858888f19350505050158015611d56573d6000803e3d6000fd5b50611d668560200151898b613a21565b87600985604051611d779190614e12565b908152602001604051809103902060006101000a81548173ffffffffffffffffffffffffffffffffffffffff021916908373ffffffffffffffffffffffffffffffffffffffff16021790555087600a84604051611dd49190614e12565b908152602001604051809103902060006101000a81548173ffffffffffffffffffffffffffffffffffffffff021916908373ffffffffffffffffffffffffffffffffffffffff1602179055506000611e2b346138ca565b905088866020019073ffffffffffffffffffffffffffffffffffffffff16908173ffffffffffffffffffffffffffffffffffffffff168152505085604001518660600181815250508086604001818152505060008660c0019015159081151581525050428660e001818152505085610100018051809190611eab90615733565b8152505085600860008c81526020019081526020016000206000820151816000015560208201518160010160006101000a81548173ffffffffffffffffffffffffffffffffffffffff021916908373ffffffffffffffffffffffffffffffffffffffff16021790555060408201518160020155606082015181600301556080820151816004019080519060200190611f44929190613dff565b5060a0820151816005019080519060200190611f61929190613dff565b5060c08201518160060160006101000a81548160ff02191690831515021790555060e082015181600701556101008201518160080155905050505050505050506001600681905550505050565b600081604051602001611fc19190614e12565b6040516020818303038152906040528051906020012083604051602001611fe89190614e12565b6040516020818303038152906040528051906020012014905092915050565b6060600061201483611918565b90506000808267ffffffffffffffff811115612059577f4e487b7100000000000000000000000000000000000000000000000000000000600052604160045260246000fd5b60405190808252806020026020018201604052801561209257816020015b61207f613e85565b8152602001906001900390816120775790505b50905060008311156122545760003073ffffffffffffffffffffffffffffffffffffffff16639d63848a6040518163ffffffff1660e01b815260040160006040518083038186803b1580156120e657600080fd5b505afa1580156120fa573d6000803e3d6000fd5b505050506040513d6000823e3d601f19601f8201168201806040525081019061212391906144cb565b905060005b600f54811015612251578673ffffffffffffffffffffffffffffffffffffffff16828281518110612182577f4e487b7100000000000000000000000000000000000000000000000000000000600052603260045260246000fd5b60200260200101516020015173ffffffffffffffffffffffffffffffffffffffff16141561223e578181815181106121e3577f4e487b7100000000000000000000000000000000000000000000000000000000600052603260045260246000fd5b6020026020010151838581518110612224577f4e487b7100000000000000000000000000000000000000000000000000000000600052603260045260246000fd5b6020026020010181905250838061223a90615733565b9450505b808061224990615733565b915050612128565b50505b809350505050919050565b6000600760009054906101000a900473ffffffffffffffffffffffffffffffffffffffff16905090565b606060018054612298906156d0565b80601f01602080910402602001604051908101604052809291908181526020018280546122c4906156d0565b80156123115780601f106122e657610100808354040283529160200191612311565b820191906000526020600020905b8154815290600101906020018083116122f457829003601f168201915b5050505050905090565b60606000600f5467ffffffffffffffff811115612361577f4e487b7100000000000000000000000000000000000000000000000000000000600052604160045260246000fd5b60405190808252806020026020018201604052801561239a57816020015b612387613e85565b81526020019060019003908161237f5790505b50905060005b600f548110156125e7576008600082815260200190815260200160002060405180610120016040529081600082015481526020016001820160009054906101000a900473ffffffffffffffffffffffffffffffffffffffff1673ffffffffffffffffffffffffffffffffffffffff1673ffffffffffffffffffffffffffffffffffffffff168152602001600282015481526020016003820154815260200160048201805461244d906156d0565b80601f0160208091040260200160405190810160405280929190818152602001828054612479906156d0565b80156124c65780601f1061249b576101008083540402835291602001916124c6565b820191906000526020600020905b8154815290600101906020018083116124a957829003601f168201915b505050505081526020016005820180546124df906156d0565b80601f016020809104026020016040519081016040528092919081815260200182805461250b906156d0565b80156125585780601f1061252d57610100808354040283529160200191612558565b820191906000526020600020905b81548152906001019060200180831161253b57829003601f168201915b505050505081526020016006820160009054906101000a900460ff16151515158152602001600782015481526020016008820154815250508282815181106125c9577f4e487b7100000000000000000000000000000000000000000000000000000000600052603260045260246000fd5b602002602001018190525080806125df90615733565b9150506123a0565b508091505090565b6000600f54905090565b6126016134b9565b73ffffffffffffffffffffffffffffffffffffffff1661261f61225f565b73ffffffffffffffffffffffffffffffffffffffff1614612675576040517f08c379a000000000000000000000000000000000000000000000000000000000815260040161266c906151b7565b60405180910390fd5b80600c8190555050565b6126876134b9565b73ffffffffffffffffffffffffffffffffffffffff166126a561225f565b73ffffffffffffffffffffffffffffffffffffffff16146126fb576040517f08c379a00000000000000000000000000000000000000000000000000000000081526004016126f2906151b7565b60405180910390fd5b80600e8190555050565b6127176127106134b9565b8383613c88565b5050565b60008073ffffffffffffffffffffffffffffffffffffffff166009836040516127449190614e12565b908152602001604051809103902060009054906101000a900473ffffffffffffffffffffffffffffffffffffffff1673ffffffffffffffffffffffffffffffffffffffff16149050919050565b600061279c83613202565b90508173ffffffffffffffffffffffffffffffffffffffff166127bd6134b9565b73ffffffffffffffffffffffffffffffffffffffff1614806128335750600b60009054906101000a900473ffffffffffffffffffffffffffffffffffffffff1673ffffffffffffffffffffffffffffffffffffffff1661281b6134b9565b73ffffffffffffffffffffffffffffffffffffffff16145b612872576040517f08c379a000000000000000000000000000000000000000000000000000000000815260040161286990615057565b60405180910390fd5b61288361287d6134b9565b846134c1565b6128c2576040517f08c379a00000000000000000000000000000000000000000000000000000000081526004016128b990615057565b60405180910390fd5b8060c00151612906576040517f08c379a00000000000000000000000000000000000000000000000000000000081526004016128fd906152b7565b60405180910390fd5b60008160c001901515908115158152505080600860008581526020019081526020016000206000820151816000015560208201518160010160006101000a81548173ffffffffffffffffffffffffffffffffffffffff021916908373ffffffffffffffffffffffffffffffffffffffff160217905550604082015181600201556060820151816003015560808201518160040190805190602001906129ac929190613dff565b5060a08201518160050190805190602001906129c9929190613dff565b5060c08201518160060160006101000a81548160ff02191690831515021790555060e0820151816007015561010082015181600801559050507fc3b5a2843f6447d7f106f5f37fa2da559718e6690e8567e2a9a707074388a81c8160a001518260200151858460800151604051612a439493929190614ea3565b60405180910390a1505050565b60026006541415612a96576040517f08c379a0000000000000000000000000000000000000000000000000000000008152600401612a8d906152d7565b60405180910390fd5b6002600681905550612aa66134b9565b73ffffffffffffffffffffffffffffffffffffffff16612ac461225f565b73ffffffffffffffffffffffffffffffffffffffff1614612b1a576040517f08c379a0000000000000000000000000000000000000000000000000000000008152600401612b11906151b7565b60405180910390fd5b6000612b2583613202565b90508173ffffffffffffffffffffffffffffffffffffffff16816020015173ffffffffffffffffffffffffffffffffffffffff161415612b9a576040517f08c379a0000000000000000000000000000000000000000000000000000000008152600401612b9190615077565b60405180910390fd5b60008160a001519050600082608001519050612bbb83602001518587613a21565b83600983604051612bcc9190614e12565b908152602001604051809103902060006101000a81548173ffffffffffffffffffffffffffffffffffffffff021916908373ffffffffffffffffffffffffffffffffffffffff16021790555083600a82604051612c299190614e12565b908152602001604051809103902060006101000a81548173ffffffffffffffffffffffffffffffffffffffff021916908373ffffffffffffffffffffffffffffffffffffffff16021790555083836020019073ffffffffffffffffffffffffffffffffffffffff16908173ffffffffffffffffffffffffffffffffffffffff168152505060008360c0019015159081151581525050428360e001818152505082610100018051809190612cdb90615733565b8152505082600860008781526020019081526020016000206000820151816000015560208201518160010160006101000a81548173ffffffffffffffffffffffffffffffffffffffff021916908373ffffffffffffffffffffffffffffffffffffffff16021790555060408201518160020155606082015181600301556080820151816004019080519060200190612d74929190613dff565b5060a0820151816005019080519060200190612d91929190613dff565b5060c08201518160060160006101000a81548160ff02191690831515021790555060e08201518160070155610100820151816008015590505050505060016006819055505050565b612de16134b9565b73ffffffffffffffffffffffffffffffffffffffff16612dff61225f565b73ffffffffffffffffffffffffffffffffffffffff1614612e55576040517f08c379a0000000000000000000000000000000000000000000000000000000008152600401612e4c906151b7565b60405180910390fd5b50505050565b6000600d54905090565b60606000612e7283613202565b90508060800151915050919050565b6000600560008473ffffffffffffffffffffffffffffffffffffffff1673ffffffffffffffffffffffffffffffffffffffff16815260200190815260200160002060008373ffffffffffffffffffffffffffffffffffffffff1673ffffffffffffffffffffffffffffffffffffffff16815260200190815260200160002060009054906101000a900460ff16905092915050565b60086020528060005260406000206000915090508060000154908060010160009054906101000a900473ffffffffffffffffffffffffffffffffffffffff1690806002015490806003015490806004018054612f70906156d0565b80601f0160208091040260200160405190810160405280929190818152602001828054612f9c906156d0565b8015612fe95780601f10612fbe57610100808354040283529160200191612fe9565b820191906000526020600020905b815481529060010190602001808311612fcc57829003601f168201915b505050505090806005018054612ffe906156d0565b80601f016020809104026020016040519081016040528092919081815260200182805461302a906156d0565b80156130775780601f1061304c57610100808354040283529160200191613077565b820191906000526020600020905b81548152906001019060200180831161305a57829003601f168201915b5050505050908060060160009054906101000a900460ff16908060070154908060080154905089565b6130a86134b9565b73ffffffffffffffffffffffffffffffffffffffff166130c661225f565b73ffffffffffffffffffffffffffffffffffffffff161461311c576040517f08c379a0000000000000000000000000000000000000000000000000000000008152600401613113906151b7565b60405180910390fd5b600073ffffffffffffffffffffffffffffffffffffffff168173ffffffffffffffffffffffffffffffffffffffff16141561318c576040517f08c379a000000000000000000000000000000000000000000000000000000000815260040161318390614f77565b60405180910390fd5b61319581613929565b50565b60007f01ffc9a7000000000000000000000000000000000000000000000000000000007bffffffffffffffffffffffffffffffffffffffffffffffffffffffff1916827bffffffffffffffffffffffffffffffffffffffffffffffffffffffff1916149050919050565b61320a613e85565b613213826135cb565b613252576040517f08c379a000000000000000000000000000000000000000000000000000000000815260040161324990615237565b60405180910390fd5b60006008600084815260200190815260200160002060405180610120016040529081600082015481526020016001820160009054906101000a900473ffffffffffffffffffffffffffffffffffffffff1673ffffffffffffffffffffffffffffffffffffffff1673ffffffffffffffffffffffffffffffffffffffff16815260200160028201548152602001600382015481526020016004820180546132f7906156d0565b80601f0160208091040260200160405190810160405280929190818152602001828054613323906156d0565b80156133705780601f1061334557610100808354040283529160200191613370565b820191906000526020600020905b81548152906001019060200180831161335357829003601f168201915b50505050508152602001600582018054613389906156d0565b80601f01602080910402602001604051908101604052809291908181526020018280546133b5906156d0565b80156134025780601f106133d757610100808354040283529160200191613402565b820191906000526020600020905b8154815290600101906020018083116133e557829003601f168201915b505050505081526020016006820160009054906101000a900460ff16151515158152602001600782015481526020016008820154815250509050600073ffffffffffffffffffffffffffffffffffffffff16816020015173ffffffffffffffffffffffffffffffffffffffff1614156134b0576040517f08c379a00000000000000000000000000000000000000000000000000000000081526004016134a790615297565b60405180910390fd5b80915050919050565b600033905090565b60006134cc826135cb565b61350b576040517f08c379a000000000000000000000000000000000000000000000000000000000815260040161350290615037565b60405180910390fd5b600061351683611848565b90508073ffffffffffffffffffffffffffffffffffffffff168473ffffffffffffffffffffffffffffffffffffffff16148061358557508373ffffffffffffffffffffffffffffffffffffffff1661356d84610d43565b73ffffffffffffffffffffffffffffffffffffffff16145b8061359657506135958185612e81565b5b91505092915050565b600081836135ad9190615549565b905092915050565b600081836135c3919061557a565b905092915050565b60008073ffffffffffffffffffffffffffffffffffffffff166002600084815260200190815260200160002060009054906101000a900473ffffffffffffffffffffffffffffffffffffffff1673ffffffffffffffffffffffffffffffffffffffff1614159050919050565b816004600083815260200190815260200160002060006101000a81548173ffffffffffffffffffffffffffffffffffffffff021916908373ffffffffffffffffffffffffffffffffffffffff160217905550808273ffffffffffffffffffffffffffffffffffffffff166136aa83611848565b73ffffffffffffffffffffffffffffffffffffffff167f8c5be1e5ebec7d5bd14f71427d1e84f3dd0314c0f7b2291e5b200ac8c7c3b92560405160405180910390a45050565b600073ffffffffffffffffffffffffffffffffffffffff168273ffffffffffffffffffffffffffffffffffffffff161415613760576040517f08c379a000000000000000000000000000000000000000000000000000000000815260040161375790615117565b60405180910390fd5b613769816135cb565b156137a9576040517f08c379a00000000000000000000000000000000000000000000000000000000081526004016137a090614fb7565b60405180910390fd5b6137b560008383613df5565b6001600360008473ffffffffffffffffffffffffffffffffffffffff1673ffffffffffffffffffffffffffffffffffffffff168152602001908152602001600020600082825461380591906154f3565b92505081905550816002600083815260200190815260200160002060006101000a81548173ffffffffffffffffffffffffffffffffffffffff021916908373ffffffffffffffffffffffffffffffffffffffff160217905550808273ffffffffffffffffffffffffffffffffffffffff16600073ffffffffffffffffffffffffffffffffffffffff167fddf252ad1be2c89b69c2b068fc378daa952ba7f163c4a11628f55a4df523b3ef60405160405180910390a46138c660008383613dfa565b5050565b6000806138f66127106138e8600e54866135b590919063ffffffff16565b61359f90919063ffffffff16565b90506139216012546139136012548461359f90919063ffffffff16565b6135b590919063ffffffff16565b915050919050565b6000600760009054906101000a900473ffffffffffffffffffffffffffffffffffffffff16905081600760006101000a81548173ffffffffffffffffffffffffffffffffffffffff021916908373ffffffffffffffffffffffffffffffffffffffff1602179055508173ffffffffffffffffffffffffffffffffffffffff168173ffffffffffffffffffffffffffffffffffffffff167f8be0079c531659141344cd1fd0a4f28419497f9722a3daafe3b4186f6b6457e060405160405180910390a35050565b6000613a1a612710613a0c600d54856135b590919063ffffffff16565b61359f90919063ffffffff16565b9050919050565b8273ffffffffffffffffffffffffffffffffffffffff16613a4182611848565b73ffffffffffffffffffffffffffffffffffffffff1614613a97576040517f08c379a0000000000000000000000000000000000000000000000000000000008152600401613a8e90614f97565b60405180910390fd5b600073ffffffffffffffffffffffffffffffffffffffff168273ffffffffffffffffffffffffffffffffffffffff161415613b07576040517f08c379a0000000000000000000000000000000000000000000000000000000008152600401613afe90614fd7565b60405180910390fd5b613b12838383613df5565b613b1d600082613637565b6001600360008573ffffffffffffffffffffffffffffffffffffffff1673ffffffffffffffffffffffffffffffffffffffff1681526020019081526020016000206000828254613b6d91906155d4565b925050819055506001600360008473ffffffffffffffffffffffffffffffffffffffff1673ffffffffffffffffffffffffffffffffffffffff1681526020019081526020016000206000828254613bc491906154f3565b92505081905550816002600083815260200190815260200160002060006101000a81548173ffffffffffffffffffffffffffffffffffffffff021916908373ffffffffffffffffffffffffffffffffffffffff160217905550808273ffffffffffffffffffffffffffffffffffffffff168473ffffffffffffffffffffffffffffffffffffffff167fddf252ad1be2c89b69c2b068fc378daa952ba7f163c4a11628f55a4df523b3ef60405160405180910390a4613c83838383613dfa565b505050565b8173ffffffffffffffffffffffffffffffffffffffff168373ffffffffffffffffffffffffffffffffffffffff161415613cf7576040517f08c379a0000000000000000000000000000000000000000000000000000000008152600401613cee90614ff7565b60405180910390fd5b80600560008573ffffffffffffffffffffffffffffffffffffffff1673ffffffffffffffffffffffffffffffffffffffff16815260200190815260200160002060008473ffffffffffffffffffffffffffffffffffffffff1673ffffffffffffffffffffffffffffffffffffffff16815260200190815260200160002060006101000a81548160ff0219169083151502179055508173ffffffffffffffffffffffffffffffffffffffff168373ffffffffffffffffffffffffffffffffffffffff167f17307eab39ab6107e8899845ad3d59bd9653f200f220920489ca2b5937696c3183604051613de89190614e66565b60405180910390a3505050565b505050565b505050565b828054613e0b906156d0565b90600052602060002090601f016020900481019282613e2d5760008555613e74565b82601f10613e4657805160ff1916838001178555613e74565b82800160010185558215613e74579182015b82811115613e73578251825591602001919060010190613e58565b5b509050613e819190613ee9565b5090565b60405180610120016040528060008152602001600073ffffffffffffffffffffffffffffffffffffffff1681526020016000815260200160008152602001606081526020016060815260200160001515815260200160008152602001600081525090565b5b80821115613f02576000816000905550600101613eea565b5090565b6000613f19613f14846153f4565b6153cf565b9050808382526020820190508260005b85811015613f595781518501613f3f8882614143565b845260208401935060208301925050600181019050613f29565b5050509392505050565b6000613f76613f7184615420565b6153cf565b905082815260208101848484011115613f8e57600080fd5b613f9984828561568e565b509392505050565b6000613fb4613faf84615451565b6153cf565b905082815260208101848484011115613fcc57600080fd5b613fd784828561568e565b509392505050565b6000613ff2613fed84615451565b6153cf565b90508281526020810184848401111561400a57600080fd5b61401584828561569d565b509392505050565b60008135905061402c81615f4e565b92915050565b60008151905061404181615f4e565b92915050565b60008135905061405681615f65565b92915050565b600082601f83011261406d57600080fd5b815161407d848260208601613f06565b91505092915050565b60008135905061409581615f7c565b92915050565b6000815190506140aa81615f7c565b92915050565b6000813590506140bf81615f93565b92915050565b600082601f8301126140d657600080fd5b81356140e6848260208601613f63565b91505092915050565b600082601f83011261410057600080fd5b8135614110848260208601613fa1565b91505092915050565b600082601f83011261412a57600080fd5b815161413a848260208601613fdf565b91505092915050565b6000610120828403121561415657600080fd5b6141616101206153cf565b9050600061417184828501614264565b600083015250602061418584828501614032565b602083015250604061419984828501614264565b60408301525060606141ad84828501614264565b606083015250608082015167ffffffffffffffff8111156141cd57600080fd5b6141d984828501614119565b60808301525060a082015167ffffffffffffffff8111156141f957600080fd5b61420584828501614119565b60a08301525060c06142198482850161409b565b60c08301525060e061422d84828501614264565b60e08301525061010061424284828501614264565b6101008301525092915050565b60008135905061425e81615faa565b92915050565b60008151905061427381615faa565b92915050565b60006020828403121561428b57600080fd5b60006142998482850161401d565b91505092915050565b600080600080608085870312156142b857600080fd5b60006142c687828801614047565b945050602085013567ffffffffffffffff8111156142e357600080fd5b6142ef878288016140ef565b935050604085013567ffffffffffffffff81111561430c57600080fd5b614318878288016140ef565b925050606085013567ffffffffffffffff81111561433557600080fd5b614341878288016140ef565b91505092959194509250565b6000806040838503121561436057600080fd5b600061436e8582860161401d565b925050602061437f8582860161401d565b9150509250929050565b60008060006060848603121561439e57600080fd5b60006143ac8682870161401d565b93505060206143bd8682870161401d565b92505060406143ce8682870161424f565b9150509250925092565b600080600080608085870312156143ee57600080fd5b60006143fc8782880161401d565b945050602061440d8782880161401d565b935050604061441e8782880161424f565b925050606085013567ffffffffffffffff81111561443b57600080fd5b614447878288016140c5565b91505092959194509250565b6000806040838503121561446657600080fd5b60006144748582860161401d565b925050602061448585828601614086565b9150509250929050565b600080604083850312156144a257600080fd5b60006144b08582860161401d565b92505060206144c18582860161424f565b9150509250929050565b6000602082840312156144dd57600080fd5b600082015167ffffffffffffffff8111156144f757600080fd5b6145038482850161405c565b91505092915050565b60006020828403121561451e57600080fd5b600061452c848285016140b0565b91505092915050565b60006020828403121561454757600080fd5b600082013567ffffffffffffffff81111561456157600080fd5b61456d848285016140ef565b91505092915050565b6000806040838503121561458957600080fd5b600083013567ffffffffffffffff8111156145a357600080fd5b6145af858286016140ef565b925050602083013567ffffffffffffffff8111156145cc57600080fd5b6145d8858286016140ef565b9150509250929050565b6000602082840312156145f457600080fd5b60006146028482850161424f565b91505092915050565b6000806040838503121561461e57600080fd5b600061462c8582860161424f565b925050602061463d8582860161401d565b9150509250929050565b60008060006060848603121561465c57600080fd5b600061466a8682870161424f565b935050602061467b8682870161401d565b925050604084013567ffffffffffffffff81111561469857600080fd5b6146a4868287016140ef565b9150509250925092565b6000806000606084860312156146c357600080fd5b60006146d18682870161424f565b93505060206146e28682870161401d565b92505060406146f38682870161424f565b9150509250925092565b60006147098383614c5c565b905092915050565b61471a81615608565b82525050565b61472981615608565b82525050565b600061473a82615492565b61474481856154b5565b93508360208202850161475685615482565b8060005b85811015614792578484038952815161477385826146fd565b945061477e836154a8565b925060208a0199505060018101905061475a565b50829750879550505050505092915050565b6147ad8161562c565b82525050565b6147bc8161562c565b82525050565b60006147cd8261549d565b6147d781856154c6565b93506147e781856020860161569d565b6147f081615838565b840191505092915050565b60006148068261549d565b61481081856154d7565b935061482081856020860161569d565b61482981615838565b840191505092915050565b600061483f8261549d565b61484981856154e8565b935061485981856020860161569d565b80840191505092915050565b6000614872602d836154d7565b915061487d82615849565b604082019050919050565b60006148956026836154d7565b91506148a082615898565b604082019050919050565b60006148b86025836154d7565b91506148c3826158e7565b604082019050919050565b60006148db601c836154d7565b91506148e682615936565b602082019050919050565b60006148fe6024836154d7565b91506149098261595f565b604082019050919050565b60006149216019836154d7565b915061492c826159ae565b602082019050919050565b60006149446020836154d7565b915061494f826159d7565b602082019050919050565b6000614967602c836154d7565b915061497282615a00565b604082019050919050565b600061498a602c836154d7565b915061499582615a4f565b604082019050919050565b60006149ad6018836154d7565b91506149b882615a9e565b602082019050919050565b60006149d06038836154d7565b91506149db82615ac7565b604082019050919050565b60006149f3602a836154d7565b91506149fe82615b16565b604082019050919050565b6000614a166029836154d7565b9150614a2182615b65565b604082019050919050565b6000614a396032836154d7565b9150614a4482615bb4565b604082019050919050565b6000614a5c6020836154d7565b9150614a6782615c03565b602082019050919050565b6000614a7f602c836154d7565b9150614a8a82615c2c565b604082019050919050565b6000614aa26015836154d7565b9150614aad82615c7b565b602082019050919050565b6000614ac56020836154d7565b9150614ad082615ca4565b602082019050919050565b6000614ae86012836154d7565b9150614af382615ccd565b602082019050919050565b6000614b0b6020836154d7565b9150614b1682615cf6565b602082019050919050565b6000614b2e6032836154d7565b9150614b3982615d1f565b604082019050919050565b6000614b516021836154d7565b9150614b5c82615d6e565b604082019050919050565b6000614b746039836154d7565b9150614b7f82615dbd565b604082019050919050565b6000614b976016836154d7565b9150614ba282615e0c565b602082019050919050565b6000614bba602d836154d7565b9150614bc582615e35565b604082019050919050565b6000614bdd6020836154d7565b9150614be882615e84565b602082019050919050565b6000614c00601b836154d7565b9150614c0b82615ead565b602082019050919050565b6000614c23602a836154d7565b9150614c2e82615ed6565b604082019050919050565b6000614c46601f836154d7565b9150614c5182615f25565b602082019050919050565b600061012083016000830151614c756000860182614df4565b506020830151614c886020860182614711565b506040830151614c9b6040860182614df4565b506060830151614cae6060860182614df4565b5060808301518482036080860152614cc682826147c2565b91505060a083015184820360a0860152614ce082826147c2565b91505060c0830151614cf560c08601826147a4565b5060e0830151614d0860e0860182614df4565b50610100830151614d1d610100860182614df4565b508091505092915050565b600061012083016000830151614d416000860182614df4565b506020830151614d546020860182614711565b506040830151614d676040860182614df4565b506060830151614d7a6060860182614df4565b5060808301518482036080860152614d9282826147c2565b91505060a083015184820360a0860152614dac82826147c2565b91505060c0830151614dc160c08601826147a4565b5060e0830151614dd460e0860182614df4565b50610100830151614de9610100860182614df4565b508091505092915050565b614dfd81615684565b82525050565b614e0c81615684565b82525050565b6000614e1e8284614834565b915081905092915050565b6000602082019050614e3e6000830184614720565b92915050565b60006020820190508181036000830152614e5e818461472f565b905092915050565b6000602082019050614e7b60008301846147b3565b92915050565b60006020820190508181036000830152614e9b81846147fb565b905092915050565b60006080820190508181036000830152614ebd81876147fb565b9050614ecc6020830186614720565b614ed96040830185614e03565b8181036060830152614eeb81846147fb565b905095945050505050565b600060a0820190508181036000830152614f1081886147fb565b9050614f1f6020830187614720565b614f2c6040830186614e03565b8181036060830152614f3e81856147fb565b9050614f4d6080830184614e03565b9695505050505050565b60006020820190508181036000830152614f7081614865565b9050919050565b60006020820190508181036000830152614f9081614888565b9050919050565b60006020820190508181036000830152614fb0816148ab565b9050919050565b60006020820190508181036000830152614fd0816148ce565b9050919050565b60006020820190508181036000830152614ff0816148f1565b9050919050565b6000602082019050818103600083015261501081614914565b9050919050565b6000602082019050818103600083015261503081614937565b9050919050565b600060208201905081810360008301526150508161495a565b9050919050565b600060208201905081810360008301526150708161497d565b9050919050565b60006020820190508181036000830152615090816149a0565b9050919050565b600060208201905081810360008301526150b0816149c3565b9050919050565b600060208201905081810360008301526150d0816149e6565b9050919050565b600060208201905081810360008301526150f081614a09565b9050919050565b6000602082019050818103600083015261511081614a2c565b9050919050565b6000602082019050818103600083015261513081614a4f565b9050919050565b6000602082019050818103600083015261515081614a72565b9050919050565b6000602082019050818103600083015261517081614a95565b9050919050565b6000602082019050818103600083015261519081614ab8565b9050919050565b600060208201905081810360008301526151b081614adb565b9050919050565b600060208201905081810360008301526151d081614afe565b9050919050565b600060208201905081810360008301526151f081614b21565b9050919050565b6000602082019050818103600083015261521081614b44565b9050919050565b6000602082019050818103600083015261523081614b67565b9050919050565b6000602082019050818103600083015261525081614b8a565b9050919050565b6000602082019050818103600083015261527081614bad565b9050919050565b6000602082019050818103600083015261529081614bd0565b9050919050565b600060208201905081810360008301526152b081614bf3565b9050919050565b600060208201905081810360008301526152d081614c16565b9050919050565b600060208201905081810360008301526152f081614c39565b9050919050565b600060208201905081810360008301526153118184614d28565b905092915050565b600060208201905061532e6000830184614e03565b92915050565b60006101208201905061534a600083018c614e03565b615357602083018b614720565b615364604083018a614e03565b6153716060830189614e03565b818103608083015261538381886147fb565b905081810360a083015261539781876147fb565b90506153a660c08301866147b3565b6153b360e0830185614e03565b6153c1610100830184614e03565b9a9950505050505050505050565b60006153d96153ea565b90506153e58282615702565b919050565b6000604051905090565b600067ffffffffffffffff82111561540f5761540e615809565b5b602082029050602081019050919050565b600067ffffffffffffffff82111561543b5761543a615809565b5b61544482615838565b9050602081019050919050565b600067ffffffffffffffff82111561546c5761546b615809565b5b61547582615838565b9050602081019050919050565b6000819050602082019050919050565b600081519050919050565b600081519050919050565b6000602082019050919050565b600082825260208201905092915050565b600082825260208201905092915050565b600082825260208201905092915050565b600081905092915050565b60006154fe82615684565b915061550983615684565b9250827fffffffffffffffffffffffffffffffffffffffffffffffffffffffffffffffff0382111561553e5761553d61577c565b5b828201905092915050565b600061555482615684565b915061555f83615684565b92508261556f5761556e6157ab565b5b828204905092915050565b600061558582615684565b915061559083615684565b9250817fffffffffffffffffffffffffffffffffffffffffffffffffffffffffffffffff04831182151516156155c9576155c861577c565b5b828202905092915050565b60006155df82615684565b91506155ea83615684565b9250828210156155fd576155fc61577c565b5b828203905092915050565b600061561382615664565b9050919050565b600061562582615664565b9050919050565b60008115159050919050565b60007fffffffff0000000000000000000000000000000000000000000000000000000082169050919050565b600073ffffffffffffffffffffffffffffffffffffffff82169050919050565b6000819050919050565b82818337600083830152505050565b60005b838110156156bb5780820151818401526020810190506156a0565b838111156156ca576000848401525b50505050565b600060028204905060018216806156e857607f821691505b602082108114156156fc576156fb6157da565b5b50919050565b61570b82615838565b810181811067ffffffffffffffff8211171561572a57615729615809565b5b80604052505050565b600061573e82615684565b91507fffffffffffffffffffffffffffffffffffffffffffffffffffffffffffffffff8214156157715761577061577c565b5b600182019050919050565b7f4e487b7100000000000000000000000000000000000000000000000000000000600052601160045260246000fd5b7f4e487b7100000000000000000000000000000000000000000000000000000000600052601260045260246000fd5b7f4e487b7100000000000000000000000000000000000000000000000000000000600052602260045260246000fd5b7f4e487b7100000000000000000000000000000000000000000000000000000000600052604160045260246000fd5b6000601f19601f8301169050919050565b7f4120746f6b656e2068617320616c7265616479206265656e206d696e7465642060008201527f7769746820746869732055524900000000000000000000000000000000000000602082015250565b7f4f776e61626c653a206e6577206f776e657220697320746865207a65726f206160008201527f6464726573730000000000000000000000000000000000000000000000000000602082015250565b7f4552433732313a207472616e736665722066726f6d20696e636f72726563742060008201527f6f776e6572000000000000000000000000000000000000000000000000000000602082015250565b7f4552433732313a20746f6b656e20616c7265616479206d696e74656400000000600082015250565b7f4552433732313a207472616e7366657220746f20746865207a65726f2061646460008201527f7265737300000000000000000000000000000000000000000000000000000000602082015250565b7f4552433732313a20617070726f766520746f2063616c6c657200000000000000600082015250565b7f546f6b656e20697320616c7265616479206d61726b656420666f722073616c65600082015250565b7f4552433732313a206f70657261746f7220717565727920666f72206e6f6e657860008201527f697374656e7420746f6b656e0000000000000000000000000000000000000000602082015250565b7f53656e646572206d75737420626520746f6b656e206f776e6572206f7220636f60008201527f6e7472616374206f776e65720000000000000000000000000000000000000000602082015250565b7f427579657220616c7265616479206f776e7320746f6b656e0000000000000000600082015250565b7f4552433732313a20617070726f76652063616c6c6572206973206e6f74206f7760008201527f6e6572206e6f7220617070726f76656420666f7220616c6c0000000000000000602082015250565b7f4552433732313a2062616c616e636520717565727920666f7220746865207a6560008201527f726f206164647265737300000000000000000000000000000000000000000000602082015250565b7f4552433732313a206f776e657220717565727920666f72206e6f6e657869737460008201527f656e7420746f6b656e0000000000000000000000000000000000000000000000602082015250565b7f4120746f6b656e2068617320616c7265616479206265656e206d696e7465642060008201527f77697468207468697320736f6c7574696f6e0000000000000000000000000000602082015250565b7f4552433732313a206d696e7420746f20746865207a65726f2061646472657373600082015250565b7f4552433732313a20617070726f76656420717565727920666f72206e6f6e657860008201527f697374656e7420746f6b656e0000000000000000000000000000000000000000602082015250565b7f546f6b656e206973206e6f7420666f722073616c650000000000000000000000600082015250565b7f412076616c756520666f7220736f6c7574696f6e206973207265717569726564600082015250565b7f496e76616c696420746f20616464726573730000000000000000000000000000600082015250565b7f4f776e61626c653a2063616c6c6572206973206e6f7420746865206f776e6572600082015250565b7f412076616c69642070617373776f726420697320726571756972656420746f2060008201527f63616c6c20746869732066756e6374696f6e0000000000000000000000000000602082015250565b7f4552433732313a20617070726f76616c20746f2063757272656e74206f776e6560008201527f7200000000000000000000000000000000000000000000000000000000000000602082015250565b7f546f6b656e2063616e6e6f7420626520707269636564206c657373207468616e60008201527f207468652063757272656e742061736b696e6720707269636500000000000000602082015250565b7f546f6b656e496420646f6573206e6f7420657869737400000000000000000000600082015250565b7f496e73756666696369656e742065746865722073656e7420776974682074686960008201527f73207472616e73616374696f6e00000000000000000000000000000000000000602082015250565b7f412076616c756520666f7220746f6b656e555249206973207265717569726564600082015250565b7f546f6b656e206f626a65637420646f6573206e6f742065786973740000000000600082015250565b7f546f6b656e20697320616c72656164792070726576656e7465642066726f6d2060008201527f6265696e6720736f6c6400000000000000000000000000000000000000000000602082015250565b7f5265656e7472616e637947756172643a207265656e7472616e742063616c6c00600082015250565b615f5781615608565b8114615f6257600080fd5b50565b615f6e8161561a565b8114615f7957600080fd5b50565b615f858161562c565b8114615f9057600080fd5b50565b615f9c81615638565b8114615fa757600080fd5b50565b615fb381615684565b8114615fbe57600080fd5b5056fea2646970667358221220cb094b3a74391e52abc2119f7cc3dd761c12635cb019b5d2b84be3af640a4df064736f6c63430008010033",
  "immutableReferences": {},
  "source": "// SPDX-License-Identifier: MIT\r\npragma solidity >=0.4.22 <0.9.0;\r\nimport \"@openzeppelin/contracts/token/ERC721/ERC721.sol\"; // ERC721Enumerable\r\nimport \"@openzeppelin/contracts/access/Ownable.sol\";\r\nimport \"@openzeppelin/contracts/utils/math/SafeMath.sol\";\r\nimport \"@openzeppelin/contracts/security/ReentrancyGuard.sol\";\r\n\r\ncontract EthordleToken is ERC721, ReentrancyGuard, Ownable {\r\n    using Strings for uint256;\r\n    using SafeMath for uint256;\r\n\r\n    struct Token {\r\n        uint256 id;        \r\n        address owner;\r\n        uint256 price;\r\n        uint256 lastPrice;\r\n        string url;\r\n        string solution;\r\n        bool isForSale;\r\n        uint256 lastTransactionTimestamp;\r\n        uint256 transactionCount;        \r\n    }\r\n\r\n    mapping (uint256 => Token) public _tokens;\r\n    mapping (string => address) private _solutionOwners;\r\n    mapping (string => address) private _tokenURIOwners;\r\n\r\n    address private _owner;\r\n    uint256 private _initialPrice;\r\n    uint256 private _royaltyRate;\r\n    uint256 private _priceEscalationRate;\r\n    uint256 private _currentTokenId;\r\n    string private _baseURIextended;\r\n    string private _password;\r\n    uint256 private _roundingDivisor = 10**15;\r\n\r\n    event TokenSaleAllowed (\r\n        string solution,\r\n        address account,\r\n        uint256 tokenId,\r\n        string metadataURI,\r\n        uint256 price\r\n    );\r\n\r\n    event TokenSalePrevented (\r\n        string solution,\r\n        address account,\r\n        uint256 tokenId,\r\n        string metadataURI\r\n    );\r\n\r\n    constructor(string memory _name, string memory _symbol, uint256 initialPrice_, uint256 royaltyRate_, uint256 priceEscalationRate_, string memory password_) ERC721(_name, _symbol) {\r\n        _owner = msg.sender;\r\n        _currentTokenId = 0;\r\n        _initialPrice = initialPrice_;\r\n        _royaltyRate = royaltyRate_;\r\n        _priceEscalationRate = priceEscalationRate_;\r\n        _password = password_;\r\n    }\r\n    \r\n    modifier requirePassword(string memory password_) {\r\n      require (_compareStrings(_password, password_), 'A valid password is required to call this function');\r\n      _;\r\n    }\r\n\r\n    function _compareStrings(string memory a, string memory b) public pure returns (bool) {\r\n        return (keccak256(abi.encodePacked((a))) == keccak256(abi.encodePacked((b))));\r\n    }\r\n\r\n    function _validateTokenId(uint256 tokenId) internal view returns (Token memory) {\r\n        require(_exists(tokenId), 'TokenId does not exist');\r\n        \r\n        Token memory token = _tokens[tokenId];    \r\n        \r\n        require(token.owner != address(0x0), 'Token object does not exist');\r\n\r\n        return token;\r\n    }\r\n\r\n    function setInitialPrice(uint256 initialPrice_) external onlyOwner() {\r\n        _initialPrice = initialPrice_;\r\n    }\r\n\r\n    function initialPrice() external view returns (uint256) {\r\n        return _initialPrice;\r\n    }\r\n\r\n    function setRoyaltyRate(uint256 royaltyRate_) external onlyOwner() {\r\n        _royaltyRate = royaltyRate_;   \r\n    }\r\n\r\n    function royaltyRate() external view returns (uint256) {\r\n        return _royaltyRate;\r\n    }\r\n\r\n    function setPriceEscalationRate(uint256 priceEscalationRate_) external onlyOwner() {\r\n        _priceEscalationRate = priceEscalationRate_;\r\n    }\r\n\r\n    function priceEscalationRate() external view returns (uint256) {\r\n        return _priceEscalationRate;\r\n    }\r\n\r\n    function setPassword(string memory password_) external onlyOwner() {\r\n        _password = password_;\r\n    }\r\n\r\n    function tokenCount() external view returns (uint256) {\r\n        return _currentTokenId;\r\n    }\r\n\r\n    function tokenById(uint256 tokenId) external view returns(Token memory) {        \r\n        Token memory token = _validateTokenId(tokenId);\r\n        return token;\r\n    }\r\n\r\n    function tokensOfOwner(address _from) external view returns(Token[] memory) {\r\n        uint256 ownerCount = balanceOf(_from);\r\n        uint256 ownerIndex = 0;\r\n        Token[] memory ownerTokens = new Token[](ownerCount);\r\n\r\n        if (ownerCount > 0) {\r\n            Token[] memory allTokens = this.tokens();\r\n            \r\n            for (uint256 i = 0; i < _currentTokenId; i++) {\r\n                if (allTokens[i].owner == _from) {\r\n                    ownerTokens[ownerIndex] = allTokens[i];\r\n                    ownerIndex++;\r\n                }\r\n            }\r\n        }\r\n\r\n        return ownerTokens;\r\n    }\r\n\r\n    function tokens() external view returns(Token[] memory) {  \r\n        Token[] memory allTokens = new Token[](_currentTokenId);\r\n\r\n        for (uint256 i = 0; i < _currentTokenId; i++) {\r\n            allTokens[i] = _tokens[i];\r\n        }\r\n\r\n        return allTokens;\r\n    }\r\n    \r\n    function setBaseURI(string memory baseURI) external onlyOwner() {\r\n        _baseURIextended = baseURI;\r\n    }\r\n    \r\n    function _baseURI() internal view virtual override returns (string memory) {\r\n        return _baseURIextended;\r\n    }\r\n    \r\n    function isSolutionUnique(string memory solution_) public view returns (bool) {\r\n        return _solutionOwners[solution_] == address(0x0);\r\n    }\r\n\r\n    function tokenURI(uint256 tokenId) public view virtual override returns (string memory) {\r\n        Token memory token = _validateTokenId(tokenId);\r\n\r\n        return token.url;\r\n    }\r\n\r\n    function mint(\r\n        address payable to,\r\n        string memory solution_,\r\n        string memory tokenURI_,\r\n        string memory password_\r\n    ) external payable nonReentrant() requirePassword(password_) {  \r\n        require(msg.sender == to || msg.sender == _owner, 'Invalid to address');      \r\n        require(msg.value >= _initialPrice, 'Insufficient ether sent with this transaction'); \r\n        require(_solutionOwners[solution_] == address(0x0), 'A token has already been minted with this solution');\r\n        require(_tokenURIOwners[tokenURI_] == address(0x0), 'A token has already been minted with this URI');\r\n        require(bytes(solution_).length >= 5, 'A value for solution is required');\r\n        require(bytes(tokenURI_).length >= 28, 'A value for tokenURI is required'); // https://ipfs.infura.io/ipfs/\r\n        \r\n        payable(owner()).transfer(msg.value);\r\n\r\n        _mint(to, _currentTokenId);\r\n\r\n        uint256 newPrice =_getEscalatedPrice(msg.value);\r\n\r\n        Token memory token = Token(_currentTokenId, to, newPrice, _initialPrice, tokenURI_, solution_, false, block.timestamp, 1);\r\n       \r\n        _tokens[_currentTokenId] = token;\r\n        _solutionOwners[solution_] = to;\r\n        _tokenURIOwners[tokenURI_] = to;\r\n        _currentTokenId++;        \r\n    }\r\n\r\n    function allowSale(\r\n        uint256 tokenId,\r\n        address from,\r\n        uint256 price\r\n    ) external {    \r\n        Token memory token = _validateTokenId(tokenId);\r\n        \r\n        require(_msgSender() == from || _msgSender() == _owner, 'Sender must be token owner or contract owner'); \r\n        require(_isApprovedOrOwner(_msgSender(), tokenId), 'Sender must be token owner or contract owner');         \r\n        \r\n        require(!token.isForSale, 'Token is already marked for sale');\r\n        require(price >= token.price, 'Token cannot be priced less than the current asking price');\r\n        \r\n        token.price = price.div(_roundingDivisor).mul(_roundingDivisor); // round to nearest 1/1000 eth\r\n        token.isForSale = true;\r\n\r\n        _tokens[tokenId] = token; \r\n\r\n        emit TokenSaleAllowed(token.solution, token.owner, tokenId, token.url, price);\r\n    }\r\n\r\n    function preventSale(\r\n        uint256 tokenId,\r\n        address from        \r\n    ) external {   \r\n        Token memory token = _validateTokenId(tokenId);\r\n\r\n        require(_msgSender() == from || _msgSender() == _owner, 'Sender must be token owner or contract owner'); \r\n        require(_isApprovedOrOwner(_msgSender(), tokenId), 'Sender must be token owner or contract owner');    \r\n        \r\n        require(token.isForSale, 'Token is already prevented from being sold'); \r\n        \r\n        token.isForSale = false;\r\n        \r\n        _tokens[tokenId] = token; \r\n\r\n        emit TokenSalePrevented(token.solution, token.owner, tokenId, token.url);\r\n    }\r\n\r\n    function buy(\r\n        uint256 tokenId,\r\n        address to, \r\n        string memory password_\r\n    ) external payable nonReentrant() requirePassword(password_) {      \r\n        Token memory token = _validateTokenId(tokenId);\r\n        \r\n        require(msg.value >= token.price, 'Insufficient ether sent with this transaction');\r\n        require(token.isForSale, 'Token is not for sale');\r\n        require(token.owner != to, 'Buyer already owns token'); \r\n       \r\n        string memory solution_ = token.solution;\r\n        string memory tokenURI_ = token.url;\r\n\r\n        uint256 totalRoyalty = _getRoyalty(msg.value); \r\n        uint256 remainder = msg.value - totalRoyalty;\r\n\r\n        payable(owner()).transfer(totalRoyalty);\r\n        payable(address(token.owner)).transfer(remainder);\r\n        \r\n        _transfer(token.owner, to, tokenId);\r\n\r\n        _solutionOwners[solution_] = to;\r\n        _tokenURIOwners[tokenURI_] = to;\r\n\r\n        uint256 newPrice = _getEscalatedPrice(msg.value);\r\n\r\n        token.owner = to;\r\n        token.lastPrice = token.price;\r\n        token.price = newPrice;\r\n        token.isForSale = false;\r\n        token.lastTransactionTimestamp = block.timestamp;\r\n        token.transactionCount++;       \r\n\r\n        _tokens[tokenId] = token; \r\n    }\r\n    \r\n    function transfer(\r\n        uint256 tokenId,\r\n        address to\r\n    ) external payable nonReentrant() onlyOwner {        \r\n        Token memory token = _validateTokenId(tokenId);\r\n        \r\n        require(token.owner != to, 'Buyer already owns token'); \r\n       \r\n        string memory solution_ = token.solution;\r\n        string memory tokenURI_ = token.url;\r\n  \r\n        _transfer(token.owner, to, tokenId);\r\n\r\n        _solutionOwners[solution_] = to;\r\n        _tokenURIOwners[tokenURI_] = to;\r\n\r\n        token.owner = to;\r\n        token.isForSale = false;\r\n        token.lastTransactionTimestamp = block.timestamp;\r\n        token.transactionCount++;       \r\n\r\n        _tokens[tokenId] = token; \r\n    }\r\n\r\n    function _getRoyalty(uint256 value) private view returns (uint256) {\r\n        return value.mul(_royaltyRate).div(10000);\r\n    }\r\n\r\n    function _getEscalatedPrice(uint256 value) private view returns (uint256) {\r\n        uint256 newPrice = value.mul(_priceEscalationRate).div(10000);\r\n\r\n        return newPrice.div(_roundingDivisor).mul(_roundingDivisor);  // round off new price to nearest 1/1000 eth\r\n    }\r\n  \r\n    // todo how to prevent base _transfer from being called directly\r\n\r\n    function transferFrom(\r\n        address /*from*/,\r\n        address /*to*/,\r\n        uint256 /*tokenId*/\r\n    ) public view override onlyOwner {\r\n    }\r\n\r\n    function safeTransferFrom(\r\n        address /*from*/,\r\n        address /*to*/,\r\n        uint256 /*tokenId*/\r\n    ) public view override onlyOwner {\r\n    }\r\n\r\n    function safeTransferFrom(\r\n        address /*from*/,\r\n        address /*to*/,\r\n        uint256 /*tokenId*/,\r\n        bytes memory /*_data*/\r\n    ) public view override onlyOwner {\r\n    }\r\n}",
  "sourcePath": "C:\\Dev\\Github\\ethordle\\contracts\\EthordleToken.sol",
  "compiler": {
    "name": "solc",
    "version": "0.8.1+commit.df193b15.Emscripten.clang"
  },
  "schemaVersion": "3.4.6",
  "updatedAt": "2022-05-06T15:23:50.523Z",
  "devdoc": {
    "kind": "dev",
    "methods": {
      "approve(address,uint256)": {
        "details": "See {IERC721-approve}."
      },
      "balanceOf(address)": {
        "details": "See {IERC721-balanceOf}."
      },
      "getApproved(uint256)": {
        "details": "See {IERC721-getApproved}."
      },
      "isApprovedForAll(address,address)": {
        "details": "See {IERC721-isApprovedForAll}."
      },
      "name()": {
        "details": "See {IERC721Metadata-name}."
      },
      "owner()": {
        "details": "Returns the address of the current owner."
      },
      "ownerOf(uint256)": {
        "details": "See {IERC721-ownerOf}."
      },
      "renounceOwnership()": {
        "details": "Leaves the contract without owner. It will not be possible to call `onlyOwner` functions anymore. Can only be called by the current owner. NOTE: Renouncing ownership will leave the contract without an owner, thereby removing any functionality that is only available to the owner."
      },
      "setApprovalForAll(address,bool)": {
        "details": "See {IERC721-setApprovalForAll}."
      },
      "supportsInterface(bytes4)": {
        "details": "See {IERC165-supportsInterface}."
      },
      "symbol()": {
        "details": "See {IERC721Metadata-symbol}."
      },
      "tokenURI(uint256)": {
        "details": "See {IERC721Metadata-tokenURI}."
      },
      "transferOwnership(address)": {
        "details": "Transfers ownership of the contract to a new account (`newOwner`). Can only be called by the current owner."
      }
    },
    "version": 1
  },
  "userdoc": {
    "kind": "user",
    "methods": {},
    "version": 1
  }
}