{
  "contractName": "EthordleToken",
  "abi": [
    {
      "inputs": [
        {
          "internalType": "string",
          "name": "_name",
          "type": "string"
        },
        {
          "internalType": "string",
          "name": "_symbol",
          "type": "string"
        },
        {
          "internalType": "uint256",
          "name": "initialPrice_",
          "type": "uint256"
        },
        {
          "internalType": "uint256",
          "name": "minimumPrice_",
          "type": "uint256"
        },
        {
          "internalType": "uint256",
          "name": "royaltyRate_",
          "type": "uint256"
        },
        {
          "internalType": "uint256",
          "name": "priceEscalationRate_",
          "type": "uint256"
        },
        {
          "internalType": "string",
          "name": "password_",
          "type": "string"
        }
      ],
      "stateMutability": "nonpayable",
      "type": "constructor"
    },
    {
      "anonymous": false,
      "inputs": [
        {
          "indexed": true,
          "internalType": "address",
          "name": "owner",
          "type": "address"
        },
        {
          "indexed": true,
          "internalType": "address",
          "name": "approved",
          "type": "address"
        },
        {
          "indexed": true,
          "internalType": "uint256",
          "name": "tokenId",
          "type": "uint256"
        }
      ],
      "name": "Approval",
      "type": "event"
    },
    {
      "anonymous": false,
      "inputs": [
        {
          "indexed": true,
          "internalType": "address",
          "name": "owner",
          "type": "address"
        },
        {
          "indexed": true,
          "internalType": "address",
          "name": "operator",
          "type": "address"
        },
        {
          "indexed": false,
          "internalType": "bool",
          "name": "approved",
          "type": "bool"
        }
      ],
      "name": "ApprovalForAll",
      "type": "event"
    },
    {
      "anonymous": false,
      "inputs": [
        {
          "indexed": false,
          "internalType": "uint256",
          "name": "tokenId",
          "type": "uint256"
        },
        {
          "indexed": false,
          "internalType": "address",
          "name": "owner",
          "type": "address"
        },
        {
          "indexed": false,
          "internalType": "uint256",
          "name": "price",
          "type": "uint256"
        },
        {
          "indexed": false,
          "internalType": "string",
          "name": "solution",
          "type": "string"
        },
        {
          "indexed": false,
          "internalType": "string",
          "name": "metadataURI",
          "type": "string"
        }
      ],
      "name": "Minted",
      "type": "event"
    },
    {
      "anonymous": false,
      "inputs": [
        {
          "indexed": true,
          "internalType": "address",
          "name": "previousOwner",
          "type": "address"
        },
        {
          "indexed": true,
          "internalType": "address",
          "name": "newOwner",
          "type": "address"
        }
      ],
      "name": "OwnershipTransferred",
      "type": "event"
    },
    {
      "anonymous": false,
      "inputs": [
        {
          "indexed": false,
          "internalType": "uint256",
          "name": "tokenId",
          "type": "uint256"
        },
        {
          "indexed": false,
          "internalType": "address",
          "name": "seller",
          "type": "address"
        },
        {
          "indexed": false,
          "internalType": "string",
          "name": "solution",
          "type": "string"
        },
        {
          "indexed": false,
          "internalType": "string",
          "name": "metadataURI",
          "type": "string"
        }
      ],
      "name": "SaleCanceled",
      "type": "event"
    },
    {
      "anonymous": false,
      "inputs": [
        {
          "indexed": false,
          "internalType": "uint256",
          "name": "tokenId",
          "type": "uint256"
        },
        {
          "indexed": false,
          "internalType": "address",
          "name": "seller",
          "type": "address"
        },
        {
          "indexed": false,
          "internalType": "uint256",
          "name": "price",
          "type": "uint256"
        },
        {
          "indexed": false,
          "internalType": "string",
          "name": "solution",
          "type": "string"
        },
        {
          "indexed": false,
          "internalType": "string",
          "name": "metadataURI",
          "type": "string"
        }
      ],
      "name": "SaleCreated",
      "type": "event"
    },
    {
      "anonymous": false,
      "inputs": [
        {
          "indexed": false,
          "internalType": "uint256",
          "name": "tokenId",
          "type": "uint256"
        },
        {
          "indexed": false,
          "internalType": "address",
          "name": "buyer",
          "type": "address"
        },
        {
          "indexed": false,
          "internalType": "address",
          "name": "seller",
          "type": "address"
        },
        {
          "indexed": false,
          "internalType": "uint256",
          "name": "price",
          "type": "uint256"
        },
        {
          "indexed": false,
          "internalType": "string",
          "name": "solution",
          "type": "string"
        },
        {
          "indexed": false,
          "internalType": "string",
          "name": "metadataURI",
          "type": "string"
        }
      ],
      "name": "SaleSuccessful",
      "type": "event"
    },
    {
      "anonymous": false,
      "inputs": [
        {
          "indexed": true,
          "internalType": "address",
          "name": "from",
          "type": "address"
        },
        {
          "indexed": true,
          "internalType": "address",
          "name": "to",
          "type": "address"
        },
        {
          "indexed": true,
          "internalType": "uint256",
          "name": "tokenId",
          "type": "uint256"
        }
      ],
      "name": "Transfer",
      "type": "event"
    },
    {
      "anonymous": false,
      "inputs": [
        {
          "indexed": false,
          "internalType": "uint256",
          "name": "tokenId",
          "type": "uint256"
        },
        {
          "indexed": false,
          "internalType": "address",
          "name": "transferee",
          "type": "address"
        },
        {
          "indexed": false,
          "internalType": "string",
          "name": "solution",
          "type": "string"
        },
        {
          "indexed": false,
          "internalType": "string",
          "name": "metadataURI",
          "type": "string"
        }
      ],
      "name": "TransferSuccessful",
      "type": "event"
    },
    {
      "inputs": [
        {
          "internalType": "uint256",
          "name": "",
          "type": "uint256"
        }
      ],
      "name": "_tokens",
      "outputs": [
        {
          "internalType": "uint256",
          "name": "id",
          "type": "uint256"
        },
        {
          "internalType": "address",
          "name": "owner",
          "type": "address"
        },
        {
          "internalType": "uint256",
          "name": "price",
          "type": "uint256"
        },
        {
          "internalType": "uint256",
          "name": "lastPrice",
          "type": "uint256"
        },
        {
          "internalType": "string",
          "name": "url",
          "type": "string"
        },
        {
          "internalType": "string",
          "name": "solution",
          "type": "string"
        },
        {
          "internalType": "bool",
          "name": "isForSale",
          "type": "bool"
        },
        {
          "internalType": "uint256",
          "name": "lastTransactionTimestamp",
          "type": "uint256"
        },
        {
          "internalType": "uint256",
          "name": "transactionCount",
          "type": "uint256"
        }
      ],
      "stateMutability": "view",
      "type": "function",
      "constant": true
    },
    {
      "inputs": [
        {
          "internalType": "address",
          "name": "to",
          "type": "address"
        },
        {
          "internalType": "uint256",
          "name": "tokenId",
          "type": "uint256"
        }
      ],
      "name": "approve",
      "outputs": [],
      "stateMutability": "nonpayable",
      "type": "function"
    },
    {
      "inputs": [
        {
          "internalType": "address",
          "name": "owner",
          "type": "address"
        }
      ],
      "name": "balanceOf",
      "outputs": [
        {
          "internalType": "uint256",
          "name": "",
          "type": "uint256"
        }
      ],
      "stateMutability": "view",
      "type": "function",
      "constant": true
    },
    {
      "inputs": [
        {
          "internalType": "uint256",
          "name": "tokenId",
          "type": "uint256"
        }
      ],
      "name": "getApproved",
      "outputs": [
        {
          "internalType": "address",
          "name": "",
          "type": "address"
        }
      ],
      "stateMutability": "view",
      "type": "function",
      "constant": true
    },
    {
      "inputs": [
        {
          "internalType": "address",
          "name": "owner",
          "type": "address"
        },
        {
          "internalType": "address",
          "name": "operator",
          "type": "address"
        }
      ],
      "name": "isApprovedForAll",
      "outputs": [
        {
          "internalType": "bool",
          "name": "",
          "type": "bool"
        }
      ],
      "stateMutability": "view",
      "type": "function",
      "constant": true
    },
    {
      "inputs": [],
      "name": "name",
      "outputs": [
        {
          "internalType": "string",
          "name": "",
          "type": "string"
        }
      ],
      "stateMutability": "view",
      "type": "function",
      "constant": true
    },
    {
      "inputs": [],
      "name": "owner",
      "outputs": [
        {
          "internalType": "address",
          "name": "",
          "type": "address"
        }
      ],
      "stateMutability": "view",
      "type": "function",
      "constant": true
    },
    {
      "inputs": [
        {
          "internalType": "uint256",
          "name": "tokenId",
          "type": "uint256"
        }
      ],
      "name": "ownerOf",
      "outputs": [
        {
          "internalType": "address",
          "name": "",
          "type": "address"
        }
      ],
      "stateMutability": "view",
      "type": "function",
      "constant": true
    },
    {
      "inputs": [],
      "name": "renounceOwnership",
      "outputs": [],
      "stateMutability": "nonpayable",
      "type": "function"
    },
    {
      "inputs": [
        {
          "internalType": "address",
          "name": "operator",
          "type": "address"
        },
        {
          "internalType": "bool",
          "name": "approved",
          "type": "bool"
        }
      ],
      "name": "setApprovalForAll",
      "outputs": [],
      "stateMutability": "nonpayable",
      "type": "function"
    },
    {
      "inputs": [
        {
          "internalType": "bytes4",
          "name": "interfaceId",
          "type": "bytes4"
        }
      ],
      "name": "supportsInterface",
      "outputs": [
        {
          "internalType": "bool",
          "name": "",
          "type": "bool"
        }
      ],
      "stateMutability": "view",
      "type": "function",
      "constant": true
    },
    {
      "inputs": [],
      "name": "symbol",
      "outputs": [
        {
          "internalType": "string",
          "name": "",
          "type": "string"
        }
      ],
      "stateMutability": "view",
      "type": "function",
      "constant": true
    },
    {
      "inputs": [
        {
          "internalType": "address",
          "name": "newOwner",
          "type": "address"
        }
      ],
      "name": "transferOwnership",
      "outputs": [],
      "stateMutability": "nonpayable",
      "type": "function"
    },
    {
      "inputs": [
        {
          "internalType": "string",
          "name": "a",
          "type": "string"
        },
        {
          "internalType": "string",
          "name": "b",
          "type": "string"
        }
      ],
      "name": "_compareStrings",
      "outputs": [
        {
          "internalType": "bool",
          "name": "",
          "type": "bool"
        }
      ],
      "stateMutability": "pure",
      "type": "function",
      "constant": true
    },
    {
      "inputs": [
        {
          "internalType": "uint256",
          "name": "initialPrice_",
          "type": "uint256"
        }
      ],
      "name": "setInitialPrice",
      "outputs": [],
      "stateMutability": "nonpayable",
      "type": "function"
    },
    {
      "inputs": [],
      "name": "initialPrice",
      "outputs": [
        {
          "internalType": "uint256",
          "name": "",
          "type": "uint256"
        }
      ],
      "stateMutability": "view",
      "type": "function",
      "constant": true
    },
    {
      "inputs": [
        {
          "internalType": "uint256",
          "name": "minimumPrice_",
          "type": "uint256"
        }
      ],
      "name": "setMinimumPrice",
      "outputs": [],
      "stateMutability": "nonpayable",
      "type": "function"
    },
    {
      "inputs": [],
      "name": "minimumPrice",
      "outputs": [
        {
          "internalType": "uint256",
          "name": "",
          "type": "uint256"
        }
      ],
      "stateMutability": "view",
      "type": "function",
      "constant": true
    },
    {
      "inputs": [
        {
          "internalType": "uint256",
          "name": "royaltyRate_",
          "type": "uint256"
        }
      ],
      "name": "setRoyaltyRate",
      "outputs": [],
      "stateMutability": "nonpayable",
      "type": "function"
    },
    {
      "inputs": [],
      "name": "royaltyRate",
      "outputs": [
        {
          "internalType": "uint256",
          "name": "",
          "type": "uint256"
        }
      ],
      "stateMutability": "view",
      "type": "function",
      "constant": true
    },
    {
      "inputs": [
        {
          "internalType": "uint256",
          "name": "priceEscalationRate_",
          "type": "uint256"
        }
      ],
      "name": "setPriceEscalationRate",
      "outputs": [],
      "stateMutability": "nonpayable",
      "type": "function"
    },
    {
      "inputs": [],
      "name": "priceEscalationRate",
      "outputs": [
        {
          "internalType": "uint256",
          "name": "",
          "type": "uint256"
        }
      ],
      "stateMutability": "view",
      "type": "function",
      "constant": true
    },
    {
      "inputs": [
        {
          "internalType": "string",
          "name": "password_",
          "type": "string"
        }
      ],
      "name": "setPassword",
      "outputs": [],
      "stateMutability": "nonpayable",
      "type": "function"
    },
    {
      "inputs": [],
      "name": "tokenCount",
      "outputs": [
        {
          "internalType": "uint256",
          "name": "",
          "type": "uint256"
        }
      ],
      "stateMutability": "view",
      "type": "function",
      "constant": true
    },
    {
      "inputs": [
        {
          "internalType": "uint256",
          "name": "tokenId",
          "type": "uint256"
        }
      ],
      "name": "tokenById",
      "outputs": [
        {
          "components": [
            {
              "internalType": "uint256",
              "name": "id",
              "type": "uint256"
            },
            {
              "internalType": "address",
              "name": "owner",
              "type": "address"
            },
            {
              "internalType": "uint256",
              "name": "price",
              "type": "uint256"
            },
            {
              "internalType": "uint256",
              "name": "lastPrice",
              "type": "uint256"
            },
            {
              "internalType": "string",
              "name": "url",
              "type": "string"
            },
            {
              "internalType": "string",
              "name": "solution",
              "type": "string"
            },
            {
              "internalType": "bool",
              "name": "isForSale",
              "type": "bool"
            },
            {
              "internalType": "uint256",
              "name": "lastTransactionTimestamp",
              "type": "uint256"
            },
            {
              "internalType": "uint256",
              "name": "transactionCount",
              "type": "uint256"
            }
          ],
          "internalType": "struct EthordleToken.Token",
          "name": "",
          "type": "tuple"
        }
      ],
      "stateMutability": "view",
      "type": "function",
      "constant": true
    },
    {
      "inputs": [
        {
          "internalType": "address",
          "name": "_from",
          "type": "address"
        }
      ],
      "name": "tokensOfOwner",
      "outputs": [
        {
          "components": [
            {
              "internalType": "uint256",
              "name": "id",
              "type": "uint256"
            },
            {
              "internalType": "address",
              "name": "owner",
              "type": "address"
            },
            {
              "internalType": "uint256",
              "name": "price",
              "type": "uint256"
            },
            {
              "internalType": "uint256",
              "name": "lastPrice",
              "type": "uint256"
            },
            {
              "internalType": "string",
              "name": "url",
              "type": "string"
            },
            {
              "internalType": "string",
              "name": "solution",
              "type": "string"
            },
            {
              "internalType": "bool",
              "name": "isForSale",
              "type": "bool"
            },
            {
              "internalType": "uint256",
              "name": "lastTransactionTimestamp",
              "type": "uint256"
            },
            {
              "internalType": "uint256",
              "name": "transactionCount",
              "type": "uint256"
            }
          ],
          "internalType": "struct EthordleToken.Token[]",
          "name": "",
          "type": "tuple[]"
        }
      ],
      "stateMutability": "view",
      "type": "function",
      "constant": true
    },
    {
      "inputs": [],
      "name": "tokens",
      "outputs": [
        {
          "components": [
            {
              "internalType": "uint256",
              "name": "id",
              "type": "uint256"
            },
            {
              "internalType": "address",
              "name": "owner",
              "type": "address"
            },
            {
              "internalType": "uint256",
              "name": "price",
              "type": "uint256"
            },
            {
              "internalType": "uint256",
              "name": "lastPrice",
              "type": "uint256"
            },
            {
              "internalType": "string",
              "name": "url",
              "type": "string"
            },
            {
              "internalType": "string",
              "name": "solution",
              "type": "string"
            },
            {
              "internalType": "bool",
              "name": "isForSale",
              "type": "bool"
            },
            {
              "internalType": "uint256",
              "name": "lastTransactionTimestamp",
              "type": "uint256"
            },
            {
              "internalType": "uint256",
              "name": "transactionCount",
              "type": "uint256"
            }
          ],
          "internalType": "struct EthordleToken.Token[]",
          "name": "",
          "type": "tuple[]"
        }
      ],
      "stateMutability": "view",
      "type": "function",
      "constant": true
    },
    {
      "inputs": [
        {
          "internalType": "string",
          "name": "baseURI",
          "type": "string"
        }
      ],
      "name": "setBaseURI",
      "outputs": [],
      "stateMutability": "nonpayable",
      "type": "function"
    },
    {
      "inputs": [
        {
          "internalType": "string",
          "name": "solution_",
          "type": "string"
        }
      ],
      "name": "isSolutionUnique",
      "outputs": [
        {
          "internalType": "bool",
          "name": "",
          "type": "bool"
        }
      ],
      "stateMutability": "view",
      "type": "function",
      "constant": true
    },
    {
      "inputs": [
        {
          "internalType": "uint256",
          "name": "tokenId",
          "type": "uint256"
        }
      ],
      "name": "tokenURI",
      "outputs": [
        {
          "internalType": "string",
          "name": "",
          "type": "string"
        }
      ],
      "stateMutability": "view",
      "type": "function",
      "constant": true
    },
    {
      "inputs": [
        {
          "internalType": "address payable",
          "name": "to",
          "type": "address"
        },
        {
          "internalType": "string",
          "name": "solution_",
          "type": "string"
        },
        {
          "internalType": "string",
          "name": "tokenURI_",
          "type": "string"
        },
        {
          "internalType": "string",
          "name": "password_",
          "type": "string"
        }
      ],
      "name": "mint",
      "outputs": [],
      "stateMutability": "payable",
      "type": "function",
      "payable": true
    },
    {
      "inputs": [
        {
          "internalType": "uint256",
          "name": "tokenId",
          "type": "uint256"
        },
        {
          "internalType": "uint256",
          "name": "price",
          "type": "uint256"
        }
      ],
      "name": "createSale",
      "outputs": [],
      "stateMutability": "nonpayable",
      "type": "function"
    },
    {
      "inputs": [
        {
          "internalType": "uint256",
          "name": "tokenId",
          "type": "uint256"
        }
      ],
      "name": "cancelSale",
      "outputs": [],
      "stateMutability": "nonpayable",
      "type": "function"
    },
    {
      "inputs": [
        {
          "internalType": "uint256",
          "name": "tokenId",
          "type": "uint256"
        },
        {
          "internalType": "string",
          "name": "password_",
          "type": "string"
        }
      ],
      "name": "buy",
      "outputs": [],
      "stateMutability": "payable",
      "type": "function",
      "payable": true
    },
    {
      "inputs": [
        {
          "internalType": "uint256",
          "name": "tokenId",
          "type": "uint256"
        },
        {
          "internalType": "address",
          "name": "to",
          "type": "address"
        }
      ],
      "name": "transferAsContractOwner",
      "outputs": [],
      "stateMutability": "payable",
      "type": "function",
      "payable": true
    },
    {
      "inputs": [
        {
          "internalType": "address",
          "name": "",
          "type": "address"
        },
        {
          "internalType": "address",
          "name": "",
          "type": "address"
        },
        {
          "internalType": "uint256",
          "name": "",
          "type": "uint256"
        }
      ],
      "name": "transferFrom",
      "outputs": [],
      "stateMutability": "view",
      "type": "function",
      "constant": true
    },
    {
      "inputs": [
        {
          "internalType": "address",
          "name": "",
          "type": "address"
        },
        {
          "internalType": "address",
          "name": "",
          "type": "address"
        },
        {
          "internalType": "uint256",
          "name": "",
          "type": "uint256"
        }
      ],
      "name": "safeTransferFrom",
      "outputs": [],
      "stateMutability": "view",
      "type": "function",
      "constant": true
    },
    {
      "inputs": [
        {
          "internalType": "address",
          "name": "",
          "type": "address"
        },
        {
          "internalType": "address",
          "name": "",
          "type": "address"
        },
        {
          "internalType": "uint256",
          "name": "",
          "type": "uint256"
        },
        {
          "internalType": "bytes",
          "name": "",
          "type": "bytes"
        }
      ],
      "name": "safeTransferFrom",
      "outputs": [],
      "stateMutability": "view",
      "type": "function",
      "constant": true
    }
  ],
  "bytecode": "0x608060405266038d7ea4c680006012553480156200001c57600080fd5b5060405162003d5538038062003d558339810160408190526200003f9162000275565b865187908790620000589060009060208501906200011c565b5080516200006e9060019060208401906200011c565b50506001600655506200008a62000084620000c6565b620000ca565b6000600f55600b859055600c849055600d839055600e8290558051620000b89060119060208401906200011c565b50505050505050506200037c565b3390565b600780546001600160a01b038381166001600160a01b0319831681179093556040519116919082907f8be0079c531659141344cd1fd0a4f28419497f9722a3daafe3b4186f6b6457e090600090a35050565b8280546200012a9062000329565b90600052602060002090601f0160209004810192826200014e576000855562000199565b82601f106200016957805160ff191683800117855562000199565b8280016001018555821562000199579182015b82811115620001995782518255916020019190600101906200017c565b50620001a7929150620001ab565b5090565b5b80821115620001a75760008155600101620001ac565b600082601f830112620001d3578081fd5b81516001600160401b0380821115620001f057620001f062000366565b604051601f8301601f19908116603f011681019082821181831017156200021b576200021b62000366565b8160405283815260209250868385880101111562000237578485fd5b8491505b838210156200025a57858201830151818301840152908201906200023b565b838211156200026b57848385830101525b9695505050505050565b600080600080600080600060e0888a03121562000290578283fd5b87516001600160401b0380821115620002a7578485fd5b620002b58b838c01620001c2565b985060208a0151915080821115620002cb578485fd5b620002d98b838c01620001c2565b975060408a0151965060608a0151955060808a0151945060a08a0151935060c08a01519150808211156200030b578283fd5b506200031a8a828b01620001c2565b91505092959891949750929550565b6002810460018216806200033e57607f821691505b602082108114156200036057634e487b7160e01b600052602260045260246000fd5b50919050565b634e487b7160e01b600052604160045260246000fd5b6139c9806200038c6000396000f3fe6080604052600436106102255760003560e01c80637c68ec4c11610123578063a22cb465116100ab578063c4d1510d1161006f578063c4d1510d146105f9578063c87b56dd1461060e578063e985e9c51461062e578063ed70554d1461064e578063f2fde38b1461068357610225565b8063a22cb46514610566578063a5a0258414610586578063b7dc3b18146105a6578063b88d4fde146105b9578063bd94b005146105d957610225565b806395d89b41116100f257806395d89b41146104e75780639d63848a146104fc5780639f181b5e146105115780639f4ba0ee14610526578063a129ece91461054657610225565b80637c68ec4c146104705780637f386b6c146104905780638462151c146104a55780638da5cb5b146104d257610225565b806342842e0e116101b15780636352211e116101755780636352211e146103d95780636b6af2d5146103f957806370a0823114610426578063715018a614610446578063755381f71461045b57610225565b806342842e0e146102f35780634a0706be14610366578063537782a21461037957806355f804b3146103995780636019061b146103b957610225565b80631d0806ae116101f85780631d0806ae146102d157806323b872dd146102f3578063251d89641461031357806325cea97614610326578063290bb4531461034657610225565b806301ffc9a71461022a57806306fdde0314610260578063081812fc14610282578063095ea7b3146102af575b600080fd5b34801561023657600080fd5b5061024a610245366004612be8565b6106a3565b6040516102579190612e9f565b60405180910390f35b34801561026c57600080fd5b506102756106eb565b6040516102579190612eaa565b34801561028e57600080fd5b506102a261029d366004612ca4565b61077d565b6040516102579190612e2b565b3480156102bb57600080fd5b506102cf6102ca366004612a6c565b6107c9565b005b3480156102dd57600080fd5b506102e6610861565b604051610257919061369d565b3480156102ff57600080fd5b506102cf61030e36600461298e565b610867565b6102cf610321366004612cbc565b6108a6565b34801561033257600080fd5b506102cf610341366004612ca4565b610b17565b34801561035257600080fd5b506102cf610361366004612c10565b610b5b565b6102cf6103743660046128bf565b610bb1565b34801561038557600080fd5b506102cf610394366004612ca4565b61101e565b3480156103a557600080fd5b506102cf6103b4366004612c10565b611062565b3480156103c557600080fd5b506102cf6103d4366004612d1b565b6110b4565b3480156103e557600080fd5b506102a26103f4366004612ca4565b611296565b34801561040557600080fd5b50610419610414366004612ca4565b6112cb565b604051610257919061368a565b34801561043257600080fd5b506102e66104413660046128a3565b6112e5565b34801561045257600080fd5b506102cf611329565b34801561046757600080fd5b506102e6611374565b34801561047c57600080fd5b5061024a61048b366004612c43565b61137a565b34801561049c57600080fd5b506102e66113d3565b3480156104b157600080fd5b506104c56104c03660046128a3565b6113d9565b6040516102579190612e3f565b3480156104de57600080fd5b506102a26115a6565b3480156104f357600080fd5b506102756115b5565b34801561050857600080fd5b506104c56115c4565b34801561051d57600080fd5b506102e661181a565b34801561053257600080fd5b506102cf610541366004612ca4565b611820565b34801561055257600080fd5b506102cf610561366004612ca4565b611864565b34801561057257600080fd5b506102cf610581366004612a3f565b6118a8565b34801561059257600080fd5b5061024a6105a1366004612c10565b6118ba565b6102cf6105b4366004612ce0565b6118f7565b3480156105c557600080fd5b506102cf6105d43660046129ce565b611c5a565b3480156105e557600080fd5b506102cf6105f4366004612ca4565b611c9f565b34801561060557600080fd5b506102e6611e1b565b34801561061a57600080fd5b50610275610629366004612ca4565b611e21565b34801561063a57600080fd5b5061024a610649366004612956565b611e39565b34801561065a57600080fd5b5061066e610669366004612ca4565b611e67565b60405161025799989796959493929190613790565b34801561068f57600080fd5b506102cf61069e3660046128a3565b611fd0565b60006001600160e01b031982166380ac58cd60e01b14806106d457506001600160e01b03198216635b5e139f60e01b145b806106e357506106e382612041565b90505b919050565b6060600080546106fa906138ee565b80601f0160208091040260200160405190810160405280929190818152602001828054610726906138ee565b80156107735780601f1061074857610100808354040283529160200191610773565b820191906000526020600020905b81548152906001019060200180831161075657829003601f168201915b5050505050905090565b60006107888261205a565b6107ad5760405162461bcd60e51b81526004016107a4906132c2565b60405180910390fd5b506000908152600460205260409020546001600160a01b031690565b60006107d482611296565b9050806001600160a01b0316836001600160a01b031614156108085760405162461bcd60e51b81526004016107a490613425565b806001600160a01b031661081a612077565b6001600160a01b03161480610836575061083681610649612077565b6108525760405162461bcd60e51b81526004016107a49061314b565b61085c838361207b565b505050565b600b5490565b61086f612077565b6001600160a01b03166108806115a6565b6001600160a01b03161461085c5760405162461bcd60e51b81526004016107a49061339e565b600260065414156108c95760405162461bcd60e51b81526004016107a4906135f6565b60026006556108d6612077565b6001600160a01b03166108e76115a6565b6001600160a01b03161461090d5760405162461bcd60e51b81526004016107a49061339e565b6000610918836120e9565b9050816001600160a01b031681602001516001600160a01b031614156109505760405162461bcd60e51b81526004016107a490613114565b60a08101516080820151602083015161096a9085876122e0565b8360098360405161097b9190612e0f565b908152602001604051809103902060006101000a8154816001600160a01b0302191690836001600160a01b0316021790555083600a826040516109be9190612e0f565b9081526040516020918190038201902080546001600160a01b0319166001600160a01b0393841617905590851690840152600060c08401524260e08401526101008301805190610a0d82613929565b90525060008581526008602090815260409182902085518155858201516001820180546001600160a01b0319166001600160a01b039092169190911790559185015160028301556060850151600383015560808501518051869392610a799260048501929101906126fd565b5060a08201518051610a959160058401916020909101906126fd565b5060c082015160068201805460ff191691151591909117905560e082015160078201556101009091015160089091015560a083015160808401516040517fb48efa98dc874c5fbf1c01837c5cb93d79b08738b1ae210c8c85672fac0404cd92610b0392899289929190613749565b60405180910390a150506001600655505050565b610b1f612077565b6001600160a01b0316610b306115a6565b6001600160a01b031614610b565760405162461bcd60e51b81526004016107a49061339e565b600c55565b610b63612077565b6001600160a01b0316610b746115a6565b6001600160a01b031614610b9a5760405162461bcd60e51b81526004016107a49061339e565b8051610bad9060119060208401906126fd565b5050565b60026006541415610bd45760405162461bcd60e51b81526004016107a4906135f6565b6002600655601180548291610c7091610bec906138ee565b80601f0160208091040260200160405190810160405280929190818152602001828054610c18906138ee565b8015610c655780601f10610c3a57610100808354040283529160200191610c65565b820191906000526020600020905b815481529060010190602001808311610c4857829003601f168201915b50505050508261137a565b610c8c5760405162461bcd60e51b81526004016107a4906133d3565b336001600160a01b0386161480610cbb5750610ca66115a6565b6001600160a01b0316336001600160a01b0316145b610cd75760405162461bcd60e51b81526004016107a490613372565b600b54341015610cf95760405162461bcd60e51b81526004016107a4906134f3565b60006001600160a01b0316600985604051610d149190612e0f565b908152604051908190036020019020546001600160a01b031614610d4a5760405162461bcd60e51b81526004016107a49061323b565b60006001600160a01b0316600a84604051610d659190612e0f565b908152604051908190036020019020546001600160a01b031614610d9b5760405162461bcd60e51b81526004016107a490612ebd565b600584511015610dbd5760405162461bcd60e51b81526004016107a49061333d565b601c83511015610ddf5760405162461bcd60e51b81526004016107a490613540565b610de76115a6565b6001600160a01b03166108fc349081150290604051600060405180830381858888f19350505050158015610e1f573d6000803e3d6000fd5b50610e2c85600f54612413565b6000610e37346124fa565b6040805161012081018252600f548082526001600160a01b038a81166020808501918252848601878152600b5460608701908152608087018d815260a088018f9052600060c089018190524260e08a015260016101008a01819052978152600885529890982087518155935195840180546001600160a01b0319169690951695909517909355915160028201559151600383015592518051949550919384939192610ee99260048501929101906126fd565b5060a08201518051610f059160058401916020909101906126fd565b5060c082015160068201805460ff191691151591909117905560e08201516007820155610100909101516008909101556040518790600990610f48908990612e0f565b908152602001604051809103902060006101000a8154816001600160a01b0302191690836001600160a01b0316021790555086600a86604051610f8b9190612e0f565b90815260405190819003602001902080546001600160a01b03929092166001600160a01b0319909216919091179055600f8054906000610fca83613929565b91905055507f44f2343552d6dfa841d166e5e35863f415bd87eff575964c3d838d3fa1967642600f54888489896040516110089594939291906136a6565b60405180910390a1505060016006555050505050565b611026612077565b6001600160a01b03166110376115a6565b6001600160a01b03161461105d5760405162461bcd60e51b81526004016107a49061339e565b600d55565b61106a612077565b6001600160a01b031661107b6115a6565b6001600160a01b0316146110a15760405162461bcd60e51b81526004016107a49061339e565b8051610bad9060109060208401906126fd565b60006110bf836120e9565b90506110c96115a6565b6001600160a01b0316336001600160a01b031614806110ed57506110ed3384612556565b6111095760405162461bcd60e51b81526004016107a4906130c8565b8060c001511561112b5760405162461bcd60e51b81526004016107a490613047565b806040015182101561114f5760405162461bcd60e51b81526004016107a490613466565b600c548210156111715760405162461bcd60e51b81526004016107a49061362d565b6012546111889061118284826125d3565b906125df565b6040828101918252600160c08401819052600086815260086020908152929020845181558285015191810180546001600160a01b0319166001600160a01b03909316929092179091559151600283015560608301516003830155608083015180518493926111fd9260048501929101906126fd565b5060a082015180516112199160058401916020909101906126fd565b5060c082015160068201805460ff191691151591909117905560e082015160078201556101009091015160089091015560a081015160808201516040517f5eb7e190fe7aefdbe1568be4aeca28f154250bc01a8d39c8be6a4da35af45d63926112899287923392889290916136a6565b60405180910390a1505050565b6000818152600260205260408120546001600160a01b0316806106e35760405162461bcd60e51b81526004016107a4906131f2565b6112d3612781565b60006112de836120e9565b9392505050565b60006001600160a01b03821661130d5760405162461bcd60e51b81526004016107a4906131a8565b506001600160a01b031660009081526003602052604090205490565b611331612077565b6001600160a01b03166113426115a6565b6001600160a01b0316146113685760405162461bcd60e51b81526004016107a49061339e565b61137260006125eb565b565b600e5490565b60008160405160200161138d9190612e0f565b60405160208183030381529060405280519060200120836040516020016113b49190612e0f565b6040516020818303038152906040528051906020012014905092915050565b600c5490565b606060006113e6836112e5565b90506000808267ffffffffffffffff81111561141257634e487b7160e01b600052604160045260246000fd5b60405190808252806020026020018201604052801561144b57816020015b611438612781565b8152602001906001900390816114305790505b509050821561159e576000306001600160a01b0316639d63848a6040518163ffffffff1660e01b815260040160006040518083038186803b15801561148f57600080fd5b505afa1580156114a3573d6000803e3d6000fd5b505050506040513d6000823e601f3d908101601f191682016040526114cb9190810190612a97565b905060005b600f5481101561159b57866001600160a01b031661151883838151811061150757634e487b7160e01b600052603260045260246000fd5b602002602001015160000151611296565b6001600160a01b031614156115895781818151811061154757634e487b7160e01b600052603260045260246000fd5b602002602001015183858151811061156f57634e487b7160e01b600052603260045260246000fd5b6020026020010181905250838061158590613929565b9450505b8061159381613929565b9150506114d0565b50505b949350505050565b6007546001600160a01b031690565b6060600180546106fa906138ee565b60606000600f5467ffffffffffffffff8111156115f157634e487b7160e01b600052604160045260246000fd5b60405190808252806020026020018201604052801561162a57816020015b611617612781565b81526020019060019003908161160f5790505b50905060005b600f54811015611814576000818152600860209081526040918290208251610120810184528154815260018201546001600160a01b0316928101929092526002810154928201929092526003820154606082015260048201805491929160808401919061169c906138ee565b80601f01602080910402602001604051908101604052809291908181526020018280546116c8906138ee565b80156117155780601f106116ea57610100808354040283529160200191611715565b820191906000526020600020905b8154815290600101906020018083116116f857829003601f168201915b5050505050815260200160058201805461172e906138ee565b80601f016020809104026020016040519081016040528092919081815260200182805461175a906138ee565b80156117a75780601f1061177c576101008083540402835291602001916117a7565b820191906000526020600020905b81548152906001019060200180831161178a57829003601f168201915b5050509183525050600682015460ff16151560208201526007820154604082015260089091015460609091015282518390839081106117f657634e487b7160e01b600052603260045260246000fd5b6020026020010181905250808061180c90613929565b915050611630565b50905090565b600f5490565b611828612077565b6001600160a01b03166118396115a6565b6001600160a01b03161461185f5760405162461bcd60e51b81526004016107a49061339e565b600b55565b61186c612077565b6001600160a01b031661187d6115a6565b6001600160a01b0316146118a35760405162461bcd60e51b81526004016107a49061339e565b600e55565b610bad6118b3612077565b838361263d565b6000806001600160a01b03166009836040516118d69190612e0f565b908152604051908190036020019020546001600160a01b0316149050919050565b6002600654141561191a5760405162461bcd60e51b81526004016107a4906135f6565b600260065560118054829161193291610bec906138ee565b61194e5760405162461bcd60e51b81526004016107a4906133d3565b6000611959846120e9565b9050806040015134101561197f5760405162461bcd60e51b81526004016107a4906134f3565b8060c001516119a05760405162461bcd60e51b81526004016107a49061330e565b60208101516001600160a01b03163314156119cd5760405162461bcd60e51b81526004016107a490613114565b60a0810151608082015160006119e2346126e0565b905060006119f082346138ab565b90506119fa6115a6565b6001600160a01b03166108fc839081150290604051600060405180830381858888f19350505050158015611a32573d6000803e3d6000fd5b5084602001516001600160a01b03166108fc829081150290604051600060405180830381858888f19350505050158015611a70573d6000803e3d6000fd5b50611a808560200151338a6122e0565b33600985604051611a919190612e0f565b908152602001604051809103902060006101000a8154816001600160a01b0302191690836001600160a01b0316021790555033600a84604051611ad49190612e0f565b90815260405190819003602001902080546001600160a01b03929092166001600160a01b03199092169190911790556000611b0e346124fa565b6020870180513390915260408801805160608a0152829052600060c08901524260e089015261010088018051929350909190611b4982613929565b90525060008a81526008602090815260409182902089518155898201516001820180546001600160a01b0319166001600160a01b0390921691909117905591890151600283015560608901516003830155608089015180518a9392611bb59260048501929101906126fd565b5060a08201518051611bd19160058401916020909101906126fd565b5060c082015160068201805460ff191691151591909117905560e082015160078201556101009091015160089091015560a087015160808801516040517f98c19d237c722ec5cdb7cf8e74a8326f1b47eca3d46f396f26213b90597df02092611c41928e923392879289926136f1565b60405180910390a1505060016006555050505050505050565b611c62612077565b6001600160a01b0316611c736115a6565b6001600160a01b031614611c995760405162461bcd60e51b81526004016107a49061339e565b50505050565b6000611caa826120e9565b9050611cb46115a6565b6001600160a01b0316336001600160a01b03161480611cd85750611cd83383612556565b611cf45760405162461bcd60e51b81526004016107a4906130c8565b8060c00151611d155760405162461bcd60e51b81526004016107a4906135ac565b600060c082018190528281526008602090815260409182902083518155818401516001820180546001600160a01b0319166001600160a01b039092169190911790559183015160028301556060830151600383015560808301518051849392611d859260048501929101906126fd565b5060a08201518051611da19160058401916020909101906126fd565b5060c082015160068201805460ff191691151591909117905560e082015160078201556101009091015160089091015560a081015160808201516040517f7551733fb3dcb47e226e092d11b7fa481a463dd79568761a5d78264f98f85e5092611e0f92869233929190613749565b60405180910390a15050565b600d5490565b60606000611e2e836120e9565b608001519392505050565b6001600160a01b03918216600090815260056020908152604080832093909416825291909152205460ff1690565b6008602052600090815260409020805460018201546002830154600384015460048501805494956001600160a01b039094169492939192611ea7906138ee565b80601f0160208091040260200160405190810160405280929190818152602001828054611ed3906138ee565b8015611f205780601f10611ef557610100808354040283529160200191611f20565b820191906000526020600020905b815481529060010190602001808311611f0357829003601f168201915b505050505090806005018054611f35906138ee565b80601f0160208091040260200160405190810160405280929190818152602001828054611f61906138ee565b8015611fae5780601f10611f8357610100808354040283529160200191611fae565b820191906000526020600020905b815481529060010190602001808311611f9157829003601f168201915b5050505060068301546007840154600890940154929360ff9091169290915089565b611fd8612077565b6001600160a01b0316611fe96115a6565b6001600160a01b03161461200f5760405162461bcd60e51b81526004016107a49061339e565b6001600160a01b0381166120355760405162461bcd60e51b81526004016107a490612f0a565b61203e816125eb565b50565b6001600160e01b031981166301ffc9a760e01b14919050565b6000908152600260205260409020546001600160a01b0316151590565b3390565b600081815260046020526040902080546001600160a01b0319166001600160a01b03841690811790915581906120b082611296565b6001600160a01b03167f8c5be1e5ebec7d5bd14f71427d1e84f3dd0314c0f7b2291e5b200ac8c7c3b92560405160405180910390a45050565b6120f1612781565b6120fa8261205a565b6121165760405162461bcd60e51b81526004016107a4906134c3565b60008281526008602090815260408083208151610120810183528154815260018201546001600160a01b03169381019390935260028101549183019190915260038101546060830152600481018054608084019190612174906138ee565b80601f01602080910402602001604051908101604052809291908181526020018280546121a0906138ee565b80156121ed5780601f106121c2576101008083540402835291602001916121ed565b820191906000526020600020905b8154815290600101906020018083116121d057829003601f168201915b50505050508152602001600582018054612206906138ee565b80601f0160208091040260200160405190810160405280929190818152602001828054612232906138ee565b801561227f5780601f106122545761010080835404028352916020019161227f565b820191906000526020600020905b81548152906001019060200180831161226257829003601f168201915b5050509183525050600682015460ff161515602082015260078201546040820152600890910154606090910152905060006122b984611296565b6001600160a01b031614156106e35760405162461bcd60e51b81526004016107a490613575565b826001600160a01b03166122f382611296565b6001600160a01b0316146123195760405162461bcd60e51b81526004016107a490612f50565b6001600160a01b03821661233f5760405162461bcd60e51b81526004016107a490612fcc565b61234a83838361085c565b61235560008261207b565b6001600160a01b038316600090815260036020526040812080546001929061237e9084906138ab565b90915550506001600160a01b03821660009081526003602052604081208054600192906123ac908490613854565b909155505060008181526002602052604080822080546001600160a01b0319166001600160a01b0386811691821790925591518493918716917fddf252ad1be2c89b69c2b068fc378daa952ba7f163c4a11628f55a4df523b3ef91a461085c83838361085c565b6001600160a01b0382166124395760405162461bcd60e51b81526004016107a49061328d565b6124428161205a565b1561245f5760405162461bcd60e51b81526004016107a490612f95565b61246b6000838361085c565b6001600160a01b0382166000908152600360205260408120805460019290612494908490613854565b909155505060008181526002602052604080822080546001600160a01b0319166001600160a01b03861690811790915590518392907fddf252ad1be2c89b69c2b068fc378daa952ba7f163c4a11628f55a4df523b3ef908290a4610bad6000838361085c565b60008061251e612710612518600e54866125df90919063ffffffff16565b906125d3565b6012549091506000906125359061118284826125d3565b9050600c5481101561254d57600c54925050506106e6565b91506106e69050565b60006125618261205a565b61257d5760405162461bcd60e51b81526004016107a49061307c565b600061258883611296565b9050806001600160a01b0316846001600160a01b031614806125c35750836001600160a01b03166125b88461077d565b6001600160a01b0316145b8061159e575061159e8185611e39565b60006112de828461386c565b60006112de828461388c565b600780546001600160a01b038381166001600160a01b0319831681179093556040519116919082907f8be0079c531659141344cd1fd0a4f28419497f9722a3daafe3b4186f6b6457e090600090a35050565b816001600160a01b0316836001600160a01b0316141561266f5760405162461bcd60e51b81526004016107a490613010565b6001600160a01b0383811660008181526005602090815260408083209487168084529490915290819020805460ff1916851515179055517f17307eab39ab6107e8899845ad3d59bd9653f200f220920489ca2b5937696c31906126d3908590612e9f565b60405180910390a3505050565b60006106e3612710612518600d54856125df90919063ffffffff16565b828054612709906138ee565b90600052602060002090601f01602090048101928261272b5760008555612771565b82601f1061274457805160ff1916838001178555612771565b82800160010185558215612771579182015b82811115612771578251825591602001919060010190612756565b5061277d9291506127d8565b5090565b6040518061012001604052806000815260200160006001600160a01b031681526020016000815260200160008152602001606081526020016060815260200160001515815260200160008152602001600081525090565b5b8082111561277d57600081556001016127d9565b60006128006127fb8461382c565b6137fb565b905082815283838301111561281457600080fd5b828260208301376000602084830101529392505050565b80516106e681613970565b80516106e681613985565b600082601f830112612851578081fd5b6112de838335602085016127ed565b600082601f830112612870578081fd5b815161287e6127fb8261382c565b818152846020838601011115612892578283fd5b61159e8260208301602087016138c2565b6000602082840312156128b4578081fd5b81356112de81613970565b600080600080608085870312156128d4578283fd5b84356128df81613970565b9350602085013567ffffffffffffffff808211156128fb578485fd5b61290788838901612841565b9450604087013591508082111561291c578384fd5b61292888838901612841565b9350606087013591508082111561293d578283fd5b5061294a87828801612841565b91505092959194509250565b60008060408385031215612968578182fd5b823561297381613970565b9150602083013561298381613970565b809150509250929050565b6000806000606084860312156129a2578283fd5b83356129ad81613970565b925060208401356129bd81613970565b929592945050506040919091013590565b600080600080608085870312156129e3578384fd5b84356129ee81613970565b935060208501356129fe81613970565b925060408501359150606085013567ffffffffffffffff811115612a20578182fd5b8501601f81018713612a30578182fd5b61294a878235602084016127ed565b60008060408385031215612a51578182fd5b8235612a5c81613970565b9150602083013561298381613985565b60008060408385031215612a7e578182fd5b8235612a8981613970565b946020939093013593505050565b60006020808385031215612aa9578182fd5b825167ffffffffffffffff80821115612ac0578384fd5b818501915085601f830112612ad3578384fd5b815181811115612ae557612ae561395a565b612af284858302016137fb565b81815284810190848601875b84811015612bd9578151870161012080601f19838f03011215612b1f578a8bfd5b612b28816137fb565b8a83015181526040612b3b81850161282b565b8c83015260608085015182840152608085015181840152505060a083015189811115612b65578c8dfd5b612b738f8d83870101612860565b60808301525060c083015189811115612b8a578c8dfd5b612b988f8d83870101612860565b60a08301525060e0612bab818501612836565b60c0830152610100848101519183019190915291909201519082015284529287019290870190600101612afe565b50909998505050505050505050565b600060208284031215612bf9578081fd5b81356001600160e01b0319811681146112de578182fd5b600060208284031215612c21578081fd5b813567ffffffffffffffff811115612c37578182fd5b61159e84828501612841565b60008060408385031215612c55578182fd5b823567ffffffffffffffff80821115612c6c578384fd5b612c7886838701612841565b93506020850135915080821115612c8d578283fd5b50612c9a85828601612841565b9150509250929050565b600060208284031215612cb5578081fd5b5035919050565b60008060408385031215612cce578182fd5b82359150602083013561298381613970565b60008060408385031215612cf2578182fd5b82359150602083013567ffffffffffffffff811115612d0f578182fd5b612c9a85828601612841565b60008060408385031215612d2d578182fd5b50508035926020909101359150565b6001600160a01b03169052565b15159052565b60008151808452612d678160208601602086016138c2565b601f01601f19169290920160200192915050565b6000610120825184526020830151612d966020860182612d3c565b5060408301516040850152606083015160608501526080830151816080860152612dc282860182612d4f565b91505060a083015184820360a0860152612ddc8282612d4f565b91505060c0830151612df160c0860182612d49565b5060e083810151908501526101009283015192909301919091525090565b60008251612e218184602087016138c2565b9190910192915050565b6001600160a01b0391909116815260200190565b6000602080830181845280855180835260408601915060408482028701019250838701855b82811015612e9257603f19888603018452612e80858351612d7b565b94509285019290850190600101612e64565b5092979650505050505050565b901515815260200190565b6000602082526112de6020830184612d4f565b6020808252602d908201527f4120746f6b656e2068617320616c7265616479206265656e206d696e7465642060408201526c7769746820746869732055524960981b606082015260800190565b60208082526026908201527f4f776e61626c653a206e6577206f776e657220697320746865207a65726f206160408201526564647265737360d01b606082015260800190565b60208082526025908201527f4552433732313a207472616e736665722066726f6d20696e636f72726563742060408201526437bbb732b960d91b606082015260800190565b6020808252601c908201527f4552433732313a20746f6b656e20616c7265616479206d696e74656400000000604082015260600190565b60208082526024908201527f4552433732313a207472616e7366657220746f20746865207a65726f206164646040820152637265737360e01b606082015260800190565b60208082526019908201527f4552433732313a20617070726f766520746f2063616c6c657200000000000000604082015260600190565b6020808252818101527f546f6b656e20697320616c7265616479206d61726b656420666f722073616c65604082015260600190565b6020808252602c908201527f4552433732313a206f70657261746f7220717565727920666f72206e6f6e657860408201526b34b9ba32b73a103a37b5b2b760a11b606082015260800190565b6020808252602c908201527f53656e646572206d75737420626520746f6b656e206f776e6572206f7220636f60408201526b373a3930b1ba1037bbb732b960a11b606082015260800190565b60208082526018908201527f427579657220616c7265616479206f776e7320746f6b656e0000000000000000604082015260600190565b60208082526038908201527f4552433732313a20617070726f76652063616c6c6572206973206e6f74206f7760408201527f6e6572206e6f7220617070726f76656420666f7220616c6c0000000000000000606082015260800190565b6020808252602a908201527f4552433732313a2062616c616e636520717565727920666f7220746865207a65604082015269726f206164647265737360b01b606082015260800190565b60208082526029908201527f4552433732313a206f776e657220717565727920666f72206e6f6e657869737460408201526832b73a103a37b5b2b760b91b606082015260800190565b60208082526032908201527f4120746f6b656e2068617320616c7265616479206265656e206d696e746564206040820152713bb4ba34103a3434b99039b7b63aba34b7b760711b606082015260800190565b6020808252818101527f4552433732313a206d696e7420746f20746865207a65726f2061646472657373604082015260600190565b6020808252602c908201527f4552433732313a20617070726f76656420717565727920666f72206e6f6e657860408201526b34b9ba32b73a103a37b5b2b760a11b606082015260800190565b602080825260159082015274546f6b656e206973206e6f7420666f722073616c6560581b604082015260600190565b6020808252818101527f412076616c756520666f7220736f6c7574696f6e206973207265717569726564604082015260600190565b602080825260129082015271496e76616c696420746f206164647265737360701b604082015260600190565b6020808252818101527f4f776e61626c653a2063616c6c6572206973206e6f7420746865206f776e6572604082015260600190565b60208082526032908201527f412076616c69642070617373776f726420697320726571756972656420746f2060408201527131b0b636103a3434b990333ab731ba34b7b760711b606082015260800190565b60208082526021908201527f4552433732313a20617070726f76616c20746f2063757272656e74206f776e656040820152603960f91b606082015260800190565b60208082526039908201527f546f6b656e2063616e6e6f7420626520707269636564206c657373207468616e60408201527f207468652063757272656e742061736b696e6720707269636500000000000000606082015260800190565b602080825260169082015275151bdad95b925908191bd95cc81b9bdd08195e1a5cdd60521b604082015260600190565b6020808252602d908201527f496e73756666696369656e742065746865722073656e7420776974682074686960408201526c39903a3930b739b0b1ba34b7b760991b606082015260800190565b6020808252818101527f412076616c756520666f7220746f6b656e555249206973207265717569726564604082015260600190565b6020808252601b908201527f546f6b656e206f626a65637420646f6573206e6f742065786973740000000000604082015260600190565b6020808252602a908201527f546f6b656e20697320616c72656164792070726576656e7465642066726f6d2060408201526918995a5b99c81cdbdb1960b21b606082015260800190565b6020808252601f908201527f5265656e7472616e637947756172643a207265656e7472616e742063616c6c00604082015260600190565b6020808252603a908201527f546f6b656e2063616e6e6f7420626520707269636564206c657373207468616e60408201527f207468652063757272656e74206d696e696d756d207072696365000000000000606082015260800190565b6000602082526112de6020830184612d7b565b90815260200190565b600086825260018060a01b038616602083015284604083015260a060608301526136d360a0830185612d4f565b82810360808401526136e58185612d4f565b98975050505050505050565b8681526001600160a01b038681166020830152851660408201526060810184905260c06080820181905260009061372a90830185612d4f565b82810360a084015261373c8185612d4f565b9998505050505050505050565b8481526001600160a01b038416602082015260806040820181905260009061377390830185612d4f565b82810360608401526137858185612d4f565b979650505050505050565b60006101208b835260018060a01b038b1660208401528960408401528860608401528060808401526137c481840189612d4f565b905082810360a08401526137d88188612d4f565b95151560c0840152505060e0810192909252610100909101529695505050505050565b604051601f8201601f1916810167ffffffffffffffff811182821017156138245761382461395a565b604052919050565b600067ffffffffffffffff8211156138465761384661395a565b50601f01601f191660200190565b6000821982111561386757613867613944565b500190565b60008261388757634e487b7160e01b81526012600452602481fd5b500490565b60008160001904831182151516156138a6576138a6613944565b500290565b6000828210156138bd576138bd613944565b500390565b60005b838110156138dd5781810151838201526020016138c5565b83811115611c995750506000910152565b60028104600182168061390257607f821691505b6020821081141561392357634e487b7160e01b600052602260045260246000fd5b50919050565b600060001982141561393d5761393d613944565b5060010190565b634e487b7160e01b600052601160045260246000fd5b634e487b7160e01b600052604160045260246000fd5b6001600160a01b038116811461203e57600080fd5b801515811461203e57600080fdfea2646970667358221220f29427a07c556980a9504808c069d7db670b268c45611c9c44a01ceb697ae8fa64736f6c63430008010033",
  "immutableReferences": {},
  "source": "// SPDX-License-Identifier: MIT\r\npragma solidity >=0.4.22 <0.9.0;\r\nimport \"@openzeppelin/contracts/token/ERC721/ERC721.sol\"; // ERC721Enumerable\r\nimport \"@openzeppelin/contracts/access/Ownable.sol\";\r\nimport \"@openzeppelin/contracts/utils/math/SafeMath.sol\";\r\nimport \"@openzeppelin/contracts/security/ReentrancyGuard.sol\";\r\n\r\ncontract EthordleToken is ERC721, ReentrancyGuard, Ownable {\r\n    using Strings for uint256;\r\n    using SafeMath for uint256;\r\n\r\n    struct Token {\r\n        uint256 id;        \r\n        address owner;\r\n        uint256 price;\r\n        uint256 lastPrice;\r\n        string url;\r\n        string solution;\r\n        bool isForSale;\r\n        uint256 lastTransactionTimestamp;\r\n        uint256 transactionCount;        \r\n    }\r\n\r\n    mapping (uint256 => Token) public _tokens;\r\n    mapping (string => address) private _solutionOwners;\r\n    mapping (string => address) private _tokenURIOwners;\r\n\r\n    uint256 private _initialPrice;\r\n    uint256 private _minimumPrice;\r\n    uint256 private _royaltyRate;\r\n    uint256 private _priceEscalationRate;\r\n    uint256 private _currentTokenId;\r\n    string private _baseURIextended;\r\n    string private _password;\r\n    uint256 private _roundingDivisor = 10**15;\r\n\r\n    event Minted (\r\n        uint256 tokenId,\r\n        address owner,\r\n        uint256 price,\r\n        string solution,\r\n        string metadataURI\r\n    );\r\n\r\n    event SaleCreated (\r\n        uint256 tokenId,\r\n        address seller,\r\n        uint256 price,\r\n        string solution,\r\n        string metadataURI\r\n    );\r\n\r\n    event SaleCanceled (\r\n        uint256 tokenId,        \r\n        address seller,\r\n        string solution,\r\n        string metadataURI\r\n    );\r\n\r\n    event SaleSuccessful (\r\n        uint256 tokenId,        \r\n        address buyer,\r\n        address seller,\r\n        uint256 price,\r\n        string solution,\r\n        string metadataURI\r\n    );\r\n\r\n    event TransferSuccessful (\r\n        uint256 tokenId, \r\n        address transferee, \r\n        string solution, \r\n        string metadataURI\r\n    );\r\n\r\n    constructor(\r\n        string memory _name, \r\n        string memory _symbol, \r\n        uint256 initialPrice_, \r\n        uint256 minimumPrice_, \r\n        uint256 royaltyRate_, \r\n        uint256 priceEscalationRate_, \r\n        string memory password_) \r\n    ERC721(_name, _symbol) {\r\n        _currentTokenId = 0;\r\n        _initialPrice = initialPrice_;\r\n        _minimumPrice = minimumPrice_;\r\n        _royaltyRate = royaltyRate_;\r\n        _priceEscalationRate = priceEscalationRate_;\r\n        _password = password_;\r\n    }\r\n    \r\n    modifier requirePassword(string memory password_) {\r\n      require (_compareStrings(_password, password_), 'A valid password is required to call this function');\r\n      _;\r\n    }\r\n\r\n    function _compareStrings(string memory a, string memory b) public pure returns (bool) {\r\n        return (keccak256(abi.encodePacked((a))) == keccak256(abi.encodePacked((b))));\r\n    }\r\n\r\n    function _validateTokenId(uint256 tokenId) internal view returns (Token memory) {\r\n        require(_exists(tokenId), 'TokenId does not exist');\r\n        \r\n        Token memory token = _tokens[tokenId];    \r\n        \r\n        require(ownerOf(tokenId) != address(0x0), 'Token object does not exist');\r\n\r\n        return token;\r\n    }\r\n\r\n    function setInitialPrice(uint256 initialPrice_) external onlyOwner {\r\n        _initialPrice = initialPrice_;\r\n    }\r\n    \r\n    function initialPrice() external view returns (uint256) {\r\n        return _initialPrice;\r\n    }\r\n    \r\n    function setMinimumPrice(uint256 minimumPrice_) external onlyOwner {\r\n        _minimumPrice = minimumPrice_;\r\n    }\r\n\r\n    function minimumPrice() external view returns (uint256) {\r\n        return _minimumPrice;\r\n    }\r\n\r\n    function setRoyaltyRate(uint256 royaltyRate_) external onlyOwner {\r\n        _royaltyRate = royaltyRate_;   \r\n    }\r\n\r\n    function royaltyRate() external view returns (uint256) {\r\n        return _royaltyRate;\r\n    }\r\n\r\n    function setPriceEscalationRate(uint256 priceEscalationRate_) external onlyOwner {\r\n        _priceEscalationRate = priceEscalationRate_;\r\n    }\r\n\r\n    function priceEscalationRate() external view returns (uint256) {\r\n        return _priceEscalationRate;\r\n    }\r\n\r\n    function setPassword(string memory password_) external onlyOwner {\r\n        _password = password_;\r\n    }\r\n\r\n    function tokenCount() external view returns (uint256) {\r\n        return _currentTokenId;\r\n    }\r\n\r\n    function tokenById(uint256 tokenId) external view returns(Token memory) {        \r\n        Token memory token = _validateTokenId(tokenId);\r\n        return token;\r\n    }\r\n\r\n    function tokensOfOwner(address _from) external view returns(Token[] memory) {\r\n        uint256 ownerCount = balanceOf(_from);\r\n        uint256 ownerIndex = 0;\r\n        Token[] memory ownerTokens = new Token[](ownerCount);\r\n\r\n        if (ownerCount > 0) {\r\n            Token[] memory allTokens = this.tokens();\r\n            \r\n            for (uint256 i = 0; i < _currentTokenId; i++) {\r\n                if (ownerOf(allTokens[i].id) == _from) {\r\n                    ownerTokens[ownerIndex] = allTokens[i];\r\n                    ownerIndex++;\r\n                }\r\n            }\r\n        }\r\n\r\n        return ownerTokens;\r\n    }\r\n\r\n    function tokens() external view returns(Token[] memory) {  \r\n        Token[] memory allTokens = new Token[](_currentTokenId);\r\n\r\n        for (uint256 i = 0; i < _currentTokenId; i++) {\r\n            allTokens[i] = _tokens[i];\r\n        }\r\n\r\n        return allTokens;\r\n    }\r\n    \r\n    function setBaseURI(string memory baseURI) external onlyOwner {\r\n        _baseURIextended = baseURI;\r\n    }\r\n    \r\n    function _baseURI() internal view virtual override returns (string memory) {\r\n        return _baseURIextended;\r\n    }\r\n    \r\n    function isSolutionUnique(string memory solution_) public view returns (bool) {\r\n        return _solutionOwners[solution_] == address(0x0);\r\n    }\r\n\r\n    function tokenURI(uint256 tokenId) public view virtual override returns (string memory) {\r\n        Token memory token = _validateTokenId(tokenId);\r\n\r\n        return token.url;\r\n    }\r\n\r\n    function mint(\r\n        address payable to,\r\n        string memory solution_,\r\n        string memory tokenURI_,\r\n        string memory password_\r\n    ) external payable nonReentrant requirePassword(password_) {  \r\n        require(msg.sender == to || msg.sender == owner(), 'Invalid to address');      \r\n        require(msg.value >= _initialPrice, 'Insufficient ether sent with this transaction'); \r\n        require(_solutionOwners[solution_] == address(0x0), 'A token has already been minted with this solution');\r\n        require(_tokenURIOwners[tokenURI_] == address(0x0), 'A token has already been minted with this URI');\r\n        require(bytes(solution_).length >= 5, 'A value for solution is required');\r\n        require(bytes(tokenURI_).length >= 28, 'A value for tokenURI is required'); // https://ipfs.infura.io/ipfs/\r\n        \r\n        payable(owner()).transfer(msg.value);\r\n\r\n        _mint(to, _currentTokenId);\r\n\r\n        uint256 newPrice =_getEscalatedPrice(msg.value);\r\n\r\n        Token memory token = Token(_currentTokenId, to, newPrice, _initialPrice, tokenURI_, solution_, false, block.timestamp, 1);\r\n       \r\n        _tokens[_currentTokenId] = token;\r\n        _solutionOwners[solution_] = to;\r\n        _tokenURIOwners[tokenURI_] = to;\r\n        _currentTokenId++;   \r\n\r\n        emit Minted(_currentTokenId, to, newPrice, solution_, tokenURI_);     \r\n    }\r\n\r\n    function createSale(uint256 tokenId, uint256 price) external {    \r\n        Token memory token = _validateTokenId(tokenId);\r\n        \r\n        require(msg.sender == owner() || _isApprovedOrOwner(msg.sender, tokenId), 'Sender must be token owner or contract owner'); \r\n        require(!token.isForSale, 'Token is already marked for sale');\r\n        require(price >= token.price, 'Token cannot be priced less than the current asking price');\r\n        require(price >= _minimumPrice, 'Token cannot be priced less than the current minimum price');\r\n        \r\n        token.price = price.div(_roundingDivisor).mul(_roundingDivisor); // round to nearest 1/1000 eth\r\n        token.isForSale = true;\r\n\r\n        _tokens[tokenId] = token; \r\n\r\n        emit SaleCreated(tokenId, msg.sender, price, token.solution, token.url);\r\n    }\r\n\r\n    function cancelSale(uint256 tokenId) external {   \r\n        Token memory token = _validateTokenId(tokenId);\r\n\r\n        require(msg.sender == owner() || _isApprovedOrOwner(msg.sender, tokenId), 'Sender must be token owner or contract owner'); \r\n        \r\n        require(token.isForSale, 'Token is already prevented from being sold'); \r\n        \r\n        token.isForSale = false;\r\n        \r\n        _tokens[tokenId] = token; \r\n\r\n        emit SaleCanceled(tokenId, msg.sender, token.solution, token.url);\r\n    }\r\n\r\n    function buy(uint256 tokenId, string memory password_) external payable nonReentrant requirePassword(password_) {      \r\n        Token memory token = _validateTokenId(tokenId);\r\n        \r\n        require(msg.value >= token.price, 'Insufficient ether sent with this transaction');\r\n        require(token.isForSale, 'Token is not for sale');\r\n        require(token.owner != msg.sender, 'Buyer already owns token'); \r\n       \r\n        string memory solution_ = token.solution;\r\n        string memory tokenURI_ = token.url;\r\n\r\n        uint256 totalRoyalty = _getRoyalty(msg.value); \r\n        uint256 remainder = msg.value - totalRoyalty;\r\n\r\n        payable(owner()).transfer(totalRoyalty);\r\n        payable(address(token.owner)).transfer(remainder);\r\n        \r\n        _transfer(token.owner, msg.sender, tokenId);\r\n\r\n        _solutionOwners[solution_] = msg.sender;\r\n        _tokenURIOwners[tokenURI_] = msg.sender;\r\n\r\n        uint256 newPrice = _getEscalatedPrice(msg.value);\r\n        address oldOwner = token.owner;\r\n\r\n        token.owner = msg.sender;\r\n        token.lastPrice = token.price;\r\n        token.price = newPrice;\r\n        token.isForSale = false;\r\n        token.lastTransactionTimestamp = block.timestamp;\r\n        token.transactionCount++;       \r\n\r\n        _tokens[tokenId] = token; \r\n\r\n        emit SaleSuccessful(tokenId, msg.sender, oldOwner, newPrice, token.solution, token.url);\r\n    }\r\n    \r\n    function transferAsContractOwner(uint256 tokenId, address to) external payable nonReentrant onlyOwner {        \r\n        Token memory token = _validateTokenId(tokenId);\r\n        \r\n        require(token.owner != to, 'Buyer already owns token'); \r\n       \r\n        string memory solution_ = token.solution;\r\n        string memory tokenURI_ = token.url;\r\n  \r\n        _transfer(token.owner, to, tokenId);\r\n\r\n        _solutionOwners[solution_] = to;\r\n        _tokenURIOwners[tokenURI_] = to;\r\n\r\n        token.owner = to;\r\n        token.isForSale = false;\r\n        token.lastTransactionTimestamp = block.timestamp;\r\n        token.transactionCount++;       \r\n\r\n        _tokens[tokenId] = token; \r\n\r\n        emit TransferSuccessful(tokenId, to, token.solution, token.url);\r\n    }\r\n\r\n    function _getRoyalty(uint256 value) private view returns (uint256) {\r\n        return value.mul(_royaltyRate).div(10000);\r\n    }\r\n\r\n    function _getEscalatedPrice(uint256 value) private view returns (uint256) {\r\n        uint256 newPrice = value.mul(_priceEscalationRate).div(10000);\r\n        uint256 updatedPrice = newPrice.div(_roundingDivisor).mul(_roundingDivisor);  // round off new price to nearest 1/1000 eth\r\n\r\n        if (updatedPrice < _minimumPrice) {\r\n            return _minimumPrice;\r\n        }\r\n        else {\r\n            return updatedPrice;\r\n        }\r\n    }\r\n  \r\n     function transferFrom(\r\n        address /*from*/,\r\n        address /*to*/,\r\n        uint256 /*tokenId*/\r\n    ) public view override onlyOwner {\r\n    }\r\n\r\n    function safeTransferFrom(\r\n        address /*from*/,\r\n        address /*to*/,\r\n        uint256 /*tokenId*/\r\n    ) public view override onlyOwner {\r\n    }\r\n\r\n    function safeTransferFrom(\r\n        address /*from*/,\r\n        address /*to*/,\r\n        uint256 /*tokenId*/,\r\n        bytes memory /*_data*/\r\n    ) public view override onlyOwner {\r\n    }\r\n}",
  "sourcePath": "C:\\Dev\\Github\\ethordle\\contracts\\EthordleToken.sol",
  "compiler": {
    "name": "solc",
    "version": "0.8.1+commit.df193b15.Emscripten.clang"
  },
  "schemaVersion": "3.4.6",
  "updatedAt": "2022-05-10T14:05:56.544Z",
  "networkType": "ethereum",
  "devdoc": {
    "kind": "dev",
    "methods": {
      "approve(address,uint256)": {
        "details": "See {IERC721-approve}."
      },
      "balanceOf(address)": {
        "details": "See {IERC721-balanceOf}."
      },
      "getApproved(uint256)": {
        "details": "See {IERC721-getApproved}."
      },
      "isApprovedForAll(address,address)": {
        "details": "See {IERC721-isApprovedForAll}."
      },
      "name()": {
        "details": "See {IERC721Metadata-name}."
      },
      "owner()": {
        "details": "Returns the address of the current owner."
      },
      "ownerOf(uint256)": {
        "details": "See {IERC721-ownerOf}."
      },
      "renounceOwnership()": {
        "details": "Leaves the contract without owner. It will not be possible to call `onlyOwner` functions anymore. Can only be called by the current owner. NOTE: Renouncing ownership will leave the contract without an owner, thereby removing any functionality that is only available to the owner."
      },
      "setApprovalForAll(address,bool)": {
        "details": "See {IERC721-setApprovalForAll}."
      },
      "supportsInterface(bytes4)": {
        "details": "See {IERC165-supportsInterface}."
      },
      "symbol()": {
        "details": "See {IERC721Metadata-symbol}."
      },
      "tokenURI(uint256)": {
        "details": "See {IERC721Metadata-tokenURI}."
      },
      "transferOwnership(address)": {
        "details": "Transfers ownership of the contract to a new account (`newOwner`). Can only be called by the current owner."
      }
    },
    "version": 1
  },
  "userdoc": {
    "kind": "user",
    "methods": {},
    "version": 1
  }
}