{
  "contractName": "EthordleToken",
  "abi": [
    {
      "inputs": [
        {
          "internalType": "string",
          "name": "_name",
          "type": "string"
        },
        {
          "internalType": "string",
          "name": "_symbol",
          "type": "string"
        },
        {
          "internalType": "uint256",
          "name": "initialPrice_",
          "type": "uint256"
        },
        {
          "internalType": "uint256",
          "name": "royaltyRate_",
          "type": "uint256"
        },
        {
          "internalType": "uint256",
          "name": "priceEscalationRate_",
          "type": "uint256"
        }
      ],
      "stateMutability": "nonpayable",
      "type": "constructor"
    },
    {
      "anonymous": false,
      "inputs": [
        {
          "indexed": true,
          "internalType": "address",
          "name": "owner",
          "type": "address"
        },
        {
          "indexed": true,
          "internalType": "address",
          "name": "approved",
          "type": "address"
        },
        {
          "indexed": true,
          "internalType": "uint256",
          "name": "tokenId",
          "type": "uint256"
        }
      ],
      "name": "Approval",
      "type": "event"
    },
    {
      "anonymous": false,
      "inputs": [
        {
          "indexed": true,
          "internalType": "address",
          "name": "owner",
          "type": "address"
        },
        {
          "indexed": true,
          "internalType": "address",
          "name": "operator",
          "type": "address"
        },
        {
          "indexed": false,
          "internalType": "bool",
          "name": "approved",
          "type": "bool"
        }
      ],
      "name": "ApprovalForAll",
      "type": "event"
    },
    {
      "anonymous": false,
      "inputs": [
        {
          "indexed": true,
          "internalType": "address",
          "name": "previousOwner",
          "type": "address"
        },
        {
          "indexed": true,
          "internalType": "address",
          "name": "newOwner",
          "type": "address"
        }
      ],
      "name": "OwnershipTransferred",
      "type": "event"
    },
    {
      "anonymous": false,
      "inputs": [
        {
          "indexed": false,
          "internalType": "string",
          "name": "solution",
          "type": "string"
        },
        {
          "indexed": false,
          "internalType": "address payable",
          "name": "account",
          "type": "address"
        },
        {
          "indexed": false,
          "internalType": "uint256",
          "name": "tokenId",
          "type": "uint256"
        },
        {
          "indexed": false,
          "internalType": "string",
          "name": "metadataURI",
          "type": "string"
        }
      ],
      "name": "TokenMinted",
      "type": "event"
    },
    {
      "anonymous": false,
      "inputs": [
        {
          "indexed": true,
          "internalType": "address",
          "name": "from",
          "type": "address"
        },
        {
          "indexed": true,
          "internalType": "address",
          "name": "to",
          "type": "address"
        },
        {
          "indexed": true,
          "internalType": "uint256",
          "name": "tokenId",
          "type": "uint256"
        }
      ],
      "name": "Transfer",
      "type": "event"
    },
    {
      "inputs": [
        {
          "internalType": "uint256",
          "name": "",
          "type": "uint256"
        }
      ],
      "name": "_tokens",
      "outputs": [
        {
          "internalType": "uint256",
          "name": "id",
          "type": "uint256"
        },
        {
          "internalType": "address",
          "name": "owner",
          "type": "address"
        },
        {
          "internalType": "uint256",
          "name": "price",
          "type": "uint256"
        },
        {
          "internalType": "string",
          "name": "url",
          "type": "string"
        },
        {
          "internalType": "string",
          "name": "solution",
          "type": "string"
        },
        {
          "internalType": "uint256",
          "name": "transactionCount",
          "type": "uint256"
        }
      ],
      "stateMutability": "view",
      "type": "function",
      "constant": true
    },
    {
      "inputs": [
        {
          "internalType": "address",
          "name": "to",
          "type": "address"
        },
        {
          "internalType": "uint256",
          "name": "tokenId",
          "type": "uint256"
        }
      ],
      "name": "approve",
      "outputs": [],
      "stateMutability": "nonpayable",
      "type": "function"
    },
    {
      "inputs": [
        {
          "internalType": "address",
          "name": "owner",
          "type": "address"
        }
      ],
      "name": "balanceOf",
      "outputs": [
        {
          "internalType": "uint256",
          "name": "",
          "type": "uint256"
        }
      ],
      "stateMutability": "view",
      "type": "function",
      "constant": true
    },
    {
      "inputs": [
        {
          "internalType": "uint256",
          "name": "tokenId",
          "type": "uint256"
        }
      ],
      "name": "getApproved",
      "outputs": [
        {
          "internalType": "address",
          "name": "",
          "type": "address"
        }
      ],
      "stateMutability": "view",
      "type": "function",
      "constant": true
    },
    {
      "inputs": [
        {
          "internalType": "address",
          "name": "owner",
          "type": "address"
        },
        {
          "internalType": "address",
          "name": "operator",
          "type": "address"
        }
      ],
      "name": "isApprovedForAll",
      "outputs": [
        {
          "internalType": "bool",
          "name": "",
          "type": "bool"
        }
      ],
      "stateMutability": "view",
      "type": "function",
      "constant": true
    },
    {
      "inputs": [],
      "name": "name",
      "outputs": [
        {
          "internalType": "string",
          "name": "",
          "type": "string"
        }
      ],
      "stateMutability": "view",
      "type": "function",
      "constant": true
    },
    {
      "inputs": [],
      "name": "owner",
      "outputs": [
        {
          "internalType": "address",
          "name": "",
          "type": "address"
        }
      ],
      "stateMutability": "view",
      "type": "function",
      "constant": true
    },
    {
      "inputs": [
        {
          "internalType": "uint256",
          "name": "tokenId",
          "type": "uint256"
        }
      ],
      "name": "ownerOf",
      "outputs": [
        {
          "internalType": "address",
          "name": "",
          "type": "address"
        }
      ],
      "stateMutability": "view",
      "type": "function",
      "constant": true
    },
    {
      "inputs": [],
      "name": "renounceOwnership",
      "outputs": [],
      "stateMutability": "nonpayable",
      "type": "function"
    },
    {
      "inputs": [
        {
          "internalType": "address",
          "name": "operator",
          "type": "address"
        },
        {
          "internalType": "bool",
          "name": "approved",
          "type": "bool"
        }
      ],
      "name": "setApprovalForAll",
      "outputs": [],
      "stateMutability": "nonpayable",
      "type": "function"
    },
    {
      "inputs": [
        {
          "internalType": "bytes4",
          "name": "interfaceId",
          "type": "bytes4"
        }
      ],
      "name": "supportsInterface",
      "outputs": [
        {
          "internalType": "bool",
          "name": "",
          "type": "bool"
        }
      ],
      "stateMutability": "view",
      "type": "function",
      "constant": true
    },
    {
      "inputs": [],
      "name": "symbol",
      "outputs": [
        {
          "internalType": "string",
          "name": "",
          "type": "string"
        }
      ],
      "stateMutability": "view",
      "type": "function",
      "constant": true
    },
    {
      "inputs": [
        {
          "internalType": "address",
          "name": "newOwner",
          "type": "address"
        }
      ],
      "name": "transferOwnership",
      "outputs": [],
      "stateMutability": "nonpayable",
      "type": "function"
    },
    {
      "inputs": [
        {
          "internalType": "uint256",
          "name": "initialPrice_",
          "type": "uint256"
        }
      ],
      "name": "setInitialPrice",
      "outputs": [],
      "stateMutability": "nonpayable",
      "type": "function"
    },
    {
      "inputs": [],
      "name": "initialPrice",
      "outputs": [
        {
          "internalType": "uint256",
          "name": "",
          "type": "uint256"
        }
      ],
      "stateMutability": "view",
      "type": "function",
      "constant": true
    },
    {
      "inputs": [
        {
          "internalType": "uint256",
          "name": "royaltyRate_",
          "type": "uint256"
        }
      ],
      "name": "setRoyaltyRate",
      "outputs": [],
      "stateMutability": "nonpayable",
      "type": "function"
    },
    {
      "inputs": [],
      "name": "royaltyRate",
      "outputs": [
        {
          "internalType": "uint256",
          "name": "",
          "type": "uint256"
        }
      ],
      "stateMutability": "view",
      "type": "function",
      "constant": true
    },
    {
      "inputs": [
        {
          "internalType": "uint256",
          "name": "priceEscalationRate_",
          "type": "uint256"
        }
      ],
      "name": "setPriceEscalationRate",
      "outputs": [],
      "stateMutability": "nonpayable",
      "type": "function"
    },
    {
      "inputs": [],
      "name": "priceEscalationRate",
      "outputs": [
        {
          "internalType": "uint256",
          "name": "",
          "type": "uint256"
        }
      ],
      "stateMutability": "view",
      "type": "function",
      "constant": true
    },
    {
      "inputs": [],
      "name": "tokenCount",
      "outputs": [
        {
          "internalType": "uint256",
          "name": "",
          "type": "uint256"
        }
      ],
      "stateMutability": "view",
      "type": "function",
      "constant": true
    },
    {
      "inputs": [
        {
          "internalType": "uint256",
          "name": "tokenId",
          "type": "uint256"
        }
      ],
      "name": "tokenById",
      "outputs": [
        {
          "components": [
            {
              "internalType": "uint256",
              "name": "id",
              "type": "uint256"
            },
            {
              "internalType": "address",
              "name": "owner",
              "type": "address"
            },
            {
              "internalType": "uint256",
              "name": "price",
              "type": "uint256"
            },
            {
              "internalType": "string",
              "name": "url",
              "type": "string"
            },
            {
              "internalType": "string",
              "name": "solution",
              "type": "string"
            },
            {
              "internalType": "uint256",
              "name": "transactionCount",
              "type": "uint256"
            }
          ],
          "internalType": "struct EthordleToken.Token",
          "name": "",
          "type": "tuple"
        }
      ],
      "stateMutability": "view",
      "type": "function",
      "constant": true
    },
    {
      "inputs": [
        {
          "internalType": "address",
          "name": "_from",
          "type": "address"
        }
      ],
      "name": "tokensOfOwner",
      "outputs": [
        {
          "components": [
            {
              "internalType": "uint256",
              "name": "id",
              "type": "uint256"
            },
            {
              "internalType": "address",
              "name": "owner",
              "type": "address"
            },
            {
              "internalType": "uint256",
              "name": "price",
              "type": "uint256"
            },
            {
              "internalType": "string",
              "name": "url",
              "type": "string"
            },
            {
              "internalType": "string",
              "name": "solution",
              "type": "string"
            },
            {
              "internalType": "uint256",
              "name": "transactionCount",
              "type": "uint256"
            }
          ],
          "internalType": "struct EthordleToken.Token[]",
          "name": "",
          "type": "tuple[]"
        }
      ],
      "stateMutability": "view",
      "type": "function",
      "constant": true
    },
    {
      "inputs": [],
      "name": "tokens",
      "outputs": [
        {
          "components": [
            {
              "internalType": "uint256",
              "name": "id",
              "type": "uint256"
            },
            {
              "internalType": "address",
              "name": "owner",
              "type": "address"
            },
            {
              "internalType": "uint256",
              "name": "price",
              "type": "uint256"
            },
            {
              "internalType": "string",
              "name": "url",
              "type": "string"
            },
            {
              "internalType": "string",
              "name": "solution",
              "type": "string"
            },
            {
              "internalType": "uint256",
              "name": "transactionCount",
              "type": "uint256"
            }
          ],
          "internalType": "struct EthordleToken.Token[]",
          "name": "",
          "type": "tuple[]"
        }
      ],
      "stateMutability": "view",
      "type": "function",
      "constant": true
    },
    {
      "inputs": [
        {
          "internalType": "string",
          "name": "baseURI",
          "type": "string"
        }
      ],
      "name": "setBaseURI",
      "outputs": [],
      "stateMutability": "nonpayable",
      "type": "function"
    },
    {
      "inputs": [
        {
          "internalType": "string",
          "name": "solution_",
          "type": "string"
        }
      ],
      "name": "isSolutionUnique",
      "outputs": [
        {
          "internalType": "bool",
          "name": "",
          "type": "bool"
        }
      ],
      "stateMutability": "view",
      "type": "function",
      "constant": true
    },
    {
      "inputs": [
        {
          "internalType": "uint256",
          "name": "tokenId",
          "type": "uint256"
        }
      ],
      "name": "tokenURI",
      "outputs": [
        {
          "internalType": "string",
          "name": "",
          "type": "string"
        }
      ],
      "stateMutability": "view",
      "type": "function",
      "constant": true
    },
    {
      "inputs": [
        {
          "internalType": "address payable",
          "name": "to",
          "type": "address"
        },
        {
          "internalType": "string",
          "name": "solution_",
          "type": "string"
        },
        {
          "internalType": "string",
          "name": "tokenURI_",
          "type": "string"
        }
      ],
      "name": "mint",
      "outputs": [],
      "stateMutability": "payable",
      "type": "function",
      "payable": true
    },
    {
      "inputs": [
        {
          "internalType": "address",
          "name": "to",
          "type": "address"
        },
        {
          "internalType": "uint256",
          "name": "tokenId",
          "type": "uint256"
        }
      ],
      "name": "buy",
      "outputs": [],
      "stateMutability": "payable",
      "type": "function",
      "payable": true
    },
    {
      "inputs": [
        {
          "internalType": "address",
          "name": "",
          "type": "address"
        },
        {
          "internalType": "address",
          "name": "",
          "type": "address"
        },
        {
          "internalType": "uint256",
          "name": "",
          "type": "uint256"
        }
      ],
      "name": "transferFrom",
      "outputs": [],
      "stateMutability": "view",
      "type": "function",
      "constant": true
    },
    {
      "inputs": [
        {
          "internalType": "address",
          "name": "",
          "type": "address"
        },
        {
          "internalType": "address",
          "name": "",
          "type": "address"
        },
        {
          "internalType": "uint256",
          "name": "",
          "type": "uint256"
        }
      ],
      "name": "safeTransferFrom",
      "outputs": [],
      "stateMutability": "view",
      "type": "function",
      "constant": true
    },
    {
      "inputs": [
        {
          "internalType": "address",
          "name": "",
          "type": "address"
        },
        {
          "internalType": "address",
          "name": "",
          "type": "address"
        },
        {
          "internalType": "uint256",
          "name": "",
          "type": "uint256"
        },
        {
          "internalType": "bytes",
          "name": "",
          "type": "bytes"
        }
      ],
      "name": "safeTransferFrom",
      "outputs": [],
      "stateMutability": "view",
      "type": "function",
      "constant": true
    }
  ],
  "bytecode": "0x60806040523480156200001157600080fd5b5060405162005355380380620053558339818101604052810190620000379190620002fd565b8484816000908051906020019062000051929190620001c4565b5080600190805190602001906200006a929190620001c4565b5050506200008d62000081620000f660201b60201c565b620000fe60201b60201c565b33600a60006101000a81548173ffffffffffffffffffffffffffffffffffffffff021916908373ffffffffffffffffffffffffffffffffffffffff1602179055506000600e8190555082600b8190555081600c8190555080600d81905550505050505062000545565b600033905090565b6000600660009054906101000a900473ffffffffffffffffffffffffffffffffffffffff16905081600660006101000a81548173ffffffffffffffffffffffffffffffffffffffff021916908373ffffffffffffffffffffffffffffffffffffffff1602179055508173ffffffffffffffffffffffffffffffffffffffff168173ffffffffffffffffffffffffffffffffffffffff167f8be0079c531659141344cd1fd0a4f28419497f9722a3daafe3b4186f6b6457e060405160405180910390a35050565b828054620001d29062000450565b90600052602060002090601f016020900481019282620001f6576000855562000242565b82601f106200021157805160ff191683800117855562000242565b8280016001018555821562000242579182015b828111156200024157825182559160200191906001019062000224565b5b50905062000251919062000255565b5090565b5b808211156200027057600081600090555060010162000256565b5090565b60006200028b6200028584620003da565b620003b1565b905082815260208101848484011115620002a457600080fd5b620002b18482856200041a565b509392505050565b600082601f830112620002cb57600080fd5b8151620002dd84826020860162000274565b91505092915050565b600081519050620002f7816200052b565b92915050565b600080600080600060a086880312156200031657600080fd5b600086015167ffffffffffffffff8111156200033157600080fd5b6200033f88828901620002b9565b955050602086015167ffffffffffffffff8111156200035d57600080fd5b6200036b88828901620002b9565b94505060406200037e88828901620002e6565b93505060606200039188828901620002e6565b9250506080620003a488828901620002e6565b9150509295509295909350565b6000620003bd620003d0565b9050620003cb828262000486565b919050565b6000604051905090565b600067ffffffffffffffff821115620003f857620003f7620004eb565b5b62000403826200051a565b9050602081019050919050565b6000819050919050565b60005b838110156200043a5780820151818401526020810190506200041d565b838111156200044a576000848401525b50505050565b600060028204905060018216806200046957607f821691505b6020821081141562000480576200047f620004bc565b5b50919050565b62000491826200051a565b810181811067ffffffffffffffff82111715620004b357620004b2620004eb565b5b80604052505050565b7f4e487b7100000000000000000000000000000000000000000000000000000000600052602260045260246000fd5b7f4e487b7100000000000000000000000000000000000000000000000000000000600052604160045260246000fd5b6000601f19601f8301169050919050565b620005368162000410565b81146200054257600080fd5b50565b614e0080620005556000396000f3fe6080604052600436106101d85760003560e01c80638da5cb5b11610102578063a5a0258411610095578063cce7ec1311610064578063cce7ec13146106c1578063e985e9c5146106dd578063ed70554d1461071a578063f2fde38b1461075c576101d8565b8063a5a02584146105f3578063b88d4fde14610630578063c4d1510d14610659578063c87b56dd14610684576101d8565b80639f181b5e116100d15780639f181b5e1461054d5780639f4ba0ee14610578578063a129ece9146105a1578063a22cb465146105ca576101d8565b80638da5cb5b146104b057806395d89b41146104db57806399071190146105065780639d63848a14610522576101d8565b8063537782a21161017a57806370a082311161014957806370a08231146103f4578063715018a614610431578063755381f7146104485780638462151c14610473576101d8565b8063537782a21461032857806355f804b3146103515780636352211e1461037a5780636b6af2d5146103b7576101d8565b8063095ea7b3116101b6578063095ea7b3146102825780631d0806ae146102ab57806323b872dd146102d657806342842e0e146102ff576101d8565b806301ffc9a7146101dd57806306fdde031461021a578063081812fc14610245575b600080fd5b3480156101e957600080fd5b5061020460048036038101906101ff9190613872565b610785565b6040516102119190613f24565b60405180910390f35b34801561022657600080fd5b5061022f610867565b60405161023c9190613f3f565b60405180910390f35b34801561025157600080fd5b5061026c600480360381019061026791906138dc565b6108f9565b6040516102799190613ee7565b60405180910390f35b34801561028e57600080fd5b506102a960048036038101906102a491906137f5565b61097e565b005b3480156102b757600080fd5b506102c0610a96565b6040516102cd91906142b6565b60405180910390f35b3480156102e257600080fd5b506102fd60048036038101906102f891906136ef565b610aa0565b005b34801561030b57600080fd5b50610326600480360381019061032191906136ef565b610b35565b005b34801561033457600080fd5b5061034f600480360381019061034a91906138dc565b610bca565b005b34801561035d57600080fd5b506103786004803603810190610373919061389b565b610c50565b005b34801561038657600080fd5b506103a1600480360381019061039c91906138dc565b610ce6565b6040516103ae9190613ee7565b60405180910390f35b3480156103c357600080fd5b506103de60048036038101906103d991906138dc565b610d98565b6040516103eb9190614294565b60405180910390f35b34801561040057600080fd5b5061041b6004803603810190610416919061360b565b610ff3565b60405161042891906142b6565b60405180910390f35b34801561043d57600080fd5b506104466110ab565b005b34801561045457600080fd5b5061045d611133565b60405161046a91906142b6565b60405180910390f35b34801561047f57600080fd5b5061049a6004803603810190610495919061360b565b61113d565b6040516104a79190613f02565b60405180910390f35b3480156104bc57600080fd5b506104c5611395565b6040516104d29190613ee7565b60405180910390f35b3480156104e757600080fd5b506104f06113bf565b6040516104fd9190613f3f565b60405180910390f35b610520600480360381019061051b9190613634565b611451565b005b34801561052e57600080fd5b506105376119c1565b6040516105449190613f02565b60405180910390f35b34801561055957600080fd5b50610562611c65565b60405161056f91906142b6565b60405180910390f35b34801561058457600080fd5b5061059f600480360381019061059a91906138dc565b611c6f565b005b3480156105ad57600080fd5b506105c860048036038101906105c391906138dc565b611cf5565b005b3480156105d657600080fd5b506105f160048036038101906105ec91906137b9565b611d7b565b005b3480156105ff57600080fd5b5061061a6004803603810190610615919061389b565b611d91565b6040516106279190613f24565b60405180910390f35b34801561063c57600080fd5b506106576004803603810190610652919061373e565b611e07565b005b34801561066557600080fd5b5061066e611e9d565b60405161067b91906142b6565b60405180910390f35b34801561069057600080fd5b506106ab60048036038101906106a691906138dc565b611ea7565b6040516106b89190613f3f565b60405180910390f35b6106db60048036038101906106d691906137f5565b611f97565b005b3480156106e957600080fd5b5061070460048036038101906106ff91906136b3565b6125a3565b6040516107119190613f24565b60405180910390f35b34801561072657600080fd5b50610741600480360381019061073c91906138dc565b612637565b604051610753969594939291906142d1565b60405180910390f35b34801561076857600080fd5b50610783600480360381019061077e919061360b565b6127a3565b005b60007f80ac58cd000000000000000000000000000000000000000000000000000000007bffffffffffffffffffffffffffffffffffffffffffffffffffffffff1916827bffffffffffffffffffffffffffffffffffffffffffffffffffffffff1916148061085057507f5b5e139f000000000000000000000000000000000000000000000000000000007bffffffffffffffffffffffffffffffffffffffffffffffffffffffff1916827bffffffffffffffffffffffffffffffffffffffffffffffffffffffff1916145b80610860575061085f8261289b565b5b9050919050565b60606000805461087690614641565b80601f01602080910402602001604051908101604052809291908181526020018280546108a290614641565b80156108ef5780601f106108c4576101008083540402835291602001916108ef565b820191906000526020600020905b8154815290600101906020018083116108d257829003601f168201915b5050505050905090565b600061090482612905565b610943576040517f08c379a000000000000000000000000000000000000000000000000000000000815260040161093a90614194565b60405180910390fd5b6004600083815260200190815260200160002060009054906101000a900473ffffffffffffffffffffffffffffffffffffffff169050919050565b600061098982610ce6565b90508073ffffffffffffffffffffffffffffffffffffffff168373ffffffffffffffffffffffffffffffffffffffff1614156109fa576040517f08c379a00000000000000000000000000000000000000000000000000000000081526004016109f190614214565b60405180910390fd5b8073ffffffffffffffffffffffffffffffffffffffff16610a19612971565b73ffffffffffffffffffffffffffffffffffffffff161480610a485750610a4781610a42612971565b6125a3565b5b610a87576040517f08c379a0000000000000000000000000000000000000000000000000000000008152600401610a7e906140f4565b60405180910390fd5b610a918383612979565b505050565b6000600b54905090565b600a60009054906101000a900473ffffffffffffffffffffffffffffffffffffffff1673ffffffffffffffffffffffffffffffffffffffff163373ffffffffffffffffffffffffffffffffffffffff1614610b30576040517f08c379a0000000000000000000000000000000000000000000000000000000008152600401610b2790614074565b60405180910390fd5b505050565b600a60009054906101000a900473ffffffffffffffffffffffffffffffffffffffff1673ffffffffffffffffffffffffffffffffffffffff163373ffffffffffffffffffffffffffffffffffffffff1614610bc5576040517f08c379a0000000000000000000000000000000000000000000000000000000008152600401610bbc90614074565b60405180910390fd5b505050565b610bd2612971565b73ffffffffffffffffffffffffffffffffffffffff16610bf0611395565b73ffffffffffffffffffffffffffffffffffffffff1614610c46576040517f08c379a0000000000000000000000000000000000000000000000000000000008152600401610c3d906141f4565b60405180910390fd5b80600c8190555050565b610c58612971565b73ffffffffffffffffffffffffffffffffffffffff16610c76611395565b73ffffffffffffffffffffffffffffffffffffffff1614610ccc576040517f08c379a0000000000000000000000000000000000000000000000000000000008152600401610cc3906141f4565b60405180910390fd5b80600f9080519060200190610ce29291906131fe565b5050565b6000806002600084815260200190815260200160002060009054906101000a900473ffffffffffffffffffffffffffffffffffffffff169050600073ffffffffffffffffffffffffffffffffffffffff168173ffffffffffffffffffffffffffffffffffffffff161415610d8f576040517f08c379a0000000000000000000000000000000000000000000000000000000008152600401610d8690614134565b60405180910390fd5b80915050919050565b610da0613284565b610da982612905565b610de8576040517f08c379a0000000000000000000000000000000000000000000000000000000008152600401610ddf90614234565b60405180910390fd5b6000600760008481526020019081526020016000206040518060c0016040529081600082015481526020016001820160009054906101000a900473ffffffffffffffffffffffffffffffffffffffff1673ffffffffffffffffffffffffffffffffffffffff1673ffffffffffffffffffffffffffffffffffffffff16815260200160028201548152602001600382018054610e8290614641565b80601f0160208091040260200160405190810160405280929190818152602001828054610eae90614641565b8015610efb5780601f10610ed057610100808354040283529160200191610efb565b820191906000526020600020905b815481529060010190602001808311610ede57829003601f168201915b50505050508152602001600482018054610f1490614641565b80601f0160208091040260200160405190810160405280929190818152602001828054610f4090614641565b8015610f8d5780601f10610f6257610100808354040283529160200191610f8d565b820191906000526020600020905b815481529060010190602001808311610f7057829003601f168201915b505050505081526020016005820154815250509050610fab83612905565b610fea576040517f08c379a0000000000000000000000000000000000000000000000000000000008152600401610fe190614094565b60405180910390fd5b80915050919050565b60008073ffffffffffffffffffffffffffffffffffffffff168273ffffffffffffffffffffffffffffffffffffffff161415611064576040517f08c379a000000000000000000000000000000000000000000000000000000000815260040161105b90614114565b60405180910390fd5b600360008373ffffffffffffffffffffffffffffffffffffffff1673ffffffffffffffffffffffffffffffffffffffff168152602001908152602001600020549050919050565b6110b3612971565b73ffffffffffffffffffffffffffffffffffffffff166110d1611395565b73ffffffffffffffffffffffffffffffffffffffff1614611127576040517f08c379a000000000000000000000000000000000000000000000000000000000815260040161111e906141f4565b60405180910390fd5b6111316000612a32565b565b6000600d54905090565b6060600061114a83610ff3565b90506000808267ffffffffffffffff81111561118f577f4e487b7100000000000000000000000000000000000000000000000000000000600052604160045260246000fd5b6040519080825280602002602001820160405280156111c857816020015b6111b5613284565b8152602001906001900390816111ad5790505b509050600083111561138a5760003073ffffffffffffffffffffffffffffffffffffffff16639d63848a6040518163ffffffff1660e01b815260040160006040518083038186803b15801561121c57600080fd5b505afa158015611230573d6000803e3d6000fd5b505050506040513d6000823e3d601f19601f820116820180604052508101906112599190613831565b905060005b600e54811015611387578673ffffffffffffffffffffffffffffffffffffffff168282815181106112b8577f4e487b7100000000000000000000000000000000000000000000000000000000600052603260045260246000fd5b60200260200101516020015173ffffffffffffffffffffffffffffffffffffffff16141561137457818181518110611319577f4e487b7100000000000000000000000000000000000000000000000000000000600052603260045260246000fd5b602002602001015183858151811061135a577f4e487b7100000000000000000000000000000000000000000000000000000000600052603260045260246000fd5b60200260200101819052508380611370906146a4565b9450505b808061137f906146a4565b91505061125e565b50505b809350505050919050565b6000600660009054906101000a900473ffffffffffffffffffffffffffffffffffffffff16905090565b6060600180546113ce90614641565b80601f01602080910402602001604051908101604052809291908181526020018280546113fa90614641565b80156114475780601f1061141c57610100808354040283529160200191611447565b820191906000526020600020905b81548152906001019060200180831161142a57829003601f168201915b5050505050905090565b8273ffffffffffffffffffffffffffffffffffffffff163373ffffffffffffffffffffffffffffffffffffffff1614806114d85750600a60009054906101000a900473ffffffffffffffffffffffffffffffffffffffff1673ffffffffffffffffffffffffffffffffffffffff163373ffffffffffffffffffffffffffffffffffffffff16145b611517576040517f08c379a000000000000000000000000000000000000000000000000000000000815260040161150e906141d4565b60405180910390fd5b600b5434101561155c576040517f08c379a000000000000000000000000000000000000000000000000000000000815260040161155390614254565b60405180910390fd5b600073ffffffffffffffffffffffffffffffffffffffff166008836040516115849190613ed0565b908152602001604051809103902060009054906101000a900473ffffffffffffffffffffffffffffffffffffffff1673ffffffffffffffffffffffffffffffffffffffff1614611609576040517f08c379a000000000000000000000000000000000000000000000000000000000815260040161160090614154565b60405180910390fd5b600073ffffffffffffffffffffffffffffffffffffffff166009826040516116319190613ed0565b908152602001604051809103902060009054906101000a900473ffffffffffffffffffffffffffffffffffffffff1673ffffffffffffffffffffffffffffffffffffffff16146116b6576040517f08c379a00000000000000000000000000000000000000000000000000000000081526004016116ad90613fb4565b60405180910390fd5b6005825110156116fb576040517f08c379a00000000000000000000000000000000000000000000000000000000081526004016116f2906141b4565b60405180910390fd5b601c81511015611740576040517f08c379a000000000000000000000000000000000000000000000000000000000815260040161173790614274565b60405180910390fd5b611748611395565b73ffffffffffffffffffffffffffffffffffffffff166108fc349081150290604051600060405180830381858888f1935050505015801561178d573d6000803e3d6000fd5b5061179a83600e54612af8565b60006117a534612cd2565b905060006040518060c00160405280600e5481526020018673ffffffffffffffffffffffffffffffffffffffff168152602001838152602001848152602001858152602001600181525090508060076000600e5481526020019081526020016000206000820151816000015560208201518160010160006101000a81548173ffffffffffffffffffffffffffffffffffffffff021916908373ffffffffffffffffffffffffffffffffffffffff16021790555060408201518160020155606082015181600301908051906020019061187e9291906131fe565b50608082015181600401908051906020019061189b9291906131fe565b5060a08201518160050155905050846008856040516118ba9190613ed0565b908152602001604051809103902060006101000a81548173ffffffffffffffffffffffffffffffffffffffff021916908373ffffffffffffffffffffffffffffffffffffffff160217905550846009846040516119179190613ed0565b908152602001604051809103902060006101000a81548173ffffffffffffffffffffffffffffffffffffffff021916908373ffffffffffffffffffffffffffffffffffffffff160217905550600e6000815480929190611976906146a4565b91905055507f69e2cadceb55416f48e5a82e3641de7889495c2e02c86d37aaa313d121e8e7428486600e54866040516119b29493929190613f61565b60405180910390a15050505050565b60606000600e5467ffffffffffffffff811115611a07577f4e487b7100000000000000000000000000000000000000000000000000000000600052604160045260246000fd5b604051908082528060200260200182016040528015611a4057816020015b611a2d613284565b815260200190600190039081611a255790505b50905060005b600e54811015611c5d57600760008281526020019081526020016000206040518060c0016040529081600082015481526020016001820160009054906101000a900473ffffffffffffffffffffffffffffffffffffffff1673ffffffffffffffffffffffffffffffffffffffff1673ffffffffffffffffffffffffffffffffffffffff16815260200160028201548152602001600382018054611ae890614641565b80601f0160208091040260200160405190810160405280929190818152602001828054611b1490614641565b8015611b615780601f10611b3657610100808354040283529160200191611b61565b820191906000526020600020905b815481529060010190602001808311611b4457829003601f168201915b50505050508152602001600482018054611b7a90614641565b80601f0160208091040260200160405190810160405280929190818152602001828054611ba690614641565b8015611bf35780601f10611bc857610100808354040283529160200191611bf3565b820191906000526020600020905b815481529060010190602001808311611bd657829003601f168201915b50505050508152602001600582015481525050828281518110611c3f577f4e487b7100000000000000000000000000000000000000000000000000000000600052603260045260246000fd5b60200260200101819052508080611c55906146a4565b915050611a46565b508091505090565b6000600e54905090565b611c77612971565b73ffffffffffffffffffffffffffffffffffffffff16611c95611395565b73ffffffffffffffffffffffffffffffffffffffff1614611ceb576040517f08c379a0000000000000000000000000000000000000000000000000000000008152600401611ce2906141f4565b60405180910390fd5b80600b8190555050565b611cfd612971565b73ffffffffffffffffffffffffffffffffffffffff16611d1b611395565b73ffffffffffffffffffffffffffffffffffffffff1614611d71576040517f08c379a0000000000000000000000000000000000000000000000000000000008152600401611d68906141f4565b60405180910390fd5b80600d8190555050565b611d8d611d86612971565b8383612d1e565b5050565b60008073ffffffffffffffffffffffffffffffffffffffff16600883604051611dba9190613ed0565b908152602001604051809103902060009054906101000a900473ffffffffffffffffffffffffffffffffffffffff1673ffffffffffffffffffffffffffffffffffffffff16149050919050565b600a60009054906101000a900473ffffffffffffffffffffffffffffffffffffffff1673ffffffffffffffffffffffffffffffffffffffff163373ffffffffffffffffffffffffffffffffffffffff1614611e97576040517f08c379a0000000000000000000000000000000000000000000000000000000008152600401611e8e90614074565b60405180910390fd5b50505050565b6000600c54905090565b6060611eb282612905565b611ef1576040517f08c379a0000000000000000000000000000000000000000000000000000000008152600401611ee890614234565b60405180910390fd5b600760008381526020019081526020016000206003018054611f1290614641565b80601f0160208091040260200160405190810160405280929190818152602001828054611f3e90614641565b8015611f8b5780601f10611f6057610100808354040283529160200191611f8b565b820191906000526020600020905b815481529060010190602001808311611f6e57829003601f168201915b50505050509050919050565b611fa081612905565b611fdf576040517f08c379a0000000000000000000000000000000000000000000000000000000008152600401611fd690614234565b60405180910390fd5b8173ffffffffffffffffffffffffffffffffffffffff163373ffffffffffffffffffffffffffffffffffffffff161461204d576040517f08c379a0000000000000000000000000000000000000000000000000000000008152600401612044906140d4565b60405180910390fd5b61205e612058612971565b82612e8b565b1561209e576040517f08c379a0000000000000000000000000000000000000000000000000000000008152600401612095906140d4565b60405180910390fd5b6000600760008381526020019081526020016000206040518060c0016040529081600082015481526020016001820160009054906101000a900473ffffffffffffffffffffffffffffffffffffffff1673ffffffffffffffffffffffffffffffffffffffff1673ffffffffffffffffffffffffffffffffffffffff1681526020016002820154815260200160038201805461213890614641565b80601f016020809104026020016040519081016040528092919081815260200182805461216490614641565b80156121b15780601f10612186576101008083540402835291602001916121b1565b820191906000526020600020905b81548152906001019060200180831161219457829003601f168201915b505050505081526020016004820180546121ca90614641565b80601f01602080910402602001604051908101604052809291908181526020018280546121f690614641565b80156122435780601f1061221857610100808354040283529160200191612243565b820191906000526020600020905b81548152906001019060200180831161222657829003601f168201915b5050505050815260200160058201548152505090506122658160000151612905565b6122a4576040517f08c379a000000000000000000000000000000000000000000000000000000000815260040161229b90614094565b60405180910390fd5b80604001513410156122eb576040517f08c379a00000000000000000000000000000000000000000000000000000000081526004016122e290614254565b60405180910390fd5b600081608001519050600082606001519050600083602001519050600061231134612f69565b9050600081346123219190614545565b905061232b611395565b73ffffffffffffffffffffffffffffffffffffffff166108fc839081150290604051600060405180830381858888f19350505050158015612370573d6000803e3d6000fd5b508273ffffffffffffffffffffffffffffffffffffffff166108fc829081150290604051600060405180830381858888f193505050501580156123b7573d6000803e3d6000fd5b506123c3838989612f8d565b876008866040516123d49190613ed0565b908152602001604051809103902060006101000a81548173ffffffffffffffffffffffffffffffffffffffff021916908373ffffffffffffffffffffffffffffffffffffffff160217905550876009856040516124319190613ed0565b908152602001604051809103902060006101000a81548173ffffffffffffffffffffffffffffffffffffffff021916908373ffffffffffffffffffffffffffffffffffffffff160217905550600061248834612cd2565b905088876020019073ffffffffffffffffffffffffffffffffffffffff16908173ffffffffffffffffffffffffffffffffffffffff1681525050808760400181815250508660a00180518091906124de906146a4565b8152505086600760008a81526020019081526020016000206000820151816000015560208201518160010160006101000a81548173ffffffffffffffffffffffffffffffffffffffff021916908373ffffffffffffffffffffffffffffffffffffffff16021790555060408201518160020155606082015181600301908051906020019061256d9291906131fe565b50608082015181600401908051906020019061258a9291906131fe565b5060a08201518160050155905050505050505050505050565b6000600560008473ffffffffffffffffffffffffffffffffffffffff1673ffffffffffffffffffffffffffffffffffffffff16815260200190815260200160002060008373ffffffffffffffffffffffffffffffffffffffff1673ffffffffffffffffffffffffffffffffffffffff16815260200190815260200160002060009054906101000a900460ff16905092915050565b60076020528060005260406000206000915090508060000154908060010160009054906101000a900473ffffffffffffffffffffffffffffffffffffffff169080600201549080600301805461268c90614641565b80601f01602080910402602001604051908101604052809291908181526020018280546126b890614641565b80156127055780601f106126da57610100808354040283529160200191612705565b820191906000526020600020905b8154815290600101906020018083116126e857829003601f168201915b50505050509080600401805461271a90614641565b80601f016020809104026020016040519081016040528092919081815260200182805461274690614641565b80156127935780601f1061276857610100808354040283529160200191612793565b820191906000526020600020905b81548152906001019060200180831161277657829003601f168201915b5050505050908060050154905086565b6127ab612971565b73ffffffffffffffffffffffffffffffffffffffff166127c9611395565b73ffffffffffffffffffffffffffffffffffffffff161461281f576040517f08c379a0000000000000000000000000000000000000000000000000000000008152600401612816906141f4565b60405180910390fd5b600073ffffffffffffffffffffffffffffffffffffffff168173ffffffffffffffffffffffffffffffffffffffff16141561288f576040517f08c379a000000000000000000000000000000000000000000000000000000000815260040161288690613fd4565b60405180910390fd5b61289881612a32565b50565b60007f01ffc9a7000000000000000000000000000000000000000000000000000000007bffffffffffffffffffffffffffffffffffffffffffffffffffffffff1916827bffffffffffffffffffffffffffffffffffffffffffffffffffffffff1916149050919050565b60008073ffffffffffffffffffffffffffffffffffffffff166002600084815260200190815260200160002060009054906101000a900473ffffffffffffffffffffffffffffffffffffffff1673ffffffffffffffffffffffffffffffffffffffff1614159050919050565b600033905090565b816004600083815260200190815260200160002060006101000a81548173ffffffffffffffffffffffffffffffffffffffff021916908373ffffffffffffffffffffffffffffffffffffffff160217905550808273ffffffffffffffffffffffffffffffffffffffff166129ec83610ce6565b73ffffffffffffffffffffffffffffffffffffffff167f8c5be1e5ebec7d5bd14f71427d1e84f3dd0314c0f7b2291e5b200ac8c7c3b92560405160405180910390a45050565b6000600660009054906101000a900473ffffffffffffffffffffffffffffffffffffffff16905081600660006101000a81548173ffffffffffffffffffffffffffffffffffffffff021916908373ffffffffffffffffffffffffffffffffffffffff1602179055508173ffffffffffffffffffffffffffffffffffffffff168173ffffffffffffffffffffffffffffffffffffffff167f8be0079c531659141344cd1fd0a4f28419497f9722a3daafe3b4186f6b6457e060405160405180910390a35050565b600073ffffffffffffffffffffffffffffffffffffffff168273ffffffffffffffffffffffffffffffffffffffff161415612b68576040517f08c379a0000000000000000000000000000000000000000000000000000000008152600401612b5f90614174565b60405180910390fd5b612b7181612905565b15612bb1576040517f08c379a0000000000000000000000000000000000000000000000000000000008152600401612ba890614014565b60405180910390fd5b612bbd600083836131f4565b6001600360008473ffffffffffffffffffffffffffffffffffffffff1673ffffffffffffffffffffffffffffffffffffffff1681526020019081526020016000206000828254612c0d9190614464565b92505081905550816002600083815260200190815260200160002060006101000a81548173ffffffffffffffffffffffffffffffffffffffff021916908373ffffffffffffffffffffffffffffffffffffffff160217905550808273ffffffffffffffffffffffffffffffffffffffff16600073ffffffffffffffffffffffffffffffffffffffff167fddf252ad1be2c89b69c2b068fc378daa952ba7f163c4a11628f55a4df523b3ef60405160405180910390a4612cce600083836131f9565b5050565b60008066038d7ea4c6800090506000612710600d5485612cf291906144eb565b612cfc91906144ba565b9050818282612d0b91906144ba565b612d1591906144eb565b92505050919050565b8173ffffffffffffffffffffffffffffffffffffffff168373ffffffffffffffffffffffffffffffffffffffff161415612d8d576040517f08c379a0000000000000000000000000000000000000000000000000000000008152600401612d8490614054565b60405180910390fd5b80600560008573ffffffffffffffffffffffffffffffffffffffff1673ffffffffffffffffffffffffffffffffffffffff16815260200190815260200160002060008473ffffffffffffffffffffffffffffffffffffffff1673ffffffffffffffffffffffffffffffffffffffff16815260200190815260200160002060006101000a81548160ff0219169083151502179055508173ffffffffffffffffffffffffffffffffffffffff168373ffffffffffffffffffffffffffffffffffffffff167f17307eab39ab6107e8899845ad3d59bd9653f200f220920489ca2b5937696c3183604051612e7e9190613f24565b60405180910390a3505050565b6000612e9682612905565b612ed5576040517f08c379a0000000000000000000000000000000000000000000000000000000008152600401612ecc906140b4565b60405180910390fd5b6000612ee083610ce6565b90508073ffffffffffffffffffffffffffffffffffffffff168473ffffffffffffffffffffffffffffffffffffffff161480612f4f57508373ffffffffffffffffffffffffffffffffffffffff16612f37846108f9565b73ffffffffffffffffffffffffffffffffffffffff16145b80612f605750612f5f81856125a3565b5b91505092915050565b6000612710600c5483612f7c91906144eb565b612f8691906144ba565b9050919050565b8273ffffffffffffffffffffffffffffffffffffffff16612fad82610ce6565b73ffffffffffffffffffffffffffffffffffffffff1614613003576040517f08c379a0000000000000000000000000000000000000000000000000000000008152600401612ffa90613ff4565b60405180910390fd5b600073ffffffffffffffffffffffffffffffffffffffff168273ffffffffffffffffffffffffffffffffffffffff161415613073576040517f08c379a000000000000000000000000000000000000000000000000000000000815260040161306a90614034565b60405180910390fd5b61307e8383836131f4565b613089600082612979565b6001600360008573ffffffffffffffffffffffffffffffffffffffff1673ffffffffffffffffffffffffffffffffffffffff16815260200190815260200160002060008282546130d99190614545565b925050819055506001600360008473ffffffffffffffffffffffffffffffffffffffff1673ffffffffffffffffffffffffffffffffffffffff16815260200190815260200160002060008282546131309190614464565b92505081905550816002600083815260200190815260200160002060006101000a81548173ffffffffffffffffffffffffffffffffffffffff021916908373ffffffffffffffffffffffffffffffffffffffff160217905550808273ffffffffffffffffffffffffffffffffffffffff168473ffffffffffffffffffffffffffffffffffffffff167fddf252ad1be2c89b69c2b068fc378daa952ba7f163c4a11628f55a4df523b3ef60405160405180910390a46131ef8383836131f9565b505050565b505050565b505050565b82805461320a90614641565b90600052602060002090601f01602090048101928261322c5760008555613273565b82601f1061324557805160ff1916838001178555613273565b82800160010185558215613273579182015b82811115613272578251825591602001919060010190613257565b5b50905061328091906132d0565b5090565b6040518060c0016040528060008152602001600073ffffffffffffffffffffffffffffffffffffffff168152602001600081526020016060815260200160608152602001600081525090565b5b808211156132e95760008160009055506001016132d1565b5090565b60006133006132fb84614365565b614340565b9050808382526020820190508260005b8581101561334057815185016133268882613515565b845260208401935060208301925050600181019050613310565b5050509392505050565b600061335d61335884614391565b614340565b90508281526020810184848401111561337557600080fd5b6133808482856145ff565b509392505050565b600061339b613396846143c2565b614340565b9050828152602081018484840111156133b357600080fd5b6133be8482856145ff565b509392505050565b60006133d96133d4846143c2565b614340565b9050828152602081018484840111156133f157600080fd5b6133fc84828561460e565b509392505050565b60008135905061341381614d57565b92915050565b60008151905061342881614d57565b92915050565b60008135905061343d81614d6e565b92915050565b600082601f83011261345457600080fd5b81516134648482602086016132ed565b91505092915050565b60008135905061347c81614d85565b92915050565b60008135905061349181614d9c565b92915050565b600082601f8301126134a857600080fd5b81356134b884826020860161334a565b91505092915050565b600082601f8301126134d257600080fd5b81356134e2848260208601613388565b91505092915050565b600082601f8301126134fc57600080fd5b815161350c8482602086016133c6565b91505092915050565b600060c0828403121561352757600080fd5b61353160c0614340565b90506000613541848285016135f6565b600083015250602061355584828501613419565b6020830152506040613569848285016135f6565b604083015250606082015167ffffffffffffffff81111561358957600080fd5b613595848285016134eb565b606083015250608082015167ffffffffffffffff8111156135b557600080fd5b6135c1848285016134eb565b60808301525060a06135d5848285016135f6565b60a08301525092915050565b6000813590506135f081614db3565b92915050565b60008151905061360581614db3565b92915050565b60006020828403121561361d57600080fd5b600061362b84828501613404565b91505092915050565b60008060006060848603121561364957600080fd5b60006136578682870161342e565b935050602084013567ffffffffffffffff81111561367457600080fd5b613680868287016134c1565b925050604084013567ffffffffffffffff81111561369d57600080fd5b6136a9868287016134c1565b9150509250925092565b600080604083850312156136c657600080fd5b60006136d485828601613404565b92505060206136e585828601613404565b9150509250929050565b60008060006060848603121561370457600080fd5b600061371286828701613404565b935050602061372386828701613404565b9250506040613734868287016135e1565b9150509250925092565b6000806000806080858703121561375457600080fd5b600061376287828801613404565b945050602061377387828801613404565b9350506040613784878288016135e1565b925050606085013567ffffffffffffffff8111156137a157600080fd5b6137ad87828801613497565b91505092959194509250565b600080604083850312156137cc57600080fd5b60006137da85828601613404565b92505060206137eb8582860161346d565b9150509250929050565b6000806040838503121561380857600080fd5b600061381685828601613404565b9250506020613827858286016135e1565b9150509250929050565b60006020828403121561384357600080fd5b600082015167ffffffffffffffff81111561385d57600080fd5b61386984828501613443565b91505092915050565b60006020828403121561388457600080fd5b600061389284828501613482565b91505092915050565b6000602082840312156138ad57600080fd5b600082013567ffffffffffffffff8111156138c757600080fd5b6138d3848285016134c1565b91505092915050565b6000602082840312156138ee57600080fd5b60006138fc848285016135e1565b91505092915050565b60006139118383613d92565b905092915050565b6139228161458b565b82525050565b61393181614579565b82525050565b61394081614579565b82525050565b600061395182614403565b61395b8185614426565b93508360208202850161396d856143f3565b8060005b858110156139a9578484038952815161398a8582613905565b945061399583614419565b925060208a01995050600181019050613971565b50829750879550505050505092915050565b6139c48161459d565b82525050565b60006139d58261440e565b6139df8185614437565b93506139ef81856020860161460e565b6139f8816147a9565b840191505092915050565b6000613a0e8261440e565b613a188185614448565b9350613a2881856020860161460e565b613a31816147a9565b840191505092915050565b6000613a478261440e565b613a518185614459565b9350613a6181856020860161460e565b80840191505092915050565b6000613a7a602d83614448565b9150613a85826147ba565b604082019050919050565b6000613a9d602683614448565b9150613aa882614809565b604082019050919050565b6000613ac0602583614448565b9150613acb82614858565b604082019050919050565b6000613ae3601c83614448565b9150613aee826148a7565b602082019050919050565b6000613b06602483614448565b9150613b11826148d0565b604082019050919050565b6000613b29601983614448565b9150613b348261491f565b602082019050919050565b6000613b4c602683614448565b9150613b5782614948565b604082019050919050565b6000613b6f601483614448565b9150613b7a82614997565b602082019050919050565b6000613b92602c83614448565b9150613b9d826149c0565b604082019050919050565b6000613bb5601883614448565b9150613bc082614a0f565b602082019050919050565b6000613bd8603883614448565b9150613be382614a38565b604082019050919050565b6000613bfb602a83614448565b9150613c0682614a87565b604082019050919050565b6000613c1e602983614448565b9150613c2982614ad6565b604082019050919050565b6000613c41603283614448565b9150613c4c82614b25565b604082019050919050565b6000613c64602083614448565b9150613c6f82614b74565b602082019050919050565b6000613c87602c83614448565b9150613c9282614b9d565b604082019050919050565b6000613caa602083614448565b9150613cb582614bec565b602082019050919050565b6000613ccd601283614448565b9150613cd882614c15565b602082019050919050565b6000613cf0602083614448565b9150613cfb82614c3e565b602082019050919050565b6000613d13602183614448565b9150613d1e82614c67565b604082019050919050565b6000613d36601683614448565b9150613d4182614cb6565b602082019050919050565b6000613d59602d83614448565b9150613d6482614cdf565b604082019050919050565b6000613d7c602083614448565b9150613d8782614d2e565b602082019050919050565b600060c083016000830151613daa6000860182613eb2565b506020830151613dbd6020860182613928565b506040830151613dd06040860182613eb2565b5060608301518482036060860152613de882826139ca565b91505060808301518482036080860152613e0282826139ca565b91505060a0830151613e1760a0860182613eb2565b508091505092915050565b600060c083016000830151613e3a6000860182613eb2565b506020830151613e4d6020860182613928565b506040830151613e606040860182613eb2565b5060608301518482036060860152613e7882826139ca565b91505060808301518482036080860152613e9282826139ca565b91505060a0830151613ea760a0860182613eb2565b508091505092915050565b613ebb816145f5565b82525050565b613eca816145f5565b82525050565b6000613edc8284613a3c565b915081905092915050565b6000602082019050613efc6000830184613937565b92915050565b60006020820190508181036000830152613f1c8184613946565b905092915050565b6000602082019050613f3960008301846139bb565b92915050565b60006020820190508181036000830152613f598184613a03565b905092915050565b60006080820190508181036000830152613f7b8187613a03565b9050613f8a6020830186613919565b613f976040830185613ec1565b8181036060830152613fa98184613a03565b905095945050505050565b60006020820190508181036000830152613fcd81613a6d565b9050919050565b60006020820190508181036000830152613fed81613a90565b9050919050565b6000602082019050818103600083015261400d81613ab3565b9050919050565b6000602082019050818103600083015261402d81613ad6565b9050919050565b6000602082019050818103600083015261404d81613af9565b9050919050565b6000602082019050818103600083015261406d81613b1c565b9050919050565b6000602082019050818103600083015261408d81613b3f565b9050919050565b600060208201905081810360008301526140ad81613b62565b9050919050565b600060208201905081810360008301526140cd81613b85565b9050919050565b600060208201905081810360008301526140ed81613ba8565b9050919050565b6000602082019050818103600083015261410d81613bcb565b9050919050565b6000602082019050818103600083015261412d81613bee565b9050919050565b6000602082019050818103600083015261414d81613c11565b9050919050565b6000602082019050818103600083015261416d81613c34565b9050919050565b6000602082019050818103600083015261418d81613c57565b9050919050565b600060208201905081810360008301526141ad81613c7a565b9050919050565b600060208201905081810360008301526141cd81613c9d565b9050919050565b600060208201905081810360008301526141ed81613cc0565b9050919050565b6000602082019050818103600083015261420d81613ce3565b9050919050565b6000602082019050818103600083015261422d81613d06565b9050919050565b6000602082019050818103600083015261424d81613d29565b9050919050565b6000602082019050818103600083015261426d81613d4c565b9050919050565b6000602082019050818103600083015261428d81613d6f565b9050919050565b600060208201905081810360008301526142ae8184613e22565b905092915050565b60006020820190506142cb6000830184613ec1565b92915050565b600060c0820190506142e66000830189613ec1565b6142f36020830188613937565b6143006040830187613ec1565b81810360608301526143128186613a03565b905081810360808301526143268185613a03565b905061433560a0830184613ec1565b979650505050505050565b600061434a61435b565b90506143568282614673565b919050565b6000604051905090565b600067ffffffffffffffff8211156143805761437f61477a565b5b602082029050602081019050919050565b600067ffffffffffffffff8211156143ac576143ab61477a565b5b6143b5826147a9565b9050602081019050919050565b600067ffffffffffffffff8211156143dd576143dc61477a565b5b6143e6826147a9565b9050602081019050919050565b6000819050602082019050919050565b600081519050919050565b600081519050919050565b6000602082019050919050565b600082825260208201905092915050565b600082825260208201905092915050565b600082825260208201905092915050565b600081905092915050565b600061446f826145f5565b915061447a836145f5565b9250827fffffffffffffffffffffffffffffffffffffffffffffffffffffffffffffffff038211156144af576144ae6146ed565b5b828201905092915050565b60006144c5826145f5565b91506144d0836145f5565b9250826144e0576144df61471c565b5b828204905092915050565b60006144f6826145f5565b9150614501836145f5565b9250817fffffffffffffffffffffffffffffffffffffffffffffffffffffffffffffffff048311821515161561453a576145396146ed565b5b828202905092915050565b6000614550826145f5565b915061455b836145f5565b92508282101561456e5761456d6146ed565b5b828203905092915050565b6000614584826145d5565b9050919050565b6000614596826145d5565b9050919050565b60008115159050919050565b60007fffffffff0000000000000000000000000000000000000000000000000000000082169050919050565b600073ffffffffffffffffffffffffffffffffffffffff82169050919050565b6000819050919050565b82818337600083830152505050565b60005b8381101561462c578082015181840152602081019050614611565b8381111561463b576000848401525b50505050565b6000600282049050600182168061465957607f821691505b6020821081141561466d5761466c61474b565b5b50919050565b61467c826147a9565b810181811067ffffffffffffffff8211171561469b5761469a61477a565b5b80604052505050565b60006146af826145f5565b91507fffffffffffffffffffffffffffffffffffffffffffffffffffffffffffffffff8214156146e2576146e16146ed565b5b600182019050919050565b7f4e487b7100000000000000000000000000000000000000000000000000000000600052601160045260246000fd5b7f4e487b7100000000000000000000000000000000000000000000000000000000600052601260045260246000fd5b7f4e487b7100000000000000000000000000000000000000000000000000000000600052602260045260246000fd5b7f4e487b7100000000000000000000000000000000000000000000000000000000600052604160045260246000fd5b6000601f19601f8301169050919050565b7f4120746f6b656e2068617320616c7265616479206265656e206d696e7465642060008201527f7769746820746869732055524900000000000000000000000000000000000000602082015250565b7f4f776e61626c653a206e6577206f776e657220697320746865207a65726f206160008201527f6464726573730000000000000000000000000000000000000000000000000000602082015250565b7f4552433732313a207472616e736665722066726f6d20696e636f72726563742060008201527f6f776e6572000000000000000000000000000000000000000000000000000000602082015250565b7f4552433732313a20746f6b656e20616c7265616479206d696e74656400000000600082015250565b7f4552433732313a207472616e7366657220746f20746865207a65726f2061646460008201527f7265737300000000000000000000000000000000000000000000000000000000602082015250565b7f4552433732313a20617070726f766520746f2063616c6c657200000000000000600082015250565b7f4d6574686f64206d6179206f6e6c792062652063616c6c65642062792074686560008201527f206f776e65720000000000000000000000000000000000000000000000000000602082015250565b7f546f6b656e20646f6573206e6f74206578697374000000000000000000000000600082015250565b7f4552433732313a206f70657261746f7220717565727920666f72206e6f6e657860008201527f697374656e7420746f6b656e0000000000000000000000000000000000000000602082015250565b7f427579657220616c7265616479206f776e7320746f6b656e0000000000000000600082015250565b7f4552433732313a20617070726f76652063616c6c6572206973206e6f74206f7760008201527f6e6572206e6f7220617070726f76656420666f7220616c6c0000000000000000602082015250565b7f4552433732313a2062616c616e636520717565727920666f7220746865207a6560008201527f726f206164647265737300000000000000000000000000000000000000000000602082015250565b7f4552433732313a206f776e657220717565727920666f72206e6f6e657869737460008201527f656e7420746f6b656e0000000000000000000000000000000000000000000000602082015250565b7f4120746f6b656e2068617320616c7265616479206265656e206d696e7465642060008201527f77697468207468697320736f6c7574696f6e0000000000000000000000000000602082015250565b7f4552433732313a206d696e7420746f20746865207a65726f2061646472657373600082015250565b7f4552433732313a20617070726f76656420717565727920666f72206e6f6e657860008201527f697374656e7420746f6b656e0000000000000000000000000000000000000000602082015250565b7f412076616c756520666f7220736f6c7574696f6e206973207265717569726564600082015250565b7f496e76616c696420746f20616464726573730000000000000000000000000000600082015250565b7f4f776e61626c653a2063616c6c6572206973206e6f7420746865206f776e6572600082015250565b7f4552433732313a20617070726f76616c20746f2063757272656e74206f776e6560008201527f7200000000000000000000000000000000000000000000000000000000000000602082015250565b7f546f6b656e496420646f6573206e6f7420657869737400000000000000000000600082015250565b7f496e73756666696369656e742065746865722073656e7420776974682074686960008201527f73207472616e73616374696f6e00000000000000000000000000000000000000602082015250565b7f412076616c756520666f7220746f6b656e555249206973207265717569726564600082015250565b614d6081614579565b8114614d6b57600080fd5b50565b614d778161458b565b8114614d8257600080fd5b50565b614d8e8161459d565b8114614d9957600080fd5b50565b614da5816145a9565b8114614db057600080fd5b50565b614dbc816145f5565b8114614dc757600080fd5b5056fea26469706673582212205aee7a4bc0a256f47ae4734bc01dde7990ba1b0fb9d1a7f98ad169deefbeccda64736f6c63430008010033",
  "immutableReferences": {},
  "source": "// SPDX-License-Identifier: MIT\r\npragma solidity >=0.4.22 <0.9.0;\r\nimport \"@openzeppelin/contracts/token/ERC721/ERC721.sol\";\r\nimport \"@openzeppelin/contracts/access/Ownable.sol\";\r\n\r\ncontract EthordleToken is ERC721, Ownable {\r\n    \r\nusing Strings for uint256;\r\n    \r\n    struct Token {\r\n        uint256 id;        \r\n        address owner;\r\n        uint256 price;\r\n        string url;\r\n        string solution;\r\n        uint256 transactionCount;        \r\n    }\r\n\r\n    mapping (uint256 => Token) public _tokens;\r\n    mapping (string => address) private _solutionOwners;\r\n    mapping (string => address) private _tokenURIOwners;\r\n\r\n    address private _owner;\r\n    uint256 private _initialPrice;\r\n    uint256 private _royaltyRate;\r\n    uint256 private _priceEscalationRate;\r\n    uint256 private _currentTokenId;\r\n    string private _baseURIextended;\r\n\r\n    event TokenMinted (\r\n        string solution,\r\n        address payable account,\r\n        uint256 tokenId,\r\n        string metadataURI\r\n    );\r\n\r\n    constructor(string memory _name, string memory _symbol, uint256 initialPrice_, uint256 royaltyRate_, uint256 priceEscalationRate_) ERC721(_name, _symbol) {\r\n        _owner = msg.sender;\r\n        _currentTokenId = 0;\r\n        _initialPrice = initialPrice_;\r\n        _royaltyRate = royaltyRate_;\r\n        _priceEscalationRate = priceEscalationRate_;\r\n    }\r\n    \r\n    function setInitialPrice(uint256 initialPrice_) external onlyOwner() {\r\n        _initialPrice = initialPrice_;\r\n    }\r\n\r\n    function initialPrice() external view returns (uint256) {\r\n        return _initialPrice;\r\n    }\r\n\r\n    function setRoyaltyRate(uint256 royaltyRate_) external onlyOwner() {\r\n        _royaltyRate = royaltyRate_;   \r\n    }\r\n\r\n    function royaltyRate() external view returns (uint256) {\r\n        return _royaltyRate;\r\n    }\r\n\r\n    function setPriceEscalationRate(uint256 priceEscalationRate_) external onlyOwner() {\r\n        _priceEscalationRate = priceEscalationRate_;\r\n    }\r\n\r\n    function priceEscalationRate() external view returns (uint256) {\r\n        return _priceEscalationRate;\r\n    }\r\n\r\n    function tokenCount() external view returns (uint256) {\r\n        return _currentTokenId;\r\n    }\r\n\r\n    function tokenById(uint256 tokenId) external view returns(Token memory) {\r\n        require(_exists(tokenId), 'TokenId does not exist');  \r\n\r\n        Token memory token = _tokens[tokenId];\r\n        require(_exists(tokenId), 'Token does not exist');   \r\n\r\n        return token;\r\n    }\r\n\r\n    function tokensOfOwner(address _from) external view returns(Token[] memory) {\r\n        uint256 ownerCount = balanceOf(_from);\r\n        uint256 ownerIndex = 0;\r\n        Token[] memory ownerTokens = new Token[](ownerCount);\r\n\r\n        if (ownerCount > 0) {\r\n            Token[] memory allTokens = this.tokens();\r\n            \r\n            for (uint256 i = 0; i < _currentTokenId; i++) {\r\n                if (allTokens[i].owner == _from) {\r\n                    ownerTokens[ownerIndex] = allTokens[i];\r\n                    ownerIndex++;\r\n                }\r\n            }\r\n        }\r\n\r\n        return ownerTokens;\r\n    }\r\n\r\n    function tokens() external view returns(Token[] memory) {  \r\n        Token[] memory allTokens = new Token[](_currentTokenId);\r\n\r\n        for (uint256 i = 0; i < _currentTokenId; i++) {\r\n            allTokens[i] = _tokens[i];\r\n        }\r\n\r\n        return allTokens;\r\n    }\r\n    \r\n    function setBaseURI(string memory baseURI) external onlyOwner() {\r\n        _baseURIextended = baseURI;\r\n    }\r\n    \r\n    function _baseURI() internal view virtual override returns (string memory) {\r\n        return _baseURIextended;\r\n    }\r\n    \r\n    function isSolutionUnique(string memory solution_) public view returns (bool) {\r\n        return _solutionOwners[solution_] == address(0x0);\r\n    }\r\n\r\n    function tokenURI(uint256 tokenId) public view virtual override returns (string memory) {\r\n        require(_exists(tokenId), 'TokenId does not exist');\r\n\r\n        return _tokens[tokenId].url;\r\n    }\r\n\r\n    function mint(\r\n        address payable to,\r\n        string memory solution_,\r\n        string memory tokenURI_\r\n    ) external payable {  \r\n        require(msg.sender == to || msg.sender == _owner, 'Invalid to address');      \r\n        require(msg.value >= _initialPrice, 'Insufficient ether sent with this transaction'); \r\n        require(_solutionOwners[solution_] == address(0x0), 'A token has already been minted with this solution');\r\n        require(_tokenURIOwners[tokenURI_] == address(0x0), 'A token has already been minted with this URI');\r\n        require(bytes(solution_).length >= 5, 'A value for solution is required');\r\n        require(bytes(tokenURI_).length >= 28, 'A value for tokenURI is required'); // https://ipfs.infura.io/ipfs/\r\n\r\n        payable(owner()).transfer(msg.value);\r\n\r\n        _mint(to, _currentTokenId);\r\n\r\n        uint256 newPrice =_getEscalatedPrice(msg.value);\r\n\r\n        Token memory token = Token(_currentTokenId, to, newPrice, tokenURI_, solution_, 1);\r\n       \r\n        _tokens[_currentTokenId] = token;\r\n        _solutionOwners[solution_] = to;\r\n        _tokenURIOwners[tokenURI_] = to;\r\n        _currentTokenId++;        \r\n        \r\n        emit TokenMinted(solution_, to, _currentTokenId, tokenURI_);\r\n    }\r\n\r\n    function buy(\r\n        address to,\r\n        uint256 tokenId\r\n    ) external payable {        \r\n        require(_exists(tokenId), 'TokenId does not exist');   \r\n        require(msg.sender == to, 'Buyer already owns token');\r\n        require(!_isApprovedOrOwner(_msgSender(), tokenId), \"Buyer already owns token\");   \r\n\r\n        Token memory token = _tokens[tokenId];\r\n        require(_exists(token.id), 'Token does not exist');        \r\n        require(msg.value >= token.price, 'Insufficient ether sent with this transaction');\r\n       \r\n        string memory solution_ = token.solution;\r\n        string memory tokenURI_ = token.url;\r\n\r\n        address from = token.owner;\r\n        uint256 totalRoyalty = _getRoyalty(msg.value); \r\n        uint256 remainder = msg.value - totalRoyalty;\r\n\r\n        payable(owner()).transfer(totalRoyalty);\r\n        payable(address(from)).transfer(remainder);\r\n\r\n        _transfer(from, to, tokenId);\r\n\r\n        _solutionOwners[solution_] = to;\r\n        _tokenURIOwners[tokenURI_] = to;\r\n\r\n        uint256 newPrice = _getEscalatedPrice(msg.value);\r\n\r\n        token.owner = to;\r\n        token.price = newPrice;\r\n        token.transactionCount++;       \r\n\r\n        _tokens[tokenId] = token; \r\n    }\r\n  \r\n    function _getRoyalty(uint256 value) private view returns (uint256) {\r\n        return value * _royaltyRate / 10000 ;  // todo need safe multiply    \r\n    }\r\n\r\n    function _getEscalatedPrice(uint256 value) private view returns (uint256) {\r\n        uint256 divisor = 10**15;\r\n        uint256 newPrice = value * _priceEscalationRate / 10000 ;  // todo need safe multiply    \r\n        \r\n        return (newPrice / divisor) * divisor;  // round off new price to nearest 1E15\r\n    }\r\n  \r\n    // todo how to prevent base _transfer from being called directly\r\n\r\n    function transferFrom(\r\n        address /*from*/,\r\n        address /*to*/,\r\n        uint256 /*tokenId*/\r\n    ) public view override {\r\n        require(msg.sender == _owner, 'Method may only be called by the owner');\r\n    }\r\n\r\n    function safeTransferFrom(\r\n        address /*from*/,\r\n        address /*to*/,\r\n        uint256 /*tokenId*/\r\n    ) public view override {\r\n        require(msg.sender == _owner, 'Method may only be called by the owner');\r\n    }\r\n\r\n    function safeTransferFrom(\r\n        address /*from*/,\r\n        address /*to*/,\r\n        uint256 /*tokenId*/,\r\n        bytes memory /*_data*/\r\n    ) public view override {\r\n        require(msg.sender == _owner, 'Method may only be called by the owner');\r\n    }\r\n}",
  "sourcePath": "C:\\Dev\\Github\\ethordle\\contracts\\EthordleToken.sol",
  "compiler": {
    "name": "solc",
    "version": "0.8.1+commit.df193b15.Emscripten.clang"
  },
  "schemaVersion": "3.4.6",
  "updatedAt": "2022-04-24T22:09:16.671Z",
  "networkType": "ethereum",
  "devdoc": {
    "kind": "dev",
    "methods": {
      "approve(address,uint256)": {
        "details": "See {IERC721-approve}."
      },
      "balanceOf(address)": {
        "details": "See {IERC721-balanceOf}."
      },
      "getApproved(uint256)": {
        "details": "See {IERC721-getApproved}."
      },
      "isApprovedForAll(address,address)": {
        "details": "See {IERC721-isApprovedForAll}."
      },
      "name()": {
        "details": "See {IERC721Metadata-name}."
      },
      "owner()": {
        "details": "Returns the address of the current owner."
      },
      "ownerOf(uint256)": {
        "details": "See {IERC721-ownerOf}."
      },
      "renounceOwnership()": {
        "details": "Leaves the contract without owner. It will not be possible to call `onlyOwner` functions anymore. Can only be called by the current owner. NOTE: Renouncing ownership will leave the contract without an owner, thereby removing any functionality that is only available to the owner."
      },
      "setApprovalForAll(address,bool)": {
        "details": "See {IERC721-setApprovalForAll}."
      },
      "supportsInterface(bytes4)": {
        "details": "See {IERC165-supportsInterface}."
      },
      "symbol()": {
        "details": "See {IERC721Metadata-symbol}."
      },
      "tokenURI(uint256)": {
        "details": "See {IERC721Metadata-tokenURI}."
      },
      "transferOwnership(address)": {
        "details": "Transfers ownership of the contract to a new account (`newOwner`). Can only be called by the current owner."
      }
    },
    "version": 1
  },
  "userdoc": {
    "kind": "user",
    "methods": {},
    "version": 1
  }
}