{
  "contractName": "EthordleToken",
  "abi": [
    {
      "inputs": [
        {
          "internalType": "string",
          "name": "_name",
          "type": "string"
        },
        {
          "internalType": "string",
          "name": "_symbol",
          "type": "string"
        }
      ],
      "stateMutability": "nonpayable",
      "type": "constructor"
    },
    {
      "anonymous": false,
      "inputs": [
        {
          "indexed": true,
          "internalType": "address",
          "name": "owner",
          "type": "address"
        },
        {
          "indexed": true,
          "internalType": "address",
          "name": "approved",
          "type": "address"
        },
        {
          "indexed": true,
          "internalType": "uint256",
          "name": "tokenId",
          "type": "uint256"
        }
      ],
      "name": "Approval",
      "type": "event"
    },
    {
      "anonymous": false,
      "inputs": [
        {
          "indexed": true,
          "internalType": "address",
          "name": "owner",
          "type": "address"
        },
        {
          "indexed": true,
          "internalType": "address",
          "name": "operator",
          "type": "address"
        },
        {
          "indexed": false,
          "internalType": "bool",
          "name": "approved",
          "type": "bool"
        }
      ],
      "name": "ApprovalForAll",
      "type": "event"
    },
    {
      "anonymous": false,
      "inputs": [
        {
          "indexed": true,
          "internalType": "address",
          "name": "previousOwner",
          "type": "address"
        },
        {
          "indexed": true,
          "internalType": "address",
          "name": "newOwner",
          "type": "address"
        }
      ],
      "name": "OwnershipTransferred",
      "type": "event"
    },
    {
      "anonymous": false,
      "inputs": [
        {
          "indexed": true,
          "internalType": "address",
          "name": "from",
          "type": "address"
        },
        {
          "indexed": true,
          "internalType": "address",
          "name": "to",
          "type": "address"
        },
        {
          "indexed": true,
          "internalType": "uint256",
          "name": "tokenId",
          "type": "uint256"
        }
      ],
      "name": "Transfer",
      "type": "event"
    },
    {
      "inputs": [
        {
          "internalType": "address",
          "name": "to",
          "type": "address"
        },
        {
          "internalType": "uint256",
          "name": "tokenId",
          "type": "uint256"
        }
      ],
      "name": "approve",
      "outputs": [],
      "stateMutability": "nonpayable",
      "type": "function"
    },
    {
      "inputs": [
        {
          "internalType": "address",
          "name": "owner",
          "type": "address"
        }
      ],
      "name": "balanceOf",
      "outputs": [
        {
          "internalType": "uint256",
          "name": "",
          "type": "uint256"
        }
      ],
      "stateMutability": "view",
      "type": "function",
      "constant": true
    },
    {
      "inputs": [
        {
          "internalType": "uint256",
          "name": "tokenId",
          "type": "uint256"
        }
      ],
      "name": "getApproved",
      "outputs": [
        {
          "internalType": "address",
          "name": "",
          "type": "address"
        }
      ],
      "stateMutability": "view",
      "type": "function",
      "constant": true
    },
    {
      "inputs": [
        {
          "internalType": "address",
          "name": "owner",
          "type": "address"
        },
        {
          "internalType": "address",
          "name": "operator",
          "type": "address"
        }
      ],
      "name": "isApprovedForAll",
      "outputs": [
        {
          "internalType": "bool",
          "name": "",
          "type": "bool"
        }
      ],
      "stateMutability": "view",
      "type": "function",
      "constant": true
    },
    {
      "inputs": [],
      "name": "name",
      "outputs": [
        {
          "internalType": "string",
          "name": "",
          "type": "string"
        }
      ],
      "stateMutability": "view",
      "type": "function",
      "constant": true
    },
    {
      "inputs": [],
      "name": "owner",
      "outputs": [
        {
          "internalType": "address",
          "name": "",
          "type": "address"
        }
      ],
      "stateMutability": "view",
      "type": "function",
      "constant": true
    },
    {
      "inputs": [
        {
          "internalType": "uint256",
          "name": "tokenId",
          "type": "uint256"
        }
      ],
      "name": "ownerOf",
      "outputs": [
        {
          "internalType": "address",
          "name": "",
          "type": "address"
        }
      ],
      "stateMutability": "view",
      "type": "function",
      "constant": true
    },
    {
      "inputs": [],
      "name": "renounceOwnership",
      "outputs": [],
      "stateMutability": "nonpayable",
      "type": "function"
    },
    {
      "inputs": [
        {
          "internalType": "address",
          "name": "from",
          "type": "address"
        },
        {
          "internalType": "address",
          "name": "to",
          "type": "address"
        },
        {
          "internalType": "uint256",
          "name": "tokenId",
          "type": "uint256"
        }
      ],
      "name": "safeTransferFrom",
      "outputs": [],
      "stateMutability": "nonpayable",
      "type": "function"
    },
    {
      "inputs": [
        {
          "internalType": "address",
          "name": "from",
          "type": "address"
        },
        {
          "internalType": "address",
          "name": "to",
          "type": "address"
        },
        {
          "internalType": "uint256",
          "name": "tokenId",
          "type": "uint256"
        },
        {
          "internalType": "bytes",
          "name": "_data",
          "type": "bytes"
        }
      ],
      "name": "safeTransferFrom",
      "outputs": [],
      "stateMutability": "nonpayable",
      "type": "function"
    },
    {
      "inputs": [
        {
          "internalType": "address",
          "name": "operator",
          "type": "address"
        },
        {
          "internalType": "bool",
          "name": "approved",
          "type": "bool"
        }
      ],
      "name": "setApprovalForAll",
      "outputs": [],
      "stateMutability": "nonpayable",
      "type": "function"
    },
    {
      "inputs": [
        {
          "internalType": "bytes4",
          "name": "interfaceId",
          "type": "bytes4"
        }
      ],
      "name": "supportsInterface",
      "outputs": [
        {
          "internalType": "bool",
          "name": "",
          "type": "bool"
        }
      ],
      "stateMutability": "view",
      "type": "function",
      "constant": true
    },
    {
      "inputs": [],
      "name": "symbol",
      "outputs": [
        {
          "internalType": "string",
          "name": "",
          "type": "string"
        }
      ],
      "stateMutability": "view",
      "type": "function",
      "constant": true
    },
    {
      "inputs": [
        {
          "internalType": "address",
          "name": "from",
          "type": "address"
        },
        {
          "internalType": "address",
          "name": "to",
          "type": "address"
        },
        {
          "internalType": "uint256",
          "name": "tokenId",
          "type": "uint256"
        }
      ],
      "name": "transferFrom",
      "outputs": [],
      "stateMutability": "nonpayable",
      "type": "function"
    },
    {
      "inputs": [
        {
          "internalType": "address",
          "name": "newOwner",
          "type": "address"
        }
      ],
      "name": "transferOwnership",
      "outputs": [],
      "stateMutability": "nonpayable",
      "type": "function"
    },
    {
      "inputs": [],
      "name": "getMintedTokenCount",
      "outputs": [
        {
          "internalType": "uint256",
          "name": "",
          "type": "uint256"
        }
      ],
      "stateMutability": "view",
      "type": "function",
      "constant": true
    },
    {
      "inputs": [
        {
          "internalType": "string",
          "name": "baseURI_",
          "type": "string"
        }
      ],
      "name": "setBaseURI",
      "outputs": [],
      "stateMutability": "nonpayable",
      "type": "function"
    },
    {
      "inputs": [
        {
          "internalType": "uint256",
          "name": "tokenId",
          "type": "uint256"
        }
      ],
      "name": "tokenURI",
      "outputs": [
        {
          "internalType": "string",
          "name": "",
          "type": "string"
        }
      ],
      "stateMutability": "view",
      "type": "function",
      "constant": true
    },
    {
      "inputs": [
        {
          "internalType": "address",
          "name": "_to",
          "type": "address"
        },
        {
          "internalType": "string",
          "name": "_solution",
          "type": "string"
        },
        {
          "internalType": "string",
          "name": "_tokenURI",
          "type": "string"
        }
      ],
      "name": "mint",
      "outputs": [],
      "stateMutability": "nonpayable",
      "type": "function"
    }
  ],
  "bytecode": "0x60806040523480156200001157600080fd5b50604051620034ed380380620034ed83398181016040528101906200003791906200028d565b81818160009080519060200190620000519291906200016b565b5080600190805190602001906200006a9291906200016b565b5050506200008d620000816200009d60201b60201c565b620000a560201b60201c565b6000600881905550505062000470565b600033905090565b6000600660009054906101000a900473ffffffffffffffffffffffffffffffffffffffff16905081600660006101000a81548173ffffffffffffffffffffffffffffffffffffffff021916908373ffffffffffffffffffffffffffffffffffffffff1602179055508173ffffffffffffffffffffffffffffffffffffffff168173ffffffffffffffffffffffffffffffffffffffff167f8be0079c531659141344cd1fd0a4f28419497f9722a3daafe3b4186f6b6457e060405160405180910390a35050565b828054620001799062000395565b90600052602060002090601f0160209004810192826200019d5760008555620001e9565b82601f10620001b857805160ff1916838001178555620001e9565b82800160010185558215620001e9579182015b82811115620001e8578251825591602001919060010190620001cb565b5b509050620001f89190620001fc565b5090565b5b8082111562000217576000816000905550600101620001fd565b5090565b6000620002326200022c8462000329565b62000300565b9050828152602081018484840111156200024b57600080fd5b620002588482856200035f565b509392505050565b600082601f8301126200027257600080fd5b8151620002848482602086016200021b565b91505092915050565b60008060408385031215620002a157600080fd5b600083015167ffffffffffffffff811115620002bc57600080fd5b620002ca8582860162000260565b925050602083015167ffffffffffffffff811115620002e857600080fd5b620002f68582860162000260565b9150509250929050565b60006200030c6200031f565b90506200031a8282620003cb565b919050565b6000604051905090565b600067ffffffffffffffff82111562000347576200034662000430565b5b62000352826200045f565b9050602081019050919050565b60005b838110156200037f57808201518184015260208101905062000362565b838111156200038f576000848401525b50505050565b60006002820490506001821680620003ae57607f821691505b60208210811415620003c557620003c462000401565b5b50919050565b620003d6826200045f565b810181811067ffffffffffffffff82111715620003f857620003f762000430565b5b80604052505050565b7f4e487b7100000000000000000000000000000000000000000000000000000000600052602260045260246000fd5b7f4e487b7100000000000000000000000000000000000000000000000000000000600052604160045260246000fd5b6000601f19601f8301169050919050565b61306d80620004806000396000f3fe608060405234801561001057600080fd5b50600436106101215760003560e01c8063715018a6116100ad578063a22cb46511610071578063a22cb465146102f4578063b88d4fde14610310578063c87b56dd1461032c578063e985e9c51461035c578063f2fde38b1461038c57610121565b8063715018a6146102745780638671bc8b1461027e5780638da5cb5b1461029c57806395d89b41146102ba57806399071190146102d857610121565b806323b872dd116100f457806323b872dd146101c057806342842e0e146101dc57806355f804b3146101f85780636352211e1461021457806370a082311461024457610121565b806301ffc9a71461012657806306fdde0314610156578063081812fc14610174578063095ea7b3146101a4575b600080fd5b610140600480360381019061013b919061206d565b6103a8565b60405161014d91906124d7565b60405180910390f35b61015e61048a565b60405161016b91906124f2565b60405180910390f35b61018e60048036038101906101899190612100565b61051c565b60405161019b9190612470565b60405180910390f35b6101be60048036038101906101b99190612031565b6105a1565b005b6101da60048036038101906101d59190611eac565b6106b9565b005b6101f660048036038101906101f19190611eac565b610719565b005b610212600480360381019061020d91906120bf565b610739565b005b61022e60048036038101906102299190612100565b6107cf565b60405161023b9190612470565b60405180910390f35b61025e60048036038101906102599190611e47565b610881565b60405161026b9190612734565b60405180910390f35b61027c610939565b005b6102866109c1565b6040516102939190612734565b60405180910390f35b6102a46109cb565b6040516102b19190612470565b60405180910390f35b6102c26109f5565b6040516102cf91906124f2565b60405180910390f35b6102f260048036038101906102ed9190611fb2565b610a87565b005b61030e60048036038101906103099190611f76565b610b38565b005b61032a60048036038101906103259190611efb565b610b4e565b005b61034660048036038101906103419190612100565b610bb0565b60405161035391906124f2565b60405180910390f35b61037660048036038101906103719190611e70565b610d23565b60405161038391906124d7565b60405180910390f35b6103a660048036038101906103a19190611e47565b610db7565b005b60007f80ac58cd000000000000000000000000000000000000000000000000000000007bffffffffffffffffffffffffffffffffffffffffffffffffffffffff1916827bffffffffffffffffffffffffffffffffffffffffffffffffffffffff1916148061047357507f5b5e139f000000000000000000000000000000000000000000000000000000007bffffffffffffffffffffffffffffffffffffffffffffffffffffffff1916827bffffffffffffffffffffffffffffffffffffffffffffffffffffffff1916145b80610483575061048282610eaf565b5b9050919050565b6060600080546104999061298a565b80601f01602080910402602001604051908101604052809291908181526020018280546104c59061298a565b80156105125780601f106104e757610100808354040283529160200191610512565b820191906000526020600020905b8154815290600101906020018083116104f557829003601f168201915b5050505050905090565b600061052782610f19565b610566576040517f08c379a000000000000000000000000000000000000000000000000000000000815260040161055d90612674565b60405180910390fd5b6004600083815260200190815260200160002060009054906101000a900473ffffffffffffffffffffffffffffffffffffffff169050919050565b60006105ac826107cf565b90508073ffffffffffffffffffffffffffffffffffffffff168373ffffffffffffffffffffffffffffffffffffffff16141561061d576040517f08c379a0000000000000000000000000000000000000000000000000000000008152600401610614906126f4565b60405180910390fd5b8073ffffffffffffffffffffffffffffffffffffffff1661063c610f85565b73ffffffffffffffffffffffffffffffffffffffff16148061066b575061066a81610665610f85565b610d23565b5b6106aa576040517f08c379a00000000000000000000000000000000000000000000000000000000081526004016106a1906125f4565b60405180910390fd5b6106b48383610f8d565b505050565b6106ca6106c4610f85565b82611046565b610709576040517f08c379a000000000000000000000000000000000000000000000000000000000815260040161070090612714565b60405180910390fd5b610714838383611124565b505050565b61073483838360405180602001604052806000815250610b4e565b505050565b610741610f85565b73ffffffffffffffffffffffffffffffffffffffff1661075f6109cb565b73ffffffffffffffffffffffffffffffffffffffff16146107b5576040517f08c379a00000000000000000000000000000000000000000000000000000000081526004016107ac906126b4565b60405180910390fd5b80600990805190602001906107cb929190611c6b565b5050565b6000806002600084815260200190815260200160002060009054906101000a900473ffffffffffffffffffffffffffffffffffffffff169050600073ffffffffffffffffffffffffffffffffffffffff168173ffffffffffffffffffffffffffffffffffffffff161415610878576040517f08c379a000000000000000000000000000000000000000000000000000000000815260040161086f90612634565b60405180910390fd5b80915050919050565b60008073ffffffffffffffffffffffffffffffffffffffff168273ffffffffffffffffffffffffffffffffffffffff1614156108f2576040517f08c379a00000000000000000000000000000000000000000000000000000000081526004016108e990612614565b60405180910390fd5b600360008373ffffffffffffffffffffffffffffffffffffffff1673ffffffffffffffffffffffffffffffffffffffff168152602001908152602001600020549050919050565b610941610f85565b73ffffffffffffffffffffffffffffffffffffffff1661095f6109cb565b73ffffffffffffffffffffffffffffffffffffffff16146109b5576040517f08c379a00000000000000000000000000000000000000000000000000000000081526004016109ac906126b4565b60405180910390fd5b6109bf600061138b565b565b6000600854905090565b6000600660009054906101000a900473ffffffffffffffffffffffffffffffffffffffff16905090565b606060018054610a049061298a565b80601f0160208091040260200160405190810160405280929190818152602001828054610a309061298a565b8015610a7d5780601f10610a5257610100808354040283529160200191610a7d565b820191906000526020600020905b815481529060010190602001808311610a6057829003601f168201915b5050505050905090565b610a8f610f85565b73ffffffffffffffffffffffffffffffffffffffff16610aad6109cb565b73ffffffffffffffffffffffffffffffffffffffff1614610b03576040517f08c379a0000000000000000000000000000000000000000000000000000000008152600401610afa906126b4565b60405180910390fd5b610b0f83600854611451565b610b1b6008548261162b565b60086000815480929190610b2e906129ed565b9190505550505050565b610b4a610b43610f85565b838361169f565b5050565b610b5f610b59610f85565b83611046565b610b9e576040517f08c379a0000000000000000000000000000000000000000000000000000000008152600401610b9590612714565b60405180910390fd5b610baa8484848461180c565b50505050565b6060610bbb82610f19565b610bfa576040517f08c379a0000000000000000000000000000000000000000000000000000000008152600401610bf1906126d4565b60405180910390fd5b6000600760008481526020019081526020016000208054610c1a9061298a565b80601f0160208091040260200160405190810160405280929190818152602001828054610c469061298a565b8015610c935780601f10610c6857610100808354040283529160200191610c93565b820191906000526020600020905b815481529060010190602001808311610c7657829003601f168201915b505050505090506000610ca4611868565b9050600081511415610cba578192505050610d1e565b600082511115610cef578082604051602001610cd792919061244c565b60405160208183030381529060405292505050610d1e565b80610cf9856118fa565b604051602001610d0a92919061244c565b604051602081830303815290604052925050505b919050565b6000600560008473ffffffffffffffffffffffffffffffffffffffff1673ffffffffffffffffffffffffffffffffffffffff16815260200190815260200160002060008373ffffffffffffffffffffffffffffffffffffffff1673ffffffffffffffffffffffffffffffffffffffff16815260200190815260200160002060009054906101000a900460ff16905092915050565b610dbf610f85565b73ffffffffffffffffffffffffffffffffffffffff16610ddd6109cb565b73ffffffffffffffffffffffffffffffffffffffff1614610e33576040517f08c379a0000000000000000000000000000000000000000000000000000000008152600401610e2a906126b4565b60405180910390fd5b600073ffffffffffffffffffffffffffffffffffffffff168173ffffffffffffffffffffffffffffffffffffffff161415610ea3576040517f08c379a0000000000000000000000000000000000000000000000000000000008152600401610e9a90612534565b60405180910390fd5b610eac8161138b565b50565b60007f01ffc9a7000000000000000000000000000000000000000000000000000000007bffffffffffffffffffffffffffffffffffffffffffffffffffffffff1916827bffffffffffffffffffffffffffffffffffffffffffffffffffffffff1916149050919050565b60008073ffffffffffffffffffffffffffffffffffffffff166002600084815260200190815260200160002060009054906101000a900473ffffffffffffffffffffffffffffffffffffffff1673ffffffffffffffffffffffffffffffffffffffff1614159050919050565b600033905090565b816004600083815260200190815260200160002060006101000a81548173ffffffffffffffffffffffffffffffffffffffff021916908373ffffffffffffffffffffffffffffffffffffffff160217905550808273ffffffffffffffffffffffffffffffffffffffff16611000836107cf565b73ffffffffffffffffffffffffffffffffffffffff167f8c5be1e5ebec7d5bd14f71427d1e84f3dd0314c0f7b2291e5b200ac8c7c3b92560405160405180910390a45050565b600061105182610f19565b611090576040517f08c379a0000000000000000000000000000000000000000000000000000000008152600401611087906125d4565b60405180910390fd5b600061109b836107cf565b90508073ffffffffffffffffffffffffffffffffffffffff168473ffffffffffffffffffffffffffffffffffffffff16148061110a57508373ffffffffffffffffffffffffffffffffffffffff166110f28461051c565b73ffffffffffffffffffffffffffffffffffffffff16145b8061111b575061111a8185610d23565b5b91505092915050565b8273ffffffffffffffffffffffffffffffffffffffff16611144826107cf565b73ffffffffffffffffffffffffffffffffffffffff161461119a576040517f08c379a000000000000000000000000000000000000000000000000000000000815260040161119190612554565b60405180910390fd5b600073ffffffffffffffffffffffffffffffffffffffff168273ffffffffffffffffffffffffffffffffffffffff16141561120a576040517f08c379a000000000000000000000000000000000000000000000000000000000815260040161120190612594565b60405180910390fd5b611215838383611aa7565b611220600082610f8d565b6001600360008573ffffffffffffffffffffffffffffffffffffffff1673ffffffffffffffffffffffffffffffffffffffff168152602001908152602001600020600082825461127091906128a0565b925050819055506001600360008473ffffffffffffffffffffffffffffffffffffffff1673ffffffffffffffffffffffffffffffffffffffff16815260200190815260200160002060008282546112c79190612819565b92505081905550816002600083815260200190815260200160002060006101000a81548173ffffffffffffffffffffffffffffffffffffffff021916908373ffffffffffffffffffffffffffffffffffffffff160217905550808273ffffffffffffffffffffffffffffffffffffffff168473ffffffffffffffffffffffffffffffffffffffff167fddf252ad1be2c89b69c2b068fc378daa952ba7f163c4a11628f55a4df523b3ef60405160405180910390a4611386838383611aac565b505050565b6000600660009054906101000a900473ffffffffffffffffffffffffffffffffffffffff16905081600660006101000a81548173ffffffffffffffffffffffffffffffffffffffff021916908373ffffffffffffffffffffffffffffffffffffffff1602179055508173ffffffffffffffffffffffffffffffffffffffff168173ffffffffffffffffffffffffffffffffffffffff167f8be0079c531659141344cd1fd0a4f28419497f9722a3daafe3b4186f6b6457e060405160405180910390a35050565b600073ffffffffffffffffffffffffffffffffffffffff168273ffffffffffffffffffffffffffffffffffffffff1614156114c1576040517f08c379a00000000000000000000000000000000000000000000000000000000081526004016114b890612654565b60405180910390fd5b6114ca81610f19565b1561150a576040517f08c379a000000000000000000000000000000000000000000000000000000000815260040161150190612574565b60405180910390fd5b61151660008383611aa7565b6001600360008473ffffffffffffffffffffffffffffffffffffffff1673ffffffffffffffffffffffffffffffffffffffff16815260200190815260200160002060008282546115669190612819565b92505081905550816002600083815260200190815260200160002060006101000a81548173ffffffffffffffffffffffffffffffffffffffff021916908373ffffffffffffffffffffffffffffffffffffffff160217905550808273ffffffffffffffffffffffffffffffffffffffff16600073ffffffffffffffffffffffffffffffffffffffff167fddf252ad1be2c89b69c2b068fc378daa952ba7f163c4a11628f55a4df523b3ef60405160405180910390a461162760008383611aac565b5050565b61163482610f19565b611673576040517f08c379a000000000000000000000000000000000000000000000000000000000815260040161166a90612694565b60405180910390fd5b8060076000848152602001908152602001600020908051906020019061169a929190611c6b565b505050565b8173ffffffffffffffffffffffffffffffffffffffff168373ffffffffffffffffffffffffffffffffffffffff16141561170e576040517f08c379a0000000000000000000000000000000000000000000000000000000008152600401611705906125b4565b60405180910390fd5b80600560008573ffffffffffffffffffffffffffffffffffffffff1673ffffffffffffffffffffffffffffffffffffffff16815260200190815260200160002060008473ffffffffffffffffffffffffffffffffffffffff1673ffffffffffffffffffffffffffffffffffffffff16815260200190815260200160002060006101000a81548160ff0219169083151502179055508173ffffffffffffffffffffffffffffffffffffffff168373ffffffffffffffffffffffffffffffffffffffff167f17307eab39ab6107e8899845ad3d59bd9653f200f220920489ca2b5937696c31836040516117ff91906124d7565b60405180910390a3505050565b611817848484611124565b61182384848484611ab1565b611862576040517f08c379a000000000000000000000000000000000000000000000000000000000815260040161185990612514565b60405180910390fd5b50505050565b6060600980546118779061298a565b80601f01602080910402602001604051908101604052809291908181526020018280546118a39061298a565b80156118f05780601f106118c5576101008083540402835291602001916118f0565b820191906000526020600020905b8154815290600101906020018083116118d357829003601f168201915b5050505050905090565b60606000821415611942576040518060400160405280600181526020017f30000000000000000000000000000000000000000000000000000000000000008152509050611aa2565b600082905060005b6000821461197457808061195d906129ed565b915050600a8261196d919061286f565b915061194a565b60008167ffffffffffffffff8111156119b6577f4e487b7100000000000000000000000000000000000000000000000000000000600052604160045260246000fd5b6040519080825280601f01601f1916602001820160405280156119e85781602001600182028036833780820191505090505b5090505b60008514611a9b57600182611a0191906128a0565b9150600a85611a109190612a36565b6030611a1c9190612819565b60f81b818381518110611a58577f4e487b7100000000000000000000000000000000000000000000000000000000600052603260045260246000fd5b60200101907effffffffffffffffffffffffffffffffffffffffffffffffffffffffffffff1916908160001a905350600a85611a94919061286f565b94506119ec565b8093505050505b919050565b505050565b505050565b6000611ad28473ffffffffffffffffffffffffffffffffffffffff16611c48565b15611c3b578373ffffffffffffffffffffffffffffffffffffffff1663150b7a02611afb610f85565b8786866040518563ffffffff1660e01b8152600401611b1d949392919061248b565b602060405180830381600087803b158015611b3757600080fd5b505af1925050508015611b6857506040513d601f19601f82011682018060405250810190611b659190612096565b60015b611beb573d8060008114611b98576040519150601f19603f3d011682016040523d82523d6000602084013e611b9d565b606091505b50600081511415611be3576040517f08c379a0000000000000000000000000000000000000000000000000000000008152600401611bda90612514565b60405180910390fd5b805181602001fd5b63150b7a0260e01b7bffffffffffffffffffffffffffffffffffffffffffffffffffffffff1916817bffffffffffffffffffffffffffffffffffffffffffffffffffffffff191614915050611c40565b600190505b949350505050565b6000808273ffffffffffffffffffffffffffffffffffffffff163b119050919050565b828054611c779061298a565b90600052602060002090601f016020900481019282611c995760008555611ce0565b82601f10611cb257805160ff1916838001178555611ce0565b82800160010185558215611ce0579182015b82811115611cdf578251825591602001919060010190611cc4565b5b509050611ced9190611cf1565b5090565b5b80821115611d0a576000816000905550600101611cf2565b5090565b6000611d21611d1c84612774565b61274f565b905082815260208101848484011115611d3957600080fd5b611d44848285612948565b509392505050565b6000611d5f611d5a846127a5565b61274f565b905082815260208101848484011115611d7757600080fd5b611d82848285612948565b509392505050565b600081359050611d9981612fdb565b92915050565b600081359050611dae81612ff2565b92915050565b600081359050611dc381613009565b92915050565b600081519050611dd881613009565b92915050565b600082601f830112611def57600080fd5b8135611dff848260208601611d0e565b91505092915050565b600082601f830112611e1957600080fd5b8135611e29848260208601611d4c565b91505092915050565b600081359050611e4181613020565b92915050565b600060208284031215611e5957600080fd5b6000611e6784828501611d8a565b91505092915050565b60008060408385031215611e8357600080fd5b6000611e9185828601611d8a565b9250506020611ea285828601611d8a565b9150509250929050565b600080600060608486031215611ec157600080fd5b6000611ecf86828701611d8a565b9350506020611ee086828701611d8a565b9250506040611ef186828701611e32565b9150509250925092565b60008060008060808587031215611f1157600080fd5b6000611f1f87828801611d8a565b9450506020611f3087828801611d8a565b9350506040611f4187828801611e32565b925050606085013567ffffffffffffffff811115611f5e57600080fd5b611f6a87828801611dde565b91505092959194509250565b60008060408385031215611f8957600080fd5b6000611f9785828601611d8a565b9250506020611fa885828601611d9f565b9150509250929050565b600080600060608486031215611fc757600080fd5b6000611fd586828701611d8a565b935050602084013567ffffffffffffffff811115611ff257600080fd5b611ffe86828701611e08565b925050604084013567ffffffffffffffff81111561201b57600080fd5b61202786828701611e08565b9150509250925092565b6000806040838503121561204457600080fd5b600061205285828601611d8a565b925050602061206385828601611e32565b9150509250929050565b60006020828403121561207f57600080fd5b600061208d84828501611db4565b91505092915050565b6000602082840312156120a857600080fd5b60006120b684828501611dc9565b91505092915050565b6000602082840312156120d157600080fd5b600082013567ffffffffffffffff8111156120eb57600080fd5b6120f784828501611e08565b91505092915050565b60006020828403121561211257600080fd5b600061212084828501611e32565b91505092915050565b612132816128d4565b82525050565b612141816128e6565b82525050565b6000612152826127d6565b61215c81856127ec565b935061216c818560208601612957565b61217581612b23565b840191505092915050565b600061218b826127e1565b61219581856127fd565b93506121a5818560208601612957565b6121ae81612b23565b840191505092915050565b60006121c4826127e1565b6121ce818561280e565b93506121de818560208601612957565b80840191505092915050565b60006121f76032836127fd565b915061220282612b34565b604082019050919050565b600061221a6026836127fd565b915061222582612b83565b604082019050919050565b600061223d6025836127fd565b915061224882612bd2565b604082019050919050565b6000612260601c836127fd565b915061226b82612c21565b602082019050919050565b60006122836024836127fd565b915061228e82612c4a565b604082019050919050565b60006122a66019836127fd565b91506122b182612c99565b602082019050919050565b60006122c9602c836127fd565b91506122d482612cc2565b604082019050919050565b60006122ec6038836127fd565b91506122f782612d11565b604082019050919050565b600061230f602a836127fd565b915061231a82612d60565b604082019050919050565b60006123326029836127fd565b915061233d82612daf565b604082019050919050565b60006123556020836127fd565b915061236082612dfe565b602082019050919050565b6000612378602c836127fd565b915061238382612e27565b604082019050919050565b600061239b602c836127fd565b91506123a682612e76565b604082019050919050565b60006123be6020836127fd565b91506123c982612ec5565b602082019050919050565b60006123e1602f836127fd565b91506123ec82612eee565b604082019050919050565b60006124046021836127fd565b915061240f82612f3d565b604082019050919050565b60006124276031836127fd565b915061243282612f8c565b604082019050919050565b6124468161293e565b82525050565b600061245882856121b9565b915061246482846121b9565b91508190509392505050565b60006020820190506124856000830184612129565b92915050565b60006080820190506124a06000830187612129565b6124ad6020830186612129565b6124ba604083018561243d565b81810360608301526124cc8184612147565b905095945050505050565b60006020820190506124ec6000830184612138565b92915050565b6000602082019050818103600083015261250c8184612180565b905092915050565b6000602082019050818103600083015261252d816121ea565b9050919050565b6000602082019050818103600083015261254d8161220d565b9050919050565b6000602082019050818103600083015261256d81612230565b9050919050565b6000602082019050818103600083015261258d81612253565b9050919050565b600060208201905081810360008301526125ad81612276565b9050919050565b600060208201905081810360008301526125cd81612299565b9050919050565b600060208201905081810360008301526125ed816122bc565b9050919050565b6000602082019050818103600083015261260d816122df565b9050919050565b6000602082019050818103600083015261262d81612302565b9050919050565b6000602082019050818103600083015261264d81612325565b9050919050565b6000602082019050818103600083015261266d81612348565b9050919050565b6000602082019050818103600083015261268d8161236b565b9050919050565b600060208201905081810360008301526126ad8161238e565b9050919050565b600060208201905081810360008301526126cd816123b1565b9050919050565b600060208201905081810360008301526126ed816123d4565b9050919050565b6000602082019050818103600083015261270d816123f7565b9050919050565b6000602082019050818103600083015261272d8161241a565b9050919050565b6000602082019050612749600083018461243d565b92915050565b600061275961276a565b905061276582826129bc565b919050565b6000604051905090565b600067ffffffffffffffff82111561278f5761278e612af4565b5b61279882612b23565b9050602081019050919050565b600067ffffffffffffffff8211156127c0576127bf612af4565b5b6127c982612b23565b9050602081019050919050565b600081519050919050565b600081519050919050565b600082825260208201905092915050565b600082825260208201905092915050565b600081905092915050565b60006128248261293e565b915061282f8361293e565b9250827fffffffffffffffffffffffffffffffffffffffffffffffffffffffffffffffff0382111561286457612863612a67565b5b828201905092915050565b600061287a8261293e565b91506128858361293e565b92508261289557612894612a96565b5b828204905092915050565b60006128ab8261293e565b91506128b68361293e565b9250828210156128c9576128c8612a67565b5b828203905092915050565b60006128df8261291e565b9050919050565b60008115159050919050565b60007fffffffff0000000000000000000000000000000000000000000000000000000082169050919050565b600073ffffffffffffffffffffffffffffffffffffffff82169050919050565b6000819050919050565b82818337600083830152505050565b60005b8381101561297557808201518184015260208101905061295a565b83811115612984576000848401525b50505050565b600060028204905060018216806129a257607f821691505b602082108114156129b6576129b5612ac5565b5b50919050565b6129c582612b23565b810181811067ffffffffffffffff821117156129e4576129e3612af4565b5b80604052505050565b60006129f88261293e565b91507fffffffffffffffffffffffffffffffffffffffffffffffffffffffffffffffff821415612a2b57612a2a612a67565b5b600182019050919050565b6000612a418261293e565b9150612a4c8361293e565b925082612a5c57612a5b612a96565b5b828206905092915050565b7f4e487b7100000000000000000000000000000000000000000000000000000000600052601160045260246000fd5b7f4e487b7100000000000000000000000000000000000000000000000000000000600052601260045260246000fd5b7f4e487b7100000000000000000000000000000000000000000000000000000000600052602260045260246000fd5b7f4e487b7100000000000000000000000000000000000000000000000000000000600052604160045260246000fd5b6000601f19601f8301169050919050565b7f4552433732313a207472616e7366657220746f206e6f6e20455243373231526560008201527f63656976657220696d706c656d656e7465720000000000000000000000000000602082015250565b7f4f776e61626c653a206e6577206f776e657220697320746865207a65726f206160008201527f6464726573730000000000000000000000000000000000000000000000000000602082015250565b7f4552433732313a207472616e736665722066726f6d20696e636f72726563742060008201527f6f776e6572000000000000000000000000000000000000000000000000000000602082015250565b7f4552433732313a20746f6b656e20616c7265616479206d696e74656400000000600082015250565b7f4552433732313a207472616e7366657220746f20746865207a65726f2061646460008201527f7265737300000000000000000000000000000000000000000000000000000000602082015250565b7f4552433732313a20617070726f766520746f2063616c6c657200000000000000600082015250565b7f4552433732313a206f70657261746f7220717565727920666f72206e6f6e657860008201527f697374656e7420746f6b656e0000000000000000000000000000000000000000602082015250565b7f4552433732313a20617070726f76652063616c6c6572206973206e6f74206f7760008201527f6e6572206e6f7220617070726f76656420666f7220616c6c0000000000000000602082015250565b7f4552433732313a2062616c616e636520717565727920666f7220746865207a6560008201527f726f206164647265737300000000000000000000000000000000000000000000602082015250565b7f4552433732313a206f776e657220717565727920666f72206e6f6e657869737460008201527f656e7420746f6b656e0000000000000000000000000000000000000000000000602082015250565b7f4552433732313a206d696e7420746f20746865207a65726f2061646472657373600082015250565b7f4552433732313a20617070726f76656420717565727920666f72206e6f6e657860008201527f697374656e7420746f6b656e0000000000000000000000000000000000000000602082015250565b7f4552433732314d657461646174613a2055524920736574206f66206e6f6e657860008201527f697374656e7420746f6b656e0000000000000000000000000000000000000000602082015250565b7f4f776e61626c653a2063616c6c6572206973206e6f7420746865206f776e6572600082015250565b7f4552433732314d657461646174613a2055524920717565727920666f72206e6f60008201527f6e6578697374656e7420746f6b656e0000000000000000000000000000000000602082015250565b7f4552433732313a20617070726f76616c20746f2063757272656e74206f776e6560008201527f7200000000000000000000000000000000000000000000000000000000000000602082015250565b7f4552433732313a207472616e736665722063616c6c6572206973206e6f74206f60008201527f776e6572206e6f7220617070726f766564000000000000000000000000000000602082015250565b612fe4816128d4565b8114612fef57600080fd5b50565b612ffb816128e6565b811461300657600080fd5b50565b613012816128f2565b811461301d57600080fd5b50565b6130298161293e565b811461303457600080fd5b5056fea26469706673582212200d198904ab6894ba2adb72d4674f379105bb8c9bb6804024ba9a9c02c356205564736f6c63430008010033",
  "immutableReferences": {},
  "source": "// SPDX-License-Identifier: MIT\r\npragma solidity >=0.4.22 <0.9.0;\r\nimport \"@openzeppelin/contracts/token/ERC721/ERC721.sol\";\r\nimport \"@openzeppelin/contracts/access/Ownable.sol\";\r\n\r\ncontract EthordleToken is ERC721, Ownable {\r\n    \r\nusing Strings for uint256;\r\n    \r\n    // Optional mapping for token URIs\r\n    mapping (uint256 => string) private _tokenURIs;\r\n\r\n    // Base URI\r\n    uint256 private _currentTokenId;\r\n    string private _baseURIextended;\r\n\r\n    constructor(string memory _name, string memory _symbol) ERC721(_name, _symbol) {\r\n        _currentTokenId = 0;\r\n    }\r\n    \r\n    function getMintedTokenCount() public view returns (uint256) {\r\n        return _currentTokenId;\r\n    }\r\n     \r\n    function setBaseURI(string memory baseURI_) external onlyOwner() {\r\n        _baseURIextended = baseURI_;\r\n    }\r\n    \r\n    function _setTokenURI(uint256 tokenId, string memory _tokenURI) internal virtual {\r\n        require(_exists(tokenId), \"ERC721Metadata: URI set of nonexistent token\");\r\n        _tokenURIs[tokenId] = _tokenURI;\r\n    }\r\n    \r\n    function _baseURI() internal view virtual override returns (string memory) {\r\n        return _baseURIextended;\r\n    }\r\n    \r\n    function tokenURI(uint256 tokenId) public view virtual override returns (string memory) {\r\n        require(_exists(tokenId), \"ERC721Metadata: URI query for nonexistent token\");\r\n\r\n        string memory _tokenURI = _tokenURIs[tokenId];\r\n        string memory base = _baseURI();\r\n        \r\n        // If there is no base URI, return the token URI.\r\n        if (bytes(base).length == 0) {\r\n            return _tokenURI;\r\n        }\r\n        // If both are set, concatenate the baseURI and tokenURI (via abi.encodePacked).\r\n        if (bytes(_tokenURI).length > 0) {\r\n            return string(abi.encodePacked(base, _tokenURI));\r\n        }\r\n        // If there is a baseURI but no tokenURI, concatenate the tokenID to the baseURI.\r\n        return string(abi.encodePacked(base, tokenId.toString()));\r\n    }\r\n    \r\n    function mint(\r\n        address _to,\r\n        string memory _solution,\r\n        string memory _tokenURI\r\n    ) external onlyOwner() {\r\n        _mint(_to, _currentTokenId);\r\n        _setTokenURI(_currentTokenId, _tokenURI);\r\n\r\n        _currentTokenId++;\r\n    }\r\n}\r\n",
  "sourcePath": "C:\\Dev\\Github\\ethordle\\contracts\\EthordleToken.sol",
  "compiler": {
    "name": "solc",
    "version": "0.8.1+commit.df193b15.Emscripten.clang"
  },
  "schemaVersion": "3.4.6",
  "updatedAt": "2022-04-06T04:07:00.196Z",
  "networkType": "ethereum",
  "devdoc": {
    "kind": "dev",
    "methods": {
      "approve(address,uint256)": {
        "details": "See {IERC721-approve}."
      },
      "balanceOf(address)": {
        "details": "See {IERC721-balanceOf}."
      },
      "getApproved(uint256)": {
        "details": "See {IERC721-getApproved}."
      },
      "isApprovedForAll(address,address)": {
        "details": "See {IERC721-isApprovedForAll}."
      },
      "name()": {
        "details": "See {IERC721Metadata-name}."
      },
      "owner()": {
        "details": "Returns the address of the current owner."
      },
      "ownerOf(uint256)": {
        "details": "See {IERC721-ownerOf}."
      },
      "renounceOwnership()": {
        "details": "Leaves the contract without owner. It will not be possible to call `onlyOwner` functions anymore. Can only be called by the current owner. NOTE: Renouncing ownership will leave the contract without an owner, thereby removing any functionality that is only available to the owner."
      },
      "safeTransferFrom(address,address,uint256)": {
        "details": "See {IERC721-safeTransferFrom}."
      },
      "safeTransferFrom(address,address,uint256,bytes)": {
        "details": "See {IERC721-safeTransferFrom}."
      },
      "setApprovalForAll(address,bool)": {
        "details": "See {IERC721-setApprovalForAll}."
      },
      "supportsInterface(bytes4)": {
        "details": "See {IERC165-supportsInterface}."
      },
      "symbol()": {
        "details": "See {IERC721Metadata-symbol}."
      },
      "tokenURI(uint256)": {
        "details": "See {IERC721Metadata-tokenURI}."
      },
      "transferFrom(address,address,uint256)": {
        "details": "See {IERC721-transferFrom}."
      },
      "transferOwnership(address)": {
        "details": "Transfers ownership of the contract to a new account (`newOwner`). Can only be called by the current owner."
      }
    },
    "version": 1
  },
  "userdoc": {
    "kind": "user",
    "methods": {},
    "version": 1
  }
}