{
  "contractName": "EthordleToken",
  "abi": [
    {
      "inputs": [
        {
          "internalType": "string",
          "name": "_name",
          "type": "string"
        },
        {
          "internalType": "string",
          "name": "_symbol",
          "type": "string"
        },
        {
          "internalType": "uint256",
          "name": "initialPrice_",
          "type": "uint256"
        },
        {
          "internalType": "uint256",
          "name": "royaltyRate_",
          "type": "uint256"
        },
        {
          "internalType": "uint256",
          "name": "priceEscalationRate_",
          "type": "uint256"
        }
      ],
      "stateMutability": "nonpayable",
      "type": "constructor"
    },
    {
      "anonymous": false,
      "inputs": [
        {
          "indexed": true,
          "internalType": "address",
          "name": "owner",
          "type": "address"
        },
        {
          "indexed": true,
          "internalType": "address",
          "name": "approved",
          "type": "address"
        },
        {
          "indexed": true,
          "internalType": "uint256",
          "name": "tokenId",
          "type": "uint256"
        }
      ],
      "name": "Approval",
      "type": "event"
    },
    {
      "anonymous": false,
      "inputs": [
        {
          "indexed": true,
          "internalType": "address",
          "name": "owner",
          "type": "address"
        },
        {
          "indexed": true,
          "internalType": "address",
          "name": "operator",
          "type": "address"
        },
        {
          "indexed": false,
          "internalType": "bool",
          "name": "approved",
          "type": "bool"
        }
      ],
      "name": "ApprovalForAll",
      "type": "event"
    },
    {
      "anonymous": false,
      "inputs": [
        {
          "indexed": true,
          "internalType": "address",
          "name": "previousOwner",
          "type": "address"
        },
        {
          "indexed": true,
          "internalType": "address",
          "name": "newOwner",
          "type": "address"
        }
      ],
      "name": "OwnershipTransferred",
      "type": "event"
    },
    {
      "anonymous": false,
      "inputs": [
        {
          "indexed": false,
          "internalType": "string",
          "name": "solution",
          "type": "string"
        },
        {
          "indexed": false,
          "internalType": "address payable",
          "name": "account",
          "type": "address"
        },
        {
          "indexed": false,
          "internalType": "uint256",
          "name": "tokenId",
          "type": "uint256"
        },
        {
          "indexed": false,
          "internalType": "string",
          "name": "metadataURI",
          "type": "string"
        }
      ],
      "name": "TokenMinted",
      "type": "event"
    },
    {
      "anonymous": false,
      "inputs": [
        {
          "indexed": false,
          "internalType": "string",
          "name": "solution",
          "type": "string"
        },
        {
          "indexed": false,
          "internalType": "address",
          "name": "account",
          "type": "address"
        },
        {
          "indexed": false,
          "internalType": "uint256",
          "name": "tokenId",
          "type": "uint256"
        },
        {
          "indexed": false,
          "internalType": "string",
          "name": "metadataURI",
          "type": "string"
        },
        {
          "indexed": false,
          "internalType": "uint256",
          "name": "price",
          "type": "uint256"
        }
      ],
      "name": "TokenSaleAllowed",
      "type": "event"
    },
    {
      "anonymous": false,
      "inputs": [
        {
          "indexed": false,
          "internalType": "string",
          "name": "solution",
          "type": "string"
        },
        {
          "indexed": false,
          "internalType": "address",
          "name": "account",
          "type": "address"
        },
        {
          "indexed": false,
          "internalType": "uint256",
          "name": "tokenId",
          "type": "uint256"
        },
        {
          "indexed": false,
          "internalType": "string",
          "name": "metadataURI",
          "type": "string"
        }
      ],
      "name": "TokenSalePrevented",
      "type": "event"
    },
    {
      "anonymous": false,
      "inputs": [
        {
          "indexed": true,
          "internalType": "address",
          "name": "from",
          "type": "address"
        },
        {
          "indexed": true,
          "internalType": "address",
          "name": "to",
          "type": "address"
        },
        {
          "indexed": true,
          "internalType": "uint256",
          "name": "tokenId",
          "type": "uint256"
        }
      ],
      "name": "Transfer",
      "type": "event"
    },
    {
      "inputs": [
        {
          "internalType": "uint256",
          "name": "",
          "type": "uint256"
        }
      ],
      "name": "_tokens",
      "outputs": [
        {
          "internalType": "uint256",
          "name": "id",
          "type": "uint256"
        },
        {
          "internalType": "address",
          "name": "owner",
          "type": "address"
        },
        {
          "internalType": "uint256",
          "name": "price",
          "type": "uint256"
        },
        {
          "internalType": "string",
          "name": "url",
          "type": "string"
        },
        {
          "internalType": "string",
          "name": "solution",
          "type": "string"
        },
        {
          "internalType": "bool",
          "name": "isForSale",
          "type": "bool"
        },
        {
          "internalType": "uint256",
          "name": "lastTransactionTimestamp",
          "type": "uint256"
        },
        {
          "internalType": "uint256",
          "name": "transactionCount",
          "type": "uint256"
        }
      ],
      "stateMutability": "view",
      "type": "function",
      "constant": true
    },
    {
      "inputs": [
        {
          "internalType": "address",
          "name": "to",
          "type": "address"
        },
        {
          "internalType": "uint256",
          "name": "tokenId",
          "type": "uint256"
        }
      ],
      "name": "approve",
      "outputs": [],
      "stateMutability": "nonpayable",
      "type": "function"
    },
    {
      "inputs": [
        {
          "internalType": "address",
          "name": "owner",
          "type": "address"
        }
      ],
      "name": "balanceOf",
      "outputs": [
        {
          "internalType": "uint256",
          "name": "",
          "type": "uint256"
        }
      ],
      "stateMutability": "view",
      "type": "function",
      "constant": true
    },
    {
      "inputs": [
        {
          "internalType": "uint256",
          "name": "tokenId",
          "type": "uint256"
        }
      ],
      "name": "getApproved",
      "outputs": [
        {
          "internalType": "address",
          "name": "",
          "type": "address"
        }
      ],
      "stateMutability": "view",
      "type": "function",
      "constant": true
    },
    {
      "inputs": [
        {
          "internalType": "address",
          "name": "owner",
          "type": "address"
        },
        {
          "internalType": "address",
          "name": "operator",
          "type": "address"
        }
      ],
      "name": "isApprovedForAll",
      "outputs": [
        {
          "internalType": "bool",
          "name": "",
          "type": "bool"
        }
      ],
      "stateMutability": "view",
      "type": "function",
      "constant": true
    },
    {
      "inputs": [],
      "name": "name",
      "outputs": [
        {
          "internalType": "string",
          "name": "",
          "type": "string"
        }
      ],
      "stateMutability": "view",
      "type": "function",
      "constant": true
    },
    {
      "inputs": [],
      "name": "owner",
      "outputs": [
        {
          "internalType": "address",
          "name": "",
          "type": "address"
        }
      ],
      "stateMutability": "view",
      "type": "function",
      "constant": true
    },
    {
      "inputs": [
        {
          "internalType": "uint256",
          "name": "tokenId",
          "type": "uint256"
        }
      ],
      "name": "ownerOf",
      "outputs": [
        {
          "internalType": "address",
          "name": "",
          "type": "address"
        }
      ],
      "stateMutability": "view",
      "type": "function",
      "constant": true
    },
    {
      "inputs": [],
      "name": "renounceOwnership",
      "outputs": [],
      "stateMutability": "nonpayable",
      "type": "function"
    },
    {
      "inputs": [
        {
          "internalType": "address",
          "name": "operator",
          "type": "address"
        },
        {
          "internalType": "bool",
          "name": "approved",
          "type": "bool"
        }
      ],
      "name": "setApprovalForAll",
      "outputs": [],
      "stateMutability": "nonpayable",
      "type": "function"
    },
    {
      "inputs": [
        {
          "internalType": "bytes4",
          "name": "interfaceId",
          "type": "bytes4"
        }
      ],
      "name": "supportsInterface",
      "outputs": [
        {
          "internalType": "bool",
          "name": "",
          "type": "bool"
        }
      ],
      "stateMutability": "view",
      "type": "function",
      "constant": true
    },
    {
      "inputs": [],
      "name": "symbol",
      "outputs": [
        {
          "internalType": "string",
          "name": "",
          "type": "string"
        }
      ],
      "stateMutability": "view",
      "type": "function",
      "constant": true
    },
    {
      "inputs": [
        {
          "internalType": "address",
          "name": "newOwner",
          "type": "address"
        }
      ],
      "name": "transferOwnership",
      "outputs": [],
      "stateMutability": "nonpayable",
      "type": "function"
    },
    {
      "inputs": [
        {
          "internalType": "uint256",
          "name": "initialPrice_",
          "type": "uint256"
        }
      ],
      "name": "setInitialPrice",
      "outputs": [],
      "stateMutability": "nonpayable",
      "type": "function"
    },
    {
      "inputs": [],
      "name": "initialPrice",
      "outputs": [
        {
          "internalType": "uint256",
          "name": "",
          "type": "uint256"
        }
      ],
      "stateMutability": "view",
      "type": "function",
      "constant": true
    },
    {
      "inputs": [
        {
          "internalType": "uint256",
          "name": "royaltyRate_",
          "type": "uint256"
        }
      ],
      "name": "setRoyaltyRate",
      "outputs": [],
      "stateMutability": "nonpayable",
      "type": "function"
    },
    {
      "inputs": [],
      "name": "royaltyRate",
      "outputs": [
        {
          "internalType": "uint256",
          "name": "",
          "type": "uint256"
        }
      ],
      "stateMutability": "view",
      "type": "function",
      "constant": true
    },
    {
      "inputs": [
        {
          "internalType": "uint256",
          "name": "priceEscalationRate_",
          "type": "uint256"
        }
      ],
      "name": "setPriceEscalationRate",
      "outputs": [],
      "stateMutability": "nonpayable",
      "type": "function"
    },
    {
      "inputs": [],
      "name": "priceEscalationRate",
      "outputs": [
        {
          "internalType": "uint256",
          "name": "",
          "type": "uint256"
        }
      ],
      "stateMutability": "view",
      "type": "function",
      "constant": true
    },
    {
      "inputs": [],
      "name": "tokenCount",
      "outputs": [
        {
          "internalType": "uint256",
          "name": "",
          "type": "uint256"
        }
      ],
      "stateMutability": "view",
      "type": "function",
      "constant": true
    },
    {
      "inputs": [
        {
          "internalType": "uint256",
          "name": "tokenId",
          "type": "uint256"
        }
      ],
      "name": "tokenById",
      "outputs": [
        {
          "components": [
            {
              "internalType": "uint256",
              "name": "id",
              "type": "uint256"
            },
            {
              "internalType": "address",
              "name": "owner",
              "type": "address"
            },
            {
              "internalType": "uint256",
              "name": "price",
              "type": "uint256"
            },
            {
              "internalType": "string",
              "name": "url",
              "type": "string"
            },
            {
              "internalType": "string",
              "name": "solution",
              "type": "string"
            },
            {
              "internalType": "bool",
              "name": "isForSale",
              "type": "bool"
            },
            {
              "internalType": "uint256",
              "name": "lastTransactionTimestamp",
              "type": "uint256"
            },
            {
              "internalType": "uint256",
              "name": "transactionCount",
              "type": "uint256"
            }
          ],
          "internalType": "struct EthordleToken.Token",
          "name": "",
          "type": "tuple"
        }
      ],
      "stateMutability": "view",
      "type": "function",
      "constant": true
    },
    {
      "inputs": [
        {
          "internalType": "address",
          "name": "_from",
          "type": "address"
        }
      ],
      "name": "tokensOfOwner",
      "outputs": [
        {
          "components": [
            {
              "internalType": "uint256",
              "name": "id",
              "type": "uint256"
            },
            {
              "internalType": "address",
              "name": "owner",
              "type": "address"
            },
            {
              "internalType": "uint256",
              "name": "price",
              "type": "uint256"
            },
            {
              "internalType": "string",
              "name": "url",
              "type": "string"
            },
            {
              "internalType": "string",
              "name": "solution",
              "type": "string"
            },
            {
              "internalType": "bool",
              "name": "isForSale",
              "type": "bool"
            },
            {
              "internalType": "uint256",
              "name": "lastTransactionTimestamp",
              "type": "uint256"
            },
            {
              "internalType": "uint256",
              "name": "transactionCount",
              "type": "uint256"
            }
          ],
          "internalType": "struct EthordleToken.Token[]",
          "name": "",
          "type": "tuple[]"
        }
      ],
      "stateMutability": "view",
      "type": "function",
      "constant": true
    },
    {
      "inputs": [],
      "name": "tokens",
      "outputs": [
        {
          "components": [
            {
              "internalType": "uint256",
              "name": "id",
              "type": "uint256"
            },
            {
              "internalType": "address",
              "name": "owner",
              "type": "address"
            },
            {
              "internalType": "uint256",
              "name": "price",
              "type": "uint256"
            },
            {
              "internalType": "string",
              "name": "url",
              "type": "string"
            },
            {
              "internalType": "string",
              "name": "solution",
              "type": "string"
            },
            {
              "internalType": "bool",
              "name": "isForSale",
              "type": "bool"
            },
            {
              "internalType": "uint256",
              "name": "lastTransactionTimestamp",
              "type": "uint256"
            },
            {
              "internalType": "uint256",
              "name": "transactionCount",
              "type": "uint256"
            }
          ],
          "internalType": "struct EthordleToken.Token[]",
          "name": "",
          "type": "tuple[]"
        }
      ],
      "stateMutability": "view",
      "type": "function",
      "constant": true
    },
    {
      "inputs": [
        {
          "internalType": "string",
          "name": "baseURI",
          "type": "string"
        }
      ],
      "name": "setBaseURI",
      "outputs": [],
      "stateMutability": "nonpayable",
      "type": "function"
    },
    {
      "inputs": [
        {
          "internalType": "string",
          "name": "solution_",
          "type": "string"
        }
      ],
      "name": "isSolutionUnique",
      "outputs": [
        {
          "internalType": "bool",
          "name": "",
          "type": "bool"
        }
      ],
      "stateMutability": "view",
      "type": "function",
      "constant": true
    },
    {
      "inputs": [
        {
          "internalType": "uint256",
          "name": "tokenId",
          "type": "uint256"
        }
      ],
      "name": "tokenURI",
      "outputs": [
        {
          "internalType": "string",
          "name": "",
          "type": "string"
        }
      ],
      "stateMutability": "view",
      "type": "function",
      "constant": true
    },
    {
      "inputs": [
        {
          "internalType": "address payable",
          "name": "to",
          "type": "address"
        },
        {
          "internalType": "string",
          "name": "solution_",
          "type": "string"
        },
        {
          "internalType": "string",
          "name": "tokenURI_",
          "type": "string"
        }
      ],
      "name": "mint",
      "outputs": [],
      "stateMutability": "payable",
      "type": "function",
      "payable": true
    },
    {
      "inputs": [
        {
          "internalType": "address",
          "name": "from",
          "type": "address"
        },
        {
          "internalType": "uint256",
          "name": "tokenId",
          "type": "uint256"
        },
        {
          "internalType": "uint256",
          "name": "price",
          "type": "uint256"
        }
      ],
      "name": "allowSale",
      "outputs": [],
      "stateMutability": "nonpayable",
      "type": "function"
    },
    {
      "inputs": [
        {
          "internalType": "address",
          "name": "from",
          "type": "address"
        },
        {
          "internalType": "uint256",
          "name": "tokenId",
          "type": "uint256"
        }
      ],
      "name": "preventSale",
      "outputs": [],
      "stateMutability": "nonpayable",
      "type": "function"
    },
    {
      "inputs": [
        {
          "internalType": "address",
          "name": "to",
          "type": "address"
        },
        {
          "internalType": "uint256",
          "name": "tokenId",
          "type": "uint256"
        }
      ],
      "name": "buy",
      "outputs": [],
      "stateMutability": "payable",
      "type": "function",
      "payable": true
    },
    {
      "inputs": [
        {
          "internalType": "address",
          "name": "",
          "type": "address"
        },
        {
          "internalType": "address",
          "name": "",
          "type": "address"
        },
        {
          "internalType": "uint256",
          "name": "",
          "type": "uint256"
        }
      ],
      "name": "transferFrom",
      "outputs": [],
      "stateMutability": "view",
      "type": "function",
      "constant": true
    },
    {
      "inputs": [
        {
          "internalType": "address",
          "name": "",
          "type": "address"
        },
        {
          "internalType": "address",
          "name": "",
          "type": "address"
        },
        {
          "internalType": "uint256",
          "name": "",
          "type": "uint256"
        }
      ],
      "name": "safeTransferFrom",
      "outputs": [],
      "stateMutability": "view",
      "type": "function",
      "constant": true
    },
    {
      "inputs": [
        {
          "internalType": "address",
          "name": "",
          "type": "address"
        },
        {
          "internalType": "address",
          "name": "",
          "type": "address"
        },
        {
          "internalType": "uint256",
          "name": "",
          "type": "uint256"
        },
        {
          "internalType": "bytes",
          "name": "",
          "type": "bytes"
        }
      ],
      "name": "safeTransferFrom",
      "outputs": [],
      "stateMutability": "view",
      "type": "function",
      "constant": true
    }
  ],
  "bytecode": "0x60806040523480156200001157600080fd5b50604051620063ba380380620063ba8339818101604052810190620000379190620002fd565b8484816000908051906020019062000051929190620001c4565b5080600190805190602001906200006a929190620001c4565b5050506200008d62000081620000f660201b60201c565b620000fe60201b60201c565b33600a60006101000a81548173ffffffffffffffffffffffffffffffffffffffff021916908373ffffffffffffffffffffffffffffffffffffffff1602179055506000600e8190555082600b8190555081600c8190555080600d81905550505050505062000545565b600033905090565b6000600660009054906101000a900473ffffffffffffffffffffffffffffffffffffffff16905081600660006101000a81548173ffffffffffffffffffffffffffffffffffffffff021916908373ffffffffffffffffffffffffffffffffffffffff1602179055508173ffffffffffffffffffffffffffffffffffffffff168173ffffffffffffffffffffffffffffffffffffffff167f8be0079c531659141344cd1fd0a4f28419497f9722a3daafe3b4186f6b6457e060405160405180910390a35050565b828054620001d29062000450565b90600052602060002090601f016020900481019282620001f6576000855562000242565b82601f106200021157805160ff191683800117855562000242565b8280016001018555821562000242579182015b828111156200024157825182559160200191906001019062000224565b5b50905062000251919062000255565b5090565b5b808211156200027057600081600090555060010162000256565b5090565b60006200028b6200028584620003da565b620003b1565b905082815260208101848484011115620002a457600080fd5b620002b18482856200041a565b509392505050565b600082601f830112620002cb57600080fd5b8151620002dd84826020860162000274565b91505092915050565b600081519050620002f7816200052b565b92915050565b600080600080600060a086880312156200031657600080fd5b600086015167ffffffffffffffff8111156200033157600080fd5b6200033f88828901620002b9565b955050602086015167ffffffffffffffff8111156200035d57600080fd5b6200036b88828901620002b9565b94505060406200037e88828901620002e6565b93505060606200039188828901620002e6565b9250506080620003a488828901620002e6565b9150509295509295909350565b6000620003bd620003d0565b9050620003cb828262000486565b919050565b6000604051905090565b600067ffffffffffffffff821115620003f857620003f7620004eb565b5b62000403826200051a565b9050602081019050919050565b6000819050919050565b60005b838110156200043a5780820151818401526020810190506200041d565b838111156200044a576000848401525b50505050565b600060028204905060018216806200046957607f821691505b6020821081141562000480576200047f620004bc565b5b50919050565b62000491826200051a565b810181811067ffffffffffffffff82111715620004b357620004b2620004eb565b5b80604052505050565b7f4e487b7100000000000000000000000000000000000000000000000000000000600052602260045260246000fd5b7f4e487b7100000000000000000000000000000000000000000000000000000000600052604160045260246000fd5b6000601f19601f8301169050919050565b620005368162000410565b81146200054257600080fd5b50565b615e6580620005556000396000f3fe6080604052600436106101ee5760003560e01c80638da5cb5b1161010d578063a22cb465116100a0578063c87b56dd1161006f578063c87b56dd146106ec578063cce7ec1314610729578063e985e9c514610745578063ed70554d14610782578063f2fde38b146107c6576101ee565b8063a22cb46514610632578063a5a025841461065b578063b88d4fde14610698578063c4d1510d146106c1576101ee565b80639d9504f9116100dc5780639d9504f91461058c5780639f181b5e146105b55780639f4ba0ee146105e0578063a129ece914610609576101ee565b80638da5cb5b146104ef57806395d89b411461051a57806399071190146105455780639d63848a14610561576101ee565b806355f804b31161018557806370a082311161015457806370a0823114610433578063715018a614610470578063755381f7146104875780638462151c146104b2576101ee565b806355f804b314610367578063585944e0146103905780636352211e146103b95780636b6af2d5146103f6576101ee565b80631d0806ae116101c15780631d0806ae146102c157806323b872dd146102ec57806342842e0e14610315578063537782a21461033e576101ee565b806301ffc9a7146101f357806306fdde0314610230578063081812fc1461025b578063095ea7b314610298575b600080fd5b3480156101ff57600080fd5b5061021a6004803603810190610215919061451b565b6107ef565b6040516102279190614cd9565b60405180910390f35b34801561023c57600080fd5b506102456108d1565b6040516102529190614cf4565b60405180910390f35b34801561026757600080fd5b50610282600480360381019061027d9190614585565b610963565b60405161028f9190614c9c565b60405180910390f35b3480156102a457600080fd5b506102bf60048036038101906102ba919061444f565b6109e8565b005b3480156102cd57600080fd5b506102d6610b00565b6040516102e391906151bf565b60405180910390f35b3480156102f857600080fd5b50610313600480360381019061030e9190614349565b610b0a565b005b34801561032157600080fd5b5061033c60048036038101906103379190614349565b610ba6565b005b34801561034a57600080fd5b5061036560048036038101906103609190614585565b610c42565b005b34801561037357600080fd5b5061038e60048036038101906103899190614544565b610cc8565b005b34801561039c57600080fd5b506103b760048036038101906103b2919061448b565b610d5e565b005b3480156103c557600080fd5b506103e060048036038101906103db9190614585565b6112ce565b6040516103ed9190614c9c565b60405180910390f35b34801561040257600080fd5b5061041d60048036038101906104189190614585565b611380565b60405161042a919061519d565b60405180910390f35b34801561043f57600080fd5b5061045a60048036038101906104559190614265565b611601565b60405161046791906151bf565b60405180910390f35b34801561047c57600080fd5b506104856116b9565b005b34801561049357600080fd5b5061049c611741565b6040516104a991906151bf565b60405180910390f35b3480156104be57600080fd5b506104d960048036038101906104d49190614265565b61174b565b6040516104e69190614cb7565b60405180910390f35b3480156104fb57600080fd5b506105046119a3565b6040516105119190614c9c565b60405180910390f35b34801561052657600080fd5b5061052f6119cd565b60405161053c9190614cf4565b60405180910390f35b61055f600480360381019061055a919061428e565b611a5f565b005b34801561056d57600080fd5b50610576612009565b6040516105839190614cb7565b60405180910390f35b34801561059857600080fd5b506105b360048036038101906105ae919061444f565b6122d3565b005b3480156105c157600080fd5b506105ca6127ee565b6040516105d791906151bf565b60405180910390f35b3480156105ec57600080fd5b5061060760048036038101906106029190614585565b6127f8565b005b34801561061557600080fd5b50610630600480360381019061062b9190614585565b61287e565b005b34801561063e57600080fd5b5061065960048036038101906106549190614413565b612904565b005b34801561066757600080fd5b50610682600480360381019061067d9190614544565b61291a565b60405161068f9190614cd9565b60405180910390f35b3480156106a457600080fd5b506106bf60048036038101906106ba9190614398565b612990565b005b3480156106cd57600080fd5b506106d6612a2d565b6040516106e391906151bf565b60405180910390f35b3480156106f857600080fd5b50610713600480360381019061070e9190614585565b612a37565b6040516107209190614cf4565b60405180910390f35b610743600480360381019061073e919061444f565b612b27565b005b34801561075157600080fd5b5061076c6004803603810190610767919061430d565b613194565b6040516107799190614cd9565b60405180910390f35b34801561078e57600080fd5b506107a960048036038101906107a49190614585565b613228565b6040516107bd9897969594939291906151da565b60405180910390f35b3480156107d257600080fd5b506107ed60048036038101906107e89190614265565b6133ad565b005b60007f80ac58cd000000000000000000000000000000000000000000000000000000007bffffffffffffffffffffffffffffffffffffffffffffffffffffffff1916827bffffffffffffffffffffffffffffffffffffffffffffffffffffffff191614806108ba57507f5b5e139f000000000000000000000000000000000000000000000000000000007bffffffffffffffffffffffffffffffffffffffffffffffffffffffff1916827bffffffffffffffffffffffffffffffffffffffffffffffffffffffff1916145b806108ca57506108c9826134a5565b5b9050919050565b6060600080546108e090615567565b80601f016020809104026020016040519081016040528092919081815260200182805461090c90615567565b80156109595780601f1061092e57610100808354040283529160200191610959565b820191906000526020600020905b81548152906001019060200180831161093c57829003601f168201915b5050505050905090565b600061096e8261350f565b6109ad576040517f08c379a00000000000000000000000000000000000000000000000000000000081526004016109a49061503d565b60405180910390fd5b6004600083815260200190815260200160002060009054906101000a900473ffffffffffffffffffffffffffffffffffffffff169050919050565b60006109f3826112ce565b90508073ffffffffffffffffffffffffffffffffffffffff168373ffffffffffffffffffffffffffffffffffffffff161415610a64576040517f08c379a0000000000000000000000000000000000000000000000000000000008152600401610a5b906150dd565b60405180910390fd5b8073ffffffffffffffffffffffffffffffffffffffff16610a8361357b565b73ffffffffffffffffffffffffffffffffffffffff161480610ab25750610ab181610aac61357b565b613194565b5b610af1576040517f08c379a0000000000000000000000000000000000000000000000000000000008152600401610ae890614f9d565b60405180910390fd5b610afb8383613583565b505050565b6000600b54905090565b600a60009054906101000a900473ffffffffffffffffffffffffffffffffffffffff1673ffffffffffffffffffffffffffffffffffffffff16610b4b61357b565b73ffffffffffffffffffffffffffffffffffffffff1614610ba1576040517f08c379a0000000000000000000000000000000000000000000000000000000008152600401610b9890614edd565b60405180910390fd5b505050565b600a60009054906101000a900473ffffffffffffffffffffffffffffffffffffffff1673ffffffffffffffffffffffffffffffffffffffff16610be761357b565b73ffffffffffffffffffffffffffffffffffffffff1614610c3d576040517f08c379a0000000000000000000000000000000000000000000000000000000008152600401610c3490614edd565b60405180910390fd5b505050565b610c4a61357b565b73ffffffffffffffffffffffffffffffffffffffff16610c686119a3565b73ffffffffffffffffffffffffffffffffffffffff1614610cbe576040517f08c379a0000000000000000000000000000000000000000000000000000000008152600401610cb5906150bd565b60405180910390fd5b80600c8190555050565b610cd061357b565b73ffffffffffffffffffffffffffffffffffffffff16610cee6119a3565b73ffffffffffffffffffffffffffffffffffffffff1614610d44576040517f08c379a0000000000000000000000000000000000000000000000000000000008152600401610d3b906150bd565b60405180910390fd5b80600f9080519060200190610d5a929190613e08565b5050565b610d678261350f565b610da6576040517f08c379a0000000000000000000000000000000000000000000000000000000008152600401610d9d9061511d565b60405180910390fd5b8273ffffffffffffffffffffffffffffffffffffffff16610dc561357b565b73ffffffffffffffffffffffffffffffffffffffff161480610e3b5750600a60009054906101000a900473ffffffffffffffffffffffffffffffffffffffff1673ffffffffffffffffffffffffffffffffffffffff16610e2361357b565b73ffffffffffffffffffffffffffffffffffffffff16145b610e7a576040517f08c379a0000000000000000000000000000000000000000000000000000000008152600401610e7190614f5d565b60405180910390fd5b610e8b610e8561357b565b8361363c565b610eca576040517f08c379a0000000000000000000000000000000000000000000000000000000008152600401610ec190614f5d565b60405180910390fd5b60006007600084815260200190815260200160002060405180610100016040529081600082015481526020016001820160009054906101000a900473ffffffffffffffffffffffffffffffffffffffff1673ffffffffffffffffffffffffffffffffffffffff1673ffffffffffffffffffffffffffffffffffffffff16815260200160028201548152602001600382018054610f6590615567565b80601f0160208091040260200160405190810160405280929190818152602001828054610f9190615567565b8015610fde5780601f10610fb357610100808354040283529160200191610fde565b820191906000526020600020905b815481529060010190602001808311610fc157829003601f168201915b50505050508152602001600482018054610ff790615567565b80601f016020809104026020016040519081016040528092919081815260200182805461102390615567565b80156110705780601f1061104557610100808354040283529160200191611070565b820191906000526020600020905b81548152906001019060200180831161105357829003601f168201915b505050505081526020016005820160009054906101000a900460ff161515151581526020016006820154815260200160078201548152505090506110b7816000015161350f565b6110f6576040517f08c379a00000000000000000000000000000000000000000000000000000000081526004016110ed90614f1d565b60405180910390fd5b8060a001511561113b576040517f08c379a000000000000000000000000000000000000000000000000000000000815260040161113290614efd565b60405180910390fd5b8060400151821015611182576040517f08c379a0000000000000000000000000000000000000000000000000000000008152600401611179906150fd565b60405180910390fd5b60018160a00190151590811515815250508181604001818152505080600760008581526020019081526020016000206000820151816000015560208201518160010160006101000a81548173ffffffffffffffffffffffffffffffffffffffff021916908373ffffffffffffffffffffffffffffffffffffffff160217905550604082015181600201556060820151816003019080519060200190611228929190613e08565b506080820151816004019080519060200190611245929190613e08565b5060a08201518160050160006101000a81548160ff02191690831515021790555060c0820151816006015560e082015181600701559050507f5d2c7bf90f1fb93dc5c1a182708e82e00fe9ea38d825a4c875373e4829a8044381608001518260200151858460600151866040516112c0959493929190614dbc565b60405180910390a150505050565b6000806002600084815260200190815260200160002060009054906101000a900473ffffffffffffffffffffffffffffffffffffffff169050600073ffffffffffffffffffffffffffffffffffffffff168173ffffffffffffffffffffffffffffffffffffffff161415611377576040517f08c379a000000000000000000000000000000000000000000000000000000000815260040161136e90614fdd565b60405180910390fd5b80915050919050565b611388613e8e565b6113918261350f565b6113d0576040517f08c379a00000000000000000000000000000000000000000000000000000000081526004016113c79061511d565b60405180910390fd5b60006007600084815260200190815260200160002060405180610100016040529081600082015481526020016001820160009054906101000a900473ffffffffffffffffffffffffffffffffffffffff1673ffffffffffffffffffffffffffffffffffffffff1673ffffffffffffffffffffffffffffffffffffffff1681526020016002820154815260200160038201805461146b90615567565b80601f016020809104026020016040519081016040528092919081815260200182805461149790615567565b80156114e45780601f106114b9576101008083540402835291602001916114e4565b820191906000526020600020905b8154815290600101906020018083116114c757829003601f168201915b505050505081526020016004820180546114fd90615567565b80601f016020809104026020016040519081016040528092919081815260200182805461152990615567565b80156115765780601f1061154b57610100808354040283529160200191611576565b820191906000526020600020905b81548152906001019060200180831161155957829003601f168201915b505050505081526020016005820160009054906101000a900460ff161515151581526020016006820154815260200160078201548152505090506115b98361350f565b6115f8576040517f08c379a00000000000000000000000000000000000000000000000000000000081526004016115ef90614f1d565b60405180910390fd5b80915050919050565b60008073ffffffffffffffffffffffffffffffffffffffff168273ffffffffffffffffffffffffffffffffffffffff161415611672576040517f08c379a000000000000000000000000000000000000000000000000000000000815260040161166990614fbd565b60405180910390fd5b600360008373ffffffffffffffffffffffffffffffffffffffff1673ffffffffffffffffffffffffffffffffffffffff168152602001908152602001600020549050919050565b6116c161357b565b73ffffffffffffffffffffffffffffffffffffffff166116df6119a3565b73ffffffffffffffffffffffffffffffffffffffff1614611735576040517f08c379a000000000000000000000000000000000000000000000000000000000815260040161172c906150bd565b60405180910390fd5b61173f600061371a565b565b6000600d54905090565b6060600061175883611601565b90506000808267ffffffffffffffff81111561179d577f4e487b7100000000000000000000000000000000000000000000000000000000600052604160045260246000fd5b6040519080825280602002602001820160405280156117d657816020015b6117c3613e8e565b8152602001906001900390816117bb5790505b50905060008311156119985760003073ffffffffffffffffffffffffffffffffffffffff16639d63848a6040518163ffffffff1660e01b815260040160006040518083038186803b15801561182a57600080fd5b505afa15801561183e573d6000803e3d6000fd5b505050506040513d6000823e3d601f19601f8201168201806040525081019061186791906144da565b905060005b600e54811015611995578673ffffffffffffffffffffffffffffffffffffffff168282815181106118c6577f4e487b7100000000000000000000000000000000000000000000000000000000600052603260045260246000fd5b60200260200101516020015173ffffffffffffffffffffffffffffffffffffffff16141561198257818181518110611927577f4e487b7100000000000000000000000000000000000000000000000000000000600052603260045260246000fd5b6020026020010151838581518110611968577f4e487b7100000000000000000000000000000000000000000000000000000000600052603260045260246000fd5b6020026020010181905250838061197e906155ca565b9450505b808061198d906155ca565b91505061186c565b50505b809350505050919050565b6000600660009054906101000a900473ffffffffffffffffffffffffffffffffffffffff16905090565b6060600180546119dc90615567565b80601f0160208091040260200160405190810160405280929190818152602001828054611a0890615567565b8015611a555780601f10611a2a57610100808354040283529160200191611a55565b820191906000526020600020905b815481529060010190602001808311611a3857829003601f168201915b5050505050905090565b8273ffffffffffffffffffffffffffffffffffffffff163373ffffffffffffffffffffffffffffffffffffffff161480611ae65750600a60009054906101000a900473ffffffffffffffffffffffffffffffffffffffff1673ffffffffffffffffffffffffffffffffffffffff163373ffffffffffffffffffffffffffffffffffffffff16145b611b25576040517f08c379a0000000000000000000000000000000000000000000000000000000008152600401611b1c9061509d565b60405180910390fd5b600b54341015611b6a576040517f08c379a0000000000000000000000000000000000000000000000000000000008152600401611b619061513d565b60405180910390fd5b600073ffffffffffffffffffffffffffffffffffffffff16600883604051611b929190614c85565b908152602001604051809103902060009054906101000a900473ffffffffffffffffffffffffffffffffffffffff1673ffffffffffffffffffffffffffffffffffffffff1614611c17576040517f08c379a0000000000000000000000000000000000000000000000000000000008152600401611c0e90614ffd565b60405180910390fd5b600073ffffffffffffffffffffffffffffffffffffffff16600982604051611c3f9190614c85565b908152602001604051809103902060009054906101000a900473ffffffffffffffffffffffffffffffffffffffff1673ffffffffffffffffffffffffffffffffffffffff1614611cc4576040517f08c379a0000000000000000000000000000000000000000000000000000000008152600401611cbb90614e1d565b60405180910390fd5b600582511015611d09576040517f08c379a0000000000000000000000000000000000000000000000000000000008152600401611d009061507d565b60405180910390fd5b601c81511015611d4e576040517f08c379a0000000000000000000000000000000000000000000000000000000008152600401611d459061515d565b60405180910390fd5b611d566119a3565b73ffffffffffffffffffffffffffffffffffffffff166108fc349081150290604051600060405180830381858888f19350505050158015611d9b573d6000803e3d6000fd5b50611da883600e546137e0565b6000611db3346139ba565b90506000604051806101000160405280600e5481526020018673ffffffffffffffffffffffffffffffffffffffff168152602001838152602001848152602001858152602001600015158152602001428152602001600181525090508060076000600e5481526020019081526020016000206000820151816000015560208201518160010160006101000a81548173ffffffffffffffffffffffffffffffffffffffff021916908373ffffffffffffffffffffffffffffffffffffffff160217905550604082015181600201556060820151816003019080519060200190611e9c929190613e08565b506080820151816004019080519060200190611eb9929190613e08565b5060a08201518160050160006101000a81548160ff02191690831515021790555060c0820151816006015560e0820151816007015590505084600885604051611f029190614c85565b908152602001604051809103902060006101000a81548173ffffffffffffffffffffffffffffffffffffffff021916908373ffffffffffffffffffffffffffffffffffffffff16021790555084600984604051611f5f9190614c85565b908152602001604051809103902060006101000a81548173ffffffffffffffffffffffffffffffffffffffff021916908373ffffffffffffffffffffffffffffffffffffffff160217905550600e6000815480929190611fbe906155ca565b91905055507f69e2cadceb55416f48e5a82e3641de7889495c2e02c86d37aaa313d121e8e7428486600e5486604051611ffa9493929190614d16565b60405180910390a15050505050565b60606000600e5467ffffffffffffffff81111561204f577f4e487b7100000000000000000000000000000000000000000000000000000000600052604160045260246000fd5b60405190808252806020026020018201604052801561208857816020015b612075613e8e565b81526020019060019003908161206d5790505b50905060005b600e548110156122cb576007600082815260200190815260200160002060405180610100016040529081600082015481526020016001820160009054906101000a900473ffffffffffffffffffffffffffffffffffffffff1673ffffffffffffffffffffffffffffffffffffffff1673ffffffffffffffffffffffffffffffffffffffff1681526020016002820154815260200160038201805461213190615567565b80601f016020809104026020016040519081016040528092919081815260200182805461215d90615567565b80156121aa5780601f1061217f576101008083540402835291602001916121aa565b820191906000526020600020905b81548152906001019060200180831161218d57829003601f168201915b505050505081526020016004820180546121c390615567565b80601f01602080910402602001604051908101604052809291908181526020018280546121ef90615567565b801561223c5780601f106122115761010080835404028352916020019161223c565b820191906000526020600020905b81548152906001019060200180831161221f57829003601f168201915b505050505081526020016005820160009054906101000a900460ff16151515158152602001600682015481526020016007820154815250508282815181106122ad577f4e487b7100000000000000000000000000000000000000000000000000000000600052603260045260246000fd5b602002602001018190525080806122c3906155ca565b91505061208e565b508091505090565b6122dc8161350f565b61231b576040517f08c379a00000000000000000000000000000000000000000000000000000000081526004016123129061511d565b60405180910390fd5b8173ffffffffffffffffffffffffffffffffffffffff1661233a61357b565b73ffffffffffffffffffffffffffffffffffffffff1614806123b05750600a60009054906101000a900473ffffffffffffffffffffffffffffffffffffffff1673ffffffffffffffffffffffffffffffffffffffff1661239861357b565b73ffffffffffffffffffffffffffffffffffffffff16145b6123ef576040517f08c379a00000000000000000000000000000000000000000000000000000000081526004016123e690614f5d565b60405180910390fd5b6124006123fa61357b565b8261363c565b61243f576040517f08c379a000000000000000000000000000000000000000000000000000000000815260040161243690614f5d565b60405180910390fd5b60006007600083815260200190815260200160002060405180610100016040529081600082015481526020016001820160009054906101000a900473ffffffffffffffffffffffffffffffffffffffff1673ffffffffffffffffffffffffffffffffffffffff1673ffffffffffffffffffffffffffffffffffffffff168152602001600282015481526020016003820180546124da90615567565b80601f016020809104026020016040519081016040528092919081815260200182805461250690615567565b80156125535780601f1061252857610100808354040283529160200191612553565b820191906000526020600020905b81548152906001019060200180831161253657829003601f168201915b5050505050815260200160048201805461256c90615567565b80601f016020809104026020016040519081016040528092919081815260200182805461259890615567565b80156125e55780601f106125ba576101008083540402835291602001916125e5565b820191906000526020600020905b8154815290600101906020018083116125c857829003601f168201915b505050505081526020016005820160009054906101000a900460ff1615151515815260200160068201548152602001600782015481525050905061262c816000015161350f565b61266b576040517f08c379a000000000000000000000000000000000000000000000000000000000815260040161266290614f1d565b60405180910390fd5b8060a001516126af576040517f08c379a00000000000000000000000000000000000000000000000000000000081526004016126a69061517d565b60405180910390fd5b60008160a001901515908115158152505080600760008481526020019081526020016000206000820151816000015560208201518160010160006101000a81548173ffffffffffffffffffffffffffffffffffffffff021916908373ffffffffffffffffffffffffffffffffffffffff16021790555060408201518160020155606082015181600301908051906020019061274b929190613e08565b506080820151816004019080519060200190612768929190613e08565b5060a08201518160050160006101000a81548160ff02191690831515021790555060c0820151816006015560e082015181600701559050507fc3b5a2843f6447d7f106f5f37fa2da559718e6690e8567e2a9a707074388a81c816080015182602001518484606001516040516127e19493929190614d69565b60405180910390a1505050565b6000600e54905090565b61280061357b565b73ffffffffffffffffffffffffffffffffffffffff1661281e6119a3565b73ffffffffffffffffffffffffffffffffffffffff1614612874576040517f08c379a000000000000000000000000000000000000000000000000000000000815260040161286b906150bd565b60405180910390fd5b80600b8190555050565b61288661357b565b73ffffffffffffffffffffffffffffffffffffffff166128a46119a3565b73ffffffffffffffffffffffffffffffffffffffff16146128fa576040517f08c379a00000000000000000000000000000000000000000000000000000000081526004016128f1906150bd565b60405180910390fd5b80600d8190555050565b61291661290f61357b565b8383613a06565b5050565b60008073ffffffffffffffffffffffffffffffffffffffff166008836040516129439190614c85565b908152602001604051809103902060009054906101000a900473ffffffffffffffffffffffffffffffffffffffff1673ffffffffffffffffffffffffffffffffffffffff16149050919050565b600a60009054906101000a900473ffffffffffffffffffffffffffffffffffffffff1673ffffffffffffffffffffffffffffffffffffffff166129d161357b565b73ffffffffffffffffffffffffffffffffffffffff1614612a27576040517f08c379a0000000000000000000000000000000000000000000000000000000008152600401612a1e90614edd565b60405180910390fd5b50505050565b6000600c54905090565b6060612a428261350f565b612a81576040517f08c379a0000000000000000000000000000000000000000000000000000000008152600401612a789061511d565b60405180910390fd5b600760008381526020019081526020016000206003018054612aa290615567565b80601f0160208091040260200160405190810160405280929190818152602001828054612ace90615567565b8015612b1b5780601f10612af057610100808354040283529160200191612b1b565b820191906000526020600020905b815481529060010190602001808311612afe57829003601f168201915b50505050509050919050565b612b308161350f565b612b6f576040517f08c379a0000000000000000000000000000000000000000000000000000000008152600401612b669061511d565b60405180910390fd5b60006007600083815260200190815260200160002060405180610100016040529081600082015481526020016001820160009054906101000a900473ffffffffffffffffffffffffffffffffffffffff1673ffffffffffffffffffffffffffffffffffffffff1673ffffffffffffffffffffffffffffffffffffffff16815260200160028201548152602001600382018054612c0a90615567565b80601f0160208091040260200160405190810160405280929190818152602001828054612c3690615567565b8015612c835780601f10612c5857610100808354040283529160200191612c83565b820191906000526020600020905b815481529060010190602001808311612c6657829003601f168201915b50505050508152602001600482018054612c9c90615567565b80601f0160208091040260200160405190810160405280929190818152602001828054612cc890615567565b8015612d155780601f10612cea57610100808354040283529160200191612d15565b820191906000526020600020905b815481529060010190602001808311612cf857829003601f168201915b505050505081526020016005820160009054906101000a900460ff16151515158152602001600682015481526020016007820154815250509050612d5c816000015161350f565b612d9b576040517f08c379a0000000000000000000000000000000000000000000000000000000008152600401612d9290614f1d565b60405180910390fd5b8060400151341015612de2576040517f08c379a0000000000000000000000000000000000000000000000000000000008152600401612dd99061513d565b60405180910390fd5b8060a00151612e26576040517f08c379a0000000000000000000000000000000000000000000000000000000008152600401612e1d9061505d565b60405180910390fd5b8273ffffffffffffffffffffffffffffffffffffffff16816020015173ffffffffffffffffffffffffffffffffffffffff161415612e99576040517f08c379a0000000000000000000000000000000000000000000000000000000008152600401612e9090614f7d565b60405180910390fd5b6000816080015190506000826060015190506000612eb634613b73565b905060008134612ec6919061546b565b9050612ed06119a3565b73ffffffffffffffffffffffffffffffffffffffff166108fc839081150290604051600060405180830381858888f19350505050158015612f15573d6000803e3d6000fd5b50846020015173ffffffffffffffffffffffffffffffffffffffff166108fc829081150290604051600060405180830381858888f19350505050158015612f60573d6000803e3d6000fd5b50612f7085602001518888613b97565b86600885604051612f819190614c85565b908152602001604051809103902060006101000a81548173ffffffffffffffffffffffffffffffffffffffff021916908373ffffffffffffffffffffffffffffffffffffffff16021790555086600984604051612fde9190614c85565b908152602001604051809103902060006101000a81548173ffffffffffffffffffffffffffffffffffffffff021916908373ffffffffffffffffffffffffffffffffffffffff1602179055506000613035346139ba565b905087866020019073ffffffffffffffffffffffffffffffffffffffff16908173ffffffffffffffffffffffffffffffffffffffff16815250508086604001818152505060008660a0019015159081151581525050428660c00181815250508560e00180518091906130a6906155ca565b8152505085600760008981526020019081526020016000206000820151816000015560208201518160010160006101000a81548173ffffffffffffffffffffffffffffffffffffffff021916908373ffffffffffffffffffffffffffffffffffffffff160217905550604082015181600201556060820151816003019080519060200190613135929190613e08565b506080820151816004019080519060200190613152929190613e08565b5060a08201518160050160006101000a81548160ff02191690831515021790555060c0820151816006015560e082015181600701559050505050505050505050565b6000600560008473ffffffffffffffffffffffffffffffffffffffff1673ffffffffffffffffffffffffffffffffffffffff16815260200190815260200160002060008373ffffffffffffffffffffffffffffffffffffffff1673ffffffffffffffffffffffffffffffffffffffff16815260200190815260200160002060009054906101000a900460ff16905092915050565b60076020528060005260406000206000915090508060000154908060010160009054906101000a900473ffffffffffffffffffffffffffffffffffffffff169080600201549080600301805461327d90615567565b80601f01602080910402602001604051908101604052809291908181526020018280546132a990615567565b80156132f65780601f106132cb576101008083540402835291602001916132f6565b820191906000526020600020905b8154815290600101906020018083116132d957829003601f168201915b50505050509080600401805461330b90615567565b80601f016020809104026020016040519081016040528092919081815260200182805461333790615567565b80156133845780601f1061335957610100808354040283529160200191613384565b820191906000526020600020905b81548152906001019060200180831161336757829003601f168201915b5050505050908060050160009054906101000a900460ff16908060060154908060070154905088565b6133b561357b565b73ffffffffffffffffffffffffffffffffffffffff166133d36119a3565b73ffffffffffffffffffffffffffffffffffffffff1614613429576040517f08c379a0000000000000000000000000000000000000000000000000000000008152600401613420906150bd565b60405180910390fd5b600073ffffffffffffffffffffffffffffffffffffffff168173ffffffffffffffffffffffffffffffffffffffff161415613499576040517f08c379a000000000000000000000000000000000000000000000000000000000815260040161349090614e3d565b60405180910390fd5b6134a28161371a565b50565b60007f01ffc9a7000000000000000000000000000000000000000000000000000000007bffffffffffffffffffffffffffffffffffffffffffffffffffffffff1916827bffffffffffffffffffffffffffffffffffffffffffffffffffffffff1916149050919050565b60008073ffffffffffffffffffffffffffffffffffffffff166002600084815260200190815260200160002060009054906101000a900473ffffffffffffffffffffffffffffffffffffffff1673ffffffffffffffffffffffffffffffffffffffff1614159050919050565b600033905090565b816004600083815260200190815260200160002060006101000a81548173ffffffffffffffffffffffffffffffffffffffff021916908373ffffffffffffffffffffffffffffffffffffffff160217905550808273ffffffffffffffffffffffffffffffffffffffff166135f6836112ce565b73ffffffffffffffffffffffffffffffffffffffff167f8c5be1e5ebec7d5bd14f71427d1e84f3dd0314c0f7b2291e5b200ac8c7c3b92560405160405180910390a45050565b60006136478261350f565b613686576040517f08c379a000000000000000000000000000000000000000000000000000000000815260040161367d90614f3d565b60405180910390fd5b6000613691836112ce565b90508073ffffffffffffffffffffffffffffffffffffffff168473ffffffffffffffffffffffffffffffffffffffff16148061370057508373ffffffffffffffffffffffffffffffffffffffff166136e884610963565b73ffffffffffffffffffffffffffffffffffffffff16145b8061371157506137108185613194565b5b91505092915050565b6000600660009054906101000a900473ffffffffffffffffffffffffffffffffffffffff16905081600660006101000a81548173ffffffffffffffffffffffffffffffffffffffff021916908373ffffffffffffffffffffffffffffffffffffffff1602179055508173ffffffffffffffffffffffffffffffffffffffff168173ffffffffffffffffffffffffffffffffffffffff167f8be0079c531659141344cd1fd0a4f28419497f9722a3daafe3b4186f6b6457e060405160405180910390a35050565b600073ffffffffffffffffffffffffffffffffffffffff168273ffffffffffffffffffffffffffffffffffffffff161415613850576040517f08c379a00000000000000000000000000000000000000000000000000000000081526004016138479061501d565b60405180910390fd5b6138598161350f565b15613899576040517f08c379a000000000000000000000000000000000000000000000000000000000815260040161389090614e7d565b60405180910390fd5b6138a560008383613dfe565b6001600360008473ffffffffffffffffffffffffffffffffffffffff1673ffffffffffffffffffffffffffffffffffffffff16815260200190815260200160002060008282546138f5919061538a565b92505081905550816002600083815260200190815260200160002060006101000a81548173ffffffffffffffffffffffffffffffffffffffff021916908373ffffffffffffffffffffffffffffffffffffffff160217905550808273ffffffffffffffffffffffffffffffffffffffff16600073ffffffffffffffffffffffffffffffffffffffff167fddf252ad1be2c89b69c2b068fc378daa952ba7f163c4a11628f55a4df523b3ef60405160405180910390a46139b660008383613e03565b5050565b60008066038d7ea4c6800090506000612710600d54856139da9190615411565b6139e491906153e0565b90508182826139f391906153e0565b6139fd9190615411565b92505050919050565b8173ffffffffffffffffffffffffffffffffffffffff168373ffffffffffffffffffffffffffffffffffffffff161415613a75576040517f08c379a0000000000000000000000000000000000000000000000000000000008152600401613a6c90614ebd565b60405180910390fd5b80600560008573ffffffffffffffffffffffffffffffffffffffff1673ffffffffffffffffffffffffffffffffffffffff16815260200190815260200160002060008473ffffffffffffffffffffffffffffffffffffffff1673ffffffffffffffffffffffffffffffffffffffff16815260200190815260200160002060006101000a81548160ff0219169083151502179055508173ffffffffffffffffffffffffffffffffffffffff168373ffffffffffffffffffffffffffffffffffffffff167f17307eab39ab6107e8899845ad3d59bd9653f200f220920489ca2b5937696c3183604051613b669190614cd9565b60405180910390a3505050565b6000612710600c5483613b869190615411565b613b9091906153e0565b9050919050565b8273ffffffffffffffffffffffffffffffffffffffff16613bb7826112ce565b73ffffffffffffffffffffffffffffffffffffffff1614613c0d576040517f08c379a0000000000000000000000000000000000000000000000000000000008152600401613c0490614e5d565b60405180910390fd5b600073ffffffffffffffffffffffffffffffffffffffff168273ffffffffffffffffffffffffffffffffffffffff161415613c7d576040517f08c379a0000000000000000000000000000000000000000000000000000000008152600401613c7490614e9d565b60405180910390fd5b613c88838383613dfe565b613c93600082613583565b6001600360008573ffffffffffffffffffffffffffffffffffffffff1673ffffffffffffffffffffffffffffffffffffffff1681526020019081526020016000206000828254613ce3919061546b565b925050819055506001600360008473ffffffffffffffffffffffffffffffffffffffff1673ffffffffffffffffffffffffffffffffffffffff1681526020019081526020016000206000828254613d3a919061538a565b92505081905550816002600083815260200190815260200160002060006101000a81548173ffffffffffffffffffffffffffffffffffffffff021916908373ffffffffffffffffffffffffffffffffffffffff160217905550808273ffffffffffffffffffffffffffffffffffffffff168473ffffffffffffffffffffffffffffffffffffffff167fddf252ad1be2c89b69c2b068fc378daa952ba7f163c4a11628f55a4df523b3ef60405160405180910390a4613df9838383613e03565b505050565b505050565b505050565b828054613e1490615567565b90600052602060002090601f016020900481019282613e365760008555613e7d565b82601f10613e4f57805160ff1916838001178555613e7d565b82800160010185558215613e7d579182015b82811115613e7c578251825591602001919060010190613e61565b5b509050613e8a9190613eeb565b5090565b60405180610100016040528060008152602001600073ffffffffffffffffffffffffffffffffffffffff16815260200160008152602001606081526020016060815260200160001515815260200160008152602001600081525090565b5b80821115613f04576000816000905550600101613eec565b5090565b6000613f1b613f168461528b565b615266565b9050808382526020820190508260005b85811015613f5b5781518501613f418882614145565b845260208401935060208301925050600181019050613f2b565b5050509392505050565b6000613f78613f73846152b7565b615266565b905082815260208101848484011115613f9057600080fd5b613f9b848285615525565b509392505050565b6000613fb6613fb1846152e8565b615266565b905082815260208101848484011115613fce57600080fd5b613fd9848285615525565b509392505050565b6000613ff4613fef846152e8565b615266565b90508281526020810184848401111561400c57600080fd5b614017848285615534565b509392505050565b60008135905061402e81615dbc565b92915050565b60008151905061404381615dbc565b92915050565b60008135905061405881615dd3565b92915050565b600082601f83011261406f57600080fd5b815161407f848260208601613f08565b91505092915050565b60008135905061409781615dea565b92915050565b6000815190506140ac81615dea565b92915050565b6000813590506140c181615e01565b92915050565b600082601f8301126140d857600080fd5b81356140e8848260208601613f65565b91505092915050565b600082601f83011261410257600080fd5b8135614112848260208601613fa3565b91505092915050565b600082601f83011261412c57600080fd5b815161413c848260208601613fe1565b91505092915050565b6000610100828403121561415857600080fd5b614163610100615266565b9050600061417384828501614250565b600083015250602061418784828501614034565b602083015250604061419b84828501614250565b604083015250606082015167ffffffffffffffff8111156141bb57600080fd5b6141c78482850161411b565b606083015250608082015167ffffffffffffffff8111156141e757600080fd5b6141f38482850161411b565b60808301525060a06142078482850161409d565b60a08301525060c061421b84828501614250565b60c08301525060e061422f84828501614250565b60e08301525092915050565b60008135905061424a81615e18565b92915050565b60008151905061425f81615e18565b92915050565b60006020828403121561427757600080fd5b60006142858482850161401f565b91505092915050565b6000806000606084860312156142a357600080fd5b60006142b186828701614049565b935050602084013567ffffffffffffffff8111156142ce57600080fd5b6142da868287016140f1565b925050604084013567ffffffffffffffff8111156142f757600080fd5b614303868287016140f1565b9150509250925092565b6000806040838503121561432057600080fd5b600061432e8582860161401f565b925050602061433f8582860161401f565b9150509250929050565b60008060006060848603121561435e57600080fd5b600061436c8682870161401f565b935050602061437d8682870161401f565b925050604061438e8682870161423b565b9150509250925092565b600080600080608085870312156143ae57600080fd5b60006143bc8782880161401f565b94505060206143cd8782880161401f565b93505060406143de8782880161423b565b925050606085013567ffffffffffffffff8111156143fb57600080fd5b614407878288016140c7565b91505092959194509250565b6000806040838503121561442657600080fd5b60006144348582860161401f565b925050602061444585828601614088565b9150509250929050565b6000806040838503121561446257600080fd5b60006144708582860161401f565b92505060206144818582860161423b565b9150509250929050565b6000806000606084860312156144a057600080fd5b60006144ae8682870161401f565b93505060206144bf8682870161423b565b92505060406144d08682870161423b565b9150509250925092565b6000602082840312156144ec57600080fd5b600082015167ffffffffffffffff81111561450657600080fd5b6145128482850161405e565b91505092915050565b60006020828403121561452d57600080fd5b600061453b848285016140b2565b91505092915050565b60006020828403121561455657600080fd5b600082013567ffffffffffffffff81111561457057600080fd5b61457c848285016140f1565b91505092915050565b60006020828403121561459757600080fd5b60006145a58482850161423b565b91505092915050565b60006145ba8383614af9565b905092915050565b6145cb816154b1565b82525050565b6145da8161549f565b82525050565b6145e98161549f565b82525050565b60006145fa82615329565b614604818561534c565b93508360208202850161461685615319565b8060005b85811015614652578484038952815161463385826145ae565b945061463e8361533f565b925060208a0199505060018101905061461a565b50829750879550505050505092915050565b61466d816154c3565b82525050565b61467c816154c3565b82525050565b600061468d82615334565b614697818561535d565b93506146a7818560208601615534565b6146b0816156cf565b840191505092915050565b60006146c682615334565b6146d0818561536e565b93506146e0818560208601615534565b6146e9816156cf565b840191505092915050565b60006146ff82615334565b614709818561537f565b9350614719818560208601615534565b80840191505092915050565b6000614732602d8361536e565b915061473d826156e0565b604082019050919050565b600061475560268361536e565b91506147608261572f565b604082019050919050565b600061477860258361536e565b91506147838261577e565b604082019050919050565b600061479b601c8361536e565b91506147a6826157cd565b602082019050919050565b60006147be60248361536e565b91506147c9826157f6565b604082019050919050565b60006147e160198361536e565b91506147ec82615845565b602082019050919050565b600061480460268361536e565b915061480f8261586e565b604082019050919050565b600061482760208361536e565b9150614832826158bd565b602082019050919050565b600061484a60148361536e565b9150614855826158e6565b602082019050919050565b600061486d602c8361536e565b91506148788261590f565b604082019050919050565b6000614890602c8361536e565b915061489b8261595e565b604082019050919050565b60006148b360188361536e565b91506148be826159ad565b602082019050919050565b60006148d660388361536e565b91506148e1826159d6565b604082019050919050565b60006148f9602a8361536e565b915061490482615a25565b604082019050919050565b600061491c60298361536e565b915061492782615a74565b604082019050919050565b600061493f60328361536e565b915061494a82615ac3565b604082019050919050565b600061496260208361536e565b915061496d82615b12565b602082019050919050565b6000614985602c8361536e565b915061499082615b3b565b604082019050919050565b60006149a860158361536e565b91506149b382615b8a565b602082019050919050565b60006149cb60208361536e565b91506149d682615bb3565b602082019050919050565b60006149ee60128361536e565b91506149f982615bdc565b602082019050919050565b6000614a1160208361536e565b9150614a1c82615c05565b602082019050919050565b6000614a3460218361536e565b9150614a3f82615c2e565b604082019050919050565b6000614a5760398361536e565b9150614a6282615c7d565b604082019050919050565b6000614a7a60168361536e565b9150614a8582615ccc565b602082019050919050565b6000614a9d602d8361536e565b9150614aa882615cf5565b604082019050919050565b6000614ac060208361536e565b9150614acb82615d44565b602082019050919050565b6000614ae3602a8361536e565b9150614aee82615d6d565b604082019050919050565b600061010083016000830151614b126000860182614c67565b506020830151614b2560208601826145d1565b506040830151614b386040860182614c67565b5060608301518482036060860152614b508282614682565b91505060808301518482036080860152614b6a8282614682565b91505060a0830151614b7f60a0860182614664565b5060c0830151614b9260c0860182614c67565b5060e0830151614ba560e0860182614c67565b508091505092915050565b600061010083016000830151614bc96000860182614c67565b506020830151614bdc60208601826145d1565b506040830151614bef6040860182614c67565b5060608301518482036060860152614c078282614682565b91505060808301518482036080860152614c218282614682565b91505060a0830151614c3660a0860182614664565b5060c0830151614c4960c0860182614c67565b5060e0830151614c5c60e0860182614c67565b508091505092915050565b614c708161551b565b82525050565b614c7f8161551b565b82525050565b6000614c9182846146f4565b915081905092915050565b6000602082019050614cb160008301846145e0565b92915050565b60006020820190508181036000830152614cd181846145ef565b905092915050565b6000602082019050614cee6000830184614673565b92915050565b60006020820190508181036000830152614d0e81846146bb565b905092915050565b60006080820190508181036000830152614d3081876146bb565b9050614d3f60208301866145c2565b614d4c6040830185614c76565b8181036060830152614d5e81846146bb565b905095945050505050565b60006080820190508181036000830152614d8381876146bb565b9050614d9260208301866145e0565b614d9f6040830185614c76565b8181036060830152614db181846146bb565b905095945050505050565b600060a0820190508181036000830152614dd681886146bb565b9050614de560208301876145e0565b614df26040830186614c76565b8181036060830152614e0481856146bb565b9050614e136080830184614c76565b9695505050505050565b60006020820190508181036000830152614e3681614725565b9050919050565b60006020820190508181036000830152614e5681614748565b9050919050565b60006020820190508181036000830152614e768161476b565b9050919050565b60006020820190508181036000830152614e968161478e565b9050919050565b60006020820190508181036000830152614eb6816147b1565b9050919050565b60006020820190508181036000830152614ed6816147d4565b9050919050565b60006020820190508181036000830152614ef6816147f7565b9050919050565b60006020820190508181036000830152614f168161481a565b9050919050565b60006020820190508181036000830152614f368161483d565b9050919050565b60006020820190508181036000830152614f5681614860565b9050919050565b60006020820190508181036000830152614f7681614883565b9050919050565b60006020820190508181036000830152614f96816148a6565b9050919050565b60006020820190508181036000830152614fb6816148c9565b9050919050565b60006020820190508181036000830152614fd6816148ec565b9050919050565b60006020820190508181036000830152614ff68161490f565b9050919050565b6000602082019050818103600083015261501681614932565b9050919050565b6000602082019050818103600083015261503681614955565b9050919050565b6000602082019050818103600083015261505681614978565b9050919050565b600060208201905081810360008301526150768161499b565b9050919050565b60006020820190508181036000830152615096816149be565b9050919050565b600060208201905081810360008301526150b6816149e1565b9050919050565b600060208201905081810360008301526150d681614a04565b9050919050565b600060208201905081810360008301526150f681614a27565b9050919050565b6000602082019050818103600083015261511681614a4a565b9050919050565b6000602082019050818103600083015261513681614a6d565b9050919050565b6000602082019050818103600083015261515681614a90565b9050919050565b6000602082019050818103600083015261517681614ab3565b9050919050565b6000602082019050818103600083015261519681614ad6565b9050919050565b600060208201905081810360008301526151b78184614bb0565b905092915050565b60006020820190506151d46000830184614c76565b92915050565b6000610100820190506151f0600083018b614c76565b6151fd602083018a6145e0565b61520a6040830189614c76565b818103606083015261521c81886146bb565b9050818103608083015261523081876146bb565b905061523f60a0830186614673565b61524c60c0830185614c76565b61525960e0830184614c76565b9998505050505050505050565b6000615270615281565b905061527c8282615599565b919050565b6000604051905090565b600067ffffffffffffffff8211156152a6576152a56156a0565b5b602082029050602081019050919050565b600067ffffffffffffffff8211156152d2576152d16156a0565b5b6152db826156cf565b9050602081019050919050565b600067ffffffffffffffff821115615303576153026156a0565b5b61530c826156cf565b9050602081019050919050565b6000819050602082019050919050565b600081519050919050565b600081519050919050565b6000602082019050919050565b600082825260208201905092915050565b600082825260208201905092915050565b600082825260208201905092915050565b600081905092915050565b60006153958261551b565b91506153a08361551b565b9250827fffffffffffffffffffffffffffffffffffffffffffffffffffffffffffffffff038211156153d5576153d4615613565b5b828201905092915050565b60006153eb8261551b565b91506153f68361551b565b92508261540657615405615642565b5b828204905092915050565b600061541c8261551b565b91506154278361551b565b9250817fffffffffffffffffffffffffffffffffffffffffffffffffffffffffffffffff04831182151516156154605761545f615613565b5b828202905092915050565b60006154768261551b565b91506154818361551b565b92508282101561549457615493615613565b5b828203905092915050565b60006154aa826154fb565b9050919050565b60006154bc826154fb565b9050919050565b60008115159050919050565b60007fffffffff0000000000000000000000000000000000000000000000000000000082169050919050565b600073ffffffffffffffffffffffffffffffffffffffff82169050919050565b6000819050919050565b82818337600083830152505050565b60005b83811015615552578082015181840152602081019050615537565b83811115615561576000848401525b50505050565b6000600282049050600182168061557f57607f821691505b6020821081141561559357615592615671565b5b50919050565b6155a2826156cf565b810181811067ffffffffffffffff821117156155c1576155c06156a0565b5b80604052505050565b60006155d58261551b565b91507fffffffffffffffffffffffffffffffffffffffffffffffffffffffffffffffff82141561560857615607615613565b5b600182019050919050565b7f4e487b7100000000000000000000000000000000000000000000000000000000600052601160045260246000fd5b7f4e487b7100000000000000000000000000000000000000000000000000000000600052601260045260246000fd5b7f4e487b7100000000000000000000000000000000000000000000000000000000600052602260045260246000fd5b7f4e487b7100000000000000000000000000000000000000000000000000000000600052604160045260246000fd5b6000601f19601f8301169050919050565b7f4120746f6b656e2068617320616c7265616479206265656e206d696e7465642060008201527f7769746820746869732055524900000000000000000000000000000000000000602082015250565b7f4f776e61626c653a206e6577206f776e657220697320746865207a65726f206160008201527f6464726573730000000000000000000000000000000000000000000000000000602082015250565b7f4552433732313a207472616e736665722066726f6d20696e636f72726563742060008201527f6f776e6572000000000000000000000000000000000000000000000000000000602082015250565b7f4552433732313a20746f6b656e20616c7265616479206d696e74656400000000600082015250565b7f4552433732313a207472616e7366657220746f20746865207a65726f2061646460008201527f7265737300000000000000000000000000000000000000000000000000000000602082015250565b7f4552433732313a20617070726f766520746f2063616c6c657200000000000000600082015250565b7f4d6574686f64206d6179206f6e6c792062652063616c6c65642062792074686560008201527f206f776e65720000000000000000000000000000000000000000000000000000602082015250565b7f546f6b656e20697320616c7265616479206d61726b656420666f722073616c65600082015250565b7f546f6b656e20646f6573206e6f74206578697374000000000000000000000000600082015250565b7f4552433732313a206f70657261746f7220717565727920666f72206e6f6e657860008201527f697374656e7420746f6b656e0000000000000000000000000000000000000000602082015250565b7f53656e646572206d75737420626520746f6b656e206f776e6572206f7220636f60008201527f6e7472616374206f776e65720000000000000000000000000000000000000000602082015250565b7f427579657220616c7265616479206f776e7320746f6b656e0000000000000000600082015250565b7f4552433732313a20617070726f76652063616c6c6572206973206e6f74206f7760008201527f6e6572206e6f7220617070726f76656420666f7220616c6c0000000000000000602082015250565b7f4552433732313a2062616c616e636520717565727920666f7220746865207a6560008201527f726f206164647265737300000000000000000000000000000000000000000000602082015250565b7f4552433732313a206f776e657220717565727920666f72206e6f6e657869737460008201527f656e7420746f6b656e0000000000000000000000000000000000000000000000602082015250565b7f4120746f6b656e2068617320616c7265616479206265656e206d696e7465642060008201527f77697468207468697320736f6c7574696f6e0000000000000000000000000000602082015250565b7f4552433732313a206d696e7420746f20746865207a65726f2061646472657373600082015250565b7f4552433732313a20617070726f76656420717565727920666f72206e6f6e657860008201527f697374656e7420746f6b656e0000000000000000000000000000000000000000602082015250565b7f546f6b656e206973206e6f7420666f722073616c650000000000000000000000600082015250565b7f412076616c756520666f7220736f6c7574696f6e206973207265717569726564600082015250565b7f496e76616c696420746f20616464726573730000000000000000000000000000600082015250565b7f4f776e61626c653a2063616c6c6572206973206e6f7420746865206f776e6572600082015250565b7f4552433732313a20617070726f76616c20746f2063757272656e74206f776e6560008201527f7200000000000000000000000000000000000000000000000000000000000000602082015250565b7f546f6b656e2063616e6e6f7420626520707269636564206c657373207468616e60008201527f207468652063757272656e742061736b696e6720707269636500000000000000602082015250565b7f546f6b656e496420646f6573206e6f7420657869737400000000000000000000600082015250565b7f496e73756666696369656e742065746865722073656e7420776974682074686960008201527f73207472616e73616374696f6e00000000000000000000000000000000000000602082015250565b7f412076616c756520666f7220746f6b656e555249206973207265717569726564600082015250565b7f546f6b656e20697320616c72656164792070726576656e7465642066726f6d2060008201527f6265696e6720736f6c6400000000000000000000000000000000000000000000602082015250565b615dc58161549f565b8114615dd057600080fd5b50565b615ddc816154b1565b8114615de757600080fd5b50565b615df3816154c3565b8114615dfe57600080fd5b50565b615e0a816154cf565b8114615e1557600080fd5b50565b615e218161551b565b8114615e2c57600080fd5b5056fea2646970667358221220f4d5b3c943217d7acc10967f4d002fc397cd1c4935fdca79733cffd68905f1e564736f6c63430008010033",
  "immutableReferences": {},
  "source": "// SPDX-License-Identifier: MIT\r\npragma solidity >=0.4.22 <0.9.0;\r\nimport \"@openzeppelin/contracts/token/ERC721/ERC721.sol\";\r\nimport \"@openzeppelin/contracts/access/Ownable.sol\";\r\n\r\ncontract EthordleToken is ERC721, Ownable {\r\n    \r\nusing Strings for uint256;\r\n    \r\n    struct Token {\r\n        uint256 id;        \r\n        address owner;\r\n        uint256 price;\r\n        string url;\r\n        string solution;\r\n        bool isForSale;\r\n        uint256 lastTransactionTimestamp;\r\n        uint256 transactionCount;        \r\n    }\r\n\r\n    mapping (uint256 => Token) public _tokens;\r\n    mapping (string => address) private _solutionOwners;\r\n    mapping (string => address) private _tokenURIOwners;\r\n\r\n    address private _owner;\r\n    uint256 private _initialPrice;\r\n    uint256 private _royaltyRate;\r\n    uint256 private _priceEscalationRate;\r\n    uint256 private _currentTokenId;\r\n    string private _baseURIextended;\r\n\r\n    event TokenMinted (\r\n        string solution,\r\n        address payable account,\r\n        uint256 tokenId,\r\n        string metadataURI\r\n    );\r\n\r\n    event TokenSaleAllowed (\r\n        string solution,\r\n        address account,\r\n        uint256 tokenId,\r\n        string metadataURI,\r\n        uint256 price\r\n    );\r\n\r\n    event TokenSalePrevented (\r\n        string solution,\r\n        address account,\r\n        uint256 tokenId,\r\n        string metadataURI\r\n    );\r\n\r\n    constructor(string memory _name, string memory _symbol, uint256 initialPrice_, uint256 royaltyRate_, uint256 priceEscalationRate_) ERC721(_name, _symbol) {\r\n        _owner = msg.sender;\r\n        _currentTokenId = 0;\r\n        _initialPrice = initialPrice_;\r\n        _royaltyRate = royaltyRate_;\r\n        _priceEscalationRate = priceEscalationRate_;\r\n    }\r\n    \r\n    function setInitialPrice(uint256 initialPrice_) external onlyOwner() {\r\n        _initialPrice = initialPrice_;\r\n    }\r\n\r\n    function initialPrice() external view returns (uint256) {\r\n        return _initialPrice;\r\n    }\r\n\r\n    function setRoyaltyRate(uint256 royaltyRate_) external onlyOwner() {\r\n        _royaltyRate = royaltyRate_;   \r\n    }\r\n\r\n    function royaltyRate() external view returns (uint256) {\r\n        return _royaltyRate;\r\n    }\r\n\r\n    function setPriceEscalationRate(uint256 priceEscalationRate_) external onlyOwner() {\r\n        _priceEscalationRate = priceEscalationRate_;\r\n    }\r\n\r\n    function priceEscalationRate() external view returns (uint256) {\r\n        return _priceEscalationRate;\r\n    }\r\n\r\n    function tokenCount() external view returns (uint256) {\r\n        return _currentTokenId;\r\n    }\r\n\r\n    function tokenById(uint256 tokenId) external view returns(Token memory) {\r\n        require(_exists(tokenId), 'TokenId does not exist');  \r\n\r\n        Token memory token = _tokens[tokenId];\r\n        require(_exists(tokenId), 'Token does not exist');   \r\n\r\n        return token;\r\n    }\r\n\r\n    function tokensOfOwner(address _from) external view returns(Token[] memory) {\r\n        uint256 ownerCount = balanceOf(_from);\r\n        uint256 ownerIndex = 0;\r\n        Token[] memory ownerTokens = new Token[](ownerCount);\r\n\r\n        if (ownerCount > 0) {\r\n            Token[] memory allTokens = this.tokens();\r\n            \r\n            for (uint256 i = 0; i < _currentTokenId; i++) {\r\n                if (allTokens[i].owner == _from) {\r\n                    ownerTokens[ownerIndex] = allTokens[i];\r\n                    ownerIndex++;\r\n                }\r\n            }\r\n        }\r\n\r\n        return ownerTokens;\r\n    }\r\n\r\n    function tokens() external view returns(Token[] memory) {  \r\n        Token[] memory allTokens = new Token[](_currentTokenId);\r\n\r\n        for (uint256 i = 0; i < _currentTokenId; i++) {\r\n            allTokens[i] = _tokens[i];\r\n        }\r\n\r\n        return allTokens;\r\n    }\r\n    \r\n    function setBaseURI(string memory baseURI) external onlyOwner() {\r\n        _baseURIextended = baseURI;\r\n    }\r\n    \r\n    function _baseURI() internal view virtual override returns (string memory) {\r\n        return _baseURIextended;\r\n    }\r\n    \r\n    function isSolutionUnique(string memory solution_) public view returns (bool) {\r\n        return _solutionOwners[solution_] == address(0x0);\r\n    }\r\n\r\n    function tokenURI(uint256 tokenId) public view virtual override returns (string memory) {\r\n        require(_exists(tokenId), 'TokenId does not exist');\r\n\r\n        return _tokens[tokenId].url;\r\n    }\r\n\r\n    function mint(\r\n        address payable to,\r\n        string memory solution_,\r\n        string memory tokenURI_\r\n    ) external payable {  \r\n        require(msg.sender == to || msg.sender == _owner, 'Invalid to address');      \r\n        require(msg.value >= _initialPrice, 'Insufficient ether sent with this transaction'); \r\n        require(_solutionOwners[solution_] == address(0x0), 'A token has already been minted with this solution');\r\n        require(_tokenURIOwners[tokenURI_] == address(0x0), 'A token has already been minted with this URI');\r\n        require(bytes(solution_).length >= 5, 'A value for solution is required');\r\n        require(bytes(tokenURI_).length >= 28, 'A value for tokenURI is required'); // https://ipfs.infura.io/ipfs/\r\n\r\n        payable(owner()).transfer(msg.value);\r\n\r\n        _mint(to, _currentTokenId);\r\n\r\n        uint256 newPrice =_getEscalatedPrice(msg.value);\r\n\r\n        Token memory token = Token(_currentTokenId, to, newPrice, tokenURI_, solution_, false, block.timestamp, 1);\r\n       \r\n        _tokens[_currentTokenId] = token;\r\n        _solutionOwners[solution_] = to;\r\n        _tokenURIOwners[tokenURI_] = to;\r\n        _currentTokenId++;        \r\n        \r\n        emit TokenMinted(solution_, to, _currentTokenId, tokenURI_);\r\n    }\r\n\r\n    function allowSale(\r\n        address from,\r\n        uint256 tokenId,\r\n        uint256 price\r\n    ) external {    \r\n        require(_exists(tokenId), 'TokenId does not exist');   \r\n        require(_msgSender() == from || _msgSender() == _owner, 'Sender must be token owner or contract owner'); \r\n        require(_isApprovedOrOwner(_msgSender(), tokenId), 'Sender must be token owner or contract owner');         \r\n        \r\n        Token memory token = _tokens[tokenId];\r\n        require(_exists(token.id), 'Token does not exist');  \r\n        require(!token.isForSale, 'Token is already marked for sale');\r\n        require(price >= token.price, 'Token cannot be priced less than the current asking price');\r\n        \r\n        token.isForSale = true;\r\n        token.price = price;\r\n\r\n        _tokens[tokenId] = token; \r\n\r\n        emit TokenSaleAllowed(token.solution, token.owner, tokenId, token.url, price);\r\n    }\r\n\r\n    function preventSale(\r\n        address from,\r\n        uint256 tokenId\r\n    ) external {   \r\n        require(_exists(tokenId), 'TokenId does not exist');   \r\n        require(_msgSender() == from || _msgSender() == _owner, 'Sender must be token owner or contract owner'); \r\n        require(_isApprovedOrOwner(_msgSender(), tokenId), 'Sender must be token owner or contract owner');    \r\n        \r\n        Token memory token = _tokens[tokenId];\r\n        require(_exists(token.id), 'Token does not exist');  \r\n        require(token.isForSale, 'Token is already prevented from being sold'); \r\n        \r\n        token.isForSale = false;\r\n        \r\n        _tokens[tokenId] = token; \r\n\r\n        emit TokenSalePrevented(token.solution, token.owner, tokenId, token.url);\r\n    }\r\n\r\n    function buy(\r\n        address to,\r\n        uint256 tokenId\r\n    ) external payable {        \r\n        require(_exists(tokenId), 'TokenId does not exist');   \r\n\r\n        Token memory token = _tokens[tokenId];\r\n        require(_exists(token.id), 'Token does not exist');        \r\n        require(msg.value >= token.price, 'Insufficient ether sent with this transaction');\r\n        require(token.isForSale, 'Token is not for sale');\r\n        require(token.owner != to, 'Buyer already owns token'); \r\n       \r\n        string memory solution_ = token.solution;\r\n        string memory tokenURI_ = token.url;\r\n\r\n        uint256 totalRoyalty = _getRoyalty(msg.value); \r\n        uint256 remainder = msg.value - totalRoyalty;\r\n\r\n        payable(owner()).transfer(totalRoyalty);\r\n        payable(address(token.owner)).transfer(remainder);\r\n        \r\n        _transfer(token.owner, to, tokenId);\r\n\r\n        _solutionOwners[solution_] = to;\r\n        _tokenURIOwners[tokenURI_] = to;\r\n\r\n        uint256 newPrice = _getEscalatedPrice(msg.value);\r\n\r\n        token.owner = to;\r\n        token.price = newPrice;\r\n        token.isForSale = false;\r\n        token.lastTransactionTimestamp = block.timestamp;\r\n        token.transactionCount++;       \r\n\r\n        _tokens[tokenId] = token; \r\n    }\r\n  \r\n    function _getRoyalty(uint256 value) private view returns (uint256) {\r\n        return value * _royaltyRate / 10000 ;  // todo need safe multiply    \r\n    }\r\n\r\n    function _getEscalatedPrice(uint256 value) private view returns (uint256) {\r\n        uint256 divisor = 10**15;\r\n        uint256 newPrice = value * _priceEscalationRate / 10000 ;  // todo need safe multiply    \r\n        \r\n        return (newPrice / divisor) * divisor;  // round off new price to nearest 1E15\r\n    }\r\n  \r\n    // todo how to prevent base _transfer from being called directly\r\n\r\n    function transferFrom(\r\n        address /*from*/,\r\n        address /*to*/,\r\n        uint256 /*tokenId*/\r\n    ) public view override {\r\n        require(_msgSender() == _owner, 'Method may only be called by the owner');\r\n    }\r\n\r\n    function safeTransferFrom(\r\n        address /*from*/,\r\n        address /*to*/,\r\n        uint256 /*tokenId*/\r\n    ) public view override {\r\n        require(_msgSender() == _owner, 'Method may only be called by the owner');\r\n    }\r\n\r\n    function safeTransferFrom(\r\n        address /*from*/,\r\n        address /*to*/,\r\n        uint256 /*tokenId*/,\r\n        bytes memory /*_data*/\r\n    ) public view override {\r\n        require(_msgSender() == _owner, 'Method may only be called by the owner');\r\n    }\r\n}",
  "sourcePath": "C:\\Dev\\Github\\ethordle\\contracts\\EthordleToken.sol",
  "compiler": {
    "name": "solc",
    "version": "0.8.1+commit.df193b15.Emscripten.clang"
  },
  "schemaVersion": "3.4.6",
  "updatedAt": "2022-04-28T18:20:57.602Z",
  "networkType": "ethereum",
  "devdoc": {
    "kind": "dev",
    "methods": {
      "approve(address,uint256)": {
        "details": "See {IERC721-approve}."
      },
      "balanceOf(address)": {
        "details": "See {IERC721-balanceOf}."
      },
      "getApproved(uint256)": {
        "details": "See {IERC721-getApproved}."
      },
      "isApprovedForAll(address,address)": {
        "details": "See {IERC721-isApprovedForAll}."
      },
      "name()": {
        "details": "See {IERC721Metadata-name}."
      },
      "owner()": {
        "details": "Returns the address of the current owner."
      },
      "ownerOf(uint256)": {
        "details": "See {IERC721-ownerOf}."
      },
      "renounceOwnership()": {
        "details": "Leaves the contract without owner. It will not be possible to call `onlyOwner` functions anymore. Can only be called by the current owner. NOTE: Renouncing ownership will leave the contract without an owner, thereby removing any functionality that is only available to the owner."
      },
      "setApprovalForAll(address,bool)": {
        "details": "See {IERC721-setApprovalForAll}."
      },
      "supportsInterface(bytes4)": {
        "details": "See {IERC165-supportsInterface}."
      },
      "symbol()": {
        "details": "See {IERC721Metadata-symbol}."
      },
      "tokenURI(uint256)": {
        "details": "See {IERC721Metadata-tokenURI}."
      },
      "transferOwnership(address)": {
        "details": "Transfers ownership of the contract to a new account (`newOwner`). Can only be called by the current owner."
      }
    },
    "version": 1
  },
  "userdoc": {
    "kind": "user",
    "methods": {},
    "version": 1
  }
}