{
  "contractName": "EthordleToken",
  "abi": [
    {
      "inputs": [
        {
          "internalType": "string",
          "name": "_name",
          "type": "string"
        },
        {
          "internalType": "string",
          "name": "_symbol",
          "type": "string"
        },
        {
          "internalType": "uint256",
          "name": "price",
          "type": "uint256"
        },
        {
          "internalType": "uint256",
          "name": "royalty",
          "type": "uint256"
        }
      ],
      "stateMutability": "nonpayable",
      "type": "constructor"
    },
    {
      "anonymous": false,
      "inputs": [
        {
          "indexed": true,
          "internalType": "address",
          "name": "owner",
          "type": "address"
        },
        {
          "indexed": true,
          "internalType": "address",
          "name": "approved",
          "type": "address"
        },
        {
          "indexed": true,
          "internalType": "uint256",
          "name": "tokenId",
          "type": "uint256"
        }
      ],
      "name": "Approval",
      "type": "event"
    },
    {
      "anonymous": false,
      "inputs": [
        {
          "indexed": true,
          "internalType": "address",
          "name": "owner",
          "type": "address"
        },
        {
          "indexed": true,
          "internalType": "address",
          "name": "operator",
          "type": "address"
        },
        {
          "indexed": false,
          "internalType": "bool",
          "name": "approved",
          "type": "bool"
        }
      ],
      "name": "ApprovalForAll",
      "type": "event"
    },
    {
      "anonymous": false,
      "inputs": [
        {
          "indexed": true,
          "internalType": "address",
          "name": "previousOwner",
          "type": "address"
        },
        {
          "indexed": true,
          "internalType": "address",
          "name": "newOwner",
          "type": "address"
        }
      ],
      "name": "OwnershipTransferred",
      "type": "event"
    },
    {
      "anonymous": false,
      "inputs": [
        {
          "indexed": false,
          "internalType": "string",
          "name": "solution",
          "type": "string"
        },
        {
          "indexed": false,
          "internalType": "address payable",
          "name": "account",
          "type": "address"
        },
        {
          "indexed": false,
          "internalType": "uint256",
          "name": "tokenId",
          "type": "uint256"
        },
        {
          "indexed": false,
          "internalType": "string",
          "name": "metadataURI",
          "type": "string"
        }
      ],
      "name": "TokenMinted",
      "type": "event"
    },
    {
      "anonymous": false,
      "inputs": [
        {
          "indexed": true,
          "internalType": "address",
          "name": "from",
          "type": "address"
        },
        {
          "indexed": true,
          "internalType": "address",
          "name": "to",
          "type": "address"
        },
        {
          "indexed": true,
          "internalType": "uint256",
          "name": "tokenId",
          "type": "uint256"
        }
      ],
      "name": "Transfer",
      "type": "event"
    },
    {
      "inputs": [
        {
          "internalType": "address",
          "name": "to",
          "type": "address"
        },
        {
          "internalType": "uint256",
          "name": "tokenId",
          "type": "uint256"
        }
      ],
      "name": "approve",
      "outputs": [],
      "stateMutability": "nonpayable",
      "type": "function"
    },
    {
      "inputs": [
        {
          "internalType": "address",
          "name": "owner",
          "type": "address"
        }
      ],
      "name": "balanceOf",
      "outputs": [
        {
          "internalType": "uint256",
          "name": "",
          "type": "uint256"
        }
      ],
      "stateMutability": "view",
      "type": "function",
      "constant": true
    },
    {
      "inputs": [
        {
          "internalType": "uint256",
          "name": "tokenId",
          "type": "uint256"
        }
      ],
      "name": "getApproved",
      "outputs": [
        {
          "internalType": "address",
          "name": "",
          "type": "address"
        }
      ],
      "stateMutability": "view",
      "type": "function",
      "constant": true
    },
    {
      "inputs": [
        {
          "internalType": "address",
          "name": "owner",
          "type": "address"
        },
        {
          "internalType": "address",
          "name": "operator",
          "type": "address"
        }
      ],
      "name": "isApprovedForAll",
      "outputs": [
        {
          "internalType": "bool",
          "name": "",
          "type": "bool"
        }
      ],
      "stateMutability": "view",
      "type": "function",
      "constant": true
    },
    {
      "inputs": [],
      "name": "name",
      "outputs": [
        {
          "internalType": "string",
          "name": "",
          "type": "string"
        }
      ],
      "stateMutability": "view",
      "type": "function",
      "constant": true
    },
    {
      "inputs": [],
      "name": "owner",
      "outputs": [
        {
          "internalType": "address",
          "name": "",
          "type": "address"
        }
      ],
      "stateMutability": "view",
      "type": "function",
      "constant": true
    },
    {
      "inputs": [
        {
          "internalType": "uint256",
          "name": "tokenId",
          "type": "uint256"
        }
      ],
      "name": "ownerOf",
      "outputs": [
        {
          "internalType": "address",
          "name": "",
          "type": "address"
        }
      ],
      "stateMutability": "view",
      "type": "function",
      "constant": true
    },
    {
      "inputs": [],
      "name": "renounceOwnership",
      "outputs": [],
      "stateMutability": "nonpayable",
      "type": "function"
    },
    {
      "inputs": [
        {
          "internalType": "address",
          "name": "from",
          "type": "address"
        },
        {
          "internalType": "address",
          "name": "to",
          "type": "address"
        },
        {
          "internalType": "uint256",
          "name": "tokenId",
          "type": "uint256"
        }
      ],
      "name": "safeTransferFrom",
      "outputs": [],
      "stateMutability": "nonpayable",
      "type": "function"
    },
    {
      "inputs": [
        {
          "internalType": "address",
          "name": "from",
          "type": "address"
        },
        {
          "internalType": "address",
          "name": "to",
          "type": "address"
        },
        {
          "internalType": "uint256",
          "name": "tokenId",
          "type": "uint256"
        },
        {
          "internalType": "bytes",
          "name": "_data",
          "type": "bytes"
        }
      ],
      "name": "safeTransferFrom",
      "outputs": [],
      "stateMutability": "nonpayable",
      "type": "function"
    },
    {
      "inputs": [
        {
          "internalType": "address",
          "name": "operator",
          "type": "address"
        },
        {
          "internalType": "bool",
          "name": "approved",
          "type": "bool"
        }
      ],
      "name": "setApprovalForAll",
      "outputs": [],
      "stateMutability": "nonpayable",
      "type": "function"
    },
    {
      "inputs": [
        {
          "internalType": "bytes4",
          "name": "interfaceId",
          "type": "bytes4"
        }
      ],
      "name": "supportsInterface",
      "outputs": [
        {
          "internalType": "bool",
          "name": "",
          "type": "bool"
        }
      ],
      "stateMutability": "view",
      "type": "function",
      "constant": true
    },
    {
      "inputs": [],
      "name": "symbol",
      "outputs": [
        {
          "internalType": "string",
          "name": "",
          "type": "string"
        }
      ],
      "stateMutability": "view",
      "type": "function",
      "constant": true
    },
    {
      "inputs": [
        {
          "internalType": "address",
          "name": "from",
          "type": "address"
        },
        {
          "internalType": "address",
          "name": "to",
          "type": "address"
        },
        {
          "internalType": "uint256",
          "name": "tokenId",
          "type": "uint256"
        }
      ],
      "name": "transferFrom",
      "outputs": [],
      "stateMutability": "nonpayable",
      "type": "function"
    },
    {
      "inputs": [
        {
          "internalType": "address",
          "name": "newOwner",
          "type": "address"
        }
      ],
      "name": "transferOwnership",
      "outputs": [],
      "stateMutability": "nonpayable",
      "type": "function"
    },
    {
      "inputs": [
        {
          "internalType": "uint256",
          "name": "price",
          "type": "uint256"
        }
      ],
      "name": "setPrice",
      "outputs": [],
      "stateMutability": "nonpayable",
      "type": "function"
    },
    {
      "inputs": [
        {
          "internalType": "uint256",
          "name": "royalty",
          "type": "uint256"
        }
      ],
      "name": "setRoyalty",
      "outputs": [],
      "stateMutability": "nonpayable",
      "type": "function"
    },
    {
      "inputs": [],
      "name": "getMintedTokenCount",
      "outputs": [
        {
          "internalType": "uint256",
          "name": "",
          "type": "uint256"
        }
      ],
      "stateMutability": "view",
      "type": "function",
      "constant": true
    },
    {
      "inputs": [
        {
          "internalType": "address",
          "name": "_from",
          "type": "address"
        }
      ],
      "name": "getMintedTokensOfOwner",
      "outputs": [
        {
          "internalType": "uint256[]",
          "name": "ownerTokenIds",
          "type": "uint256[]"
        }
      ],
      "stateMutability": "view",
      "type": "function",
      "constant": true
    },
    {
      "inputs": [
        {
          "internalType": "string",
          "name": "baseURI",
          "type": "string"
        }
      ],
      "name": "setBaseURI",
      "outputs": [],
      "stateMutability": "nonpayable",
      "type": "function"
    },
    {
      "inputs": [
        {
          "internalType": "uint256",
          "name": "tokenId",
          "type": "uint256"
        }
      ],
      "name": "tokenURI",
      "outputs": [
        {
          "internalType": "string",
          "name": "",
          "type": "string"
        }
      ],
      "stateMutability": "view",
      "type": "function",
      "constant": true
    },
    {
      "inputs": [
        {
          "internalType": "address payable",
          "name": "to",
          "type": "address"
        },
        {
          "internalType": "string",
          "name": "solution",
          "type": "string"
        },
        {
          "internalType": "string",
          "name": "tokenURI_",
          "type": "string"
        }
      ],
      "name": "mint",
      "outputs": [],
      "stateMutability": "payable",
      "type": "function",
      "payable": true
    },
    {
      "inputs": [
        {
          "internalType": "address",
          "name": "from",
          "type": "address"
        },
        {
          "internalType": "address",
          "name": "to",
          "type": "address"
        },
        {
          "internalType": "uint256",
          "name": "tokenId",
          "type": "uint256"
        }
      ],
      "name": "transfer",
      "outputs": [],
      "stateMutability": "payable",
      "type": "function",
      "payable": true
    }
  ],
  "bytecode": "0x60806040523480156200001157600080fd5b5060405162003c7738038062003c778339818101604052810190620000379190620002cd565b838381600090805190602001906200005192919062000194565b5080600190805190602001906200006a92919062000194565b5050506200008d62000081620000c660201b60201c565b620000ce60201b60201c565b6000600b81905550633b9aca0082620000a79190620003ca565b600981905550600060098190555080600a81905550505050506200058f565b600033905090565b6000600660009054906101000a900473ffffffffffffffffffffffffffffffffffffffff16905081600660006101000a81548173ffffffffffffffffffffffffffffffffffffffff021916908373ffffffffffffffffffffffffffffffffffffffff1602179055508173ffffffffffffffffffffffffffffffffffffffff168173ffffffffffffffffffffffffffffffffffffffff167f8be0079c531659141344cd1fd0a4f28419497f9722a3daafe3b4186f6b6457e060405160405180910390a35050565b828054620001a2906200046b565b90600052602060002090601f016020900481019282620001c6576000855562000212565b82601f10620001e157805160ff191683800117855562000212565b8280016001018555821562000212579182015b8281111562000211578251825591602001919060010190620001f4565b5b50905062000221919062000225565b5090565b5b808211156200024057600081600090555060010162000226565b5090565b60006200025b620002558462000394565b6200036b565b9050828152602081018484840111156200027457600080fd5b6200028184828562000435565b509392505050565b600082601f8301126200029b57600080fd5b8151620002ad84826020860162000244565b91505092915050565b600081519050620002c78162000575565b92915050565b60008060008060808587031215620002e457600080fd5b600085015167ffffffffffffffff811115620002ff57600080fd5b6200030d8782880162000289565b945050602085015167ffffffffffffffff8111156200032b57600080fd5b620003398782880162000289565b93505060406200034c87828801620002b6565b92505060606200035f87828801620002b6565b91505092959194509250565b6000620003776200038a565b9050620003858282620004a1565b919050565b6000604051905090565b600067ffffffffffffffff821115620003b257620003b162000535565b5b620003bd8262000564565b9050602081019050919050565b6000620003d7826200042b565b9150620003e4836200042b565b9250817fffffffffffffffffffffffffffffffffffffffffffffffffffffffffffffffff048311821515161562000420576200041f620004d7565b5b828202905092915050565b6000819050919050565b60005b838110156200045557808201518184015260208101905062000438565b8381111562000465576000848401525b50505050565b600060028204905060018216806200048457607f821691505b602082108114156200049b576200049a62000506565b5b50919050565b620004ac8262000564565b810181811067ffffffffffffffff82111715620004ce57620004cd62000535565b5b80604052505050565b7f4e487b7100000000000000000000000000000000000000000000000000000000600052601160045260246000fd5b7f4e487b7100000000000000000000000000000000000000000000000000000000600052602260045260246000fd5b7f4e487b7100000000000000000000000000000000000000000000000000000000600052604160045260246000fd5b6000601f19601f8301169050919050565b62000580816200042b565b81146200058c57600080fd5b50565b6136d8806200059f6000396000f3fe6080604052600436106101405760003560e01c80638630385c116100b6578063a22cb4651161006f578063a22cb4651461044b578063b88d4fde14610474578063beabacc81461049d578063c87b56dd146104b9578063e985e9c5146104f6578063f2fde38b1461053357610140565b80638630385c146103485780638671bc8b146103855780638da5cb5b146103b057806391b7f5ed146103db57806395d89b4114610404578063990711901461042f57610140565b80634209a2e1116101085780634209a2e11461023c57806342842e0e1461026557806355f804b31461028e5780636352211e146102b757806370a08231146102f4578063715018a61461033157610140565b806301ffc9a71461014557806306fdde0314610182578063081812fc146101ad578063095ea7b3146101ea57806323b872dd14610213575b600080fd5b34801561015157600080fd5b5061016c60048036038101906101679190612593565b61055c565b6040516101799190612ab3565b60405180910390f35b34801561018e57600080fd5b5061019761063e565b6040516101a49190612ace565b60405180910390f35b3480156101b957600080fd5b506101d460048036038101906101cf9190612626565b6106d0565b6040516101e19190612a2a565b60405180910390f35b3480156101f657600080fd5b50610211600480360381019061020c9190612557565b610755565b005b34801561021f57600080fd5b5061023a60048036038101906102359190612451565b61086d565b005b34801561024857600080fd5b50610263600480360381019061025e9190612626565b6108cd565b005b34801561027157600080fd5b5061028c60048036038101906102879190612451565b610953565b005b34801561029a57600080fd5b506102b560048036038101906102b091906125e5565b610973565b005b3480156102c357600080fd5b506102de60048036038101906102d99190612626565b610a09565b6040516102eb9190612a2a565b60405180910390f35b34801561030057600080fd5b5061031b6004803603810190610316919061236d565b610abb565b6040516103289190612d63565b60405180910390f35b34801561033d57600080fd5b50610346610b73565b005b34801561035457600080fd5b5061036f600480360381019061036a919061236d565b610bfb565b60405161037c9190612a91565b60405180910390f35b34801561039157600080fd5b5061039a610de8565b6040516103a79190612d63565b60405180910390f35b3480156103bc57600080fd5b506103c5610df2565b6040516103d29190612a2a565b60405180910390f35b3480156103e757600080fd5b5061040260048036038101906103fd9190612626565b610e1c565b005b34801561041057600080fd5b50610419610ea2565b6040516104269190612ace565b60405180910390f35b61044960048036038101906104449190612396565b610f34565b005b34801561045757600080fd5b50610472600480360381019061046d919061251b565b6110ad565b005b34801561048057600080fd5b5061049b600480360381019061049691906124a0565b6110c3565b005b6104b760048036038101906104b29190612451565b611125565b005b3480156104c557600080fd5b506104e060048036038101906104db9190612626565b611135565b6040516104ed9190612ace565b60405180910390f35b34801561050257600080fd5b5061051d60048036038101906105189190612415565b6112a8565b60405161052a9190612ab3565b60405180910390f35b34801561053f57600080fd5b5061055a6004803603810190610555919061236d565b61133c565b005b60007f80ac58cd000000000000000000000000000000000000000000000000000000007bffffffffffffffffffffffffffffffffffffffffffffffffffffffff1916827bffffffffffffffffffffffffffffffffffffffffffffffffffffffff1916148061062757507f5b5e139f000000000000000000000000000000000000000000000000000000007bffffffffffffffffffffffffffffffffffffffffffffffffffffffff1916827bffffffffffffffffffffffffffffffffffffffffffffffffffffffff1916145b80610637575061063682611434565b5b9050919050565b60606000805461064d90613004565b80601f016020809104026020016040519081016040528092919081815260200182805461067990613004565b80156106c65780601f1061069b576101008083540402835291602001916106c6565b820191906000526020600020905b8154815290600101906020018083116106a957829003601f168201915b5050505050905090565b60006106db8261149e565b61071a576040517f08c379a000000000000000000000000000000000000000000000000000000000815260040161071190612ca3565b60405180910390fd5b6004600083815260200190815260200160002060009054906101000a900473ffffffffffffffffffffffffffffffffffffffff169050919050565b600061076082610a09565b90508073ffffffffffffffffffffffffffffffffffffffff168373ffffffffffffffffffffffffffffffffffffffff1614156107d1576040517f08c379a00000000000000000000000000000000000000000000000000000000081526004016107c890612ce3565b60405180910390fd5b8073ffffffffffffffffffffffffffffffffffffffff166107f061150a565b73ffffffffffffffffffffffffffffffffffffffff16148061081f575061081e8161081961150a565b6112a8565b5b61085e576040517f08c379a000000000000000000000000000000000000000000000000000000000815260040161085590612c23565b60405180910390fd5b6108688383611512565b505050565b61087e61087861150a565b826115cb565b6108bd576040517f08c379a00000000000000000000000000000000000000000000000000000000081526004016108b490612d43565b60405180910390fd5b6108c88383836116a9565b505050565b6108d561150a565b73ffffffffffffffffffffffffffffffffffffffff166108f3610df2565b73ffffffffffffffffffffffffffffffffffffffff1614610949576040517f08c379a000000000000000000000000000000000000000000000000000000000815260040161094090612cc3565b60405180910390fd5b80600a8190555050565b61096e838383604051806020016040528060008152506110c3565b505050565b61097b61150a565b73ffffffffffffffffffffffffffffffffffffffff16610999610df2565b73ffffffffffffffffffffffffffffffffffffffff16146109ef576040517f08c379a00000000000000000000000000000000000000000000000000000000081526004016109e690612cc3565b60405180910390fd5b80600c9080519060200190610a0592919061217c565b5050565b6000806002600084815260200190815260200160002060009054906101000a900473ffffffffffffffffffffffffffffffffffffffff169050600073ffffffffffffffffffffffffffffffffffffffff168173ffffffffffffffffffffffffffffffffffffffff161415610ab2576040517f08c379a0000000000000000000000000000000000000000000000000000000008152600401610aa990612c63565b60405180910390fd5b80915050919050565b60008073ffffffffffffffffffffffffffffffffffffffff168273ffffffffffffffffffffffffffffffffffffffff161415610b2c576040517f08c379a0000000000000000000000000000000000000000000000000000000008152600401610b2390612c43565b60405180910390fd5b600360008373ffffffffffffffffffffffffffffffffffffffff1673ffffffffffffffffffffffffffffffffffffffff168152602001908152602001600020549050919050565b610b7b61150a565b73ffffffffffffffffffffffffffffffffffffffff16610b99610df2565b73ffffffffffffffffffffffffffffffffffffffff1614610bef576040517f08c379a0000000000000000000000000000000000000000000000000000000008152600401610be690612cc3565b60405180910390fd5b610bf96000611910565b565b60606000610c0883610abb565b90506000811415610c8b57600067ffffffffffffffff811115610c54577f4e487b7100000000000000000000000000000000000000000000000000000000600052604160045260246000fd5b604051908082528060200260200182016040528015610c825781602001602082028036833780820191505090505b50915050610de3565b60008167ffffffffffffffff811115610ccd577f4e487b7100000000000000000000000000000000000000000000000000000000600052604160045260246000fd5b604051908082528060200260200182016040528015610cfb5781602001602082028036833780820191505090505b5090506000805b600b54811015610ddb578573ffffffffffffffffffffffffffffffffffffffff166008600083815260200190815260200160002060009054906101000a900473ffffffffffffffffffffffffffffffffffffffff1673ffffffffffffffffffffffffffffffffffffffff161415610dc85780838381518110610dad577f4e487b7100000000000000000000000000000000000000000000000000000000600052603260045260246000fd5b6020026020010181815250508180610dc490613067565b9250505b8080610dd390613067565b915050610d02565b829450505050505b919050565b6000600b54905090565b6000600660009054906101000a900473ffffffffffffffffffffffffffffffffffffffff16905090565b610e2461150a565b73ffffffffffffffffffffffffffffffffffffffff16610e42610df2565b73ffffffffffffffffffffffffffffffffffffffff1614610e98576040517f08c379a0000000000000000000000000000000000000000000000000000000008152600401610e8f90612cc3565b60405180910390fd5b8060098190555050565b606060018054610eb190613004565b80601f0160208091040260200160405190810160405280929190818152602001828054610edd90613004565b8015610f2a5780601f10610eff57610100808354040283529160200191610f2a565b820191906000526020600020905b815481529060010190602001808311610f0d57829003601f168201915b5050505050905090565b600954341015610f79576040517f08c379a0000000000000000000000000000000000000000000000000000000008152600401610f7090612d03565b60405180910390fd5b610f81610df2565b73ffffffffffffffffffffffffffffffffffffffff166108fc349081150290604051600060405180830381858888f19350505050158015610fc6573d6000803e3d6000fd5b50610fd383600b546119d6565b8060076000600b5481526020019081526020016000209080519060200190610ffc92919061217c565b508260086000600b54815260200190815260200160002060006101000a81548173ffffffffffffffffffffffffffffffffffffffff021916908373ffffffffffffffffffffffffffffffffffffffff160217905550600b600081548092919061106490613067565b91905055507f69e2cadceb55416f48e5a82e3641de7889495c2e02c86d37aaa313d121e8e7428284600b54846040516110a09493929190612af0565b60405180910390a1505050565b6110bf6110b861150a565b8383611bb0565b5050565b6110d46110ce61150a565b836115cb565b611113576040517f08c379a000000000000000000000000000000000000000000000000000000000815260040161110a90612d43565b60405180910390fd5b61111f84848484611d1d565b50505050565b6111308383836116a9565b505050565b60606111408261149e565b61117f576040517f08c379a000000000000000000000000000000000000000000000000000000000815260040161117690612d23565b60405180910390fd5b600060076000848152602001908152602001600020805461119f90613004565b80601f01602080910402602001604051908101604052809291908181526020018280546111cb90613004565b80156112185780601f106111ed57610100808354040283529160200191611218565b820191906000526020600020905b8154815290600101906020018083116111fb57829003601f168201915b505050505090506000611229611d79565b905060008151141561123f5781925050506112a3565b60008251111561127457808260405160200161125c929190612a06565b604051602081830303815290604052925050506112a3565b8061127e85611e0b565b60405160200161128f929190612a06565b604051602081830303815290604052925050505b919050565b6000600560008473ffffffffffffffffffffffffffffffffffffffff1673ffffffffffffffffffffffffffffffffffffffff16815260200190815260200160002060008373ffffffffffffffffffffffffffffffffffffffff1673ffffffffffffffffffffffffffffffffffffffff16815260200190815260200160002060009054906101000a900460ff16905092915050565b61134461150a565b73ffffffffffffffffffffffffffffffffffffffff16611362610df2565b73ffffffffffffffffffffffffffffffffffffffff16146113b8576040517f08c379a00000000000000000000000000000000000000000000000000000000081526004016113af90612cc3565b60405180910390fd5b600073ffffffffffffffffffffffffffffffffffffffff168173ffffffffffffffffffffffffffffffffffffffff161415611428576040517f08c379a000000000000000000000000000000000000000000000000000000000815260040161141f90612b63565b60405180910390fd5b61143181611910565b50565b60007f01ffc9a7000000000000000000000000000000000000000000000000000000007bffffffffffffffffffffffffffffffffffffffffffffffffffffffff1916827bffffffffffffffffffffffffffffffffffffffffffffffffffffffff1916149050919050565b60008073ffffffffffffffffffffffffffffffffffffffff166002600084815260200190815260200160002060009054906101000a900473ffffffffffffffffffffffffffffffffffffffff1673ffffffffffffffffffffffffffffffffffffffff1614159050919050565b600033905090565b816004600083815260200190815260200160002060006101000a81548173ffffffffffffffffffffffffffffffffffffffff021916908373ffffffffffffffffffffffffffffffffffffffff160217905550808273ffffffffffffffffffffffffffffffffffffffff1661158583610a09565b73ffffffffffffffffffffffffffffffffffffffff167f8c5be1e5ebec7d5bd14f71427d1e84f3dd0314c0f7b2291e5b200ac8c7c3b92560405160405180910390a45050565b60006115d68261149e565b611615576040517f08c379a000000000000000000000000000000000000000000000000000000000815260040161160c90612c03565b60405180910390fd5b600061162083610a09565b90508073ffffffffffffffffffffffffffffffffffffffff168473ffffffffffffffffffffffffffffffffffffffff16148061168f57508373ffffffffffffffffffffffffffffffffffffffff16611677846106d0565b73ffffffffffffffffffffffffffffffffffffffff16145b806116a0575061169f81856112a8565b5b91505092915050565b8273ffffffffffffffffffffffffffffffffffffffff166116c982610a09565b73ffffffffffffffffffffffffffffffffffffffff161461171f576040517f08c379a000000000000000000000000000000000000000000000000000000000815260040161171690612b83565b60405180910390fd5b600073ffffffffffffffffffffffffffffffffffffffff168273ffffffffffffffffffffffffffffffffffffffff16141561178f576040517f08c379a000000000000000000000000000000000000000000000000000000000815260040161178690612bc3565b60405180910390fd5b61179a838383611fb8565b6117a5600082611512565b6001600360008573ffffffffffffffffffffffffffffffffffffffff1673ffffffffffffffffffffffffffffffffffffffff16815260200190815260200160002060008282546117f59190612f08565b925050819055506001600360008473ffffffffffffffffffffffffffffffffffffffff1673ffffffffffffffffffffffffffffffffffffffff168152602001908152602001600020600082825461184c9190612e81565b92505081905550816002600083815260200190815260200160002060006101000a81548173ffffffffffffffffffffffffffffffffffffffff021916908373ffffffffffffffffffffffffffffffffffffffff160217905550808273ffffffffffffffffffffffffffffffffffffffff168473ffffffffffffffffffffffffffffffffffffffff167fddf252ad1be2c89b69c2b068fc378daa952ba7f163c4a11628f55a4df523b3ef60405160405180910390a461190b838383611fbd565b505050565b6000600660009054906101000a900473ffffffffffffffffffffffffffffffffffffffff16905081600660006101000a81548173ffffffffffffffffffffffffffffffffffffffff021916908373ffffffffffffffffffffffffffffffffffffffff1602179055508173ffffffffffffffffffffffffffffffffffffffff168173ffffffffffffffffffffffffffffffffffffffff167f8be0079c531659141344cd1fd0a4f28419497f9722a3daafe3b4186f6b6457e060405160405180910390a35050565b600073ffffffffffffffffffffffffffffffffffffffff168273ffffffffffffffffffffffffffffffffffffffff161415611a46576040517f08c379a0000000000000000000000000000000000000000000000000000000008152600401611a3d90612c83565b60405180910390fd5b611a4f8161149e565b15611a8f576040517f08c379a0000000000000000000000000000000000000000000000000000000008152600401611a8690612ba3565b60405180910390fd5b611a9b60008383611fb8565b6001600360008473ffffffffffffffffffffffffffffffffffffffff1673ffffffffffffffffffffffffffffffffffffffff1681526020019081526020016000206000828254611aeb9190612e81565b92505081905550816002600083815260200190815260200160002060006101000a81548173ffffffffffffffffffffffffffffffffffffffff021916908373ffffffffffffffffffffffffffffffffffffffff160217905550808273ffffffffffffffffffffffffffffffffffffffff16600073ffffffffffffffffffffffffffffffffffffffff167fddf252ad1be2c89b69c2b068fc378daa952ba7f163c4a11628f55a4df523b3ef60405160405180910390a4611bac60008383611fbd565b5050565b8173ffffffffffffffffffffffffffffffffffffffff168373ffffffffffffffffffffffffffffffffffffffff161415611c1f576040517f08c379a0000000000000000000000000000000000000000000000000000000008152600401611c1690612be3565b60405180910390fd5b80600560008573ffffffffffffffffffffffffffffffffffffffff1673ffffffffffffffffffffffffffffffffffffffff16815260200190815260200160002060008473ffffffffffffffffffffffffffffffffffffffff1673ffffffffffffffffffffffffffffffffffffffff16815260200190815260200160002060006101000a81548160ff0219169083151502179055508173ffffffffffffffffffffffffffffffffffffffff168373ffffffffffffffffffffffffffffffffffffffff167f17307eab39ab6107e8899845ad3d59bd9653f200f220920489ca2b5937696c3183604051611d109190612ab3565b60405180910390a3505050565b611d288484846116a9565b611d3484848484611fc2565b611d73576040517f08c379a0000000000000000000000000000000000000000000000000000000008152600401611d6a90612b43565b60405180910390fd5b50505050565b6060600c8054611d8890613004565b80601f0160208091040260200160405190810160405280929190818152602001828054611db490613004565b8015611e015780601f10611dd657610100808354040283529160200191611e01565b820191906000526020600020905b815481529060010190602001808311611de457829003601f168201915b5050505050905090565b60606000821415611e53576040518060400160405280600181526020017f30000000000000000000000000000000000000000000000000000000000000008152509050611fb3565b600082905060005b60008214611e85578080611e6e90613067565b915050600a82611e7e9190612ed7565b9150611e5b565b60008167ffffffffffffffff811115611ec7577f4e487b7100000000000000000000000000000000000000000000000000000000600052604160045260246000fd5b6040519080825280601f01601f191660200182016040528015611ef95781602001600182028036833780820191505090505b5090505b60008514611fac57600182611f129190612f08565b9150600a85611f2191906130b0565b6030611f2d9190612e81565b60f81b818381518110611f69577f4e487b7100000000000000000000000000000000000000000000000000000000600052603260045260246000fd5b60200101907effffffffffffffffffffffffffffffffffffffffffffffffffffffffffffff1916908160001a905350600a85611fa59190612ed7565b9450611efd565b8093505050505b919050565b505050565b505050565b6000611fe38473ffffffffffffffffffffffffffffffffffffffff16612159565b1561214c578373ffffffffffffffffffffffffffffffffffffffff1663150b7a0261200c61150a565b8786866040518563ffffffff1660e01b815260040161202e9493929190612a45565b602060405180830381600087803b15801561204857600080fd5b505af192505050801561207957506040513d601f19601f8201168201806040525081019061207691906125bc565b60015b6120fc573d80600081146120a9576040519150601f19603f3d011682016040523d82523d6000602084013e6120ae565b606091505b506000815114156120f4576040517f08c379a00000000000000000000000000000000000000000000000000000000081526004016120eb90612b43565b60405180910390fd5b805181602001fd5b63150b7a0260e01b7bffffffffffffffffffffffffffffffffffffffffffffffffffffffff1916817bffffffffffffffffffffffffffffffffffffffffffffffffffffffff191614915050612151565b600190505b949350505050565b6000808273ffffffffffffffffffffffffffffffffffffffff163b119050919050565b82805461218890613004565b90600052602060002090601f0160209004810192826121aa57600085556121f1565b82601f106121c357805160ff19168380011785556121f1565b828001600101855582156121f1579182015b828111156121f05782518255916020019190600101906121d5565b5b5090506121fe9190612202565b5090565b5b8082111561221b576000816000905550600101612203565b5090565b600061223261222d84612da3565b612d7e565b90508281526020810184848401111561224a57600080fd5b612255848285612fc2565b509392505050565b600061227061226b84612dd4565b612d7e565b90508281526020810184848401111561228857600080fd5b612293848285612fc2565b509392505050565b6000813590506122aa8161362f565b92915050565b6000813590506122bf81613646565b92915050565b6000813590506122d48161365d565b92915050565b6000813590506122e981613674565b92915050565b6000815190506122fe81613674565b92915050565b600082601f83011261231557600080fd5b813561232584826020860161221f565b91505092915050565b600082601f83011261233f57600080fd5b813561234f84826020860161225d565b91505092915050565b6000813590506123678161368b565b92915050565b60006020828403121561237f57600080fd5b600061238d8482850161229b565b91505092915050565b6000806000606084860312156123ab57600080fd5b60006123b9868287016122b0565b935050602084013567ffffffffffffffff8111156123d657600080fd5b6123e28682870161232e565b925050604084013567ffffffffffffffff8111156123ff57600080fd5b61240b8682870161232e565b9150509250925092565b6000806040838503121561242857600080fd5b60006124368582860161229b565b92505060206124478582860161229b565b9150509250929050565b60008060006060848603121561246657600080fd5b60006124748682870161229b565b93505060206124858682870161229b565b925050604061249686828701612358565b9150509250925092565b600080600080608085870312156124b657600080fd5b60006124c48782880161229b565b94505060206124d58782880161229b565b93505060406124e687828801612358565b925050606085013567ffffffffffffffff81111561250357600080fd5b61250f87828801612304565b91505092959194509250565b6000806040838503121561252e57600080fd5b600061253c8582860161229b565b925050602061254d858286016122c5565b9150509250929050565b6000806040838503121561256a57600080fd5b60006125788582860161229b565b925050602061258985828601612358565b9150509250929050565b6000602082840312156125a557600080fd5b60006125b3848285016122da565b91505092915050565b6000602082840312156125ce57600080fd5b60006125dc848285016122ef565b91505092915050565b6000602082840312156125f757600080fd5b600082013567ffffffffffffffff81111561261157600080fd5b61261d8482850161232e565b91505092915050565b60006020828403121561263857600080fd5b600061264684828501612358565b91505092915050565b600061265b83836129e8565b60208301905092915050565b61267081612f4e565b82525050565b61267f81612f3c565b82525050565b600061269082612e15565b61269a8185612e43565b93506126a583612e05565b8060005b838110156126d65781516126bd888261264f565b97506126c883612e36565b9250506001810190506126a9565b5085935050505092915050565b6126ec81612f60565b82525050565b60006126fd82612e20565b6127078185612e54565b9350612717818560208601612fd1565b6127208161319d565b840191505092915050565b600061273682612e2b565b6127408185612e65565b9350612750818560208601612fd1565b6127598161319d565b840191505092915050565b600061276f82612e2b565b6127798185612e76565b9350612789818560208601612fd1565b80840191505092915050565b60006127a2603283612e65565b91506127ad826131ae565b604082019050919050565b60006127c5602683612e65565b91506127d0826131fd565b604082019050919050565b60006127e8602583612e65565b91506127f38261324c565b604082019050919050565b600061280b601c83612e65565b91506128168261329b565b602082019050919050565b600061282e602483612e65565b9150612839826132c4565b604082019050919050565b6000612851601983612e65565b915061285c82613313565b602082019050919050565b6000612874602c83612e65565b915061287f8261333c565b604082019050919050565b6000612897603883612e65565b91506128a28261338b565b604082019050919050565b60006128ba602a83612e65565b91506128c5826133da565b604082019050919050565b60006128dd602983612e65565b91506128e882613429565b604082019050919050565b6000612900602083612e65565b915061290b82613478565b602082019050919050565b6000612923602c83612e65565b915061292e826134a1565b604082019050919050565b6000612946602083612e65565b9150612951826134f0565b602082019050919050565b6000612969602183612e65565b915061297482613519565b604082019050919050565b600061298c602883612e65565b915061299782613568565b604082019050919050565b60006129af601683612e65565b91506129ba826135b7565b602082019050919050565b60006129d2603183612e65565b91506129dd826135e0565b604082019050919050565b6129f181612fb8565b82525050565b612a0081612fb8565b82525050565b6000612a128285612764565b9150612a1e8284612764565b91508190509392505050565b6000602082019050612a3f6000830184612676565b92915050565b6000608082019050612a5a6000830187612676565b612a676020830186612676565b612a7460408301856129f7565b8181036060830152612a8681846126f2565b905095945050505050565b60006020820190508181036000830152612aab8184612685565b905092915050565b6000602082019050612ac860008301846126e3565b92915050565b60006020820190508181036000830152612ae8818461272b565b905092915050565b60006080820190508181036000830152612b0a818761272b565b9050612b196020830186612667565b612b2660408301856129f7565b8181036060830152612b38818461272b565b905095945050505050565b60006020820190508181036000830152612b5c81612795565b9050919050565b60006020820190508181036000830152612b7c816127b8565b9050919050565b60006020820190508181036000830152612b9c816127db565b9050919050565b60006020820190508181036000830152612bbc816127fe565b9050919050565b60006020820190508181036000830152612bdc81612821565b9050919050565b60006020820190508181036000830152612bfc81612844565b9050919050565b60006020820190508181036000830152612c1c81612867565b9050919050565b60006020820190508181036000830152612c3c8161288a565b9050919050565b60006020820190508181036000830152612c5c816128ad565b9050919050565b60006020820190508181036000830152612c7c816128d0565b9050919050565b60006020820190508181036000830152612c9c816128f3565b9050919050565b60006020820190508181036000830152612cbc81612916565b9050919050565b60006020820190508181036000830152612cdc81612939565b9050919050565b60006020820190508181036000830152612cfc8161295c565b9050919050565b60006020820190508181036000830152612d1c8161297f565b9050919050565b60006020820190508181036000830152612d3c816129a2565b9050919050565b60006020820190508181036000830152612d5c816129c5565b9050919050565b6000602082019050612d7860008301846129f7565b92915050565b6000612d88612d99565b9050612d948282613036565b919050565b6000604051905090565b600067ffffffffffffffff821115612dbe57612dbd61316e565b5b612dc78261319d565b9050602081019050919050565b600067ffffffffffffffff821115612def57612dee61316e565b5b612df88261319d565b9050602081019050919050565b6000819050602082019050919050565b600081519050919050565b600081519050919050565b600081519050919050565b6000602082019050919050565b600082825260208201905092915050565b600082825260208201905092915050565b600082825260208201905092915050565b600081905092915050565b6000612e8c82612fb8565b9150612e9783612fb8565b9250827fffffffffffffffffffffffffffffffffffffffffffffffffffffffffffffffff03821115612ecc57612ecb6130e1565b5b828201905092915050565b6000612ee282612fb8565b9150612eed83612fb8565b925082612efd57612efc613110565b5b828204905092915050565b6000612f1382612fb8565b9150612f1e83612fb8565b925082821015612f3157612f306130e1565b5b828203905092915050565b6000612f4782612f98565b9050919050565b6000612f5982612f98565b9050919050565b60008115159050919050565b60007fffffffff0000000000000000000000000000000000000000000000000000000082169050919050565b600073ffffffffffffffffffffffffffffffffffffffff82169050919050565b6000819050919050565b82818337600083830152505050565b60005b83811015612fef578082015181840152602081019050612fd4565b83811115612ffe576000848401525b50505050565b6000600282049050600182168061301c57607f821691505b602082108114156130305761302f61313f565b5b50919050565b61303f8261319d565b810181811067ffffffffffffffff8211171561305e5761305d61316e565b5b80604052505050565b600061307282612fb8565b91507fffffffffffffffffffffffffffffffffffffffffffffffffffffffffffffffff8214156130a5576130a46130e1565b5b600182019050919050565b60006130bb82612fb8565b91506130c683612fb8565b9250826130d6576130d5613110565b5b828206905092915050565b7f4e487b7100000000000000000000000000000000000000000000000000000000600052601160045260246000fd5b7f4e487b7100000000000000000000000000000000000000000000000000000000600052601260045260246000fd5b7f4e487b7100000000000000000000000000000000000000000000000000000000600052602260045260246000fd5b7f4e487b7100000000000000000000000000000000000000000000000000000000600052604160045260246000fd5b6000601f19601f8301169050919050565b7f4552433732313a207472616e7366657220746f206e6f6e20455243373231526560008201527f63656976657220696d706c656d656e7465720000000000000000000000000000602082015250565b7f4f776e61626c653a206e6577206f776e657220697320746865207a65726f206160008201527f6464726573730000000000000000000000000000000000000000000000000000602082015250565b7f4552433732313a207472616e736665722066726f6d20696e636f72726563742060008201527f6f776e6572000000000000000000000000000000000000000000000000000000602082015250565b7f4552433732313a20746f6b656e20616c7265616479206d696e74656400000000600082015250565b7f4552433732313a207472616e7366657220746f20746865207a65726f2061646460008201527f7265737300000000000000000000000000000000000000000000000000000000602082015250565b7f4552433732313a20617070726f766520746f2063616c6c657200000000000000600082015250565b7f4552433732313a206f70657261746f7220717565727920666f72206e6f6e657860008201527f697374656e7420746f6b656e0000000000000000000000000000000000000000602082015250565b7f4552433732313a20617070726f76652063616c6c6572206973206e6f74206f7760008201527f6e6572206e6f7220617070726f76656420666f7220616c6c0000000000000000602082015250565b7f4552433732313a2062616c616e636520717565727920666f7220746865207a6560008201527f726f206164647265737300000000000000000000000000000000000000000000602082015250565b7f4552433732313a206f776e657220717565727920666f72206e6f6e657869737460008201527f656e7420746f6b656e0000000000000000000000000000000000000000000000602082015250565b7f4552433732313a206d696e7420746f20746865207a65726f2061646472657373600082015250565b7f4552433732313a20617070726f76656420717565727920666f72206e6f6e657860008201527f697374656e7420746f6b656e0000000000000000000000000000000000000000602082015250565b7f4f776e61626c653a2063616c6c6572206973206e6f7420746865206f776e6572600082015250565b7f4552433732313a20617070726f76616c20746f2063757272656e74206f776e6560008201527f7200000000000000000000000000000000000000000000000000000000000000602082015250565b7f496e73756666696369656e742065746865722073656e7420776974682074726160008201527f6e73616374696f6e000000000000000000000000000000000000000000000000602082015250565b7f546f6b656e496420646f6573206e6f7420657869737400000000000000000000600082015250565b7f4552433732313a207472616e736665722063616c6c6572206973206e6f74206f60008201527f776e6572206e6f7220617070726f766564000000000000000000000000000000602082015250565b61363881612f3c565b811461364357600080fd5b50565b61364f81612f4e565b811461365a57600080fd5b50565b61366681612f60565b811461367157600080fd5b50565b61367d81612f6c565b811461368857600080fd5b50565b61369481612fb8565b811461369f57600080fd5b5056fea2646970667358221220788ef43cef7657a1412db7e47d7a180684177a2bf02552b11299c33edd4fc54164736f6c63430008010033",
  "immutableReferences": {},
  "source": "// SPDX-License-Identifier: MIT\r\npragma solidity >=0.4.22 <0.9.0;\r\nimport \"@openzeppelin/contracts/token/ERC721/ERC721.sol\";\r\nimport \"@openzeppelin/contracts/access/Ownable.sol\";\r\n\r\ncontract EthordleToken is ERC721, Ownable {\r\n    \r\nusing Strings for uint256;\r\n    \r\n    // tokenId to URI, tokenIds are incremental\r\n    mapping (uint256 => string) private _tokenURIs;\r\n    mapping (uint256 => address) private _tokenAccounts;\r\n\r\n    uint256 private _price;\r\n    uint256 private _royalty;\r\n    uint256 private _currentTokenId;\r\n    string private _baseURIextended;\r\n\r\n    event TokenMinted (\r\n        string solution,\r\n        address payable account,\r\n        uint256 tokenId,\r\n        string metadataURI\r\n    );\r\n\r\n    constructor(string memory _name, string memory _symbol, uint256 price, uint256 royalty) ERC721(_name, _symbol) {\r\n        _currentTokenId = 0;\r\n        _price = price * 1000000000;  // price in gwei\r\n        _price = 0;\r\n        _royalty = royalty;\r\n    }\r\n    \r\n    function setPrice(uint256 price) external onlyOwner() {\r\n        _price = price;   \r\n    }\r\n\r\n    function setRoyalty(uint256 royalty) external onlyOwner() {\r\n        _royalty = royalty;   \r\n    }\r\n\r\n    function getMintedTokenCount() external view returns (uint256) {\r\n        return _currentTokenId;\r\n    }\r\n\r\n    function getMintedTokensOfOwner(address _from) external view returns(uint256[] memory ownerTokenIds) {\r\n        uint256 tokenCount = balanceOf(_from);\r\n\r\n        if (tokenCount == 0) {\r\n            return new uint256[](0);\r\n        } else {\r\n            uint256[] memory result = new uint256[](tokenCount);\r\n            uint256 resultIndex = 0;\r\n            uint256 tokenId;\r\n\r\n            for (tokenId = 0; tokenId < _currentTokenId; tokenId++) {\r\n                if (_tokenAccounts[tokenId] == _from) {\r\n                    result[resultIndex] = tokenId;\r\n                    resultIndex++;\r\n                }\r\n            }\r\n\r\n            return result;\r\n        }\r\n    }\r\n    \r\n    function setBaseURI(string memory baseURI) external onlyOwner() {\r\n        _baseURIextended = baseURI;\r\n    }\r\n    \r\n    function _baseURI() internal view virtual override returns (string memory) {\r\n        return _baseURIextended;\r\n    }\r\n    \r\n    function tokenURI(uint256 tokenId) public view virtual override returns (string memory) {\r\n        require(_exists(tokenId), \"TokenId does not exist\");\r\n\r\n        string memory _tokenURI = _tokenURIs[tokenId];\r\n        string memory base = _baseURI();\r\n        \r\n        if (bytes(base).length == 0) {\r\n            return _tokenURI;\r\n        }\r\n        \r\n        if (bytes(_tokenURI).length > 0) {\r\n            return string(abi.encodePacked(base, _tokenURI));\r\n        }\r\n        \r\n        return string(abi.encodePacked(base, tokenId.toString()));\r\n    }\r\n    \r\n    function mint(\r\n        address payable to,\r\n        string memory solution,\r\n        string memory tokenURI_\r\n    ) external payable {        \r\n        require(msg.value >= _price, 'Insufficient ether sent with transaction'); \r\n\r\n        payable(owner()).transfer(msg.value);\r\n\r\n        _mint(to, _currentTokenId);\r\n\r\n        _tokenURIs[_currentTokenId] = tokenURI_;\r\n        _tokenAccounts[_currentTokenId] = to;\r\n        _currentTokenId++;        \r\n\r\n        emit TokenMinted(solution, to, _currentTokenId, tokenURI_);\r\n    }\r\n\r\n    function transfer(\r\n        address from, \r\n        address to, \r\n        uint256 tokenId\r\n    ) external payable  {\r\n        /*\r\n        require(msg.value > 0, 'Invalid payment');\r\n        require(from != address(0x0), 'Invalid from address');\r\n        require(from == _msgSender(), 'From address is not msgSender');\r\n        require(to != address(0x0), 'Invalid to address');\r\n        require(_exists(tokenId), \"TokenId does not exist\");   \r\n        require(_isApprovedOrOwner(_msgSender(), tokenId), 'msgSender is not the owner of the token');\r\n        */\r\n        //payRoyalty(msg.value);\r\n        \r\n        _transfer(from, to, tokenId);\r\n    }\r\n    \r\n    function payRoyalty(\r\n        uint256 value\r\n    ) private {\r\n        uint256 totalRoyalty = _royalty * value;  // todo need safe multiply\r\n        payable(owner()).transfer(totalRoyalty);\r\n    }\r\n}\r\n",
  "sourcePath": "C:\\Dev\\Github\\ethordle\\contracts\\EthordleToken.sol",
  "compiler": {
    "name": "solc",
    "version": "0.8.1+commit.df193b15.Emscripten.clang"
  },
  "schemaVersion": "3.4.6",
  "updatedAt": "2022-04-11T19:32:00.997Z",
  "networkType": "ethereum",
  "devdoc": {
    "kind": "dev",
    "methods": {
      "approve(address,uint256)": {
        "details": "See {IERC721-approve}."
      },
      "balanceOf(address)": {
        "details": "See {IERC721-balanceOf}."
      },
      "getApproved(uint256)": {
        "details": "See {IERC721-getApproved}."
      },
      "isApprovedForAll(address,address)": {
        "details": "See {IERC721-isApprovedForAll}."
      },
      "name()": {
        "details": "See {IERC721Metadata-name}."
      },
      "owner()": {
        "details": "Returns the address of the current owner."
      },
      "ownerOf(uint256)": {
        "details": "See {IERC721-ownerOf}."
      },
      "renounceOwnership()": {
        "details": "Leaves the contract without owner. It will not be possible to call `onlyOwner` functions anymore. Can only be called by the current owner. NOTE: Renouncing ownership will leave the contract without an owner, thereby removing any functionality that is only available to the owner."
      },
      "safeTransferFrom(address,address,uint256)": {
        "details": "See {IERC721-safeTransferFrom}."
      },
      "safeTransferFrom(address,address,uint256,bytes)": {
        "details": "See {IERC721-safeTransferFrom}."
      },
      "setApprovalForAll(address,bool)": {
        "details": "See {IERC721-setApprovalForAll}."
      },
      "supportsInterface(bytes4)": {
        "details": "See {IERC165-supportsInterface}."
      },
      "symbol()": {
        "details": "See {IERC721Metadata-symbol}."
      },
      "tokenURI(uint256)": {
        "details": "See {IERC721Metadata-tokenURI}."
      },
      "transferFrom(address,address,uint256)": {
        "details": "See {IERC721-transferFrom}."
      },
      "transferOwnership(address)": {
        "details": "Transfers ownership of the contract to a new account (`newOwner`). Can only be called by the current owner."
      }
    },
    "version": 1
  },
  "userdoc": {
    "kind": "user",
    "methods": {},
    "version": 1
  }
}