{
  "contractName": "EthordleToken",
  "abi": [
    {
      "inputs": [
        {
          "internalType": "string",
          "name": "_name",
          "type": "string"
        },
        {
          "internalType": "string",
          "name": "_symbol",
          "type": "string"
        },
        {
          "internalType": "uint256",
          "name": "initialPrice_",
          "type": "uint256"
        },
        {
          "internalType": "uint256",
          "name": "royaltyRate_",
          "type": "uint256"
        },
        {
          "internalType": "uint256",
          "name": "priceEscalationRate_",
          "type": "uint256"
        }
      ],
      "stateMutability": "nonpayable",
      "type": "constructor"
    },
    {
      "anonymous": false,
      "inputs": [
        {
          "indexed": true,
          "internalType": "address",
          "name": "owner",
          "type": "address"
        },
        {
          "indexed": true,
          "internalType": "address",
          "name": "approved",
          "type": "address"
        },
        {
          "indexed": true,
          "internalType": "uint256",
          "name": "tokenId",
          "type": "uint256"
        }
      ],
      "name": "Approval",
      "type": "event"
    },
    {
      "anonymous": false,
      "inputs": [
        {
          "indexed": true,
          "internalType": "address",
          "name": "owner",
          "type": "address"
        },
        {
          "indexed": true,
          "internalType": "address",
          "name": "operator",
          "type": "address"
        },
        {
          "indexed": false,
          "internalType": "bool",
          "name": "approved",
          "type": "bool"
        }
      ],
      "name": "ApprovalForAll",
      "type": "event"
    },
    {
      "anonymous": false,
      "inputs": [
        {
          "indexed": true,
          "internalType": "address",
          "name": "previousOwner",
          "type": "address"
        },
        {
          "indexed": true,
          "internalType": "address",
          "name": "newOwner",
          "type": "address"
        }
      ],
      "name": "OwnershipTransferred",
      "type": "event"
    },
    {
      "anonymous": false,
      "inputs": [
        {
          "indexed": false,
          "internalType": "string",
          "name": "solution",
          "type": "string"
        },
        {
          "indexed": false,
          "internalType": "address payable",
          "name": "account",
          "type": "address"
        },
        {
          "indexed": false,
          "internalType": "uint256",
          "name": "tokenId",
          "type": "uint256"
        },
        {
          "indexed": false,
          "internalType": "string",
          "name": "metadataURI",
          "type": "string"
        }
      ],
      "name": "TokenMinted",
      "type": "event"
    },
    {
      "anonymous": false,
      "inputs": [
        {
          "indexed": true,
          "internalType": "address",
          "name": "from",
          "type": "address"
        },
        {
          "indexed": true,
          "internalType": "address",
          "name": "to",
          "type": "address"
        },
        {
          "indexed": true,
          "internalType": "uint256",
          "name": "tokenId",
          "type": "uint256"
        }
      ],
      "name": "Transfer",
      "type": "event"
    },
    {
      "inputs": [
        {
          "internalType": "uint256",
          "name": "",
          "type": "uint256"
        }
      ],
      "name": "_tokens",
      "outputs": [
        {
          "internalType": "uint256",
          "name": "id",
          "type": "uint256"
        },
        {
          "internalType": "address",
          "name": "owner",
          "type": "address"
        },
        {
          "internalType": "uint256",
          "name": "price",
          "type": "uint256"
        },
        {
          "internalType": "string",
          "name": "url",
          "type": "string"
        },
        {
          "internalType": "string",
          "name": "solution",
          "type": "string"
        },
        {
          "internalType": "uint256",
          "name": "transactionCount",
          "type": "uint256"
        }
      ],
      "stateMutability": "view",
      "type": "function"
    },
    {
      "inputs": [
        {
          "internalType": "address",
          "name": "to",
          "type": "address"
        },
        {
          "internalType": "uint256",
          "name": "tokenId",
          "type": "uint256"
        }
      ],
      "name": "approve",
      "outputs": [],
      "stateMutability": "nonpayable",
      "type": "function"
    },
    {
      "inputs": [
        {
          "internalType": "address",
          "name": "owner",
          "type": "address"
        }
      ],
      "name": "balanceOf",
      "outputs": [
        {
          "internalType": "uint256",
          "name": "",
          "type": "uint256"
        }
      ],
      "stateMutability": "view",
      "type": "function"
    },
    {
      "inputs": [
        {
          "internalType": "uint256",
          "name": "tokenId",
          "type": "uint256"
        }
      ],
      "name": "getApproved",
      "outputs": [
        {
          "internalType": "address",
          "name": "",
          "type": "address"
        }
      ],
      "stateMutability": "view",
      "type": "function"
    },
    {
      "inputs": [
        {
          "internalType": "address",
          "name": "owner",
          "type": "address"
        },
        {
          "internalType": "address",
          "name": "operator",
          "type": "address"
        }
      ],
      "name": "isApprovedForAll",
      "outputs": [
        {
          "internalType": "bool",
          "name": "",
          "type": "bool"
        }
      ],
      "stateMutability": "view",
      "type": "function"
    },
    {
      "inputs": [],
      "name": "name",
      "outputs": [
        {
          "internalType": "string",
          "name": "",
          "type": "string"
        }
      ],
      "stateMutability": "view",
      "type": "function"
    },
    {
      "inputs": [],
      "name": "owner",
      "outputs": [
        {
          "internalType": "address",
          "name": "",
          "type": "address"
        }
      ],
      "stateMutability": "view",
      "type": "function"
    },
    {
      "inputs": [
        {
          "internalType": "uint256",
          "name": "tokenId",
          "type": "uint256"
        }
      ],
      "name": "ownerOf",
      "outputs": [
        {
          "internalType": "address",
          "name": "",
          "type": "address"
        }
      ],
      "stateMutability": "view",
      "type": "function"
    },
    {
      "inputs": [],
      "name": "renounceOwnership",
      "outputs": [],
      "stateMutability": "nonpayable",
      "type": "function"
    },
    {
      "inputs": [
        {
          "internalType": "address",
          "name": "operator",
          "type": "address"
        },
        {
          "internalType": "bool",
          "name": "approved",
          "type": "bool"
        }
      ],
      "name": "setApprovalForAll",
      "outputs": [],
      "stateMutability": "nonpayable",
      "type": "function"
    },
    {
      "inputs": [
        {
          "internalType": "bytes4",
          "name": "interfaceId",
          "type": "bytes4"
        }
      ],
      "name": "supportsInterface",
      "outputs": [
        {
          "internalType": "bool",
          "name": "",
          "type": "bool"
        }
      ],
      "stateMutability": "view",
      "type": "function"
    },
    {
      "inputs": [],
      "name": "symbol",
      "outputs": [
        {
          "internalType": "string",
          "name": "",
          "type": "string"
        }
      ],
      "stateMutability": "view",
      "type": "function"
    },
    {
      "inputs": [
        {
          "internalType": "address",
          "name": "newOwner",
          "type": "address"
        }
      ],
      "name": "transferOwnership",
      "outputs": [],
      "stateMutability": "nonpayable",
      "type": "function"
    },
    {
      "inputs": [
        {
          "internalType": "uint256",
          "name": "initialPrice_",
          "type": "uint256"
        }
      ],
      "name": "setInitialPrice",
      "outputs": [],
      "stateMutability": "nonpayable",
      "type": "function"
    },
    {
      "inputs": [],
      "name": "initialPrice",
      "outputs": [
        {
          "internalType": "uint256",
          "name": "",
          "type": "uint256"
        }
      ],
      "stateMutability": "view",
      "type": "function"
    },
    {
      "inputs": [
        {
          "internalType": "uint256",
          "name": "royaltyRate_",
          "type": "uint256"
        }
      ],
      "name": "setRoyaltyRate",
      "outputs": [],
      "stateMutability": "nonpayable",
      "type": "function"
    },
    {
      "inputs": [],
      "name": "royaltyRate",
      "outputs": [
        {
          "internalType": "uint256",
          "name": "",
          "type": "uint256"
        }
      ],
      "stateMutability": "view",
      "type": "function"
    },
    {
      "inputs": [
        {
          "internalType": "uint256",
          "name": "priceEscalationRate_",
          "type": "uint256"
        }
      ],
      "name": "setPriceEscalationRate",
      "outputs": [],
      "stateMutability": "nonpayable",
      "type": "function"
    },
    {
      "inputs": [],
      "name": "priceEscalationRate",
      "outputs": [
        {
          "internalType": "uint256",
          "name": "",
          "type": "uint256"
        }
      ],
      "stateMutability": "view",
      "type": "function"
    },
    {
      "inputs": [],
      "name": "tokenCount",
      "outputs": [
        {
          "internalType": "uint256",
          "name": "",
          "type": "uint256"
        }
      ],
      "stateMutability": "view",
      "type": "function"
    },
    {
      "inputs": [
        {
          "internalType": "uint256",
          "name": "tokenId",
          "type": "uint256"
        }
      ],
      "name": "tokenById",
      "outputs": [
        {
          "components": [
            {
              "internalType": "uint256",
              "name": "id",
              "type": "uint256"
            },
            {
              "internalType": "address",
              "name": "owner",
              "type": "address"
            },
            {
              "internalType": "uint256",
              "name": "price",
              "type": "uint256"
            },
            {
              "internalType": "string",
              "name": "url",
              "type": "string"
            },
            {
              "internalType": "string",
              "name": "solution",
              "type": "string"
            },
            {
              "internalType": "uint256",
              "name": "transactionCount",
              "type": "uint256"
            }
          ],
          "internalType": "struct EthordleToken.Token",
          "name": "",
          "type": "tuple"
        }
      ],
      "stateMutability": "view",
      "type": "function"
    },
    {
      "inputs": [
        {
          "internalType": "address",
          "name": "_from",
          "type": "address"
        }
      ],
      "name": "tokensOfOwner",
      "outputs": [
        {
          "components": [
            {
              "internalType": "uint256",
              "name": "id",
              "type": "uint256"
            },
            {
              "internalType": "address",
              "name": "owner",
              "type": "address"
            },
            {
              "internalType": "uint256",
              "name": "price",
              "type": "uint256"
            },
            {
              "internalType": "string",
              "name": "url",
              "type": "string"
            },
            {
              "internalType": "string",
              "name": "solution",
              "type": "string"
            },
            {
              "internalType": "uint256",
              "name": "transactionCount",
              "type": "uint256"
            }
          ],
          "internalType": "struct EthordleToken.Token[]",
          "name": "",
          "type": "tuple[]"
        }
      ],
      "stateMutability": "view",
      "type": "function"
    },
    {
      "inputs": [],
      "name": "tokens",
      "outputs": [
        {
          "components": [
            {
              "internalType": "uint256",
              "name": "id",
              "type": "uint256"
            },
            {
              "internalType": "address",
              "name": "owner",
              "type": "address"
            },
            {
              "internalType": "uint256",
              "name": "price",
              "type": "uint256"
            },
            {
              "internalType": "string",
              "name": "url",
              "type": "string"
            },
            {
              "internalType": "string",
              "name": "solution",
              "type": "string"
            },
            {
              "internalType": "uint256",
              "name": "transactionCount",
              "type": "uint256"
            }
          ],
          "internalType": "struct EthordleToken.Token[]",
          "name": "",
          "type": "tuple[]"
        }
      ],
      "stateMutability": "view",
      "type": "function"
    },
    {
      "inputs": [
        {
          "internalType": "string",
          "name": "baseURI",
          "type": "string"
        }
      ],
      "name": "setBaseURI",
      "outputs": [],
      "stateMutability": "nonpayable",
      "type": "function"
    },
    {
      "inputs": [
        {
          "internalType": "string",
          "name": "solution_",
          "type": "string"
        }
      ],
      "name": "isSolutionUnique",
      "outputs": [
        {
          "internalType": "bool",
          "name": "",
          "type": "bool"
        }
      ],
      "stateMutability": "view",
      "type": "function"
    },
    {
      "inputs": [
        {
          "internalType": "uint256",
          "name": "tokenId",
          "type": "uint256"
        }
      ],
      "name": "tokenURI",
      "outputs": [
        {
          "internalType": "string",
          "name": "",
          "type": "string"
        }
      ],
      "stateMutability": "view",
      "type": "function"
    },
    {
      "inputs": [
        {
          "internalType": "address payable",
          "name": "to",
          "type": "address"
        },
        {
          "internalType": "string",
          "name": "solution_",
          "type": "string"
        },
        {
          "internalType": "string",
          "name": "tokenURI_",
          "type": "string"
        }
      ],
      "name": "mint",
      "outputs": [],
      "stateMutability": "payable",
      "type": "function"
    },
    {
      "inputs": [
        {
          "internalType": "address",
          "name": "to",
          "type": "address"
        },
        {
          "internalType": "uint256",
          "name": "tokenId",
          "type": "uint256"
        }
      ],
      "name": "buy",
      "outputs": [],
      "stateMutability": "payable",
      "type": "function"
    },
    {
      "inputs": [
        {
          "internalType": "address",
          "name": "",
          "type": "address"
        },
        {
          "internalType": "address",
          "name": "",
          "type": "address"
        },
        {
          "internalType": "uint256",
          "name": "",
          "type": "uint256"
        }
      ],
      "name": "transferFrom",
      "outputs": [],
      "stateMutability": "view",
      "type": "function"
    },
    {
      "inputs": [
        {
          "internalType": "address",
          "name": "",
          "type": "address"
        },
        {
          "internalType": "address",
          "name": "",
          "type": "address"
        },
        {
          "internalType": "uint256",
          "name": "",
          "type": "uint256"
        }
      ],
      "name": "safeTransferFrom",
      "outputs": [],
      "stateMutability": "view",
      "type": "function"
    },
    {
      "inputs": [
        {
          "internalType": "address",
          "name": "",
          "type": "address"
        },
        {
          "internalType": "address",
          "name": "",
          "type": "address"
        },
        {
          "internalType": "uint256",
          "name": "",
          "type": "uint256"
        },
        {
          "internalType": "bytes",
          "name": "",
          "type": "bytes"
        }
      ],
      "name": "safeTransferFrom",
      "outputs": [],
      "stateMutability": "view",
      "type": "function"
    }
  ],
  "bytecode": "0x60806040523480156200001157600080fd5b50604051620051f3380380620051f38339818101604052810190620000379190620002fd565b8484816000908051906020019062000051929190620001c4565b5080600190805190602001906200006a929190620001c4565b5050506200008d62000081620000f660201b60201c565b620000fe60201b60201c565b33600a60006101000a81548173ffffffffffffffffffffffffffffffffffffffff021916908373ffffffffffffffffffffffffffffffffffffffff1602179055506000600e8190555082600b8190555081600c8190555080600d81905550505050505062000545565b600033905090565b6000600660009054906101000a900473ffffffffffffffffffffffffffffffffffffffff16905081600660006101000a81548173ffffffffffffffffffffffffffffffffffffffff021916908373ffffffffffffffffffffffffffffffffffffffff1602179055508173ffffffffffffffffffffffffffffffffffffffff168173ffffffffffffffffffffffffffffffffffffffff167f8be0079c531659141344cd1fd0a4f28419497f9722a3daafe3b4186f6b6457e060405160405180910390a35050565b828054620001d29062000450565b90600052602060002090601f016020900481019282620001f6576000855562000242565b82601f106200021157805160ff191683800117855562000242565b8280016001018555821562000242579182015b828111156200024157825182559160200191906001019062000224565b5b50905062000251919062000255565b5090565b5b808211156200027057600081600090555060010162000256565b5090565b60006200028b6200028584620003da565b620003b1565b905082815260208101848484011115620002a457600080fd5b620002b18482856200041a565b509392505050565b600082601f830112620002cb57600080fd5b8151620002dd84826020860162000274565b91505092915050565b600081519050620002f7816200052b565b92915050565b600080600080600060a086880312156200031657600080fd5b600086015167ffffffffffffffff8111156200033157600080fd5b6200033f88828901620002b9565b955050602086015167ffffffffffffffff8111156200035d57600080fd5b6200036b88828901620002b9565b94505060406200037e88828901620002e6565b93505060606200039188828901620002e6565b9250506080620003a488828901620002e6565b9150509295509295909350565b6000620003bd620003d0565b9050620003cb828262000486565b919050565b6000604051905090565b600067ffffffffffffffff821115620003f857620003f7620004eb565b5b62000403826200051a565b9050602081019050919050565b6000819050919050565b60005b838110156200043a5780820151818401526020810190506200041d565b838111156200044a576000848401525b50505050565b600060028204905060018216806200046957607f821691505b6020821081141562000480576200047f620004bc565b5b50919050565b62000491826200051a565b810181811067ffffffffffffffff82111715620004b357620004b2620004eb565b5b80604052505050565b7f4e487b7100000000000000000000000000000000000000000000000000000000600052602260045260246000fd5b7f4e487b7100000000000000000000000000000000000000000000000000000000600052604160045260246000fd5b6000601f19601f8301169050919050565b620005368162000410565b81146200054257600080fd5b50565b614c9e80620005556000396000f3fe6080604052600436106101d85760003560e01c80638da5cb5b11610102578063a5a0258411610095578063cce7ec1311610064578063cce7ec13146106c1578063e985e9c5146106dd578063ed70554d1461071a578063f2fde38b1461075c576101d8565b8063a5a02584146105f3578063b88d4fde14610630578063c4d1510d14610659578063c87b56dd14610684576101d8565b80639f181b5e116100d15780639f181b5e1461054d5780639f4ba0ee14610578578063a129ece9146105a1578063a22cb465146105ca576101d8565b80638da5cb5b146104b057806395d89b41146104db57806399071190146105065780639d63848a14610522576101d8565b8063537782a21161017a57806370a082311161014957806370a08231146103f4578063715018a614610431578063755381f7146104485780638462151c14610473576101d8565b8063537782a21461032857806355f804b3146103515780636352211e1461037a5780636b6af2d5146103b7576101d8565b8063095ea7b3116101b6578063095ea7b3146102825780631d0806ae146102ab57806323b872dd146102d657806342842e0e146102ff576101d8565b806301ffc9a7146101dd57806306fdde031461021a578063081812fc14610245575b600080fd5b3480156101e957600080fd5b5061020460048036038101906101ff91906137e8565b610785565b6040516102119190613e54565b60405180910390f35b34801561022657600080fd5b5061022f610867565b60405161023c9190613e6f565b60405180910390f35b34801561025157600080fd5b5061026c60048036038101906102679190613852565b6108f9565b6040516102799190613e17565b60405180910390f35b34801561028e57600080fd5b506102a960048036038101906102a4919061376b565b61097e565b005b3480156102b757600080fd5b506102c0610a96565b6040516102cd91906141a6565b60405180910390f35b3480156102e257600080fd5b506102fd60048036038101906102f89190613665565b610aa0565b005b34801561030b57600080fd5b5061032660048036038101906103219190613665565b610b35565b005b34801561033457600080fd5b5061034f600480360381019061034a9190613852565b610bca565b005b34801561035d57600080fd5b5061037860048036038101906103739190613811565b610c50565b005b34801561038657600080fd5b506103a1600480360381019061039c9190613852565b610ce6565b6040516103ae9190613e17565b60405180910390f35b3480156103c357600080fd5b506103de60048036038101906103d99190613852565b610d98565b6040516103eb9190614184565b60405180910390f35b34801561040057600080fd5b5061041b60048036038101906104169190613581565b610ff3565b60405161042891906141a6565b60405180910390f35b34801561043d57600080fd5b506104466110ab565b005b34801561045457600080fd5b5061045d611133565b60405161046a91906141a6565b60405180910390f35b34801561047f57600080fd5b5061049a60048036038101906104959190613581565b61113d565b6040516104a79190613e32565b60405180910390f35b3480156104bc57600080fd5b506104c5611395565b6040516104d29190613e17565b60405180910390f35b3480156104e757600080fd5b506104f06113bf565b6040516104fd9190613e6f565b60405180910390f35b610520600480360381019061051b91906135aa565b611451565b005b34801561052e57600080fd5b50610537611937565b6040516105449190613e32565b60405180910390f35b34801561055957600080fd5b50610562611bdb565b60405161056f91906141a6565b60405180910390f35b34801561058457600080fd5b5061059f600480360381019061059a9190613852565b611be5565b005b3480156105ad57600080fd5b506105c860048036038101906105c39190613852565b611c6b565b005b3480156105d657600080fd5b506105f160048036038101906105ec919061372f565b611cf1565b005b3480156105ff57600080fd5b5061061a60048036038101906106159190613811565b611d07565b6040516106279190613e54565b60405180910390f35b34801561063c57600080fd5b50610657600480360381019061065291906136b4565b611d7d565b005b34801561066557600080fd5b5061066e611e13565b60405161067b91906141a6565b60405180910390f35b34801561069057600080fd5b506106ab60048036038101906106a69190613852565b611e1d565b6040516106b89190613e6f565b60405180910390f35b6106db60048036038101906106d6919061376b565b611f0d565b005b3480156106e957600080fd5b5061070460048036038101906106ff9190613629565b612519565b6040516107119190613e54565b60405180910390f35b34801561072657600080fd5b50610741600480360381019061073c9190613852565b6125ad565b604051610753969594939291906141c1565b60405180910390f35b34801561076857600080fd5b50610783600480360381019061077e9190613581565b612719565b005b60007f80ac58cd000000000000000000000000000000000000000000000000000000007bffffffffffffffffffffffffffffffffffffffffffffffffffffffff1916827bffffffffffffffffffffffffffffffffffffffffffffffffffffffff1916148061085057507f5b5e139f000000000000000000000000000000000000000000000000000000007bffffffffffffffffffffffffffffffffffffffffffffffffffffffff1916827bffffffffffffffffffffffffffffffffffffffffffffffffffffffff1916145b80610860575061085f82612811565b5b9050919050565b60606000805461087690614531565b80601f01602080910402602001604051908101604052809291908181526020018280546108a290614531565b80156108ef5780601f106108c4576101008083540402835291602001916108ef565b820191906000526020600020905b8154815290600101906020018083116108d257829003601f168201915b5050505050905090565b60006109048261287b565b610943576040517f08c379a000000000000000000000000000000000000000000000000000000000815260040161093a906140c4565b60405180910390fd5b6004600083815260200190815260200160002060009054906101000a900473ffffffffffffffffffffffffffffffffffffffff169050919050565b600061098982610ce6565b90508073ffffffffffffffffffffffffffffffffffffffff168373ffffffffffffffffffffffffffffffffffffffff1614156109fa576040517f08c379a00000000000000000000000000000000000000000000000000000000081526004016109f190614124565b60405180910390fd5b8073ffffffffffffffffffffffffffffffffffffffff16610a196128e7565b73ffffffffffffffffffffffffffffffffffffffff161480610a485750610a4781610a426128e7565b612519565b5b610a87576040517f08c379a0000000000000000000000000000000000000000000000000000000008152600401610a7e90614024565b60405180910390fd5b610a9183836128ef565b505050565b6000600b54905090565b600a60009054906101000a900473ffffffffffffffffffffffffffffffffffffffff1673ffffffffffffffffffffffffffffffffffffffff163373ffffffffffffffffffffffffffffffffffffffff1614610b30576040517f08c379a0000000000000000000000000000000000000000000000000000000008152600401610b2790613fa4565b60405180910390fd5b505050565b600a60009054906101000a900473ffffffffffffffffffffffffffffffffffffffff1673ffffffffffffffffffffffffffffffffffffffff163373ffffffffffffffffffffffffffffffffffffffff1614610bc5576040517f08c379a0000000000000000000000000000000000000000000000000000000008152600401610bbc90613fa4565b60405180910390fd5b505050565b610bd26128e7565b73ffffffffffffffffffffffffffffffffffffffff16610bf0611395565b73ffffffffffffffffffffffffffffffffffffffff1614610c46576040517f08c379a0000000000000000000000000000000000000000000000000000000008152600401610c3d90614104565b60405180910390fd5b80600c8190555050565b610c586128e7565b73ffffffffffffffffffffffffffffffffffffffff16610c76611395565b73ffffffffffffffffffffffffffffffffffffffff1614610ccc576040517f08c379a0000000000000000000000000000000000000000000000000000000008152600401610cc390614104565b60405180910390fd5b80600f9080519060200190610ce2929190613174565b5050565b6000806002600084815260200190815260200160002060009054906101000a900473ffffffffffffffffffffffffffffffffffffffff169050600073ffffffffffffffffffffffffffffffffffffffff168173ffffffffffffffffffffffffffffffffffffffff161415610d8f576040517f08c379a0000000000000000000000000000000000000000000000000000000008152600401610d8690614064565b60405180910390fd5b80915050919050565b610da06131fa565b610da98261287b565b610de8576040517f08c379a0000000000000000000000000000000000000000000000000000000008152600401610ddf90614144565b60405180910390fd5b6000600760008481526020019081526020016000206040518060c0016040529081600082015481526020016001820160009054906101000a900473ffffffffffffffffffffffffffffffffffffffff1673ffffffffffffffffffffffffffffffffffffffff1673ffffffffffffffffffffffffffffffffffffffff16815260200160028201548152602001600382018054610e8290614531565b80601f0160208091040260200160405190810160405280929190818152602001828054610eae90614531565b8015610efb5780601f10610ed057610100808354040283529160200191610efb565b820191906000526020600020905b815481529060010190602001808311610ede57829003601f168201915b50505050508152602001600482018054610f1490614531565b80601f0160208091040260200160405190810160405280929190818152602001828054610f4090614531565b8015610f8d5780601f10610f6257610100808354040283529160200191610f8d565b820191906000526020600020905b815481529060010190602001808311610f7057829003601f168201915b505050505081526020016005820154815250509050610fab8361287b565b610fea576040517f08c379a0000000000000000000000000000000000000000000000000000000008152600401610fe190613fc4565b60405180910390fd5b80915050919050565b60008073ffffffffffffffffffffffffffffffffffffffff168273ffffffffffffffffffffffffffffffffffffffff161415611064576040517f08c379a000000000000000000000000000000000000000000000000000000000815260040161105b90614044565b60405180910390fd5b600360008373ffffffffffffffffffffffffffffffffffffffff1673ffffffffffffffffffffffffffffffffffffffff168152602001908152602001600020549050919050565b6110b36128e7565b73ffffffffffffffffffffffffffffffffffffffff166110d1611395565b73ffffffffffffffffffffffffffffffffffffffff1614611127576040517f08c379a000000000000000000000000000000000000000000000000000000000815260040161111e90614104565b60405180910390fd5b61113160006129a8565b565b6000600d54905090565b6060600061114a83610ff3565b90506000808267ffffffffffffffff81111561118f577f4e487b7100000000000000000000000000000000000000000000000000000000600052604160045260246000fd5b6040519080825280602002602001820160405280156111c857816020015b6111b56131fa565b8152602001906001900390816111ad5790505b509050600083111561138a5760003073ffffffffffffffffffffffffffffffffffffffff16639d63848a6040518163ffffffff1660e01b815260040160006040518083038186803b15801561121c57600080fd5b505afa158015611230573d6000803e3d6000fd5b505050506040513d6000823e3d601f19601f8201168201806040525081019061125991906137a7565b905060005b600e54811015611387578673ffffffffffffffffffffffffffffffffffffffff168282815181106112b8577f4e487b7100000000000000000000000000000000000000000000000000000000600052603260045260246000fd5b60200260200101516020015173ffffffffffffffffffffffffffffffffffffffff16141561137457818181518110611319577f4e487b7100000000000000000000000000000000000000000000000000000000600052603260045260246000fd5b602002602001015183858151811061135a577f4e487b7100000000000000000000000000000000000000000000000000000000600052603260045260246000fd5b6020026020010181905250838061137090614594565b9450505b808061137f90614594565b91505061125e565b50505b809350505050919050565b6000600660009054906101000a900473ffffffffffffffffffffffffffffffffffffffff16905090565b6060600180546113ce90614531565b80601f01602080910402602001604051908101604052809291908181526020018280546113fa90614531565b80156114475780601f1061141c57610100808354040283529160200191611447565b820191906000526020600020905b81548152906001019060200180831161142a57829003601f168201915b5050505050905090565b8273ffffffffffffffffffffffffffffffffffffffff163373ffffffffffffffffffffffffffffffffffffffff1614806114d85750600a60009054906101000a900473ffffffffffffffffffffffffffffffffffffffff1673ffffffffffffffffffffffffffffffffffffffff163373ffffffffffffffffffffffffffffffffffffffff16145b611517576040517f08c379a000000000000000000000000000000000000000000000000000000000815260040161150e906140e4565b60405180910390fd5b600b5434101561155c576040517f08c379a000000000000000000000000000000000000000000000000000000000815260040161155390614164565b60405180910390fd5b600073ffffffffffffffffffffffffffffffffffffffff166008836040516115849190613e00565b908152602001604051809103902060009054906101000a900473ffffffffffffffffffffffffffffffffffffffff1673ffffffffffffffffffffffffffffffffffffffff1614611609576040517f08c379a000000000000000000000000000000000000000000000000000000000815260040161160090614084565b60405180910390fd5b600073ffffffffffffffffffffffffffffffffffffffff166009826040516116319190613e00565b908152602001604051809103902060009054906101000a900473ffffffffffffffffffffffffffffffffffffffff1673ffffffffffffffffffffffffffffffffffffffff16146116b6576040517f08c379a00000000000000000000000000000000000000000000000000000000081526004016116ad90613ee4565b60405180910390fd5b6116be611395565b73ffffffffffffffffffffffffffffffffffffffff166108fc349081150290604051600060405180830381858888f19350505050158015611703573d6000803e3d6000fd5b5061171083600e54612a6e565b600061171b34612c48565b905060006040518060c00160405280600e5481526020018673ffffffffffffffffffffffffffffffffffffffff168152602001838152602001848152602001858152602001600181525090508060076000600e5481526020019081526020016000206000820151816000015560208201518160010160006101000a81548173ffffffffffffffffffffffffffffffffffffffff021916908373ffffffffffffffffffffffffffffffffffffffff1602179055506040820151816002015560608201518160030190805190602001906117f4929190613174565b506080820151816004019080519060200190611811929190613174565b5060a08201518160050155905050846008856040516118309190613e00565b908152602001604051809103902060006101000a81548173ffffffffffffffffffffffffffffffffffffffff021916908373ffffffffffffffffffffffffffffffffffffffff1602179055508460098460405161188d9190613e00565b908152602001604051809103902060006101000a81548173ffffffffffffffffffffffffffffffffffffffff021916908373ffffffffffffffffffffffffffffffffffffffff160217905550600e60008154809291906118ec90614594565b91905055507f69e2cadceb55416f48e5a82e3641de7889495c2e02c86d37aaa313d121e8e7428486600e54866040516119289493929190613e91565b60405180910390a15050505050565b60606000600e5467ffffffffffffffff81111561197d577f4e487b7100000000000000000000000000000000000000000000000000000000600052604160045260246000fd5b6040519080825280602002602001820160405280156119b657816020015b6119a36131fa565b81526020019060019003908161199b5790505b50905060005b600e54811015611bd357600760008281526020019081526020016000206040518060c0016040529081600082015481526020016001820160009054906101000a900473ffffffffffffffffffffffffffffffffffffffff1673ffffffffffffffffffffffffffffffffffffffff1673ffffffffffffffffffffffffffffffffffffffff16815260200160028201548152602001600382018054611a5e90614531565b80601f0160208091040260200160405190810160405280929190818152602001828054611a8a90614531565b8015611ad75780601f10611aac57610100808354040283529160200191611ad7565b820191906000526020600020905b815481529060010190602001808311611aba57829003601f168201915b50505050508152602001600482018054611af090614531565b80601f0160208091040260200160405190810160405280929190818152602001828054611b1c90614531565b8015611b695780601f10611b3e57610100808354040283529160200191611b69565b820191906000526020600020905b815481529060010190602001808311611b4c57829003601f168201915b50505050508152602001600582015481525050828281518110611bb5577f4e487b7100000000000000000000000000000000000000000000000000000000600052603260045260246000fd5b60200260200101819052508080611bcb90614594565b9150506119bc565b508091505090565b6000600e54905090565b611bed6128e7565b73ffffffffffffffffffffffffffffffffffffffff16611c0b611395565b73ffffffffffffffffffffffffffffffffffffffff1614611c61576040517f08c379a0000000000000000000000000000000000000000000000000000000008152600401611c5890614104565b60405180910390fd5b80600b8190555050565b611c736128e7565b73ffffffffffffffffffffffffffffffffffffffff16611c91611395565b73ffffffffffffffffffffffffffffffffffffffff1614611ce7576040517f08c379a0000000000000000000000000000000000000000000000000000000008152600401611cde90614104565b60405180910390fd5b80600d8190555050565b611d03611cfc6128e7565b8383612c94565b5050565b60008073ffffffffffffffffffffffffffffffffffffffff16600883604051611d309190613e00565b908152602001604051809103902060009054906101000a900473ffffffffffffffffffffffffffffffffffffffff1673ffffffffffffffffffffffffffffffffffffffff16149050919050565b600a60009054906101000a900473ffffffffffffffffffffffffffffffffffffffff1673ffffffffffffffffffffffffffffffffffffffff163373ffffffffffffffffffffffffffffffffffffffff1614611e0d576040517f08c379a0000000000000000000000000000000000000000000000000000000008152600401611e0490613fa4565b60405180910390fd5b50505050565b6000600c54905090565b6060611e288261287b565b611e67576040517f08c379a0000000000000000000000000000000000000000000000000000000008152600401611e5e90614144565b60405180910390fd5b600760008381526020019081526020016000206003018054611e8890614531565b80601f0160208091040260200160405190810160405280929190818152602001828054611eb490614531565b8015611f015780601f10611ed657610100808354040283529160200191611f01565b820191906000526020600020905b815481529060010190602001808311611ee457829003601f168201915b50505050509050919050565b8173ffffffffffffffffffffffffffffffffffffffff163373ffffffffffffffffffffffffffffffffffffffff1614611f7b576040517f08c379a0000000000000000000000000000000000000000000000000000000008152600401611f72906140e4565b60405180910390fd5b611f848161287b565b611fc3576040517f08c379a0000000000000000000000000000000000000000000000000000000008152600401611fba90614144565b60405180910390fd5b611fd4611fce6128e7565b82612e01565b15612014576040517f08c379a000000000000000000000000000000000000000000000000000000000815260040161200b90614004565b60405180910390fd5b6000600760008381526020019081526020016000206040518060c0016040529081600082015481526020016001820160009054906101000a900473ffffffffffffffffffffffffffffffffffffffff1673ffffffffffffffffffffffffffffffffffffffff1673ffffffffffffffffffffffffffffffffffffffff168152602001600282015481526020016003820180546120ae90614531565b80601f01602080910402602001604051908101604052809291908181526020018280546120da90614531565b80156121275780601f106120fc57610100808354040283529160200191612127565b820191906000526020600020905b81548152906001019060200180831161210a57829003601f168201915b5050505050815260200160048201805461214090614531565b80601f016020809104026020016040519081016040528092919081815260200182805461216c90614531565b80156121b95780601f1061218e576101008083540402835291602001916121b9565b820191906000526020600020905b81548152906001019060200180831161219c57829003601f168201915b5050505050815260200160058201548152505090506121db816000015161287b565b61221a576040517f08c379a000000000000000000000000000000000000000000000000000000000815260040161221190613fc4565b60405180910390fd5b8060400151341015612261576040517f08c379a000000000000000000000000000000000000000000000000000000000815260040161225890614164565b60405180910390fd5b600081608001519050600082606001519050600083602001519050600061228734612edf565b9050600081346122979190614435565b90506122a1611395565b73ffffffffffffffffffffffffffffffffffffffff166108fc839081150290604051600060405180830381858888f193505050501580156122e6573d6000803e3d6000fd5b508273ffffffffffffffffffffffffffffffffffffffff166108fc829081150290604051600060405180830381858888f1935050505015801561232d573d6000803e3d6000fd5b50612339838989612f03565b8760088660405161234a9190613e00565b908152602001604051809103902060006101000a81548173ffffffffffffffffffffffffffffffffffffffff021916908373ffffffffffffffffffffffffffffffffffffffff160217905550876009856040516123a79190613e00565b908152602001604051809103902060006101000a81548173ffffffffffffffffffffffffffffffffffffffff021916908373ffffffffffffffffffffffffffffffffffffffff16021790555060006123fe34612c48565b905088876020019073ffffffffffffffffffffffffffffffffffffffff16908173ffffffffffffffffffffffffffffffffffffffff1681525050808760400181815250508660a001805180919061245490614594565b8152505086600760008a81526020019081526020016000206000820151816000015560208201518160010160006101000a81548173ffffffffffffffffffffffffffffffffffffffff021916908373ffffffffffffffffffffffffffffffffffffffff1602179055506040820151816002015560608201518160030190805190602001906124e3929190613174565b506080820151816004019080519060200190612500929190613174565b5060a08201518160050155905050505050505050505050565b6000600560008473ffffffffffffffffffffffffffffffffffffffff1673ffffffffffffffffffffffffffffffffffffffff16815260200190815260200160002060008373ffffffffffffffffffffffffffffffffffffffff1673ffffffffffffffffffffffffffffffffffffffff16815260200190815260200160002060009054906101000a900460ff16905092915050565b60076020528060005260406000206000915090508060000154908060010160009054906101000a900473ffffffffffffffffffffffffffffffffffffffff169080600201549080600301805461260290614531565b80601f016020809104026020016040519081016040528092919081815260200182805461262e90614531565b801561267b5780601f106126505761010080835404028352916020019161267b565b820191906000526020600020905b81548152906001019060200180831161265e57829003601f168201915b50505050509080600401805461269090614531565b80601f01602080910402602001604051908101604052809291908181526020018280546126bc90614531565b80156127095780601f106126de57610100808354040283529160200191612709565b820191906000526020600020905b8154815290600101906020018083116126ec57829003601f168201915b5050505050908060050154905086565b6127216128e7565b73ffffffffffffffffffffffffffffffffffffffff1661273f611395565b73ffffffffffffffffffffffffffffffffffffffff1614612795576040517f08c379a000000000000000000000000000000000000000000000000000000000815260040161278c90614104565b60405180910390fd5b600073ffffffffffffffffffffffffffffffffffffffff168173ffffffffffffffffffffffffffffffffffffffff161415612805576040517f08c379a00000000000000000000000000000000000000000000000000000000081526004016127fc90613f04565b60405180910390fd5b61280e816129a8565b50565b60007f01ffc9a7000000000000000000000000000000000000000000000000000000007bffffffffffffffffffffffffffffffffffffffffffffffffffffffff1916827bffffffffffffffffffffffffffffffffffffffffffffffffffffffff1916149050919050565b60008073ffffffffffffffffffffffffffffffffffffffff166002600084815260200190815260200160002060009054906101000a900473ffffffffffffffffffffffffffffffffffffffff1673ffffffffffffffffffffffffffffffffffffffff1614159050919050565b600033905090565b816004600083815260200190815260200160002060006101000a81548173ffffffffffffffffffffffffffffffffffffffff021916908373ffffffffffffffffffffffffffffffffffffffff160217905550808273ffffffffffffffffffffffffffffffffffffffff1661296283610ce6565b73ffffffffffffffffffffffffffffffffffffffff167f8c5be1e5ebec7d5bd14f71427d1e84f3dd0314c0f7b2291e5b200ac8c7c3b92560405160405180910390a45050565b6000600660009054906101000a900473ffffffffffffffffffffffffffffffffffffffff16905081600660006101000a81548173ffffffffffffffffffffffffffffffffffffffff021916908373ffffffffffffffffffffffffffffffffffffffff1602179055508173ffffffffffffffffffffffffffffffffffffffff168173ffffffffffffffffffffffffffffffffffffffff167f8be0079c531659141344cd1fd0a4f28419497f9722a3daafe3b4186f6b6457e060405160405180910390a35050565b600073ffffffffffffffffffffffffffffffffffffffff168273ffffffffffffffffffffffffffffffffffffffff161415612ade576040517f08c379a0000000000000000000000000000000000000000000000000000000008152600401612ad5906140a4565b60405180910390fd5b612ae78161287b565b15612b27576040517f08c379a0000000000000000000000000000000000000000000000000000000008152600401612b1e90613f44565b60405180910390fd5b612b336000838361316a565b6001600360008473ffffffffffffffffffffffffffffffffffffffff1673ffffffffffffffffffffffffffffffffffffffff1681526020019081526020016000206000828254612b839190614354565b92505081905550816002600083815260200190815260200160002060006101000a81548173ffffffffffffffffffffffffffffffffffffffff021916908373ffffffffffffffffffffffffffffffffffffffff160217905550808273ffffffffffffffffffffffffffffffffffffffff16600073ffffffffffffffffffffffffffffffffffffffff167fddf252ad1be2c89b69c2b068fc378daa952ba7f163c4a11628f55a4df523b3ef60405160405180910390a4612c446000838361316f565b5050565b60008066038d7ea4c6800090506000612710600d5485612c6891906143db565b612c7291906143aa565b9050818282612c8191906143aa565b612c8b91906143db565b92505050919050565b8173ffffffffffffffffffffffffffffffffffffffff168373ffffffffffffffffffffffffffffffffffffffff161415612d03576040517f08c379a0000000000000000000000000000000000000000000000000000000008152600401612cfa90613f84565b60405180910390fd5b80600560008573ffffffffffffffffffffffffffffffffffffffff1673ffffffffffffffffffffffffffffffffffffffff16815260200190815260200160002060008473ffffffffffffffffffffffffffffffffffffffff1673ffffffffffffffffffffffffffffffffffffffff16815260200190815260200160002060006101000a81548160ff0219169083151502179055508173ffffffffffffffffffffffffffffffffffffffff168373ffffffffffffffffffffffffffffffffffffffff167f17307eab39ab6107e8899845ad3d59bd9653f200f220920489ca2b5937696c3183604051612df49190613e54565b60405180910390a3505050565b6000612e0c8261287b565b612e4b576040517f08c379a0000000000000000000000000000000000000000000000000000000008152600401612e4290613fe4565b60405180910390fd5b6000612e5683610ce6565b90508073ffffffffffffffffffffffffffffffffffffffff168473ffffffffffffffffffffffffffffffffffffffff161480612ec557508373ffffffffffffffffffffffffffffffffffffffff16612ead846108f9565b73ffffffffffffffffffffffffffffffffffffffff16145b80612ed65750612ed58185612519565b5b91505092915050565b6000612710600c5483612ef291906143db565b612efc91906143aa565b9050919050565b8273ffffffffffffffffffffffffffffffffffffffff16612f2382610ce6565b73ffffffffffffffffffffffffffffffffffffffff1614612f79576040517f08c379a0000000000000000000000000000000000000000000000000000000008152600401612f7090613f24565b60405180910390fd5b600073ffffffffffffffffffffffffffffffffffffffff168273ffffffffffffffffffffffffffffffffffffffff161415612fe9576040517f08c379a0000000000000000000000000000000000000000000000000000000008152600401612fe090613f64565b60405180910390fd5b612ff483838361316a565b612fff6000826128ef565b6001600360008573ffffffffffffffffffffffffffffffffffffffff1673ffffffffffffffffffffffffffffffffffffffff168152602001908152602001600020600082825461304f9190614435565b925050819055506001600360008473ffffffffffffffffffffffffffffffffffffffff1673ffffffffffffffffffffffffffffffffffffffff16815260200190815260200160002060008282546130a69190614354565b92505081905550816002600083815260200190815260200160002060006101000a81548173ffffffffffffffffffffffffffffffffffffffff021916908373ffffffffffffffffffffffffffffffffffffffff160217905550808273ffffffffffffffffffffffffffffffffffffffff168473ffffffffffffffffffffffffffffffffffffffff167fddf252ad1be2c89b69c2b068fc378daa952ba7f163c4a11628f55a4df523b3ef60405160405180910390a461316583838361316f565b505050565b505050565b505050565b82805461318090614531565b90600052602060002090601f0160209004810192826131a257600085556131e9565b82601f106131bb57805160ff19168380011785556131e9565b828001600101855582156131e9579182015b828111156131e85782518255916020019190600101906131cd565b5b5090506131f69190613246565b5090565b6040518060c0016040528060008152602001600073ffffffffffffffffffffffffffffffffffffffff168152602001600081526020016060815260200160608152602001600081525090565b5b8082111561325f576000816000905550600101613247565b5090565b600061327661327184614255565b614230565b9050808382526020820190508260005b858110156132b6578151850161329c888261348b565b845260208401935060208301925050600181019050613286565b5050509392505050565b60006132d36132ce84614281565b614230565b9050828152602081018484840111156132eb57600080fd5b6132f68482856144ef565b509392505050565b600061331161330c846142b2565b614230565b90508281526020810184848401111561332957600080fd5b6133348482856144ef565b509392505050565b600061334f61334a846142b2565b614230565b90508281526020810184848401111561336757600080fd5b6133728482856144fe565b509392505050565b60008135905061338981614bf5565b92915050565b60008151905061339e81614bf5565b92915050565b6000813590506133b381614c0c565b92915050565b600082601f8301126133ca57600080fd5b81516133da848260208601613263565b91505092915050565b6000813590506133f281614c23565b92915050565b60008135905061340781614c3a565b92915050565b600082601f83011261341e57600080fd5b813561342e8482602086016132c0565b91505092915050565b600082601f83011261344857600080fd5b81356134588482602086016132fe565b91505092915050565b600082601f83011261347257600080fd5b815161348284826020860161333c565b91505092915050565b600060c0828403121561349d57600080fd5b6134a760c0614230565b905060006134b78482850161356c565b60008301525060206134cb8482850161338f565b60208301525060406134df8482850161356c565b604083015250606082015167ffffffffffffffff8111156134ff57600080fd5b61350b84828501613461565b606083015250608082015167ffffffffffffffff81111561352b57600080fd5b61353784828501613461565b60808301525060a061354b8482850161356c565b60a08301525092915050565b60008135905061356681614c51565b92915050565b60008151905061357b81614c51565b92915050565b60006020828403121561359357600080fd5b60006135a18482850161337a565b91505092915050565b6000806000606084860312156135bf57600080fd5b60006135cd868287016133a4565b935050602084013567ffffffffffffffff8111156135ea57600080fd5b6135f686828701613437565b925050604084013567ffffffffffffffff81111561361357600080fd5b61361f86828701613437565b9150509250925092565b6000806040838503121561363c57600080fd5b600061364a8582860161337a565b925050602061365b8582860161337a565b9150509250929050565b60008060006060848603121561367a57600080fd5b60006136888682870161337a565b93505060206136998682870161337a565b92505060406136aa86828701613557565b9150509250925092565b600080600080608085870312156136ca57600080fd5b60006136d88782880161337a565b94505060206136e98782880161337a565b93505060406136fa87828801613557565b925050606085013567ffffffffffffffff81111561371757600080fd5b6137238782880161340d565b91505092959194509250565b6000806040838503121561374257600080fd5b60006137508582860161337a565b9250506020613761858286016133e3565b9150509250929050565b6000806040838503121561377e57600080fd5b600061378c8582860161337a565b925050602061379d85828601613557565b9150509250929050565b6000602082840312156137b957600080fd5b600082015167ffffffffffffffff8111156137d357600080fd5b6137df848285016133b9565b91505092915050565b6000602082840312156137fa57600080fd5b6000613808848285016133f8565b91505092915050565b60006020828403121561382357600080fd5b600082013567ffffffffffffffff81111561383d57600080fd5b61384984828501613437565b91505092915050565b60006020828403121561386457600080fd5b600061387284828501613557565b91505092915050565b60006138878383613cc2565b905092915050565b6138988161447b565b82525050565b6138a781614469565b82525050565b6138b681614469565b82525050565b60006138c7826142f3565b6138d18185614316565b9350836020820285016138e3856142e3565b8060005b8581101561391f5784840389528151613900858261387b565b945061390b83614309565b925060208a019950506001810190506138e7565b50829750879550505050505092915050565b61393a8161448d565b82525050565b600061394b826142fe565b6139558185614327565b93506139658185602086016144fe565b61396e81614699565b840191505092915050565b6000613984826142fe565b61398e8185614338565b935061399e8185602086016144fe565b6139a781614699565b840191505092915050565b60006139bd826142fe565b6139c78185614349565b93506139d78185602086016144fe565b80840191505092915050565b60006139f0602d83614338565b91506139fb826146aa565b604082019050919050565b6000613a13602683614338565b9150613a1e826146f9565b604082019050919050565b6000613a36602583614338565b9150613a4182614748565b604082019050919050565b6000613a59601c83614338565b9150613a6482614797565b602082019050919050565b6000613a7c602483614338565b9150613a87826147c0565b604082019050919050565b6000613a9f601983614338565b9150613aaa8261480f565b602082019050919050565b6000613ac2602683614338565b9150613acd82614838565b604082019050919050565b6000613ae5601483614338565b9150613af082614887565b602082019050919050565b6000613b08602c83614338565b9150613b13826148b0565b604082019050919050565b6000613b2b601883614338565b9150613b36826148ff565b602082019050919050565b6000613b4e603883614338565b9150613b5982614928565b604082019050919050565b6000613b71602a83614338565b9150613b7c82614977565b604082019050919050565b6000613b94602983614338565b9150613b9f826149c6565b604082019050919050565b6000613bb7603283614338565b9150613bc282614a15565b604082019050919050565b6000613bda602083614338565b9150613be582614a64565b602082019050919050565b6000613bfd602c83614338565b9150613c0882614a8d565b604082019050919050565b6000613c20601283614338565b9150613c2b82614adc565b602082019050919050565b6000613c43602083614338565b9150613c4e82614b05565b602082019050919050565b6000613c66602183614338565b9150613c7182614b2e565b604082019050919050565b6000613c89601683614338565b9150613c9482614b7d565b602082019050919050565b6000613cac602d83614338565b9150613cb782614ba6565b604082019050919050565b600060c083016000830151613cda6000860182613de2565b506020830151613ced602086018261389e565b506040830151613d006040860182613de2565b5060608301518482036060860152613d188282613940565b91505060808301518482036080860152613d328282613940565b91505060a0830151613d4760a0860182613de2565b508091505092915050565b600060c083016000830151613d6a6000860182613de2565b506020830151613d7d602086018261389e565b506040830151613d906040860182613de2565b5060608301518482036060860152613da88282613940565b91505060808301518482036080860152613dc28282613940565b91505060a0830151613dd760a0860182613de2565b508091505092915050565b613deb816144e5565b82525050565b613dfa816144e5565b82525050565b6000613e0c82846139b2565b915081905092915050565b6000602082019050613e2c60008301846138ad565b92915050565b60006020820190508181036000830152613e4c81846138bc565b905092915050565b6000602082019050613e696000830184613931565b92915050565b60006020820190508181036000830152613e898184613979565b905092915050565b60006080820190508181036000830152613eab8187613979565b9050613eba602083018661388f565b613ec76040830185613df1565b8181036060830152613ed98184613979565b905095945050505050565b60006020820190508181036000830152613efd816139e3565b9050919050565b60006020820190508181036000830152613f1d81613a06565b9050919050565b60006020820190508181036000830152613f3d81613a29565b9050919050565b60006020820190508181036000830152613f5d81613a4c565b9050919050565b60006020820190508181036000830152613f7d81613a6f565b9050919050565b60006020820190508181036000830152613f9d81613a92565b9050919050565b60006020820190508181036000830152613fbd81613ab5565b9050919050565b60006020820190508181036000830152613fdd81613ad8565b9050919050565b60006020820190508181036000830152613ffd81613afb565b9050919050565b6000602082019050818103600083015261401d81613b1e565b9050919050565b6000602082019050818103600083015261403d81613b41565b9050919050565b6000602082019050818103600083015261405d81613b64565b9050919050565b6000602082019050818103600083015261407d81613b87565b9050919050565b6000602082019050818103600083015261409d81613baa565b9050919050565b600060208201905081810360008301526140bd81613bcd565b9050919050565b600060208201905081810360008301526140dd81613bf0565b9050919050565b600060208201905081810360008301526140fd81613c13565b9050919050565b6000602082019050818103600083015261411d81613c36565b9050919050565b6000602082019050818103600083015261413d81613c59565b9050919050565b6000602082019050818103600083015261415d81613c7c565b9050919050565b6000602082019050818103600083015261417d81613c9f565b9050919050565b6000602082019050818103600083015261419e8184613d52565b905092915050565b60006020820190506141bb6000830184613df1565b92915050565b600060c0820190506141d66000830189613df1565b6141e360208301886138ad565b6141f06040830187613df1565b81810360608301526142028186613979565b905081810360808301526142168185613979565b905061422560a0830184613df1565b979650505050505050565b600061423a61424b565b90506142468282614563565b919050565b6000604051905090565b600067ffffffffffffffff8211156142705761426f61466a565b5b602082029050602081019050919050565b600067ffffffffffffffff82111561429c5761429b61466a565b5b6142a582614699565b9050602081019050919050565b600067ffffffffffffffff8211156142cd576142cc61466a565b5b6142d682614699565b9050602081019050919050565b6000819050602082019050919050565b600081519050919050565b600081519050919050565b6000602082019050919050565b600082825260208201905092915050565b600082825260208201905092915050565b600082825260208201905092915050565b600081905092915050565b600061435f826144e5565b915061436a836144e5565b9250827fffffffffffffffffffffffffffffffffffffffffffffffffffffffffffffffff0382111561439f5761439e6145dd565b5b828201905092915050565b60006143b5826144e5565b91506143c0836144e5565b9250826143d0576143cf61460c565b5b828204905092915050565b60006143e6826144e5565b91506143f1836144e5565b9250817fffffffffffffffffffffffffffffffffffffffffffffffffffffffffffffffff048311821515161561442a576144296145dd565b5b828202905092915050565b6000614440826144e5565b915061444b836144e5565b92508282101561445e5761445d6145dd565b5b828203905092915050565b6000614474826144c5565b9050919050565b6000614486826144c5565b9050919050565b60008115159050919050565b60007fffffffff0000000000000000000000000000000000000000000000000000000082169050919050565b600073ffffffffffffffffffffffffffffffffffffffff82169050919050565b6000819050919050565b82818337600083830152505050565b60005b8381101561451c578082015181840152602081019050614501565b8381111561452b576000848401525b50505050565b6000600282049050600182168061454957607f821691505b6020821081141561455d5761455c61463b565b5b50919050565b61456c82614699565b810181811067ffffffffffffffff8211171561458b5761458a61466a565b5b80604052505050565b600061459f826144e5565b91507fffffffffffffffffffffffffffffffffffffffffffffffffffffffffffffffff8214156145d2576145d16145dd565b5b600182019050919050565b7f4e487b7100000000000000000000000000000000000000000000000000000000600052601160045260246000fd5b7f4e487b7100000000000000000000000000000000000000000000000000000000600052601260045260246000fd5b7f4e487b7100000000000000000000000000000000000000000000000000000000600052602260045260246000fd5b7f4e487b7100000000000000000000000000000000000000000000000000000000600052604160045260246000fd5b6000601f19601f8301169050919050565b7f4120746f6b656e2068617320616c7265616479206265656e206d696e7465642060008201527f7769746820746869732055524900000000000000000000000000000000000000602082015250565b7f4f776e61626c653a206e6577206f776e657220697320746865207a65726f206160008201527f6464726573730000000000000000000000000000000000000000000000000000602082015250565b7f4552433732313a207472616e736665722066726f6d20696e636f72726563742060008201527f6f776e6572000000000000000000000000000000000000000000000000000000602082015250565b7f4552433732313a20746f6b656e20616c7265616479206d696e74656400000000600082015250565b7f4552433732313a207472616e7366657220746f20746865207a65726f2061646460008201527f7265737300000000000000000000000000000000000000000000000000000000602082015250565b7f4552433732313a20617070726f766520746f2063616c6c657200000000000000600082015250565b7f4d6574686f64206d6179206f6e6c792062652063616c6c65642062792074686560008201527f206f776e65720000000000000000000000000000000000000000000000000000602082015250565b7f546f6b656e20646f6573206e6f74206578697374000000000000000000000000600082015250565b7f4552433732313a206f70657261746f7220717565727920666f72206e6f6e657860008201527f697374656e7420746f6b656e0000000000000000000000000000000000000000602082015250565b7f427579657220616c7265616479206f776e7320746f6b656e0000000000000000600082015250565b7f4552433732313a20617070726f76652063616c6c6572206973206e6f74206f7760008201527f6e6572206e6f7220617070726f76656420666f7220616c6c0000000000000000602082015250565b7f4552433732313a2062616c616e636520717565727920666f7220746865207a6560008201527f726f206164647265737300000000000000000000000000000000000000000000602082015250565b7f4552433732313a206f776e657220717565727920666f72206e6f6e657869737460008201527f656e7420746f6b656e0000000000000000000000000000000000000000000000602082015250565b7f4120746f6b656e2068617320616c7265616479206265656e206d696e7465642060008201527f77697468207468697320736f6c7574696f6e0000000000000000000000000000602082015250565b7f4552433732313a206d696e7420746f20746865207a65726f2061646472657373600082015250565b7f4552433732313a20617070726f76656420717565727920666f72206e6f6e657860008201527f697374656e7420746f6b656e0000000000000000000000000000000000000000602082015250565b7f496e76616c696420746f20616464726573730000000000000000000000000000600082015250565b7f4f776e61626c653a2063616c6c6572206973206e6f7420746865206f776e6572600082015250565b7f4552433732313a20617070726f76616c20746f2063757272656e74206f776e6560008201527f7200000000000000000000000000000000000000000000000000000000000000602082015250565b7f546f6b656e496420646f6573206e6f7420657869737400000000000000000000600082015250565b7f496e73756666696369656e742065746865722073656e7420776974682074686960008201527f73207472616e73616374696f6e00000000000000000000000000000000000000602082015250565b614bfe81614469565b8114614c0957600080fd5b50565b614c158161447b565b8114614c2057600080fd5b50565b614c2c8161448d565b8114614c3757600080fd5b50565b614c4381614499565b8114614c4e57600080fd5b50565b614c5a816144e5565b8114614c6557600080fd5b5056fea26469706673582212209dcbc97451352f463f0524f9939967c0e6221074941694da7564d8c68cf5cadf64736f6c63430008010033",
  "immutableReferences": {},
  "source": "// SPDX-License-Identifier: MIT\r\npragma solidity >=0.4.22 <0.9.0;\r\nimport \"@openzeppelin/contracts/token/ERC721/ERC721.sol\";\r\nimport \"@openzeppelin/contracts/access/Ownable.sol\";\r\n\r\ncontract EthordleToken is ERC721, Ownable {\r\n    \r\nusing Strings for uint256;\r\n    \r\n    struct Token {\r\n        uint256 id;        \r\n        address owner;\r\n        uint256 price;\r\n        string url;\r\n        string solution;\r\n        uint256 transactionCount;        \r\n    }\r\n\r\n    mapping (uint256 => Token) public _tokens;\r\n    mapping (string => address) private _solutionOwners;\r\n    mapping (string => address) private _tokenURIOwners;\r\n\r\n    address private _owner;\r\n    uint256 private _initialPrice;\r\n    uint256 private _royaltyRate;\r\n    uint256 private _priceEscalationRate;\r\n    uint256 private _currentTokenId;\r\n    string private _baseURIextended;\r\n\r\n    event TokenMinted (\r\n        string solution,\r\n        address payable account,\r\n        uint256 tokenId,\r\n        string metadataURI\r\n    );\r\n\r\n    constructor(string memory _name, string memory _symbol, uint256 initialPrice_, uint256 royaltyRate_, uint256 priceEscalationRate_) ERC721(_name, _symbol) {\r\n        _owner = msg.sender;\r\n        _currentTokenId = 0;\r\n        _initialPrice = initialPrice_;\r\n        _royaltyRate = royaltyRate_;\r\n        _priceEscalationRate = priceEscalationRate_;\r\n    }\r\n    \r\n    function setInitialPrice(uint256 initialPrice_) external onlyOwner() {\r\n        _initialPrice = initialPrice_;\r\n    }\r\n\r\n    function initialPrice() external view returns (uint256) {\r\n        return _initialPrice;\r\n    }\r\n\r\n    function setRoyaltyRate(uint256 royaltyRate_) external onlyOwner() {\r\n        _royaltyRate = royaltyRate_;   \r\n    }\r\n\r\n    function royaltyRate() external view returns (uint256) {\r\n        return _royaltyRate;\r\n    }\r\n\r\n    function setPriceEscalationRate(uint256 priceEscalationRate_) external onlyOwner() {\r\n        _priceEscalationRate = priceEscalationRate_;\r\n    }\r\n\r\n    function priceEscalationRate() external view returns (uint256) {\r\n        return _priceEscalationRate;\r\n    }\r\n\r\n    function tokenCount() external view returns (uint256) {\r\n        return _currentTokenId;\r\n    }\r\n\r\n    function tokenById(uint256 tokenId) external view returns(Token memory) {\r\n        require(_exists(tokenId), 'TokenId does not exist');  \r\n\r\n        Token memory token = _tokens[tokenId];\r\n        require(_exists(tokenId), 'Token does not exist');   \r\n\r\n        return token;\r\n    }\r\n\r\n    function tokensOfOwner(address _from) external view returns(Token[] memory) {\r\n        uint256 ownerCount = balanceOf(_from);\r\n        uint256 ownerIndex = 0;\r\n        Token[] memory ownerTokens = new Token[](ownerCount);\r\n\r\n        if (ownerCount > 0) {\r\n            Token[] memory allTokens = this.tokens();\r\n            \r\n            for (uint256 i = 0; i < _currentTokenId; i++) {\r\n                if (allTokens[i].owner == _from) {\r\n                    ownerTokens[ownerIndex] = allTokens[i];\r\n                    ownerIndex++;\r\n                }\r\n            }\r\n        }\r\n\r\n        return ownerTokens;\r\n    }\r\n\r\n    function tokens() external view returns(Token[] memory) {  \r\n        Token[] memory allTokens = new Token[](_currentTokenId);\r\n\r\n        for (uint256 i = 0; i < _currentTokenId; i++) {\r\n            allTokens[i] = _tokens[i];\r\n        }\r\n\r\n        return allTokens;\r\n    }\r\n    \r\n    function setBaseURI(string memory baseURI) external onlyOwner() {\r\n        _baseURIextended = baseURI;\r\n    }\r\n    \r\n    function _baseURI() internal view virtual override returns (string memory) {\r\n        return _baseURIextended;\r\n    }\r\n    \r\n    function isSolutionUnique(string memory solution_) public view returns (bool) {\r\n        return _solutionOwners[solution_] == address(0x0);\r\n    }\r\n\r\n    function tokenURI(uint256 tokenId) public view virtual override returns (string memory) {\r\n        require(_exists(tokenId), 'TokenId does not exist');\r\n\r\n        return _tokens[tokenId].url;\r\n    }\r\n\r\n    function mint(\r\n        address payable to,\r\n        string memory solution_,\r\n        string memory tokenURI_\r\n    ) external payable {  \r\n        require(msg.sender == to || msg.sender == _owner, 'Invalid to address');      \r\n        require(msg.value >= _initialPrice, 'Insufficient ether sent with this transaction'); \r\n        require(_solutionOwners[solution_] == address(0x0), 'A token has already been minted with this solution');\r\n        require(_tokenURIOwners[tokenURI_] == address(0x0), 'A token has already been minted with this URI');\r\n        \r\n        payable(owner()).transfer(msg.value);\r\n\r\n        _mint(to, _currentTokenId);\r\n\r\n        uint256 newPrice =_getEscalatedPrice(msg.value);\r\n\r\n        Token memory token = Token(_currentTokenId, to, newPrice, tokenURI_, solution_, 1);\r\n       \r\n        _tokens[_currentTokenId] = token;\r\n        _solutionOwners[solution_] = to;\r\n        _tokenURIOwners[tokenURI_] = to;\r\n        _currentTokenId++;        \r\n        \r\n        emit TokenMinted(solution_, to, _currentTokenId, tokenURI_);\r\n    }\r\n\r\n    function buy(\r\n        address to,\r\n        uint256 tokenId\r\n    ) external payable {        \r\n        require(msg.sender == to, 'Invalid to address');\r\n        require(_exists(tokenId), 'TokenId does not exist');   \r\n        require(!_isApprovedOrOwner(_msgSender(), tokenId), \"Buyer already owns token\");   \r\n\r\n        Token memory token = _tokens[tokenId];\r\n        require(_exists(token.id), 'Token does not exist');        \r\n        require(msg.value >= token.price, 'Insufficient ether sent with this transaction');\r\n       \r\n        string memory solution_ = token.solution;\r\n        string memory tokenURI_ = token.url;\r\n\r\n        address from = token.owner;\r\n        uint256 totalRoyalty = _getRoyalty(msg.value); \r\n        uint256 remainder = msg.value - totalRoyalty;\r\n\r\n        payable(owner()).transfer(totalRoyalty);\r\n        payable(address(from)).transfer(remainder);\r\n\r\n        _transfer(from, to, tokenId);\r\n\r\n        _solutionOwners[solution_] = to;\r\n        _tokenURIOwners[tokenURI_] = to;\r\n\r\n        uint256 newPrice = _getEscalatedPrice(msg.value);\r\n\r\n        token.owner = to;\r\n        token.price = newPrice;\r\n        token.transactionCount++;       \r\n\r\n        _tokens[tokenId] = token; \r\n    }\r\n    \r\n    // todo how to prevent base _transfer from being called directly\r\n\r\n    function _getRoyalty(uint256 value) private view returns (uint256) {\r\n        return value * _royaltyRate / 10000 ;  // todo need safe multiply    \r\n    }\r\n\r\n    function _getEscalatedPrice(uint256 value) private view returns (uint256) {\r\n        uint256 divisor = 10**15;\r\n        uint256 newPrice = value * _priceEscalationRate / 10000 ;  // todo need safe multiply    \r\n        \r\n        return (newPrice / divisor) * divisor;  // round off new price to nearest 1E15\r\n    }\r\n\r\n    function transferFrom(\r\n        address /*from*/,\r\n        address /*to*/,\r\n        uint256 /*tokenId*/\r\n    ) public view override {\r\n        require(msg.sender == _owner, 'Method may only be called by the owner');\r\n    }\r\n\r\n    function safeTransferFrom(\r\n        address /*from*/,\r\n        address /*to*/,\r\n        uint256 /*tokenId*/\r\n    ) public view override {\r\n        require(msg.sender == _owner, 'Method may only be called by the owner');\r\n    }\r\n\r\n    function safeTransferFrom(\r\n        address /*from*/,\r\n        address /*to*/,\r\n        uint256 /*tokenId*/,\r\n        bytes memory /*_data*/\r\n    ) public view override {\r\n        require(msg.sender == _owner, 'Method may only be called by the owner');\r\n    }\r\n}",
  "sourcePath": "C:\\Dev\\Github\\ethordle\\contracts\\EthordleToken.sol",
  "compiler": {
    "name": "solc",
    "version": "0.8.1+commit.df193b15.Emscripten.clang"
  },
  "schemaVersion": "3.4.6",
  "updatedAt": "2022-04-21T18:10:14.140Z",
  "devdoc": {
    "kind": "dev",
    "methods": {
      "approve(address,uint256)": {
        "details": "See {IERC721-approve}."
      },
      "balanceOf(address)": {
        "details": "See {IERC721-balanceOf}."
      },
      "getApproved(uint256)": {
        "details": "See {IERC721-getApproved}."
      },
      "isApprovedForAll(address,address)": {
        "details": "See {IERC721-isApprovedForAll}."
      },
      "name()": {
        "details": "See {IERC721Metadata-name}."
      },
      "owner()": {
        "details": "Returns the address of the current owner."
      },
      "ownerOf(uint256)": {
        "details": "See {IERC721-ownerOf}."
      },
      "renounceOwnership()": {
        "details": "Leaves the contract without owner. It will not be possible to call `onlyOwner` functions anymore. Can only be called by the current owner. NOTE: Renouncing ownership will leave the contract without an owner, thereby removing any functionality that is only available to the owner."
      },
      "setApprovalForAll(address,bool)": {
        "details": "See {IERC721-setApprovalForAll}."
      },
      "supportsInterface(bytes4)": {
        "details": "See {IERC165-supportsInterface}."
      },
      "symbol()": {
        "details": "See {IERC721Metadata-symbol}."
      },
      "tokenURI(uint256)": {
        "details": "See {IERC721Metadata-tokenURI}."
      },
      "transferOwnership(address)": {
        "details": "Transfers ownership of the contract to a new account (`newOwner`). Can only be called by the current owner."
      }
    },
    "version": 1
  },
  "userdoc": {
    "kind": "user",
    "methods": {},
    "version": 1
  }
}