{
  "contractName": "EthordleToken",
  "abi": [
    {
      "inputs": [
        {
          "internalType": "string",
          "name": "_name",
          "type": "string"
        },
        {
          "internalType": "string",
          "name": "_symbol",
          "type": "string"
        },
        {
          "internalType": "uint256",
          "name": "initialPrice_",
          "type": "uint256"
        },
        {
          "internalType": "uint256",
          "name": "minimumPrice_",
          "type": "uint256"
        },
        {
          "internalType": "uint256",
          "name": "royaltyRate_",
          "type": "uint256"
        },
        {
          "internalType": "uint256",
          "name": "priceEscalationRate_",
          "type": "uint256"
        },
        {
          "internalType": "string",
          "name": "password_",
          "type": "string"
        }
      ],
      "stateMutability": "nonpayable",
      "type": "constructor"
    },
    {
      "anonymous": false,
      "inputs": [
        {
          "indexed": true,
          "internalType": "address",
          "name": "owner",
          "type": "address"
        },
        {
          "indexed": true,
          "internalType": "address",
          "name": "approved",
          "type": "address"
        },
        {
          "indexed": true,
          "internalType": "uint256",
          "name": "tokenId",
          "type": "uint256"
        }
      ],
      "name": "Approval",
      "type": "event"
    },
    {
      "anonymous": false,
      "inputs": [
        {
          "indexed": true,
          "internalType": "address",
          "name": "owner",
          "type": "address"
        },
        {
          "indexed": true,
          "internalType": "address",
          "name": "operator",
          "type": "address"
        },
        {
          "indexed": false,
          "internalType": "bool",
          "name": "approved",
          "type": "bool"
        }
      ],
      "name": "ApprovalForAll",
      "type": "event"
    },
    {
      "anonymous": false,
      "inputs": [
        {
          "indexed": false,
          "internalType": "uint256",
          "name": "tokenId",
          "type": "uint256"
        },
        {
          "indexed": false,
          "internalType": "address",
          "name": "owner",
          "type": "address"
        },
        {
          "indexed": false,
          "internalType": "uint256",
          "name": "price",
          "type": "uint256"
        },
        {
          "indexed": false,
          "internalType": "string",
          "name": "solution",
          "type": "string"
        },
        {
          "indexed": false,
          "internalType": "string",
          "name": "metadataURI",
          "type": "string"
        }
      ],
      "name": "Minted",
      "type": "event"
    },
    {
      "anonymous": false,
      "inputs": [
        {
          "indexed": true,
          "internalType": "address",
          "name": "previousOwner",
          "type": "address"
        },
        {
          "indexed": true,
          "internalType": "address",
          "name": "newOwner",
          "type": "address"
        }
      ],
      "name": "OwnershipTransferred",
      "type": "event"
    },
    {
      "anonymous": false,
      "inputs": [
        {
          "indexed": false,
          "internalType": "uint256",
          "name": "tokenId",
          "type": "uint256"
        },
        {
          "indexed": false,
          "internalType": "address",
          "name": "seller",
          "type": "address"
        },
        {
          "indexed": false,
          "internalType": "string",
          "name": "solution",
          "type": "string"
        },
        {
          "indexed": false,
          "internalType": "string",
          "name": "metadataURI",
          "type": "string"
        }
      ],
      "name": "SaleCanceled",
      "type": "event"
    },
    {
      "anonymous": false,
      "inputs": [
        {
          "indexed": false,
          "internalType": "uint256",
          "name": "tokenId",
          "type": "uint256"
        },
        {
          "indexed": false,
          "internalType": "address",
          "name": "seller",
          "type": "address"
        },
        {
          "indexed": false,
          "internalType": "uint256",
          "name": "price",
          "type": "uint256"
        },
        {
          "indexed": false,
          "internalType": "string",
          "name": "solution",
          "type": "string"
        },
        {
          "indexed": false,
          "internalType": "string",
          "name": "metadataURI",
          "type": "string"
        }
      ],
      "name": "SaleCreated",
      "type": "event"
    },
    {
      "anonymous": false,
      "inputs": [
        {
          "indexed": false,
          "internalType": "uint256",
          "name": "tokenId",
          "type": "uint256"
        },
        {
          "indexed": false,
          "internalType": "address",
          "name": "buyer",
          "type": "address"
        },
        {
          "indexed": false,
          "internalType": "address",
          "name": "seller",
          "type": "address"
        },
        {
          "indexed": false,
          "internalType": "uint256",
          "name": "price",
          "type": "uint256"
        },
        {
          "indexed": false,
          "internalType": "string",
          "name": "solution",
          "type": "string"
        },
        {
          "indexed": false,
          "internalType": "string",
          "name": "metadataURI",
          "type": "string"
        }
      ],
      "name": "SaleSuccessful",
      "type": "event"
    },
    {
      "anonymous": false,
      "inputs": [
        {
          "indexed": true,
          "internalType": "address",
          "name": "from",
          "type": "address"
        },
        {
          "indexed": true,
          "internalType": "address",
          "name": "to",
          "type": "address"
        },
        {
          "indexed": true,
          "internalType": "uint256",
          "name": "tokenId",
          "type": "uint256"
        }
      ],
      "name": "Transfer",
      "type": "event"
    },
    {
      "anonymous": false,
      "inputs": [
        {
          "indexed": false,
          "internalType": "uint256",
          "name": "tokenId",
          "type": "uint256"
        },
        {
          "indexed": false,
          "internalType": "address",
          "name": "transferee",
          "type": "address"
        },
        {
          "indexed": false,
          "internalType": "string",
          "name": "solution",
          "type": "string"
        },
        {
          "indexed": false,
          "internalType": "string",
          "name": "metadataURI",
          "type": "string"
        }
      ],
      "name": "TransferSuccessful",
      "type": "event"
    },
    {
      "inputs": [
        {
          "internalType": "uint256",
          "name": "",
          "type": "uint256"
        }
      ],
      "name": "_tokens",
      "outputs": [
        {
          "internalType": "uint256",
          "name": "id",
          "type": "uint256"
        },
        {
          "internalType": "address",
          "name": "owner",
          "type": "address"
        },
        {
          "internalType": "uint256",
          "name": "price",
          "type": "uint256"
        },
        {
          "internalType": "uint256",
          "name": "lastPrice",
          "type": "uint256"
        },
        {
          "internalType": "string",
          "name": "url",
          "type": "string"
        },
        {
          "internalType": "string",
          "name": "solution",
          "type": "string"
        },
        {
          "internalType": "bool",
          "name": "isForSale",
          "type": "bool"
        },
        {
          "internalType": "uint256",
          "name": "lastTransactionTimestamp",
          "type": "uint256"
        },
        {
          "internalType": "uint256",
          "name": "transactionCount",
          "type": "uint256"
        }
      ],
      "stateMutability": "view",
      "type": "function"
    },
    {
      "inputs": [
        {
          "internalType": "address",
          "name": "to",
          "type": "address"
        },
        {
          "internalType": "uint256",
          "name": "tokenId",
          "type": "uint256"
        }
      ],
      "name": "approve",
      "outputs": [],
      "stateMutability": "nonpayable",
      "type": "function"
    },
    {
      "inputs": [
        {
          "internalType": "address",
          "name": "owner",
          "type": "address"
        }
      ],
      "name": "balanceOf",
      "outputs": [
        {
          "internalType": "uint256",
          "name": "",
          "type": "uint256"
        }
      ],
      "stateMutability": "view",
      "type": "function"
    },
    {
      "inputs": [
        {
          "internalType": "uint256",
          "name": "tokenId",
          "type": "uint256"
        }
      ],
      "name": "getApproved",
      "outputs": [
        {
          "internalType": "address",
          "name": "",
          "type": "address"
        }
      ],
      "stateMutability": "view",
      "type": "function"
    },
    {
      "inputs": [
        {
          "internalType": "address",
          "name": "owner",
          "type": "address"
        },
        {
          "internalType": "address",
          "name": "operator",
          "type": "address"
        }
      ],
      "name": "isApprovedForAll",
      "outputs": [
        {
          "internalType": "bool",
          "name": "",
          "type": "bool"
        }
      ],
      "stateMutability": "view",
      "type": "function"
    },
    {
      "inputs": [],
      "name": "name",
      "outputs": [
        {
          "internalType": "string",
          "name": "",
          "type": "string"
        }
      ],
      "stateMutability": "view",
      "type": "function"
    },
    {
      "inputs": [],
      "name": "owner",
      "outputs": [
        {
          "internalType": "address",
          "name": "",
          "type": "address"
        }
      ],
      "stateMutability": "view",
      "type": "function"
    },
    {
      "inputs": [
        {
          "internalType": "uint256",
          "name": "tokenId",
          "type": "uint256"
        }
      ],
      "name": "ownerOf",
      "outputs": [
        {
          "internalType": "address",
          "name": "",
          "type": "address"
        }
      ],
      "stateMutability": "view",
      "type": "function"
    },
    {
      "inputs": [],
      "name": "renounceOwnership",
      "outputs": [],
      "stateMutability": "nonpayable",
      "type": "function"
    },
    {
      "inputs": [
        {
          "internalType": "address",
          "name": "operator",
          "type": "address"
        },
        {
          "internalType": "bool",
          "name": "approved",
          "type": "bool"
        }
      ],
      "name": "setApprovalForAll",
      "outputs": [],
      "stateMutability": "nonpayable",
      "type": "function"
    },
    {
      "inputs": [
        {
          "internalType": "bytes4",
          "name": "interfaceId",
          "type": "bytes4"
        }
      ],
      "name": "supportsInterface",
      "outputs": [
        {
          "internalType": "bool",
          "name": "",
          "type": "bool"
        }
      ],
      "stateMutability": "view",
      "type": "function"
    },
    {
      "inputs": [],
      "name": "symbol",
      "outputs": [
        {
          "internalType": "string",
          "name": "",
          "type": "string"
        }
      ],
      "stateMutability": "view",
      "type": "function"
    },
    {
      "inputs": [
        {
          "internalType": "address",
          "name": "newOwner",
          "type": "address"
        }
      ],
      "name": "transferOwnership",
      "outputs": [],
      "stateMutability": "nonpayable",
      "type": "function"
    },
    {
      "inputs": [
        {
          "internalType": "string",
          "name": "a",
          "type": "string"
        },
        {
          "internalType": "string",
          "name": "b",
          "type": "string"
        }
      ],
      "name": "_compareStrings",
      "outputs": [
        {
          "internalType": "bool",
          "name": "",
          "type": "bool"
        }
      ],
      "stateMutability": "pure",
      "type": "function"
    },
    {
      "inputs": [
        {
          "internalType": "uint256",
          "name": "initialPrice_",
          "type": "uint256"
        }
      ],
      "name": "setInitialPrice",
      "outputs": [],
      "stateMutability": "nonpayable",
      "type": "function"
    },
    {
      "inputs": [],
      "name": "initialPrice",
      "outputs": [
        {
          "internalType": "uint256",
          "name": "",
          "type": "uint256"
        }
      ],
      "stateMutability": "view",
      "type": "function"
    },
    {
      "inputs": [
        {
          "internalType": "uint256",
          "name": "minimumPrice_",
          "type": "uint256"
        }
      ],
      "name": "setMinimumPrice",
      "outputs": [],
      "stateMutability": "nonpayable",
      "type": "function"
    },
    {
      "inputs": [],
      "name": "minimumPrice",
      "outputs": [
        {
          "internalType": "uint256",
          "name": "",
          "type": "uint256"
        }
      ],
      "stateMutability": "view",
      "type": "function"
    },
    {
      "inputs": [
        {
          "internalType": "uint256",
          "name": "royaltyRate_",
          "type": "uint256"
        }
      ],
      "name": "setRoyaltyRate",
      "outputs": [],
      "stateMutability": "nonpayable",
      "type": "function"
    },
    {
      "inputs": [],
      "name": "royaltyRate",
      "outputs": [
        {
          "internalType": "uint256",
          "name": "",
          "type": "uint256"
        }
      ],
      "stateMutability": "view",
      "type": "function"
    },
    {
      "inputs": [
        {
          "internalType": "uint256",
          "name": "priceEscalationRate_",
          "type": "uint256"
        }
      ],
      "name": "setPriceEscalationRate",
      "outputs": [],
      "stateMutability": "nonpayable",
      "type": "function"
    },
    {
      "inputs": [],
      "name": "priceEscalationRate",
      "outputs": [
        {
          "internalType": "uint256",
          "name": "",
          "type": "uint256"
        }
      ],
      "stateMutability": "view",
      "type": "function"
    },
    {
      "inputs": [
        {
          "internalType": "string",
          "name": "password_",
          "type": "string"
        }
      ],
      "name": "setPassword",
      "outputs": [],
      "stateMutability": "nonpayable",
      "type": "function"
    },
    {
      "inputs": [
        {
          "internalType": "address",
          "name": "beneficiary_",
          "type": "address"
        }
      ],
      "name": "setBeneficiary",
      "outputs": [],
      "stateMutability": "nonpayable",
      "type": "function"
    },
    {
      "inputs": [],
      "name": "tokenCount",
      "outputs": [
        {
          "internalType": "uint256",
          "name": "",
          "type": "uint256"
        }
      ],
      "stateMutability": "view",
      "type": "function"
    },
    {
      "inputs": [
        {
          "internalType": "uint256",
          "name": "tokenId",
          "type": "uint256"
        }
      ],
      "name": "tokenById",
      "outputs": [
        {
          "components": [
            {
              "internalType": "uint256",
              "name": "id",
              "type": "uint256"
            },
            {
              "internalType": "address",
              "name": "owner",
              "type": "address"
            },
            {
              "internalType": "uint256",
              "name": "price",
              "type": "uint256"
            },
            {
              "internalType": "uint256",
              "name": "lastPrice",
              "type": "uint256"
            },
            {
              "internalType": "string",
              "name": "url",
              "type": "string"
            },
            {
              "internalType": "string",
              "name": "solution",
              "type": "string"
            },
            {
              "internalType": "bool",
              "name": "isForSale",
              "type": "bool"
            },
            {
              "internalType": "uint256",
              "name": "lastTransactionTimestamp",
              "type": "uint256"
            },
            {
              "internalType": "uint256",
              "name": "transactionCount",
              "type": "uint256"
            }
          ],
          "internalType": "struct EthordleToken.Token",
          "name": "",
          "type": "tuple"
        }
      ],
      "stateMutability": "view",
      "type": "function"
    },
    {
      "inputs": [
        {
          "internalType": "address",
          "name": "_from",
          "type": "address"
        }
      ],
      "name": "tokensOfOwner",
      "outputs": [
        {
          "components": [
            {
              "internalType": "uint256",
              "name": "id",
              "type": "uint256"
            },
            {
              "internalType": "address",
              "name": "owner",
              "type": "address"
            },
            {
              "internalType": "uint256",
              "name": "price",
              "type": "uint256"
            },
            {
              "internalType": "uint256",
              "name": "lastPrice",
              "type": "uint256"
            },
            {
              "internalType": "string",
              "name": "url",
              "type": "string"
            },
            {
              "internalType": "string",
              "name": "solution",
              "type": "string"
            },
            {
              "internalType": "bool",
              "name": "isForSale",
              "type": "bool"
            },
            {
              "internalType": "uint256",
              "name": "lastTransactionTimestamp",
              "type": "uint256"
            },
            {
              "internalType": "uint256",
              "name": "transactionCount",
              "type": "uint256"
            }
          ],
          "internalType": "struct EthordleToken.Token[]",
          "name": "",
          "type": "tuple[]"
        }
      ],
      "stateMutability": "view",
      "type": "function"
    },
    {
      "inputs": [],
      "name": "tokens",
      "outputs": [
        {
          "components": [
            {
              "internalType": "uint256",
              "name": "id",
              "type": "uint256"
            },
            {
              "internalType": "address",
              "name": "owner",
              "type": "address"
            },
            {
              "internalType": "uint256",
              "name": "price",
              "type": "uint256"
            },
            {
              "internalType": "uint256",
              "name": "lastPrice",
              "type": "uint256"
            },
            {
              "internalType": "string",
              "name": "url",
              "type": "string"
            },
            {
              "internalType": "string",
              "name": "solution",
              "type": "string"
            },
            {
              "internalType": "bool",
              "name": "isForSale",
              "type": "bool"
            },
            {
              "internalType": "uint256",
              "name": "lastTransactionTimestamp",
              "type": "uint256"
            },
            {
              "internalType": "uint256",
              "name": "transactionCount",
              "type": "uint256"
            }
          ],
          "internalType": "struct EthordleToken.Token[]",
          "name": "",
          "type": "tuple[]"
        }
      ],
      "stateMutability": "view",
      "type": "function"
    },
    {
      "inputs": [
        {
          "internalType": "string",
          "name": "baseURI",
          "type": "string"
        }
      ],
      "name": "setBaseURI",
      "outputs": [],
      "stateMutability": "nonpayable",
      "type": "function"
    },
    {
      "inputs": [
        {
          "internalType": "string",
          "name": "solution_",
          "type": "string"
        }
      ],
      "name": "isSolutionUnique",
      "outputs": [
        {
          "internalType": "bool",
          "name": "",
          "type": "bool"
        }
      ],
      "stateMutability": "view",
      "type": "function"
    },
    {
      "inputs": [
        {
          "internalType": "uint256",
          "name": "tokenId",
          "type": "uint256"
        }
      ],
      "name": "tokenURI",
      "outputs": [
        {
          "internalType": "string",
          "name": "",
          "type": "string"
        }
      ],
      "stateMutability": "view",
      "type": "function"
    },
    {
      "inputs": [
        {
          "internalType": "address payable",
          "name": "to",
          "type": "address"
        },
        {
          "internalType": "string",
          "name": "solution_",
          "type": "string"
        },
        {
          "internalType": "string",
          "name": "tokenURI_",
          "type": "string"
        },
        {
          "internalType": "string",
          "name": "password_",
          "type": "string"
        }
      ],
      "name": "mint",
      "outputs": [],
      "stateMutability": "payable",
      "type": "function"
    },
    {
      "inputs": [
        {
          "internalType": "uint256",
          "name": "tokenId",
          "type": "uint256"
        },
        {
          "internalType": "uint256",
          "name": "price",
          "type": "uint256"
        }
      ],
      "name": "createSale",
      "outputs": [],
      "stateMutability": "nonpayable",
      "type": "function"
    },
    {
      "inputs": [
        {
          "internalType": "uint256",
          "name": "tokenId",
          "type": "uint256"
        }
      ],
      "name": "cancelSale",
      "outputs": [],
      "stateMutability": "nonpayable",
      "type": "function"
    },
    {
      "inputs": [
        {
          "internalType": "uint256",
          "name": "tokenId",
          "type": "uint256"
        },
        {
          "internalType": "string",
          "name": "password_",
          "type": "string"
        }
      ],
      "name": "buy",
      "outputs": [],
      "stateMutability": "payable",
      "type": "function"
    },
    {
      "inputs": [
        {
          "internalType": "uint256",
          "name": "tokenId",
          "type": "uint256"
        },
        {
          "internalType": "address",
          "name": "to",
          "type": "address"
        }
      ],
      "name": "transferAsContractOwner",
      "outputs": [],
      "stateMutability": "payable",
      "type": "function"
    },
    {
      "inputs": [
        {
          "internalType": "address",
          "name": "",
          "type": "address"
        },
        {
          "internalType": "address",
          "name": "",
          "type": "address"
        },
        {
          "internalType": "uint256",
          "name": "",
          "type": "uint256"
        }
      ],
      "name": "transferFrom",
      "outputs": [],
      "stateMutability": "view",
      "type": "function"
    },
    {
      "inputs": [
        {
          "internalType": "address",
          "name": "",
          "type": "address"
        },
        {
          "internalType": "address",
          "name": "",
          "type": "address"
        },
        {
          "internalType": "uint256",
          "name": "",
          "type": "uint256"
        }
      ],
      "name": "safeTransferFrom",
      "outputs": [],
      "stateMutability": "view",
      "type": "function"
    },
    {
      "inputs": [
        {
          "internalType": "address",
          "name": "",
          "type": "address"
        },
        {
          "internalType": "address",
          "name": "",
          "type": "address"
        },
        {
          "internalType": "uint256",
          "name": "",
          "type": "uint256"
        },
        {
          "internalType": "bytes",
          "name": "",
          "type": "bytes"
        }
      ],
      "name": "safeTransferFrom",
      "outputs": [],
      "stateMutability": "view",
      "type": "function"
    }
  ],
  "bytecode": "0x608060405266038d7ea4c680006012553480156200001c57600080fd5b5060405162003e2638038062003e268339810160408190526200003f91620002af565b8651879087906200005890600090602085019062000156565b5080516200006e90600190602084019062000156565b50506001600655506200008a62000084620000f1565b620000f5565b6000600f55600b859055600c849055600d839055600e8290558051620000b890601190602084019062000156565b50620000c362000147565b601380546001600160a01b0319166001600160a01b039290921691909117905550620003b695505050505050565b3390565b600780546001600160a01b038381166001600160a01b0319831681179093556040519116919082907f8be0079c531659141344cd1fd0a4f28419497f9722a3daafe3b4186f6b6457e090600090a35050565b6007546001600160a01b031690565b828054620001649062000363565b90600052602060002090601f016020900481019282620001885760008555620001d3565b82601f10620001a357805160ff1916838001178555620001d3565b82800160010185558215620001d3579182015b82811115620001d3578251825591602001919060010190620001b6565b50620001e1929150620001e5565b5090565b5b80821115620001e15760008155600101620001e6565b600082601f8301126200020d578081fd5b81516001600160401b03808211156200022a576200022a620003a0565b604051601f8301601f19908116603f01168101908282118183101715620002555762000255620003a0565b8160405283815260209250868385880101111562000271578485fd5b8491505b8382101562000294578582018301518183018401529082019062000275565b83821115620002a557848385830101525b9695505050505050565b600080600080600080600060e0888a031215620002ca578283fd5b87516001600160401b0380821115620002e1578485fd5b620002ef8b838c01620001fc565b985060208a015191508082111562000305578485fd5b620003138b838c01620001fc565b975060408a0151965060608a0151955060808a0151945060a08a0151935060c08a015191508082111562000345578283fd5b50620003548a828b01620001fc565b91505092959891949750929550565b6002810460018216806200037857607f821691505b602082108114156200039a57634e487b7160e01b600052602260045260246000fd5b50919050565b634e487b7160e01b600052604160045260246000fd5b613a6080620003c66000396000f3fe6080604052600436106102305760003560e01c8063755381f71161012e578063a22cb465116100ab578063c4d1510d1161006f578063c4d1510d14610624578063c87b56dd14610639578063e985e9c514610659578063ed70554d14610679578063f2fde38b146106ae57610230565b8063a22cb46514610591578063a5a02584146105b1578063b7dc3b18146105d1578063b88d4fde146105e4578063bd94b0051461060457610230565b806395d89b41116100f257806395d89b41146105125780639d63848a146105275780639f181b5e1461053c5780639f4ba0ee14610551578063a129ece91461057157610230565b8063755381f7146104865780637c68ec4c1461049b5780637f386b6c146104bb5780638462151c146104d05780638da5cb5b146104fd57610230565b8063290bb453116101bc5780636019061b116101805780636019061b146103e45780636352211e146104045780636b6af2d51461042457806370a0823114610451578063715018a61461047157610230565b8063290bb4531461037157806342842e0e1461031e5780634a0706be14610391578063537782a2146103a457806355f804b3146103c457610230565b80631c31f710116102035780631c31f710146102dc5780631d0806ae146102fc57806323b872dd1461031e578063251d89641461033e57806325cea9761461035157610230565b806301ffc9a71461023557806306fdde031461026b578063081812fc1461028d578063095ea7b3146102ba575b600080fd5b34801561024157600080fd5b50610255610250366004612c7f565b6106ce565b6040516102629190612f36565b60405180910390f35b34801561027757600080fd5b50610280610716565b6040516102629190612f41565b34801561029957600080fd5b506102ad6102a8366004612d3b565b6107a8565b6040516102629190612ec2565b3480156102c657600080fd5b506102da6102d5366004612b03565b6107f4565b005b3480156102e857600080fd5b506102da6102f736600461293a565b61088c565b34801561030857600080fd5b506103116108ed565b6040516102629190613734565b34801561032a57600080fd5b506102da610339366004612a25565b6108f3565b6102da61034c366004612d53565b610932565b34801561035d57600080fd5b506102da61036c366004612d3b565b610baa565b34801561037d57600080fd5b506102da61038c366004612ca7565b610bee565b6102da61039f366004612956565b610c44565b3480156103b057600080fd5b506102da6103bf366004612d3b565b6110b0565b3480156103d057600080fd5b506102da6103df366004612ca7565b6110f4565b3480156103f057600080fd5b506102da6103ff366004612db2565b611146565b34801561041057600080fd5b506102ad61041f366004612d3b565b611328565b34801561043057600080fd5b5061044461043f366004612d3b565b61135d565b6040516102629190613721565b34801561045d57600080fd5b5061031161046c36600461293a565b611377565b34801561047d57600080fd5b506102da6113bb565b34801561049257600080fd5b50610311611406565b3480156104a757600080fd5b506102556104b6366004612cda565b61140c565b3480156104c757600080fd5b50610311611465565b3480156104dc57600080fd5b506104f06104eb36600461293a565b61146b565b6040516102629190612ed6565b34801561050957600080fd5b506102ad611638565b34801561051e57600080fd5b50610280611647565b34801561053357600080fd5b506104f0611656565b34801561054857600080fd5b506103116118ac565b34801561055d57600080fd5b506102da61056c366004612d3b565b6118b2565b34801561057d57600080fd5b506102da61058c366004612d3b565b6118f6565b34801561059d57600080fd5b506102da6105ac366004612ad6565b61193a565b3480156105bd57600080fd5b506102556105cc366004612ca7565b61194c565b6102da6105df366004612d77565b611989565b3480156105f057600080fd5b506102da6105ff366004612a65565b611cf1565b34801561061057600080fd5b506102da61061f366004612d3b565b611d36565b34801561063057600080fd5b50610311611eb2565b34801561064557600080fd5b50610280610654366004612d3b565b611eb8565b34801561066557600080fd5b506102556106743660046129ed565b611ed0565b34801561068557600080fd5b50610699610694366004612d3b565b611efe565b60405161026299989796959493929190613827565b3480156106ba57600080fd5b506102da6106c936600461293a565b612067565b60006001600160e01b031982166380ac58cd60e01b14806106ff57506001600160e01b03198216635b5e139f60e01b145b8061070e575061070e826120d8565b90505b919050565b60606000805461072590613985565b80601f016020809104026020016040519081016040528092919081815260200182805461075190613985565b801561079e5780601f106107735761010080835404028352916020019161079e565b820191906000526020600020905b81548152906001019060200180831161078157829003601f168201915b5050505050905090565b60006107b3826120f1565b6107d85760405162461bcd60e51b81526004016107cf90613359565b60405180910390fd5b506000908152600460205260409020546001600160a01b031690565b60006107ff82611328565b9050806001600160a01b0316836001600160a01b031614156108335760405162461bcd60e51b81526004016107cf906134bc565b806001600160a01b031661084561210e565b6001600160a01b0316148061086157506108618161067461210e565b61087d5760405162461bcd60e51b81526004016107cf906131e2565b6108878383612112565b505050565b61089461210e565b6001600160a01b03166108a5611638565b6001600160a01b0316146108cb5760405162461bcd60e51b81526004016107cf90613435565b601380546001600160a01b0319166001600160a01b0392909216919091179055565b600b5490565b6108fb61210e565b6001600160a01b031661090c611638565b6001600160a01b0316146108875760405162461bcd60e51b81526004016107cf90613435565b600260065414156109555760405162461bcd60e51b81526004016107cf9061368d565b600260065561096261210e565b6001600160a01b0316610973611638565b6001600160a01b0316146109995760405162461bcd60e51b81526004016107cf90613435565b60006109a483612180565b9050816001600160a01b03166109b984611328565b6001600160a01b031614156109e05760405162461bcd60e51b81526004016107cf906131ab565b60a081015160808201516109fd6109f686611328565b8587612377565b83600983604051610a0e9190612ea6565b908152602001604051809103902060006101000a8154816001600160a01b0302191690836001600160a01b0316021790555083600a82604051610a519190612ea6565b9081526040516020918190038201902080546001600160a01b0319166001600160a01b0393841617905590851690840152600060c08401524260e08401526101008301805190610aa0826139c0565b90525060008581526008602090815260409182902085518155858201516001820180546001600160a01b0319166001600160a01b039092169190911790559185015160028301556060850151600383015560808501518051869392610b0c926004850192910190612794565b5060a08201518051610b28916005840191602090910190612794565b5060c082015160068201805460ff191691151591909117905560e082015160078201556101009091015160089091015560a083015160808401516040517fb48efa98dc874c5fbf1c01837c5cb93d79b08738b1ae210c8c85672fac0404cd92610b96928992899291906137e0565b60405180910390a150506001600655505050565b610bb261210e565b6001600160a01b0316610bc3611638565b6001600160a01b031614610be95760405162461bcd60e51b81526004016107cf90613435565b600c55565b610bf661210e565b6001600160a01b0316610c07611638565b6001600160a01b031614610c2d5760405162461bcd60e51b81526004016107cf90613435565b8051610c40906011906020840190612794565b5050565b60026006541415610c675760405162461bcd60e51b81526004016107cf9061368d565b6002600655601180548291610d0391610c7f90613985565b80601f0160208091040260200160405190810160405280929190818152602001828054610cab90613985565b8015610cf85780601f10610ccd57610100808354040283529160200191610cf8565b820191906000526020600020905b815481529060010190602001808311610cdb57829003601f168201915b50505050508261140c565b610d1f5760405162461bcd60e51b81526004016107cf9061346a565b336001600160a01b0386161480610d4e5750610d39611638565b6001600160a01b0316336001600160a01b0316145b610d6a5760405162461bcd60e51b81526004016107cf90613409565b600b54341015610d8c5760405162461bcd60e51b81526004016107cf9061358a565b60006001600160a01b0316600985604051610da79190612ea6565b908152604051908190036020019020546001600160a01b031614610ddd5760405162461bcd60e51b81526004016107cf906132d2565b60006001600160a01b0316600a84604051610df89190612ea6565b908152604051908190036020019020546001600160a01b031614610e2e5760405162461bcd60e51b81526004016107cf90612f54565b600584511015610e505760405162461bcd60e51b81526004016107cf906133d4565b601c83511015610e725760405162461bcd60e51b81526004016107cf906135d7565b3415610eb3576013546040516001600160a01b03909116903480156108fc02916000818181858888f19350505050158015610eb1573d6000803e3d6000fd5b505b610ebf85600f546124aa565b6000610eca34612591565b6040805161012081018252600f548082526001600160a01b038a81166020808501918252848601878152600b5460608701908152608087018d815260a088018f9052600060c089018190524260e08a015260016101008a01819052978152600885529890982087518155935195840180546001600160a01b0319169690951695909517909355915160028201559151600383015592518051949550919384939192610f7c926004850192910190612794565b5060a08201518051610f98916005840191602090910190612794565b5060c082015160068201805460ff191691151591909117905560e08201516007820155610100909101516008909101556040518790600990610fdb908990612ea6565b908152602001604051809103902060006101000a8154816001600160a01b0302191690836001600160a01b0316021790555086600a8660405161101e9190612ea6565b90815260405190819003602001812080546001600160a01b03939093166001600160a01b031990931692909217909155600f547f44f2343552d6dfa841d166e5e35863f415bd87eff575964c3d838d3fa19676429161108591908a9086908b908b9061373d565b60405180910390a1600f805490600061109d836139c0565b9091555050600160065550505050505050565b6110b861210e565b6001600160a01b03166110c9611638565b6001600160a01b0316146110ef5760405162461bcd60e51b81526004016107cf90613435565b600d55565b6110fc61210e565b6001600160a01b031661110d611638565b6001600160a01b0316146111335760405162461bcd60e51b81526004016107cf90613435565b8051610c40906010906020840190612794565b600061115183612180565b905061115b611638565b6001600160a01b0316336001600160a01b0316148061117f575061117f33846125ed565b61119b5760405162461bcd60e51b81526004016107cf9061315f565b8060c00151156111bd5760405162461bcd60e51b81526004016107cf906130de565b80604001518210156111e15760405162461bcd60e51b81526004016107cf906134fd565b600c548210156112035760405162461bcd60e51b81526004016107cf906136c4565b60125461121a90611214848261266a565b90612676565b6040828101918252600160c08401819052600086815260086020908152929020845181558285015191810180546001600160a01b0319166001600160a01b039093169290921790915591516002830155606083015160038301556080830151805184939261128f926004850192910190612794565b5060a082015180516112ab916005840191602090910190612794565b5060c082015160068201805460ff191691151591909117905560e082015160078201556101009091015160089091015560a081015160808201516040517f5eb7e190fe7aefdbe1568be4aeca28f154250bc01a8d39c8be6a4da35af45d639261131b92879233928892909161373d565b60405180910390a1505050565b6000818152600260205260408120546001600160a01b03168061070e5760405162461bcd60e51b81526004016107cf90613289565b611365612818565b600061137083612180565b9392505050565b60006001600160a01b03821661139f5760405162461bcd60e51b81526004016107cf9061323f565b506001600160a01b031660009081526003602052604090205490565b6113c361210e565b6001600160a01b03166113d4611638565b6001600160a01b0316146113fa5760405162461bcd60e51b81526004016107cf90613435565b6114046000612682565b565b600e5490565b60008160405160200161141f9190612ea6565b60405160208183030381529060405280519060200120836040516020016114469190612ea6565b6040516020818303038152906040528051906020012014905092915050565b600c5490565b6060600061147883611377565b90506000808267ffffffffffffffff8111156114a457634e487b7160e01b600052604160045260246000fd5b6040519080825280602002602001820160405280156114dd57816020015b6114ca612818565b8152602001906001900390816114c25790505b5090508215611630576000306001600160a01b0316639d63848a6040518163ffffffff1660e01b815260040160006040518083038186803b15801561152157600080fd5b505afa158015611535573d6000803e3d6000fd5b505050506040513d6000823e601f3d908101601f1916820160405261155d9190810190612b2e565b905060005b600f5481101561162d57866001600160a01b03166115aa83838151811061159957634e487b7160e01b600052603260045260246000fd5b602002602001015160000151611328565b6001600160a01b0316141561161b578181815181106115d957634e487b7160e01b600052603260045260246000fd5b602002602001015183858151811061160157634e487b7160e01b600052603260045260246000fd5b60200260200101819052508380611617906139c0565b9450505b80611625816139c0565b915050611562565b50505b949350505050565b6007546001600160a01b031690565b60606001805461072590613985565b60606000600f5467ffffffffffffffff81111561168357634e487b7160e01b600052604160045260246000fd5b6040519080825280602002602001820160405280156116bc57816020015b6116a9612818565b8152602001906001900390816116a15790505b50905060005b600f548110156118a6576000818152600860209081526040918290208251610120810184528154815260018201546001600160a01b0316928101929092526002810154928201929092526003820154606082015260048201805491929160808401919061172e90613985565b80601f016020809104026020016040519081016040528092919081815260200182805461175a90613985565b80156117a75780601f1061177c576101008083540402835291602001916117a7565b820191906000526020600020905b81548152906001019060200180831161178a57829003601f168201915b505050505081526020016005820180546117c090613985565b80601f01602080910402602001604051908101604052809291908181526020018280546117ec90613985565b80156118395780601f1061180e57610100808354040283529160200191611839565b820191906000526020600020905b81548152906001019060200180831161181c57829003601f168201915b5050509183525050600682015460ff161515602082015260078201546040820152600890910154606090910152825183908390811061188857634e487b7160e01b600052603260045260246000fd5b6020026020010181905250808061189e906139c0565b9150506116c2565b50905090565b600f5490565b6118ba61210e565b6001600160a01b03166118cb611638565b6001600160a01b0316146118f15760405162461bcd60e51b81526004016107cf90613435565b600b55565b6118fe61210e565b6001600160a01b031661190f611638565b6001600160a01b0316146119355760405162461bcd60e51b81526004016107cf90613435565b600e55565b610c4061194561210e565b83836126d4565b6000806001600160a01b03166009836040516119689190612ea6565b908152604051908190036020019020546001600160a01b0316149050919050565b600260065414156119ac5760405162461bcd60e51b81526004016107cf9061368d565b60026006556011805482916119c491610c7f90613985565b6119e05760405162461bcd60e51b81526004016107cf9061346a565b60006119eb84612180565b90508060400151341015611a115760405162461bcd60e51b81526004016107cf9061358a565b8060c00151611a325760405162461bcd60e51b81526004016107cf906133a5565b33611a3c85611328565b6001600160a01b03161415611a635760405162461bcd60e51b81526004016107cf906131ab565b60a081015160808201516000611a7834612777565b90506000611a868234613942565b6013546040519192506001600160a01b03169083156108fc029084906000818181858888f19350505050158015611ac1573d6000803e3d6000fd5b50611acb88611328565b6001600160a01b03166108fc829081150290604051600060405180830381858888f19350505050158015611b03573d6000803e3d6000fd5b50611b17611b1089611328565b338a612377565b33600985604051611b289190612ea6565b908152602001604051809103902060006101000a8154816001600160a01b0302191690836001600160a01b0316021790555033600a84604051611b6b9190612ea6565b90815260405190819003602001902080546001600160a01b03929092166001600160a01b03199092169190911790556000611ba534612591565b6020870180513390915260408801805160608a0152829052600060c08901524260e089015261010088018051929350909190611be0826139c0565b90525060008a81526008602090815260409182902089518155898201516001820180546001600160a01b0319166001600160a01b0390921691909117905591890151600283015560608901516003830155608089015180518a9392611c4c926004850192910190612794565b5060a08201518051611c68916005840191602090910190612794565b5060c082015160068201805460ff191691151591909117905560e082015160078201556101009091015160089091015560a087015160808801516040517f98c19d237c722ec5cdb7cf8e74a8326f1b47eca3d46f396f26213b90597df02092611cd8928e92339287928992613788565b60405180910390a1505060016006555050505050505050565b611cf961210e565b6001600160a01b0316611d0a611638565b6001600160a01b031614611d305760405162461bcd60e51b81526004016107cf90613435565b50505050565b6000611d4182612180565b9050611d4b611638565b6001600160a01b0316336001600160a01b03161480611d6f5750611d6f33836125ed565b611d8b5760405162461bcd60e51b81526004016107cf9061315f565b8060c00151611dac5760405162461bcd60e51b81526004016107cf90613643565b600060c082018190528281526008602090815260409182902083518155818401516001820180546001600160a01b0319166001600160a01b039092169190911790559183015160028301556060830151600383015560808301518051849392611e1c926004850192910190612794565b5060a08201518051611e38916005840191602090910190612794565b5060c082015160068201805460ff191691151591909117905560e082015160078201556101009091015160089091015560a081015160808201516040517f7551733fb3dcb47e226e092d11b7fa481a463dd79568761a5d78264f98f85e5092611ea6928692339291906137e0565b60405180910390a15050565b600d5490565b60606000611ec583612180565b608001519392505050565b6001600160a01b03918216600090815260056020908152604080832093909416825291909152205460ff1690565b6008602052600090815260409020805460018201546002830154600384015460048501805494956001600160a01b039094169492939192611f3e90613985565b80601f0160208091040260200160405190810160405280929190818152602001828054611f6a90613985565b8015611fb75780601f10611f8c57610100808354040283529160200191611fb7565b820191906000526020600020905b815481529060010190602001808311611f9a57829003601f168201915b505050505090806005018054611fcc90613985565b80601f0160208091040260200160405190810160405280929190818152602001828054611ff890613985565b80156120455780601f1061201a57610100808354040283529160200191612045565b820191906000526020600020905b81548152906001019060200180831161202857829003601f168201915b5050505060068301546007840154600890940154929360ff9091169290915089565b61206f61210e565b6001600160a01b0316612080611638565b6001600160a01b0316146120a65760405162461bcd60e51b81526004016107cf90613435565b6001600160a01b0381166120cc5760405162461bcd60e51b81526004016107cf90612fa1565b6120d581612682565b50565b6001600160e01b031981166301ffc9a760e01b14919050565b6000908152600260205260409020546001600160a01b0316151590565b3390565b600081815260046020526040902080546001600160a01b0319166001600160a01b038416908117909155819061214782611328565b6001600160a01b03167f8c5be1e5ebec7d5bd14f71427d1e84f3dd0314c0f7b2291e5b200ac8c7c3b92560405160405180910390a45050565b612188612818565b612191826120f1565b6121ad5760405162461bcd60e51b81526004016107cf9061355a565b60008281526008602090815260408083208151610120810183528154815260018201546001600160a01b0316938101939093526002810154918301919091526003810154606083015260048101805460808401919061220b90613985565b80601f016020809104026020016040519081016040528092919081815260200182805461223790613985565b80156122845780601f1061225957610100808354040283529160200191612284565b820191906000526020600020905b81548152906001019060200180831161226757829003601f168201915b5050505050815260200160058201805461229d90613985565b80601f01602080910402602001604051908101604052809291908181526020018280546122c990613985565b80156123165780601f106122eb57610100808354040283529160200191612316565b820191906000526020600020905b8154815290600101906020018083116122f957829003601f168201915b5050509183525050600682015460ff1615156020820152600782015460408201526008909101546060909101529050600061235084611328565b6001600160a01b0316141561070e5760405162461bcd60e51b81526004016107cf9061360c565b826001600160a01b031661238a82611328565b6001600160a01b0316146123b05760405162461bcd60e51b81526004016107cf90612fe7565b6001600160a01b0382166123d65760405162461bcd60e51b81526004016107cf90613063565b6123e1838383610887565b6123ec600082612112565b6001600160a01b0383166000908152600360205260408120805460019290612415908490613942565b90915550506001600160a01b03821660009081526003602052604081208054600192906124439084906138eb565b909155505060008181526002602052604080822080546001600160a01b0319166001600160a01b0386811691821790925591518493918716917fddf252ad1be2c89b69c2b068fc378daa952ba7f163c4a11628f55a4df523b3ef91a4610887838383610887565b6001600160a01b0382166124d05760405162461bcd60e51b81526004016107cf90613324565b6124d9816120f1565b156124f65760405162461bcd60e51b81526004016107cf9061302c565b61250260008383610887565b6001600160a01b038216600090815260036020526040812080546001929061252b9084906138eb565b909155505060008181526002602052604080822080546001600160a01b0319166001600160a01b03861690811790915590518392907fddf252ad1be2c89b69c2b068fc378daa952ba7f163c4a11628f55a4df523b3ef908290a4610c4060008383610887565b6000806125b56127106125af600e548661267690919063ffffffff16565b9061266a565b6012549091506000906125cc90611214848261266a565b9050600c548110156125e457600c5492505050610711565b91506107119050565b60006125f8826120f1565b6126145760405162461bcd60e51b81526004016107cf90613113565b600061261f83611328565b9050806001600160a01b0316846001600160a01b0316148061265a5750836001600160a01b031661264f846107a8565b6001600160a01b0316145b8061163057506116308185611ed0565b60006113708284613903565b60006113708284613923565b600780546001600160a01b038381166001600160a01b0319831681179093556040519116919082907f8be0079c531659141344cd1fd0a4f28419497f9722a3daafe3b4186f6b6457e090600090a35050565b816001600160a01b0316836001600160a01b031614156127065760405162461bcd60e51b81526004016107cf906130a7565b6001600160a01b0383811660008181526005602090815260408083209487168084529490915290819020805460ff1916851515179055517f17307eab39ab6107e8899845ad3d59bd9653f200f220920489ca2b5937696c319061276a908590612f36565b60405180910390a3505050565b600061070e6127106125af600d548561267690919063ffffffff16565b8280546127a090613985565b90600052602060002090601f0160209004810192826127c25760008555612808565b82601f106127db57805160ff1916838001178555612808565b82800160010185558215612808579182015b828111156128085782518255916020019190600101906127ed565b5061281492915061286f565b5090565b6040518061012001604052806000815260200160006001600160a01b031681526020016000815260200160008152602001606081526020016060815260200160001515815260200160008152602001600081525090565b5b808211156128145760008155600101612870565b6000612897612892846138c3565b613892565b90508281528383830111156128ab57600080fd5b828260208301376000602084830101529392505050565b805161071181613a07565b805161071181613a1c565b600082601f8301126128e8578081fd5b61137083833560208501612884565b600082601f830112612907578081fd5b8151612915612892826138c3565b818152846020838601011115612929578283fd5b611630826020830160208701613959565b60006020828403121561294b578081fd5b813561137081613a07565b6000806000806080858703121561296b578283fd5b843561297681613a07565b9350602085013567ffffffffffffffff80821115612992578485fd5b61299e888389016128d8565b945060408701359150808211156129b3578384fd5b6129bf888389016128d8565b935060608701359150808211156129d4578283fd5b506129e1878288016128d8565b91505092959194509250565b600080604083850312156129ff578182fd5b8235612a0a81613a07565b91506020830135612a1a81613a07565b809150509250929050565b600080600060608486031215612a39578283fd5b8335612a4481613a07565b92506020840135612a5481613a07565b929592945050506040919091013590565b60008060008060808587031215612a7a578384fd5b8435612a8581613a07565b93506020850135612a9581613a07565b925060408501359150606085013567ffffffffffffffff811115612ab7578182fd5b8501601f81018713612ac7578182fd5b6129e187823560208401612884565b60008060408385031215612ae8578182fd5b8235612af381613a07565b91506020830135612a1a81613a1c565b60008060408385031215612b15578182fd5b8235612b2081613a07565b946020939093013593505050565b60006020808385031215612b40578182fd5b825167ffffffffffffffff80821115612b57578384fd5b818501915085601f830112612b6a578384fd5b815181811115612b7c57612b7c6139f1565b612b898485830201613892565b81815284810190848601875b84811015612c70578151870161012080601f19838f03011215612bb6578a8bfd5b612bbf81613892565b8a83015181526040612bd28185016128c2565b8c83015260608085015182840152608085015181840152505060a083015189811115612bfc578c8dfd5b612c0a8f8d838701016128f7565b60808301525060c083015189811115612c21578c8dfd5b612c2f8f8d838701016128f7565b60a08301525060e0612c428185016128cd565b60c0830152610100848101519183019190915291909201519082015284529287019290870190600101612b95565b50909998505050505050505050565b600060208284031215612c90578081fd5b81356001600160e01b031981168114611370578182fd5b600060208284031215612cb8578081fd5b813567ffffffffffffffff811115612cce578182fd5b611630848285016128d8565b60008060408385031215612cec578182fd5b823567ffffffffffffffff80821115612d03578384fd5b612d0f868387016128d8565b93506020850135915080821115612d24578283fd5b50612d31858286016128d8565b9150509250929050565b600060208284031215612d4c578081fd5b5035919050565b60008060408385031215612d65578182fd5b823591506020830135612a1a81613a07565b60008060408385031215612d89578182fd5b82359150602083013567ffffffffffffffff811115612da6578182fd5b612d31858286016128d8565b60008060408385031215612dc4578182fd5b50508035926020909101359150565b6001600160a01b03169052565b15159052565b60008151808452612dfe816020860160208601613959565b601f01601f19169290920160200192915050565b6000610120825184526020830151612e2d6020860182612dd3565b5060408301516040850152606083015160608501526080830151816080860152612e5982860182612de6565b91505060a083015184820360a0860152612e738282612de6565b91505060c0830151612e8860c0860182612de0565b5060e083810151908501526101009283015192909301919091525090565b60008251612eb8818460208701613959565b9190910192915050565b6001600160a01b0391909116815260200190565b6000602080830181845280855180835260408601915060408482028701019250838701855b82811015612f2957603f19888603018452612f17858351612e12565b94509285019290850190600101612efb565b5092979650505050505050565b901515815260200190565b6000602082526113706020830184612de6565b6020808252602d908201527f4120746f6b656e2068617320616c7265616479206265656e206d696e7465642060408201526c7769746820746869732055524960981b606082015260800190565b60208082526026908201527f4f776e61626c653a206e6577206f776e657220697320746865207a65726f206160408201526564647265737360d01b606082015260800190565b60208082526025908201527f4552433732313a207472616e736665722066726f6d20696e636f72726563742060408201526437bbb732b960d91b606082015260800190565b6020808252601c908201527f4552433732313a20746f6b656e20616c7265616479206d696e74656400000000604082015260600190565b60208082526024908201527f4552433732313a207472616e7366657220746f20746865207a65726f206164646040820152637265737360e01b606082015260800190565b60208082526019908201527f4552433732313a20617070726f766520746f2063616c6c657200000000000000604082015260600190565b6020808252818101527f546f6b656e20697320616c7265616479206d61726b656420666f722073616c65604082015260600190565b6020808252602c908201527f4552433732313a206f70657261746f7220717565727920666f72206e6f6e657860408201526b34b9ba32b73a103a37b5b2b760a11b606082015260800190565b6020808252602c908201527f53656e646572206d75737420626520746f6b656e206f776e6572206f7220636f60408201526b373a3930b1ba1037bbb732b960a11b606082015260800190565b60208082526018908201527f427579657220616c7265616479206f776e7320746f6b656e0000000000000000604082015260600190565b60208082526038908201527f4552433732313a20617070726f76652063616c6c6572206973206e6f74206f7760408201527f6e6572206e6f7220617070726f76656420666f7220616c6c0000000000000000606082015260800190565b6020808252602a908201527f4552433732313a2062616c616e636520717565727920666f7220746865207a65604082015269726f206164647265737360b01b606082015260800190565b60208082526029908201527f4552433732313a206f776e657220717565727920666f72206e6f6e657869737460408201526832b73a103a37b5b2b760b91b606082015260800190565b60208082526032908201527f4120746f6b656e2068617320616c7265616479206265656e206d696e746564206040820152713bb4ba34103a3434b99039b7b63aba34b7b760711b606082015260800190565b6020808252818101527f4552433732313a206d696e7420746f20746865207a65726f2061646472657373604082015260600190565b6020808252602c908201527f4552433732313a20617070726f76656420717565727920666f72206e6f6e657860408201526b34b9ba32b73a103a37b5b2b760a11b606082015260800190565b602080825260159082015274546f6b656e206973206e6f7420666f722073616c6560581b604082015260600190565b6020808252818101527f412076616c756520666f7220736f6c7574696f6e206973207265717569726564604082015260600190565b602080825260129082015271496e76616c696420746f206164647265737360701b604082015260600190565b6020808252818101527f4f776e61626c653a2063616c6c6572206973206e6f7420746865206f776e6572604082015260600190565b60208082526032908201527f412076616c69642070617373776f726420697320726571756972656420746f2060408201527131b0b636103a3434b990333ab731ba34b7b760711b606082015260800190565b60208082526021908201527f4552433732313a20617070726f76616c20746f2063757272656e74206f776e656040820152603960f91b606082015260800190565b60208082526039908201527f546f6b656e2063616e6e6f7420626520707269636564206c657373207468616e60408201527f207468652063757272656e742061736b696e6720707269636500000000000000606082015260800190565b602080825260169082015275151bdad95b925908191bd95cc81b9bdd08195e1a5cdd60521b604082015260600190565b6020808252602d908201527f496e73756666696369656e742065746865722073656e7420776974682074686960408201526c39903a3930b739b0b1ba34b7b760991b606082015260800190565b6020808252818101527f412076616c756520666f7220746f6b656e555249206973207265717569726564604082015260600190565b6020808252601b908201527f546f6b656e206f626a65637420646f6573206e6f742065786973740000000000604082015260600190565b6020808252602a908201527f546f6b656e20697320616c72656164792070726576656e7465642066726f6d2060408201526918995a5b99c81cdbdb1960b21b606082015260800190565b6020808252601f908201527f5265656e7472616e637947756172643a207265656e7472616e742063616c6c00604082015260600190565b6020808252603a908201527f546f6b656e2063616e6e6f7420626520707269636564206c657373207468616e60408201527f207468652063757272656e74206d696e696d756d207072696365000000000000606082015260800190565b6000602082526113706020830184612e12565b90815260200190565b600086825260018060a01b038616602083015284604083015260a0606083015261376a60a0830185612de6565b828103608084015261377c8185612de6565b98975050505050505050565b8681526001600160a01b038681166020830152851660408201526060810184905260c0608082018190526000906137c190830185612de6565b82810360a08401526137d38185612de6565b9998505050505050505050565b8481526001600160a01b038416602082015260806040820181905260009061380a90830185612de6565b828103606084015261381c8185612de6565b979650505050505050565b60006101208b835260018060a01b038b16602084015289604084015288606084015280608084015261385b81840189612de6565b905082810360a084015261386f8188612de6565b95151560c0840152505060e0810192909252610100909101529695505050505050565b604051601f8201601f1916810167ffffffffffffffff811182821017156138bb576138bb6139f1565b604052919050565b600067ffffffffffffffff8211156138dd576138dd6139f1565b50601f01601f191660200190565b600082198211156138fe576138fe6139db565b500190565b60008261391e57634e487b7160e01b81526012600452602481fd5b500490565b600081600019048311821515161561393d5761393d6139db565b500290565b600082821015613954576139546139db565b500390565b60005b8381101561397457818101518382015260200161395c565b83811115611d305750506000910152565b60028104600182168061399957607f821691505b602082108114156139ba57634e487b7160e01b600052602260045260246000fd5b50919050565b60006000198214156139d4576139d46139db565b5060010190565b634e487b7160e01b600052601160045260246000fd5b634e487b7160e01b600052604160045260246000fd5b6001600160a01b03811681146120d557600080fd5b80151581146120d557600080fdfea2646970667358221220f2b722cc81f28084abc6bbbcd7d78ecf05d5952385428fdf9be5081cb0d28f6164736f6c63430008010033",
  "immutableReferences": {},
  "source": "// SPDX-License-Identifier: MIT\r\npragma solidity >=0.4.22 <0.9.0;\r\nimport \"@openzeppelin/contracts/token/ERC721/ERC721.sol\"; // ERC721Enumerable\r\nimport \"@openzeppelin/contracts/access/Ownable.sol\";\r\nimport \"@openzeppelin/contracts/utils/math/SafeMath.sol\";\r\nimport \"@openzeppelin/contracts/security/ReentrancyGuard.sol\";\r\n\r\ncontract EthordleToken is ERC721, ReentrancyGuard, Ownable {\r\n    using Strings for uint256;\r\n    using SafeMath for uint256;\r\n\r\n    struct Token {\r\n        uint256 id;        \r\n        address owner;\r\n        uint256 price;\r\n        uint256 lastPrice;\r\n        string url;\r\n        string solution;\r\n        bool isForSale;\r\n        uint256 lastTransactionTimestamp;\r\n        uint256 transactionCount;        \r\n    }\r\n\r\n    mapping (uint256 => Token) public _tokens;\r\n    mapping (string => address) private _solutionOwners;\r\n    mapping (string => address) private _tokenURIOwners;\r\n\r\n    uint256 private _initialPrice;\r\n    uint256 private _minimumPrice;\r\n    uint256 private _royaltyRate;\r\n    uint256 private _priceEscalationRate;\r\n    uint256 private _currentTokenId;\r\n    string private _baseURIextended;\r\n    string private _password;\r\n    uint256 private _roundingDivisor = 10**15;\r\n    address private _beneficiary;\r\n\r\n    event Minted (\r\n        uint256 tokenId,\r\n        address owner,\r\n        uint256 price,\r\n        string solution,\r\n        string metadataURI\r\n    );\r\n\r\n    event SaleCreated (\r\n        uint256 tokenId,\r\n        address seller,\r\n        uint256 price,\r\n        string solution,\r\n        string metadataURI\r\n    );\r\n\r\n    event SaleCanceled (\r\n        uint256 tokenId,        \r\n        address seller,\r\n        string solution,\r\n        string metadataURI\r\n    );\r\n\r\n    event SaleSuccessful (\r\n        uint256 tokenId,        \r\n        address buyer,\r\n        address seller,\r\n        uint256 price,\r\n        string solution,\r\n        string metadataURI\r\n    );\r\n\r\n    event TransferSuccessful (\r\n        uint256 tokenId, \r\n        address transferee, \r\n        string solution, \r\n        string metadataURI\r\n    );\r\n\r\n    constructor(\r\n        string memory _name, \r\n        string memory _symbol, \r\n        uint256 initialPrice_, \r\n        uint256 minimumPrice_, \r\n        uint256 royaltyRate_, \r\n        uint256 priceEscalationRate_, \r\n        string memory password_) \r\n    ERC721(_name, _symbol) {\r\n        _currentTokenId = 0;\r\n        _initialPrice = initialPrice_;\r\n        _minimumPrice = minimumPrice_;\r\n        _royaltyRate = royaltyRate_;\r\n        _priceEscalationRate = priceEscalationRate_;\r\n        _password = password_;\r\n        _beneficiary = owner();\r\n    }\r\n    \r\n    modifier requirePassword(string memory password_) {\r\n      require (_compareStrings(_password, password_), 'A valid password is required to call this function');\r\n      _;\r\n    }\r\n\r\n    function _compareStrings(string memory a, string memory b) public pure returns (bool) {\r\n        return (keccak256(abi.encodePacked((a))) == keccak256(abi.encodePacked((b))));\r\n    }\r\n\r\n    function _validateTokenId(uint256 tokenId) internal view returns (Token memory) {\r\n        require(_exists(tokenId), 'TokenId does not exist');\r\n        \r\n        Token memory token = _tokens[tokenId];    \r\n        \r\n        require(ownerOf(tokenId) != address(0x0), 'Token object does not exist');\r\n\r\n        return token;\r\n    }\r\n\r\n    function setInitialPrice(uint256 initialPrice_) external onlyOwner {\r\n        _initialPrice = initialPrice_;\r\n    }\r\n    \r\n    function initialPrice() external view returns (uint256) {\r\n        return _initialPrice;\r\n    }\r\n    \r\n    function setMinimumPrice(uint256 minimumPrice_) external onlyOwner {\r\n        _minimumPrice = minimumPrice_;\r\n    }\r\n\r\n    function minimumPrice() external view returns (uint256) {\r\n        return _minimumPrice;\r\n    }\r\n\r\n    function setRoyaltyRate(uint256 royaltyRate_) external onlyOwner {\r\n        _royaltyRate = royaltyRate_;   \r\n    }\r\n\r\n    function royaltyRate() external view returns (uint256) {\r\n        return _royaltyRate;\r\n    }\r\n\r\n    function setPriceEscalationRate(uint256 priceEscalationRate_) external onlyOwner {\r\n        _priceEscalationRate = priceEscalationRate_;\r\n    }\r\n\r\n    function priceEscalationRate() external view returns (uint256) {\r\n        return _priceEscalationRate;\r\n    }\r\n\r\n    function setPassword(string memory password_) external onlyOwner {\r\n        _password = password_;\r\n    }\r\n\r\n    function setBeneficiary(address beneficiary_) external onlyOwner {\r\n        _beneficiary = beneficiary_;   \r\n    }\r\n\r\n    function tokenCount() external view returns (uint256) {\r\n        return _currentTokenId;\r\n    }\r\n\r\n    function tokenById(uint256 tokenId) external view returns(Token memory) {        \r\n        Token memory token = _validateTokenId(tokenId);\r\n        return token;\r\n    }\r\n\r\n    function tokensOfOwner(address _from) external view returns(Token[] memory) {\r\n        uint256 ownerCount = balanceOf(_from);\r\n        uint256 ownerIndex = 0;\r\n        Token[] memory ownerTokens = new Token[](ownerCount);\r\n\r\n        if (ownerCount > 0) {\r\n            Token[] memory allTokens = this.tokens();\r\n            \r\n            for (uint256 i = 0; i < _currentTokenId; i++) {\r\n                if (ownerOf(allTokens[i].id) == _from) {\r\n                    ownerTokens[ownerIndex] = allTokens[i];\r\n                    ownerIndex++;\r\n                }\r\n            }\r\n        }\r\n\r\n        return ownerTokens;\r\n    }\r\n\r\n    function tokens() external view returns(Token[] memory) {  \r\n        Token[] memory allTokens = new Token[](_currentTokenId);\r\n\r\n        for (uint256 i = 0; i < _currentTokenId; i++) {\r\n            allTokens[i] = _tokens[i];\r\n        }\r\n\r\n        return allTokens;\r\n    }\r\n    \r\n    function setBaseURI(string memory baseURI) external onlyOwner {\r\n        _baseURIextended = baseURI;\r\n    }\r\n    \r\n    function _baseURI() internal view virtual override returns (string memory) {\r\n        return _baseURIextended;\r\n    }\r\n    \r\n    function isSolutionUnique(string memory solution_) public view returns (bool) {\r\n        return _solutionOwners[solution_] == address(0x0);\r\n    }\r\n\r\n    function tokenURI(uint256 tokenId) public view virtual override returns (string memory) {\r\n        Token memory token = _validateTokenId(tokenId);\r\n\r\n        return token.url;\r\n    }\r\n\r\n    function mint(\r\n        address payable to,\r\n        string memory solution_,\r\n        string memory tokenURI_,\r\n        string memory password_\r\n    ) external payable nonReentrant requirePassword(password_) {  \r\n        require(msg.sender == to || msg.sender == owner(), 'Invalid to address');      \r\n        require(msg.value >= _initialPrice, 'Insufficient ether sent with this transaction'); \r\n        require(_solutionOwners[solution_] == address(0x0), 'A token has already been minted with this solution');\r\n        require(_tokenURIOwners[tokenURI_] == address(0x0), 'A token has already been minted with this URI');\r\n        require(bytes(solution_).length >= 5, 'A value for solution is required');\r\n        require(bytes(tokenURI_).length >= 28, 'A value for tokenURI is required'); // https://ipfs.infura.io/ipfs/\r\n        \r\n        if (msg.value > 0) {\r\n            payable(_beneficiary).transfer(msg.value);\r\n        }\r\n\r\n        _mint(to, _currentTokenId);\r\n\r\n        uint256 newPrice =_getEscalatedPrice(msg.value);\r\n\r\n        Token memory token = Token(_currentTokenId, to, newPrice, _initialPrice, tokenURI_, solution_, false, block.timestamp, 1);\r\n       \r\n        _tokens[_currentTokenId] = token;\r\n        _solutionOwners[solution_] = to;\r\n        _tokenURIOwners[tokenURI_] = to;\r\n        \r\n        emit Minted(_currentTokenId, to, newPrice, solution_, tokenURI_);     \r\n\r\n        _currentTokenId++;   \r\n    }\r\n\r\n    function createSale(uint256 tokenId, uint256 price) external {    \r\n        Token memory token = _validateTokenId(tokenId);\r\n        \r\n        require(msg.sender == owner() || _isApprovedOrOwner(msg.sender, tokenId), 'Sender must be token owner or contract owner'); \r\n        require(!token.isForSale, 'Token is already marked for sale');\r\n        require(price >= token.price, 'Token cannot be priced less than the current asking price');\r\n        require(price >= _minimumPrice, 'Token cannot be priced less than the current minimum price');\r\n        \r\n        token.price = price.div(_roundingDivisor).mul(_roundingDivisor); // round to nearest 1/1000 eth\r\n        token.isForSale = true;\r\n\r\n        _tokens[tokenId] = token; \r\n\r\n        emit SaleCreated(tokenId, msg.sender, price, token.solution, token.url);\r\n    }\r\n\r\n    function cancelSale(uint256 tokenId) external {   \r\n        Token memory token = _validateTokenId(tokenId);\r\n\r\n        require(msg.sender == owner() || _isApprovedOrOwner(msg.sender, tokenId), 'Sender must be token owner or contract owner'); \r\n        \r\n        require(token.isForSale, 'Token is already prevented from being sold'); \r\n        \r\n        token.isForSale = false;\r\n        \r\n        _tokens[tokenId] = token; \r\n\r\n        emit SaleCanceled(tokenId, msg.sender, token.solution, token.url);\r\n    }\r\n\r\n    function buy(uint256 tokenId, string memory password_) external payable nonReentrant requirePassword(password_) {      \r\n        Token memory token = _validateTokenId(tokenId);\r\n        \r\n        require(msg.value >= token.price, 'Insufficient ether sent with this transaction');\r\n        require(token.isForSale, 'Token is not for sale');\r\n        require(ownerOf(tokenId) != msg.sender, 'Buyer already owns token'); \r\n       \r\n        string memory solution_ = token.solution;\r\n        string memory tokenURI_ = token.url;\r\n\r\n        uint256 totalRoyalty = _getRoyalty(msg.value); \r\n        uint256 remainder = msg.value - totalRoyalty;\r\n\r\n        payable(_beneficiary).transfer(totalRoyalty);\r\n        payable(address(ownerOf(tokenId))).transfer(remainder);\r\n        \r\n        _transfer(ownerOf(tokenId), msg.sender, tokenId);\r\n\r\n        _solutionOwners[solution_] = msg.sender;\r\n        _tokenURIOwners[tokenURI_] = msg.sender;\r\n\r\n        uint256 newPrice = _getEscalatedPrice(msg.value);\r\n        address oldOwner = token.owner;\r\n\r\n        token.owner = msg.sender;\r\n        token.lastPrice = token.price;\r\n        token.price = newPrice;\r\n        token.isForSale = false;\r\n        token.lastTransactionTimestamp = block.timestamp;\r\n        token.transactionCount++;       \r\n\r\n        _tokens[tokenId] = token; \r\n\r\n        emit SaleSuccessful(tokenId, msg.sender, oldOwner, newPrice, token.solution, token.url);\r\n    }\r\n    \r\n    function transferAsContractOwner(uint256 tokenId, address to) external payable nonReentrant onlyOwner {        \r\n        Token memory token = _validateTokenId(tokenId);\r\n        \r\n        require(ownerOf(tokenId) != to, 'Buyer already owns token'); \r\n       \r\n        string memory solution_ = token.solution;\r\n        string memory tokenURI_ = token.url;\r\n  \r\n        _transfer(ownerOf(tokenId), to, tokenId);\r\n\r\n        _solutionOwners[solution_] = to;\r\n        _tokenURIOwners[tokenURI_] = to;\r\n\r\n        token.owner = to;\r\n        token.isForSale = false;\r\n        token.lastTransactionTimestamp = block.timestamp;\r\n        token.transactionCount++;       \r\n\r\n        _tokens[tokenId] = token; \r\n\r\n        emit TransferSuccessful(tokenId, to, token.solution, token.url);\r\n    }\r\n\r\n    function _getRoyalty(uint256 value) private view returns (uint256) {\r\n        return value.mul(_royaltyRate).div(10000);\r\n    }\r\n\r\n    function _getEscalatedPrice(uint256 value) private view returns (uint256) {\r\n        uint256 newPrice = value.mul(_priceEscalationRate).div(10000);\r\n        uint256 updatedPrice = newPrice.div(_roundingDivisor).mul(_roundingDivisor);  // round off new price to nearest 1/1000 eth\r\n\r\n        if (updatedPrice < _minimumPrice) {\r\n            return _minimumPrice;\r\n        }\r\n        else {\r\n            return updatedPrice;\r\n        }\r\n    }\r\n  \r\n     function transferFrom(\r\n        address /*from*/,\r\n        address /*to*/,\r\n        uint256 /*tokenId*/\r\n    ) public view override onlyOwner {\r\n    }\r\n\r\n    function safeTransferFrom(\r\n        address /*from*/,\r\n        address /*to*/,\r\n        uint256 /*tokenId*/\r\n    ) public view override onlyOwner {\r\n    }\r\n\r\n    function safeTransferFrom(\r\n        address /*from*/,\r\n        address /*to*/,\r\n        uint256 /*tokenId*/,\r\n        bytes memory /*_data*/\r\n    ) public view override onlyOwner {\r\n    }\r\n}",
  "sourcePath": "C:\\Dev\\Github\\ethordle\\contracts\\EthordleToken.sol",
  "compiler": {
    "name": "solc",
    "version": "0.8.1+commit.df193b15.Emscripten.clang"
  },
  "schemaVersion": "3.4.6",
  "updatedAt": "2022-05-10T20:43:24.501Z",
  "devdoc": {
    "kind": "dev",
    "methods": {
      "approve(address,uint256)": {
        "details": "See {IERC721-approve}."
      },
      "balanceOf(address)": {
        "details": "See {IERC721-balanceOf}."
      },
      "getApproved(uint256)": {
        "details": "See {IERC721-getApproved}."
      },
      "isApprovedForAll(address,address)": {
        "details": "See {IERC721-isApprovedForAll}."
      },
      "name()": {
        "details": "See {IERC721Metadata-name}."
      },
      "owner()": {
        "details": "Returns the address of the current owner."
      },
      "ownerOf(uint256)": {
        "details": "See {IERC721-ownerOf}."
      },
      "renounceOwnership()": {
        "details": "Leaves the contract without owner. It will not be possible to call `onlyOwner` functions anymore. Can only be called by the current owner. NOTE: Renouncing ownership will leave the contract without an owner, thereby removing any functionality that is only available to the owner."
      },
      "setApprovalForAll(address,bool)": {
        "details": "See {IERC721-setApprovalForAll}."
      },
      "supportsInterface(bytes4)": {
        "details": "See {IERC165-supportsInterface}."
      },
      "symbol()": {
        "details": "See {IERC721Metadata-symbol}."
      },
      "tokenURI(uint256)": {
        "details": "See {IERC721Metadata-tokenURI}."
      },
      "transferOwnership(address)": {
        "details": "Transfers ownership of the contract to a new account (`newOwner`). Can only be called by the current owner."
      }
    },
    "version": 1
  },
  "userdoc": {
    "kind": "user",
    "methods": {},
    "version": 1
  }
}