{
  "contractName": "Ethordle",
  "abi": [
    {
      "constant": true,
      "inputs": [],
      "name": "playerCount",
      "outputs": [
        {
          "internalType": "uint256",
          "name": "",
          "type": "uint256"
        }
      ],
      "payable": false,
      "stateMutability": "view",
      "type": "function"
    },
    {
      "constant": true,
      "inputs": [
        {
          "internalType": "uint256",
          "name": "",
          "type": "uint256"
        }
      ],
      "name": "playerList",
      "outputs": [
        {
          "internalType": "address",
          "name": "",
          "type": "address"
        }
      ],
      "payable": false,
      "stateMutability": "view",
      "type": "function"
    },
    {
      "constant": true,
      "inputs": [
        {
          "internalType": "address",
          "name": "",
          "type": "address"
        }
      ],
      "name": "players",
      "outputs": [
        {
          "internalType": "uint256",
          "name": "id",
          "type": "uint256"
        },
        {
          "internalType": "uint256",
          "name": "wordCount",
          "type": "uint256"
        }
      ],
      "payable": false,
      "stateMutability": "view",
      "type": "function"
    },
    {
      "constant": true,
      "inputs": [],
      "name": "wordCount",
      "outputs": [
        {
          "internalType": "uint256",
          "name": "",
          "type": "uint256"
        }
      ],
      "payable": false,
      "stateMutability": "view",
      "type": "function"
    },
    {
      "constant": true,
      "inputs": [
        {
          "internalType": "string",
          "name": "",
          "type": "string"
        }
      ],
      "name": "words",
      "outputs": [
        {
          "internalType": "uint256",
          "name": "id",
          "type": "uint256"
        },
        {
          "internalType": "uint256",
          "name": "wordCount",
          "type": "uint256"
        }
      ],
      "payable": false,
      "stateMutability": "view",
      "type": "function"
    },
    {
      "constant": false,
      "inputs": [
        {
          "internalType": "address",
          "name": "_player",
          "type": "address"
        },
        {
          "internalType": "string",
          "name": "_word",
          "type": "string"
        }
      ],
      "name": "registerWord",
      "outputs": [],
      "payable": false,
      "stateMutability": "nonpayable",
      "type": "function"
    },
    {
      "constant": true,
      "inputs": [
        {
          "internalType": "address",
          "name": "_player",
          "type": "address"
        },
        {
          "internalType": "uint256",
          "name": "_index",
          "type": "uint256"
        }
      ],
      "name": "getWord",
      "outputs": [
        {
          "internalType": "string",
          "name": "word",
          "type": "string"
        }
      ],
      "payable": false,
      "stateMutability": "view",
      "type": "function"
    },
    {
      "constant": true,
      "inputs": [
        {
          "internalType": "string",
          "name": "_word",
          "type": "string"
        }
      ],
      "name": "isWordUnique",
      "outputs": [
        {
          "internalType": "bool",
          "name": "isUnique",
          "type": "bool"
        }
      ],
      "payable": false,
      "stateMutability": "view",
      "type": "function"
    }
  ],
  "bytecode": "0x608060405260008055600060015534801561001957600080fd5b50610e85806100296000396000f3fe608060405234801561001057600080fd5b50600436106100885760003560e01c80639f20a9301161005b5780639f20a9301461027a578063ae6d907314610341578063dd611044146103af578063e2eb41ff1461048257610088565b80630e1be73a1461008d578063302bcc57146100ab5780638fce6ea5146100c95780639b7bfee5146101a4575b600080fd5b6100956104e1565b6040518082815260200191505060405180910390f35b6100b36104e7565b6040518082815260200191505060405180910390f35b6101a2600480360360408110156100df57600080fd5b81019080803573ffffffffffffffffffffffffffffffffffffffff1690602001909291908035906020019064010000000081111561011c57600080fd5b82018360208201111561012e57600080fd5b8035906020019184600183028401116401000000008311171561015057600080fd5b91908080601f016020809104026020016040519081016040528093929190818152602001838380828437600081840152601f19601f8201169050808301925050505050505091929192905050506104ed565b005b61025d600480360360208110156101ba57600080fd5b81019080803590602001906401000000008111156101d757600080fd5b8201836020820111156101e957600080fd5b8035906020019184600183028401116401000000008311171561020b57600080fd5b91908080601f016020809104026020016040519081016040528093929190818152602001838380828437600081840152601f19601f820116905080830192505050505050509192919290505050610855565b604051808381526020018281526020019250505060405180910390f35b6102c66004803603604081101561029057600080fd5b81019080803573ffffffffffffffffffffffffffffffffffffffff1690602001909291908035906020019092919050505061088f565b6040518080602001828103825283818151815260200191508051906020019080838360005b838110156103065780820151818401526020810190506102eb565b50505050905090810190601f1680156103335780820380516001836020036101000a031916815260200191505b509250505060405180910390f35b61036d6004803603602081101561035757600080fd5b8101908080359060200190929190505050610a42565b604051808273ffffffffffffffffffffffffffffffffffffffff1673ffffffffffffffffffffffffffffffffffffffff16815260200191505060405180910390f35b610468600480360360208110156103c557600080fd5b81019080803590602001906401000000008111156103e257600080fd5b8201836020820111156103f457600080fd5b8035906020019184600183028401116401000000008311171561041657600080fd5b91908080601f016020809104026020016040519081016040528093929190818152602001838380828437600081840152601f19601f820116905080830192505050505050509192919290505050610a7e565b604051808215151515815260200191505060405180910390f35b6104c46004803603602081101561049857600080fd5b81019080803573ffffffffffffffffffffffffffffffffffffffff169060200190929190505050610af6565b604051808381526020018281526020019250505060405180910390f35b60015481565b60005481565b60006003826040518082805190602001908083835b602083106105255780518252602082019150602081019050602083039250610502565b6001836020036101000a038019825116818451168082178552505050505050905001915050908152602001604051809103902060000154146105b2576040517f08c379a0000000000000000000000000000000000000000000000000000000008152600401808060200182810382526025815260200180610e2c6025913960400191505060405180910390fd5b6000600260008473ffffffffffffffffffffffffffffffffffffffff1673ffffffffffffffffffffffffffffffffffffffff168152602001908152602001600020600001541415610698576000808154809291906001019190505550610616610b1a565b60005481600001818152505080600260008573ffffffffffffffffffffffffffffffffffffffff1673ffffffffffffffffffffffffffffffffffffffff16815260200190815260200160002060008201518160000155602082015181600101556040820151816002019080519060200190610692929190610b3b565b50905050505b600160008154809291906001019190505550600260008373ffffffffffffffffffffffffffffffffffffffff1673ffffffffffffffffffffffffffffffffffffffff16815260200190815260200160002060010160008154809291906001019190505550600260008373ffffffffffffffffffffffffffffffffffffffff1673ffffffffffffffffffffffffffffffffffffffff168152602001908152602001600020600201819080600181540180825580915050906001820390600052602060002001600090919290919091509080519060200190610779929190610b9b565b5050600260008373ffffffffffffffffffffffffffffffffffffffff1673ffffffffffffffffffffffffffffffffffffffff1681526020019081526020016000206003826040518082805190602001908083835b602083106107f057805182526020820191506020810190506020830392506107cd565b6001836020036101000a03801982511681845116808217855250505050505090500191505090815260200160405180910390206000820154816000015560018201548160010155600282018160020190805461084d929190610c1b565b509050505050565b6003818051602081018201805184825260208301602085012081835280955050505050506000915090508060000154908060010154905082565b60606000600260008573ffffffffffffffffffffffffffffffffffffffff1673ffffffffffffffffffffffffffffffffffffffff16815260200190815260200160002060000154141561094a576040517f08c379a000000000000000000000000000000000000000000000000000000000815260040180806020018281038252601d8152602001807f506c61796572206164647265737320646f6573206e6f7420657869737400000081525060200191505060405180910390fd5b600260008473ffffffffffffffffffffffffffffffffffffffff1673ffffffffffffffffffffffffffffffffffffffff168152602001908152602001600020600201828154811061099757fe5b906000526020600020018054600181600116156101000203166002900480601f016020809104026020016040519081016040528092919081815260200182805460018160011615610100020316600290048015610a355780601f10610a0a57610100808354040283529160200191610a35565b820191906000526020600020905b815481529060010190602001808311610a1857829003601f168201915b5050505050905092915050565b60048181548110610a4f57fe5b906000526020600020016000915054906101000a900473ffffffffffffffffffffffffffffffffffffffff1681565b6000806003836040518082805190602001908083835b60208310610ab75780518252602082019150602081019050602083039250610a94565b6001836020036101000a038019825116818451168082178552505050505050905001915050908152602001604051809103902060000154149050919050565b60026020528060005260406000206000915090508060000154908060010154905082565b60405180606001604052806000815260200160008152602001606081525090565b828054828255906000526020600020908101928215610b8a579160200282015b82811115610b89578251829080519060200190610b79929190610c8b565b5091602001919060010190610b5b565b5b509050610b979190610d0b565b5090565b828054600181600116156101000203166002900490600052602060002090601f016020900481019282601f10610bdc57805160ff1916838001178555610c0a565b82800160010185558215610c0a579182015b82811115610c09578251825591602001919060010190610bee565b5b509050610c179190610d37565b5090565b828054828255906000526020600020908101928215610c7a5760005260206000209182015b82811115610c795782829080546001816001161561010002031660029004610c69929190610d5c565b5091600101919060010190610c40565b5b509050610c879190610d0b565b5090565b828054600181600116156101000203166002900490600052602060002090601f016020900481019282601f10610ccc57805160ff1916838001178555610cfa565b82800160010185558215610cfa579182015b82811115610cf9578251825591602001919060010190610cde565b5b509050610d079190610d37565b5090565b610d3491905b80821115610d305760008181610d279190610de3565b50600101610d11565b5090565b90565b610d5991905b80821115610d55576000816000905550600101610d3d565b5090565b90565b828054600181600116156101000203166002900490600052602060002090601f016020900481019282601f10610d955780548555610dd2565b82800160010185558215610dd257600052602060002091601f016020900482015b82811115610dd1578254825591600101919060010190610db6565b5b509050610ddf9190610d37565b5090565b50805460018160011615610100020316600290046000825580601f10610e095750610e28565b601f016020900490600052602060002090810190610e279190610d37565b5b5056fe5468697320776f72642068617320616c7265616479206265656e2072656769737465726564a265627a7a7231582072c51507ac7ea6973ea48cb6bfddc1f16903c7988e4e538624909f2cebd3777964736f6c63430005100032",
  "source": "// SPDX-License-Identifier: MIT\r\npragma solidity >=0.4.22 <0.9.0;\r\n\r\ncontract Ethordle {\r\n    uint256 public playerCount = 0;\r\n    uint256 public wordCount = 0;\r\n\r\n    struct Player {\r\n        uint256 id;\r\n        uint256 wordCount;\r\n        string[] words;\r\n    }\r\n\r\n    mapping(address => Player) public players;\r\n    mapping(string => Player) public words;\r\n\r\n    address[] public playerList;\r\n\r\n    function registerWord(address _player, string memory _word) public {\r\n        require(words[_word].id == 0, 'This word has already been registered');\r\n\r\n        if (players[_player].id == 0) {\r\n            playerCount++;\r\n            Player memory player;\r\n            player.id = playerCount;\r\n            players[_player] = player;\r\n        }\r\n\r\n        wordCount++;\r\n        players[_player].wordCount++;\r\n        players[_player].words.push(_word);\r\n        words[_word] = players[_player];     \r\n    }\r\n\r\n    function getWord(address _player, uint256 _index) public view returns (string memory word) {\r\n        require(players[_player].id != 0, 'Player address does not exist');\r\n\r\n        word = players[_player].words[_index];\r\n    }\r\n\r\n    function isWordUnique(string memory _word) public view returns (bool isUnique) {\r\n        isUnique = words[_word].id == 0;\r\n    }\r\n}\r\n",
  "sourcePath": "C:\\Dev\\Github\\ethordle\\contracts\\Ethordle.sol",
  "compiler": {
    "name": "solc",
    "version": "0.5.16+commit.9c3226ce.Emscripten.clang"
  },
  "schemaVersion": "3.4.6",
  "updatedAt": "2022-03-23T16:35:18.273Z",
  "networkType": "ethereum",
  "devdoc": {
    "methods": {}
  },
  "userdoc": {
    "methods": {}
  }
}