{
  "contractName": "EthordleToken",
  "abi": [
    {
      "inputs": [
        {
          "internalType": "string",
          "name": "_name",
          "type": "string"
        },
        {
          "internalType": "string",
          "name": "_symbol",
          "type": "string"
        },
        {
          "internalType": "uint256",
          "name": "initialPrice_",
          "type": "uint256"
        },
        {
          "internalType": "uint256",
          "name": "royaltyRate_",
          "type": "uint256"
        },
        {
          "internalType": "uint256",
          "name": "priceEscalationRate_",
          "type": "uint256"
        }
      ],
      "stateMutability": "nonpayable",
      "type": "constructor"
    },
    {
      "anonymous": false,
      "inputs": [
        {
          "indexed": true,
          "internalType": "address",
          "name": "owner",
          "type": "address"
        },
        {
          "indexed": true,
          "internalType": "address",
          "name": "approved",
          "type": "address"
        },
        {
          "indexed": true,
          "internalType": "uint256",
          "name": "tokenId",
          "type": "uint256"
        }
      ],
      "name": "Approval",
      "type": "event"
    },
    {
      "anonymous": false,
      "inputs": [
        {
          "indexed": true,
          "internalType": "address",
          "name": "owner",
          "type": "address"
        },
        {
          "indexed": true,
          "internalType": "address",
          "name": "operator",
          "type": "address"
        },
        {
          "indexed": false,
          "internalType": "bool",
          "name": "approved",
          "type": "bool"
        }
      ],
      "name": "ApprovalForAll",
      "type": "event"
    },
    {
      "anonymous": false,
      "inputs": [
        {
          "indexed": true,
          "internalType": "address",
          "name": "previousOwner",
          "type": "address"
        },
        {
          "indexed": true,
          "internalType": "address",
          "name": "newOwner",
          "type": "address"
        }
      ],
      "name": "OwnershipTransferred",
      "type": "event"
    },
    {
      "anonymous": false,
      "inputs": [
        {
          "indexed": false,
          "internalType": "string",
          "name": "solution",
          "type": "string"
        },
        {
          "indexed": false,
          "internalType": "address payable",
          "name": "account",
          "type": "address"
        },
        {
          "indexed": false,
          "internalType": "uint256",
          "name": "tokenId",
          "type": "uint256"
        },
        {
          "indexed": false,
          "internalType": "string",
          "name": "metadataURI",
          "type": "string"
        }
      ],
      "name": "TokenMinted",
      "type": "event"
    },
    {
      "anonymous": false,
      "inputs": [
        {
          "indexed": true,
          "internalType": "address",
          "name": "from",
          "type": "address"
        },
        {
          "indexed": true,
          "internalType": "address",
          "name": "to",
          "type": "address"
        },
        {
          "indexed": true,
          "internalType": "uint256",
          "name": "tokenId",
          "type": "uint256"
        }
      ],
      "name": "Transfer",
      "type": "event"
    },
    {
      "inputs": [
        {
          "internalType": "uint256",
          "name": "",
          "type": "uint256"
        }
      ],
      "name": "_tokenPrices",
      "outputs": [
        {
          "internalType": "uint256",
          "name": "",
          "type": "uint256"
        }
      ],
      "stateMutability": "view",
      "type": "function",
      "constant": true
    },
    {
      "inputs": [
        {
          "internalType": "address",
          "name": "to",
          "type": "address"
        },
        {
          "internalType": "uint256",
          "name": "tokenId",
          "type": "uint256"
        }
      ],
      "name": "approve",
      "outputs": [],
      "stateMutability": "nonpayable",
      "type": "function"
    },
    {
      "inputs": [
        {
          "internalType": "address",
          "name": "owner",
          "type": "address"
        }
      ],
      "name": "balanceOf",
      "outputs": [
        {
          "internalType": "uint256",
          "name": "",
          "type": "uint256"
        }
      ],
      "stateMutability": "view",
      "type": "function",
      "constant": true
    },
    {
      "inputs": [
        {
          "internalType": "uint256",
          "name": "tokenId",
          "type": "uint256"
        }
      ],
      "name": "getApproved",
      "outputs": [
        {
          "internalType": "address",
          "name": "",
          "type": "address"
        }
      ],
      "stateMutability": "view",
      "type": "function",
      "constant": true
    },
    {
      "inputs": [
        {
          "internalType": "address",
          "name": "owner",
          "type": "address"
        },
        {
          "internalType": "address",
          "name": "operator",
          "type": "address"
        }
      ],
      "name": "isApprovedForAll",
      "outputs": [
        {
          "internalType": "bool",
          "name": "",
          "type": "bool"
        }
      ],
      "stateMutability": "view",
      "type": "function",
      "constant": true
    },
    {
      "inputs": [],
      "name": "name",
      "outputs": [
        {
          "internalType": "string",
          "name": "",
          "type": "string"
        }
      ],
      "stateMutability": "view",
      "type": "function",
      "constant": true
    },
    {
      "inputs": [],
      "name": "owner",
      "outputs": [
        {
          "internalType": "address",
          "name": "",
          "type": "address"
        }
      ],
      "stateMutability": "view",
      "type": "function",
      "constant": true
    },
    {
      "inputs": [
        {
          "internalType": "uint256",
          "name": "tokenId",
          "type": "uint256"
        }
      ],
      "name": "ownerOf",
      "outputs": [
        {
          "internalType": "address",
          "name": "",
          "type": "address"
        }
      ],
      "stateMutability": "view",
      "type": "function",
      "constant": true
    },
    {
      "inputs": [],
      "name": "renounceOwnership",
      "outputs": [],
      "stateMutability": "nonpayable",
      "type": "function"
    },
    {
      "inputs": [
        {
          "internalType": "address",
          "name": "operator",
          "type": "address"
        },
        {
          "internalType": "bool",
          "name": "approved",
          "type": "bool"
        }
      ],
      "name": "setApprovalForAll",
      "outputs": [],
      "stateMutability": "nonpayable",
      "type": "function"
    },
    {
      "inputs": [
        {
          "internalType": "bytes4",
          "name": "interfaceId",
          "type": "bytes4"
        }
      ],
      "name": "supportsInterface",
      "outputs": [
        {
          "internalType": "bool",
          "name": "",
          "type": "bool"
        }
      ],
      "stateMutability": "view",
      "type": "function",
      "constant": true
    },
    {
      "inputs": [],
      "name": "symbol",
      "outputs": [
        {
          "internalType": "string",
          "name": "",
          "type": "string"
        }
      ],
      "stateMutability": "view",
      "type": "function",
      "constant": true
    },
    {
      "inputs": [
        {
          "internalType": "address",
          "name": "newOwner",
          "type": "address"
        }
      ],
      "name": "transferOwnership",
      "outputs": [],
      "stateMutability": "nonpayable",
      "type": "function"
    },
    {
      "inputs": [
        {
          "internalType": "uint256",
          "name": "initialPrice_",
          "type": "uint256"
        }
      ],
      "name": "setInitialPrice",
      "outputs": [],
      "stateMutability": "nonpayable",
      "type": "function"
    },
    {
      "inputs": [],
      "name": "initialPrice",
      "outputs": [
        {
          "internalType": "uint256",
          "name": "",
          "type": "uint256"
        }
      ],
      "stateMutability": "view",
      "type": "function",
      "constant": true
    },
    {
      "inputs": [
        {
          "internalType": "uint256",
          "name": "royaltyRate_",
          "type": "uint256"
        }
      ],
      "name": "setRoyaltyRate",
      "outputs": [],
      "stateMutability": "nonpayable",
      "type": "function"
    },
    {
      "inputs": [],
      "name": "royaltyRate",
      "outputs": [
        {
          "internalType": "uint256",
          "name": "",
          "type": "uint256"
        }
      ],
      "stateMutability": "view",
      "type": "function",
      "constant": true
    },
    {
      "inputs": [
        {
          "internalType": "uint256",
          "name": "priceEscalationRate_",
          "type": "uint256"
        }
      ],
      "name": "setPriceEscalationRate",
      "outputs": [],
      "stateMutability": "nonpayable",
      "type": "function"
    },
    {
      "inputs": [],
      "name": "tokenCount",
      "outputs": [
        {
          "internalType": "uint256",
          "name": "",
          "type": "uint256"
        }
      ],
      "stateMutability": "view",
      "type": "function",
      "constant": true
    },
    {
      "inputs": [
        {
          "internalType": "address",
          "name": "_from",
          "type": "address"
        }
      ],
      "name": "tokensOfOwner",
      "outputs": [
        {
          "internalType": "uint256[]",
          "name": "",
          "type": "uint256[]"
        }
      ],
      "stateMutability": "view",
      "type": "function",
      "constant": true
    },
    {
      "inputs": [
        {
          "internalType": "string",
          "name": "baseURI",
          "type": "string"
        }
      ],
      "name": "setBaseURI",
      "outputs": [],
      "stateMutability": "nonpayable",
      "type": "function"
    },
    {
      "inputs": [
        {
          "internalType": "uint256",
          "name": "tokenId",
          "type": "uint256"
        }
      ],
      "name": "solution",
      "outputs": [
        {
          "internalType": "string",
          "name": "",
          "type": "string"
        }
      ],
      "stateMutability": "view",
      "type": "function",
      "constant": true
    },
    {
      "inputs": [
        {
          "internalType": "string",
          "name": "solution_",
          "type": "string"
        }
      ],
      "name": "isSolutionUnique",
      "outputs": [
        {
          "internalType": "bool",
          "name": "",
          "type": "bool"
        }
      ],
      "stateMutability": "view",
      "type": "function",
      "constant": true
    },
    {
      "inputs": [
        {
          "internalType": "uint256",
          "name": "tokenId",
          "type": "uint256"
        }
      ],
      "name": "tokenURI",
      "outputs": [
        {
          "internalType": "string",
          "name": "",
          "type": "string"
        }
      ],
      "stateMutability": "view",
      "type": "function",
      "constant": true
    },
    {
      "inputs": [
        {
          "internalType": "uint256",
          "name": "tokenId",
          "type": "uint256"
        }
      ],
      "name": "price",
      "outputs": [
        {
          "internalType": "uint256",
          "name": "",
          "type": "uint256"
        }
      ],
      "stateMutability": "view",
      "type": "function",
      "constant": true
    },
    {
      "inputs": [
        {
          "internalType": "address payable",
          "name": "to",
          "type": "address"
        },
        {
          "internalType": "string",
          "name": "solution_",
          "type": "string"
        },
        {
          "internalType": "string",
          "name": "tokenURI_",
          "type": "string"
        }
      ],
      "name": "mint",
      "outputs": [],
      "stateMutability": "payable",
      "type": "function",
      "payable": true
    },
    {
      "inputs": [
        {
          "internalType": "address",
          "name": "to",
          "type": "address"
        },
        {
          "internalType": "uint256",
          "name": "tokenId",
          "type": "uint256"
        }
      ],
      "name": "buy",
      "outputs": [],
      "stateMutability": "payable",
      "type": "function",
      "payable": true
    },
    {
      "inputs": [
        {
          "internalType": "address",
          "name": "",
          "type": "address"
        },
        {
          "internalType": "address",
          "name": "",
          "type": "address"
        },
        {
          "internalType": "uint256",
          "name": "",
          "type": "uint256"
        }
      ],
      "name": "transferFrom",
      "outputs": [],
      "stateMutability": "pure",
      "type": "function",
      "constant": true
    },
    {
      "inputs": [
        {
          "internalType": "address",
          "name": "",
          "type": "address"
        },
        {
          "internalType": "address",
          "name": "",
          "type": "address"
        },
        {
          "internalType": "uint256",
          "name": "",
          "type": "uint256"
        }
      ],
      "name": "safeTransferFrom",
      "outputs": [],
      "stateMutability": "pure",
      "type": "function",
      "constant": true
    },
    {
      "inputs": [
        {
          "internalType": "address",
          "name": "",
          "type": "address"
        },
        {
          "internalType": "address",
          "name": "",
          "type": "address"
        },
        {
          "internalType": "uint256",
          "name": "",
          "type": "uint256"
        },
        {
          "internalType": "bytes",
          "name": "",
          "type": "bytes"
        }
      ],
      "name": "safeTransferFrom",
      "outputs": [],
      "stateMutability": "pure",
      "type": "function",
      "constant": true
    }
  ],
  "bytecode": "0x60806040523480156200001157600080fd5b506040516200448b3803806200448b8339818101604052810190620000379190620002fd565b8484816000908051906020019062000051929190620001c4565b5080600190805190602001906200006a929190620001c4565b5050506200008d62000081620000f660201b60201c565b620000fe60201b60201c565b33600d60006101000a81548173ffffffffffffffffffffffffffffffffffffffff021916908373ffffffffffffffffffffffffffffffffffffffff160217905550600060118190555082600e8190555081600f8190555080601081905550505050505062000545565b600033905090565b6000600660009054906101000a900473ffffffffffffffffffffffffffffffffffffffff16905081600660006101000a81548173ffffffffffffffffffffffffffffffffffffffff021916908373ffffffffffffffffffffffffffffffffffffffff1602179055508173ffffffffffffffffffffffffffffffffffffffff168173ffffffffffffffffffffffffffffffffffffffff167f8be0079c531659141344cd1fd0a4f28419497f9722a3daafe3b4186f6b6457e060405160405180910390a35050565b828054620001d29062000450565b90600052602060002090601f016020900481019282620001f6576000855562000242565b82601f106200021157805160ff191683800117855562000242565b8280016001018555821562000242579182015b828111156200024157825182559160200191906001019062000224565b5b50905062000251919062000255565b5090565b5b808211156200027057600081600090555060010162000256565b5090565b60006200028b6200028584620003da565b620003b1565b905082815260208101848484011115620002a457600080fd5b620002b18482856200041a565b509392505050565b600082601f830112620002cb57600080fd5b8151620002dd84826020860162000274565b91505092915050565b600081519050620002f7816200052b565b92915050565b600080600080600060a086880312156200031657600080fd5b600086015167ffffffffffffffff8111156200033157600080fd5b6200033f88828901620002b9565b955050602086015167ffffffffffffffff8111156200035d57600080fd5b6200036b88828901620002b9565b94505060406200037e88828901620002e6565b93505060606200039188828901620002e6565b9250506080620003a488828901620002e6565b9150509295509295909350565b6000620003bd620003d0565b9050620003cb828262000486565b919050565b6000604051905090565b600067ffffffffffffffff821115620003f857620003f7620004eb565b5b62000403826200051a565b9050602081019050919050565b6000819050919050565b60005b838110156200043a5780820151818401526020810190506200041d565b838111156200044a576000848401525b50505050565b600060028204905060018216806200046957607f821691505b6020821081141562000480576200047f620004bc565b5b50919050565b62000491826200051a565b810181811067ffffffffffffffff82111715620004b357620004b2620004eb565b5b80604052505050565b7f4e487b7100000000000000000000000000000000000000000000000000000000600052602260045260246000fd5b7f4e487b7100000000000000000000000000000000000000000000000000000000600052604160045260246000fd5b6000601f19601f8301169050919050565b620005368162000410565b81146200054257600080fd5b50565b613f3680620005556000396000f3fe6080604052600436106101cd5760003560e01c806395d89b41116100f7578063aa3b13d011610095578063cce7ec1311610064578063cce7ec131461069d578063db53653e146106b9578063e985e9c5146106f6578063f2fde38b14610733576101cd565b8063aa3b13d0146105cf578063b88d4fde1461060c578063c4d1510d14610635578063c87b56dd14610660576101cd565b80639f4ba0ee116100d15780639f4ba0ee14610517578063a129ece914610540578063a22cb46514610569578063a5a0258414610592576101cd565b806395d89b41146104a557806399071190146104d05780639f181b5e146104ec576101cd565b806342842e0e1161016f57806370a082311161013e57806370a08231146103e9578063715018a6146104265780638462151c1461043d5780638da5cb5b1461047a576101cd565b806342842e0e14610331578063537782a21461035a57806355f804b3146103835780636352211e146103ac576101cd565b8063095ea7b3116101ab578063095ea7b3146102775780631d0806ae146102a057806323b872dd146102cb57806326a49e37146102f4576101cd565b806301ffc9a7146101d257806306fdde031461020f578063081812fc1461023a575b600080fd5b3480156101de57600080fd5b506101f960048036038101906101f49190612d5b565b61075c565b6040516102069190613229565b60405180910390f35b34801561021b57600080fd5b5061022461083e565b6040516102319190613244565b60405180910390f35b34801561024657600080fd5b50610261600480360381019061025c9190612dc5565b6108d0565b60405161026e91906131ec565b60405180910390f35b34801561028357600080fd5b5061029e60048036038101906102999190612d1f565b610955565b005b3480156102ac57600080fd5b506102b5610a6d565b6040516102c29190613539565b60405180910390f35b3480156102d757600080fd5b506102f260048036038101906102ed9190612c19565b610a77565b005b34801561030057600080fd5b5061031b60048036038101906103169190612dc5565b610abd565b6040516103289190613539565b60405180910390f35b34801561033d57600080fd5b5061035860048036038101906103539190612c19565b610b22565b005b34801561036657600080fd5b50610381600480360381019061037c9190612dc5565b610b68565b005b34801561038f57600080fd5b506103aa60048036038101906103a59190612d84565b610bee565b005b3480156103b857600080fd5b506103d360048036038101906103ce9190612dc5565b610c84565b6040516103e091906131ec565b60405180910390f35b3480156103f557600080fd5b50610410600480360381019061040b9190612b35565b610d36565b60405161041d9190613539565b60405180910390f35b34801561043257600080fd5b5061043b610dee565b005b34801561044957600080fd5b50610464600480360381019061045f9190612b35565b610e76565b6040516104719190613207565b60405180910390f35b34801561048657600080fd5b5061048f611063565b60405161049c91906131ec565b60405180910390f35b3480156104b157600080fd5b506104ba61108d565b6040516104c79190613244565b60405180910390f35b6104ea60048036038101906104e59190612b5e565b61111f565b005b3480156104f857600080fd5b506105016115be565b60405161050e9190613539565b60405180910390f35b34801561052357600080fd5b5061053e60048036038101906105399190612dc5565b6115c8565b005b34801561054c57600080fd5b5061056760048036038101906105629190612dc5565b61164e565b005b34801561057557600080fd5b50610590600480360381019061058b9190612ce3565b6116d4565b005b34801561059e57600080fd5b506105b960048036038101906105b49190612d84565b6116ea565b6040516105c69190613229565b60405180910390f35b3480156105db57600080fd5b506105f660048036038101906105f19190612dc5565b611760565b6040516106039190613539565b60405180910390f35b34801561061857600080fd5b50610633600480360381019061062e9190612c68565b611778565b005b34801561064157600080fd5b5061064a6117bf565b6040516106579190613539565b60405180910390f35b34801561066c57600080fd5b5061068760048036038101906106829190612dc5565b6117c9565b6040516106949190613244565b60405180910390f35b6106b760048036038101906106b29190612d1f565b6118b6565b005b3480156106c557600080fd5b506106e060048036038101906106db9190612dc5565b611d7d565b6040516106ed9190613244565b60405180910390f35b34801561070257600080fd5b5061071d60048036038101906107189190612bdd565b611e6a565b60405161072a9190613229565b60405180910390f35b34801561073f57600080fd5b5061075a60048036038101906107559190612b35565b611efe565b005b60007f80ac58cd000000000000000000000000000000000000000000000000000000007bffffffffffffffffffffffffffffffffffffffffffffffffffffffff1916827bffffffffffffffffffffffffffffffffffffffffffffffffffffffff1916148061082757507f5b5e139f000000000000000000000000000000000000000000000000000000007bffffffffffffffffffffffffffffffffffffffffffffffffffffffff1916827bffffffffffffffffffffffffffffffffffffffffffffffffffffffff1916145b80610837575061083682611ff6565b5b9050919050565b60606000805461084d90613818565b80601f016020809104026020016040519081016040528092919081815260200182805461087990613818565b80156108c65780601f1061089b576101008083540402835291602001916108c6565b820191906000526020600020905b8154815290600101906020018083116108a957829003601f168201915b5050505050905090565b60006108db82612060565b61091a576040517f08c379a000000000000000000000000000000000000000000000000000000000815260040161091190613459565b60405180910390fd5b6004600083815260200190815260200160002060009054906101000a900473ffffffffffffffffffffffffffffffffffffffff169050919050565b600061096082610c84565b90508073ffffffffffffffffffffffffffffffffffffffff168373ffffffffffffffffffffffffffffffffffffffff1614156109d1576040517f08c379a00000000000000000000000000000000000000000000000000000000081526004016109c8906134d9565b60405180910390fd5b8073ffffffffffffffffffffffffffffffffffffffff166109f06120cc565b73ffffffffffffffffffffffffffffffffffffffff161480610a1f5750610a1e81610a196120cc565b611e6a565b5b610a5e576040517f08c379a0000000000000000000000000000000000000000000000000000000008152600401610a55906133b9565b60405180910390fd5b610a6883836120d4565b505050565b6000600e54905090565b6000610ab8576040517f08c379a0000000000000000000000000000000000000000000000000000000008152600401610aaf906134b9565b60405180910390fd5b505050565b6000610ac882612060565b610b07576040517f08c379a0000000000000000000000000000000000000000000000000000000008152600401610afe906134f9565b60405180910390fd5b600a6000838152602001908152602001600020549050919050565b6000610b63576040517f08c379a0000000000000000000000000000000000000000000000000000000008152600401610b5a906134b9565b60405180910390fd5b505050565b610b706120cc565b73ffffffffffffffffffffffffffffffffffffffff16610b8e611063565b73ffffffffffffffffffffffffffffffffffffffff1614610be4576040517f08c379a0000000000000000000000000000000000000000000000000000000008152600401610bdb90613499565b60405180910390fd5b80600f8190555050565b610bf66120cc565b73ffffffffffffffffffffffffffffffffffffffff16610c14611063565b73ffffffffffffffffffffffffffffffffffffffff1614610c6a576040517f08c379a0000000000000000000000000000000000000000000000000000000008152600401610c6190613499565b60405180910390fd5b8060129080519060200190610c80929190612959565b5050565b6000806002600084815260200190815260200160002060009054906101000a900473ffffffffffffffffffffffffffffffffffffffff169050600073ffffffffffffffffffffffffffffffffffffffff168173ffffffffffffffffffffffffffffffffffffffff161415610d2d576040517f08c379a0000000000000000000000000000000000000000000000000000000008152600401610d24906133f9565b60405180910390fd5b80915050919050565b60008073ffffffffffffffffffffffffffffffffffffffff168273ffffffffffffffffffffffffffffffffffffffff161415610da7576040517f08c379a0000000000000000000000000000000000000000000000000000000008152600401610d9e906133d9565b60405180910390fd5b600360008373ffffffffffffffffffffffffffffffffffffffff1673ffffffffffffffffffffffffffffffffffffffff168152602001908152602001600020549050919050565b610df66120cc565b73ffffffffffffffffffffffffffffffffffffffff16610e14611063565b73ffffffffffffffffffffffffffffffffffffffff1614610e6a576040517f08c379a0000000000000000000000000000000000000000000000000000000008152600401610e6190613499565b60405180910390fd5b610e74600061218d565b565b60606000610e8383610d36565b90506000811415610f0657600067ffffffffffffffff811115610ecf577f4e487b7100000000000000000000000000000000000000000000000000000000600052604160045260246000fd5b604051908082528060200260200182016040528015610efd5781602001602082028036833780820191505090505b5091505061105e565b60008167ffffffffffffffff811115610f48577f4e487b7100000000000000000000000000000000000000000000000000000000600052604160045260246000fd5b604051908082528060200260200182016040528015610f765781602001602082028036833780820191505090505b5090506000805b601154811015611056578573ffffffffffffffffffffffffffffffffffffffff166009600083815260200190815260200160002060009054906101000a900473ffffffffffffffffffffffffffffffffffffffff1673ffffffffffffffffffffffffffffffffffffffff1614156110435780838381518110611028577f4e487b7100000000000000000000000000000000000000000000000000000000600052603260045260246000fd5b602002602001018181525050818061103f9061387b565b9250505b808061104e9061387b565b915050610f7d565b829450505050505b919050565b6000600660009054906101000a900473ffffffffffffffffffffffffffffffffffffffff16905090565b60606001805461109c90613818565b80601f01602080910402602001604051908101604052809291908181526020018280546110c890613818565b80156111155780601f106110ea57610100808354040283529160200191611115565b820191906000526020600020905b8154815290600101906020018083116110f857829003601f168201915b5050505050905090565b8273ffffffffffffffffffffffffffffffffffffffff163373ffffffffffffffffffffffffffffffffffffffff1614806111a65750600d60009054906101000a900473ffffffffffffffffffffffffffffffffffffffff1673ffffffffffffffffffffffffffffffffffffffff163373ffffffffffffffffffffffffffffffffffffffff16145b6111e5576040517f08c379a00000000000000000000000000000000000000000000000000000000081526004016111dc90613479565b60405180910390fd5b600e5434101561122a576040517f08c379a000000000000000000000000000000000000000000000000000000000815260040161122190613519565b60405180910390fd5b600073ffffffffffffffffffffffffffffffffffffffff16600b8360405161125291906131d5565b908152602001604051809103902060009054906101000a900473ffffffffffffffffffffffffffffffffffffffff1673ffffffffffffffffffffffffffffffffffffffff16146112d7576040517f08c379a00000000000000000000000000000000000000000000000000000000081526004016112ce90613419565b60405180910390fd5b600073ffffffffffffffffffffffffffffffffffffffff16600c826040516112ff91906131d5565b908152602001604051809103902060009054906101000a900473ffffffffffffffffffffffffffffffffffffffff1673ffffffffffffffffffffffffffffffffffffffff1614611384576040517f08c379a000000000000000000000000000000000000000000000000000000000815260040161137b906132b9565b60405180910390fd5b61138c611063565b73ffffffffffffffffffffffffffffffffffffffff166108fc349081150290604051600060405180830381858888f193505050501580156113d1573d6000803e3d6000fd5b506113de83601154612253565b816007600060115481526020019081526020016000209080519060200190611407929190612959565b50806008600060115481526020019081526020016000209080519060200190611431929190612959565b5061143b3461242d565b600a60006011548152602001908152602001600020819055508260096000601154815260200190815260200160002060006101000a81548173ffffffffffffffffffffffffffffffffffffffff021916908373ffffffffffffffffffffffffffffffffffffffff16021790555082600b836040516114b991906131d5565b908152602001604051809103902060006101000a81548173ffffffffffffffffffffffffffffffffffffffff021916908373ffffffffffffffffffffffffffffffffffffffff16021790555082600c8260405161151691906131d5565b908152602001604051809103902060006101000a81548173ffffffffffffffffffffffffffffffffffffffff021916908373ffffffffffffffffffffffffffffffffffffffff160217905550601160008154809291906115759061387b565b91905055507f69e2cadceb55416f48e5a82e3641de7889495c2e02c86d37aaa313d121e8e7428284601154846040516115b19493929190613266565b60405180910390a1505050565b6000601154905090565b6115d06120cc565b73ffffffffffffffffffffffffffffffffffffffff166115ee611063565b73ffffffffffffffffffffffffffffffffffffffff1614611644576040517f08c379a000000000000000000000000000000000000000000000000000000000815260040161163b90613499565b60405180910390fd5b80600e8190555050565b6116566120cc565b73ffffffffffffffffffffffffffffffffffffffff16611674611063565b73ffffffffffffffffffffffffffffffffffffffff16146116ca576040517f08c379a00000000000000000000000000000000000000000000000000000000081526004016116c190613499565b60405180910390fd5b8060108190555050565b6116e66116df6120cc565b8383612479565b5050565b60008073ffffffffffffffffffffffffffffffffffffffff16600b8360405161171391906131d5565b908152602001604051809103902060009054906101000a900473ffffffffffffffffffffffffffffffffffffffff1673ffffffffffffffffffffffffffffffffffffffff16149050919050565b600a6020528060005260406000206000915090505481565b60006117b9576040517f08c379a00000000000000000000000000000000000000000000000000000000081526004016117b0906134b9565b60405180910390fd5b50505050565b6000600f54905090565b60606117d482612060565b611813576040517f08c379a000000000000000000000000000000000000000000000000000000000815260040161180a906134f9565b60405180910390fd5b60086000838152602001908152602001600020805461183190613818565b80601f016020809104026020016040519081016040528092919081815260200182805461185d90613818565b80156118aa5780601f1061187f576101008083540402835291602001916118aa565b820191906000526020600020905b81548152906001019060200180831161188d57829003601f168201915b50505050509050919050565b8173ffffffffffffffffffffffffffffffffffffffff163373ffffffffffffffffffffffffffffffffffffffff1614611924576040517f08c379a000000000000000000000000000000000000000000000000000000000815260040161191b90613479565b60405180910390fd5b61192d81612060565b61196c576040517f08c379a0000000000000000000000000000000000000000000000000000000008152600401611963906134f9565b60405180910390fd5b61197d6119776120cc565b826125e6565b156119bd576040517f08c379a00000000000000000000000000000000000000000000000000000000081526004016119b490613399565b60405180910390fd5b600a600082815260200190815260200160002054341015611a13576040517f08c379a0000000000000000000000000000000000000000000000000000000008152600401611a0a90613519565b60405180910390fd5b6000600760008381526020019081526020016000208054611a3390613818565b80601f0160208091040260200160405190810160405280929190818152602001828054611a5f90613818565b8015611aac5780601f10611a8157610100808354040283529160200191611aac565b820191906000526020600020905b815481529060010190602001808311611a8f57829003601f168201915b505050505090506000600860008481526020019081526020016000208054611ad390613818565b80601f0160208091040260200160405190810160405280929190818152602001828054611aff90613818565b8015611b4c5780601f10611b2157610100808354040283529160200191611b4c565b820191906000526020600020905b815481529060010190602001808311611b2f57829003601f168201915b5050505050905060006009600085815260200190815260200160002060009054906101000a900473ffffffffffffffffffffffffffffffffffffffff1690506000611b96346126c4565b905060008134611ba6919061371c565b9050611bb0611063565b73ffffffffffffffffffffffffffffffffffffffff166108fc839081150290604051600060405180830381858888f19350505050158015611bf5573d6000803e3d6000fd5b508273ffffffffffffffffffffffffffffffffffffffff166108fc829081150290604051600060405180830381858888f19350505050158015611c3c573d6000803e3d6000fd5b50611c488388886126e8565b86600b86604051611c5991906131d5565b908152602001604051809103902060006101000a81548173ffffffffffffffffffffffffffffffffffffffff021916908373ffffffffffffffffffffffffffffffffffffffff16021790555086600c85604051611cb691906131d5565b908152602001604051809103902060006101000a81548173ffffffffffffffffffffffffffffffffffffffff021916908373ffffffffffffffffffffffffffffffffffffffff160217905550866009600088815260200190815260200160002060006101000a81548173ffffffffffffffffffffffffffffffffffffffff021916908373ffffffffffffffffffffffffffffffffffffffff160217905550611d5d3461242d565b600a60008881526020019081526020016000208190555050505050505050565b6060611d8882612060565b611dc7576040517f08c379a0000000000000000000000000000000000000000000000000000000008152600401611dbe906134f9565b60405180910390fd5b600760008381526020019081526020016000208054611de590613818565b80601f0160208091040260200160405190810160405280929190818152602001828054611e1190613818565b8015611e5e5780601f10611e3357610100808354040283529160200191611e5e565b820191906000526020600020905b815481529060010190602001808311611e4157829003601f168201915b50505050509050919050565b6000600560008473ffffffffffffffffffffffffffffffffffffffff1673ffffffffffffffffffffffffffffffffffffffff16815260200190815260200160002060008373ffffffffffffffffffffffffffffffffffffffff1673ffffffffffffffffffffffffffffffffffffffff16815260200190815260200160002060009054906101000a900460ff16905092915050565b611f066120cc565b73ffffffffffffffffffffffffffffffffffffffff16611f24611063565b73ffffffffffffffffffffffffffffffffffffffff1614611f7a576040517f08c379a0000000000000000000000000000000000000000000000000000000008152600401611f7190613499565b60405180910390fd5b600073ffffffffffffffffffffffffffffffffffffffff168173ffffffffffffffffffffffffffffffffffffffff161415611fea576040517f08c379a0000000000000000000000000000000000000000000000000000000008152600401611fe1906132d9565b60405180910390fd5b611ff38161218d565b50565b60007f01ffc9a7000000000000000000000000000000000000000000000000000000007bffffffffffffffffffffffffffffffffffffffffffffffffffffffff1916827bffffffffffffffffffffffffffffffffffffffffffffffffffffffff1916149050919050565b60008073ffffffffffffffffffffffffffffffffffffffff166002600084815260200190815260200160002060009054906101000a900473ffffffffffffffffffffffffffffffffffffffff1673ffffffffffffffffffffffffffffffffffffffff1614159050919050565b600033905090565b816004600083815260200190815260200160002060006101000a81548173ffffffffffffffffffffffffffffffffffffffff021916908373ffffffffffffffffffffffffffffffffffffffff160217905550808273ffffffffffffffffffffffffffffffffffffffff1661214783610c84565b73ffffffffffffffffffffffffffffffffffffffff167f8c5be1e5ebec7d5bd14f71427d1e84f3dd0314c0f7b2291e5b200ac8c7c3b92560405160405180910390a45050565b6000600660009054906101000a900473ffffffffffffffffffffffffffffffffffffffff16905081600660006101000a81548173ffffffffffffffffffffffffffffffffffffffff021916908373ffffffffffffffffffffffffffffffffffffffff1602179055508173ffffffffffffffffffffffffffffffffffffffff168173ffffffffffffffffffffffffffffffffffffffff167f8be0079c531659141344cd1fd0a4f28419497f9722a3daafe3b4186f6b6457e060405160405180910390a35050565b600073ffffffffffffffffffffffffffffffffffffffff168273ffffffffffffffffffffffffffffffffffffffff1614156122c3576040517f08c379a00000000000000000000000000000000000000000000000000000000081526004016122ba90613439565b60405180910390fd5b6122cc81612060565b1561230c576040517f08c379a000000000000000000000000000000000000000000000000000000000815260040161230390613319565b60405180910390fd5b6123186000838361294f565b6001600360008473ffffffffffffffffffffffffffffffffffffffff1673ffffffffffffffffffffffffffffffffffffffff1681526020019081526020016000206000828254612368919061363b565b92505081905550816002600083815260200190815260200160002060006101000a81548173ffffffffffffffffffffffffffffffffffffffff021916908373ffffffffffffffffffffffffffffffffffffffff160217905550808273ffffffffffffffffffffffffffffffffffffffff16600073ffffffffffffffffffffffffffffffffffffffff167fddf252ad1be2c89b69c2b068fc378daa952ba7f163c4a11628f55a4df523b3ef60405160405180910390a461242960008383612954565b5050565b60008066038d7ea4c68000905060006127106010548561244d91906136c2565b6124579190613691565b90508182826124669190613691565b61247091906136c2565b92505050919050565b8173ffffffffffffffffffffffffffffffffffffffff168373ffffffffffffffffffffffffffffffffffffffff1614156124e8576040517f08c379a00000000000000000000000000000000000000000000000000000000081526004016124df90613359565b60405180910390fd5b80600560008573ffffffffffffffffffffffffffffffffffffffff1673ffffffffffffffffffffffffffffffffffffffff16815260200190815260200160002060008473ffffffffffffffffffffffffffffffffffffffff1673ffffffffffffffffffffffffffffffffffffffff16815260200190815260200160002060006101000a81548160ff0219169083151502179055508173ffffffffffffffffffffffffffffffffffffffff168373ffffffffffffffffffffffffffffffffffffffff167f17307eab39ab6107e8899845ad3d59bd9653f200f220920489ca2b5937696c31836040516125d99190613229565b60405180910390a3505050565b60006125f182612060565b612630576040517f08c379a000000000000000000000000000000000000000000000000000000000815260040161262790613379565b60405180910390fd5b600061263b83610c84565b90508073ffffffffffffffffffffffffffffffffffffffff168473ffffffffffffffffffffffffffffffffffffffff1614806126aa57508373ffffffffffffffffffffffffffffffffffffffff16612692846108d0565b73ffffffffffffffffffffffffffffffffffffffff16145b806126bb57506126ba8185611e6a565b5b91505092915050565b6000612710600f54836126d791906136c2565b6126e19190613691565b9050919050565b8273ffffffffffffffffffffffffffffffffffffffff1661270882610c84565b73ffffffffffffffffffffffffffffffffffffffff161461275e576040517f08c379a0000000000000000000000000000000000000000000000000000000008152600401612755906132f9565b60405180910390fd5b600073ffffffffffffffffffffffffffffffffffffffff168273ffffffffffffffffffffffffffffffffffffffff1614156127ce576040517f08c379a00000000000000000000000000000000000000000000000000000000081526004016127c590613339565b60405180910390fd5b6127d983838361294f565b6127e46000826120d4565b6001600360008573ffffffffffffffffffffffffffffffffffffffff1673ffffffffffffffffffffffffffffffffffffffff1681526020019081526020016000206000828254612834919061371c565b925050819055506001600360008473ffffffffffffffffffffffffffffffffffffffff1673ffffffffffffffffffffffffffffffffffffffff168152602001908152602001600020600082825461288b919061363b565b92505081905550816002600083815260200190815260200160002060006101000a81548173ffffffffffffffffffffffffffffffffffffffff021916908373ffffffffffffffffffffffffffffffffffffffff160217905550808273ffffffffffffffffffffffffffffffffffffffff168473ffffffffffffffffffffffffffffffffffffffff167fddf252ad1be2c89b69c2b068fc378daa952ba7f163c4a11628f55a4df523b3ef60405160405180910390a461294a838383612954565b505050565b505050565b505050565b82805461296590613818565b90600052602060002090601f01602090048101928261298757600085556129ce565b82601f106129a057805160ff19168380011785556129ce565b828001600101855582156129ce579182015b828111156129cd5782518255916020019190600101906129b2565b5b5090506129db91906129df565b5090565b5b808211156129f85760008160009055506001016129e0565b5090565b6000612a0f612a0a84613579565b613554565b905082815260208101848484011115612a2757600080fd5b612a328482856137d6565b509392505050565b6000612a4d612a48846135aa565b613554565b905082815260208101848484011115612a6557600080fd5b612a708482856137d6565b509392505050565b600081359050612a8781613e8d565b92915050565b600081359050612a9c81613ea4565b92915050565b600081359050612ab181613ebb565b92915050565b600081359050612ac681613ed2565b92915050565b600082601f830112612add57600080fd5b8135612aed8482602086016129fc565b91505092915050565b600082601f830112612b0757600080fd5b8135612b17848260208601612a3a565b91505092915050565b600081359050612b2f81613ee9565b92915050565b600060208284031215612b4757600080fd5b6000612b5584828501612a78565b91505092915050565b600080600060608486031215612b7357600080fd5b6000612b8186828701612a8d565b935050602084013567ffffffffffffffff811115612b9e57600080fd5b612baa86828701612af6565b925050604084013567ffffffffffffffff811115612bc757600080fd5b612bd386828701612af6565b9150509250925092565b60008060408385031215612bf057600080fd5b6000612bfe85828601612a78565b9250506020612c0f85828601612a78565b9150509250929050565b600080600060608486031215612c2e57600080fd5b6000612c3c86828701612a78565b9350506020612c4d86828701612a78565b9250506040612c5e86828701612b20565b9150509250925092565b60008060008060808587031215612c7e57600080fd5b6000612c8c87828801612a78565b9450506020612c9d87828801612a78565b9350506040612cae87828801612b20565b925050606085013567ffffffffffffffff811115612ccb57600080fd5b612cd787828801612acc565b91505092959194509250565b60008060408385031215612cf657600080fd5b6000612d0485828601612a78565b9250506020612d1585828601612aa2565b9150509250929050565b60008060408385031215612d3257600080fd5b6000612d4085828601612a78565b9250506020612d5185828601612b20565b9150509250929050565b600060208284031215612d6d57600080fd5b6000612d7b84828501612ab7565b91505092915050565b600060208284031215612d9657600080fd5b600082013567ffffffffffffffff811115612db057600080fd5b612dbc84828501612af6565b91505092915050565b600060208284031215612dd757600080fd5b6000612de584828501612b20565b91505092915050565b6000612dfa83836131b7565b60208301905092915050565b612e0f81613762565b82525050565b612e1e81613750565b82525050565b6000612e2f826135eb565b612e39818561360e565b9350612e44836135db565b8060005b83811015612e75578151612e5c8882612dee565b9750612e6783613601565b925050600181019050612e48565b5085935050505092915050565b612e8b81613774565b82525050565b6000612e9c826135f6565b612ea6818561361f565b9350612eb68185602086016137e5565b612ebf81613980565b840191505092915050565b6000612ed5826135f6565b612edf8185613630565b9350612eef8185602086016137e5565b80840191505092915050565b6000612f08602d8361361f565b9150612f1382613991565b604082019050919050565b6000612f2b60268361361f565b9150612f36826139e0565b604082019050919050565b6000612f4e60258361361f565b9150612f5982613a2f565b604082019050919050565b6000612f71601c8361361f565b9150612f7c82613a7e565b602082019050919050565b6000612f9460248361361f565b9150612f9f82613aa7565b604082019050919050565b6000612fb760198361361f565b9150612fc282613af6565b602082019050919050565b6000612fda602c8361361f565b9150612fe582613b1f565b604082019050919050565b6000612ffd60188361361f565b915061300882613b6e565b602082019050919050565b600061302060388361361f565b915061302b82613b97565b604082019050919050565b6000613043602a8361361f565b915061304e82613be6565b604082019050919050565b600061306660298361361f565b915061307182613c35565b604082019050919050565b600061308960328361361f565b915061309482613c84565b604082019050919050565b60006130ac60208361361f565b91506130b782613cd3565b602082019050919050565b60006130cf602c8361361f565b91506130da82613cfc565b604082019050919050565b60006130f260128361361f565b91506130fd82613d4b565b602082019050919050565b600061311560208361361f565b915061312082613d74565b602082019050919050565b6000613138600f8361361f565b915061314382613d9d565b602082019050919050565b600061315b60218361361f565b915061316682613dc6565b604082019050919050565b600061317e60168361361f565b915061318982613e15565b602082019050919050565b60006131a1602d8361361f565b91506131ac82613e3e565b604082019050919050565b6131c0816137cc565b82525050565b6131cf816137cc565b82525050565b60006131e18284612eca565b915081905092915050565b60006020820190506132016000830184612e15565b92915050565b600060208201905081810360008301526132218184612e24565b905092915050565b600060208201905061323e6000830184612e82565b92915050565b6000602082019050818103600083015261325e8184612e91565b905092915050565b600060808201905081810360008301526132808187612e91565b905061328f6020830186612e06565b61329c60408301856131c6565b81810360608301526132ae8184612e91565b905095945050505050565b600060208201905081810360008301526132d281612efb565b9050919050565b600060208201905081810360008301526132f281612f1e565b9050919050565b6000602082019050818103600083015261331281612f41565b9050919050565b6000602082019050818103600083015261333281612f64565b9050919050565b6000602082019050818103600083015261335281612f87565b9050919050565b6000602082019050818103600083015261337281612faa565b9050919050565b6000602082019050818103600083015261339281612fcd565b9050919050565b600060208201905081810360008301526133b281612ff0565b9050919050565b600060208201905081810360008301526133d281613013565b9050919050565b600060208201905081810360008301526133f281613036565b9050919050565b6000602082019050818103600083015261341281613059565b9050919050565b600060208201905081810360008301526134328161307c565b9050919050565b600060208201905081810360008301526134528161309f565b9050919050565b60006020820190508181036000830152613472816130c2565b9050919050565b60006020820190508181036000830152613492816130e5565b9050919050565b600060208201905081810360008301526134b281613108565b9050919050565b600060208201905081810360008301526134d28161312b565b9050919050565b600060208201905081810360008301526134f28161314e565b9050919050565b6000602082019050818103600083015261351281613171565b9050919050565b6000602082019050818103600083015261353281613194565b9050919050565b600060208201905061354e60008301846131c6565b92915050565b600061355e61356f565b905061356a828261384a565b919050565b6000604051905090565b600067ffffffffffffffff82111561359457613593613951565b5b61359d82613980565b9050602081019050919050565b600067ffffffffffffffff8211156135c5576135c4613951565b5b6135ce82613980565b9050602081019050919050565b6000819050602082019050919050565b600081519050919050565b600081519050919050565b6000602082019050919050565b600082825260208201905092915050565b600082825260208201905092915050565b600081905092915050565b6000613646826137cc565b9150613651836137cc565b9250827fffffffffffffffffffffffffffffffffffffffffffffffffffffffffffffffff03821115613686576136856138c4565b5b828201905092915050565b600061369c826137cc565b91506136a7836137cc565b9250826136b7576136b66138f3565b5b828204905092915050565b60006136cd826137cc565b91506136d8836137cc565b9250817fffffffffffffffffffffffffffffffffffffffffffffffffffffffffffffffff0483118215151615613711576137106138c4565b5b828202905092915050565b6000613727826137cc565b9150613732836137cc565b925082821015613745576137446138c4565b5b828203905092915050565b600061375b826137ac565b9050919050565b600061376d826137ac565b9050919050565b60008115159050919050565b60007fffffffff0000000000000000000000000000000000000000000000000000000082169050919050565b600073ffffffffffffffffffffffffffffffffffffffff82169050919050565b6000819050919050565b82818337600083830152505050565b60005b838110156138035780820151818401526020810190506137e8565b83811115613812576000848401525b50505050565b6000600282049050600182168061383057607f821691505b6020821081141561384457613843613922565b5b50919050565b61385382613980565b810181811067ffffffffffffffff8211171561387257613871613951565b5b80604052505050565b6000613886826137cc565b91507fffffffffffffffffffffffffffffffffffffffffffffffffffffffffffffffff8214156138b9576138b86138c4565b5b600182019050919050565b7f4e487b7100000000000000000000000000000000000000000000000000000000600052601160045260246000fd5b7f4e487b7100000000000000000000000000000000000000000000000000000000600052601260045260246000fd5b7f4e487b7100000000000000000000000000000000000000000000000000000000600052602260045260246000fd5b7f4e487b7100000000000000000000000000000000000000000000000000000000600052604160045260246000fd5b6000601f19601f8301169050919050565b7f4120746f6b656e2068617320616c7265616479206265656e206d696e7465642060008201527f7769746820746869732055524900000000000000000000000000000000000000602082015250565b7f4f776e61626c653a206e6577206f776e657220697320746865207a65726f206160008201527f6464726573730000000000000000000000000000000000000000000000000000602082015250565b7f4552433732313a207472616e736665722066726f6d20696e636f72726563742060008201527f6f776e6572000000000000000000000000000000000000000000000000000000602082015250565b7f4552433732313a20746f6b656e20616c7265616479206d696e74656400000000600082015250565b7f4552433732313a207472616e7366657220746f20746865207a65726f2061646460008201527f7265737300000000000000000000000000000000000000000000000000000000602082015250565b7f4552433732313a20617070726f766520746f2063616c6c657200000000000000600082015250565b7f4552433732313a206f70657261746f7220717565727920666f72206e6f6e657860008201527f697374656e7420746f6b656e0000000000000000000000000000000000000000602082015250565b7f427579657220616c7265616479206f776e7320746f6b656e0000000000000000600082015250565b7f4552433732313a20617070726f76652063616c6c6572206973206e6f74206f7760008201527f6e6572206e6f7220617070726f76656420666f7220616c6c0000000000000000602082015250565b7f4552433732313a2062616c616e636520717565727920666f7220746865207a6560008201527f726f206164647265737300000000000000000000000000000000000000000000602082015250565b7f4552433732313a206f776e657220717565727920666f72206e6f6e657869737460008201527f656e7420746f6b656e0000000000000000000000000000000000000000000000602082015250565b7f4120746f6b656e2068617320616c7265616479206265656e206d696e7465642060008201527f77697468207468697320736f6c7574696f6e0000000000000000000000000000602082015250565b7f4552433732313a206d696e7420746f20746865207a65726f2061646472657373600082015250565b7f4552433732313a20617070726f76656420717565727920666f72206e6f6e657860008201527f697374656e7420746f6b656e0000000000000000000000000000000000000000602082015250565b7f496e76616c696420746f20616464726573730000000000000000000000000000600082015250565b7f4f776e61626c653a2063616c6c6572206973206e6f7420746865206f776e6572600082015250565b7f4e6f7420696d706c656d656e7465640000000000000000000000000000000000600082015250565b7f4552433732313a20617070726f76616c20746f2063757272656e74206f776e6560008201527f7200000000000000000000000000000000000000000000000000000000000000602082015250565b7f546f6b656e496420646f6573206e6f7420657869737400000000000000000000600082015250565b7f496e73756666696369656e742065746865722073656e7420776974682074686960008201527f73207472616e73616374696f6e00000000000000000000000000000000000000602082015250565b613e9681613750565b8114613ea157600080fd5b50565b613ead81613762565b8114613eb857600080fd5b50565b613ec481613774565b8114613ecf57600080fd5b50565b613edb81613780565b8114613ee657600080fd5b50565b613ef2816137cc565b8114613efd57600080fd5b5056fea264697066735822122076d40805588db5fb172f596c038767fd1d033076199e22d2c96982d015e23ae364736f6c63430008010033",
  "immutableReferences": {},
  "source": "// SPDX-License-Identifier: MIT\r\npragma solidity >=0.4.22 <0.9.0;\r\nimport \"@openzeppelin/contracts/token/ERC721/ERC721.sol\";\r\nimport \"@openzeppelin/contracts/access/Ownable.sol\";\r\n\r\ncontract EthordleToken is ERC721, Ownable {\r\n    \r\nusing Strings for uint256;\r\n    \r\n    mapping (uint256 => string) private _tokenSolutions;\r\n    mapping (uint256 => string) private _tokenURIs;\r\n    mapping (uint256 => address) private _tokenAccounts;\r\n    mapping (uint256 => uint256) public _tokenPrices;\r\n    mapping (string => address) private _solutionOwners;\r\n    mapping (string => address) private _tokenURIOwners;\r\n\r\n    address private _owner;\r\n    uint256 private _initialPrice;\r\n    uint256 private _royaltyRate;\r\n    uint256 private _priceEscalationRate;\r\n    uint256 private _currentTokenId;\r\n    string private _baseURIextended;\r\n\r\n    event TokenMinted (\r\n        string solution,\r\n        address payable account,\r\n        uint256 tokenId,\r\n        string metadataURI\r\n    );\r\n\r\n    constructor(string memory _name, string memory _symbol, uint256 initialPrice_, uint256 royaltyRate_, uint256 priceEscalationRate_) ERC721(_name, _symbol) {\r\n        _owner = msg.sender;\r\n        _currentTokenId = 0;\r\n        _initialPrice = initialPrice_;\r\n        _royaltyRate = royaltyRate_;\r\n        _priceEscalationRate = priceEscalationRate_;\r\n    }\r\n    \r\n    function setInitialPrice(uint256 initialPrice_) external onlyOwner() {\r\n        _initialPrice = initialPrice_;\r\n    }\r\n\r\n    function initialPrice() external view returns (uint256) {\r\n        return _initialPrice;\r\n    }\r\n\r\n    function setRoyaltyRate(uint256 royaltyRate_) external onlyOwner() {\r\n        _royaltyRate = royaltyRate_;   \r\n    }\r\n\r\n    function royaltyRate() external view returns (uint256) {\r\n        return _royaltyRate;\r\n    }\r\n\r\n    function setPriceEscalationRate(uint256 priceEscalationRate_) external onlyOwner() {\r\n        _priceEscalationRate = priceEscalationRate_;\r\n    }\r\n\r\n    function tokenCount() external view returns (uint256) {\r\n        return _currentTokenId;\r\n    }\r\n\r\n    function tokensOfOwner(address _from) external view returns(uint256[] memory) {\r\n        uint256 tokens = balanceOf(_from);\r\n\r\n        if (tokens == 0) {\r\n            return new uint256[](0);\r\n        } else {\r\n            uint256[] memory result = new uint256[](tokens);\r\n            uint256 resultIndex = 0;\r\n            uint256 tokenId;\r\n\r\n            for (tokenId = 0; tokenId < _currentTokenId; tokenId++) {\r\n                if (_tokenAccounts[tokenId] == _from) {\r\n                    result[resultIndex] = tokenId;\r\n                    resultIndex++;\r\n                }\r\n            }\r\n\r\n            return result;\r\n        }\r\n    }\r\n    \r\n    function setBaseURI(string memory baseURI) external onlyOwner() {\r\n        _baseURIextended = baseURI;\r\n    }\r\n    \r\n    function _baseURI() internal view virtual override returns (string memory) {\r\n        return _baseURIextended;\r\n    }\r\n    \r\n    function solution(uint256 tokenId) public view returns (string memory) {\r\n        require(_exists(tokenId), 'TokenId does not exist');\r\n\r\n        return _tokenSolutions[tokenId];\r\n    }\r\n\r\n    function isSolutionUnique(string memory solution_) public view returns (bool) {\r\n        return _solutionOwners[solution_] == address(0x0);\r\n    }\r\n\r\n    function tokenURI(uint256 tokenId) public view virtual override returns (string memory) {\r\n        require(_exists(tokenId), 'TokenId does not exist');\r\n\r\n        return _tokenURIs[tokenId];\r\n    }\r\n\r\n    function price(uint256 tokenId) public view returns (uint256) {\r\n        require(_exists(tokenId), 'TokenId does not exist');\r\n\r\n        return _tokenPrices[tokenId];\r\n    }\r\n    \r\n    function mint(\r\n        address payable to,\r\n        string memory solution_,\r\n        string memory tokenURI_\r\n    ) external payable {  \r\n        require(msg.sender == to || msg.sender == _owner, 'Invalid to address');      \r\n        require(msg.value >= _initialPrice, 'Insufficient ether sent with this transaction'); \r\n        require(_solutionOwners[solution_] == address(0x0), 'A token has already been minted with this solution');\r\n        require(_tokenURIOwners[tokenURI_] == address(0x0), 'A token has already been minted with this URI');\r\n        \r\n        payable(owner()).transfer(msg.value);\r\n\r\n        _mint(to, _currentTokenId);\r\n\r\n        _tokenSolutions[_currentTokenId] = solution_;\r\n        _tokenURIs[_currentTokenId] = tokenURI_;\r\n        _tokenPrices[_currentTokenId] = _getEscalatedPrice(msg.value);\r\n        _tokenAccounts[_currentTokenId] = to;\r\n        _solutionOwners[solution_] = to;\r\n        _tokenURIOwners[tokenURI_] = to;\r\n        _currentTokenId++;        \r\n        \r\n        emit TokenMinted(solution_, to, _currentTokenId, tokenURI_);\r\n    }\r\n\r\n    function buy(\r\n        address to,\r\n        uint256 tokenId\r\n    ) external payable {        \r\n        require(msg.sender == to, 'Invalid to address');\r\n        require(_exists(tokenId), 'TokenId does not exist');   \r\n        require(!_isApprovedOrOwner(_msgSender(), tokenId), \"Buyer already owns token\");   \r\n        require(msg.value >= _tokenPrices[tokenId], 'Insufficient ether sent with this transaction');\r\n       \r\n        string memory solution_ = _tokenSolutions[tokenId];\r\n        string memory tokenURI_ = _tokenURIs[tokenId];\r\n\r\n        address from = _tokenAccounts[tokenId];\r\n        uint256 totalRoyalty = _getRoyalty(msg.value); \r\n        uint256 remainder = msg.value - totalRoyalty;\r\n\r\n        payable(owner()).transfer(totalRoyalty);\r\n        payable(address(from)).transfer(remainder);\r\n\r\n        _transfer(from, to, tokenId);\r\n\r\n        _solutionOwners[solution_] = to;\r\n        _tokenURIOwners[tokenURI_] = to;\r\n        _tokenAccounts[tokenId] = to;\r\n        _tokenPrices[tokenId] = _getEscalatedPrice(msg.value);        \r\n    }\r\n    \r\n    // todo how to prevent base _transfer from being called directly\r\n\r\n    function _getRoyalty(uint256 value) private view returns (uint256) {\r\n        return value * _royaltyRate / 10000 ;  // todo need safe multiply    \r\n    }\r\n\r\n    function _getEscalatedPrice(uint256 value) private view returns (uint256) {\r\n        uint256 divisor = 10**15;\r\n        uint256 newPrice = value * _priceEscalationRate / 10000 ;  // todo need safe multiply    \r\n        \r\n        return (newPrice / divisor) * divisor;  // round off new price to nearest 1E15\r\n    }\r\n\r\n    function transferFrom(\r\n        address /*from*/,\r\n        address /*to*/,\r\n        uint256 /*tokenId*/\r\n    ) public pure override {\r\n        require(false, 'Not implemented');\r\n    }\r\n\r\n    function safeTransferFrom(\r\n        address /*from*/,\r\n        address /*to*/,\r\n        uint256 /*tokenId*/\r\n    ) public pure override {\r\n        require(false, 'Not implemented');\r\n    }\r\n\r\n    function safeTransferFrom(\r\n        address /*from*/,\r\n        address /*to*/,\r\n        uint256 /*tokenId*/,\r\n        bytes memory /*_data*/\r\n    ) public pure override {\r\n        require(false, 'Not implemented');\r\n    }\r\n}",
  "sourcePath": "C:\\Dev\\Github\\ethordle\\contracts\\EthordleToken.sol",
  "compiler": {
    "name": "solc",
    "version": "0.8.1+commit.df193b15.Emscripten.clang"
  },
  "schemaVersion": "3.4.6",
  "updatedAt": "2022-04-19T01:19:56.462Z",
  "networkType": "ethereum",
  "devdoc": {
    "kind": "dev",
    "methods": {
      "approve(address,uint256)": {
        "details": "See {IERC721-approve}."
      },
      "balanceOf(address)": {
        "details": "See {IERC721-balanceOf}."
      },
      "getApproved(uint256)": {
        "details": "See {IERC721-getApproved}."
      },
      "isApprovedForAll(address,address)": {
        "details": "See {IERC721-isApprovedForAll}."
      },
      "name()": {
        "details": "See {IERC721Metadata-name}."
      },
      "owner()": {
        "details": "Returns the address of the current owner."
      },
      "ownerOf(uint256)": {
        "details": "See {IERC721-ownerOf}."
      },
      "renounceOwnership()": {
        "details": "Leaves the contract without owner. It will not be possible to call `onlyOwner` functions anymore. Can only be called by the current owner. NOTE: Renouncing ownership will leave the contract without an owner, thereby removing any functionality that is only available to the owner."
      },
      "setApprovalForAll(address,bool)": {
        "details": "See {IERC721-setApprovalForAll}."
      },
      "supportsInterface(bytes4)": {
        "details": "See {IERC165-supportsInterface}."
      },
      "symbol()": {
        "details": "See {IERC721Metadata-symbol}."
      },
      "tokenURI(uint256)": {
        "details": "See {IERC721Metadata-tokenURI}."
      },
      "transferOwnership(address)": {
        "details": "Transfers ownership of the contract to a new account (`newOwner`). Can only be called by the current owner."
      }
    },
    "version": 1
  },
  "userdoc": {
    "kind": "user",
    "methods": {},
    "version": 1
  }
}