{
  "contractName": "EthordleToken",
  "abi": [
    {
      "inputs": [
        {
          "internalType": "string",
          "name": "_name",
          "type": "string"
        },
        {
          "internalType": "string",
          "name": "_symbol",
          "type": "string"
        },
        {
          "internalType": "uint256",
          "name": "initialPrice_",
          "type": "uint256"
        },
        {
          "internalType": "uint256",
          "name": "royaltyRate_",
          "type": "uint256"
        }
      ],
      "stateMutability": "nonpayable",
      "type": "constructor"
    },
    {
      "anonymous": false,
      "inputs": [
        {
          "indexed": true,
          "internalType": "address",
          "name": "owner",
          "type": "address"
        },
        {
          "indexed": true,
          "internalType": "address",
          "name": "approved",
          "type": "address"
        },
        {
          "indexed": true,
          "internalType": "uint256",
          "name": "tokenId",
          "type": "uint256"
        }
      ],
      "name": "Approval",
      "type": "event"
    },
    {
      "anonymous": false,
      "inputs": [
        {
          "indexed": true,
          "internalType": "address",
          "name": "owner",
          "type": "address"
        },
        {
          "indexed": true,
          "internalType": "address",
          "name": "operator",
          "type": "address"
        },
        {
          "indexed": false,
          "internalType": "bool",
          "name": "approved",
          "type": "bool"
        }
      ],
      "name": "ApprovalForAll",
      "type": "event"
    },
    {
      "anonymous": false,
      "inputs": [
        {
          "indexed": true,
          "internalType": "address",
          "name": "previousOwner",
          "type": "address"
        },
        {
          "indexed": true,
          "internalType": "address",
          "name": "newOwner",
          "type": "address"
        }
      ],
      "name": "OwnershipTransferred",
      "type": "event"
    },
    {
      "anonymous": false,
      "inputs": [
        {
          "indexed": false,
          "internalType": "string",
          "name": "solution",
          "type": "string"
        },
        {
          "indexed": false,
          "internalType": "address payable",
          "name": "account",
          "type": "address"
        },
        {
          "indexed": false,
          "internalType": "uint256",
          "name": "tokenId",
          "type": "uint256"
        },
        {
          "indexed": false,
          "internalType": "string",
          "name": "metadataURI",
          "type": "string"
        }
      ],
      "name": "TokenMinted",
      "type": "event"
    },
    {
      "anonymous": false,
      "inputs": [
        {
          "indexed": true,
          "internalType": "address",
          "name": "from",
          "type": "address"
        },
        {
          "indexed": true,
          "internalType": "address",
          "name": "to",
          "type": "address"
        },
        {
          "indexed": true,
          "internalType": "uint256",
          "name": "tokenId",
          "type": "uint256"
        }
      ],
      "name": "Transfer",
      "type": "event"
    },
    {
      "inputs": [
        {
          "internalType": "address",
          "name": "to",
          "type": "address"
        },
        {
          "internalType": "uint256",
          "name": "tokenId",
          "type": "uint256"
        }
      ],
      "name": "approve",
      "outputs": [],
      "stateMutability": "nonpayable",
      "type": "function"
    },
    {
      "inputs": [
        {
          "internalType": "address",
          "name": "owner",
          "type": "address"
        }
      ],
      "name": "balanceOf",
      "outputs": [
        {
          "internalType": "uint256",
          "name": "",
          "type": "uint256"
        }
      ],
      "stateMutability": "view",
      "type": "function",
      "constant": true
    },
    {
      "inputs": [
        {
          "internalType": "uint256",
          "name": "tokenId",
          "type": "uint256"
        }
      ],
      "name": "getApproved",
      "outputs": [
        {
          "internalType": "address",
          "name": "",
          "type": "address"
        }
      ],
      "stateMutability": "view",
      "type": "function",
      "constant": true
    },
    {
      "inputs": [
        {
          "internalType": "address",
          "name": "owner",
          "type": "address"
        },
        {
          "internalType": "address",
          "name": "operator",
          "type": "address"
        }
      ],
      "name": "isApprovedForAll",
      "outputs": [
        {
          "internalType": "bool",
          "name": "",
          "type": "bool"
        }
      ],
      "stateMutability": "view",
      "type": "function",
      "constant": true
    },
    {
      "inputs": [],
      "name": "name",
      "outputs": [
        {
          "internalType": "string",
          "name": "",
          "type": "string"
        }
      ],
      "stateMutability": "view",
      "type": "function",
      "constant": true
    },
    {
      "inputs": [],
      "name": "owner",
      "outputs": [
        {
          "internalType": "address",
          "name": "",
          "type": "address"
        }
      ],
      "stateMutability": "view",
      "type": "function",
      "constant": true
    },
    {
      "inputs": [
        {
          "internalType": "uint256",
          "name": "tokenId",
          "type": "uint256"
        }
      ],
      "name": "ownerOf",
      "outputs": [
        {
          "internalType": "address",
          "name": "",
          "type": "address"
        }
      ],
      "stateMutability": "view",
      "type": "function",
      "constant": true
    },
    {
      "inputs": [],
      "name": "renounceOwnership",
      "outputs": [],
      "stateMutability": "nonpayable",
      "type": "function"
    },
    {
      "inputs": [
        {
          "internalType": "address",
          "name": "from",
          "type": "address"
        },
        {
          "internalType": "address",
          "name": "to",
          "type": "address"
        },
        {
          "internalType": "uint256",
          "name": "tokenId",
          "type": "uint256"
        }
      ],
      "name": "safeTransferFrom",
      "outputs": [],
      "stateMutability": "nonpayable",
      "type": "function"
    },
    {
      "inputs": [
        {
          "internalType": "address",
          "name": "from",
          "type": "address"
        },
        {
          "internalType": "address",
          "name": "to",
          "type": "address"
        },
        {
          "internalType": "uint256",
          "name": "tokenId",
          "type": "uint256"
        },
        {
          "internalType": "bytes",
          "name": "_data",
          "type": "bytes"
        }
      ],
      "name": "safeTransferFrom",
      "outputs": [],
      "stateMutability": "nonpayable",
      "type": "function"
    },
    {
      "inputs": [
        {
          "internalType": "address",
          "name": "operator",
          "type": "address"
        },
        {
          "internalType": "bool",
          "name": "approved",
          "type": "bool"
        }
      ],
      "name": "setApprovalForAll",
      "outputs": [],
      "stateMutability": "nonpayable",
      "type": "function"
    },
    {
      "inputs": [
        {
          "internalType": "bytes4",
          "name": "interfaceId",
          "type": "bytes4"
        }
      ],
      "name": "supportsInterface",
      "outputs": [
        {
          "internalType": "bool",
          "name": "",
          "type": "bool"
        }
      ],
      "stateMutability": "view",
      "type": "function",
      "constant": true
    },
    {
      "inputs": [],
      "name": "symbol",
      "outputs": [
        {
          "internalType": "string",
          "name": "",
          "type": "string"
        }
      ],
      "stateMutability": "view",
      "type": "function",
      "constant": true
    },
    {
      "inputs": [
        {
          "internalType": "address",
          "name": "from",
          "type": "address"
        },
        {
          "internalType": "address",
          "name": "to",
          "type": "address"
        },
        {
          "internalType": "uint256",
          "name": "tokenId",
          "type": "uint256"
        }
      ],
      "name": "transferFrom",
      "outputs": [],
      "stateMutability": "nonpayable",
      "type": "function"
    },
    {
      "inputs": [
        {
          "internalType": "address",
          "name": "newOwner",
          "type": "address"
        }
      ],
      "name": "transferOwnership",
      "outputs": [],
      "stateMutability": "nonpayable",
      "type": "function"
    },
    {
      "inputs": [
        {
          "internalType": "uint256",
          "name": "initialPrice_",
          "type": "uint256"
        }
      ],
      "name": "setInitialPrice",
      "outputs": [],
      "stateMutability": "nonpayable",
      "type": "function"
    },
    {
      "inputs": [],
      "name": "initialPrice",
      "outputs": [
        {
          "internalType": "uint256",
          "name": "",
          "type": "uint256"
        }
      ],
      "stateMutability": "view",
      "type": "function",
      "constant": true
    },
    {
      "inputs": [
        {
          "internalType": "uint256",
          "name": "royaltyRate_",
          "type": "uint256"
        }
      ],
      "name": "setRoyaltyRate",
      "outputs": [],
      "stateMutability": "nonpayable",
      "type": "function"
    },
    {
      "inputs": [],
      "name": "royaltyRate",
      "outputs": [
        {
          "internalType": "uint256",
          "name": "",
          "type": "uint256"
        }
      ],
      "stateMutability": "view",
      "type": "function",
      "constant": true
    },
    {
      "inputs": [],
      "name": "getMintedTokenCount",
      "outputs": [
        {
          "internalType": "uint256",
          "name": "",
          "type": "uint256"
        }
      ],
      "stateMutability": "view",
      "type": "function",
      "constant": true
    },
    {
      "inputs": [
        {
          "internalType": "address",
          "name": "_from",
          "type": "address"
        }
      ],
      "name": "getMintedTokensOfOwner",
      "outputs": [
        {
          "internalType": "uint256[]",
          "name": "ownerTokenIds",
          "type": "uint256[]"
        }
      ],
      "stateMutability": "view",
      "type": "function",
      "constant": true
    },
    {
      "inputs": [
        {
          "internalType": "string",
          "name": "baseURI",
          "type": "string"
        }
      ],
      "name": "setBaseURI",
      "outputs": [],
      "stateMutability": "nonpayable",
      "type": "function"
    },
    {
      "inputs": [
        {
          "internalType": "uint256",
          "name": "tokenId",
          "type": "uint256"
        }
      ],
      "name": "tokenURI",
      "outputs": [
        {
          "internalType": "string",
          "name": "",
          "type": "string"
        }
      ],
      "stateMutability": "view",
      "type": "function",
      "constant": true
    },
    {
      "inputs": [
        {
          "internalType": "address payable",
          "name": "to",
          "type": "address"
        },
        {
          "internalType": "string",
          "name": "solution",
          "type": "string"
        },
        {
          "internalType": "string",
          "name": "tokenURI_",
          "type": "string"
        }
      ],
      "name": "mint",
      "outputs": [],
      "stateMutability": "payable",
      "type": "function",
      "payable": true
    },
    {
      "inputs": [
        {
          "internalType": "address",
          "name": "from",
          "type": "address"
        },
        {
          "internalType": "address",
          "name": "to",
          "type": "address"
        },
        {
          "internalType": "uint256",
          "name": "tokenId",
          "type": "uint256"
        }
      ],
      "name": "transfer",
      "outputs": [],
      "stateMutability": "payable",
      "type": "function",
      "payable": true
    }
  ],
  "bytecode": "0x60806040523480156200001157600080fd5b5060405162003fad38038062003fad8339818101604052810190620000379190620002b4565b83838160009080519060200190620000519291906200017b565b5080600190805190602001906200006a9291906200017b565b5050506200008d62000081620000ad60201b60201c565b620000b560201b60201c565b6000600d8190555081600b8190555080600c8190555050505050620004e6565b600033905090565b6000600660009054906101000a900473ffffffffffffffffffffffffffffffffffffffff16905081600660006101000a81548173ffffffffffffffffffffffffffffffffffffffff021916908373ffffffffffffffffffffffffffffffffffffffff1602179055508173ffffffffffffffffffffffffffffffffffffffff168173ffffffffffffffffffffffffffffffffffffffff167f8be0079c531659141344cd1fd0a4f28419497f9722a3daafe3b4186f6b6457e060405160405180910390a35050565b8280546200018990620003f1565b90600052602060002090601f016020900481019282620001ad5760008555620001f9565b82601f10620001c857805160ff1916838001178555620001f9565b82800160010185558215620001f9579182015b82811115620001f8578251825591602001919060010190620001db565b5b5090506200020891906200020c565b5090565b5b80821115620002275760008160009055506001016200020d565b5090565b6000620002426200023c846200037b565b62000352565b9050828152602081018484840111156200025b57600080fd5b62000268848285620003bb565b509392505050565b600082601f8301126200028257600080fd5b8151620002948482602086016200022b565b91505092915050565b600081519050620002ae81620004cc565b92915050565b60008060008060808587031215620002cb57600080fd5b600085015167ffffffffffffffff811115620002e657600080fd5b620002f48782880162000270565b945050602085015167ffffffffffffffff8111156200031257600080fd5b620003208782880162000270565b935050604062000333878288016200029d565b925050606062000346878288016200029d565b91505092959194509250565b60006200035e62000371565b90506200036c828262000427565b919050565b6000604051905090565b600067ffffffffffffffff8211156200039957620003986200048c565b5b620003a482620004bb565b9050602081019050919050565b6000819050919050565b60005b83811015620003db578082015181840152602081019050620003be565b83811115620003eb576000848401525b50505050565b600060028204905060018216806200040a57607f821691505b602082108114156200042157620004206200045d565b5b50919050565b6200043282620004bb565b810181811067ffffffffffffffff821117156200045457620004536200048c565b5b80604052505050565b7f4e487b7100000000000000000000000000000000000000000000000000000000600052602260045260246000fd5b7f4e487b7100000000000000000000000000000000000000000000000000000000600052604160045260246000fd5b6000601f19601f8301169050919050565b620004d781620003b1565b8114620004e357600080fd5b50565b613ab780620004f66000396000f3fe6080604052600436106101665760003560e01c80638630385c116100d1578063a22cb4651161008a578063c4d1510d11610064578063c4d1510d1461050a578063c87b56dd14610535578063e985e9c514610572578063f2fde38b146105af57610166565b8063a22cb4651461049c578063b88d4fde146104c5578063beabacc8146104ee57610166565b80638630385c146103995780638671bc8b146103d65780638da5cb5b1461040157806395d89b411461042c57806399071190146104575780639f4ba0ee1461047357610166565b806342842e0e1161012357806342842e0e1461028d578063537782a2146102b657806355f804b3146102df5780636352211e1461030857806370a0823114610345578063715018a61461038257610166565b806301ffc9a71461016b57806306fdde03146101a8578063081812fc146101d3578063095ea7b3146102105780631d0806ae1461023957806323b872dd14610264575b600080fd5b34801561017757600080fd5b50610192600480360381019061018d9190612837565b6105d8565b60405161019f9190612db4565b60405180910390f35b3480156101b457600080fd5b506101bd6106ba565b6040516101ca9190612dcf565b60405180910390f35b3480156101df57600080fd5b506101fa60048036038101906101f591906128ca565b61074c565b6040516102079190612d2b565b60405180910390f35b34801561021c57600080fd5b50610237600480360381019061023291906127fb565b6107d1565b005b34801561024557600080fd5b5061024e6108e9565b60405161025b91906130a4565b60405180910390f35b34801561027057600080fd5b5061028b600480360381019061028691906126f5565b6108f3565b005b34801561029957600080fd5b506102b460048036038101906102af91906126f5565b610953565b005b3480156102c257600080fd5b506102dd60048036038101906102d891906128ca565b610973565b005b3480156102eb57600080fd5b5061030660048036038101906103019190612889565b6109f9565b005b34801561031457600080fd5b5061032f600480360381019061032a91906128ca565b610a8f565b60405161033c9190612d2b565b60405180910390f35b34801561035157600080fd5b5061036c60048036038101906103679190612611565b610b41565b60405161037991906130a4565b60405180910390f35b34801561038e57600080fd5b50610397610bf9565b005b3480156103a557600080fd5b506103c060048036038101906103bb9190612611565b610c81565b6040516103cd9190612d92565b60405180910390f35b3480156103e257600080fd5b506103eb610e6e565b6040516103f891906130a4565b60405180910390f35b34801561040d57600080fd5b50610416610e78565b6040516104239190612d2b565b60405180910390f35b34801561043857600080fd5b50610441610ea2565b60405161044e9190612dcf565b60405180910390f35b610471600480360381019061046c919061263a565b610f34565b005b34801561047f57600080fd5b5061049a600480360381019061049591906128ca565b6112c1565b005b3480156104a857600080fd5b506104c360048036038101906104be91906127bf565b611347565b005b3480156104d157600080fd5b506104ec60048036038101906104e79190612744565b61135d565b005b610508600480360381019061050391906126f5565b6113bf565b005b34801561051657600080fd5b5061051f6113cf565b60405161052c91906130a4565b60405180910390f35b34801561054157600080fd5b5061055c600480360381019061055791906128ca565b6113d9565b6040516105699190612dcf565b60405180910390f35b34801561057e57600080fd5b50610599600480360381019061059491906126b9565b61154c565b6040516105a69190612db4565b60405180910390f35b3480156105bb57600080fd5b506105d660048036038101906105d19190612611565b6115e0565b005b60007f80ac58cd000000000000000000000000000000000000000000000000000000007bffffffffffffffffffffffffffffffffffffffffffffffffffffffff1916827bffffffffffffffffffffffffffffffffffffffffffffffffffffffff191614806106a357507f5b5e139f000000000000000000000000000000000000000000000000000000007bffffffffffffffffffffffffffffffffffffffffffffffffffffffff1916827bffffffffffffffffffffffffffffffffffffffffffffffffffffffff1916145b806106b357506106b2826116d8565b5b9050919050565b6060600080546106c990613345565b80601f01602080910402602001604051908101604052809291908181526020018280546106f590613345565b80156107425780601f1061071757610100808354040283529160200191610742565b820191906000526020600020905b81548152906001019060200180831161072557829003601f168201915b5050505050905090565b600061075782611742565b610796576040517f08c379a000000000000000000000000000000000000000000000000000000000815260040161078d90612fe4565b60405180910390fd5b6004600083815260200190815260200160002060009054906101000a900473ffffffffffffffffffffffffffffffffffffffff169050919050565b60006107dc82610a8f565b90508073ffffffffffffffffffffffffffffffffffffffff168373ffffffffffffffffffffffffffffffffffffffff16141561084d576040517f08c379a000000000000000000000000000000000000000000000000000000000815260040161084490613024565b60405180910390fd5b8073ffffffffffffffffffffffffffffffffffffffff1661086c6117ae565b73ffffffffffffffffffffffffffffffffffffffff16148061089b575061089a816108956117ae565b61154c565b5b6108da576040517f08c379a00000000000000000000000000000000000000000000000000000000081526004016108d190612f44565b60405180910390fd5b6108e483836117b6565b505050565b6000600b54905090565b6109046108fe6117ae565b8261186f565b610943576040517f08c379a000000000000000000000000000000000000000000000000000000000815260040161093a90613064565b60405180910390fd5b61094e83838361194d565b505050565b61096e8383836040518060200160405280600081525061135d565b505050565b61097b6117ae565b73ffffffffffffffffffffffffffffffffffffffff16610999610e78565b73ffffffffffffffffffffffffffffffffffffffff16146109ef576040517f08c379a00000000000000000000000000000000000000000000000000000000081526004016109e690613004565b60405180910390fd5b80600c8190555050565b610a016117ae565b73ffffffffffffffffffffffffffffffffffffffff16610a1f610e78565b73ffffffffffffffffffffffffffffffffffffffff1614610a75576040517f08c379a0000000000000000000000000000000000000000000000000000000008152600401610a6c90613004565b60405180910390fd5b80600e9080519060200190610a8b929190612420565b5050565b6000806002600084815260200190815260200160002060009054906101000a900473ffffffffffffffffffffffffffffffffffffffff169050600073ffffffffffffffffffffffffffffffffffffffff168173ffffffffffffffffffffffffffffffffffffffff161415610b38576040517f08c379a0000000000000000000000000000000000000000000000000000000008152600401610b2f90612f84565b60405180910390fd5b80915050919050565b60008073ffffffffffffffffffffffffffffffffffffffff168273ffffffffffffffffffffffffffffffffffffffff161415610bb2576040517f08c379a0000000000000000000000000000000000000000000000000000000008152600401610ba990612f64565b60405180910390fd5b600360008373ffffffffffffffffffffffffffffffffffffffff1673ffffffffffffffffffffffffffffffffffffffff168152602001908152602001600020549050919050565b610c016117ae565b73ffffffffffffffffffffffffffffffffffffffff16610c1f610e78565b73ffffffffffffffffffffffffffffffffffffffff1614610c75576040517f08c379a0000000000000000000000000000000000000000000000000000000008152600401610c6c90613004565b60405180910390fd5b610c7f6000611bb4565b565b60606000610c8e83610b41565b90506000811415610d1157600067ffffffffffffffff811115610cda577f4e487b7100000000000000000000000000000000000000000000000000000000600052604160045260246000fd5b604051908082528060200260200182016040528015610d085781602001602082028036833780820191505090505b50915050610e69565b60008167ffffffffffffffff811115610d53577f4e487b7100000000000000000000000000000000000000000000000000000000600052604160045260246000fd5b604051908082528060200260200182016040528015610d815781602001602082028036833780820191505090505b5090506000805b600d54811015610e61578573ffffffffffffffffffffffffffffffffffffffff166008600083815260200190815260200160002060009054906101000a900473ffffffffffffffffffffffffffffffffffffffff1673ffffffffffffffffffffffffffffffffffffffff161415610e4e5780838381518110610e33577f4e487b7100000000000000000000000000000000000000000000000000000000600052603260045260246000fd5b6020026020010181815250508180610e4a906133a8565b9250505b8080610e59906133a8565b915050610d88565b829450505050505b919050565b6000600d54905090565b6000600660009054906101000a900473ffffffffffffffffffffffffffffffffffffffff16905090565b606060018054610eb190613345565b80601f0160208091040260200160405190810160405280929190818152602001828054610edd90613345565b8015610f2a5780601f10610eff57610100808354040283529160200191610f2a565b820191906000526020600020905b815481529060010190602001808311610f0d57829003601f168201915b5050505050905090565b600b54341015610f79576040517f08c379a0000000000000000000000000000000000000000000000000000000008152600401610f7090613084565b60405180910390fd5b600073ffffffffffffffffffffffffffffffffffffffff16600983604051610fa19190612cf0565b908152602001604051809103902060009054906101000a900473ffffffffffffffffffffffffffffffffffffffff1673ffffffffffffffffffffffffffffffffffffffff1614611026576040517f08c379a000000000000000000000000000000000000000000000000000000000815260040161101d90612fa4565b60405180910390fd5b600073ffffffffffffffffffffffffffffffffffffffff16600a8260405161104e9190612cf0565b908152602001604051809103902060009054906101000a900473ffffffffffffffffffffffffffffffffffffffff1673ffffffffffffffffffffffffffffffffffffffff16146110d3576040517f08c379a00000000000000000000000000000000000000000000000000000000081526004016110ca90612e44565b60405180910390fd5b6110db610e78565b73ffffffffffffffffffffffffffffffffffffffff166108fc349081150290604051600060405180830381858888f19350505050158015611120573d6000803e3d6000fd5b5061112d83600d54611c7a565b8060076000600d5481526020019081526020016000209080519060200190611156929190612420565b508260086000600d54815260200190815260200160002060006101000a81548173ffffffffffffffffffffffffffffffffffffffff021916908373ffffffffffffffffffffffffffffffffffffffff160217905550826009836040516111bc9190612cf0565b908152602001604051809103902060006101000a81548173ffffffffffffffffffffffffffffffffffffffff021916908373ffffffffffffffffffffffffffffffffffffffff16021790555082600a826040516112199190612cf0565b908152602001604051809103902060006101000a81548173ffffffffffffffffffffffffffffffffffffffff021916908373ffffffffffffffffffffffffffffffffffffffff160217905550600d6000815480929190611278906133a8565b91905055507f69e2cadceb55416f48e5a82e3641de7889495c2e02c86d37aaa313d121e8e7428284600d54846040516112b49493929190612df1565b60405180910390a1505050565b6112c96117ae565b73ffffffffffffffffffffffffffffffffffffffff166112e7610e78565b73ffffffffffffffffffffffffffffffffffffffff161461133d576040517f08c379a000000000000000000000000000000000000000000000000000000000815260040161133490613004565b60405180910390fd5b80600b8190555050565b6113596113526117ae565b8383611e54565b5050565b61136e6113686117ae565b8361186f565b6113ad576040517f08c379a00000000000000000000000000000000000000000000000000000000081526004016113a490613064565b60405180910390fd5b6113b984848484611fc1565b50505050565b6113ca83838361194d565b505050565b6000600c54905090565b60606113e482611742565b611423576040517f08c379a000000000000000000000000000000000000000000000000000000000815260040161141a90613044565b60405180910390fd5b600060076000848152602001908152602001600020805461144390613345565b80601f016020809104026020016040519081016040528092919081815260200182805461146f90613345565b80156114bc5780601f10611491576101008083540402835291602001916114bc565b820191906000526020600020905b81548152906001019060200180831161149f57829003601f168201915b5050505050905060006114cd61201d565b90506000815114156114e3578192505050611547565b600082511115611518578082604051602001611500929190612d07565b60405160208183030381529060405292505050611547565b80611522856120af565b604051602001611533929190612d07565b604051602081830303815290604052925050505b919050565b6000600560008473ffffffffffffffffffffffffffffffffffffffff1673ffffffffffffffffffffffffffffffffffffffff16815260200190815260200160002060008373ffffffffffffffffffffffffffffffffffffffff1673ffffffffffffffffffffffffffffffffffffffff16815260200190815260200160002060009054906101000a900460ff16905092915050565b6115e86117ae565b73ffffffffffffffffffffffffffffffffffffffff16611606610e78565b73ffffffffffffffffffffffffffffffffffffffff161461165c576040517f08c379a000000000000000000000000000000000000000000000000000000000815260040161165390613004565b60405180910390fd5b600073ffffffffffffffffffffffffffffffffffffffff168173ffffffffffffffffffffffffffffffffffffffff1614156116cc576040517f08c379a00000000000000000000000000000000000000000000000000000000081526004016116c390612e84565b60405180910390fd5b6116d581611bb4565b50565b60007f01ffc9a7000000000000000000000000000000000000000000000000000000007bffffffffffffffffffffffffffffffffffffffffffffffffffffffff1916827bffffffffffffffffffffffffffffffffffffffffffffffffffffffff1916149050919050565b60008073ffffffffffffffffffffffffffffffffffffffff166002600084815260200190815260200160002060009054906101000a900473ffffffffffffffffffffffffffffffffffffffff1673ffffffffffffffffffffffffffffffffffffffff1614159050919050565b600033905090565b816004600083815260200190815260200160002060006101000a81548173ffffffffffffffffffffffffffffffffffffffff021916908373ffffffffffffffffffffffffffffffffffffffff160217905550808273ffffffffffffffffffffffffffffffffffffffff1661182983610a8f565b73ffffffffffffffffffffffffffffffffffffffff167f8c5be1e5ebec7d5bd14f71427d1e84f3dd0314c0f7b2291e5b200ac8c7c3b92560405160405180910390a45050565b600061187a82611742565b6118b9576040517f08c379a00000000000000000000000000000000000000000000000000000000081526004016118b090612f24565b60405180910390fd5b60006118c483610a8f565b90508073ffffffffffffffffffffffffffffffffffffffff168473ffffffffffffffffffffffffffffffffffffffff16148061193357508373ffffffffffffffffffffffffffffffffffffffff1661191b8461074c565b73ffffffffffffffffffffffffffffffffffffffff16145b806119445750611943818561154c565b5b91505092915050565b8273ffffffffffffffffffffffffffffffffffffffff1661196d82610a8f565b73ffffffffffffffffffffffffffffffffffffffff16146119c3576040517f08c379a00000000000000000000000000000000000000000000000000000000081526004016119ba90612ea4565b60405180910390fd5b600073ffffffffffffffffffffffffffffffffffffffff168273ffffffffffffffffffffffffffffffffffffffff161415611a33576040517f08c379a0000000000000000000000000000000000000000000000000000000008152600401611a2a90612ee4565b60405180910390fd5b611a3e83838361225c565b611a496000826117b6565b6001600360008573ffffffffffffffffffffffffffffffffffffffff1673ffffffffffffffffffffffffffffffffffffffff1681526020019081526020016000206000828254611a999190613249565b925050819055506001600360008473ffffffffffffffffffffffffffffffffffffffff1673ffffffffffffffffffffffffffffffffffffffff1681526020019081526020016000206000828254611af091906131c2565b92505081905550816002600083815260200190815260200160002060006101000a81548173ffffffffffffffffffffffffffffffffffffffff021916908373ffffffffffffffffffffffffffffffffffffffff160217905550808273ffffffffffffffffffffffffffffffffffffffff168473ffffffffffffffffffffffffffffffffffffffff167fddf252ad1be2c89b69c2b068fc378daa952ba7f163c4a11628f55a4df523b3ef60405160405180910390a4611baf838383612261565b505050565b6000600660009054906101000a900473ffffffffffffffffffffffffffffffffffffffff16905081600660006101000a81548173ffffffffffffffffffffffffffffffffffffffff021916908373ffffffffffffffffffffffffffffffffffffffff1602179055508173ffffffffffffffffffffffffffffffffffffffff168173ffffffffffffffffffffffffffffffffffffffff167f8be0079c531659141344cd1fd0a4f28419497f9722a3daafe3b4186f6b6457e060405160405180910390a35050565b600073ffffffffffffffffffffffffffffffffffffffff168273ffffffffffffffffffffffffffffffffffffffff161415611cea576040517f08c379a0000000000000000000000000000000000000000000000000000000008152600401611ce190612fc4565b60405180910390fd5b611cf381611742565b15611d33576040517f08c379a0000000000000000000000000000000000000000000000000000000008152600401611d2a90612ec4565b60405180910390fd5b611d3f6000838361225c565b6001600360008473ffffffffffffffffffffffffffffffffffffffff1673ffffffffffffffffffffffffffffffffffffffff1681526020019081526020016000206000828254611d8f91906131c2565b92505081905550816002600083815260200190815260200160002060006101000a81548173ffffffffffffffffffffffffffffffffffffffff021916908373ffffffffffffffffffffffffffffffffffffffff160217905550808273ffffffffffffffffffffffffffffffffffffffff16600073ffffffffffffffffffffffffffffffffffffffff167fddf252ad1be2c89b69c2b068fc378daa952ba7f163c4a11628f55a4df523b3ef60405160405180910390a4611e5060008383612261565b5050565b8173ffffffffffffffffffffffffffffffffffffffff168373ffffffffffffffffffffffffffffffffffffffff161415611ec3576040517f08c379a0000000000000000000000000000000000000000000000000000000008152600401611eba90612f04565b60405180910390fd5b80600560008573ffffffffffffffffffffffffffffffffffffffff1673ffffffffffffffffffffffffffffffffffffffff16815260200190815260200160002060008473ffffffffffffffffffffffffffffffffffffffff1673ffffffffffffffffffffffffffffffffffffffff16815260200190815260200160002060006101000a81548160ff0219169083151502179055508173ffffffffffffffffffffffffffffffffffffffff168373ffffffffffffffffffffffffffffffffffffffff167f17307eab39ab6107e8899845ad3d59bd9653f200f220920489ca2b5937696c3183604051611fb49190612db4565b60405180910390a3505050565b611fcc84848461194d565b611fd884848484612266565b612017576040517f08c379a000000000000000000000000000000000000000000000000000000000815260040161200e90612e64565b60405180910390fd5b50505050565b6060600e805461202c90613345565b80601f016020809104026020016040519081016040528092919081815260200182805461205890613345565b80156120a55780601f1061207a576101008083540402835291602001916120a5565b820191906000526020600020905b81548152906001019060200180831161208857829003601f168201915b5050505050905090565b606060008214156120f7576040518060400160405280600181526020017f30000000000000000000000000000000000000000000000000000000000000008152509050612257565b600082905060005b60008214612129578080612112906133a8565b915050600a826121229190613218565b91506120ff565b60008167ffffffffffffffff81111561216b577f4e487b7100000000000000000000000000000000000000000000000000000000600052604160045260246000fd5b6040519080825280601f01601f19166020018201604052801561219d5781602001600182028036833780820191505090505b5090505b60008514612250576001826121b69190613249565b9150600a856121c591906133f1565b60306121d191906131c2565b60f81b81838151811061220d577f4e487b7100000000000000000000000000000000000000000000000000000000600052603260045260246000fd5b60200101907effffffffffffffffffffffffffffffffffffffffffffffffffffffffffffff1916908160001a905350600a856122499190613218565b94506121a1565b8093505050505b919050565b505050565b505050565b60006122878473ffffffffffffffffffffffffffffffffffffffff166123fd565b156123f0578373ffffffffffffffffffffffffffffffffffffffff1663150b7a026122b06117ae565b8786866040518563ffffffff1660e01b81526004016122d29493929190612d46565b602060405180830381600087803b1580156122ec57600080fd5b505af192505050801561231d57506040513d601f19601f8201168201806040525081019061231a9190612860565b60015b6123a0573d806000811461234d576040519150601f19603f3d011682016040523d82523d6000602084013e612352565b606091505b50600081511415612398576040517f08c379a000000000000000000000000000000000000000000000000000000000815260040161238f90612e64565b60405180910390fd5b805181602001fd5b63150b7a0260e01b7bffffffffffffffffffffffffffffffffffffffffffffffffffffffff1916817bffffffffffffffffffffffffffffffffffffffffffffffffffffffff1916149150506123f5565b600190505b949350505050565b6000808273ffffffffffffffffffffffffffffffffffffffff163b119050919050565b82805461242c90613345565b90600052602060002090601f01602090048101928261244e5760008555612495565b82601f1061246757805160ff1916838001178555612495565b82800160010185558215612495579182015b82811115612494578251825591602001919060010190612479565b5b5090506124a291906124a6565b5090565b5b808211156124bf5760008160009055506001016124a7565b5090565b60006124d66124d1846130e4565b6130bf565b9050828152602081018484840111156124ee57600080fd5b6124f9848285613303565b509392505050565b600061251461250f84613115565b6130bf565b90508281526020810184848401111561252c57600080fd5b612537848285613303565b509392505050565b60008135905061254e81613a0e565b92915050565b60008135905061256381613a25565b92915050565b60008135905061257881613a3c565b92915050565b60008135905061258d81613a53565b92915050565b6000815190506125a281613a53565b92915050565b600082601f8301126125b957600080fd5b81356125c98482602086016124c3565b91505092915050565b600082601f8301126125e357600080fd5b81356125f3848260208601612501565b91505092915050565b60008135905061260b81613a6a565b92915050565b60006020828403121561262357600080fd5b60006126318482850161253f565b91505092915050565b60008060006060848603121561264f57600080fd5b600061265d86828701612554565b935050602084013567ffffffffffffffff81111561267a57600080fd5b612686868287016125d2565b925050604084013567ffffffffffffffff8111156126a357600080fd5b6126af868287016125d2565b9150509250925092565b600080604083850312156126cc57600080fd5b60006126da8582860161253f565b92505060206126eb8582860161253f565b9150509250929050565b60008060006060848603121561270a57600080fd5b60006127188682870161253f565b93505060206127298682870161253f565b925050604061273a868287016125fc565b9150509250925092565b6000806000806080858703121561275a57600080fd5b60006127688782880161253f565b94505060206127798782880161253f565b935050604061278a878288016125fc565b925050606085013567ffffffffffffffff8111156127a757600080fd5b6127b3878288016125a8565b91505092959194509250565b600080604083850312156127d257600080fd5b60006127e08582860161253f565b92505060206127f185828601612569565b9150509250929050565b6000806040838503121561280e57600080fd5b600061281c8582860161253f565b925050602061282d858286016125fc565b9150509250929050565b60006020828403121561284957600080fd5b60006128578482850161257e565b91505092915050565b60006020828403121561287257600080fd5b600061288084828501612593565b91505092915050565b60006020828403121561289b57600080fd5b600082013567ffffffffffffffff8111156128b557600080fd5b6128c1848285016125d2565b91505092915050565b6000602082840312156128dc57600080fd5b60006128ea848285016125fc565b91505092915050565b60006128ff8383612cd2565b60208301905092915050565b6129148161328f565b82525050565b6129238161327d565b82525050565b600061293482613156565b61293e8185613184565b935061294983613146565b8060005b8381101561297a57815161296188826128f3565b975061296c83613177565b92505060018101905061294d565b5085935050505092915050565b612990816132a1565b82525050565b60006129a182613161565b6129ab8185613195565b93506129bb818560208601613312565b6129c4816134de565b840191505092915050565b60006129da8261316c565b6129e481856131a6565b93506129f4818560208601613312565b6129fd816134de565b840191505092915050565b6000612a138261316c565b612a1d81856131b7565b9350612a2d818560208601613312565b80840191505092915050565b6000612a46602d836131a6565b9150612a51826134ef565b604082019050919050565b6000612a696032836131a6565b9150612a748261353e565b604082019050919050565b6000612a8c6026836131a6565b9150612a978261358d565b604082019050919050565b6000612aaf6025836131a6565b9150612aba826135dc565b604082019050919050565b6000612ad2601c836131a6565b9150612add8261362b565b602082019050919050565b6000612af56024836131a6565b9150612b0082613654565b604082019050919050565b6000612b186019836131a6565b9150612b23826136a3565b602082019050919050565b6000612b3b602c836131a6565b9150612b46826136cc565b604082019050919050565b6000612b5e6038836131a6565b9150612b698261371b565b604082019050919050565b6000612b81602a836131a6565b9150612b8c8261376a565b604082019050919050565b6000612ba46029836131a6565b9150612baf826137b9565b604082019050919050565b6000612bc76032836131a6565b9150612bd282613808565b604082019050919050565b6000612bea6020836131a6565b9150612bf582613857565b602082019050919050565b6000612c0d602c836131a6565b9150612c1882613880565b604082019050919050565b6000612c306020836131a6565b9150612c3b826138cf565b602082019050919050565b6000612c536021836131a6565b9150612c5e826138f8565b604082019050919050565b6000612c766016836131a6565b9150612c8182613947565b602082019050919050565b6000612c996031836131a6565b9150612ca482613970565b604082019050919050565b6000612cbc602d836131a6565b9150612cc7826139bf565b604082019050919050565b612cdb816132f9565b82525050565b612cea816132f9565b82525050565b6000612cfc8284612a08565b915081905092915050565b6000612d138285612a08565b9150612d1f8284612a08565b91508190509392505050565b6000602082019050612d40600083018461291a565b92915050565b6000608082019050612d5b600083018761291a565b612d68602083018661291a565b612d756040830185612ce1565b8181036060830152612d878184612996565b905095945050505050565b60006020820190508181036000830152612dac8184612929565b905092915050565b6000602082019050612dc96000830184612987565b92915050565b60006020820190508181036000830152612de981846129cf565b905092915050565b60006080820190508181036000830152612e0b81876129cf565b9050612e1a602083018661290b565b612e276040830185612ce1565b8181036060830152612e3981846129cf565b905095945050505050565b60006020820190508181036000830152612e5d81612a39565b9050919050565b60006020820190508181036000830152612e7d81612a5c565b9050919050565b60006020820190508181036000830152612e9d81612a7f565b9050919050565b60006020820190508181036000830152612ebd81612aa2565b9050919050565b60006020820190508181036000830152612edd81612ac5565b9050919050565b60006020820190508181036000830152612efd81612ae8565b9050919050565b60006020820190508181036000830152612f1d81612b0b565b9050919050565b60006020820190508181036000830152612f3d81612b2e565b9050919050565b60006020820190508181036000830152612f5d81612b51565b9050919050565b60006020820190508181036000830152612f7d81612b74565b9050919050565b60006020820190508181036000830152612f9d81612b97565b9050919050565b60006020820190508181036000830152612fbd81612bba565b9050919050565b60006020820190508181036000830152612fdd81612bdd565b9050919050565b60006020820190508181036000830152612ffd81612c00565b9050919050565b6000602082019050818103600083015261301d81612c23565b9050919050565b6000602082019050818103600083015261303d81612c46565b9050919050565b6000602082019050818103600083015261305d81612c69565b9050919050565b6000602082019050818103600083015261307d81612c8c565b9050919050565b6000602082019050818103600083015261309d81612caf565b9050919050565b60006020820190506130b96000830184612ce1565b92915050565b60006130c96130da565b90506130d58282613377565b919050565b6000604051905090565b600067ffffffffffffffff8211156130ff576130fe6134af565b5b613108826134de565b9050602081019050919050565b600067ffffffffffffffff8211156131305761312f6134af565b5b613139826134de565b9050602081019050919050565b6000819050602082019050919050565b600081519050919050565b600081519050919050565b600081519050919050565b6000602082019050919050565b600082825260208201905092915050565b600082825260208201905092915050565b600082825260208201905092915050565b600081905092915050565b60006131cd826132f9565b91506131d8836132f9565b9250827fffffffffffffffffffffffffffffffffffffffffffffffffffffffffffffffff0382111561320d5761320c613422565b5b828201905092915050565b6000613223826132f9565b915061322e836132f9565b92508261323e5761323d613451565b5b828204905092915050565b6000613254826132f9565b915061325f836132f9565b92508282101561327257613271613422565b5b828203905092915050565b6000613288826132d9565b9050919050565b600061329a826132d9565b9050919050565b60008115159050919050565b60007fffffffff0000000000000000000000000000000000000000000000000000000082169050919050565b600073ffffffffffffffffffffffffffffffffffffffff82169050919050565b6000819050919050565b82818337600083830152505050565b60005b83811015613330578082015181840152602081019050613315565b8381111561333f576000848401525b50505050565b6000600282049050600182168061335d57607f821691505b6020821081141561337157613370613480565b5b50919050565b613380826134de565b810181811067ffffffffffffffff8211171561339f5761339e6134af565b5b80604052505050565b60006133b3826132f9565b91507fffffffffffffffffffffffffffffffffffffffffffffffffffffffffffffffff8214156133e6576133e5613422565b5b600182019050919050565b60006133fc826132f9565b9150613407836132f9565b92508261341757613416613451565b5b828206905092915050565b7f4e487b7100000000000000000000000000000000000000000000000000000000600052601160045260246000fd5b7f4e487b7100000000000000000000000000000000000000000000000000000000600052601260045260246000fd5b7f4e487b7100000000000000000000000000000000000000000000000000000000600052602260045260246000fd5b7f4e487b7100000000000000000000000000000000000000000000000000000000600052604160045260246000fd5b6000601f19601f8301169050919050565b7f4120746f6b656e2068617320616c7265616479206265656e206d696e7465642060008201527f7769746820746869732055524900000000000000000000000000000000000000602082015250565b7f4552433732313a207472616e7366657220746f206e6f6e20455243373231526560008201527f63656976657220696d706c656d656e7465720000000000000000000000000000602082015250565b7f4f776e61626c653a206e6577206f776e657220697320746865207a65726f206160008201527f6464726573730000000000000000000000000000000000000000000000000000602082015250565b7f4552433732313a207472616e736665722066726f6d20696e636f72726563742060008201527f6f776e6572000000000000000000000000000000000000000000000000000000602082015250565b7f4552433732313a20746f6b656e20616c7265616479206d696e74656400000000600082015250565b7f4552433732313a207472616e7366657220746f20746865207a65726f2061646460008201527f7265737300000000000000000000000000000000000000000000000000000000602082015250565b7f4552433732313a20617070726f766520746f2063616c6c657200000000000000600082015250565b7f4552433732313a206f70657261746f7220717565727920666f72206e6f6e657860008201527f697374656e7420746f6b656e0000000000000000000000000000000000000000602082015250565b7f4552433732313a20617070726f76652063616c6c6572206973206e6f74206f7760008201527f6e6572206e6f7220617070726f76656420666f7220616c6c0000000000000000602082015250565b7f4552433732313a2062616c616e636520717565727920666f7220746865207a6560008201527f726f206164647265737300000000000000000000000000000000000000000000602082015250565b7f4552433732313a206f776e657220717565727920666f72206e6f6e657869737460008201527f656e7420746f6b656e0000000000000000000000000000000000000000000000602082015250565b7f4120746f6b656e2068617320616c7265616479206265656e206d696e7465642060008201527f77697468207468697320736f6c7574696f6e0000000000000000000000000000602082015250565b7f4552433732313a206d696e7420746f20746865207a65726f2061646472657373600082015250565b7f4552433732313a20617070726f76656420717565727920666f72206e6f6e657860008201527f697374656e7420746f6b656e0000000000000000000000000000000000000000602082015250565b7f4f776e61626c653a2063616c6c6572206973206e6f7420746865206f776e6572600082015250565b7f4552433732313a20617070726f76616c20746f2063757272656e74206f776e6560008201527f7200000000000000000000000000000000000000000000000000000000000000602082015250565b7f546f6b656e496420646f6573206e6f7420657869737400000000000000000000600082015250565b7f4552433732313a207472616e736665722063616c6c6572206973206e6f74206f60008201527f776e6572206e6f7220617070726f766564000000000000000000000000000000602082015250565b7f496e73756666696369656e742065746865722073656e7420776974682074686960008201527f73207472616e73616374696f6e00000000000000000000000000000000000000602082015250565b613a178161327d565b8114613a2257600080fd5b50565b613a2e8161328f565b8114613a3957600080fd5b50565b613a45816132a1565b8114613a5057600080fd5b50565b613a5c816132ad565b8114613a6757600080fd5b50565b613a73816132f9565b8114613a7e57600080fd5b5056fea26469706673582212208abfeea9dcc09b1179fe97512e17cd35c25606dea5a633f3f38ae7bc6e79d7c864736f6c63430008010033",
  "immutableReferences": {},
  "source": "// SPDX-License-Identifier: MIT\r\npragma solidity >=0.4.22 <0.9.0;\r\nimport \"@openzeppelin/contracts/token/ERC721/ERC721.sol\";\r\nimport \"@openzeppelin/contracts/access/Ownable.sol\";\r\n\r\ncontract EthordleToken is ERC721, Ownable {\r\n    \r\nusing Strings for uint256;\r\n    \r\n    mapping (uint256 => string) private _tokenURIs;\r\n    mapping (uint256 => address) private _tokenAccounts;\r\n    mapping (string => address) private _solutionOwners;\r\n    mapping (string => address) private _tokenURIOwners;\r\n\r\n    uint256 private _initialPrice;\r\n    uint256 private _royaltyRate;\r\n    uint256 private _currentTokenId;\r\n    string private _baseURIextended;\r\n\r\n    event TokenMinted (\r\n        string solution,\r\n        address payable account,\r\n        uint256 tokenId,\r\n        string metadataURI\r\n    );\r\n\r\n    constructor(string memory _name, string memory _symbol, uint256 initialPrice_, uint256 royaltyRate_) ERC721(_name, _symbol) {\r\n        _currentTokenId = 0;\r\n        _initialPrice = initialPrice_;\r\n        _royaltyRate = royaltyRate_;\r\n    }\r\n    \r\n    function setInitialPrice(uint256 initialPrice_) external onlyOwner() {\r\n        _initialPrice = initialPrice_;\r\n    }\r\n\r\n    function initialPrice() external view returns (uint256) {\r\n        return _initialPrice;\r\n    }\r\n\r\n    function setRoyaltyRate(uint256 royaltyRate_) external onlyOwner() {\r\n        _royaltyRate = royaltyRate_;   \r\n    }\r\n\r\n    function royaltyRate() external view returns (uint256) {\r\n        return _royaltyRate;\r\n    }\r\n\r\n    function getMintedTokenCount() external view returns (uint256) {\r\n        return _currentTokenId;\r\n    }\r\n\r\n    function getMintedTokensOfOwner(address _from) external view returns(uint256[] memory ownerTokenIds) {\r\n        uint256 tokenCount = balanceOf(_from);\r\n\r\n        if (tokenCount == 0) {\r\n            return new uint256[](0);\r\n        } else {\r\n            uint256[] memory result = new uint256[](tokenCount);\r\n            uint256 resultIndex = 0;\r\n            uint256 tokenId;\r\n\r\n            for (tokenId = 0; tokenId < _currentTokenId; tokenId++) {\r\n                if (_tokenAccounts[tokenId] == _from) {\r\n                    result[resultIndex] = tokenId;\r\n                    resultIndex++;\r\n                }\r\n            }\r\n\r\n            return result;\r\n        }\r\n    }\r\n    \r\n    function setBaseURI(string memory baseURI) external onlyOwner() {\r\n        _baseURIextended = baseURI;\r\n    }\r\n    \r\n    function _baseURI() internal view virtual override returns (string memory) {\r\n        return _baseURIextended;\r\n    }\r\n    \r\n    function tokenURI(uint256 tokenId) public view virtual override returns (string memory) {\r\n        require(_exists(tokenId), \"TokenId does not exist\");\r\n\r\n        string memory _tokenURI = _tokenURIs[tokenId];\r\n        string memory base = _baseURI();\r\n        \r\n        if (bytes(base).length == 0) {\r\n            return _tokenURI;\r\n        }\r\n        \r\n        if (bytes(_tokenURI).length > 0) {\r\n            return string(abi.encodePacked(base, _tokenURI));\r\n        }\r\n        \r\n        return string(abi.encodePacked(base, tokenId.toString()));\r\n    }\r\n    \r\n    function mint(\r\n        address payable to,\r\n        string memory solution,\r\n        string memory tokenURI_\r\n    ) external payable {        \r\n        require(msg.value >= _initialPrice, 'Insufficient ether sent with this transaction'); \r\n        require(_solutionOwners[solution] == address(0x0), 'A token has already been minted with this solution');\r\n        require(_tokenURIOwners[tokenURI_] == address(0x0), 'A token has already been minted with this URI');\r\n        \r\n        payable(owner()).transfer(msg.value);\r\n\r\n        _mint(to, _currentTokenId);\r\n\r\n        _tokenURIs[_currentTokenId] = tokenURI_;\r\n        _tokenAccounts[_currentTokenId] = to;\r\n        _solutionOwners[solution] = to;\r\n        _tokenURIOwners[tokenURI_] = to;\r\n        _currentTokenId++;        \r\n        \r\n        emit TokenMinted(solution, to, _currentTokenId, tokenURI_);\r\n    }\r\n\r\n    function transfer(\r\n        address from, \r\n        address to, \r\n        uint256 tokenId\r\n    ) external payable  {\r\n        /*\r\n        require(msg.value > 0, 'Invalid payment');\r\n        require(from != address(0x0), 'Invalid from address');\r\n        require(from == _msgSender(), 'From address is not msgSender');\r\n        require(to != address(0x0), 'Invalid to address');\r\n        require(_exists(tokenId), \"TokenId does not exist\");   \r\n        require(_isApprovedOrOwner(_msgSender(), tokenId), 'msgSender is not the owner of the token');\r\n        */\r\n        //payRoyalty(msg.value);\r\n        \r\n        _transfer(from, to, tokenId);\r\n    }\r\n    \r\n    function payRoyalty(\r\n        uint256 value\r\n    ) private {\r\n        uint256 totalRoyalty = _royaltyRate * value;  // todo need safe multiply\r\n        payable(owner()).transfer(totalRoyalty);\r\n    }\r\n}\r\n",
  "sourcePath": "C:\\Dev\\Github\\ethordle\\contracts\\EthordleToken.sol",
  "compiler": {
    "name": "solc",
    "version": "0.8.1+commit.df193b15.Emscripten.clang"
  },
  "schemaVersion": "3.4.6",
  "updatedAt": "2022-04-13T17:24:46.208Z",
  "networkType": "ethereum",
  "devdoc": {
    "kind": "dev",
    "methods": {
      "approve(address,uint256)": {
        "details": "See {IERC721-approve}."
      },
      "balanceOf(address)": {
        "details": "See {IERC721-balanceOf}."
      },
      "getApproved(uint256)": {
        "details": "See {IERC721-getApproved}."
      },
      "isApprovedForAll(address,address)": {
        "details": "See {IERC721-isApprovedForAll}."
      },
      "name()": {
        "details": "See {IERC721Metadata-name}."
      },
      "owner()": {
        "details": "Returns the address of the current owner."
      },
      "ownerOf(uint256)": {
        "details": "See {IERC721-ownerOf}."
      },
      "renounceOwnership()": {
        "details": "Leaves the contract without owner. It will not be possible to call `onlyOwner` functions anymore. Can only be called by the current owner. NOTE: Renouncing ownership will leave the contract without an owner, thereby removing any functionality that is only available to the owner."
      },
      "safeTransferFrom(address,address,uint256)": {
        "details": "See {IERC721-safeTransferFrom}."
      },
      "safeTransferFrom(address,address,uint256,bytes)": {
        "details": "See {IERC721-safeTransferFrom}."
      },
      "setApprovalForAll(address,bool)": {
        "details": "See {IERC721-setApprovalForAll}."
      },
      "supportsInterface(bytes4)": {
        "details": "See {IERC165-supportsInterface}."
      },
      "symbol()": {
        "details": "See {IERC721Metadata-symbol}."
      },
      "tokenURI(uint256)": {
        "details": "See {IERC721Metadata-tokenURI}."
      },
      "transferFrom(address,address,uint256)": {
        "details": "See {IERC721-transferFrom}."
      },
      "transferOwnership(address)": {
        "details": "Transfers ownership of the contract to a new account (`newOwner`). Can only be called by the current owner."
      }
    },
    "version": 1
  },
  "userdoc": {
    "kind": "user",
    "methods": {},
    "version": 1
  }
}