{
  "contractName": "EthordleToken",
  "abi": [
    {
      "inputs": [
        {
          "internalType": "string",
          "name": "_name",
          "type": "string"
        },
        {
          "internalType": "string",
          "name": "_symbol",
          "type": "string"
        },
        {
          "internalType": "uint256",
          "name": "initialPrice_",
          "type": "uint256"
        },
        {
          "internalType": "uint256",
          "name": "royaltyRate_",
          "type": "uint256"
        },
        {
          "internalType": "uint256",
          "name": "priceEscalationRate_",
          "type": "uint256"
        }
      ],
      "stateMutability": "nonpayable",
      "type": "constructor"
    },
    {
      "anonymous": false,
      "inputs": [
        {
          "indexed": true,
          "internalType": "address",
          "name": "owner",
          "type": "address"
        },
        {
          "indexed": true,
          "internalType": "address",
          "name": "approved",
          "type": "address"
        },
        {
          "indexed": true,
          "internalType": "uint256",
          "name": "tokenId",
          "type": "uint256"
        }
      ],
      "name": "Approval",
      "type": "event"
    },
    {
      "anonymous": false,
      "inputs": [
        {
          "indexed": true,
          "internalType": "address",
          "name": "owner",
          "type": "address"
        },
        {
          "indexed": true,
          "internalType": "address",
          "name": "operator",
          "type": "address"
        },
        {
          "indexed": false,
          "internalType": "bool",
          "name": "approved",
          "type": "bool"
        }
      ],
      "name": "ApprovalForAll",
      "type": "event"
    },
    {
      "anonymous": false,
      "inputs": [
        {
          "indexed": true,
          "internalType": "address",
          "name": "previousOwner",
          "type": "address"
        },
        {
          "indexed": true,
          "internalType": "address",
          "name": "newOwner",
          "type": "address"
        }
      ],
      "name": "OwnershipTransferred",
      "type": "event"
    },
    {
      "anonymous": false,
      "inputs": [
        {
          "indexed": false,
          "internalType": "string",
          "name": "solution",
          "type": "string"
        },
        {
          "indexed": false,
          "internalType": "address",
          "name": "account",
          "type": "address"
        },
        {
          "indexed": false,
          "internalType": "uint256",
          "name": "tokenId",
          "type": "uint256"
        },
        {
          "indexed": false,
          "internalType": "string",
          "name": "metadataURI",
          "type": "string"
        },
        {
          "indexed": false,
          "internalType": "uint256",
          "name": "price",
          "type": "uint256"
        }
      ],
      "name": "TokenSaleAllowed",
      "type": "event"
    },
    {
      "anonymous": false,
      "inputs": [
        {
          "indexed": false,
          "internalType": "string",
          "name": "solution",
          "type": "string"
        },
        {
          "indexed": false,
          "internalType": "address",
          "name": "account",
          "type": "address"
        },
        {
          "indexed": false,
          "internalType": "uint256",
          "name": "tokenId",
          "type": "uint256"
        },
        {
          "indexed": false,
          "internalType": "string",
          "name": "metadataURI",
          "type": "string"
        }
      ],
      "name": "TokenSalePrevented",
      "type": "event"
    },
    {
      "anonymous": false,
      "inputs": [
        {
          "indexed": true,
          "internalType": "address",
          "name": "from",
          "type": "address"
        },
        {
          "indexed": true,
          "internalType": "address",
          "name": "to",
          "type": "address"
        },
        {
          "indexed": true,
          "internalType": "uint256",
          "name": "tokenId",
          "type": "uint256"
        }
      ],
      "name": "Transfer",
      "type": "event"
    },
    {
      "inputs": [
        {
          "internalType": "uint256",
          "name": "",
          "type": "uint256"
        }
      ],
      "name": "_tokens",
      "outputs": [
        {
          "internalType": "uint256",
          "name": "id",
          "type": "uint256"
        },
        {
          "internalType": "address",
          "name": "owner",
          "type": "address"
        },
        {
          "internalType": "uint256",
          "name": "price",
          "type": "uint256"
        },
        {
          "internalType": "uint256",
          "name": "lastPrice",
          "type": "uint256"
        },
        {
          "internalType": "string",
          "name": "url",
          "type": "string"
        },
        {
          "internalType": "string",
          "name": "solution",
          "type": "string"
        },
        {
          "internalType": "bool",
          "name": "isForSale",
          "type": "bool"
        },
        {
          "internalType": "uint256",
          "name": "lastTransactionTimestamp",
          "type": "uint256"
        },
        {
          "internalType": "uint256",
          "name": "transactionCount",
          "type": "uint256"
        }
      ],
      "stateMutability": "view",
      "type": "function",
      "constant": true
    },
    {
      "inputs": [
        {
          "internalType": "address",
          "name": "to",
          "type": "address"
        },
        {
          "internalType": "uint256",
          "name": "tokenId",
          "type": "uint256"
        }
      ],
      "name": "approve",
      "outputs": [],
      "stateMutability": "nonpayable",
      "type": "function"
    },
    {
      "inputs": [
        {
          "internalType": "address",
          "name": "owner",
          "type": "address"
        }
      ],
      "name": "balanceOf",
      "outputs": [
        {
          "internalType": "uint256",
          "name": "",
          "type": "uint256"
        }
      ],
      "stateMutability": "view",
      "type": "function",
      "constant": true
    },
    {
      "inputs": [
        {
          "internalType": "uint256",
          "name": "tokenId",
          "type": "uint256"
        }
      ],
      "name": "getApproved",
      "outputs": [
        {
          "internalType": "address",
          "name": "",
          "type": "address"
        }
      ],
      "stateMutability": "view",
      "type": "function",
      "constant": true
    },
    {
      "inputs": [
        {
          "internalType": "address",
          "name": "owner",
          "type": "address"
        },
        {
          "internalType": "address",
          "name": "operator",
          "type": "address"
        }
      ],
      "name": "isApprovedForAll",
      "outputs": [
        {
          "internalType": "bool",
          "name": "",
          "type": "bool"
        }
      ],
      "stateMutability": "view",
      "type": "function",
      "constant": true
    },
    {
      "inputs": [],
      "name": "name",
      "outputs": [
        {
          "internalType": "string",
          "name": "",
          "type": "string"
        }
      ],
      "stateMutability": "view",
      "type": "function",
      "constant": true
    },
    {
      "inputs": [],
      "name": "owner",
      "outputs": [
        {
          "internalType": "address",
          "name": "",
          "type": "address"
        }
      ],
      "stateMutability": "view",
      "type": "function",
      "constant": true
    },
    {
      "inputs": [
        {
          "internalType": "uint256",
          "name": "tokenId",
          "type": "uint256"
        }
      ],
      "name": "ownerOf",
      "outputs": [
        {
          "internalType": "address",
          "name": "",
          "type": "address"
        }
      ],
      "stateMutability": "view",
      "type": "function",
      "constant": true
    },
    {
      "inputs": [],
      "name": "renounceOwnership",
      "outputs": [],
      "stateMutability": "nonpayable",
      "type": "function"
    },
    {
      "inputs": [
        {
          "internalType": "address",
          "name": "operator",
          "type": "address"
        },
        {
          "internalType": "bool",
          "name": "approved",
          "type": "bool"
        }
      ],
      "name": "setApprovalForAll",
      "outputs": [],
      "stateMutability": "nonpayable",
      "type": "function"
    },
    {
      "inputs": [
        {
          "internalType": "bytes4",
          "name": "interfaceId",
          "type": "bytes4"
        }
      ],
      "name": "supportsInterface",
      "outputs": [
        {
          "internalType": "bool",
          "name": "",
          "type": "bool"
        }
      ],
      "stateMutability": "view",
      "type": "function",
      "constant": true
    },
    {
      "inputs": [],
      "name": "symbol",
      "outputs": [
        {
          "internalType": "string",
          "name": "",
          "type": "string"
        }
      ],
      "stateMutability": "view",
      "type": "function",
      "constant": true
    },
    {
      "inputs": [
        {
          "internalType": "address",
          "name": "newOwner",
          "type": "address"
        }
      ],
      "name": "transferOwnership",
      "outputs": [],
      "stateMutability": "nonpayable",
      "type": "function"
    },
    {
      "inputs": [
        {
          "internalType": "uint256",
          "name": "initialPrice_",
          "type": "uint256"
        }
      ],
      "name": "setInitialPrice",
      "outputs": [],
      "stateMutability": "nonpayable",
      "type": "function"
    },
    {
      "inputs": [],
      "name": "initialPrice",
      "outputs": [
        {
          "internalType": "uint256",
          "name": "",
          "type": "uint256"
        }
      ],
      "stateMutability": "view",
      "type": "function",
      "constant": true
    },
    {
      "inputs": [
        {
          "internalType": "uint256",
          "name": "royaltyRate_",
          "type": "uint256"
        }
      ],
      "name": "setRoyaltyRate",
      "outputs": [],
      "stateMutability": "nonpayable",
      "type": "function"
    },
    {
      "inputs": [],
      "name": "royaltyRate",
      "outputs": [
        {
          "internalType": "uint256",
          "name": "",
          "type": "uint256"
        }
      ],
      "stateMutability": "view",
      "type": "function",
      "constant": true
    },
    {
      "inputs": [
        {
          "internalType": "uint256",
          "name": "priceEscalationRate_",
          "type": "uint256"
        }
      ],
      "name": "setPriceEscalationRate",
      "outputs": [],
      "stateMutability": "nonpayable",
      "type": "function"
    },
    {
      "inputs": [],
      "name": "priceEscalationRate",
      "outputs": [
        {
          "internalType": "uint256",
          "name": "",
          "type": "uint256"
        }
      ],
      "stateMutability": "view",
      "type": "function",
      "constant": true
    },
    {
      "inputs": [],
      "name": "tokenCount",
      "outputs": [
        {
          "internalType": "uint256",
          "name": "",
          "type": "uint256"
        }
      ],
      "stateMutability": "view",
      "type": "function",
      "constant": true
    },
    {
      "inputs": [
        {
          "internalType": "uint256",
          "name": "tokenId",
          "type": "uint256"
        }
      ],
      "name": "tokenById",
      "outputs": [
        {
          "components": [
            {
              "internalType": "uint256",
              "name": "id",
              "type": "uint256"
            },
            {
              "internalType": "address",
              "name": "owner",
              "type": "address"
            },
            {
              "internalType": "uint256",
              "name": "price",
              "type": "uint256"
            },
            {
              "internalType": "uint256",
              "name": "lastPrice",
              "type": "uint256"
            },
            {
              "internalType": "string",
              "name": "url",
              "type": "string"
            },
            {
              "internalType": "string",
              "name": "solution",
              "type": "string"
            },
            {
              "internalType": "bool",
              "name": "isForSale",
              "type": "bool"
            },
            {
              "internalType": "uint256",
              "name": "lastTransactionTimestamp",
              "type": "uint256"
            },
            {
              "internalType": "uint256",
              "name": "transactionCount",
              "type": "uint256"
            }
          ],
          "internalType": "struct EthordleToken.Token",
          "name": "",
          "type": "tuple"
        }
      ],
      "stateMutability": "view",
      "type": "function",
      "constant": true
    },
    {
      "inputs": [
        {
          "internalType": "address",
          "name": "_from",
          "type": "address"
        }
      ],
      "name": "tokensOfOwner",
      "outputs": [
        {
          "components": [
            {
              "internalType": "uint256",
              "name": "id",
              "type": "uint256"
            },
            {
              "internalType": "address",
              "name": "owner",
              "type": "address"
            },
            {
              "internalType": "uint256",
              "name": "price",
              "type": "uint256"
            },
            {
              "internalType": "uint256",
              "name": "lastPrice",
              "type": "uint256"
            },
            {
              "internalType": "string",
              "name": "url",
              "type": "string"
            },
            {
              "internalType": "string",
              "name": "solution",
              "type": "string"
            },
            {
              "internalType": "bool",
              "name": "isForSale",
              "type": "bool"
            },
            {
              "internalType": "uint256",
              "name": "lastTransactionTimestamp",
              "type": "uint256"
            },
            {
              "internalType": "uint256",
              "name": "transactionCount",
              "type": "uint256"
            }
          ],
          "internalType": "struct EthordleToken.Token[]",
          "name": "",
          "type": "tuple[]"
        }
      ],
      "stateMutability": "view",
      "type": "function",
      "constant": true
    },
    {
      "inputs": [],
      "name": "tokens",
      "outputs": [
        {
          "components": [
            {
              "internalType": "uint256",
              "name": "id",
              "type": "uint256"
            },
            {
              "internalType": "address",
              "name": "owner",
              "type": "address"
            },
            {
              "internalType": "uint256",
              "name": "price",
              "type": "uint256"
            },
            {
              "internalType": "uint256",
              "name": "lastPrice",
              "type": "uint256"
            },
            {
              "internalType": "string",
              "name": "url",
              "type": "string"
            },
            {
              "internalType": "string",
              "name": "solution",
              "type": "string"
            },
            {
              "internalType": "bool",
              "name": "isForSale",
              "type": "bool"
            },
            {
              "internalType": "uint256",
              "name": "lastTransactionTimestamp",
              "type": "uint256"
            },
            {
              "internalType": "uint256",
              "name": "transactionCount",
              "type": "uint256"
            }
          ],
          "internalType": "struct EthordleToken.Token[]",
          "name": "",
          "type": "tuple[]"
        }
      ],
      "stateMutability": "view",
      "type": "function",
      "constant": true
    },
    {
      "inputs": [
        {
          "internalType": "string",
          "name": "baseURI",
          "type": "string"
        }
      ],
      "name": "setBaseURI",
      "outputs": [],
      "stateMutability": "nonpayable",
      "type": "function"
    },
    {
      "inputs": [
        {
          "internalType": "string",
          "name": "solution_",
          "type": "string"
        }
      ],
      "name": "isSolutionUnique",
      "outputs": [
        {
          "internalType": "bool",
          "name": "",
          "type": "bool"
        }
      ],
      "stateMutability": "view",
      "type": "function",
      "constant": true
    },
    {
      "inputs": [
        {
          "internalType": "uint256",
          "name": "tokenId",
          "type": "uint256"
        }
      ],
      "name": "tokenURI",
      "outputs": [
        {
          "internalType": "string",
          "name": "",
          "type": "string"
        }
      ],
      "stateMutability": "view",
      "type": "function",
      "constant": true
    },
    {
      "inputs": [
        {
          "internalType": "address payable",
          "name": "to",
          "type": "address"
        },
        {
          "internalType": "string",
          "name": "solution_",
          "type": "string"
        },
        {
          "internalType": "string",
          "name": "tokenURI_",
          "type": "string"
        }
      ],
      "name": "mint",
      "outputs": [],
      "stateMutability": "payable",
      "type": "function",
      "payable": true
    },
    {
      "inputs": [
        {
          "internalType": "uint256",
          "name": "tokenId",
          "type": "uint256"
        },
        {
          "internalType": "address",
          "name": "from",
          "type": "address"
        },
        {
          "internalType": "uint256",
          "name": "price",
          "type": "uint256"
        }
      ],
      "name": "allowSale",
      "outputs": [],
      "stateMutability": "nonpayable",
      "type": "function"
    },
    {
      "inputs": [
        {
          "internalType": "uint256",
          "name": "tokenId",
          "type": "uint256"
        },
        {
          "internalType": "address",
          "name": "from",
          "type": "address"
        }
      ],
      "name": "preventSale",
      "outputs": [],
      "stateMutability": "nonpayable",
      "type": "function"
    },
    {
      "inputs": [
        {
          "internalType": "uint256",
          "name": "tokenId",
          "type": "uint256"
        },
        {
          "internalType": "address",
          "name": "to",
          "type": "address"
        }
      ],
      "name": "buy",
      "outputs": [],
      "stateMutability": "payable",
      "type": "function",
      "payable": true
    },
    {
      "inputs": [
        {
          "internalType": "uint256",
          "name": "tokenId",
          "type": "uint256"
        },
        {
          "internalType": "address",
          "name": "to",
          "type": "address"
        }
      ],
      "name": "transfer",
      "outputs": [],
      "stateMutability": "payable",
      "type": "function",
      "payable": true
    },
    {
      "inputs": [
        {
          "internalType": "address",
          "name": "",
          "type": "address"
        },
        {
          "internalType": "address",
          "name": "",
          "type": "address"
        },
        {
          "internalType": "uint256",
          "name": "",
          "type": "uint256"
        }
      ],
      "name": "transferFrom",
      "outputs": [],
      "stateMutability": "view",
      "type": "function",
      "constant": true
    },
    {
      "inputs": [
        {
          "internalType": "address",
          "name": "",
          "type": "address"
        },
        {
          "internalType": "address",
          "name": "",
          "type": "address"
        },
        {
          "internalType": "uint256",
          "name": "",
          "type": "uint256"
        }
      ],
      "name": "safeTransferFrom",
      "outputs": [],
      "stateMutability": "view",
      "type": "function",
      "constant": true
    },
    {
      "inputs": [
        {
          "internalType": "address",
          "name": "",
          "type": "address"
        },
        {
          "internalType": "address",
          "name": "",
          "type": "address"
        },
        {
          "internalType": "uint256",
          "name": "",
          "type": "uint256"
        },
        {
          "internalType": "bytes",
          "name": "",
          "type": "bytes"
        }
      ],
      "name": "safeTransferFrom",
      "outputs": [],
      "stateMutability": "view",
      "type": "function",
      "constant": true
    }
  ],
  "bytecode": "0x608060405266038d7ea4c680006010553480156200001c57600080fd5b5060405162005f4138038062005f41833981810160405281019062000042919062000308565b848481600090805190602001906200005c929190620001cf565b50806001908051906020019062000075929190620001cf565b505050620000986200008c6200010160201b60201c565b6200010960201b60201c565b33600a60006101000a81548173ffffffffffffffffffffffffffffffffffffffff021916908373ffffffffffffffffffffffffffffffffffffffff1602179055506000600e8190555082600b8190555081600c8190555080600d81905550505050505062000550565b600033905090565b6000600660009054906101000a900473ffffffffffffffffffffffffffffffffffffffff16905081600660006101000a81548173ffffffffffffffffffffffffffffffffffffffff021916908373ffffffffffffffffffffffffffffffffffffffff1602179055508173ffffffffffffffffffffffffffffffffffffffff168173ffffffffffffffffffffffffffffffffffffffff167f8be0079c531659141344cd1fd0a4f28419497f9722a3daafe3b4186f6b6457e060405160405180910390a35050565b828054620001dd906200045b565b90600052602060002090601f0160209004810192826200020157600085556200024d565b82601f106200021c57805160ff19168380011785556200024d565b828001600101855582156200024d579182015b828111156200024c5782518255916020019190600101906200022f565b5b5090506200025c919062000260565b5090565b5b808211156200027b57600081600090555060010162000261565b5090565b6000620002966200029084620003e5565b620003bc565b905082815260208101848484011115620002af57600080fd5b620002bc84828562000425565b509392505050565b600082601f830112620002d657600080fd5b8151620002e88482602086016200027f565b91505092915050565b600081519050620003028162000536565b92915050565b600080600080600060a086880312156200032157600080fd5b600086015167ffffffffffffffff8111156200033c57600080fd5b6200034a88828901620002c4565b955050602086015167ffffffffffffffff8111156200036857600080fd5b6200037688828901620002c4565b94505060406200038988828901620002f1565b93505060606200039c88828901620002f1565b9250506080620003af88828901620002f1565b9150509295509295909350565b6000620003c8620003db565b9050620003d6828262000491565b919050565b6000604051905090565b600067ffffffffffffffff821115620004035762000402620004f6565b5b6200040e8262000525565b9050602081019050919050565b6000819050919050565b60005b838110156200044557808201518184015260208101905062000428565b8381111562000455576000848401525b50505050565b600060028204905060018216806200047457607f821691505b602082108114156200048b576200048a620004c7565b5b50919050565b6200049c8262000525565b810181811067ffffffffffffffff82111715620004be57620004bd620004f6565b5b80604052505050565b7f4e487b7100000000000000000000000000000000000000000000000000000000600052602260045260246000fd5b7f4e487b7100000000000000000000000000000000000000000000000000000000600052604160045260246000fd5b6000601f19601f8301169050919050565b62000541816200041b565b81146200054d57600080fd5b50565b6159e180620005606000396000f3fe6080604052600436106101f95760003560e01c80638da5cb5b1161010d578063a5a02584116100a0578063c4d1510d1161006f578063c4d1510d14610704578063c87b56dd1461072f578063e985e9c51461076c578063ed70554d146107a9578063f2fde38b146107ee576101f9565b8063a5a0258414610659578063a79961cf14610696578063b7760c8f146106bf578063b88d4fde146106db576101f9565b80639f181b5e116100dc5780639f181b5e146105b35780639f4ba0ee146105de578063a129ece914610607578063a22cb46514610630576101f9565b80638da5cb5b1461051657806395d89b4114610541578063990711901461056c5780639d63848a14610588576101f9565b8063537782a21161019057806370a082311161015f57806370a082311461043e578063715018a61461047b578063755381f7146104925780637deb6025146104bd5780638462151c146104d9576101f9565b8063537782a21461037257806355f804b31461039b5780636352211e146103c45780636b6af2d514610401576101f9565b8063095ea7b3116101cc578063095ea7b3146102cc5780631d0806ae146102f557806323b872dd1461032057806342842e0e14610349576101f9565b806301ffc9a7146101fe57806304f91a121461023b57806306fdde0314610264578063081812fc1461028f575b600080fd5b34801561020a57600080fd5b50610225600480360381019061022091906140c7565b610817565b6040516102329190614908565b60405180910390f35b34801561024757600080fd5b50610262600480360381019061025d9190614196565b6108f9565b005b34801561027057600080fd5b50610279610c35565b6040516102869190614923565b60405180910390f35b34801561029b57600080fd5b506102b660048036038101906102b19190614131565b610cc7565b6040516102c391906148cb565b60405180910390f35b3480156102d857600080fd5b506102f360048036038101906102ee919061404a565b610d4c565b005b34801561030157600080fd5b5061030a610e64565b6040516103179190614d7b565b60405180910390f35b34801561032c57600080fd5b5061034760048036038101906103429190613f44565b610e6e565b005b34801561035557600080fd5b50610370600480360381019061036b9190613f44565b610eef565b005b34801561037e57600080fd5b5061039960048036038101906103949190614131565b610f70565b005b3480156103a757600080fd5b506103c260048036038101906103bd91906140f0565b610ff6565b005b3480156103d057600080fd5b506103eb60048036038101906103e69190614131565b61108c565b6040516103f891906148cb565b60405180910390f35b34801561040d57600080fd5b5061042860048036038101906104239190614131565b61113e565b6040516104359190614d59565b60405180910390f35b34801561044a57600080fd5b5061046560048036038101906104609190613e60565b61115c565b6040516104729190614d7b565b60405180910390f35b34801561048757600080fd5b50610490611214565b005b34801561049e57600080fd5b506104a761129c565b6040516104b49190614d7b565b60405180910390f35b6104d760048036038101906104d2919061415a565b6112a6565b005b3480156104e557600080fd5b5061050060048036038101906104fb9190613e60565b6116c6565b60405161050d91906148e6565b60405180910390f35b34801561052257600080fd5b5061052b61191e565b60405161053891906148cb565b60405180910390f35b34801561054d57600080fd5b50610556611948565b6040516105639190614923565b60405180910390f35b61058660048036038101906105819190613e89565b6119da565b005b34801561059457600080fd5b5061059d611f58565b6040516105aa91906148e6565b60405180910390f35b3480156105bf57600080fd5b506105c861222c565b6040516105d59190614d7b565b60405180910390f35b3480156105ea57600080fd5b5061060560048036038101906106009190614131565b612236565b005b34801561061357600080fd5b5061062e60048036038101906106299190614131565b6122bc565b005b34801561063c57600080fd5b506106576004803603810190610652919061400e565b612342565b005b34801561066557600080fd5b50610680600480360381019061067b91906140f0565b612358565b60405161068d9190614908565b60405180910390f35b3480156106a257600080fd5b506106bd60048036038101906106b8919061415a565b6123ce565b005b6106d960048036038101906106d4919061415a565b61268d565b005b3480156106e757600080fd5b5061070260048036038101906106fd9190613f93565b6129c0565b005b34801561071057600080fd5b50610719612a42565b6040516107269190614d7b565b60405180910390f35b34801561073b57600080fd5b5061075660048036038101906107519190614131565b612a4c565b6040516107639190614923565b60405180910390f35b34801561077857600080fd5b50610793600480360381019061078e9190613f08565b612a68565b6040516107a09190614908565b60405180910390f35b3480156107b557600080fd5b506107d060048036038101906107cb9190614131565b612afc565b6040516107e599989796959493929190614d96565b60405180910390f35b3480156107fa57600080fd5b5061081560048036038101906108109190613e60565b612c87565b005b60007f80ac58cd000000000000000000000000000000000000000000000000000000007bffffffffffffffffffffffffffffffffffffffffffffffffffffffff1916827bffffffffffffffffffffffffffffffffffffffffffffffffffffffff191614806108e257507f5b5e139f000000000000000000000000000000000000000000000000000000007bffffffffffffffffffffffffffffffffffffffffffffffffffffffff1916827bffffffffffffffffffffffffffffffffffffffffffffffffffffffff1916145b806108f257506108f182612d7f565b5b9050919050565b600061090484612de9565b90508273ffffffffffffffffffffffffffffffffffffffff166109256130a0565b73ffffffffffffffffffffffffffffffffffffffff16148061099b5750600a60009054906101000a900473ffffffffffffffffffffffffffffffffffffffff1673ffffffffffffffffffffffffffffffffffffffff166109836130a0565b73ffffffffffffffffffffffffffffffffffffffff16145b6109da576040517f08c379a00000000000000000000000000000000000000000000000000000000081526004016109d190614af9565b60405180910390fd5b6109eb6109e56130a0565b856130a8565b610a2a576040517f08c379a0000000000000000000000000000000000000000000000000000000008152600401610a2190614af9565b60405180910390fd5b8060c0015115610a6f576040517f08c379a0000000000000000000000000000000000000000000000000000000008152600401610a6690614ab9565b60405180910390fd5b8060400151821015610ab6576040517f08c379a0000000000000000000000000000000000000000000000000000000008152600401610aad90614c99565b60405180910390fd5b610adf601054610ad16010548561318690919063ffffffff16565b61319c90919063ffffffff16565b81604001818152505060018160c001901515908115158152505080600760008681526020019081526020016000206000820151816000015560208201518160010160006101000a81548173ffffffffffffffffffffffffffffffffffffffff021916908373ffffffffffffffffffffffffffffffffffffffff16021790555060408201518160020155606082015181600301556080820151816004019080519060200190610b8e9291906139e6565b5060a0820151816005019080519060200190610bab9291906139e6565b5060c08201518160060160006101000a81548160ff02191690831515021790555060e0820151816007015561010082015181600801559050507f5d2c7bf90f1fb93dc5c1a182708e82e00fe9ea38d825a4c875373e4829a804438160a00151826020015186846080015186604051610c27959493929190614998565b60405180910390a150505050565b606060008054610c4490615132565b80601f0160208091040260200160405190810160405280929190818152602001828054610c7090615132565b8015610cbd5780601f10610c9257610100808354040283529160200191610cbd565b820191906000526020600020905b815481529060010190602001808311610ca057829003601f168201915b5050505050905090565b6000610cd2826131b2565b610d11576040517f08c379a0000000000000000000000000000000000000000000000000000000008152600401610d0890614bd9565b60405180910390fd5b6004600083815260200190815260200160002060009054906101000a900473ffffffffffffffffffffffffffffffffffffffff169050919050565b6000610d578261108c565b90508073ffffffffffffffffffffffffffffffffffffffff168373ffffffffffffffffffffffffffffffffffffffff161415610dc8576040517f08c379a0000000000000000000000000000000000000000000000000000000008152600401610dbf90614c79565b60405180910390fd5b8073ffffffffffffffffffffffffffffffffffffffff16610de76130a0565b73ffffffffffffffffffffffffffffffffffffffff161480610e165750610e1581610e106130a0565b612a68565b5b610e55576040517f08c379a0000000000000000000000000000000000000000000000000000000008152600401610e4c90614b39565b60405180910390fd5b610e5f838361321e565b505050565b6000600b54905090565b610e766130a0565b73ffffffffffffffffffffffffffffffffffffffff16610e9461191e565b73ffffffffffffffffffffffffffffffffffffffff1614610eea576040517f08c379a0000000000000000000000000000000000000000000000000000000008152600401610ee190614c59565b60405180910390fd5b505050565b610ef76130a0565b73ffffffffffffffffffffffffffffffffffffffff16610f1561191e565b73ffffffffffffffffffffffffffffffffffffffff1614610f6b576040517f08c379a0000000000000000000000000000000000000000000000000000000008152600401610f6290614c59565b60405180910390fd5b505050565b610f786130a0565b73ffffffffffffffffffffffffffffffffffffffff16610f9661191e565b73ffffffffffffffffffffffffffffffffffffffff1614610fec576040517f08c379a0000000000000000000000000000000000000000000000000000000008152600401610fe390614c59565b60405180910390fd5b80600c8190555050565b610ffe6130a0565b73ffffffffffffffffffffffffffffffffffffffff1661101c61191e565b73ffffffffffffffffffffffffffffffffffffffff1614611072576040517f08c379a000000000000000000000000000000000000000000000000000000000815260040161106990614c59565b60405180910390fd5b80600f90805190602001906110889291906139e6565b5050565b6000806002600084815260200190815260200160002060009054906101000a900473ffffffffffffffffffffffffffffffffffffffff169050600073ffffffffffffffffffffffffffffffffffffffff168173ffffffffffffffffffffffffffffffffffffffff161415611135576040517f08c379a000000000000000000000000000000000000000000000000000000000815260040161112c90614b79565b60405180910390fd5b80915050919050565b611146613a6c565b600061115183612de9565b905080915050919050565b60008073ffffffffffffffffffffffffffffffffffffffff168273ffffffffffffffffffffffffffffffffffffffff1614156111cd576040517f08c379a00000000000000000000000000000000000000000000000000000000081526004016111c490614b59565b60405180910390fd5b600360008373ffffffffffffffffffffffffffffffffffffffff1673ffffffffffffffffffffffffffffffffffffffff168152602001908152602001600020549050919050565b61121c6130a0565b73ffffffffffffffffffffffffffffffffffffffff1661123a61191e565b73ffffffffffffffffffffffffffffffffffffffff1614611290576040517f08c379a000000000000000000000000000000000000000000000000000000000815260040161128790614c59565b60405180910390fd5b61129a60006132d7565b565b6000600d54905090565b60006112b183612de9565b905080604001513410156112fa576040517f08c379a00000000000000000000000000000000000000000000000000000000081526004016112f190614cd9565b60405180910390fd5b8060c0015161133e576040517f08c379a000000000000000000000000000000000000000000000000000000000815260040161133590614bf9565b60405180910390fd5b8173ffffffffffffffffffffffffffffffffffffffff16816020015173ffffffffffffffffffffffffffffffffffffffff1614156113b1576040517f08c379a00000000000000000000000000000000000000000000000000000000081526004016113a890614b19565b60405180910390fd5b60008160a00151905060008260800151905060006113ce3461339d565b9050600081346113de9190615036565b90506113e861191e565b73ffffffffffffffffffffffffffffffffffffffff166108fc839081150290604051600060405180830381858888f1935050505015801561142d573d6000803e3d6000fd5b50846020015173ffffffffffffffffffffffffffffffffffffffff166108fc829081150290604051600060405180830381858888f19350505050158015611478573d6000803e3d6000fd5b50611488856020015187896133cf565b8560088560405161149991906148b4565b908152602001604051809103902060006101000a81548173ffffffffffffffffffffffffffffffffffffffff021916908373ffffffffffffffffffffffffffffffffffffffff160217905550856009846040516114f691906148b4565b908152602001604051809103902060006101000a81548173ffffffffffffffffffffffffffffffffffffffff021916908373ffffffffffffffffffffffffffffffffffffffff160217905550600061154d34613636565b905086866020019073ffffffffffffffffffffffffffffffffffffffff16908173ffffffffffffffffffffffffffffffffffffffff168152505085604001518660600181815250508086604001818152505060008660c0019015159081151581525050428660e0018181525050856101000180518091906115cd90615195565b8152505085600760008a81526020019081526020016000206000820151816000015560208201518160010160006101000a81548173ffffffffffffffffffffffffffffffffffffffff021916908373ffffffffffffffffffffffffffffffffffffffff160217905550604082015181600201556060820151816003015560808201518160040190805190602001906116669291906139e6565b5060a08201518160050190805190602001906116839291906139e6565b5060c08201518160060160006101000a81548160ff02191690831515021790555060e0820151816007015561010082015181600801559050505050505050505050565b606060006116d38361115c565b90506000808267ffffffffffffffff811115611718577f4e487b7100000000000000000000000000000000000000000000000000000000600052604160045260246000fd5b60405190808252806020026020018201604052801561175157816020015b61173e613a6c565b8152602001906001900390816117365790505b50905060008311156119135760003073ffffffffffffffffffffffffffffffffffffffff16639d63848a6040518163ffffffff1660e01b815260040160006040518083038186803b1580156117a557600080fd5b505afa1580156117b9573d6000803e3d6000fd5b505050506040513d6000823e3d601f19601f820116820180604052508101906117e29190614086565b905060005b600e54811015611910578673ffffffffffffffffffffffffffffffffffffffff16828281518110611841577f4e487b7100000000000000000000000000000000000000000000000000000000600052603260045260246000fd5b60200260200101516020015173ffffffffffffffffffffffffffffffffffffffff1614156118fd578181815181106118a2577f4e487b7100000000000000000000000000000000000000000000000000000000600052603260045260246000fd5b60200260200101518385815181106118e3577f4e487b7100000000000000000000000000000000000000000000000000000000600052603260045260246000fd5b602002602001018190525083806118f990615195565b9450505b808061190890615195565b9150506117e7565b50505b809350505050919050565b6000600660009054906101000a900473ffffffffffffffffffffffffffffffffffffffff16905090565b60606001805461195790615132565b80601f016020809104026020016040519081016040528092919081815260200182805461198390615132565b80156119d05780601f106119a5576101008083540402835291602001916119d0565b820191906000526020600020905b8154815290600101906020018083116119b357829003601f168201915b5050505050905090565b8273ffffffffffffffffffffffffffffffffffffffff163373ffffffffffffffffffffffffffffffffffffffff161480611a615750600a60009054906101000a900473ffffffffffffffffffffffffffffffffffffffff1673ffffffffffffffffffffffffffffffffffffffff163373ffffffffffffffffffffffffffffffffffffffff16145b611aa0576040517f08c379a0000000000000000000000000000000000000000000000000000000008152600401611a9790614c39565b60405180910390fd5b600b54341015611ae5576040517f08c379a0000000000000000000000000000000000000000000000000000000008152600401611adc90614cd9565b60405180910390fd5b600073ffffffffffffffffffffffffffffffffffffffff16600883604051611b0d91906148b4565b908152602001604051809103902060009054906101000a900473ffffffffffffffffffffffffffffffffffffffff1673ffffffffffffffffffffffffffffffffffffffff1614611b92576040517f08c379a0000000000000000000000000000000000000000000000000000000008152600401611b8990614b99565b60405180910390fd5b600073ffffffffffffffffffffffffffffffffffffffff16600982604051611bba91906148b4565b908152602001604051809103902060009054906101000a900473ffffffffffffffffffffffffffffffffffffffff1673ffffffffffffffffffffffffffffffffffffffff1614611c3f576040517f08c379a0000000000000000000000000000000000000000000000000000000008152600401611c36906149f9565b60405180910390fd5b600582511015611c84576040517f08c379a0000000000000000000000000000000000000000000000000000000008152600401611c7b90614c19565b60405180910390fd5b601c81511015611cc9576040517f08c379a0000000000000000000000000000000000000000000000000000000008152600401611cc090614cf9565b60405180910390fd5b611cd161191e565b73ffffffffffffffffffffffffffffffffffffffff166108fc349081150290604051600060405180830381858888f19350505050158015611d16573d6000803e3d6000fd5b50611d2383600e54613695565b6000611d2e34613636565b90506000604051806101200160405280600e5481526020018673ffffffffffffffffffffffffffffffffffffffff168152602001838152602001600b548152602001848152602001858152602001600015158152602001428152602001600181525090508060076000600e5481526020019081526020016000206000820151816000015560208201518160010160006101000a81548173ffffffffffffffffffffffffffffffffffffffff021916908373ffffffffffffffffffffffffffffffffffffffff16021790555060408201518160020155606082015181600301556080820151816004019080519060200190611e299291906139e6565b5060a0820151816005019080519060200190611e469291906139e6565b5060c08201518160060160006101000a81548160ff02191690831515021790555060e08201518160070155610100820151816008015590505084600885604051611e9091906148b4565b908152602001604051809103902060006101000a81548173ffffffffffffffffffffffffffffffffffffffff021916908373ffffffffffffffffffffffffffffffffffffffff16021790555084600984604051611eed91906148b4565b908152602001604051809103902060006101000a81548173ffffffffffffffffffffffffffffffffffffffff021916908373ffffffffffffffffffffffffffffffffffffffff160217905550600e6000815480929190611f4c90615195565b91905055505050505050565b60606000600e5467ffffffffffffffff811115611f9e577f4e487b7100000000000000000000000000000000000000000000000000000000600052604160045260246000fd5b604051908082528060200260200182016040528015611fd757816020015b611fc4613a6c565b815260200190600190039081611fbc5790505b50905060005b600e54811015612224576007600082815260200190815260200160002060405180610120016040529081600082015481526020016001820160009054906101000a900473ffffffffffffffffffffffffffffffffffffffff1673ffffffffffffffffffffffffffffffffffffffff1673ffffffffffffffffffffffffffffffffffffffff168152602001600282015481526020016003820154815260200160048201805461208a90615132565b80601f01602080910402602001604051908101604052809291908181526020018280546120b690615132565b80156121035780601f106120d857610100808354040283529160200191612103565b820191906000526020600020905b8154815290600101906020018083116120e657829003601f168201915b5050505050815260200160058201805461211c90615132565b80601f016020809104026020016040519081016040528092919081815260200182805461214890615132565b80156121955780601f1061216a57610100808354040283529160200191612195565b820191906000526020600020905b81548152906001019060200180831161217857829003601f168201915b505050505081526020016006820160009054906101000a900460ff1615151515815260200160078201548152602001600882015481525050828281518110612206577f4e487b7100000000000000000000000000000000000000000000000000000000600052603260045260246000fd5b6020026020010181905250808061221c90615195565b915050611fdd565b508091505090565b6000600e54905090565b61223e6130a0565b73ffffffffffffffffffffffffffffffffffffffff1661225c61191e565b73ffffffffffffffffffffffffffffffffffffffff16146122b2576040517f08c379a00000000000000000000000000000000000000000000000000000000081526004016122a990614c59565b60405180910390fd5b80600b8190555050565b6122c46130a0565b73ffffffffffffffffffffffffffffffffffffffff166122e261191e565b73ffffffffffffffffffffffffffffffffffffffff1614612338576040517f08c379a000000000000000000000000000000000000000000000000000000000815260040161232f90614c59565b60405180910390fd5b80600d8190555050565b61235461234d6130a0565b838361386f565b5050565b60008073ffffffffffffffffffffffffffffffffffffffff1660088360405161238191906148b4565b908152602001604051809103902060009054906101000a900473ffffffffffffffffffffffffffffffffffffffff1673ffffffffffffffffffffffffffffffffffffffff16149050919050565b60006123d983612de9565b90508173ffffffffffffffffffffffffffffffffffffffff166123fa6130a0565b73ffffffffffffffffffffffffffffffffffffffff1614806124705750600a60009054906101000a900473ffffffffffffffffffffffffffffffffffffffff1673ffffffffffffffffffffffffffffffffffffffff166124586130a0565b73ffffffffffffffffffffffffffffffffffffffff16145b6124af576040517f08c379a00000000000000000000000000000000000000000000000000000000081526004016124a690614af9565b60405180910390fd5b6124c06124ba6130a0565b846130a8565b6124ff576040517f08c379a00000000000000000000000000000000000000000000000000000000081526004016124f690614af9565b60405180910390fd5b8060c00151612543576040517f08c379a000000000000000000000000000000000000000000000000000000000815260040161253a90614d39565b60405180910390fd5b60008160c001901515908115158152505080600760008581526020019081526020016000206000820151816000015560208201518160010160006101000a81548173ffffffffffffffffffffffffffffffffffffffff021916908373ffffffffffffffffffffffffffffffffffffffff160217905550604082015181600201556060820151816003015560808201518160040190805190602001906125e99291906139e6565b5060a08201518160050190805190602001906126069291906139e6565b5060c08201518160060160006101000a81548160ff02191690831515021790555060e0820151816007015561010082015181600801559050507fc3b5a2843f6447d7f106f5f37fa2da559718e6690e8567e2a9a707074388a81c8160a0015182602001518584608001516040516126809493929190614945565b60405180910390a1505050565b6126956130a0565b73ffffffffffffffffffffffffffffffffffffffff166126b361191e565b73ffffffffffffffffffffffffffffffffffffffff1614612709576040517f08c379a000000000000000000000000000000000000000000000000000000000815260040161270090614c59565b60405180910390fd5b600061271483612de9565b90508173ffffffffffffffffffffffffffffffffffffffff16816020015173ffffffffffffffffffffffffffffffffffffffff161415612789576040517f08c379a000000000000000000000000000000000000000000000000000000000815260040161278090614b19565b60405180910390fd5b60008160a0015190506000826080015190506127aa836020015185876133cf565b836008836040516127bb91906148b4565b908152602001604051809103902060006101000a81548173ffffffffffffffffffffffffffffffffffffffff021916908373ffffffffffffffffffffffffffffffffffffffff1602179055508360098260405161281891906148b4565b908152602001604051809103902060006101000a81548173ffffffffffffffffffffffffffffffffffffffff021916908373ffffffffffffffffffffffffffffffffffffffff16021790555083836020019073ffffffffffffffffffffffffffffffffffffffff16908173ffffffffffffffffffffffffffffffffffffffff168152505060008360c0019015159081151581525050428360e0018181525050826101000180518091906128ca90615195565b8152505082600760008781526020019081526020016000206000820151816000015560208201518160010160006101000a81548173ffffffffffffffffffffffffffffffffffffffff021916908373ffffffffffffffffffffffffffffffffffffffff160217905550604082015181600201556060820151816003015560808201518160040190805190602001906129639291906139e6565b5060a08201518160050190805190602001906129809291906139e6565b5060c08201518160060160006101000a81548160ff02191690831515021790555060e0820151816007015561010082015181600801559050505050505050565b6129c86130a0565b73ffffffffffffffffffffffffffffffffffffffff166129e661191e565b73ffffffffffffffffffffffffffffffffffffffff1614612a3c576040517f08c379a0000000000000000000000000000000000000000000000000000000008152600401612a3390614c59565b60405180910390fd5b50505050565b6000600c54905090565b60606000612a5983612de9565b90508060800151915050919050565b6000600560008473ffffffffffffffffffffffffffffffffffffffff1673ffffffffffffffffffffffffffffffffffffffff16815260200190815260200160002060008373ffffffffffffffffffffffffffffffffffffffff1673ffffffffffffffffffffffffffffffffffffffff16815260200190815260200160002060009054906101000a900460ff16905092915050565b60076020528060005260406000206000915090508060000154908060010160009054906101000a900473ffffffffffffffffffffffffffffffffffffffff1690806002015490806003015490806004018054612b5790615132565b80601f0160208091040260200160405190810160405280929190818152602001828054612b8390615132565b8015612bd05780601f10612ba557610100808354040283529160200191612bd0565b820191906000526020600020905b815481529060010190602001808311612bb357829003601f168201915b505050505090806005018054612be590615132565b80601f0160208091040260200160405190810160405280929190818152602001828054612c1190615132565b8015612c5e5780601f10612c3357610100808354040283529160200191612c5e565b820191906000526020600020905b815481529060010190602001808311612c4157829003601f168201915b5050505050908060060160009054906101000a900460ff16908060070154908060080154905089565b612c8f6130a0565b73ffffffffffffffffffffffffffffffffffffffff16612cad61191e565b73ffffffffffffffffffffffffffffffffffffffff1614612d03576040517f08c379a0000000000000000000000000000000000000000000000000000000008152600401612cfa90614c59565b60405180910390fd5b600073ffffffffffffffffffffffffffffffffffffffff168173ffffffffffffffffffffffffffffffffffffffff161415612d73576040517f08c379a0000000000000000000000000000000000000000000000000000000008152600401612d6a90614a19565b60405180910390fd5b612d7c816132d7565b50565b60007f01ffc9a7000000000000000000000000000000000000000000000000000000007bffffffffffffffffffffffffffffffffffffffffffffffffffffffff1916827bffffffffffffffffffffffffffffffffffffffffffffffffffffffff1916149050919050565b612df1613a6c565b612dfa826131b2565b612e39576040517f08c379a0000000000000000000000000000000000000000000000000000000008152600401612e3090614cb9565b60405180910390fd5b60006007600084815260200190815260200160002060405180610120016040529081600082015481526020016001820160009054906101000a900473ffffffffffffffffffffffffffffffffffffffff1673ffffffffffffffffffffffffffffffffffffffff1673ffffffffffffffffffffffffffffffffffffffff1681526020016002820154815260200160038201548152602001600482018054612ede90615132565b80601f0160208091040260200160405190810160405280929190818152602001828054612f0a90615132565b8015612f575780601f10612f2c57610100808354040283529160200191612f57565b820191906000526020600020905b815481529060010190602001808311612f3a57829003601f168201915b50505050508152602001600582018054612f7090615132565b80601f0160208091040260200160405190810160405280929190818152602001828054612f9c90615132565b8015612fe95780601f10612fbe57610100808354040283529160200191612fe9565b820191906000526020600020905b815481529060010190602001808311612fcc57829003601f168201915b505050505081526020016006820160009054906101000a900460ff16151515158152602001600782015481526020016008820154815250509050600073ffffffffffffffffffffffffffffffffffffffff16816020015173ffffffffffffffffffffffffffffffffffffffff161415613097576040517f08c379a000000000000000000000000000000000000000000000000000000000815260040161308e90614d19565b60405180910390fd5b80915050919050565b600033905090565b60006130b3826131b2565b6130f2576040517f08c379a00000000000000000000000000000000000000000000000000000000081526004016130e990614ad9565b60405180910390fd5b60006130fd8361108c565b90508073ffffffffffffffffffffffffffffffffffffffff168473ffffffffffffffffffffffffffffffffffffffff16148061316c57508373ffffffffffffffffffffffffffffffffffffffff1661315484610cc7565b73ffffffffffffffffffffffffffffffffffffffff16145b8061317d575061317c8185612a68565b5b91505092915050565b600081836131949190614fab565b905092915050565b600081836131aa9190614fdc565b905092915050565b60008073ffffffffffffffffffffffffffffffffffffffff166002600084815260200190815260200160002060009054906101000a900473ffffffffffffffffffffffffffffffffffffffff1673ffffffffffffffffffffffffffffffffffffffff1614159050919050565b816004600083815260200190815260200160002060006101000a81548173ffffffffffffffffffffffffffffffffffffffff021916908373ffffffffffffffffffffffffffffffffffffffff160217905550808273ffffffffffffffffffffffffffffffffffffffff166132918361108c565b73ffffffffffffffffffffffffffffffffffffffff167f8c5be1e5ebec7d5bd14f71427d1e84f3dd0314c0f7b2291e5b200ac8c7c3b92560405160405180910390a45050565b6000600660009054906101000a900473ffffffffffffffffffffffffffffffffffffffff16905081600660006101000a81548173ffffffffffffffffffffffffffffffffffffffff021916908373ffffffffffffffffffffffffffffffffffffffff1602179055508173ffffffffffffffffffffffffffffffffffffffff168173ffffffffffffffffffffffffffffffffffffffff167f8be0079c531659141344cd1fd0a4f28419497f9722a3daafe3b4186f6b6457e060405160405180910390a35050565b60006133c86127106133ba600c548561319c90919063ffffffff16565b61318690919063ffffffff16565b9050919050565b8273ffffffffffffffffffffffffffffffffffffffff166133ef8261108c565b73ffffffffffffffffffffffffffffffffffffffff1614613445576040517f08c379a000000000000000000000000000000000000000000000000000000000815260040161343c90614a39565b60405180910390fd5b600073ffffffffffffffffffffffffffffffffffffffff168273ffffffffffffffffffffffffffffffffffffffff1614156134b5576040517f08c379a00000000000000000000000000000000000000000000000000000000081526004016134ac90614a79565b60405180910390fd5b6134c08383836139dc565b6134cb60008261321e565b6001600360008573ffffffffffffffffffffffffffffffffffffffff1673ffffffffffffffffffffffffffffffffffffffff168152602001908152602001600020600082825461351b9190615036565b925050819055506001600360008473ffffffffffffffffffffffffffffffffffffffff1673ffffffffffffffffffffffffffffffffffffffff16815260200190815260200160002060008282546135729190614f55565b92505081905550816002600083815260200190815260200160002060006101000a81548173ffffffffffffffffffffffffffffffffffffffff021916908373ffffffffffffffffffffffffffffffffffffffff160217905550808273ffffffffffffffffffffffffffffffffffffffff168473ffffffffffffffffffffffffffffffffffffffff167fddf252ad1be2c89b69c2b068fc378daa952ba7f163c4a11628f55a4df523b3ef60405160405180910390a46136318383836139e1565b505050565b600080613662612710613654600d548661319c90919063ffffffff16565b61318690919063ffffffff16565b905061368d60105461367f6010548461318690919063ffffffff16565b61319c90919063ffffffff16565b915050919050565b600073ffffffffffffffffffffffffffffffffffffffff168273ffffffffffffffffffffffffffffffffffffffff161415613705576040517f08c379a00000000000000000000000000000000000000000000000000000000081526004016136fc90614bb9565b60405180910390fd5b61370e816131b2565b1561374e576040517f08c379a000000000000000000000000000000000000000000000000000000000815260040161374590614a59565b60405180910390fd5b61375a600083836139dc565b6001600360008473ffffffffffffffffffffffffffffffffffffffff1673ffffffffffffffffffffffffffffffffffffffff16815260200190815260200160002060008282546137aa9190614f55565b92505081905550816002600083815260200190815260200160002060006101000a81548173ffffffffffffffffffffffffffffffffffffffff021916908373ffffffffffffffffffffffffffffffffffffffff160217905550808273ffffffffffffffffffffffffffffffffffffffff16600073ffffffffffffffffffffffffffffffffffffffff167fddf252ad1be2c89b69c2b068fc378daa952ba7f163c4a11628f55a4df523b3ef60405160405180910390a461386b600083836139e1565b5050565b8173ffffffffffffffffffffffffffffffffffffffff168373ffffffffffffffffffffffffffffffffffffffff1614156138de576040517f08c379a00000000000000000000000000000000000000000000000000000000081526004016138d590614a99565b60405180910390fd5b80600560008573ffffffffffffffffffffffffffffffffffffffff1673ffffffffffffffffffffffffffffffffffffffff16815260200190815260200160002060008473ffffffffffffffffffffffffffffffffffffffff1673ffffffffffffffffffffffffffffffffffffffff16815260200190815260200160002060006101000a81548160ff0219169083151502179055508173ffffffffffffffffffffffffffffffffffffffff168373ffffffffffffffffffffffffffffffffffffffff167f17307eab39ab6107e8899845ad3d59bd9653f200f220920489ca2b5937696c31836040516139cf9190614908565b60405180910390a3505050565b505050565b505050565b8280546139f290615132565b90600052602060002090601f016020900481019282613a145760008555613a5b565b82601f10613a2d57805160ff1916838001178555613a5b565b82800160010185558215613a5b579182015b82811115613a5a578251825591602001919060010190613a3f565b5b509050613a689190613ad0565b5090565b60405180610120016040528060008152602001600073ffffffffffffffffffffffffffffffffffffffff1681526020016000815260200160008152602001606081526020016060815260200160001515815260200160008152602001600081525090565b5b80821115613ae9576000816000905550600101613ad1565b5090565b6000613b00613afb84614e56565b614e31565b9050808382526020820190508260005b85811015613b405781518501613b268882613d2a565b845260208401935060208301925050600181019050613b10565b5050509392505050565b6000613b5d613b5884614e82565b614e31565b905082815260208101848484011115613b7557600080fd5b613b808482856150f0565b509392505050565b6000613b9b613b9684614eb3565b614e31565b905082815260208101848484011115613bb357600080fd5b613bbe8482856150f0565b509392505050565b6000613bd9613bd484614eb3565b614e31565b905082815260208101848484011115613bf157600080fd5b613bfc8482856150ff565b509392505050565b600081359050613c1381615938565b92915050565b600081519050613c2881615938565b92915050565b600081359050613c3d8161594f565b92915050565b600082601f830112613c5457600080fd5b8151613c64848260208601613aed565b91505092915050565b600081359050613c7c81615966565b92915050565b600081519050613c9181615966565b92915050565b600081359050613ca68161597d565b92915050565b600082601f830112613cbd57600080fd5b8135613ccd848260208601613b4a565b91505092915050565b600082601f830112613ce757600080fd5b8135613cf7848260208601613b88565b91505092915050565b600082601f830112613d1157600080fd5b8151613d21848260208601613bc6565b91505092915050565b60006101208284031215613d3d57600080fd5b613d48610120614e31565b90506000613d5884828501613e4b565b6000830152506020613d6c84828501613c19565b6020830152506040613d8084828501613e4b565b6040830152506060613d9484828501613e4b565b606083015250608082015167ffffffffffffffff811115613db457600080fd5b613dc084828501613d00565b60808301525060a082015167ffffffffffffffff811115613de057600080fd5b613dec84828501613d00565b60a08301525060c0613e0084828501613c82565b60c08301525060e0613e1484828501613e4b565b60e083015250610100613e2984828501613e4b565b6101008301525092915050565b600081359050613e4581615994565b92915050565b600081519050613e5a81615994565b92915050565b600060208284031215613e7257600080fd5b6000613e8084828501613c04565b91505092915050565b600080600060608486031215613e9e57600080fd5b6000613eac86828701613c2e565b935050602084013567ffffffffffffffff811115613ec957600080fd5b613ed586828701613cd6565b925050604084013567ffffffffffffffff811115613ef257600080fd5b613efe86828701613cd6565b9150509250925092565b60008060408385031215613f1b57600080fd5b6000613f2985828601613c04565b9250506020613f3a85828601613c04565b9150509250929050565b600080600060608486031215613f5957600080fd5b6000613f6786828701613c04565b9350506020613f7886828701613c04565b9250506040613f8986828701613e36565b9150509250925092565b60008060008060808587031215613fa957600080fd5b6000613fb787828801613c04565b9450506020613fc887828801613c04565b9350506040613fd987828801613e36565b925050606085013567ffffffffffffffff811115613ff657600080fd5b61400287828801613cac565b91505092959194509250565b6000806040838503121561402157600080fd5b600061402f85828601613c04565b925050602061404085828601613c6d565b9150509250929050565b6000806040838503121561405d57600080fd5b600061406b85828601613c04565b925050602061407c85828601613e36565b9150509250929050565b60006020828403121561409857600080fd5b600082015167ffffffffffffffff8111156140b257600080fd5b6140be84828501613c43565b91505092915050565b6000602082840312156140d957600080fd5b60006140e784828501613c97565b91505092915050565b60006020828403121561410257600080fd5b600082013567ffffffffffffffff81111561411c57600080fd5b61412884828501613cd6565b91505092915050565b60006020828403121561414357600080fd5b600061415184828501613e36565b91505092915050565b6000806040838503121561416d57600080fd5b600061417b85828601613e36565b925050602061418c85828601613c04565b9150509250929050565b6000806000606084860312156141ab57600080fd5b60006141b986828701613e36565b93505060206141ca86828701613c04565b92505060406141db86828701613e36565b9150509250925092565b60006141f183836146fe565b905092915050565b6142028161506a565b82525050565b6142118161506a565b82525050565b600061422282614ef4565b61422c8185614f17565b93508360208202850161423e85614ee4565b8060005b8581101561427a578484038952815161425b85826141e5565b945061426683614f0a565b925060208a01995050600181019050614242565b50829750879550505050505092915050565b6142958161508e565b82525050565b6142a48161508e565b82525050565b60006142b582614eff565b6142bf8185614f28565b93506142cf8185602086016150ff565b6142d88161529a565b840191505092915050565b60006142ee82614eff565b6142f88185614f39565b93506143088185602086016150ff565b6143118161529a565b840191505092915050565b600061432782614eff565b6143318185614f4a565b93506143418185602086016150ff565b80840191505092915050565b600061435a602d83614f39565b9150614365826152ab565b604082019050919050565b600061437d602683614f39565b9150614388826152fa565b604082019050919050565b60006143a0602583614f39565b91506143ab82615349565b604082019050919050565b60006143c3601c83614f39565b91506143ce82615398565b602082019050919050565b60006143e6602483614f39565b91506143f1826153c1565b604082019050919050565b6000614409601983614f39565b915061441482615410565b602082019050919050565b600061442c602083614f39565b915061443782615439565b602082019050919050565b600061444f602c83614f39565b915061445a82615462565b604082019050919050565b6000614472602c83614f39565b915061447d826154b1565b604082019050919050565b6000614495601883614f39565b91506144a082615500565b602082019050919050565b60006144b8603883614f39565b91506144c382615529565b604082019050919050565b60006144db602a83614f39565b91506144e682615578565b604082019050919050565b60006144fe602983614f39565b9150614509826155c7565b604082019050919050565b6000614521603283614f39565b915061452c82615616565b604082019050919050565b6000614544602083614f39565b915061454f82615665565b602082019050919050565b6000614567602c83614f39565b91506145728261568e565b604082019050919050565b600061458a601583614f39565b9150614595826156dd565b602082019050919050565b60006145ad602083614f39565b91506145b882615706565b602082019050919050565b60006145d0601283614f39565b91506145db8261572f565b602082019050919050565b60006145f3602083614f39565b91506145fe82615758565b602082019050919050565b6000614616602183614f39565b915061462182615781565b604082019050919050565b6000614639603983614f39565b9150614644826157d0565b604082019050919050565b600061465c601683614f39565b91506146678261581f565b602082019050919050565b600061467f602d83614f39565b915061468a82615848565b604082019050919050565b60006146a2602083614f39565b91506146ad82615897565b602082019050919050565b60006146c5601b83614f39565b91506146d0826158c0565b602082019050919050565b60006146e8602a83614f39565b91506146f3826158e9565b604082019050919050565b6000610120830160008301516147176000860182614896565b50602083015161472a60208601826141f9565b50604083015161473d6040860182614896565b5060608301516147506060860182614896565b506080830151848203608086015261476882826142aa565b91505060a083015184820360a086015261478282826142aa565b91505060c083015161479760c086018261428c565b5060e08301516147aa60e0860182614896565b506101008301516147bf610100860182614896565b508091505092915050565b6000610120830160008301516147e36000860182614896565b5060208301516147f660208601826141f9565b5060408301516148096040860182614896565b50606083015161481c6060860182614896565b506080830151848203608086015261483482826142aa565b91505060a083015184820360a086015261484e82826142aa565b91505060c083015161486360c086018261428c565b5060e083015161487660e0860182614896565b5061010083015161488b610100860182614896565b508091505092915050565b61489f816150e6565b82525050565b6148ae816150e6565b82525050565b60006148c0828461431c565b915081905092915050565b60006020820190506148e06000830184614208565b92915050565b600060208201905081810360008301526149008184614217565b905092915050565b600060208201905061491d600083018461429b565b92915050565b6000602082019050818103600083015261493d81846142e3565b905092915050565b6000608082019050818103600083015261495f81876142e3565b905061496e6020830186614208565b61497b60408301856148a5565b818103606083015261498d81846142e3565b905095945050505050565b600060a08201905081810360008301526149b281886142e3565b90506149c16020830187614208565b6149ce60408301866148a5565b81810360608301526149e081856142e3565b90506149ef60808301846148a5565b9695505050505050565b60006020820190508181036000830152614a128161434d565b9050919050565b60006020820190508181036000830152614a3281614370565b9050919050565b60006020820190508181036000830152614a5281614393565b9050919050565b60006020820190508181036000830152614a72816143b6565b9050919050565b60006020820190508181036000830152614a92816143d9565b9050919050565b60006020820190508181036000830152614ab2816143fc565b9050919050565b60006020820190508181036000830152614ad28161441f565b9050919050565b60006020820190508181036000830152614af281614442565b9050919050565b60006020820190508181036000830152614b1281614465565b9050919050565b60006020820190508181036000830152614b3281614488565b9050919050565b60006020820190508181036000830152614b52816144ab565b9050919050565b60006020820190508181036000830152614b72816144ce565b9050919050565b60006020820190508181036000830152614b92816144f1565b9050919050565b60006020820190508181036000830152614bb281614514565b9050919050565b60006020820190508181036000830152614bd281614537565b9050919050565b60006020820190508181036000830152614bf28161455a565b9050919050565b60006020820190508181036000830152614c128161457d565b9050919050565b60006020820190508181036000830152614c32816145a0565b9050919050565b60006020820190508181036000830152614c52816145c3565b9050919050565b60006020820190508181036000830152614c72816145e6565b9050919050565b60006020820190508181036000830152614c9281614609565b9050919050565b60006020820190508181036000830152614cb28161462c565b9050919050565b60006020820190508181036000830152614cd28161464f565b9050919050565b60006020820190508181036000830152614cf281614672565b9050919050565b60006020820190508181036000830152614d1281614695565b9050919050565b60006020820190508181036000830152614d32816146b8565b9050919050565b60006020820190508181036000830152614d52816146db565b9050919050565b60006020820190508181036000830152614d7381846147ca565b905092915050565b6000602082019050614d9060008301846148a5565b92915050565b600061012082019050614dac600083018c6148a5565b614db9602083018b614208565b614dc6604083018a6148a5565b614dd360608301896148a5565b8181036080830152614de581886142e3565b905081810360a0830152614df981876142e3565b9050614e0860c083018661429b565b614e1560e08301856148a5565b614e236101008301846148a5565b9a9950505050505050505050565b6000614e3b614e4c565b9050614e478282615164565b919050565b6000604051905090565b600067ffffffffffffffff821115614e7157614e7061526b565b5b602082029050602081019050919050565b600067ffffffffffffffff821115614e9d57614e9c61526b565b5b614ea68261529a565b9050602081019050919050565b600067ffffffffffffffff821115614ece57614ecd61526b565b5b614ed78261529a565b9050602081019050919050565b6000819050602082019050919050565b600081519050919050565b600081519050919050565b6000602082019050919050565b600082825260208201905092915050565b600082825260208201905092915050565b600082825260208201905092915050565b600081905092915050565b6000614f60826150e6565b9150614f6b836150e6565b9250827fffffffffffffffffffffffffffffffffffffffffffffffffffffffffffffffff03821115614fa057614f9f6151de565b5b828201905092915050565b6000614fb6826150e6565b9150614fc1836150e6565b925082614fd157614fd061520d565b5b828204905092915050565b6000614fe7826150e6565b9150614ff2836150e6565b9250817fffffffffffffffffffffffffffffffffffffffffffffffffffffffffffffffff048311821515161561502b5761502a6151de565b5b828202905092915050565b6000615041826150e6565b915061504c836150e6565b92508282101561505f5761505e6151de565b5b828203905092915050565b6000615075826150c6565b9050919050565b6000615087826150c6565b9050919050565b60008115159050919050565b60007fffffffff0000000000000000000000000000000000000000000000000000000082169050919050565b600073ffffffffffffffffffffffffffffffffffffffff82169050919050565b6000819050919050565b82818337600083830152505050565b60005b8381101561511d578082015181840152602081019050615102565b8381111561512c576000848401525b50505050565b6000600282049050600182168061514a57607f821691505b6020821081141561515e5761515d61523c565b5b50919050565b61516d8261529a565b810181811067ffffffffffffffff8211171561518c5761518b61526b565b5b80604052505050565b60006151a0826150e6565b91507fffffffffffffffffffffffffffffffffffffffffffffffffffffffffffffffff8214156151d3576151d26151de565b5b600182019050919050565b7f4e487b7100000000000000000000000000000000000000000000000000000000600052601160045260246000fd5b7f4e487b7100000000000000000000000000000000000000000000000000000000600052601260045260246000fd5b7f4e487b7100000000000000000000000000000000000000000000000000000000600052602260045260246000fd5b7f4e487b7100000000000000000000000000000000000000000000000000000000600052604160045260246000fd5b6000601f19601f8301169050919050565b7f4120746f6b656e2068617320616c7265616479206265656e206d696e7465642060008201527f7769746820746869732055524900000000000000000000000000000000000000602082015250565b7f4f776e61626c653a206e6577206f776e657220697320746865207a65726f206160008201527f6464726573730000000000000000000000000000000000000000000000000000602082015250565b7f4552433732313a207472616e736665722066726f6d20696e636f72726563742060008201527f6f776e6572000000000000000000000000000000000000000000000000000000602082015250565b7f4552433732313a20746f6b656e20616c7265616479206d696e74656400000000600082015250565b7f4552433732313a207472616e7366657220746f20746865207a65726f2061646460008201527f7265737300000000000000000000000000000000000000000000000000000000602082015250565b7f4552433732313a20617070726f766520746f2063616c6c657200000000000000600082015250565b7f546f6b656e20697320616c7265616479206d61726b656420666f722073616c65600082015250565b7f4552433732313a206f70657261746f7220717565727920666f72206e6f6e657860008201527f697374656e7420746f6b656e0000000000000000000000000000000000000000602082015250565b7f53656e646572206d75737420626520746f6b656e206f776e6572206f7220636f60008201527f6e7472616374206f776e65720000000000000000000000000000000000000000602082015250565b7f427579657220616c7265616479206f776e7320746f6b656e0000000000000000600082015250565b7f4552433732313a20617070726f76652063616c6c6572206973206e6f74206f7760008201527f6e6572206e6f7220617070726f76656420666f7220616c6c0000000000000000602082015250565b7f4552433732313a2062616c616e636520717565727920666f7220746865207a6560008201527f726f206164647265737300000000000000000000000000000000000000000000602082015250565b7f4552433732313a206f776e657220717565727920666f72206e6f6e657869737460008201527f656e7420746f6b656e0000000000000000000000000000000000000000000000602082015250565b7f4120746f6b656e2068617320616c7265616479206265656e206d696e7465642060008201527f77697468207468697320736f6c7574696f6e0000000000000000000000000000602082015250565b7f4552433732313a206d696e7420746f20746865207a65726f2061646472657373600082015250565b7f4552433732313a20617070726f76656420717565727920666f72206e6f6e657860008201527f697374656e7420746f6b656e0000000000000000000000000000000000000000602082015250565b7f546f6b656e206973206e6f7420666f722073616c650000000000000000000000600082015250565b7f412076616c756520666f7220736f6c7574696f6e206973207265717569726564600082015250565b7f496e76616c696420746f20616464726573730000000000000000000000000000600082015250565b7f4f776e61626c653a2063616c6c6572206973206e6f7420746865206f776e6572600082015250565b7f4552433732313a20617070726f76616c20746f2063757272656e74206f776e6560008201527f7200000000000000000000000000000000000000000000000000000000000000602082015250565b7f546f6b656e2063616e6e6f7420626520707269636564206c657373207468616e60008201527f207468652063757272656e742061736b696e6720707269636500000000000000602082015250565b7f546f6b656e496420646f6573206e6f7420657869737400000000000000000000600082015250565b7f496e73756666696369656e742065746865722073656e7420776974682074686960008201527f73207472616e73616374696f6e00000000000000000000000000000000000000602082015250565b7f412076616c756520666f7220746f6b656e555249206973207265717569726564600082015250565b7f546f6b656e206f626a65637420646f6573206e6f742065786973740000000000600082015250565b7f546f6b656e20697320616c72656164792070726576656e7465642066726f6d2060008201527f6265696e6720736f6c6400000000000000000000000000000000000000000000602082015250565b6159418161506a565b811461594c57600080fd5b50565b6159588161507c565b811461596357600080fd5b50565b61596f8161508e565b811461597a57600080fd5b50565b6159868161509a565b811461599157600080fd5b50565b61599d816150e6565b81146159a857600080fd5b5056fea2646970667358221220154b8c7d4430f4b96e2e58c89d725d266c9bd9063985b3b2bb85fce9573327ba64736f6c63430008010033",
  "immutableReferences": {},
  "source": "// SPDX-License-Identifier: MIT\r\npragma solidity >=0.4.22 <0.9.0;\r\nimport \"@openzeppelin/contracts/token/ERC721/ERC721.sol\";\r\nimport \"@openzeppelin/contracts/access/Ownable.sol\";\r\nimport \"@openzeppelin/contracts/utils/math/SafeMath.sol\";\r\n\r\ncontract EthordleToken is ERC721, Ownable {\r\n    using Strings for uint256;\r\n    using SafeMath for uint256;\r\n\r\n    struct Token {\r\n        uint256 id;        \r\n        address owner;\r\n        uint256 price;\r\n        uint256 lastPrice;\r\n        string url;\r\n        string solution;\r\n        bool isForSale;\r\n        uint256 lastTransactionTimestamp;\r\n        uint256 transactionCount;        \r\n    }\r\n\r\n    mapping (uint256 => Token) public _tokens;\r\n    mapping (string => address) private _solutionOwners;\r\n    mapping (string => address) private _tokenURIOwners;\r\n\r\n    address private _owner;\r\n    uint256 private _initialPrice;\r\n    uint256 private _royaltyRate;\r\n    uint256 private _priceEscalationRate;\r\n    uint256 private _currentTokenId;\r\n    string private _baseURIextended;\r\n\r\n    uint256 roundingDivisor = 10**15;\r\n\r\n    event TokenSaleAllowed (\r\n        string solution,\r\n        address account,\r\n        uint256 tokenId,\r\n        string metadataURI,\r\n        uint256 price\r\n    );\r\n\r\n    event TokenSalePrevented (\r\n        string solution,\r\n        address account,\r\n        uint256 tokenId,\r\n        string metadataURI\r\n    );\r\n\r\n    constructor(string memory _name, string memory _symbol, uint256 initialPrice_, uint256 royaltyRate_, uint256 priceEscalationRate_) ERC721(_name, _symbol) {\r\n        _owner = msg.sender;\r\n        _currentTokenId = 0;\r\n        _initialPrice = initialPrice_;\r\n        _royaltyRate = royaltyRate_;\r\n        _priceEscalationRate = priceEscalationRate_;\r\n    }\r\n    \r\n    function _validateTokenId(uint256 tokenId) internal view returns (Token memory) {\r\n        require(_exists(tokenId), 'TokenId does not exist');\r\n        \r\n        Token memory token = _tokens[tokenId];    \r\n        \r\n        require(token.owner != address(0x0), 'Token object does not exist');\r\n\r\n        return token;\r\n    }\r\n\r\n    function setInitialPrice(uint256 initialPrice_) external onlyOwner() {\r\n        _initialPrice = initialPrice_;\r\n    }\r\n\r\n    function initialPrice() external view returns (uint256) {\r\n        return _initialPrice;\r\n    }\r\n\r\n    function setRoyaltyRate(uint256 royaltyRate_) external onlyOwner() {\r\n        _royaltyRate = royaltyRate_;   \r\n    }\r\n\r\n    function royaltyRate() external view returns (uint256) {\r\n        return _royaltyRate;\r\n    }\r\n\r\n    function setPriceEscalationRate(uint256 priceEscalationRate_) external onlyOwner() {\r\n        _priceEscalationRate = priceEscalationRate_;\r\n    }\r\n\r\n    function priceEscalationRate() external view returns (uint256) {\r\n        return _priceEscalationRate;\r\n    }\r\n\r\n    function tokenCount() external view returns (uint256) {\r\n        return _currentTokenId;\r\n    }\r\n\r\n    function tokenById(uint256 tokenId) external view returns(Token memory) {        \r\n        Token memory token = _validateTokenId(tokenId);\r\n        return token;\r\n    }\r\n\r\n    function tokensOfOwner(address _from) external view returns(Token[] memory) {\r\n        uint256 ownerCount = balanceOf(_from);\r\n        uint256 ownerIndex = 0;\r\n        Token[] memory ownerTokens = new Token[](ownerCount);\r\n\r\n        if (ownerCount > 0) {\r\n            Token[] memory allTokens = this.tokens();\r\n            \r\n            for (uint256 i = 0; i < _currentTokenId; i++) {\r\n                if (allTokens[i].owner == _from) {\r\n                    ownerTokens[ownerIndex] = allTokens[i];\r\n                    ownerIndex++;\r\n                }\r\n            }\r\n        }\r\n\r\n        return ownerTokens;\r\n    }\r\n\r\n    function tokens() external view returns(Token[] memory) {  \r\n        Token[] memory allTokens = new Token[](_currentTokenId);\r\n\r\n        for (uint256 i = 0; i < _currentTokenId; i++) {\r\n            allTokens[i] = _tokens[i];\r\n        }\r\n\r\n        return allTokens;\r\n    }\r\n    \r\n    function setBaseURI(string memory baseURI) external onlyOwner() {\r\n        _baseURIextended = baseURI;\r\n    }\r\n    \r\n    function _baseURI() internal view virtual override returns (string memory) {\r\n        return _baseURIextended;\r\n    }\r\n    \r\n    function isSolutionUnique(string memory solution_) public view returns (bool) {\r\n        return _solutionOwners[solution_] == address(0x0);\r\n    }\r\n\r\n    function tokenURI(uint256 tokenId) public view virtual override returns (string memory) {\r\n        Token memory token = _validateTokenId(tokenId);\r\n\r\n        return token.url;\r\n    }\r\n\r\n    function mint(\r\n        address payable to,\r\n        string memory solution_,\r\n        string memory tokenURI_\r\n    ) external payable {  \r\n        require(msg.sender == to || msg.sender == _owner, 'Invalid to address');      \r\n        require(msg.value >= _initialPrice, 'Insufficient ether sent with this transaction'); \r\n        require(_solutionOwners[solution_] == address(0x0), 'A token has already been minted with this solution');\r\n        require(_tokenURIOwners[tokenURI_] == address(0x0), 'A token has already been minted with this URI');\r\n        require(bytes(solution_).length >= 5, 'A value for solution is required');\r\n        require(bytes(tokenURI_).length >= 28, 'A value for tokenURI is required'); // https://ipfs.infura.io/ipfs/\r\n\r\n        payable(owner()).transfer(msg.value);\r\n\r\n        _mint(to, _currentTokenId);\r\n\r\n        uint256 newPrice =_getEscalatedPrice(msg.value);\r\n\r\n        Token memory token = Token(_currentTokenId, to, newPrice, _initialPrice, tokenURI_, solution_, false, block.timestamp, 1);\r\n       \r\n        _tokens[_currentTokenId] = token;\r\n        _solutionOwners[solution_] = to;\r\n        _tokenURIOwners[tokenURI_] = to;\r\n        _currentTokenId++;        \r\n    }\r\n\r\n    function allowSale(\r\n        uint256 tokenId,\r\n        address from,\r\n        uint256 price\r\n    ) external {    \r\n        Token memory token = _validateTokenId(tokenId);\r\n        \r\n        require(_msgSender() == from || _msgSender() == _owner, 'Sender must be token owner or contract owner'); \r\n        require(_isApprovedOrOwner(_msgSender(), tokenId), 'Sender must be token owner or contract owner');         \r\n        \r\n        require(!token.isForSale, 'Token is already marked for sale');\r\n        require(price >= token.price, 'Token cannot be priced less than the current asking price');\r\n        \r\n        token.price = price.div(roundingDivisor).mul(roundingDivisor); // round to nearest 1/1000 eth\r\n        token.isForSale = true;\r\n\r\n        _tokens[tokenId] = token; \r\n\r\n        emit TokenSaleAllowed(token.solution, token.owner, tokenId, token.url, price);\r\n    }\r\n\r\n    function preventSale(\r\n        uint256 tokenId,\r\n        address from        \r\n    ) external {   \r\n        Token memory token = _validateTokenId(tokenId);\r\n\r\n        require(_msgSender() == from || _msgSender() == _owner, 'Sender must be token owner or contract owner'); \r\n        require(_isApprovedOrOwner(_msgSender(), tokenId), 'Sender must be token owner or contract owner');    \r\n        \r\n        require(token.isForSale, 'Token is already prevented from being sold'); \r\n        \r\n        token.isForSale = false;\r\n        \r\n        _tokens[tokenId] = token; \r\n\r\n        emit TokenSalePrevented(token.solution, token.owner, tokenId, token.url);\r\n    }\r\n\r\n    function buy(\r\n        uint256 tokenId,\r\n        address to   \r\n    ) external payable {        \r\n        Token memory token = _validateTokenId(tokenId);\r\n        \r\n        require(msg.value >= token.price, 'Insufficient ether sent with this transaction');\r\n        require(token.isForSale, 'Token is not for sale');\r\n        require(token.owner != to, 'Buyer already owns token'); \r\n       \r\n        string memory solution_ = token.solution;\r\n        string memory tokenURI_ = token.url;\r\n\r\n        uint256 totalRoyalty = _getRoyalty(msg.value); \r\n        uint256 remainder = msg.value - totalRoyalty;\r\n\r\n        payable(owner()).transfer(totalRoyalty);\r\n        payable(address(token.owner)).transfer(remainder);\r\n        \r\n        _transfer(token.owner, to, tokenId);\r\n\r\n        _solutionOwners[solution_] = to;\r\n        _tokenURIOwners[tokenURI_] = to;\r\n\r\n        uint256 newPrice = _getEscalatedPrice(msg.value);\r\n\r\n        token.owner = to;\r\n        token.lastPrice = token.price;\r\n        token.price = newPrice;\r\n        token.isForSale = false;\r\n        token.lastTransactionTimestamp = block.timestamp;\r\n        token.transactionCount++;       \r\n\r\n        _tokens[tokenId] = token; \r\n    }\r\n    \r\n    function transfer(\r\n        uint256 tokenId,\r\n        address to\r\n    ) external payable onlyOwner {        \r\n        Token memory token = _validateTokenId(tokenId);\r\n        \r\n        require(token.owner != to, 'Buyer already owns token'); \r\n       \r\n        string memory solution_ = token.solution;\r\n        string memory tokenURI_ = token.url;\r\n  \r\n        _transfer(token.owner, to, tokenId);\r\n\r\n        _solutionOwners[solution_] = to;\r\n        _tokenURIOwners[tokenURI_] = to;\r\n\r\n        token.owner = to;\r\n        token.isForSale = false;\r\n        token.lastTransactionTimestamp = block.timestamp;\r\n        token.transactionCount++;       \r\n\r\n        _tokens[tokenId] = token; \r\n    }\r\n\r\n    function _getRoyalty(uint256 value) private view returns (uint256) {\r\n        return value.mul(_royaltyRate).div(10000);\r\n    }\r\n\r\n    function _getEscalatedPrice(uint256 value) private view returns (uint256) {\r\n        uint256 newPrice = value.mul(_priceEscalationRate).div(10000);\r\n\r\n        return newPrice.div(roundingDivisor).mul(roundingDivisor);  // round off new price to nearest 1/1000 eth\r\n    }\r\n  \r\n    // todo how to prevent base _transfer from being called directly\r\n\r\n    function transferFrom(\r\n        address /*from*/,\r\n        address /*to*/,\r\n        uint256 /*tokenId*/\r\n    ) public view override onlyOwner {\r\n    }\r\n\r\n    function safeTransferFrom(\r\n        address /*from*/,\r\n        address /*to*/,\r\n        uint256 /*tokenId*/\r\n    ) public view override onlyOwner {\r\n    }\r\n\r\n    function safeTransferFrom(\r\n        address /*from*/,\r\n        address /*to*/,\r\n        uint256 /*tokenId*/,\r\n        bytes memory /*_data*/\r\n    ) public view override onlyOwner {\r\n    }\r\n}",
  "sourcePath": "C:\\Dev\\Github\\ethordle\\contracts\\EthordleToken.sol",
  "compiler": {
    "name": "solc",
    "version": "0.8.1+commit.df193b15.Emscripten.clang"
  },
  "schemaVersion": "3.4.6",
  "updatedAt": "2022-05-03T15:56:40.198Z",
  "networkType": "ethereum",
  "devdoc": {
    "kind": "dev",
    "methods": {
      "approve(address,uint256)": {
        "details": "See {IERC721-approve}."
      },
      "balanceOf(address)": {
        "details": "See {IERC721-balanceOf}."
      },
      "getApproved(uint256)": {
        "details": "See {IERC721-getApproved}."
      },
      "isApprovedForAll(address,address)": {
        "details": "See {IERC721-isApprovedForAll}."
      },
      "name()": {
        "details": "See {IERC721Metadata-name}."
      },
      "owner()": {
        "details": "Returns the address of the current owner."
      },
      "ownerOf(uint256)": {
        "details": "See {IERC721-ownerOf}."
      },
      "renounceOwnership()": {
        "details": "Leaves the contract without owner. It will not be possible to call `onlyOwner` functions anymore. Can only be called by the current owner. NOTE: Renouncing ownership will leave the contract without an owner, thereby removing any functionality that is only available to the owner."
      },
      "setApprovalForAll(address,bool)": {
        "details": "See {IERC721-setApprovalForAll}."
      },
      "supportsInterface(bytes4)": {
        "details": "See {IERC165-supportsInterface}."
      },
      "symbol()": {
        "details": "See {IERC721Metadata-symbol}."
      },
      "tokenURI(uint256)": {
        "details": "See {IERC721Metadata-tokenURI}."
      },
      "transferOwnership(address)": {
        "details": "Transfers ownership of the contract to a new account (`newOwner`). Can only be called by the current owner."
      }
    },
    "version": 1
  },
  "userdoc": {
    "kind": "user",
    "methods": {},
    "version": 1
  }
}