{
  "contractName": "Ethordle",
  "abi": [
    {
      "constant": true,
      "inputs": [],
      "name": "playerCount",
      "outputs": [
        {
          "internalType": "uint256",
          "name": "",
          "type": "uint256"
        }
      ],
      "payable": false,
      "stateMutability": "view",
      "type": "function"
    },
    {
      "constant": true,
      "inputs": [
        {
          "internalType": "uint256",
          "name": "",
          "type": "uint256"
        }
      ],
      "name": "playerList",
      "outputs": [
        {
          "internalType": "address",
          "name": "",
          "type": "address"
        }
      ],
      "payable": false,
      "stateMutability": "view",
      "type": "function"
    },
    {
      "constant": true,
      "inputs": [
        {
          "internalType": "address",
          "name": "",
          "type": "address"
        }
      ],
      "name": "players",
      "outputs": [
        {
          "internalType": "uint256",
          "name": "id",
          "type": "uint256"
        },
        {
          "internalType": "uint256",
          "name": "wordCount",
          "type": "uint256"
        }
      ],
      "payable": false,
      "stateMutability": "view",
      "type": "function"
    },
    {
      "constant": false,
      "inputs": [
        {
          "internalType": "address",
          "name": "_player",
          "type": "address"
        },
        {
          "internalType": "string",
          "name": "_word",
          "type": "string"
        }
      ],
      "name": "registerSolution",
      "outputs": [],
      "payable": false,
      "stateMutability": "nonpayable",
      "type": "function"
    },
    {
      "constant": true,
      "inputs": [
        {
          "internalType": "address",
          "name": "_player",
          "type": "address"
        },
        {
          "internalType": "uint256",
          "name": "index",
          "type": "uint256"
        }
      ],
      "name": "getWord",
      "outputs": [
        {
          "internalType": "string",
          "name": "word",
          "type": "string"
        }
      ],
      "payable": false,
      "stateMutability": "view",
      "type": "function"
    }
  ],
  "bytecode": "0x60806040526000805534801561001457600080fd5b506108b6806100246000396000f3fe608060405234801561001057600080fd5b50600436106100575760003560e01c806317491bf21461005c578063302bcc57146101375780639f20a93014610155578063ae6d90731461021c578063e2eb41ff1461028a575b600080fd5b6101356004803603604081101561007257600080fd5b81019080803573ffffffffffffffffffffffffffffffffffffffff169060200190929190803590602001906401000000008111156100af57600080fd5b8201836020820111156100c157600080fd5b803590602001918460018302840111640100000000831117156100e357600080fd5b91908080601f016020809104026020016040519081016040528093929190818152602001838380828437600081840152601f19601f8201169050808301925050505050505091929192905050506102e9565b005b61013f6104a4565b6040518082815260200191505060405180910390f35b6101a16004803603604081101561016b57600080fd5b81019080803573ffffffffffffffffffffffffffffffffffffffff169060200190929190803590602001909291905050506104aa565b6040518080602001828103825283818151815260200191508051906020019080838360005b838110156101e15780820151818401526020810190506101c6565b50505050905090810190601f16801561020e5780820380516001836020036101000a031916815260200191505b509250505060405180910390f35b6102486004803603602081101561023257600080fd5b8101908080359060200190929190505050610607565b604051808273ffffffffffffffffffffffffffffffffffffffff1673ffffffffffffffffffffffffffffffffffffffff16815260200191505060405180910390f35b6102cc600480360360208110156102a057600080fd5b81019080803573ffffffffffffffffffffffffffffffffffffffff169060200190929190505050610643565b604051808381526020018281526020019250505060405180910390f35b6000600160008473ffffffffffffffffffffffffffffffffffffffff1673ffffffffffffffffffffffffffffffffffffffff1681526020019081526020016000206000015414156103cf57600080815480929190600101919050555061034d610667565b60005481600001818152505080600160008573ffffffffffffffffffffffffffffffffffffffff1673ffffffffffffffffffffffffffffffffffffffff168152602001908152602001600020600082015181600001556020820151816001015560408201518160020190805190602001906103c9929190610688565b50905050505b600160008373ffffffffffffffffffffffffffffffffffffffff1673ffffffffffffffffffffffffffffffffffffffff16815260200190815260200160002060010160008154809291906001019190505550600160008373ffffffffffffffffffffffffffffffffffffffff1673ffffffffffffffffffffffffffffffffffffffff16815260200190815260200160002060020181908060018154018082558091505090600182039060005260206000200160009091929091909150908051906020019061049e9291906106e8565b50505050565b60005481565b60606000600160008573ffffffffffffffffffffffffffffffffffffffff1673ffffffffffffffffffffffffffffffffffffffff16815260200190815260200160002060000154141561050e57604051806020016040528060008152509050610601565b600160008473ffffffffffffffffffffffffffffffffffffffff1673ffffffffffffffffffffffffffffffffffffffff168152602001908152602001600020600201828154811061055b57fe5b906000526020600020018054600181600116156101000203166002900480601f0160208091040260200160405190810160405280929190818152602001828054600181600116156101000203166002900480156105f95780601f106105ce576101008083540402835291602001916105f9565b820191906000526020600020905b8154815290600101906020018083116105dc57829003601f168201915b505050505090505b92915050565b6002818154811061061457fe5b906000526020600020016000915054906101000a900473ffffffffffffffffffffffffffffffffffffffff1681565b60016020528060005260406000206000915090508060000154908060010154905082565b60405180606001604052806000815260200160008152602001606081525090565b8280548282559060005260206000209081019282156106d7579160200282015b828111156106d65782518290805190602001906106c6929190610768565b50916020019190600101906106a8565b5b5090506106e491906107e8565b5090565b828054600181600116156101000203166002900490600052602060002090601f016020900481019282601f1061072957805160ff1916838001178555610757565b82800160010185558215610757579182015b8281111561075657825182559160200191906001019061073b565b5b5090506107649190610814565b5090565b828054600181600116156101000203166002900490600052602060002090601f016020900481019282601f106107a957805160ff19168380011785556107d7565b828001600101855582156107d7579182015b828111156107d65782518255916020019190600101906107bb565b5b5090506107e49190610814565b5090565b61081191905b8082111561080d57600081816108049190610839565b506001016107ee565b5090565b90565b61083691905b8082111561083257600081600090555060010161081a565b5090565b90565b50805460018160011615610100020316600290046000825580601f1061085f575061087e565b601f01602090049060005260206000209081019061087d9190610814565b5b5056fea265627a7a723158205eeb3e2df905ce99d52460b9f7ea98a58fafc05c5322d70e4e5785db2c93083764736f6c63430005100032",
  "source": "// SPDX-License-Identifier: MIT\r\npragma solidity >=0.4.22 <0.9.0;\r\n\r\ncontract Ethordle {\r\n    uint256 public playerCount = 0;\r\n\r\n    struct Player {\r\n        uint256 id;\r\n        uint256 wordCount;\r\n        string[] words;\r\n    }\r\n\r\n    mapping(address => Player) public players;\r\n    address[] public playerList;\r\n\r\n    function registerSolution(address _player, string memory _word) public {\r\n        if (players[_player].id == 0) {\r\n            playerCount++;\r\n            Player memory player;\r\n            player.id = playerCount;\r\n            players[_player] = player;\r\n        }\r\n\r\n        players[_player].wordCount++;\r\n        players[_player].words.push(_word);        \r\n    }\r\n\r\n    function getWord(address _player, uint256 index) public view returns (string memory word) {\r\n        if (players[_player].id == 0) {\r\n            word = \"\";\r\n        } else {\r\n            word = players[_player].words[index];\r\n        }\r\n    }\r\n}\r\n",
  "sourcePath": "C:\\Dev\\Github\\ethordle\\contracts\\Ethordle.sol",
  "compiler": {
    "name": "solc",
    "version": "0.5.16+commit.9c3226ce.Emscripten.clang"
  },
  "schemaVersion": "3.4.6",
  "updatedAt": "2022-03-22T18:28:19.019Z",
  "networkType": "ethereum",
  "devdoc": {
    "methods": {}
  },
  "userdoc": {
    "methods": {}
  }
}