{
  "contractName": "EthordleToken",
  "abi": [
    {
      "inputs": [
        {
          "internalType": "string",
          "name": "_name",
          "type": "string"
        },
        {
          "internalType": "string",
          "name": "_symbol",
          "type": "string"
        },
        {
          "internalType": "uint256",
          "name": "initialPrice_",
          "type": "uint256"
        },
        {
          "internalType": "uint256",
          "name": "royaltyRate_",
          "type": "uint256"
        },
        {
          "internalType": "uint256",
          "name": "priceEscalationRate_",
          "type": "uint256"
        }
      ],
      "stateMutability": "nonpayable",
      "type": "constructor"
    },
    {
      "anonymous": false,
      "inputs": [
        {
          "indexed": true,
          "internalType": "address",
          "name": "owner",
          "type": "address"
        },
        {
          "indexed": true,
          "internalType": "address",
          "name": "approved",
          "type": "address"
        },
        {
          "indexed": true,
          "internalType": "uint256",
          "name": "tokenId",
          "type": "uint256"
        }
      ],
      "name": "Approval",
      "type": "event"
    },
    {
      "anonymous": false,
      "inputs": [
        {
          "indexed": true,
          "internalType": "address",
          "name": "owner",
          "type": "address"
        },
        {
          "indexed": true,
          "internalType": "address",
          "name": "operator",
          "type": "address"
        },
        {
          "indexed": false,
          "internalType": "bool",
          "name": "approved",
          "type": "bool"
        }
      ],
      "name": "ApprovalForAll",
      "type": "event"
    },
    {
      "anonymous": false,
      "inputs": [
        {
          "indexed": true,
          "internalType": "address",
          "name": "previousOwner",
          "type": "address"
        },
        {
          "indexed": true,
          "internalType": "address",
          "name": "newOwner",
          "type": "address"
        }
      ],
      "name": "OwnershipTransferred",
      "type": "event"
    },
    {
      "anonymous": false,
      "inputs": [
        {
          "indexed": false,
          "internalType": "string",
          "name": "solution",
          "type": "string"
        },
        {
          "indexed": false,
          "internalType": "address payable",
          "name": "account",
          "type": "address"
        },
        {
          "indexed": false,
          "internalType": "uint256",
          "name": "tokenId",
          "type": "uint256"
        },
        {
          "indexed": false,
          "internalType": "string",
          "name": "metadataURI",
          "type": "string"
        }
      ],
      "name": "TokenMinted",
      "type": "event"
    },
    {
      "anonymous": false,
      "inputs": [
        {
          "indexed": true,
          "internalType": "address",
          "name": "from",
          "type": "address"
        },
        {
          "indexed": true,
          "internalType": "address",
          "name": "to",
          "type": "address"
        },
        {
          "indexed": true,
          "internalType": "uint256",
          "name": "tokenId",
          "type": "uint256"
        }
      ],
      "name": "Transfer",
      "type": "event"
    },
    {
      "inputs": [
        {
          "internalType": "uint256",
          "name": "",
          "type": "uint256"
        }
      ],
      "name": "_tokens",
      "outputs": [
        {
          "internalType": "uint256",
          "name": "id",
          "type": "uint256"
        },
        {
          "internalType": "address",
          "name": "owner",
          "type": "address"
        },
        {
          "internalType": "uint256",
          "name": "price",
          "type": "uint256"
        },
        {
          "internalType": "string",
          "name": "url",
          "type": "string"
        },
        {
          "internalType": "string",
          "name": "solution",
          "type": "string"
        },
        {
          "internalType": "uint256",
          "name": "transactionCount",
          "type": "uint256"
        }
      ],
      "stateMutability": "view",
      "type": "function",
      "constant": true
    },
    {
      "inputs": [
        {
          "internalType": "address",
          "name": "to",
          "type": "address"
        },
        {
          "internalType": "uint256",
          "name": "tokenId",
          "type": "uint256"
        }
      ],
      "name": "approve",
      "outputs": [],
      "stateMutability": "nonpayable",
      "type": "function"
    },
    {
      "inputs": [
        {
          "internalType": "address",
          "name": "owner",
          "type": "address"
        }
      ],
      "name": "balanceOf",
      "outputs": [
        {
          "internalType": "uint256",
          "name": "",
          "type": "uint256"
        }
      ],
      "stateMutability": "view",
      "type": "function",
      "constant": true
    },
    {
      "inputs": [
        {
          "internalType": "uint256",
          "name": "tokenId",
          "type": "uint256"
        }
      ],
      "name": "getApproved",
      "outputs": [
        {
          "internalType": "address",
          "name": "",
          "type": "address"
        }
      ],
      "stateMutability": "view",
      "type": "function",
      "constant": true
    },
    {
      "inputs": [
        {
          "internalType": "address",
          "name": "owner",
          "type": "address"
        },
        {
          "internalType": "address",
          "name": "operator",
          "type": "address"
        }
      ],
      "name": "isApprovedForAll",
      "outputs": [
        {
          "internalType": "bool",
          "name": "",
          "type": "bool"
        }
      ],
      "stateMutability": "view",
      "type": "function",
      "constant": true
    },
    {
      "inputs": [],
      "name": "name",
      "outputs": [
        {
          "internalType": "string",
          "name": "",
          "type": "string"
        }
      ],
      "stateMutability": "view",
      "type": "function",
      "constant": true
    },
    {
      "inputs": [],
      "name": "owner",
      "outputs": [
        {
          "internalType": "address",
          "name": "",
          "type": "address"
        }
      ],
      "stateMutability": "view",
      "type": "function",
      "constant": true
    },
    {
      "inputs": [
        {
          "internalType": "uint256",
          "name": "tokenId",
          "type": "uint256"
        }
      ],
      "name": "ownerOf",
      "outputs": [
        {
          "internalType": "address",
          "name": "",
          "type": "address"
        }
      ],
      "stateMutability": "view",
      "type": "function",
      "constant": true
    },
    {
      "inputs": [],
      "name": "renounceOwnership",
      "outputs": [],
      "stateMutability": "nonpayable",
      "type": "function"
    },
    {
      "inputs": [
        {
          "internalType": "address",
          "name": "operator",
          "type": "address"
        },
        {
          "internalType": "bool",
          "name": "approved",
          "type": "bool"
        }
      ],
      "name": "setApprovalForAll",
      "outputs": [],
      "stateMutability": "nonpayable",
      "type": "function"
    },
    {
      "inputs": [
        {
          "internalType": "bytes4",
          "name": "interfaceId",
          "type": "bytes4"
        }
      ],
      "name": "supportsInterface",
      "outputs": [
        {
          "internalType": "bool",
          "name": "",
          "type": "bool"
        }
      ],
      "stateMutability": "view",
      "type": "function",
      "constant": true
    },
    {
      "inputs": [],
      "name": "symbol",
      "outputs": [
        {
          "internalType": "string",
          "name": "",
          "type": "string"
        }
      ],
      "stateMutability": "view",
      "type": "function",
      "constant": true
    },
    {
      "inputs": [
        {
          "internalType": "address",
          "name": "newOwner",
          "type": "address"
        }
      ],
      "name": "transferOwnership",
      "outputs": [],
      "stateMutability": "nonpayable",
      "type": "function"
    },
    {
      "inputs": [
        {
          "internalType": "uint256",
          "name": "initialPrice_",
          "type": "uint256"
        }
      ],
      "name": "setInitialPrice",
      "outputs": [],
      "stateMutability": "nonpayable",
      "type": "function"
    },
    {
      "inputs": [],
      "name": "initialPrice",
      "outputs": [
        {
          "internalType": "uint256",
          "name": "",
          "type": "uint256"
        }
      ],
      "stateMutability": "view",
      "type": "function",
      "constant": true
    },
    {
      "inputs": [
        {
          "internalType": "uint256",
          "name": "royaltyRate_",
          "type": "uint256"
        }
      ],
      "name": "setRoyaltyRate",
      "outputs": [],
      "stateMutability": "nonpayable",
      "type": "function"
    },
    {
      "inputs": [],
      "name": "royaltyRate",
      "outputs": [
        {
          "internalType": "uint256",
          "name": "",
          "type": "uint256"
        }
      ],
      "stateMutability": "view",
      "type": "function",
      "constant": true
    },
    {
      "inputs": [
        {
          "internalType": "uint256",
          "name": "priceEscalationRate_",
          "type": "uint256"
        }
      ],
      "name": "setPriceEscalationRate",
      "outputs": [],
      "stateMutability": "nonpayable",
      "type": "function"
    },
    {
      "inputs": [],
      "name": "tokenCount",
      "outputs": [
        {
          "internalType": "uint256",
          "name": "",
          "type": "uint256"
        }
      ],
      "stateMutability": "view",
      "type": "function",
      "constant": true
    },
    {
      "inputs": [
        {
          "internalType": "uint256",
          "name": "tokenId",
          "type": "uint256"
        }
      ],
      "name": "tokenById",
      "outputs": [
        {
          "components": [
            {
              "internalType": "uint256",
              "name": "id",
              "type": "uint256"
            },
            {
              "internalType": "address",
              "name": "owner",
              "type": "address"
            },
            {
              "internalType": "uint256",
              "name": "price",
              "type": "uint256"
            },
            {
              "internalType": "string",
              "name": "url",
              "type": "string"
            },
            {
              "internalType": "string",
              "name": "solution",
              "type": "string"
            },
            {
              "internalType": "uint256",
              "name": "transactionCount",
              "type": "uint256"
            }
          ],
          "internalType": "struct EthordleToken.Token",
          "name": "",
          "type": "tuple"
        }
      ],
      "stateMutability": "view",
      "type": "function",
      "constant": true
    },
    {
      "inputs": [
        {
          "internalType": "address",
          "name": "_from",
          "type": "address"
        }
      ],
      "name": "tokensOfOwner",
      "outputs": [
        {
          "components": [
            {
              "internalType": "uint256",
              "name": "id",
              "type": "uint256"
            },
            {
              "internalType": "address",
              "name": "owner",
              "type": "address"
            },
            {
              "internalType": "uint256",
              "name": "price",
              "type": "uint256"
            },
            {
              "internalType": "string",
              "name": "url",
              "type": "string"
            },
            {
              "internalType": "string",
              "name": "solution",
              "type": "string"
            },
            {
              "internalType": "uint256",
              "name": "transactionCount",
              "type": "uint256"
            }
          ],
          "internalType": "struct EthordleToken.Token[]",
          "name": "",
          "type": "tuple[]"
        }
      ],
      "stateMutability": "view",
      "type": "function",
      "constant": true
    },
    {
      "inputs": [],
      "name": "tokens",
      "outputs": [
        {
          "components": [
            {
              "internalType": "uint256",
              "name": "id",
              "type": "uint256"
            },
            {
              "internalType": "address",
              "name": "owner",
              "type": "address"
            },
            {
              "internalType": "uint256",
              "name": "price",
              "type": "uint256"
            },
            {
              "internalType": "string",
              "name": "url",
              "type": "string"
            },
            {
              "internalType": "string",
              "name": "solution",
              "type": "string"
            },
            {
              "internalType": "uint256",
              "name": "transactionCount",
              "type": "uint256"
            }
          ],
          "internalType": "struct EthordleToken.Token[]",
          "name": "",
          "type": "tuple[]"
        }
      ],
      "stateMutability": "view",
      "type": "function",
      "constant": true
    },
    {
      "inputs": [
        {
          "internalType": "string",
          "name": "baseURI",
          "type": "string"
        }
      ],
      "name": "setBaseURI",
      "outputs": [],
      "stateMutability": "nonpayable",
      "type": "function"
    },
    {
      "inputs": [
        {
          "internalType": "string",
          "name": "solution_",
          "type": "string"
        }
      ],
      "name": "isSolutionUnique",
      "outputs": [
        {
          "internalType": "bool",
          "name": "",
          "type": "bool"
        }
      ],
      "stateMutability": "view",
      "type": "function",
      "constant": true
    },
    {
      "inputs": [
        {
          "internalType": "uint256",
          "name": "tokenId",
          "type": "uint256"
        }
      ],
      "name": "tokenURI",
      "outputs": [
        {
          "internalType": "string",
          "name": "",
          "type": "string"
        }
      ],
      "stateMutability": "view",
      "type": "function",
      "constant": true
    },
    {
      "inputs": [
        {
          "internalType": "address payable",
          "name": "to",
          "type": "address"
        },
        {
          "internalType": "string",
          "name": "solution_",
          "type": "string"
        },
        {
          "internalType": "string",
          "name": "tokenURI_",
          "type": "string"
        }
      ],
      "name": "mint",
      "outputs": [],
      "stateMutability": "payable",
      "type": "function",
      "payable": true
    },
    {
      "inputs": [
        {
          "internalType": "address",
          "name": "to",
          "type": "address"
        },
        {
          "internalType": "uint256",
          "name": "tokenId",
          "type": "uint256"
        }
      ],
      "name": "buy",
      "outputs": [],
      "stateMutability": "payable",
      "type": "function",
      "payable": true
    },
    {
      "inputs": [
        {
          "internalType": "address",
          "name": "",
          "type": "address"
        },
        {
          "internalType": "address",
          "name": "",
          "type": "address"
        },
        {
          "internalType": "uint256",
          "name": "",
          "type": "uint256"
        }
      ],
      "name": "transferFrom",
      "outputs": [],
      "stateMutability": "view",
      "type": "function",
      "constant": true
    },
    {
      "inputs": [
        {
          "internalType": "address",
          "name": "",
          "type": "address"
        },
        {
          "internalType": "address",
          "name": "",
          "type": "address"
        },
        {
          "internalType": "uint256",
          "name": "",
          "type": "uint256"
        }
      ],
      "name": "safeTransferFrom",
      "outputs": [],
      "stateMutability": "view",
      "type": "function",
      "constant": true
    },
    {
      "inputs": [
        {
          "internalType": "address",
          "name": "",
          "type": "address"
        },
        {
          "internalType": "address",
          "name": "",
          "type": "address"
        },
        {
          "internalType": "uint256",
          "name": "",
          "type": "uint256"
        },
        {
          "internalType": "bytes",
          "name": "",
          "type": "bytes"
        }
      ],
      "name": "safeTransferFrom",
      "outputs": [],
      "stateMutability": "view",
      "type": "function",
      "constant": true
    }
  ],
  "bytecode": "0x60806040523480156200001157600080fd5b50604051620051b3380380620051b38339818101604052810190620000379190620002fd565b8484816000908051906020019062000051929190620001c4565b5080600190805190602001906200006a929190620001c4565b5050506200008d62000081620000f660201b60201c565b620000fe60201b60201c565b33600a60006101000a81548173ffffffffffffffffffffffffffffffffffffffff021916908373ffffffffffffffffffffffffffffffffffffffff1602179055506000600e8190555082600b8190555081600c8190555080600d81905550505050505062000545565b600033905090565b6000600660009054906101000a900473ffffffffffffffffffffffffffffffffffffffff16905081600660006101000a81548173ffffffffffffffffffffffffffffffffffffffff021916908373ffffffffffffffffffffffffffffffffffffffff1602179055508173ffffffffffffffffffffffffffffffffffffffff168173ffffffffffffffffffffffffffffffffffffffff167f8be0079c531659141344cd1fd0a4f28419497f9722a3daafe3b4186f6b6457e060405160405180910390a35050565b828054620001d29062000450565b90600052602060002090601f016020900481019282620001f6576000855562000242565b82601f106200021157805160ff191683800117855562000242565b8280016001018555821562000242579182015b828111156200024157825182559160200191906001019062000224565b5b50905062000251919062000255565b5090565b5b808211156200027057600081600090555060010162000256565b5090565b60006200028b6200028584620003da565b620003b1565b905082815260208101848484011115620002a457600080fd5b620002b18482856200041a565b509392505050565b600082601f830112620002cb57600080fd5b8151620002dd84826020860162000274565b91505092915050565b600081519050620002f7816200052b565b92915050565b600080600080600060a086880312156200031657600080fd5b600086015167ffffffffffffffff8111156200033157600080fd5b6200033f88828901620002b9565b955050602086015167ffffffffffffffff8111156200035d57600080fd5b6200036b88828901620002b9565b94505060406200037e88828901620002e6565b93505060606200039188828901620002e6565b9250506080620003a488828901620002e6565b9150509295509295909350565b6000620003bd620003d0565b9050620003cb828262000486565b919050565b6000604051905090565b600067ffffffffffffffff821115620003f857620003f7620004eb565b5b62000403826200051a565b9050602081019050919050565b6000819050919050565b60005b838110156200043a5780820151818401526020810190506200041d565b838111156200044a576000848401525b50505050565b600060028204905060018216806200046957607f821691505b6020821081141562000480576200047f620004bc565b5b50919050565b62000491826200051a565b810181811067ffffffffffffffff82111715620004b357620004b2620004eb565b5b80604052505050565b7f4e487b7100000000000000000000000000000000000000000000000000000000600052602260045260246000fd5b7f4e487b7100000000000000000000000000000000000000000000000000000000600052604160045260246000fd5b6000601f19601f8301169050919050565b620005368162000410565b81146200054257600080fd5b50565b614c5e80620005556000396000f3fe6080604052600436106101cd5760003560e01c806395d89b41116100f7578063a5a0258411610095578063cce7ec1311610064578063cce7ec131461068b578063e985e9c5146106a7578063ed70554d146106e4578063f2fde38b14610726576101cd565b8063a5a02584146105bd578063b88d4fde146105fa578063c4d1510d14610623578063c87b56dd1461064e576101cd565b80639f181b5e116100d15780639f181b5e146105175780639f4ba0ee14610542578063a129ece91461056b578063a22cb46514610594576101cd565b806395d89b41146104a557806399071190146104d05780639d63848a146104ec576101cd565b8063537782a21161016f57806370a082311161013e57806370a08231146103e9578063715018a6146104265780638462151c1461043d5780638da5cb5b1461047a576101cd565b8063537782a21461031d57806355f804b3146103465780636352211e1461036f5780636b6af2d5146103ac576101cd565b8063095ea7b3116101ab578063095ea7b3146102775780631d0806ae146102a057806323b872dd146102cb57806342842e0e146102f4576101cd565b806301ffc9a7146101d257806306fdde031461020f578063081812fc1461023a575b600080fd5b3480156101de57600080fd5b506101f960048036038101906101f491906137a8565b61074f565b6040516102069190613e14565b60405180910390f35b34801561021b57600080fd5b50610224610831565b6040516102319190613e2f565b60405180910390f35b34801561024657600080fd5b50610261600480360381019061025c9190613812565b6108c3565b60405161026e9190613dd7565b60405180910390f35b34801561028357600080fd5b5061029e6004803603810190610299919061372b565b610948565b005b3480156102ac57600080fd5b506102b5610a60565b6040516102c29190614166565b60405180910390f35b3480156102d757600080fd5b506102f260048036038101906102ed9190613625565b610a6a565b005b34801561030057600080fd5b5061031b60048036038101906103169190613625565b610aff565b005b34801561032957600080fd5b50610344600480360381019061033f9190613812565b610b94565b005b34801561035257600080fd5b5061036d600480360381019061036891906137d1565b610c1a565b005b34801561037b57600080fd5b5061039660048036038101906103919190613812565b610cb0565b6040516103a39190613dd7565b60405180910390f35b3480156103b857600080fd5b506103d360048036038101906103ce9190613812565b610d62565b6040516103e09190614144565b60405180910390f35b3480156103f557600080fd5b50610410600480360381019061040b9190613541565b610fbd565b60405161041d9190614166565b60405180910390f35b34801561043257600080fd5b5061043b611075565b005b34801561044957600080fd5b50610464600480360381019061045f9190613541565b6110fd565b6040516104719190613df2565b60405180910390f35b34801561048657600080fd5b5061048f611355565b60405161049c9190613dd7565b60405180910390f35b3480156104b157600080fd5b506104ba61137f565b6040516104c79190613e2f565b60405180910390f35b6104ea60048036038101906104e5919061356a565b611411565b005b3480156104f857600080fd5b506105016118f7565b60405161050e9190613df2565b60405180910390f35b34801561052357600080fd5b5061052c611b9b565b6040516105399190614166565b60405180910390f35b34801561054e57600080fd5b5061056960048036038101906105649190613812565b611ba5565b005b34801561057757600080fd5b50610592600480360381019061058d9190613812565b611c2b565b005b3480156105a057600080fd5b506105bb60048036038101906105b691906136ef565b611cb1565b005b3480156105c957600080fd5b506105e460048036038101906105df91906137d1565b611cc7565b6040516105f19190613e14565b60405180910390f35b34801561060657600080fd5b50610621600480360381019061061c9190613674565b611d3d565b005b34801561062f57600080fd5b50610638611dd3565b6040516106459190614166565b60405180910390f35b34801561065a57600080fd5b5061067560048036038101906106709190613812565b611ddd565b6040516106829190613e2f565b60405180910390f35b6106a560048036038101906106a0919061372b565b611ecd565b005b3480156106b357600080fd5b506106ce60048036038101906106c991906135e9565b6124d9565b6040516106db9190613e14565b60405180910390f35b3480156106f057600080fd5b5061070b60048036038101906107069190613812565b61256d565b60405161071d96959493929190614181565b60405180910390f35b34801561073257600080fd5b5061074d60048036038101906107489190613541565b6126d9565b005b60007f80ac58cd000000000000000000000000000000000000000000000000000000007bffffffffffffffffffffffffffffffffffffffffffffffffffffffff1916827bffffffffffffffffffffffffffffffffffffffffffffffffffffffff1916148061081a57507f5b5e139f000000000000000000000000000000000000000000000000000000007bffffffffffffffffffffffffffffffffffffffffffffffffffffffff1916827bffffffffffffffffffffffffffffffffffffffffffffffffffffffff1916145b8061082a5750610829826127d1565b5b9050919050565b606060008054610840906144f1565b80601f016020809104026020016040519081016040528092919081815260200182805461086c906144f1565b80156108b95780601f1061088e576101008083540402835291602001916108b9565b820191906000526020600020905b81548152906001019060200180831161089c57829003601f168201915b5050505050905090565b60006108ce8261283b565b61090d576040517f08c379a000000000000000000000000000000000000000000000000000000000815260040161090490614084565b60405180910390fd5b6004600083815260200190815260200160002060009054906101000a900473ffffffffffffffffffffffffffffffffffffffff169050919050565b600061095382610cb0565b90508073ffffffffffffffffffffffffffffffffffffffff168373ffffffffffffffffffffffffffffffffffffffff1614156109c4576040517f08c379a00000000000000000000000000000000000000000000000000000000081526004016109bb906140e4565b60405180910390fd5b8073ffffffffffffffffffffffffffffffffffffffff166109e36128a7565b73ffffffffffffffffffffffffffffffffffffffff161480610a125750610a1181610a0c6128a7565b6124d9565b5b610a51576040517f08c379a0000000000000000000000000000000000000000000000000000000008152600401610a4890613fe4565b60405180910390fd5b610a5b83836128af565b505050565b6000600b54905090565b600a60009054906101000a900473ffffffffffffffffffffffffffffffffffffffff1673ffffffffffffffffffffffffffffffffffffffff163373ffffffffffffffffffffffffffffffffffffffff1614610afa576040517f08c379a0000000000000000000000000000000000000000000000000000000008152600401610af190613f64565b60405180910390fd5b505050565b600a60009054906101000a900473ffffffffffffffffffffffffffffffffffffffff1673ffffffffffffffffffffffffffffffffffffffff163373ffffffffffffffffffffffffffffffffffffffff1614610b8f576040517f08c379a0000000000000000000000000000000000000000000000000000000008152600401610b8690613f64565b60405180910390fd5b505050565b610b9c6128a7565b73ffffffffffffffffffffffffffffffffffffffff16610bba611355565b73ffffffffffffffffffffffffffffffffffffffff1614610c10576040517f08c379a0000000000000000000000000000000000000000000000000000000008152600401610c07906140c4565b60405180910390fd5b80600c8190555050565b610c226128a7565b73ffffffffffffffffffffffffffffffffffffffff16610c40611355565b73ffffffffffffffffffffffffffffffffffffffff1614610c96576040517f08c379a0000000000000000000000000000000000000000000000000000000008152600401610c8d906140c4565b60405180910390fd5b80600f9080519060200190610cac929190613134565b5050565b6000806002600084815260200190815260200160002060009054906101000a900473ffffffffffffffffffffffffffffffffffffffff169050600073ffffffffffffffffffffffffffffffffffffffff168173ffffffffffffffffffffffffffffffffffffffff161415610d59576040517f08c379a0000000000000000000000000000000000000000000000000000000008152600401610d5090614024565b60405180910390fd5b80915050919050565b610d6a6131ba565b610d738261283b565b610db2576040517f08c379a0000000000000000000000000000000000000000000000000000000008152600401610da990614104565b60405180910390fd5b6000600760008481526020019081526020016000206040518060c0016040529081600082015481526020016001820160009054906101000a900473ffffffffffffffffffffffffffffffffffffffff1673ffffffffffffffffffffffffffffffffffffffff1673ffffffffffffffffffffffffffffffffffffffff16815260200160028201548152602001600382018054610e4c906144f1565b80601f0160208091040260200160405190810160405280929190818152602001828054610e78906144f1565b8015610ec55780601f10610e9a57610100808354040283529160200191610ec5565b820191906000526020600020905b815481529060010190602001808311610ea857829003601f168201915b50505050508152602001600482018054610ede906144f1565b80601f0160208091040260200160405190810160405280929190818152602001828054610f0a906144f1565b8015610f575780601f10610f2c57610100808354040283529160200191610f57565b820191906000526020600020905b815481529060010190602001808311610f3a57829003601f168201915b505050505081526020016005820154815250509050610f758361283b565b610fb4576040517f08c379a0000000000000000000000000000000000000000000000000000000008152600401610fab90613f84565b60405180910390fd5b80915050919050565b60008073ffffffffffffffffffffffffffffffffffffffff168273ffffffffffffffffffffffffffffffffffffffff16141561102e576040517f08c379a000000000000000000000000000000000000000000000000000000000815260040161102590614004565b60405180910390fd5b600360008373ffffffffffffffffffffffffffffffffffffffff1673ffffffffffffffffffffffffffffffffffffffff168152602001908152602001600020549050919050565b61107d6128a7565b73ffffffffffffffffffffffffffffffffffffffff1661109b611355565b73ffffffffffffffffffffffffffffffffffffffff16146110f1576040517f08c379a00000000000000000000000000000000000000000000000000000000081526004016110e8906140c4565b60405180910390fd5b6110fb6000612968565b565b6060600061110a83610fbd565b90506000808267ffffffffffffffff81111561114f577f4e487b7100000000000000000000000000000000000000000000000000000000600052604160045260246000fd5b60405190808252806020026020018201604052801561118857816020015b6111756131ba565b81526020019060019003908161116d5790505b509050600083111561134a5760003073ffffffffffffffffffffffffffffffffffffffff16639d63848a6040518163ffffffff1660e01b815260040160006040518083038186803b1580156111dc57600080fd5b505afa1580156111f0573d6000803e3d6000fd5b505050506040513d6000823e3d601f19601f820116820180604052508101906112199190613767565b905060005b600e54811015611347578673ffffffffffffffffffffffffffffffffffffffff16828281518110611278577f4e487b7100000000000000000000000000000000000000000000000000000000600052603260045260246000fd5b60200260200101516020015173ffffffffffffffffffffffffffffffffffffffff161415611334578181815181106112d9577f4e487b7100000000000000000000000000000000000000000000000000000000600052603260045260246000fd5b602002602001015183858151811061131a577f4e487b7100000000000000000000000000000000000000000000000000000000600052603260045260246000fd5b6020026020010181905250838061133090614554565b9450505b808061133f90614554565b91505061121e565b50505b809350505050919050565b6000600660009054906101000a900473ffffffffffffffffffffffffffffffffffffffff16905090565b60606001805461138e906144f1565b80601f01602080910402602001604051908101604052809291908181526020018280546113ba906144f1565b80156114075780601f106113dc57610100808354040283529160200191611407565b820191906000526020600020905b8154815290600101906020018083116113ea57829003601f168201915b5050505050905090565b8273ffffffffffffffffffffffffffffffffffffffff163373ffffffffffffffffffffffffffffffffffffffff1614806114985750600a60009054906101000a900473ffffffffffffffffffffffffffffffffffffffff1673ffffffffffffffffffffffffffffffffffffffff163373ffffffffffffffffffffffffffffffffffffffff16145b6114d7576040517f08c379a00000000000000000000000000000000000000000000000000000000081526004016114ce906140a4565b60405180910390fd5b600b5434101561151c576040517f08c379a000000000000000000000000000000000000000000000000000000000815260040161151390614124565b60405180910390fd5b600073ffffffffffffffffffffffffffffffffffffffff166008836040516115449190613dc0565b908152602001604051809103902060009054906101000a900473ffffffffffffffffffffffffffffffffffffffff1673ffffffffffffffffffffffffffffffffffffffff16146115c9576040517f08c379a00000000000000000000000000000000000000000000000000000000081526004016115c090614044565b60405180910390fd5b600073ffffffffffffffffffffffffffffffffffffffff166009826040516115f19190613dc0565b908152602001604051809103902060009054906101000a900473ffffffffffffffffffffffffffffffffffffffff1673ffffffffffffffffffffffffffffffffffffffff1614611676576040517f08c379a000000000000000000000000000000000000000000000000000000000815260040161166d90613ea4565b60405180910390fd5b61167e611355565b73ffffffffffffffffffffffffffffffffffffffff166108fc349081150290604051600060405180830381858888f193505050501580156116c3573d6000803e3d6000fd5b506116d083600e54612a2e565b60006116db34612c08565b905060006040518060c00160405280600e5481526020018673ffffffffffffffffffffffffffffffffffffffff168152602001838152602001848152602001858152602001600181525090508060076000600e5481526020019081526020016000206000820151816000015560208201518160010160006101000a81548173ffffffffffffffffffffffffffffffffffffffff021916908373ffffffffffffffffffffffffffffffffffffffff1602179055506040820151816002015560608201518160030190805190602001906117b4929190613134565b5060808201518160040190805190602001906117d1929190613134565b5060a08201518160050155905050846008856040516117f09190613dc0565b908152602001604051809103902060006101000a81548173ffffffffffffffffffffffffffffffffffffffff021916908373ffffffffffffffffffffffffffffffffffffffff1602179055508460098460405161184d9190613dc0565b908152602001604051809103902060006101000a81548173ffffffffffffffffffffffffffffffffffffffff021916908373ffffffffffffffffffffffffffffffffffffffff160217905550600e60008154809291906118ac90614554565b91905055507f69e2cadceb55416f48e5a82e3641de7889495c2e02c86d37aaa313d121e8e7428486600e54866040516118e89493929190613e51565b60405180910390a15050505050565b60606000600e5467ffffffffffffffff81111561193d577f4e487b7100000000000000000000000000000000000000000000000000000000600052604160045260246000fd5b60405190808252806020026020018201604052801561197657816020015b6119636131ba565b81526020019060019003908161195b5790505b50905060005b600e54811015611b9357600760008281526020019081526020016000206040518060c0016040529081600082015481526020016001820160009054906101000a900473ffffffffffffffffffffffffffffffffffffffff1673ffffffffffffffffffffffffffffffffffffffff1673ffffffffffffffffffffffffffffffffffffffff16815260200160028201548152602001600382018054611a1e906144f1565b80601f0160208091040260200160405190810160405280929190818152602001828054611a4a906144f1565b8015611a975780601f10611a6c57610100808354040283529160200191611a97565b820191906000526020600020905b815481529060010190602001808311611a7a57829003601f168201915b50505050508152602001600482018054611ab0906144f1565b80601f0160208091040260200160405190810160405280929190818152602001828054611adc906144f1565b8015611b295780601f10611afe57610100808354040283529160200191611b29565b820191906000526020600020905b815481529060010190602001808311611b0c57829003601f168201915b50505050508152602001600582015481525050828281518110611b75577f4e487b7100000000000000000000000000000000000000000000000000000000600052603260045260246000fd5b60200260200101819052508080611b8b90614554565b91505061197c565b508091505090565b6000600e54905090565b611bad6128a7565b73ffffffffffffffffffffffffffffffffffffffff16611bcb611355565b73ffffffffffffffffffffffffffffffffffffffff1614611c21576040517f08c379a0000000000000000000000000000000000000000000000000000000008152600401611c18906140c4565b60405180910390fd5b80600b8190555050565b611c336128a7565b73ffffffffffffffffffffffffffffffffffffffff16611c51611355565b73ffffffffffffffffffffffffffffffffffffffff1614611ca7576040517f08c379a0000000000000000000000000000000000000000000000000000000008152600401611c9e906140c4565b60405180910390fd5b80600d8190555050565b611cc3611cbc6128a7565b8383612c54565b5050565b60008073ffffffffffffffffffffffffffffffffffffffff16600883604051611cf09190613dc0565b908152602001604051809103902060009054906101000a900473ffffffffffffffffffffffffffffffffffffffff1673ffffffffffffffffffffffffffffffffffffffff16149050919050565b600a60009054906101000a900473ffffffffffffffffffffffffffffffffffffffff1673ffffffffffffffffffffffffffffffffffffffff163373ffffffffffffffffffffffffffffffffffffffff1614611dcd576040517f08c379a0000000000000000000000000000000000000000000000000000000008152600401611dc490613f64565b60405180910390fd5b50505050565b6000600c54905090565b6060611de88261283b565b611e27576040517f08c379a0000000000000000000000000000000000000000000000000000000008152600401611e1e90614104565b60405180910390fd5b600760008381526020019081526020016000206003018054611e48906144f1565b80601f0160208091040260200160405190810160405280929190818152602001828054611e74906144f1565b8015611ec15780601f10611e9657610100808354040283529160200191611ec1565b820191906000526020600020905b815481529060010190602001808311611ea457829003601f168201915b50505050509050919050565b8173ffffffffffffffffffffffffffffffffffffffff163373ffffffffffffffffffffffffffffffffffffffff1614611f3b576040517f08c379a0000000000000000000000000000000000000000000000000000000008152600401611f32906140a4565b60405180910390fd5b611f448161283b565b611f83576040517f08c379a0000000000000000000000000000000000000000000000000000000008152600401611f7a90614104565b60405180910390fd5b611f94611f8e6128a7565b82612dc1565b15611fd4576040517f08c379a0000000000000000000000000000000000000000000000000000000008152600401611fcb90613fc4565b60405180910390fd5b6000600760008381526020019081526020016000206040518060c0016040529081600082015481526020016001820160009054906101000a900473ffffffffffffffffffffffffffffffffffffffff1673ffffffffffffffffffffffffffffffffffffffff1673ffffffffffffffffffffffffffffffffffffffff1681526020016002820154815260200160038201805461206e906144f1565b80601f016020809104026020016040519081016040528092919081815260200182805461209a906144f1565b80156120e75780601f106120bc576101008083540402835291602001916120e7565b820191906000526020600020905b8154815290600101906020018083116120ca57829003601f168201915b50505050508152602001600482018054612100906144f1565b80601f016020809104026020016040519081016040528092919081815260200182805461212c906144f1565b80156121795780601f1061214e57610100808354040283529160200191612179565b820191906000526020600020905b81548152906001019060200180831161215c57829003601f168201915b50505050508152602001600582015481525050905061219b816000015161283b565b6121da576040517f08c379a00000000000000000000000000000000000000000000000000000000081526004016121d190613f84565b60405180910390fd5b8060400151341015612221576040517f08c379a000000000000000000000000000000000000000000000000000000000815260040161221890614124565b60405180910390fd5b600081608001519050600082606001519050600083602001519050600061224734612e9f565b90506000813461225791906143f5565b9050612261611355565b73ffffffffffffffffffffffffffffffffffffffff166108fc839081150290604051600060405180830381858888f193505050501580156122a6573d6000803e3d6000fd5b508273ffffffffffffffffffffffffffffffffffffffff166108fc829081150290604051600060405180830381858888f193505050501580156122ed573d6000803e3d6000fd5b506122f9838989612ec3565b8760088660405161230a9190613dc0565b908152602001604051809103902060006101000a81548173ffffffffffffffffffffffffffffffffffffffff021916908373ffffffffffffffffffffffffffffffffffffffff160217905550876009856040516123679190613dc0565b908152602001604051809103902060006101000a81548173ffffffffffffffffffffffffffffffffffffffff021916908373ffffffffffffffffffffffffffffffffffffffff16021790555060006123be34612c08565b905088876020019073ffffffffffffffffffffffffffffffffffffffff16908173ffffffffffffffffffffffffffffffffffffffff1681525050808760400181815250508660a001805180919061241490614554565b8152505086600760008a81526020019081526020016000206000820151816000015560208201518160010160006101000a81548173ffffffffffffffffffffffffffffffffffffffff021916908373ffffffffffffffffffffffffffffffffffffffff1602179055506040820151816002015560608201518160030190805190602001906124a3929190613134565b5060808201518160040190805190602001906124c0929190613134565b5060a08201518160050155905050505050505050505050565b6000600560008473ffffffffffffffffffffffffffffffffffffffff1673ffffffffffffffffffffffffffffffffffffffff16815260200190815260200160002060008373ffffffffffffffffffffffffffffffffffffffff1673ffffffffffffffffffffffffffffffffffffffff16815260200190815260200160002060009054906101000a900460ff16905092915050565b60076020528060005260406000206000915090508060000154908060010160009054906101000a900473ffffffffffffffffffffffffffffffffffffffff16908060020154908060030180546125c2906144f1565b80601f01602080910402602001604051908101604052809291908181526020018280546125ee906144f1565b801561263b5780601f106126105761010080835404028352916020019161263b565b820191906000526020600020905b81548152906001019060200180831161261e57829003601f168201915b505050505090806004018054612650906144f1565b80601f016020809104026020016040519081016040528092919081815260200182805461267c906144f1565b80156126c95780601f1061269e576101008083540402835291602001916126c9565b820191906000526020600020905b8154815290600101906020018083116126ac57829003601f168201915b5050505050908060050154905086565b6126e16128a7565b73ffffffffffffffffffffffffffffffffffffffff166126ff611355565b73ffffffffffffffffffffffffffffffffffffffff1614612755576040517f08c379a000000000000000000000000000000000000000000000000000000000815260040161274c906140c4565b60405180910390fd5b600073ffffffffffffffffffffffffffffffffffffffff168173ffffffffffffffffffffffffffffffffffffffff1614156127c5576040517f08c379a00000000000000000000000000000000000000000000000000000000081526004016127bc90613ec4565b60405180910390fd5b6127ce81612968565b50565b60007f01ffc9a7000000000000000000000000000000000000000000000000000000007bffffffffffffffffffffffffffffffffffffffffffffffffffffffff1916827bffffffffffffffffffffffffffffffffffffffffffffffffffffffff1916149050919050565b60008073ffffffffffffffffffffffffffffffffffffffff166002600084815260200190815260200160002060009054906101000a900473ffffffffffffffffffffffffffffffffffffffff1673ffffffffffffffffffffffffffffffffffffffff1614159050919050565b600033905090565b816004600083815260200190815260200160002060006101000a81548173ffffffffffffffffffffffffffffffffffffffff021916908373ffffffffffffffffffffffffffffffffffffffff160217905550808273ffffffffffffffffffffffffffffffffffffffff1661292283610cb0565b73ffffffffffffffffffffffffffffffffffffffff167f8c5be1e5ebec7d5bd14f71427d1e84f3dd0314c0f7b2291e5b200ac8c7c3b92560405160405180910390a45050565b6000600660009054906101000a900473ffffffffffffffffffffffffffffffffffffffff16905081600660006101000a81548173ffffffffffffffffffffffffffffffffffffffff021916908373ffffffffffffffffffffffffffffffffffffffff1602179055508173ffffffffffffffffffffffffffffffffffffffff168173ffffffffffffffffffffffffffffffffffffffff167f8be0079c531659141344cd1fd0a4f28419497f9722a3daafe3b4186f6b6457e060405160405180910390a35050565b600073ffffffffffffffffffffffffffffffffffffffff168273ffffffffffffffffffffffffffffffffffffffff161415612a9e576040517f08c379a0000000000000000000000000000000000000000000000000000000008152600401612a9590614064565b60405180910390fd5b612aa78161283b565b15612ae7576040517f08c379a0000000000000000000000000000000000000000000000000000000008152600401612ade90613f04565b60405180910390fd5b612af36000838361312a565b6001600360008473ffffffffffffffffffffffffffffffffffffffff1673ffffffffffffffffffffffffffffffffffffffff1681526020019081526020016000206000828254612b439190614314565b92505081905550816002600083815260200190815260200160002060006101000a81548173ffffffffffffffffffffffffffffffffffffffff021916908373ffffffffffffffffffffffffffffffffffffffff160217905550808273ffffffffffffffffffffffffffffffffffffffff16600073ffffffffffffffffffffffffffffffffffffffff167fddf252ad1be2c89b69c2b068fc378daa952ba7f163c4a11628f55a4df523b3ef60405160405180910390a4612c046000838361312f565b5050565b60008066038d7ea4c6800090506000612710600d5485612c28919061439b565b612c32919061436a565b9050818282612c41919061436a565b612c4b919061439b565b92505050919050565b8173ffffffffffffffffffffffffffffffffffffffff168373ffffffffffffffffffffffffffffffffffffffff161415612cc3576040517f08c379a0000000000000000000000000000000000000000000000000000000008152600401612cba90613f44565b60405180910390fd5b80600560008573ffffffffffffffffffffffffffffffffffffffff1673ffffffffffffffffffffffffffffffffffffffff16815260200190815260200160002060008473ffffffffffffffffffffffffffffffffffffffff1673ffffffffffffffffffffffffffffffffffffffff16815260200190815260200160002060006101000a81548160ff0219169083151502179055508173ffffffffffffffffffffffffffffffffffffffff168373ffffffffffffffffffffffffffffffffffffffff167f17307eab39ab6107e8899845ad3d59bd9653f200f220920489ca2b5937696c3183604051612db49190613e14565b60405180910390a3505050565b6000612dcc8261283b565b612e0b576040517f08c379a0000000000000000000000000000000000000000000000000000000008152600401612e0290613fa4565b60405180910390fd5b6000612e1683610cb0565b90508073ffffffffffffffffffffffffffffffffffffffff168473ffffffffffffffffffffffffffffffffffffffff161480612e8557508373ffffffffffffffffffffffffffffffffffffffff16612e6d846108c3565b73ffffffffffffffffffffffffffffffffffffffff16145b80612e965750612e9581856124d9565b5b91505092915050565b6000612710600c5483612eb2919061439b565b612ebc919061436a565b9050919050565b8273ffffffffffffffffffffffffffffffffffffffff16612ee382610cb0565b73ffffffffffffffffffffffffffffffffffffffff1614612f39576040517f08c379a0000000000000000000000000000000000000000000000000000000008152600401612f3090613ee4565b60405180910390fd5b600073ffffffffffffffffffffffffffffffffffffffff168273ffffffffffffffffffffffffffffffffffffffff161415612fa9576040517f08c379a0000000000000000000000000000000000000000000000000000000008152600401612fa090613f24565b60405180910390fd5b612fb483838361312a565b612fbf6000826128af565b6001600360008573ffffffffffffffffffffffffffffffffffffffff1673ffffffffffffffffffffffffffffffffffffffff168152602001908152602001600020600082825461300f91906143f5565b925050819055506001600360008473ffffffffffffffffffffffffffffffffffffffff1673ffffffffffffffffffffffffffffffffffffffff16815260200190815260200160002060008282546130669190614314565b92505081905550816002600083815260200190815260200160002060006101000a81548173ffffffffffffffffffffffffffffffffffffffff021916908373ffffffffffffffffffffffffffffffffffffffff160217905550808273ffffffffffffffffffffffffffffffffffffffff168473ffffffffffffffffffffffffffffffffffffffff167fddf252ad1be2c89b69c2b068fc378daa952ba7f163c4a11628f55a4df523b3ef60405160405180910390a461312583838361312f565b505050565b505050565b505050565b828054613140906144f1565b90600052602060002090601f01602090048101928261316257600085556131a9565b82601f1061317b57805160ff19168380011785556131a9565b828001600101855582156131a9579182015b828111156131a857825182559160200191906001019061318d565b5b5090506131b69190613206565b5090565b6040518060c0016040528060008152602001600073ffffffffffffffffffffffffffffffffffffffff168152602001600081526020016060815260200160608152602001600081525090565b5b8082111561321f576000816000905550600101613207565b5090565b600061323661323184614215565b6141f0565b9050808382526020820190508260005b85811015613276578151850161325c888261344b565b845260208401935060208301925050600181019050613246565b5050509392505050565b600061329361328e84614241565b6141f0565b9050828152602081018484840111156132ab57600080fd5b6132b68482856144af565b509392505050565b60006132d16132cc84614272565b6141f0565b9050828152602081018484840111156132e957600080fd5b6132f48482856144af565b509392505050565b600061330f61330a84614272565b6141f0565b90508281526020810184848401111561332757600080fd5b6133328482856144be565b509392505050565b60008135905061334981614bb5565b92915050565b60008151905061335e81614bb5565b92915050565b60008135905061337381614bcc565b92915050565b600082601f83011261338a57600080fd5b815161339a848260208601613223565b91505092915050565b6000813590506133b281614be3565b92915050565b6000813590506133c781614bfa565b92915050565b600082601f8301126133de57600080fd5b81356133ee848260208601613280565b91505092915050565b600082601f83011261340857600080fd5b81356134188482602086016132be565b91505092915050565b600082601f83011261343257600080fd5b81516134428482602086016132fc565b91505092915050565b600060c0828403121561345d57600080fd5b61346760c06141f0565b905060006134778482850161352c565b600083015250602061348b8482850161334f565b602083015250604061349f8482850161352c565b604083015250606082015167ffffffffffffffff8111156134bf57600080fd5b6134cb84828501613421565b606083015250608082015167ffffffffffffffff8111156134eb57600080fd5b6134f784828501613421565b60808301525060a061350b8482850161352c565b60a08301525092915050565b60008135905061352681614c11565b92915050565b60008151905061353b81614c11565b92915050565b60006020828403121561355357600080fd5b60006135618482850161333a565b91505092915050565b60008060006060848603121561357f57600080fd5b600061358d86828701613364565b935050602084013567ffffffffffffffff8111156135aa57600080fd5b6135b6868287016133f7565b925050604084013567ffffffffffffffff8111156135d357600080fd5b6135df868287016133f7565b9150509250925092565b600080604083850312156135fc57600080fd5b600061360a8582860161333a565b925050602061361b8582860161333a565b9150509250929050565b60008060006060848603121561363a57600080fd5b60006136488682870161333a565b93505060206136598682870161333a565b925050604061366a86828701613517565b9150509250925092565b6000806000806080858703121561368a57600080fd5b60006136988782880161333a565b94505060206136a98782880161333a565b93505060406136ba87828801613517565b925050606085013567ffffffffffffffff8111156136d757600080fd5b6136e3878288016133cd565b91505092959194509250565b6000806040838503121561370257600080fd5b60006137108582860161333a565b9250506020613721858286016133a3565b9150509250929050565b6000806040838503121561373e57600080fd5b600061374c8582860161333a565b925050602061375d85828601613517565b9150509250929050565b60006020828403121561377957600080fd5b600082015167ffffffffffffffff81111561379357600080fd5b61379f84828501613379565b91505092915050565b6000602082840312156137ba57600080fd5b60006137c8848285016133b8565b91505092915050565b6000602082840312156137e357600080fd5b600082013567ffffffffffffffff8111156137fd57600080fd5b613809848285016133f7565b91505092915050565b60006020828403121561382457600080fd5b600061383284828501613517565b91505092915050565b60006138478383613c82565b905092915050565b6138588161443b565b82525050565b61386781614429565b82525050565b61387681614429565b82525050565b6000613887826142b3565b61389181856142d6565b9350836020820285016138a3856142a3565b8060005b858110156138df57848403895281516138c0858261383b565b94506138cb836142c9565b925060208a019950506001810190506138a7565b50829750879550505050505092915050565b6138fa8161444d565b82525050565b600061390b826142be565b61391581856142e7565b93506139258185602086016144be565b61392e81614659565b840191505092915050565b6000613944826142be565b61394e81856142f8565b935061395e8185602086016144be565b61396781614659565b840191505092915050565b600061397d826142be565b6139878185614309565b93506139978185602086016144be565b80840191505092915050565b60006139b0602d836142f8565b91506139bb8261466a565b604082019050919050565b60006139d36026836142f8565b91506139de826146b9565b604082019050919050565b60006139f66025836142f8565b9150613a0182614708565b604082019050919050565b6000613a19601c836142f8565b9150613a2482614757565b602082019050919050565b6000613a3c6024836142f8565b9150613a4782614780565b604082019050919050565b6000613a5f6019836142f8565b9150613a6a826147cf565b602082019050919050565b6000613a826026836142f8565b9150613a8d826147f8565b604082019050919050565b6000613aa56014836142f8565b9150613ab082614847565b602082019050919050565b6000613ac8602c836142f8565b9150613ad382614870565b604082019050919050565b6000613aeb6018836142f8565b9150613af6826148bf565b602082019050919050565b6000613b0e6038836142f8565b9150613b19826148e8565b604082019050919050565b6000613b31602a836142f8565b9150613b3c82614937565b604082019050919050565b6000613b546029836142f8565b9150613b5f82614986565b604082019050919050565b6000613b776032836142f8565b9150613b82826149d5565b604082019050919050565b6000613b9a6020836142f8565b9150613ba582614a24565b602082019050919050565b6000613bbd602c836142f8565b9150613bc882614a4d565b604082019050919050565b6000613be06012836142f8565b9150613beb82614a9c565b602082019050919050565b6000613c036020836142f8565b9150613c0e82614ac5565b602082019050919050565b6000613c266021836142f8565b9150613c3182614aee565b604082019050919050565b6000613c496016836142f8565b9150613c5482614b3d565b602082019050919050565b6000613c6c602d836142f8565b9150613c7782614b66565b604082019050919050565b600060c083016000830151613c9a6000860182613da2565b506020830151613cad602086018261385e565b506040830151613cc06040860182613da2565b5060608301518482036060860152613cd88282613900565b91505060808301518482036080860152613cf28282613900565b91505060a0830151613d0760a0860182613da2565b508091505092915050565b600060c083016000830151613d2a6000860182613da2565b506020830151613d3d602086018261385e565b506040830151613d506040860182613da2565b5060608301518482036060860152613d688282613900565b91505060808301518482036080860152613d828282613900565b91505060a0830151613d9760a0860182613da2565b508091505092915050565b613dab816144a5565b82525050565b613dba816144a5565b82525050565b6000613dcc8284613972565b915081905092915050565b6000602082019050613dec600083018461386d565b92915050565b60006020820190508181036000830152613e0c818461387c565b905092915050565b6000602082019050613e2960008301846138f1565b92915050565b60006020820190508181036000830152613e498184613939565b905092915050565b60006080820190508181036000830152613e6b8187613939565b9050613e7a602083018661384f565b613e876040830185613db1565b8181036060830152613e998184613939565b905095945050505050565b60006020820190508181036000830152613ebd816139a3565b9050919050565b60006020820190508181036000830152613edd816139c6565b9050919050565b60006020820190508181036000830152613efd816139e9565b9050919050565b60006020820190508181036000830152613f1d81613a0c565b9050919050565b60006020820190508181036000830152613f3d81613a2f565b9050919050565b60006020820190508181036000830152613f5d81613a52565b9050919050565b60006020820190508181036000830152613f7d81613a75565b9050919050565b60006020820190508181036000830152613f9d81613a98565b9050919050565b60006020820190508181036000830152613fbd81613abb565b9050919050565b60006020820190508181036000830152613fdd81613ade565b9050919050565b60006020820190508181036000830152613ffd81613b01565b9050919050565b6000602082019050818103600083015261401d81613b24565b9050919050565b6000602082019050818103600083015261403d81613b47565b9050919050565b6000602082019050818103600083015261405d81613b6a565b9050919050565b6000602082019050818103600083015261407d81613b8d565b9050919050565b6000602082019050818103600083015261409d81613bb0565b9050919050565b600060208201905081810360008301526140bd81613bd3565b9050919050565b600060208201905081810360008301526140dd81613bf6565b9050919050565b600060208201905081810360008301526140fd81613c19565b9050919050565b6000602082019050818103600083015261411d81613c3c565b9050919050565b6000602082019050818103600083015261413d81613c5f565b9050919050565b6000602082019050818103600083015261415e8184613d12565b905092915050565b600060208201905061417b6000830184613db1565b92915050565b600060c0820190506141966000830189613db1565b6141a3602083018861386d565b6141b06040830187613db1565b81810360608301526141c28186613939565b905081810360808301526141d68185613939565b90506141e560a0830184613db1565b979650505050505050565b60006141fa61420b565b90506142068282614523565b919050565b6000604051905090565b600067ffffffffffffffff8211156142305761422f61462a565b5b602082029050602081019050919050565b600067ffffffffffffffff82111561425c5761425b61462a565b5b61426582614659565b9050602081019050919050565b600067ffffffffffffffff82111561428d5761428c61462a565b5b61429682614659565b9050602081019050919050565b6000819050602082019050919050565b600081519050919050565b600081519050919050565b6000602082019050919050565b600082825260208201905092915050565b600082825260208201905092915050565b600082825260208201905092915050565b600081905092915050565b600061431f826144a5565b915061432a836144a5565b9250827fffffffffffffffffffffffffffffffffffffffffffffffffffffffffffffffff0382111561435f5761435e61459d565b5b828201905092915050565b6000614375826144a5565b9150614380836144a5565b9250826143905761438f6145cc565b5b828204905092915050565b60006143a6826144a5565b91506143b1836144a5565b9250817fffffffffffffffffffffffffffffffffffffffffffffffffffffffffffffffff04831182151516156143ea576143e961459d565b5b828202905092915050565b6000614400826144a5565b915061440b836144a5565b92508282101561441e5761441d61459d565b5b828203905092915050565b600061443482614485565b9050919050565b600061444682614485565b9050919050565b60008115159050919050565b60007fffffffff0000000000000000000000000000000000000000000000000000000082169050919050565b600073ffffffffffffffffffffffffffffffffffffffff82169050919050565b6000819050919050565b82818337600083830152505050565b60005b838110156144dc5780820151818401526020810190506144c1565b838111156144eb576000848401525b50505050565b6000600282049050600182168061450957607f821691505b6020821081141561451d5761451c6145fb565b5b50919050565b61452c82614659565b810181811067ffffffffffffffff8211171561454b5761454a61462a565b5b80604052505050565b600061455f826144a5565b91507fffffffffffffffffffffffffffffffffffffffffffffffffffffffffffffffff8214156145925761459161459d565b5b600182019050919050565b7f4e487b7100000000000000000000000000000000000000000000000000000000600052601160045260246000fd5b7f4e487b7100000000000000000000000000000000000000000000000000000000600052601260045260246000fd5b7f4e487b7100000000000000000000000000000000000000000000000000000000600052602260045260246000fd5b7f4e487b7100000000000000000000000000000000000000000000000000000000600052604160045260246000fd5b6000601f19601f8301169050919050565b7f4120746f6b656e2068617320616c7265616479206265656e206d696e7465642060008201527f7769746820746869732055524900000000000000000000000000000000000000602082015250565b7f4f776e61626c653a206e6577206f776e657220697320746865207a65726f206160008201527f6464726573730000000000000000000000000000000000000000000000000000602082015250565b7f4552433732313a207472616e736665722066726f6d20696e636f72726563742060008201527f6f776e6572000000000000000000000000000000000000000000000000000000602082015250565b7f4552433732313a20746f6b656e20616c7265616479206d696e74656400000000600082015250565b7f4552433732313a207472616e7366657220746f20746865207a65726f2061646460008201527f7265737300000000000000000000000000000000000000000000000000000000602082015250565b7f4552433732313a20617070726f766520746f2063616c6c657200000000000000600082015250565b7f4d6574686f64206d6179206f6e6c792062652063616c6c65642062792074686560008201527f206f776e65720000000000000000000000000000000000000000000000000000602082015250565b7f546f6b656e20646f6573206e6f74206578697374000000000000000000000000600082015250565b7f4552433732313a206f70657261746f7220717565727920666f72206e6f6e657860008201527f697374656e7420746f6b656e0000000000000000000000000000000000000000602082015250565b7f427579657220616c7265616479206f776e7320746f6b656e0000000000000000600082015250565b7f4552433732313a20617070726f76652063616c6c6572206973206e6f74206f7760008201527f6e6572206e6f7220617070726f76656420666f7220616c6c0000000000000000602082015250565b7f4552433732313a2062616c616e636520717565727920666f7220746865207a6560008201527f726f206164647265737300000000000000000000000000000000000000000000602082015250565b7f4552433732313a206f776e657220717565727920666f72206e6f6e657869737460008201527f656e7420746f6b656e0000000000000000000000000000000000000000000000602082015250565b7f4120746f6b656e2068617320616c7265616479206265656e206d696e7465642060008201527f77697468207468697320736f6c7574696f6e0000000000000000000000000000602082015250565b7f4552433732313a206d696e7420746f20746865207a65726f2061646472657373600082015250565b7f4552433732313a20617070726f76656420717565727920666f72206e6f6e657860008201527f697374656e7420746f6b656e0000000000000000000000000000000000000000602082015250565b7f496e76616c696420746f20616464726573730000000000000000000000000000600082015250565b7f4f776e61626c653a2063616c6c6572206973206e6f7420746865206f776e6572600082015250565b7f4552433732313a20617070726f76616c20746f2063757272656e74206f776e6560008201527f7200000000000000000000000000000000000000000000000000000000000000602082015250565b7f546f6b656e496420646f6573206e6f7420657869737400000000000000000000600082015250565b7f496e73756666696369656e742065746865722073656e7420776974682074686960008201527f73207472616e73616374696f6e00000000000000000000000000000000000000602082015250565b614bbe81614429565b8114614bc957600080fd5b50565b614bd58161443b565b8114614be057600080fd5b50565b614bec8161444d565b8114614bf757600080fd5b50565b614c0381614459565b8114614c0e57600080fd5b50565b614c1a816144a5565b8114614c2557600080fd5b5056fea26469706673582212209d3f22e4425b9efd596d579bb151721dd160f0a5fe240c58ba78d90a34f920af64736f6c63430008010033",
  "immutableReferences": {},
  "source": "// SPDX-License-Identifier: MIT\r\npragma solidity >=0.4.22 <0.9.0;\r\nimport \"@openzeppelin/contracts/token/ERC721/ERC721.sol\";\r\nimport \"@openzeppelin/contracts/access/Ownable.sol\";\r\n\r\ncontract EthordleToken is ERC721, Ownable {\r\n    \r\nusing Strings for uint256;\r\n    \r\n    struct Token {\r\n        uint256 id;        \r\n        address owner;\r\n        uint256 price;\r\n        string url;\r\n        string solution;\r\n        uint256 transactionCount;\r\n    }\r\n\r\n    mapping (uint256 => Token) public _tokens;\r\n    mapping (string => address) private _solutionOwners;\r\n    mapping (string => address) private _tokenURIOwners;\r\n\r\n    address private _owner;\r\n    uint256 private _initialPrice;\r\n    uint256 private _royaltyRate;\r\n    uint256 private _priceEscalationRate;\r\n    uint256 private _currentTokenId;\r\n    string private _baseURIextended;\r\n\r\n    event TokenMinted (\r\n        string solution,\r\n        address payable account,\r\n        uint256 tokenId,\r\n        string metadataURI\r\n    );\r\n\r\n    constructor(string memory _name, string memory _symbol, uint256 initialPrice_, uint256 royaltyRate_, uint256 priceEscalationRate_) ERC721(_name, _symbol) {\r\n        _owner = msg.sender;\r\n        _currentTokenId = 0;\r\n        _initialPrice = initialPrice_;\r\n        _royaltyRate = royaltyRate_;\r\n        _priceEscalationRate = priceEscalationRate_;\r\n    }\r\n    \r\n    function setInitialPrice(uint256 initialPrice_) external onlyOwner() {\r\n        _initialPrice = initialPrice_;\r\n    }\r\n\r\n    function initialPrice() external view returns (uint256) {\r\n        return _initialPrice;\r\n    }\r\n\r\n    function setRoyaltyRate(uint256 royaltyRate_) external onlyOwner() {\r\n        _royaltyRate = royaltyRate_;   \r\n    }\r\n\r\n    function royaltyRate() external view returns (uint256) {\r\n        return _royaltyRate;\r\n    }\r\n\r\n    function setPriceEscalationRate(uint256 priceEscalationRate_) external onlyOwner() {\r\n        _priceEscalationRate = priceEscalationRate_;\r\n    }\r\n\r\n    function tokenCount() external view returns (uint256) {\r\n        return _currentTokenId;\r\n    }\r\n\r\n    function tokenById(uint256 tokenId) external view returns(Token memory) {\r\n        require(_exists(tokenId), 'TokenId does not exist');  \r\n\r\n        Token memory token = _tokens[tokenId];\r\n        require(_exists(tokenId), 'Token does not exist');   \r\n\r\n        return token;\r\n    }\r\n\r\n    function tokensOfOwner(address _from) external view returns(Token[] memory) {\r\n        uint256 ownerCount = balanceOf(_from);\r\n        uint256 ownerIndex = 0;\r\n        Token[] memory ownerTokens = new Token[](ownerCount);\r\n\r\n        if (ownerCount > 0) {\r\n            Token[] memory allTokens = this.tokens();\r\n            \r\n            for (uint256 i = 0; i < _currentTokenId; i++) {\r\n                if (allTokens[i].owner == _from) {\r\n                    ownerTokens[ownerIndex] = allTokens[i];\r\n                    ownerIndex++;\r\n                }\r\n            }\r\n        }\r\n\r\n        return ownerTokens;\r\n    }\r\n\r\n    function tokens() external view returns(Token[] memory) {  \r\n        Token[] memory allTokens = new Token[](_currentTokenId);\r\n\r\n        for (uint256 i = 0; i < _currentTokenId; i++) {\r\n            allTokens[i] = _tokens[i];\r\n        }\r\n\r\n        return allTokens;\r\n    }\r\n    \r\n    function setBaseURI(string memory baseURI) external onlyOwner() {\r\n        _baseURIextended = baseURI;\r\n    }\r\n    \r\n    function _baseURI() internal view virtual override returns (string memory) {\r\n        return _baseURIextended;\r\n    }\r\n    \r\n    function isSolutionUnique(string memory solution_) public view returns (bool) {\r\n        return _solutionOwners[solution_] == address(0x0);\r\n    }\r\n\r\n    function tokenURI(uint256 tokenId) public view virtual override returns (string memory) {\r\n        require(_exists(tokenId), 'TokenId does not exist');\r\n\r\n        return _tokens[tokenId].url;\r\n    }\r\n\r\n    function mint(\r\n        address payable to,\r\n        string memory solution_,\r\n        string memory tokenURI_\r\n    ) external payable {  \r\n        require(msg.sender == to || msg.sender == _owner, 'Invalid to address');      \r\n        require(msg.value >= _initialPrice, 'Insufficient ether sent with this transaction'); \r\n        require(_solutionOwners[solution_] == address(0x0), 'A token has already been minted with this solution');\r\n        require(_tokenURIOwners[tokenURI_] == address(0x0), 'A token has already been minted with this URI');\r\n        \r\n        payable(owner()).transfer(msg.value);\r\n\r\n        _mint(to, _currentTokenId);\r\n\r\n        uint256 newPrice =_getEscalatedPrice(msg.value);\r\n\r\n        Token memory token = Token(_currentTokenId, to, newPrice, tokenURI_, solution_, 1);\r\n       \r\n        _tokens[_currentTokenId] = token;\r\n        _solutionOwners[solution_] = to;\r\n        _tokenURIOwners[tokenURI_] = to;\r\n        _currentTokenId++;        \r\n        \r\n        emit TokenMinted(solution_, to, _currentTokenId, tokenURI_);\r\n    }\r\n\r\n    function buy(\r\n        address to,\r\n        uint256 tokenId\r\n    ) external payable {        \r\n        require(msg.sender == to, 'Invalid to address');\r\n        require(_exists(tokenId), 'TokenId does not exist');   \r\n        require(!_isApprovedOrOwner(_msgSender(), tokenId), \"Buyer already owns token\");   \r\n\r\n        Token memory token = _tokens[tokenId];\r\n        require(_exists(token.id), 'Token does not exist');        \r\n        require(msg.value >= token.price, 'Insufficient ether sent with this transaction');\r\n       \r\n        string memory solution_ = token.solution;\r\n        string memory tokenURI_ = token.url;\r\n\r\n        address from = token.owner;\r\n        uint256 totalRoyalty = _getRoyalty(msg.value); \r\n        uint256 remainder = msg.value - totalRoyalty;\r\n\r\n        payable(owner()).transfer(totalRoyalty);\r\n        payable(address(from)).transfer(remainder);\r\n\r\n        _transfer(from, to, tokenId);\r\n\r\n        _solutionOwners[solution_] = to;\r\n        _tokenURIOwners[tokenURI_] = to;\r\n\r\n        uint256 newPrice = _getEscalatedPrice(msg.value);\r\n\r\n        token.owner = to;\r\n        token.price = newPrice;\r\n        token.transactionCount++;    \r\n\r\n        _tokens[tokenId] = token; // todo ?            \r\n    }\r\n    \r\n    // todo how to prevent base _transfer from being called directly\r\n\r\n    function _getRoyalty(uint256 value) private view returns (uint256) {\r\n        return value * _royaltyRate / 10000 ;  // todo need safe multiply    \r\n    }\r\n\r\n    function _getEscalatedPrice(uint256 value) private view returns (uint256) {\r\n        uint256 divisor = 10**15;\r\n        uint256 newPrice = value * _priceEscalationRate / 10000 ;  // todo need safe multiply    \r\n        \r\n        return (newPrice / divisor) * divisor;  // round off new price to nearest 1E15\r\n    }\r\n\r\n    function transferFrom(\r\n        address /*from*/,\r\n        address /*to*/,\r\n        uint256 /*tokenId*/\r\n    ) public view override {\r\n        require(msg.sender == _owner, 'Method may only be called by the owner');\r\n    }\r\n\r\n    function safeTransferFrom(\r\n        address /*from*/,\r\n        address /*to*/,\r\n        uint256 /*tokenId*/\r\n    ) public view override {\r\n        require(msg.sender == _owner, 'Method may only be called by the owner');\r\n    }\r\n\r\n    function safeTransferFrom(\r\n        address /*from*/,\r\n        address /*to*/,\r\n        uint256 /*tokenId*/,\r\n        bytes memory /*_data*/\r\n    ) public view override {\r\n        require(msg.sender == _owner, 'Method may only be called by the owner');\r\n    }\r\n}",
  "sourcePath": "C:\\Dev\\Github\\ethordle\\contracts\\EthordleToken.sol",
  "compiler": {
    "name": "solc",
    "version": "0.8.1+commit.df193b15.Emscripten.clang"
  },
  "schemaVersion": "3.4.6",
  "updatedAt": "2022-04-21T01:15:12.323Z",
  "networkType": "ethereum",
  "devdoc": {
    "kind": "dev",
    "methods": {
      "approve(address,uint256)": {
        "details": "See {IERC721-approve}."
      },
      "balanceOf(address)": {
        "details": "See {IERC721-balanceOf}."
      },
      "getApproved(uint256)": {
        "details": "See {IERC721-getApproved}."
      },
      "isApprovedForAll(address,address)": {
        "details": "See {IERC721-isApprovedForAll}."
      },
      "name()": {
        "details": "See {IERC721Metadata-name}."
      },
      "owner()": {
        "details": "Returns the address of the current owner."
      },
      "ownerOf(uint256)": {
        "details": "See {IERC721-ownerOf}."
      },
      "renounceOwnership()": {
        "details": "Leaves the contract without owner. It will not be possible to call `onlyOwner` functions anymore. Can only be called by the current owner. NOTE: Renouncing ownership will leave the contract without an owner, thereby removing any functionality that is only available to the owner."
      },
      "setApprovalForAll(address,bool)": {
        "details": "See {IERC721-setApprovalForAll}."
      },
      "supportsInterface(bytes4)": {
        "details": "See {IERC165-supportsInterface}."
      },
      "symbol()": {
        "details": "See {IERC721Metadata-symbol}."
      },
      "tokenURI(uint256)": {
        "details": "See {IERC721Metadata-tokenURI}."
      },
      "transferOwnership(address)": {
        "details": "Transfers ownership of the contract to a new account (`newOwner`). Can only be called by the current owner."
      }
    },
    "version": 1
  },
  "userdoc": {
    "kind": "user",
    "methods": {},
    "version": 1
  }
}