{
  "contractName": "EthordleToken",
  "abi": [
    {
      "inputs": [
        {
          "internalType": "string",
          "name": "_name",
          "type": "string"
        },
        {
          "internalType": "string",
          "name": "_symbol",
          "type": "string"
        },
        {
          "internalType": "uint256",
          "name": "initialPrice_",
          "type": "uint256"
        },
        {
          "internalType": "uint256",
          "name": "royaltyRate_",
          "type": "uint256"
        },
        {
          "internalType": "uint256",
          "name": "priceEscalationRate_",
          "type": "uint256"
        }
      ],
      "stateMutability": "nonpayable",
      "type": "constructor"
    },
    {
      "anonymous": false,
      "inputs": [
        {
          "indexed": true,
          "internalType": "address",
          "name": "owner",
          "type": "address"
        },
        {
          "indexed": true,
          "internalType": "address",
          "name": "approved",
          "type": "address"
        },
        {
          "indexed": true,
          "internalType": "uint256",
          "name": "tokenId",
          "type": "uint256"
        }
      ],
      "name": "Approval",
      "type": "event"
    },
    {
      "anonymous": false,
      "inputs": [
        {
          "indexed": true,
          "internalType": "address",
          "name": "owner",
          "type": "address"
        },
        {
          "indexed": true,
          "internalType": "address",
          "name": "operator",
          "type": "address"
        },
        {
          "indexed": false,
          "internalType": "bool",
          "name": "approved",
          "type": "bool"
        }
      ],
      "name": "ApprovalForAll",
      "type": "event"
    },
    {
      "anonymous": false,
      "inputs": [
        {
          "indexed": true,
          "internalType": "address",
          "name": "previousOwner",
          "type": "address"
        },
        {
          "indexed": true,
          "internalType": "address",
          "name": "newOwner",
          "type": "address"
        }
      ],
      "name": "OwnershipTransferred",
      "type": "event"
    },
    {
      "anonymous": false,
      "inputs": [
        {
          "indexed": false,
          "internalType": "string",
          "name": "solution",
          "type": "string"
        },
        {
          "indexed": false,
          "internalType": "address payable",
          "name": "account",
          "type": "address"
        },
        {
          "indexed": false,
          "internalType": "uint256",
          "name": "tokenId",
          "type": "uint256"
        },
        {
          "indexed": false,
          "internalType": "string",
          "name": "metadataURI",
          "type": "string"
        }
      ],
      "name": "TokenMinted",
      "type": "event"
    },
    {
      "anonymous": false,
      "inputs": [
        {
          "indexed": false,
          "internalType": "string",
          "name": "solution",
          "type": "string"
        },
        {
          "indexed": false,
          "internalType": "address",
          "name": "account",
          "type": "address"
        },
        {
          "indexed": false,
          "internalType": "uint256",
          "name": "tokenId",
          "type": "uint256"
        },
        {
          "indexed": false,
          "internalType": "string",
          "name": "metadataURI",
          "type": "string"
        },
        {
          "indexed": false,
          "internalType": "uint256",
          "name": "price",
          "type": "uint256"
        }
      ],
      "name": "TokenSaleAllowed",
      "type": "event"
    },
    {
      "anonymous": false,
      "inputs": [
        {
          "indexed": false,
          "internalType": "string",
          "name": "solution",
          "type": "string"
        },
        {
          "indexed": false,
          "internalType": "address",
          "name": "account",
          "type": "address"
        },
        {
          "indexed": false,
          "internalType": "uint256",
          "name": "tokenId",
          "type": "uint256"
        },
        {
          "indexed": false,
          "internalType": "string",
          "name": "metadataURI",
          "type": "string"
        }
      ],
      "name": "TokenSalePrevented",
      "type": "event"
    },
    {
      "anonymous": false,
      "inputs": [
        {
          "indexed": true,
          "internalType": "address",
          "name": "from",
          "type": "address"
        },
        {
          "indexed": true,
          "internalType": "address",
          "name": "to",
          "type": "address"
        },
        {
          "indexed": true,
          "internalType": "uint256",
          "name": "tokenId",
          "type": "uint256"
        }
      ],
      "name": "Transfer",
      "type": "event"
    },
    {
      "inputs": [
        {
          "internalType": "uint256",
          "name": "",
          "type": "uint256"
        }
      ],
      "name": "_tokens",
      "outputs": [
        {
          "internalType": "uint256",
          "name": "id",
          "type": "uint256"
        },
        {
          "internalType": "address",
          "name": "owner",
          "type": "address"
        },
        {
          "internalType": "uint256",
          "name": "price",
          "type": "uint256"
        },
        {
          "internalType": "uint256",
          "name": "lastPrice",
          "type": "uint256"
        },
        {
          "internalType": "string",
          "name": "url",
          "type": "string"
        },
        {
          "internalType": "string",
          "name": "solution",
          "type": "string"
        },
        {
          "internalType": "bool",
          "name": "isForSale",
          "type": "bool"
        },
        {
          "internalType": "uint256",
          "name": "lastTransactionTimestamp",
          "type": "uint256"
        },
        {
          "internalType": "uint256",
          "name": "transactionCount",
          "type": "uint256"
        }
      ],
      "stateMutability": "view",
      "type": "function",
      "constant": true
    },
    {
      "inputs": [
        {
          "internalType": "address",
          "name": "to",
          "type": "address"
        },
        {
          "internalType": "uint256",
          "name": "tokenId",
          "type": "uint256"
        }
      ],
      "name": "approve",
      "outputs": [],
      "stateMutability": "nonpayable",
      "type": "function"
    },
    {
      "inputs": [
        {
          "internalType": "address",
          "name": "owner",
          "type": "address"
        }
      ],
      "name": "balanceOf",
      "outputs": [
        {
          "internalType": "uint256",
          "name": "",
          "type": "uint256"
        }
      ],
      "stateMutability": "view",
      "type": "function",
      "constant": true
    },
    {
      "inputs": [
        {
          "internalType": "uint256",
          "name": "tokenId",
          "type": "uint256"
        }
      ],
      "name": "getApproved",
      "outputs": [
        {
          "internalType": "address",
          "name": "",
          "type": "address"
        }
      ],
      "stateMutability": "view",
      "type": "function",
      "constant": true
    },
    {
      "inputs": [
        {
          "internalType": "address",
          "name": "owner",
          "type": "address"
        },
        {
          "internalType": "address",
          "name": "operator",
          "type": "address"
        }
      ],
      "name": "isApprovedForAll",
      "outputs": [
        {
          "internalType": "bool",
          "name": "",
          "type": "bool"
        }
      ],
      "stateMutability": "view",
      "type": "function",
      "constant": true
    },
    {
      "inputs": [],
      "name": "name",
      "outputs": [
        {
          "internalType": "string",
          "name": "",
          "type": "string"
        }
      ],
      "stateMutability": "view",
      "type": "function",
      "constant": true
    },
    {
      "inputs": [],
      "name": "owner",
      "outputs": [
        {
          "internalType": "address",
          "name": "",
          "type": "address"
        }
      ],
      "stateMutability": "view",
      "type": "function",
      "constant": true
    },
    {
      "inputs": [
        {
          "internalType": "uint256",
          "name": "tokenId",
          "type": "uint256"
        }
      ],
      "name": "ownerOf",
      "outputs": [
        {
          "internalType": "address",
          "name": "",
          "type": "address"
        }
      ],
      "stateMutability": "view",
      "type": "function",
      "constant": true
    },
    {
      "inputs": [],
      "name": "renounceOwnership",
      "outputs": [],
      "stateMutability": "nonpayable",
      "type": "function"
    },
    {
      "inputs": [
        {
          "internalType": "address",
          "name": "operator",
          "type": "address"
        },
        {
          "internalType": "bool",
          "name": "approved",
          "type": "bool"
        }
      ],
      "name": "setApprovalForAll",
      "outputs": [],
      "stateMutability": "nonpayable",
      "type": "function"
    },
    {
      "inputs": [
        {
          "internalType": "bytes4",
          "name": "interfaceId",
          "type": "bytes4"
        }
      ],
      "name": "supportsInterface",
      "outputs": [
        {
          "internalType": "bool",
          "name": "",
          "type": "bool"
        }
      ],
      "stateMutability": "view",
      "type": "function",
      "constant": true
    },
    {
      "inputs": [],
      "name": "symbol",
      "outputs": [
        {
          "internalType": "string",
          "name": "",
          "type": "string"
        }
      ],
      "stateMutability": "view",
      "type": "function",
      "constant": true
    },
    {
      "inputs": [
        {
          "internalType": "address",
          "name": "newOwner",
          "type": "address"
        }
      ],
      "name": "transferOwnership",
      "outputs": [],
      "stateMutability": "nonpayable",
      "type": "function"
    },
    {
      "inputs": [
        {
          "internalType": "uint256",
          "name": "initialPrice_",
          "type": "uint256"
        }
      ],
      "name": "setInitialPrice",
      "outputs": [],
      "stateMutability": "nonpayable",
      "type": "function"
    },
    {
      "inputs": [],
      "name": "initialPrice",
      "outputs": [
        {
          "internalType": "uint256",
          "name": "",
          "type": "uint256"
        }
      ],
      "stateMutability": "view",
      "type": "function",
      "constant": true
    },
    {
      "inputs": [
        {
          "internalType": "uint256",
          "name": "royaltyRate_",
          "type": "uint256"
        }
      ],
      "name": "setRoyaltyRate",
      "outputs": [],
      "stateMutability": "nonpayable",
      "type": "function"
    },
    {
      "inputs": [],
      "name": "royaltyRate",
      "outputs": [
        {
          "internalType": "uint256",
          "name": "",
          "type": "uint256"
        }
      ],
      "stateMutability": "view",
      "type": "function",
      "constant": true
    },
    {
      "inputs": [
        {
          "internalType": "uint256",
          "name": "priceEscalationRate_",
          "type": "uint256"
        }
      ],
      "name": "setPriceEscalationRate",
      "outputs": [],
      "stateMutability": "nonpayable",
      "type": "function"
    },
    {
      "inputs": [],
      "name": "priceEscalationRate",
      "outputs": [
        {
          "internalType": "uint256",
          "name": "",
          "type": "uint256"
        }
      ],
      "stateMutability": "view",
      "type": "function",
      "constant": true
    },
    {
      "inputs": [],
      "name": "tokenCount",
      "outputs": [
        {
          "internalType": "uint256",
          "name": "",
          "type": "uint256"
        }
      ],
      "stateMutability": "view",
      "type": "function",
      "constant": true
    },
    {
      "inputs": [
        {
          "internalType": "uint256",
          "name": "tokenId",
          "type": "uint256"
        }
      ],
      "name": "tokenById",
      "outputs": [
        {
          "components": [
            {
              "internalType": "uint256",
              "name": "id",
              "type": "uint256"
            },
            {
              "internalType": "address",
              "name": "owner",
              "type": "address"
            },
            {
              "internalType": "uint256",
              "name": "price",
              "type": "uint256"
            },
            {
              "internalType": "uint256",
              "name": "lastPrice",
              "type": "uint256"
            },
            {
              "internalType": "string",
              "name": "url",
              "type": "string"
            },
            {
              "internalType": "string",
              "name": "solution",
              "type": "string"
            },
            {
              "internalType": "bool",
              "name": "isForSale",
              "type": "bool"
            },
            {
              "internalType": "uint256",
              "name": "lastTransactionTimestamp",
              "type": "uint256"
            },
            {
              "internalType": "uint256",
              "name": "transactionCount",
              "type": "uint256"
            }
          ],
          "internalType": "struct EthordleToken.Token",
          "name": "",
          "type": "tuple"
        }
      ],
      "stateMutability": "view",
      "type": "function",
      "constant": true
    },
    {
      "inputs": [
        {
          "internalType": "address",
          "name": "_from",
          "type": "address"
        }
      ],
      "name": "tokensOfOwner",
      "outputs": [
        {
          "components": [
            {
              "internalType": "uint256",
              "name": "id",
              "type": "uint256"
            },
            {
              "internalType": "address",
              "name": "owner",
              "type": "address"
            },
            {
              "internalType": "uint256",
              "name": "price",
              "type": "uint256"
            },
            {
              "internalType": "uint256",
              "name": "lastPrice",
              "type": "uint256"
            },
            {
              "internalType": "string",
              "name": "url",
              "type": "string"
            },
            {
              "internalType": "string",
              "name": "solution",
              "type": "string"
            },
            {
              "internalType": "bool",
              "name": "isForSale",
              "type": "bool"
            },
            {
              "internalType": "uint256",
              "name": "lastTransactionTimestamp",
              "type": "uint256"
            },
            {
              "internalType": "uint256",
              "name": "transactionCount",
              "type": "uint256"
            }
          ],
          "internalType": "struct EthordleToken.Token[]",
          "name": "",
          "type": "tuple[]"
        }
      ],
      "stateMutability": "view",
      "type": "function",
      "constant": true
    },
    {
      "inputs": [],
      "name": "tokens",
      "outputs": [
        {
          "components": [
            {
              "internalType": "uint256",
              "name": "id",
              "type": "uint256"
            },
            {
              "internalType": "address",
              "name": "owner",
              "type": "address"
            },
            {
              "internalType": "uint256",
              "name": "price",
              "type": "uint256"
            },
            {
              "internalType": "uint256",
              "name": "lastPrice",
              "type": "uint256"
            },
            {
              "internalType": "string",
              "name": "url",
              "type": "string"
            },
            {
              "internalType": "string",
              "name": "solution",
              "type": "string"
            },
            {
              "internalType": "bool",
              "name": "isForSale",
              "type": "bool"
            },
            {
              "internalType": "uint256",
              "name": "lastTransactionTimestamp",
              "type": "uint256"
            },
            {
              "internalType": "uint256",
              "name": "transactionCount",
              "type": "uint256"
            }
          ],
          "internalType": "struct EthordleToken.Token[]",
          "name": "",
          "type": "tuple[]"
        }
      ],
      "stateMutability": "view",
      "type": "function",
      "constant": true
    },
    {
      "inputs": [
        {
          "internalType": "string",
          "name": "baseURI",
          "type": "string"
        }
      ],
      "name": "setBaseURI",
      "outputs": [],
      "stateMutability": "nonpayable",
      "type": "function"
    },
    {
      "inputs": [
        {
          "internalType": "string",
          "name": "solution_",
          "type": "string"
        }
      ],
      "name": "isSolutionUnique",
      "outputs": [
        {
          "internalType": "bool",
          "name": "",
          "type": "bool"
        }
      ],
      "stateMutability": "view",
      "type": "function",
      "constant": true
    },
    {
      "inputs": [
        {
          "internalType": "uint256",
          "name": "tokenId",
          "type": "uint256"
        }
      ],
      "name": "tokenURI",
      "outputs": [
        {
          "internalType": "string",
          "name": "",
          "type": "string"
        }
      ],
      "stateMutability": "view",
      "type": "function",
      "constant": true
    },
    {
      "inputs": [
        {
          "internalType": "address payable",
          "name": "to",
          "type": "address"
        },
        {
          "internalType": "string",
          "name": "solution_",
          "type": "string"
        },
        {
          "internalType": "string",
          "name": "tokenURI_",
          "type": "string"
        }
      ],
      "name": "mint",
      "outputs": [],
      "stateMutability": "payable",
      "type": "function",
      "payable": true
    },
    {
      "inputs": [
        {
          "internalType": "uint256",
          "name": "tokenId",
          "type": "uint256"
        },
        {
          "internalType": "address",
          "name": "from",
          "type": "address"
        },
        {
          "internalType": "uint256",
          "name": "price",
          "type": "uint256"
        }
      ],
      "name": "allowSale",
      "outputs": [],
      "stateMutability": "nonpayable",
      "type": "function"
    },
    {
      "inputs": [
        {
          "internalType": "uint256",
          "name": "tokenId",
          "type": "uint256"
        },
        {
          "internalType": "address",
          "name": "from",
          "type": "address"
        }
      ],
      "name": "preventSale",
      "outputs": [],
      "stateMutability": "nonpayable",
      "type": "function"
    },
    {
      "inputs": [
        {
          "internalType": "uint256",
          "name": "tokenId",
          "type": "uint256"
        },
        {
          "internalType": "address",
          "name": "to",
          "type": "address"
        }
      ],
      "name": "buy",
      "outputs": [],
      "stateMutability": "payable",
      "type": "function",
      "payable": true
    },
    {
      "inputs": [
        {
          "internalType": "uint256",
          "name": "tokenId",
          "type": "uint256"
        },
        {
          "internalType": "address",
          "name": "to",
          "type": "address"
        }
      ],
      "name": "transfer",
      "outputs": [],
      "stateMutability": "payable",
      "type": "function",
      "payable": true
    },
    {
      "inputs": [
        {
          "internalType": "address",
          "name": "",
          "type": "address"
        },
        {
          "internalType": "address",
          "name": "",
          "type": "address"
        },
        {
          "internalType": "uint256",
          "name": "",
          "type": "uint256"
        }
      ],
      "name": "transferFrom",
      "outputs": [],
      "stateMutability": "view",
      "type": "function",
      "constant": true
    },
    {
      "inputs": [
        {
          "internalType": "address",
          "name": "",
          "type": "address"
        },
        {
          "internalType": "address",
          "name": "",
          "type": "address"
        },
        {
          "internalType": "uint256",
          "name": "",
          "type": "uint256"
        }
      ],
      "name": "safeTransferFrom",
      "outputs": [],
      "stateMutability": "view",
      "type": "function",
      "constant": true
    },
    {
      "inputs": [
        {
          "internalType": "address",
          "name": "",
          "type": "address"
        },
        {
          "internalType": "address",
          "name": "",
          "type": "address"
        },
        {
          "internalType": "uint256",
          "name": "",
          "type": "uint256"
        },
        {
          "internalType": "bytes",
          "name": "",
          "type": "bytes"
        }
      ],
      "name": "safeTransferFrom",
      "outputs": [],
      "stateMutability": "view",
      "type": "function",
      "constant": true
    }
  ],
  "bytecode": "0x608060405266038d7ea4c680006010553480156200001c57600080fd5b5060405162005fe238038062005fe2833981810160405281019062000042919062000308565b848481600090805190602001906200005c929190620001cf565b50806001908051906020019062000075929190620001cf565b505050620000986200008c6200010160201b60201c565b6200010960201b60201c565b33600a60006101000a81548173ffffffffffffffffffffffffffffffffffffffff021916908373ffffffffffffffffffffffffffffffffffffffff1602179055506000600e8190555082600b8190555081600c8190555080600d81905550505050505062000550565b600033905090565b6000600660009054906101000a900473ffffffffffffffffffffffffffffffffffffffff16905081600660006101000a81548173ffffffffffffffffffffffffffffffffffffffff021916908373ffffffffffffffffffffffffffffffffffffffff1602179055508173ffffffffffffffffffffffffffffffffffffffff168173ffffffffffffffffffffffffffffffffffffffff167f8be0079c531659141344cd1fd0a4f28419497f9722a3daafe3b4186f6b6457e060405160405180910390a35050565b828054620001dd906200045b565b90600052602060002090601f0160209004810192826200020157600085556200024d565b82601f106200021c57805160ff19168380011785556200024d565b828001600101855582156200024d579182015b828111156200024c5782518255916020019190600101906200022f565b5b5090506200025c919062000260565b5090565b5b808211156200027b57600081600090555060010162000261565b5090565b6000620002966200029084620003e5565b620003bc565b905082815260208101848484011115620002af57600080fd5b620002bc84828562000425565b509392505050565b600082601f830112620002d657600080fd5b8151620002e88482602086016200027f565b91505092915050565b600081519050620003028162000536565b92915050565b600080600080600060a086880312156200032157600080fd5b600086015167ffffffffffffffff8111156200033c57600080fd5b6200034a88828901620002c4565b955050602086015167ffffffffffffffff8111156200036857600080fd5b6200037688828901620002c4565b94505060406200038988828901620002f1565b93505060606200039c88828901620002f1565b9250506080620003af88828901620002f1565b9150509295509295909350565b6000620003c8620003db565b9050620003d6828262000491565b919050565b6000604051905090565b600067ffffffffffffffff821115620004035762000402620004f6565b5b6200040e8262000525565b9050602081019050919050565b6000819050919050565b60005b838110156200044557808201518184015260208101905062000428565b8381111562000455576000848401525b50505050565b600060028204905060018216806200047457607f821691505b602082108114156200048b576200048a620004c7565b5b50919050565b6200049c8262000525565b810181811067ffffffffffffffff82111715620004be57620004bd620004f6565b5b80604052505050565b7f4e487b7100000000000000000000000000000000000000000000000000000000600052602260045260246000fd5b7f4e487b7100000000000000000000000000000000000000000000000000000000600052604160045260246000fd5b6000601f19601f8301169050919050565b62000541816200041b565b81146200054d57600080fd5b50565b615a8280620005606000396000f3fe6080604052600436106101f95760003560e01c80638da5cb5b1161010d578063a5a02584116100a0578063c4d1510d1161006f578063c4d1510d14610704578063c87b56dd1461072f578063e985e9c51461076c578063ed70554d146107a9578063f2fde38b146107ee576101f9565b8063a5a0258414610659578063a79961cf14610696578063b7760c8f146106bf578063b88d4fde146106db576101f9565b80639f181b5e116100dc5780639f181b5e146105b35780639f4ba0ee146105de578063a129ece914610607578063a22cb46514610630576101f9565b80638da5cb5b1461051657806395d89b4114610541578063990711901461056c5780639d63848a14610588576101f9565b8063537782a21161019057806370a082311161015f57806370a082311461043e578063715018a61461047b578063755381f7146104925780637deb6025146104bd5780638462151c146104d9576101f9565b8063537782a21461037257806355f804b31461039b5780636352211e146103c45780636b6af2d514610401576101f9565b8063095ea7b3116101cc578063095ea7b3146102cc5780631d0806ae146102f557806323b872dd1461032057806342842e0e14610349576101f9565b806301ffc9a7146101fe57806304f91a121461023b57806306fdde0314610264578063081812fc1461028f575b600080fd5b34801561020a57600080fd5b5061022560048036038101906102209190614106565b610817565b6040516102329190614956565b60405180910390f35b34801561024757600080fd5b50610262600480360381019061025d91906141d5565b6108f9565b005b34801561027057600080fd5b50610279610c35565b6040516102869190614971565b60405180910390f35b34801561029b57600080fd5b506102b660048036038101906102b19190614170565b610cc7565b6040516102c39190614919565b60405180910390f35b3480156102d857600080fd5b506102f360048036038101906102ee9190614089565b610d4c565b005b34801561030157600080fd5b5061030a610e64565b6040516103179190614e1c565b60405180910390f35b34801561032c57600080fd5b5061034760048036038101906103429190613f83565b610e6e565b005b34801561035557600080fd5b50610370600480360381019061036b9190613f83565b610eef565b005b34801561037e57600080fd5b5061039960048036038101906103949190614170565b610f70565b005b3480156103a757600080fd5b506103c260048036038101906103bd919061412f565b610ff6565b005b3480156103d057600080fd5b506103eb60048036038101906103e69190614170565b61108c565b6040516103f89190614919565b60405180910390f35b34801561040d57600080fd5b5061042860048036038101906104239190614170565b61113e565b6040516104359190614dfa565b60405180910390f35b34801561044a57600080fd5b5061046560048036038101906104609190613e9f565b61115c565b6040516104729190614e1c565b60405180910390f35b34801561048757600080fd5b50610490611214565b005b34801561049e57600080fd5b506104a761129c565b6040516104b49190614e1c565b60405180910390f35b6104d760048036038101906104d29190614199565b6112a6565b005b3480156104e557600080fd5b5061050060048036038101906104fb9190613e9f565b6116c6565b60405161050d9190614934565b60405180910390f35b34801561052257600080fd5b5061052b61191e565b6040516105389190614919565b60405180910390f35b34801561054d57600080fd5b50610556611948565b6040516105639190614971565b60405180910390f35b61058660048036038101906105819190613ec8565b6119da565b005b34801561059457600080fd5b5061059d611f97565b6040516105aa9190614934565b60405180910390f35b3480156105bf57600080fd5b506105c861226b565b6040516105d59190614e1c565b60405180910390f35b3480156105ea57600080fd5b5061060560048036038101906106009190614170565b612275565b005b34801561061357600080fd5b5061062e60048036038101906106299190614170565b6122fb565b005b34801561063c57600080fd5b506106576004803603810190610652919061404d565b612381565b005b34801561066557600080fd5b50610680600480360381019061067b919061412f565b612397565b60405161068d9190614956565b60405180910390f35b3480156106a257600080fd5b506106bd60048036038101906106b89190614199565b61240d565b005b6106d960048036038101906106d49190614199565b6126cc565b005b3480156106e757600080fd5b5061070260048036038101906106fd9190613fd2565b6129ff565b005b34801561071057600080fd5b50610719612a81565b6040516107269190614e1c565b60405180910390f35b34801561073b57600080fd5b5061075660048036038101906107519190614170565b612a8b565b6040516107639190614971565b60405180910390f35b34801561077857600080fd5b50610793600480360381019061078e9190613f47565b612aa7565b6040516107a09190614956565b60405180910390f35b3480156107b557600080fd5b506107d060048036038101906107cb9190614170565b612b3b565b6040516107e599989796959493929190614e37565b60405180910390f35b3480156107fa57600080fd5b5061081560048036038101906108109190613e9f565b612cc6565b005b60007f80ac58cd000000000000000000000000000000000000000000000000000000007bffffffffffffffffffffffffffffffffffffffffffffffffffffffff1916827bffffffffffffffffffffffffffffffffffffffffffffffffffffffff191614806108e257507f5b5e139f000000000000000000000000000000000000000000000000000000007bffffffffffffffffffffffffffffffffffffffffffffffffffffffff1916827bffffffffffffffffffffffffffffffffffffffffffffffffffffffff1916145b806108f257506108f182612dbe565b5b9050919050565b600061090484612e28565b90508273ffffffffffffffffffffffffffffffffffffffff166109256130df565b73ffffffffffffffffffffffffffffffffffffffff16148061099b5750600a60009054906101000a900473ffffffffffffffffffffffffffffffffffffffff1673ffffffffffffffffffffffffffffffffffffffff166109836130df565b73ffffffffffffffffffffffffffffffffffffffff16145b6109da576040517f08c379a00000000000000000000000000000000000000000000000000000000081526004016109d190614b9a565b60405180910390fd5b6109eb6109e56130df565b856130e7565b610a2a576040517f08c379a0000000000000000000000000000000000000000000000000000000008152600401610a2190614b9a565b60405180910390fd5b8060c0015115610a6f576040517f08c379a0000000000000000000000000000000000000000000000000000000008152600401610a6690614b5a565b60405180910390fd5b8060400151821015610ab6576040517f08c379a0000000000000000000000000000000000000000000000000000000008152600401610aad90614d3a565b60405180910390fd5b610adf601054610ad1601054856131c590919063ffffffff16565b6131db90919063ffffffff16565b81604001818152505060018160c001901515908115158152505080600760008681526020019081526020016000206000820151816000015560208201518160010160006101000a81548173ffffffffffffffffffffffffffffffffffffffff021916908373ffffffffffffffffffffffffffffffffffffffff16021790555060408201518160020155606082015181600301556080820151816004019080519060200190610b8e929190613a25565b5060a0820151816005019080519060200190610bab929190613a25565b5060c08201518160060160006101000a81548160ff02191690831515021790555060e0820151816007015561010082015181600801559050507f5d2c7bf90f1fb93dc5c1a182708e82e00fe9ea38d825a4c875373e4829a804438160a00151826020015186846080015186604051610c27959493929190614a39565b60405180910390a150505050565b606060008054610c44906151d3565b80601f0160208091040260200160405190810160405280929190818152602001828054610c70906151d3565b8015610cbd5780601f10610c9257610100808354040283529160200191610cbd565b820191906000526020600020905b815481529060010190602001808311610ca057829003601f168201915b5050505050905090565b6000610cd2826131f1565b610d11576040517f08c379a0000000000000000000000000000000000000000000000000000000008152600401610d0890614c7a565b60405180910390fd5b6004600083815260200190815260200160002060009054906101000a900473ffffffffffffffffffffffffffffffffffffffff169050919050565b6000610d578261108c565b90508073ffffffffffffffffffffffffffffffffffffffff168373ffffffffffffffffffffffffffffffffffffffff161415610dc8576040517f08c379a0000000000000000000000000000000000000000000000000000000008152600401610dbf90614d1a565b60405180910390fd5b8073ffffffffffffffffffffffffffffffffffffffff16610de76130df565b73ffffffffffffffffffffffffffffffffffffffff161480610e165750610e1581610e106130df565b612aa7565b5b610e55576040517f08c379a0000000000000000000000000000000000000000000000000000000008152600401610e4c90614bda565b60405180910390fd5b610e5f838361325d565b505050565b6000600b54905090565b610e766130df565b73ffffffffffffffffffffffffffffffffffffffff16610e9461191e565b73ffffffffffffffffffffffffffffffffffffffff1614610eea576040517f08c379a0000000000000000000000000000000000000000000000000000000008152600401610ee190614cfa565b60405180910390fd5b505050565b610ef76130df565b73ffffffffffffffffffffffffffffffffffffffff16610f1561191e565b73ffffffffffffffffffffffffffffffffffffffff1614610f6b576040517f08c379a0000000000000000000000000000000000000000000000000000000008152600401610f6290614cfa565b60405180910390fd5b505050565b610f786130df565b73ffffffffffffffffffffffffffffffffffffffff16610f9661191e565b73ffffffffffffffffffffffffffffffffffffffff1614610fec576040517f08c379a0000000000000000000000000000000000000000000000000000000008152600401610fe390614cfa565b60405180910390fd5b80600c8190555050565b610ffe6130df565b73ffffffffffffffffffffffffffffffffffffffff1661101c61191e565b73ffffffffffffffffffffffffffffffffffffffff1614611072576040517f08c379a000000000000000000000000000000000000000000000000000000000815260040161106990614cfa565b60405180910390fd5b80600f9080519060200190611088929190613a25565b5050565b6000806002600084815260200190815260200160002060009054906101000a900473ffffffffffffffffffffffffffffffffffffffff169050600073ffffffffffffffffffffffffffffffffffffffff168173ffffffffffffffffffffffffffffffffffffffff161415611135576040517f08c379a000000000000000000000000000000000000000000000000000000000815260040161112c90614c1a565b60405180910390fd5b80915050919050565b611146613aab565b600061115183612e28565b905080915050919050565b60008073ffffffffffffffffffffffffffffffffffffffff168273ffffffffffffffffffffffffffffffffffffffff1614156111cd576040517f08c379a00000000000000000000000000000000000000000000000000000000081526004016111c490614bfa565b60405180910390fd5b600360008373ffffffffffffffffffffffffffffffffffffffff1673ffffffffffffffffffffffffffffffffffffffff168152602001908152602001600020549050919050565b61121c6130df565b73ffffffffffffffffffffffffffffffffffffffff1661123a61191e565b73ffffffffffffffffffffffffffffffffffffffff1614611290576040517f08c379a000000000000000000000000000000000000000000000000000000000815260040161128790614cfa565b60405180910390fd5b61129a6000613316565b565b6000600d54905090565b60006112b183612e28565b905080604001513410156112fa576040517f08c379a00000000000000000000000000000000000000000000000000000000081526004016112f190614d7a565b60405180910390fd5b8060c0015161133e576040517f08c379a000000000000000000000000000000000000000000000000000000000815260040161133590614c9a565b60405180910390fd5b8173ffffffffffffffffffffffffffffffffffffffff16816020015173ffffffffffffffffffffffffffffffffffffffff1614156113b1576040517f08c379a00000000000000000000000000000000000000000000000000000000081526004016113a890614bba565b60405180910390fd5b60008160a00151905060008260800151905060006113ce346133dc565b9050600081346113de91906150d7565b90506113e861191e565b73ffffffffffffffffffffffffffffffffffffffff166108fc839081150290604051600060405180830381858888f1935050505015801561142d573d6000803e3d6000fd5b50846020015173ffffffffffffffffffffffffffffffffffffffff166108fc829081150290604051600060405180830381858888f19350505050158015611478573d6000803e3d6000fd5b506114888560200151878961340e565b856008856040516114999190614902565b908152602001604051809103902060006101000a81548173ffffffffffffffffffffffffffffffffffffffff021916908373ffffffffffffffffffffffffffffffffffffffff160217905550856009846040516114f69190614902565b908152602001604051809103902060006101000a81548173ffffffffffffffffffffffffffffffffffffffff021916908373ffffffffffffffffffffffffffffffffffffffff160217905550600061154d34613675565b905086866020019073ffffffffffffffffffffffffffffffffffffffff16908173ffffffffffffffffffffffffffffffffffffffff168152505085604001518660600181815250508086604001818152505060008660c0019015159081151581525050428660e0018181525050856101000180518091906115cd90615236565b8152505085600760008a81526020019081526020016000206000820151816000015560208201518160010160006101000a81548173ffffffffffffffffffffffffffffffffffffffff021916908373ffffffffffffffffffffffffffffffffffffffff16021790555060408201518160020155606082015181600301556080820151816004019080519060200190611666929190613a25565b5060a0820151816005019080519060200190611683929190613a25565b5060c08201518160060160006101000a81548160ff02191690831515021790555060e0820151816007015561010082015181600801559050505050505050505050565b606060006116d38361115c565b90506000808267ffffffffffffffff811115611718577f4e487b7100000000000000000000000000000000000000000000000000000000600052604160045260246000fd5b60405190808252806020026020018201604052801561175157816020015b61173e613aab565b8152602001906001900390816117365790505b50905060008311156119135760003073ffffffffffffffffffffffffffffffffffffffff16639d63848a6040518163ffffffff1660e01b815260040160006040518083038186803b1580156117a557600080fd5b505afa1580156117b9573d6000803e3d6000fd5b505050506040513d6000823e3d601f19601f820116820180604052508101906117e291906140c5565b905060005b600e54811015611910578673ffffffffffffffffffffffffffffffffffffffff16828281518110611841577f4e487b7100000000000000000000000000000000000000000000000000000000600052603260045260246000fd5b60200260200101516020015173ffffffffffffffffffffffffffffffffffffffff1614156118fd578181815181106118a2577f4e487b7100000000000000000000000000000000000000000000000000000000600052603260045260246000fd5b60200260200101518385815181106118e3577f4e487b7100000000000000000000000000000000000000000000000000000000600052603260045260246000fd5b602002602001018190525083806118f990615236565b9450505b808061190890615236565b9150506117e7565b50505b809350505050919050565b6000600660009054906101000a900473ffffffffffffffffffffffffffffffffffffffff16905090565b606060018054611957906151d3565b80601f0160208091040260200160405190810160405280929190818152602001828054611983906151d3565b80156119d05780601f106119a5576101008083540402835291602001916119d0565b820191906000526020600020905b8154815290600101906020018083116119b357829003601f168201915b5050505050905090565b8273ffffffffffffffffffffffffffffffffffffffff163373ffffffffffffffffffffffffffffffffffffffff161480611a615750600a60009054906101000a900473ffffffffffffffffffffffffffffffffffffffff1673ffffffffffffffffffffffffffffffffffffffff163373ffffffffffffffffffffffffffffffffffffffff16145b611aa0576040517f08c379a0000000000000000000000000000000000000000000000000000000008152600401611a9790614cda565b60405180910390fd5b600b54341015611ae5576040517f08c379a0000000000000000000000000000000000000000000000000000000008152600401611adc90614d7a565b60405180910390fd5b600073ffffffffffffffffffffffffffffffffffffffff16600883604051611b0d9190614902565b908152602001604051809103902060009054906101000a900473ffffffffffffffffffffffffffffffffffffffff1673ffffffffffffffffffffffffffffffffffffffff1614611b92576040517f08c379a0000000000000000000000000000000000000000000000000000000008152600401611b8990614c3a565b60405180910390fd5b600073ffffffffffffffffffffffffffffffffffffffff16600982604051611bba9190614902565b908152602001604051809103902060009054906101000a900473ffffffffffffffffffffffffffffffffffffffff1673ffffffffffffffffffffffffffffffffffffffff1614611c3f576040517f08c379a0000000000000000000000000000000000000000000000000000000008152600401611c3690614a9a565b60405180910390fd5b600582511015611c84576040517f08c379a0000000000000000000000000000000000000000000000000000000008152600401611c7b90614cba565b60405180910390fd5b601c81511015611cc9576040517f08c379a0000000000000000000000000000000000000000000000000000000008152600401611cc090614d9a565b60405180910390fd5b611cd161191e565b73ffffffffffffffffffffffffffffffffffffffff166108fc349081150290604051600060405180830381858888f19350505050158015611d16573d6000803e3d6000fd5b50611d2383600e546136d4565b6000611d2e34613675565b90506000604051806101200160405280600e5481526020018673ffffffffffffffffffffffffffffffffffffffff168152602001838152602001600b548152602001848152602001858152602001600015158152602001428152602001600181525090508060076000600e5481526020019081526020016000206000820151816000015560208201518160010160006101000a81548173ffffffffffffffffffffffffffffffffffffffff021916908373ffffffffffffffffffffffffffffffffffffffff16021790555060408201518160020155606082015181600301556080820151816004019080519060200190611e29929190613a25565b5060a0820151816005019080519060200190611e46929190613a25565b5060c08201518160060160006101000a81548160ff02191690831515021790555060e08201518160070155610100820151816008015590505084600885604051611e909190614902565b908152602001604051809103902060006101000a81548173ffffffffffffffffffffffffffffffffffffffff021916908373ffffffffffffffffffffffffffffffffffffffff16021790555084600984604051611eed9190614902565b908152602001604051809103902060006101000a81548173ffffffffffffffffffffffffffffffffffffffff021916908373ffffffffffffffffffffffffffffffffffffffff160217905550600e6000815480929190611f4c90615236565b91905055507f69e2cadceb55416f48e5a82e3641de7889495c2e02c86d37aaa313d121e8e7428486600e5486604051611f889493929190614993565b60405180910390a15050505050565b60606000600e5467ffffffffffffffff811115611fdd577f4e487b7100000000000000000000000000000000000000000000000000000000600052604160045260246000fd5b60405190808252806020026020018201604052801561201657816020015b612003613aab565b815260200190600190039081611ffb5790505b50905060005b600e54811015612263576007600082815260200190815260200160002060405180610120016040529081600082015481526020016001820160009054906101000a900473ffffffffffffffffffffffffffffffffffffffff1673ffffffffffffffffffffffffffffffffffffffff1673ffffffffffffffffffffffffffffffffffffffff16815260200160028201548152602001600382015481526020016004820180546120c9906151d3565b80601f01602080910402602001604051908101604052809291908181526020018280546120f5906151d3565b80156121425780601f1061211757610100808354040283529160200191612142565b820191906000526020600020905b81548152906001019060200180831161212557829003601f168201915b5050505050815260200160058201805461215b906151d3565b80601f0160208091040260200160405190810160405280929190818152602001828054612187906151d3565b80156121d45780601f106121a9576101008083540402835291602001916121d4565b820191906000526020600020905b8154815290600101906020018083116121b757829003601f168201915b505050505081526020016006820160009054906101000a900460ff1615151515815260200160078201548152602001600882015481525050828281518110612245577f4e487b7100000000000000000000000000000000000000000000000000000000600052603260045260246000fd5b6020026020010181905250808061225b90615236565b91505061201c565b508091505090565b6000600e54905090565b61227d6130df565b73ffffffffffffffffffffffffffffffffffffffff1661229b61191e565b73ffffffffffffffffffffffffffffffffffffffff16146122f1576040517f08c379a00000000000000000000000000000000000000000000000000000000081526004016122e890614cfa565b60405180910390fd5b80600b8190555050565b6123036130df565b73ffffffffffffffffffffffffffffffffffffffff1661232161191e565b73ffffffffffffffffffffffffffffffffffffffff1614612377576040517f08c379a000000000000000000000000000000000000000000000000000000000815260040161236e90614cfa565b60405180910390fd5b80600d8190555050565b61239361238c6130df565b83836138ae565b5050565b60008073ffffffffffffffffffffffffffffffffffffffff166008836040516123c09190614902565b908152602001604051809103902060009054906101000a900473ffffffffffffffffffffffffffffffffffffffff1673ffffffffffffffffffffffffffffffffffffffff16149050919050565b600061241883612e28565b90508173ffffffffffffffffffffffffffffffffffffffff166124396130df565b73ffffffffffffffffffffffffffffffffffffffff1614806124af5750600a60009054906101000a900473ffffffffffffffffffffffffffffffffffffffff1673ffffffffffffffffffffffffffffffffffffffff166124976130df565b73ffffffffffffffffffffffffffffffffffffffff16145b6124ee576040517f08c379a00000000000000000000000000000000000000000000000000000000081526004016124e590614b9a565b60405180910390fd5b6124ff6124f96130df565b846130e7565b61253e576040517f08c379a000000000000000000000000000000000000000000000000000000000815260040161253590614b9a565b60405180910390fd5b8060c00151612582576040517f08c379a000000000000000000000000000000000000000000000000000000000815260040161257990614dda565b60405180910390fd5b60008160c001901515908115158152505080600760008581526020019081526020016000206000820151816000015560208201518160010160006101000a81548173ffffffffffffffffffffffffffffffffffffffff021916908373ffffffffffffffffffffffffffffffffffffffff16021790555060408201518160020155606082015181600301556080820151816004019080519060200190612628929190613a25565b5060a0820151816005019080519060200190612645929190613a25565b5060c08201518160060160006101000a81548160ff02191690831515021790555060e0820151816007015561010082015181600801559050507fc3b5a2843f6447d7f106f5f37fa2da559718e6690e8567e2a9a707074388a81c8160a0015182602001518584608001516040516126bf94939291906149e6565b60405180910390a1505050565b6126d46130df565b73ffffffffffffffffffffffffffffffffffffffff166126f261191e565b73ffffffffffffffffffffffffffffffffffffffff1614612748576040517f08c379a000000000000000000000000000000000000000000000000000000000815260040161273f90614cfa565b60405180910390fd5b600061275383612e28565b90508173ffffffffffffffffffffffffffffffffffffffff16816020015173ffffffffffffffffffffffffffffffffffffffff1614156127c8576040517f08c379a00000000000000000000000000000000000000000000000000000000081526004016127bf90614bba565b60405180910390fd5b60008160a0015190506000826080015190506127e98360200151858761340e565b836008836040516127fa9190614902565b908152602001604051809103902060006101000a81548173ffffffffffffffffffffffffffffffffffffffff021916908373ffffffffffffffffffffffffffffffffffffffff160217905550836009826040516128579190614902565b908152602001604051809103902060006101000a81548173ffffffffffffffffffffffffffffffffffffffff021916908373ffffffffffffffffffffffffffffffffffffffff16021790555083836020019073ffffffffffffffffffffffffffffffffffffffff16908173ffffffffffffffffffffffffffffffffffffffff168152505060008360c0019015159081151581525050428360e00181815250508261010001805180919061290990615236565b8152505082600760008781526020019081526020016000206000820151816000015560208201518160010160006101000a81548173ffffffffffffffffffffffffffffffffffffffff021916908373ffffffffffffffffffffffffffffffffffffffff160217905550604082015181600201556060820151816003015560808201518160040190805190602001906129a2929190613a25565b5060a08201518160050190805190602001906129bf929190613a25565b5060c08201518160060160006101000a81548160ff02191690831515021790555060e0820151816007015561010082015181600801559050505050505050565b612a076130df565b73ffffffffffffffffffffffffffffffffffffffff16612a2561191e565b73ffffffffffffffffffffffffffffffffffffffff1614612a7b576040517f08c379a0000000000000000000000000000000000000000000000000000000008152600401612a7290614cfa565b60405180910390fd5b50505050565b6000600c54905090565b60606000612a9883612e28565b90508060800151915050919050565b6000600560008473ffffffffffffffffffffffffffffffffffffffff1673ffffffffffffffffffffffffffffffffffffffff16815260200190815260200160002060008373ffffffffffffffffffffffffffffffffffffffff1673ffffffffffffffffffffffffffffffffffffffff16815260200190815260200160002060009054906101000a900460ff16905092915050565b60076020528060005260406000206000915090508060000154908060010160009054906101000a900473ffffffffffffffffffffffffffffffffffffffff1690806002015490806003015490806004018054612b96906151d3565b80601f0160208091040260200160405190810160405280929190818152602001828054612bc2906151d3565b8015612c0f5780601f10612be457610100808354040283529160200191612c0f565b820191906000526020600020905b815481529060010190602001808311612bf257829003601f168201915b505050505090806005018054612c24906151d3565b80601f0160208091040260200160405190810160405280929190818152602001828054612c50906151d3565b8015612c9d5780601f10612c7257610100808354040283529160200191612c9d565b820191906000526020600020905b815481529060010190602001808311612c8057829003601f168201915b5050505050908060060160009054906101000a900460ff16908060070154908060080154905089565b612cce6130df565b73ffffffffffffffffffffffffffffffffffffffff16612cec61191e565b73ffffffffffffffffffffffffffffffffffffffff1614612d42576040517f08c379a0000000000000000000000000000000000000000000000000000000008152600401612d3990614cfa565b60405180910390fd5b600073ffffffffffffffffffffffffffffffffffffffff168173ffffffffffffffffffffffffffffffffffffffff161415612db2576040517f08c379a0000000000000000000000000000000000000000000000000000000008152600401612da990614aba565b60405180910390fd5b612dbb81613316565b50565b60007f01ffc9a7000000000000000000000000000000000000000000000000000000007bffffffffffffffffffffffffffffffffffffffffffffffffffffffff1916827bffffffffffffffffffffffffffffffffffffffffffffffffffffffff1916149050919050565b612e30613aab565b612e39826131f1565b612e78576040517f08c379a0000000000000000000000000000000000000000000000000000000008152600401612e6f90614d5a565b60405180910390fd5b60006007600084815260200190815260200160002060405180610120016040529081600082015481526020016001820160009054906101000a900473ffffffffffffffffffffffffffffffffffffffff1673ffffffffffffffffffffffffffffffffffffffff1673ffffffffffffffffffffffffffffffffffffffff1681526020016002820154815260200160038201548152602001600482018054612f1d906151d3565b80601f0160208091040260200160405190810160405280929190818152602001828054612f49906151d3565b8015612f965780601f10612f6b57610100808354040283529160200191612f96565b820191906000526020600020905b815481529060010190602001808311612f7957829003601f168201915b50505050508152602001600582018054612faf906151d3565b80601f0160208091040260200160405190810160405280929190818152602001828054612fdb906151d3565b80156130285780601f10612ffd57610100808354040283529160200191613028565b820191906000526020600020905b81548152906001019060200180831161300b57829003601f168201915b505050505081526020016006820160009054906101000a900460ff16151515158152602001600782015481526020016008820154815250509050600073ffffffffffffffffffffffffffffffffffffffff16816020015173ffffffffffffffffffffffffffffffffffffffff1614156130d6576040517f08c379a00000000000000000000000000000000000000000000000000000000081526004016130cd90614dba565b60405180910390fd5b80915050919050565b600033905090565b60006130f2826131f1565b613131576040517f08c379a000000000000000000000000000000000000000000000000000000000815260040161312890614b7a565b60405180910390fd5b600061313c8361108c565b90508073ffffffffffffffffffffffffffffffffffffffff168473ffffffffffffffffffffffffffffffffffffffff1614806131ab57508373ffffffffffffffffffffffffffffffffffffffff1661319384610cc7565b73ffffffffffffffffffffffffffffffffffffffff16145b806131bc57506131bb8185612aa7565b5b91505092915050565b600081836131d3919061504c565b905092915050565b600081836131e9919061507d565b905092915050565b60008073ffffffffffffffffffffffffffffffffffffffff166002600084815260200190815260200160002060009054906101000a900473ffffffffffffffffffffffffffffffffffffffff1673ffffffffffffffffffffffffffffffffffffffff1614159050919050565b816004600083815260200190815260200160002060006101000a81548173ffffffffffffffffffffffffffffffffffffffff021916908373ffffffffffffffffffffffffffffffffffffffff160217905550808273ffffffffffffffffffffffffffffffffffffffff166132d08361108c565b73ffffffffffffffffffffffffffffffffffffffff167f8c5be1e5ebec7d5bd14f71427d1e84f3dd0314c0f7b2291e5b200ac8c7c3b92560405160405180910390a45050565b6000600660009054906101000a900473ffffffffffffffffffffffffffffffffffffffff16905081600660006101000a81548173ffffffffffffffffffffffffffffffffffffffff021916908373ffffffffffffffffffffffffffffffffffffffff1602179055508173ffffffffffffffffffffffffffffffffffffffff168173ffffffffffffffffffffffffffffffffffffffff167f8be0079c531659141344cd1fd0a4f28419497f9722a3daafe3b4186f6b6457e060405160405180910390a35050565b60006134076127106133f9600c54856131db90919063ffffffff16565b6131c590919063ffffffff16565b9050919050565b8273ffffffffffffffffffffffffffffffffffffffff1661342e8261108c565b73ffffffffffffffffffffffffffffffffffffffff1614613484576040517f08c379a000000000000000000000000000000000000000000000000000000000815260040161347b90614ada565b60405180910390fd5b600073ffffffffffffffffffffffffffffffffffffffff168273ffffffffffffffffffffffffffffffffffffffff1614156134f4576040517f08c379a00000000000000000000000000000000000000000000000000000000081526004016134eb90614b1a565b60405180910390fd5b6134ff838383613a1b565b61350a60008261325d565b6001600360008573ffffffffffffffffffffffffffffffffffffffff1673ffffffffffffffffffffffffffffffffffffffff168152602001908152602001600020600082825461355a91906150d7565b925050819055506001600360008473ffffffffffffffffffffffffffffffffffffffff1673ffffffffffffffffffffffffffffffffffffffff16815260200190815260200160002060008282546135b19190614ff6565b92505081905550816002600083815260200190815260200160002060006101000a81548173ffffffffffffffffffffffffffffffffffffffff021916908373ffffffffffffffffffffffffffffffffffffffff160217905550808273ffffffffffffffffffffffffffffffffffffffff168473ffffffffffffffffffffffffffffffffffffffff167fddf252ad1be2c89b69c2b068fc378daa952ba7f163c4a11628f55a4df523b3ef60405160405180910390a4613670838383613a20565b505050565b6000806136a1612710613693600d54866131db90919063ffffffff16565b6131c590919063ffffffff16565b90506136cc6010546136be601054846131c590919063ffffffff16565b6131db90919063ffffffff16565b915050919050565b600073ffffffffffffffffffffffffffffffffffffffff168273ffffffffffffffffffffffffffffffffffffffff161415613744576040517f08c379a000000000000000000000000000000000000000000000000000000000815260040161373b90614c5a565b60405180910390fd5b61374d816131f1565b1561378d576040517f08c379a000000000000000000000000000000000000000000000000000000000815260040161378490614afa565b60405180910390fd5b61379960008383613a1b565b6001600360008473ffffffffffffffffffffffffffffffffffffffff1673ffffffffffffffffffffffffffffffffffffffff16815260200190815260200160002060008282546137e99190614ff6565b92505081905550816002600083815260200190815260200160002060006101000a81548173ffffffffffffffffffffffffffffffffffffffff021916908373ffffffffffffffffffffffffffffffffffffffff160217905550808273ffffffffffffffffffffffffffffffffffffffff16600073ffffffffffffffffffffffffffffffffffffffff167fddf252ad1be2c89b69c2b068fc378daa952ba7f163c4a11628f55a4df523b3ef60405160405180910390a46138aa60008383613a20565b5050565b8173ffffffffffffffffffffffffffffffffffffffff168373ffffffffffffffffffffffffffffffffffffffff16141561391d576040517f08c379a000000000000000000000000000000000000000000000000000000000815260040161391490614b3a565b60405180910390fd5b80600560008573ffffffffffffffffffffffffffffffffffffffff1673ffffffffffffffffffffffffffffffffffffffff16815260200190815260200160002060008473ffffffffffffffffffffffffffffffffffffffff1673ffffffffffffffffffffffffffffffffffffffff16815260200190815260200160002060006101000a81548160ff0219169083151502179055508173ffffffffffffffffffffffffffffffffffffffff168373ffffffffffffffffffffffffffffffffffffffff167f17307eab39ab6107e8899845ad3d59bd9653f200f220920489ca2b5937696c3183604051613a0e9190614956565b60405180910390a3505050565b505050565b505050565b828054613a31906151d3565b90600052602060002090601f016020900481019282613a535760008555613a9a565b82601f10613a6c57805160ff1916838001178555613a9a565b82800160010185558215613a9a579182015b82811115613a99578251825591602001919060010190613a7e565b5b509050613aa79190613b0f565b5090565b60405180610120016040528060008152602001600073ffffffffffffffffffffffffffffffffffffffff1681526020016000815260200160008152602001606081526020016060815260200160001515815260200160008152602001600081525090565b5b80821115613b28576000816000905550600101613b10565b5090565b6000613b3f613b3a84614ef7565b614ed2565b9050808382526020820190508260005b85811015613b7f5781518501613b658882613d69565b845260208401935060208301925050600181019050613b4f565b5050509392505050565b6000613b9c613b9784614f23565b614ed2565b905082815260208101848484011115613bb457600080fd5b613bbf848285615191565b509392505050565b6000613bda613bd584614f54565b614ed2565b905082815260208101848484011115613bf257600080fd5b613bfd848285615191565b509392505050565b6000613c18613c1384614f54565b614ed2565b905082815260208101848484011115613c3057600080fd5b613c3b8482856151a0565b509392505050565b600081359050613c52816159d9565b92915050565b600081519050613c67816159d9565b92915050565b600081359050613c7c816159f0565b92915050565b600082601f830112613c9357600080fd5b8151613ca3848260208601613b2c565b91505092915050565b600081359050613cbb81615a07565b92915050565b600081519050613cd081615a07565b92915050565b600081359050613ce581615a1e565b92915050565b600082601f830112613cfc57600080fd5b8135613d0c848260208601613b89565b91505092915050565b600082601f830112613d2657600080fd5b8135613d36848260208601613bc7565b91505092915050565b600082601f830112613d5057600080fd5b8151613d60848260208601613c05565b91505092915050565b60006101208284031215613d7c57600080fd5b613d87610120614ed2565b90506000613d9784828501613e8a565b6000830152506020613dab84828501613c58565b6020830152506040613dbf84828501613e8a565b6040830152506060613dd384828501613e8a565b606083015250608082015167ffffffffffffffff811115613df357600080fd5b613dff84828501613d3f565b60808301525060a082015167ffffffffffffffff811115613e1f57600080fd5b613e2b84828501613d3f565b60a08301525060c0613e3f84828501613cc1565b60c08301525060e0613e5384828501613e8a565b60e083015250610100613e6884828501613e8a565b6101008301525092915050565b600081359050613e8481615a35565b92915050565b600081519050613e9981615a35565b92915050565b600060208284031215613eb157600080fd5b6000613ebf84828501613c43565b91505092915050565b600080600060608486031215613edd57600080fd5b6000613eeb86828701613c6d565b935050602084013567ffffffffffffffff811115613f0857600080fd5b613f1486828701613d15565b925050604084013567ffffffffffffffff811115613f3157600080fd5b613f3d86828701613d15565b9150509250925092565b60008060408385031215613f5a57600080fd5b6000613f6885828601613c43565b9250506020613f7985828601613c43565b9150509250929050565b600080600060608486031215613f9857600080fd5b6000613fa686828701613c43565b9350506020613fb786828701613c43565b9250506040613fc886828701613e75565b9150509250925092565b60008060008060808587031215613fe857600080fd5b6000613ff687828801613c43565b945050602061400787828801613c43565b935050604061401887828801613e75565b925050606085013567ffffffffffffffff81111561403557600080fd5b61404187828801613ceb565b91505092959194509250565b6000806040838503121561406057600080fd5b600061406e85828601613c43565b925050602061407f85828601613cac565b9150509250929050565b6000806040838503121561409c57600080fd5b60006140aa85828601613c43565b92505060206140bb85828601613e75565b9150509250929050565b6000602082840312156140d757600080fd5b600082015167ffffffffffffffff8111156140f157600080fd5b6140fd84828501613c82565b91505092915050565b60006020828403121561411857600080fd5b600061412684828501613cd6565b91505092915050565b60006020828403121561414157600080fd5b600082013567ffffffffffffffff81111561415b57600080fd5b61416784828501613d15565b91505092915050565b60006020828403121561418257600080fd5b600061419084828501613e75565b91505092915050565b600080604083850312156141ac57600080fd5b60006141ba85828601613e75565b92505060206141cb85828601613c43565b9150509250929050565b6000806000606084860312156141ea57600080fd5b60006141f886828701613e75565b935050602061420986828701613c43565b925050604061421a86828701613e75565b9150509250925092565b6000614230838361474c565b905092915050565b6142418161511d565b82525050565b6142508161510b565b82525050565b61425f8161510b565b82525050565b600061427082614f95565b61427a8185614fb8565b93508360208202850161428c85614f85565b8060005b858110156142c857848403895281516142a98582614224565b94506142b483614fab565b925060208a01995050600181019050614290565b50829750879550505050505092915050565b6142e38161512f565b82525050565b6142f28161512f565b82525050565b600061430382614fa0565b61430d8185614fc9565b935061431d8185602086016151a0565b6143268161533b565b840191505092915050565b600061433c82614fa0565b6143468185614fda565b93506143568185602086016151a0565b61435f8161533b565b840191505092915050565b600061437582614fa0565b61437f8185614feb565b935061438f8185602086016151a0565b80840191505092915050565b60006143a8602d83614fda565b91506143b38261534c565b604082019050919050565b60006143cb602683614fda565b91506143d68261539b565b604082019050919050565b60006143ee602583614fda565b91506143f9826153ea565b604082019050919050565b6000614411601c83614fda565b915061441c82615439565b602082019050919050565b6000614434602483614fda565b915061443f82615462565b604082019050919050565b6000614457601983614fda565b9150614462826154b1565b602082019050919050565b600061447a602083614fda565b9150614485826154da565b602082019050919050565b600061449d602c83614fda565b91506144a882615503565b604082019050919050565b60006144c0602c83614fda565b91506144cb82615552565b604082019050919050565b60006144e3601883614fda565b91506144ee826155a1565b602082019050919050565b6000614506603883614fda565b9150614511826155ca565b604082019050919050565b6000614529602a83614fda565b915061453482615619565b604082019050919050565b600061454c602983614fda565b915061455782615668565b604082019050919050565b600061456f603283614fda565b915061457a826156b7565b604082019050919050565b6000614592602083614fda565b915061459d82615706565b602082019050919050565b60006145b5602c83614fda565b91506145c08261572f565b604082019050919050565b60006145d8601583614fda565b91506145e38261577e565b602082019050919050565b60006145fb602083614fda565b9150614606826157a7565b602082019050919050565b600061461e601283614fda565b9150614629826157d0565b602082019050919050565b6000614641602083614fda565b915061464c826157f9565b602082019050919050565b6000614664602183614fda565b915061466f82615822565b604082019050919050565b6000614687603983614fda565b915061469282615871565b604082019050919050565b60006146aa601683614fda565b91506146b5826158c0565b602082019050919050565b60006146cd602d83614fda565b91506146d8826158e9565b604082019050919050565b60006146f0602083614fda565b91506146fb82615938565b602082019050919050565b6000614713601b83614fda565b915061471e82615961565b602082019050919050565b6000614736602a83614fda565b91506147418261598a565b604082019050919050565b60006101208301600083015161476560008601826148e4565b5060208301516147786020860182614247565b50604083015161478b60408601826148e4565b50606083015161479e60608601826148e4565b50608083015184820360808601526147b682826142f8565b91505060a083015184820360a08601526147d082826142f8565b91505060c08301516147e560c08601826142da565b5060e08301516147f860e08601826148e4565b5061010083015161480d6101008601826148e4565b508091505092915050565b60006101208301600083015161483160008601826148e4565b5060208301516148446020860182614247565b50604083015161485760408601826148e4565b50606083015161486a60608601826148e4565b506080830151848203608086015261488282826142f8565b91505060a083015184820360a086015261489c82826142f8565b91505060c08301516148b160c08601826142da565b5060e08301516148c460e08601826148e4565b506101008301516148d96101008601826148e4565b508091505092915050565b6148ed81615187565b82525050565b6148fc81615187565b82525050565b600061490e828461436a565b915081905092915050565b600060208201905061492e6000830184614256565b92915050565b6000602082019050818103600083015261494e8184614265565b905092915050565b600060208201905061496b60008301846142e9565b92915050565b6000602082019050818103600083015261498b8184614331565b905092915050565b600060808201905081810360008301526149ad8187614331565b90506149bc6020830186614238565b6149c960408301856148f3565b81810360608301526149db8184614331565b905095945050505050565b60006080820190508181036000830152614a008187614331565b9050614a0f6020830186614256565b614a1c60408301856148f3565b8181036060830152614a2e8184614331565b905095945050505050565b600060a0820190508181036000830152614a538188614331565b9050614a626020830187614256565b614a6f60408301866148f3565b8181036060830152614a818185614331565b9050614a9060808301846148f3565b9695505050505050565b60006020820190508181036000830152614ab38161439b565b9050919050565b60006020820190508181036000830152614ad3816143be565b9050919050565b60006020820190508181036000830152614af3816143e1565b9050919050565b60006020820190508181036000830152614b1381614404565b9050919050565b60006020820190508181036000830152614b3381614427565b9050919050565b60006020820190508181036000830152614b538161444a565b9050919050565b60006020820190508181036000830152614b738161446d565b9050919050565b60006020820190508181036000830152614b9381614490565b9050919050565b60006020820190508181036000830152614bb3816144b3565b9050919050565b60006020820190508181036000830152614bd3816144d6565b9050919050565b60006020820190508181036000830152614bf3816144f9565b9050919050565b60006020820190508181036000830152614c138161451c565b9050919050565b60006020820190508181036000830152614c338161453f565b9050919050565b60006020820190508181036000830152614c5381614562565b9050919050565b60006020820190508181036000830152614c7381614585565b9050919050565b60006020820190508181036000830152614c93816145a8565b9050919050565b60006020820190508181036000830152614cb3816145cb565b9050919050565b60006020820190508181036000830152614cd3816145ee565b9050919050565b60006020820190508181036000830152614cf381614611565b9050919050565b60006020820190508181036000830152614d1381614634565b9050919050565b60006020820190508181036000830152614d3381614657565b9050919050565b60006020820190508181036000830152614d538161467a565b9050919050565b60006020820190508181036000830152614d738161469d565b9050919050565b60006020820190508181036000830152614d93816146c0565b9050919050565b60006020820190508181036000830152614db3816146e3565b9050919050565b60006020820190508181036000830152614dd381614706565b9050919050565b60006020820190508181036000830152614df381614729565b9050919050565b60006020820190508181036000830152614e148184614818565b905092915050565b6000602082019050614e3160008301846148f3565b92915050565b600061012082019050614e4d600083018c6148f3565b614e5a602083018b614256565b614e67604083018a6148f3565b614e7460608301896148f3565b8181036080830152614e868188614331565b905081810360a0830152614e9a8187614331565b9050614ea960c08301866142e9565b614eb660e08301856148f3565b614ec46101008301846148f3565b9a9950505050505050505050565b6000614edc614eed565b9050614ee88282615205565b919050565b6000604051905090565b600067ffffffffffffffff821115614f1257614f1161530c565b5b602082029050602081019050919050565b600067ffffffffffffffff821115614f3e57614f3d61530c565b5b614f478261533b565b9050602081019050919050565b600067ffffffffffffffff821115614f6f57614f6e61530c565b5b614f788261533b565b9050602081019050919050565b6000819050602082019050919050565b600081519050919050565b600081519050919050565b6000602082019050919050565b600082825260208201905092915050565b600082825260208201905092915050565b600082825260208201905092915050565b600081905092915050565b600061500182615187565b915061500c83615187565b9250827fffffffffffffffffffffffffffffffffffffffffffffffffffffffffffffffff038211156150415761504061527f565b5b828201905092915050565b600061505782615187565b915061506283615187565b925082615072576150716152ae565b5b828204905092915050565b600061508882615187565b915061509383615187565b9250817fffffffffffffffffffffffffffffffffffffffffffffffffffffffffffffffff04831182151516156150cc576150cb61527f565b5b828202905092915050565b60006150e282615187565b91506150ed83615187565b925082821015615100576150ff61527f565b5b828203905092915050565b600061511682615167565b9050919050565b600061512882615167565b9050919050565b60008115159050919050565b60007fffffffff0000000000000000000000000000000000000000000000000000000082169050919050565b600073ffffffffffffffffffffffffffffffffffffffff82169050919050565b6000819050919050565b82818337600083830152505050565b60005b838110156151be5780820151818401526020810190506151a3565b838111156151cd576000848401525b50505050565b600060028204905060018216806151eb57607f821691505b602082108114156151ff576151fe6152dd565b5b50919050565b61520e8261533b565b810181811067ffffffffffffffff8211171561522d5761522c61530c565b5b80604052505050565b600061524182615187565b91507fffffffffffffffffffffffffffffffffffffffffffffffffffffffffffffffff8214156152745761527361527f565b5b600182019050919050565b7f4e487b7100000000000000000000000000000000000000000000000000000000600052601160045260246000fd5b7f4e487b7100000000000000000000000000000000000000000000000000000000600052601260045260246000fd5b7f4e487b7100000000000000000000000000000000000000000000000000000000600052602260045260246000fd5b7f4e487b7100000000000000000000000000000000000000000000000000000000600052604160045260246000fd5b6000601f19601f8301169050919050565b7f4120746f6b656e2068617320616c7265616479206265656e206d696e7465642060008201527f7769746820746869732055524900000000000000000000000000000000000000602082015250565b7f4f776e61626c653a206e6577206f776e657220697320746865207a65726f206160008201527f6464726573730000000000000000000000000000000000000000000000000000602082015250565b7f4552433732313a207472616e736665722066726f6d20696e636f72726563742060008201527f6f776e6572000000000000000000000000000000000000000000000000000000602082015250565b7f4552433732313a20746f6b656e20616c7265616479206d696e74656400000000600082015250565b7f4552433732313a207472616e7366657220746f20746865207a65726f2061646460008201527f7265737300000000000000000000000000000000000000000000000000000000602082015250565b7f4552433732313a20617070726f766520746f2063616c6c657200000000000000600082015250565b7f546f6b656e20697320616c7265616479206d61726b656420666f722073616c65600082015250565b7f4552433732313a206f70657261746f7220717565727920666f72206e6f6e657860008201527f697374656e7420746f6b656e0000000000000000000000000000000000000000602082015250565b7f53656e646572206d75737420626520746f6b656e206f776e6572206f7220636f60008201527f6e7472616374206f776e65720000000000000000000000000000000000000000602082015250565b7f427579657220616c7265616479206f776e7320746f6b656e0000000000000000600082015250565b7f4552433732313a20617070726f76652063616c6c6572206973206e6f74206f7760008201527f6e6572206e6f7220617070726f76656420666f7220616c6c0000000000000000602082015250565b7f4552433732313a2062616c616e636520717565727920666f7220746865207a6560008201527f726f206164647265737300000000000000000000000000000000000000000000602082015250565b7f4552433732313a206f776e657220717565727920666f72206e6f6e657869737460008201527f656e7420746f6b656e0000000000000000000000000000000000000000000000602082015250565b7f4120746f6b656e2068617320616c7265616479206265656e206d696e7465642060008201527f77697468207468697320736f6c7574696f6e0000000000000000000000000000602082015250565b7f4552433732313a206d696e7420746f20746865207a65726f2061646472657373600082015250565b7f4552433732313a20617070726f76656420717565727920666f72206e6f6e657860008201527f697374656e7420746f6b656e0000000000000000000000000000000000000000602082015250565b7f546f6b656e206973206e6f7420666f722073616c650000000000000000000000600082015250565b7f412076616c756520666f7220736f6c7574696f6e206973207265717569726564600082015250565b7f496e76616c696420746f20616464726573730000000000000000000000000000600082015250565b7f4f776e61626c653a2063616c6c6572206973206e6f7420746865206f776e6572600082015250565b7f4552433732313a20617070726f76616c20746f2063757272656e74206f776e6560008201527f7200000000000000000000000000000000000000000000000000000000000000602082015250565b7f546f6b656e2063616e6e6f7420626520707269636564206c657373207468616e60008201527f207468652063757272656e742061736b696e6720707269636500000000000000602082015250565b7f546f6b656e496420646f6573206e6f7420657869737400000000000000000000600082015250565b7f496e73756666696369656e742065746865722073656e7420776974682074686960008201527f73207472616e73616374696f6e00000000000000000000000000000000000000602082015250565b7f412076616c756520666f7220746f6b656e555249206973207265717569726564600082015250565b7f546f6b656e206f626a65637420646f6573206e6f742065786973740000000000600082015250565b7f546f6b656e20697320616c72656164792070726576656e7465642066726f6d2060008201527f6265696e6720736f6c6400000000000000000000000000000000000000000000602082015250565b6159e28161510b565b81146159ed57600080fd5b50565b6159f98161511d565b8114615a0457600080fd5b50565b615a108161512f565b8114615a1b57600080fd5b50565b615a278161513b565b8114615a3257600080fd5b50565b615a3e81615187565b8114615a4957600080fd5b5056fea264697066735822122081c3141a1eea3f74aba6ab42d020250bcfca7b1354a67f96147b15641bd90bf364736f6c63430008010033",
  "immutableReferences": {},
  "source": "// SPDX-License-Identifier: MIT\r\npragma solidity >=0.4.22 <0.9.0;\r\nimport \"@openzeppelin/contracts/token/ERC721/ERC721.sol\";\r\nimport \"@openzeppelin/contracts/access/Ownable.sol\";\r\nimport \"@openzeppelin/contracts/utils/math/SafeMath.sol\";\r\n\r\ncontract EthordleToken is ERC721, Ownable {\r\n    using Strings for uint256;\r\n    using SafeMath for uint256;\r\n\r\n    struct Token {\r\n        uint256 id;        \r\n        address owner;\r\n        uint256 price;\r\n        uint256 lastPrice;\r\n        string url;\r\n        string solution;\r\n        bool isForSale;\r\n        uint256 lastTransactionTimestamp;\r\n        uint256 transactionCount;        \r\n    }\r\n\r\n    mapping (uint256 => Token) public _tokens;\r\n    mapping (string => address) private _solutionOwners;\r\n    mapping (string => address) private _tokenURIOwners;\r\n\r\n    address private _owner;\r\n    uint256 private _initialPrice;\r\n    uint256 private _royaltyRate;\r\n    uint256 private _priceEscalationRate;\r\n    uint256 private _currentTokenId;\r\n    string private _baseURIextended;\r\n\r\n    uint256 roundingDivisor = 10**15;\r\n\r\n    event TokenMinted (\r\n        string solution,\r\n        address payable account,\r\n        uint256 tokenId,\r\n        string metadataURI\r\n    );\r\n\r\n    event TokenSaleAllowed (\r\n        string solution,\r\n        address account,\r\n        uint256 tokenId,\r\n        string metadataURI,\r\n        uint256 price\r\n    );\r\n\r\n    event TokenSalePrevented (\r\n        string solution,\r\n        address account,\r\n        uint256 tokenId,\r\n        string metadataURI\r\n    );\r\n\r\n    constructor(string memory _name, string memory _symbol, uint256 initialPrice_, uint256 royaltyRate_, uint256 priceEscalationRate_) ERC721(_name, _symbol) {\r\n        _owner = msg.sender;\r\n        _currentTokenId = 0;\r\n        _initialPrice = initialPrice_;\r\n        _royaltyRate = royaltyRate_;\r\n        _priceEscalationRate = priceEscalationRate_;\r\n    }\r\n    \r\n    function _validateTokenId(uint256 tokenId) internal view returns (Token memory) {\r\n        require(_exists(tokenId), 'TokenId does not exist');\r\n        \r\n        Token memory token = _tokens[tokenId];    \r\n        \r\n        require(token.owner != address(0x0), 'Token object does not exist');\r\n\r\n        return token;\r\n    }\r\n\r\n    function setInitialPrice(uint256 initialPrice_) external onlyOwner() {\r\n        _initialPrice = initialPrice_;\r\n    }\r\n\r\n    function initialPrice() external view returns (uint256) {\r\n        return _initialPrice;\r\n    }\r\n\r\n    function setRoyaltyRate(uint256 royaltyRate_) external onlyOwner() {\r\n        _royaltyRate = royaltyRate_;   \r\n    }\r\n\r\n    function royaltyRate() external view returns (uint256) {\r\n        return _royaltyRate;\r\n    }\r\n\r\n    function setPriceEscalationRate(uint256 priceEscalationRate_) external onlyOwner() {\r\n        _priceEscalationRate = priceEscalationRate_;\r\n    }\r\n\r\n    function priceEscalationRate() external view returns (uint256) {\r\n        return _priceEscalationRate;\r\n    }\r\n\r\n    function tokenCount() external view returns (uint256) {\r\n        return _currentTokenId;\r\n    }\r\n\r\n    function tokenById(uint256 tokenId) external view returns(Token memory) {        \r\n        Token memory token = _validateTokenId(tokenId);\r\n        return token;\r\n    }\r\n\r\n    function tokensOfOwner(address _from) external view returns(Token[] memory) {\r\n        uint256 ownerCount = balanceOf(_from);\r\n        uint256 ownerIndex = 0;\r\n        Token[] memory ownerTokens = new Token[](ownerCount);\r\n\r\n        if (ownerCount > 0) {\r\n            Token[] memory allTokens = this.tokens();\r\n            \r\n            for (uint256 i = 0; i < _currentTokenId; i++) {\r\n                if (allTokens[i].owner == _from) {\r\n                    ownerTokens[ownerIndex] = allTokens[i];\r\n                    ownerIndex++;\r\n                }\r\n            }\r\n        }\r\n\r\n        return ownerTokens;\r\n    }\r\n\r\n    function tokens() external view returns(Token[] memory) {  \r\n        Token[] memory allTokens = new Token[](_currentTokenId);\r\n\r\n        for (uint256 i = 0; i < _currentTokenId; i++) {\r\n            allTokens[i] = _tokens[i];\r\n        }\r\n\r\n        return allTokens;\r\n    }\r\n    \r\n    function setBaseURI(string memory baseURI) external onlyOwner() {\r\n        _baseURIextended = baseURI;\r\n    }\r\n    \r\n    function _baseURI() internal view virtual override returns (string memory) {\r\n        return _baseURIextended;\r\n    }\r\n    \r\n    function isSolutionUnique(string memory solution_) public view returns (bool) {\r\n        return _solutionOwners[solution_] == address(0x0);\r\n    }\r\n\r\n    function tokenURI(uint256 tokenId) public view virtual override returns (string memory) {\r\n        Token memory token = _validateTokenId(tokenId);\r\n\r\n        return token.url;\r\n    }\r\n\r\n    function mint(\r\n        address payable to,\r\n        string memory solution_,\r\n        string memory tokenURI_\r\n    ) external payable {  \r\n        require(msg.sender == to || msg.sender == _owner, 'Invalid to address');      \r\n        require(msg.value >= _initialPrice, 'Insufficient ether sent with this transaction'); \r\n        require(_solutionOwners[solution_] == address(0x0), 'A token has already been minted with this solution');\r\n        require(_tokenURIOwners[tokenURI_] == address(0x0), 'A token has already been minted with this URI');\r\n        require(bytes(solution_).length >= 5, 'A value for solution is required');\r\n        require(bytes(tokenURI_).length >= 28, 'A value for tokenURI is required'); // https://ipfs.infura.io/ipfs/\r\n\r\n        payable(owner()).transfer(msg.value);\r\n\r\n        _mint(to, _currentTokenId);\r\n\r\n        uint256 newPrice =_getEscalatedPrice(msg.value);\r\n\r\n        Token memory token = Token(_currentTokenId, to, newPrice, _initialPrice, tokenURI_, solution_, false, block.timestamp, 1);\r\n       \r\n        _tokens[_currentTokenId] = token;\r\n        _solutionOwners[solution_] = to;\r\n        _tokenURIOwners[tokenURI_] = to;\r\n        _currentTokenId++;        \r\n        \r\n        emit TokenMinted(solution_, to, _currentTokenId, tokenURI_);\r\n    }\r\n\r\n    function allowSale(\r\n        uint256 tokenId,\r\n        address from,\r\n        uint256 price\r\n    ) external {    \r\n        Token memory token = _validateTokenId(tokenId);\r\n        \r\n        require(_msgSender() == from || _msgSender() == _owner, 'Sender must be token owner or contract owner'); \r\n        require(_isApprovedOrOwner(_msgSender(), tokenId), 'Sender must be token owner or contract owner');         \r\n        \r\n        require(!token.isForSale, 'Token is already marked for sale');\r\n        require(price >= token.price, 'Token cannot be priced less than the current asking price');\r\n        \r\n        token.price = price.div(roundingDivisor).mul(roundingDivisor); // round to nearest 1/1000 eth\r\n        token.isForSale = true;\r\n\r\n        _tokens[tokenId] = token; \r\n\r\n        emit TokenSaleAllowed(token.solution, token.owner, tokenId, token.url, price);\r\n    }\r\n\r\n    function preventSale(\r\n        uint256 tokenId,\r\n        address from        \r\n    ) external {   \r\n        Token memory token = _validateTokenId(tokenId);\r\n\r\n        require(_msgSender() == from || _msgSender() == _owner, 'Sender must be token owner or contract owner'); \r\n        require(_isApprovedOrOwner(_msgSender(), tokenId), 'Sender must be token owner or contract owner');    \r\n        \r\n        require(token.isForSale, 'Token is already prevented from being sold'); \r\n        \r\n        token.isForSale = false;\r\n        \r\n        _tokens[tokenId] = token; \r\n\r\n        emit TokenSalePrevented(token.solution, token.owner, tokenId, token.url);\r\n    }\r\n\r\n    function buy(\r\n        uint256 tokenId,\r\n        address to   \r\n    ) external payable {        \r\n        Token memory token = _validateTokenId(tokenId);\r\n        \r\n        require(msg.value >= token.price, 'Insufficient ether sent with this transaction');\r\n        require(token.isForSale, 'Token is not for sale');\r\n        require(token.owner != to, 'Buyer already owns token'); \r\n       \r\n        string memory solution_ = token.solution;\r\n        string memory tokenURI_ = token.url;\r\n\r\n        uint256 totalRoyalty = _getRoyalty(msg.value); \r\n        uint256 remainder = msg.value - totalRoyalty;\r\n\r\n        payable(owner()).transfer(totalRoyalty);\r\n        payable(address(token.owner)).transfer(remainder);\r\n        \r\n        _transfer(token.owner, to, tokenId);\r\n\r\n        _solutionOwners[solution_] = to;\r\n        _tokenURIOwners[tokenURI_] = to;\r\n\r\n        uint256 newPrice = _getEscalatedPrice(msg.value);\r\n\r\n        token.owner = to;\r\n        token.lastPrice = token.price;\r\n        token.price = newPrice;\r\n        token.isForSale = false;\r\n        token.lastTransactionTimestamp = block.timestamp;\r\n        token.transactionCount++;       \r\n\r\n        _tokens[tokenId] = token; \r\n    }\r\n    \r\n    function transfer(\r\n        uint256 tokenId,\r\n        address to\r\n    ) external payable onlyOwner {        \r\n        Token memory token = _validateTokenId(tokenId);\r\n        \r\n        require(token.owner != to, 'Buyer already owns token'); \r\n       \r\n        string memory solution_ = token.solution;\r\n        string memory tokenURI_ = token.url;\r\n  \r\n        _transfer(token.owner, to, tokenId);\r\n\r\n        _solutionOwners[solution_] = to;\r\n        _tokenURIOwners[tokenURI_] = to;\r\n\r\n        token.owner = to;\r\n        token.isForSale = false;\r\n        token.lastTransactionTimestamp = block.timestamp;\r\n        token.transactionCount++;       \r\n\r\n        _tokens[tokenId] = token; \r\n    }\r\n\r\n    function _getRoyalty(uint256 value) private view returns (uint256) {\r\n        return value.mul(_royaltyRate).div(10000);\r\n    }\r\n\r\n    function _getEscalatedPrice(uint256 value) private view returns (uint256) {\r\n        uint256 newPrice = value.mul(_priceEscalationRate).div(10000);\r\n\r\n        return newPrice.div(roundingDivisor).mul(roundingDivisor);  // round off new price to nearest 1/1000 eth\r\n    }\r\n  \r\n    // todo how to prevent base _transfer from being called directly\r\n\r\n    function transferFrom(\r\n        address /*from*/,\r\n        address /*to*/,\r\n        uint256 /*tokenId*/\r\n    ) public view override onlyOwner {\r\n    }\r\n\r\n    function safeTransferFrom(\r\n        address /*from*/,\r\n        address /*to*/,\r\n        uint256 /*tokenId*/\r\n    ) public view override onlyOwner {\r\n    }\r\n\r\n    function safeTransferFrom(\r\n        address /*from*/,\r\n        address /*to*/,\r\n        uint256 /*tokenId*/,\r\n        bytes memory /*_data*/\r\n    ) public view override onlyOwner {\r\n    }\r\n}",
  "sourcePath": "C:\\Dev\\Github\\ethordle\\contracts\\EthordleToken.sol",
  "compiler": {
    "name": "solc",
    "version": "0.8.1+commit.df193b15.Emscripten.clang"
  },
  "schemaVersion": "3.4.6",
  "updatedAt": "2022-05-03T14:49:09.196Z",
  "networkType": "ethereum",
  "devdoc": {
    "kind": "dev",
    "methods": {
      "approve(address,uint256)": {
        "details": "See {IERC721-approve}."
      },
      "balanceOf(address)": {
        "details": "See {IERC721-balanceOf}."
      },
      "getApproved(uint256)": {
        "details": "See {IERC721-getApproved}."
      },
      "isApprovedForAll(address,address)": {
        "details": "See {IERC721-isApprovedForAll}."
      },
      "name()": {
        "details": "See {IERC721Metadata-name}."
      },
      "owner()": {
        "details": "Returns the address of the current owner."
      },
      "ownerOf(uint256)": {
        "details": "See {IERC721-ownerOf}."
      },
      "renounceOwnership()": {
        "details": "Leaves the contract without owner. It will not be possible to call `onlyOwner` functions anymore. Can only be called by the current owner. NOTE: Renouncing ownership will leave the contract without an owner, thereby removing any functionality that is only available to the owner."
      },
      "setApprovalForAll(address,bool)": {
        "details": "See {IERC721-setApprovalForAll}."
      },
      "supportsInterface(bytes4)": {
        "details": "See {IERC165-supportsInterface}."
      },
      "symbol()": {
        "details": "See {IERC721Metadata-symbol}."
      },
      "tokenURI(uint256)": {
        "details": "See {IERC721Metadata-tokenURI}."
      },
      "transferOwnership(address)": {
        "details": "Transfers ownership of the contract to a new account (`newOwner`). Can only be called by the current owner."
      }
    },
    "version": 1
  },
  "userdoc": {
    "kind": "user",
    "methods": {},
    "version": 1
  }
}