{
  "contractName": "EthordleGame",
  "abi": [
    {
      "inputs": [],
      "name": "playerCount",
      "outputs": [
        {
          "internalType": "uint256",
          "name": "",
          "type": "uint256"
        }
      ],
      "stateMutability": "view",
      "type": "function",
      "constant": true
    },
    {
      "inputs": [
        {
          "internalType": "uint256",
          "name": "",
          "type": "uint256"
        }
      ],
      "name": "playerList",
      "outputs": [
        {
          "internalType": "address",
          "name": "",
          "type": "address"
        }
      ],
      "stateMutability": "view",
      "type": "function",
      "constant": true
    },
    {
      "inputs": [
        {
          "internalType": "address",
          "name": "",
          "type": "address"
        }
      ],
      "name": "players",
      "outputs": [
        {
          "internalType": "uint256",
          "name": "id",
          "type": "uint256"
        },
        {
          "internalType": "uint256",
          "name": "wordCount",
          "type": "uint256"
        }
      ],
      "stateMutability": "view",
      "type": "function",
      "constant": true
    },
    {
      "inputs": [],
      "name": "wordCount",
      "outputs": [
        {
          "internalType": "uint256",
          "name": "",
          "type": "uint256"
        }
      ],
      "stateMutability": "view",
      "type": "function",
      "constant": true
    },
    {
      "inputs": [
        {
          "internalType": "string",
          "name": "",
          "type": "string"
        }
      ],
      "name": "words",
      "outputs": [
        {
          "internalType": "uint256",
          "name": "id",
          "type": "uint256"
        },
        {
          "internalType": "uint256",
          "name": "wordCount",
          "type": "uint256"
        }
      ],
      "stateMutability": "view",
      "type": "function",
      "constant": true
    },
    {
      "inputs": [
        {
          "internalType": "address",
          "name": "_player",
          "type": "address"
        },
        {
          "internalType": "string",
          "name": "_word",
          "type": "string"
        }
      ],
      "name": "registerWord",
      "outputs": [],
      "stateMutability": "nonpayable",
      "type": "function"
    },
    {
      "inputs": [
        {
          "internalType": "address",
          "name": "_player",
          "type": "address"
        },
        {
          "internalType": "uint256",
          "name": "_index",
          "type": "uint256"
        }
      ],
      "name": "getWord",
      "outputs": [
        {
          "internalType": "string",
          "name": "",
          "type": "string"
        }
      ],
      "stateMutability": "view",
      "type": "function",
      "constant": true
    },
    {
      "inputs": [
        {
          "internalType": "string",
          "name": "_word",
          "type": "string"
        }
      ],
      "name": "isWordUnique",
      "outputs": [
        {
          "internalType": "bool",
          "name": "",
          "type": "bool"
        }
      ],
      "stateMutability": "view",
      "type": "function",
      "constant": true
    }
  ],
  "bytecode": "0x608060405260008055600060015534801561001957600080fd5b5061104a806100296000396000f3fe608060405234801561001057600080fd5b50600436106100885760003560e01c80639f20a9301161005b5780639f20a93014610116578063ae6d907314610146578063dd61104414610176578063e2eb41ff146101a657610088565b80630e1be73a1461008d578063302bcc57146100ab5780638fce6ea5146100c95780639b7bfee5146100e5575b600080fd5b6100956101d7565b6040516100a29190610cd9565b60405180910390f35b6100b36101dd565b6040516100c09190610cd9565b60405180910390f35b6100e360048036038101906100de9190610a53565b6101e3565b005b6100ff60048036038101906100fa9190610ae3565b6104ae565b60405161010d929190610cf4565b60405180910390f35b610130600480360381019061012b9190610aa7565b6104e8565b60405161013d9190610c77565b60405180910390f35b610160600480360381019061015b9190610b24565b61068b565b60405161016d9190610c41565b60405180910390f35b610190600480360381019061018b9190610ae3565b6106ca565b60405161019d9190610c5c565b60405180910390f35b6101c060048036038101906101bb9190610a2a565b6106f7565b6040516101ce929190610cf4565b60405180910390f35b60015481565b60005481565b60006003826040516101f59190610c2a565b90815260200160405180910390206000015414610247576040517f08c379a000000000000000000000000000000000000000000000000000000000815260040161023e90610c99565b60405180910390fd5b6000600260008473ffffffffffffffffffffffffffffffffffffffff1673ffffffffffffffffffffffffffffffffffffffff168152602001908152602001600020600001541415610333576000808154809291906102a490610e87565b91905055506102b161071b565b60005481600001818152505080600260008573ffffffffffffffffffffffffffffffffffffffff1673ffffffffffffffffffffffffffffffffffffffff1681526020019081526020016000206000820151816000015560208201518160010155604082015181600201908051906020019061032d92919061073c565b50905050505b6001600081548092919061034690610e87565b9190505550600260008373ffffffffffffffffffffffffffffffffffffffff1673ffffffffffffffffffffffffffffffffffffffff168152602001908152602001600020600101600081548092919061039e90610e87565b9190505550600260008373ffffffffffffffffffffffffffffffffffffffff1673ffffffffffffffffffffffffffffffffffffffff1681526020019081526020016000206002018190806001815401808255809150506001900390600052602060002001600090919091909150908051906020019061041e92919061079c565b50600260008373ffffffffffffffffffffffffffffffffffffffff1673ffffffffffffffffffffffffffffffffffffffff16815260200190815260200160002060038260405161046e9190610c2a565b9081526020016040518091039020600082015481600001556001820154816001015560028201816002019080546104a6929190610822565b509050505050565b6003818051602081018201805184825260208301602085012081835280955050505050506000915090508060000154908060010154905082565b60606000600260008573ffffffffffffffffffffffffffffffffffffffff1673ffffffffffffffffffffffffffffffffffffffff168152602001908152602001600020600001541415610570576040517f08c379a000000000000000000000000000000000000000000000000000000000815260040161056790610cb9565b60405180910390fd5b6000600260008573ffffffffffffffffffffffffffffffffffffffff1673ffffffffffffffffffffffffffffffffffffffff16815260200190815260200160002060020183815481106105ec577f4e487b7100000000000000000000000000000000000000000000000000000000600052603260045260246000fd5b90600052602060002001805461060190610e24565b80601f016020809104026020016040519081016040528092919081815260200182805461062d90610e24565b801561067a5780601f1061064f5761010080835404028352916020019161067a565b820191906000526020600020905b81548152906001019060200180831161065d57829003601f168201915b505050505090508091505092915050565b6004818154811061069b57600080fd5b906000526020600020016000915054906101000a900473ffffffffffffffffffffffffffffffffffffffff1681565b6000806003836040516106dd9190610c2a565b908152602001604051809103902060000154149050919050565b60026020528060005260406000206000915090508060000154908060010154905082565b60405180606001604052806000815260200160008152602001606081525090565b82805482825590600052602060002090810192821561078b579160200282015b8281111561078a57825182908051906020019061077a92919061079c565b509160200191906001019061075c565b5b509050610798919061088a565b5090565b8280546107a890610e24565b90600052602060002090601f0160209004810192826107ca5760008555610811565b82601f106107e357805160ff1916838001178555610811565b82800160010185558215610811579182015b828111156108105782518255916020019190600101906107f5565b5b50905061081e91906108ae565b5090565b8280548282559060005260206000209081019282156108795760005260206000209182015b8281111561087857828290805461085d90610e24565b6108689291906108cb565b5091600101919060010190610847565b5b509050610886919061088a565b5090565b5b808211156108aa57600081816108a19190610958565b5060010161088b565b5090565b5b808211156108c75760008160009055506001016108af565b5090565b8280546108d790610e24565b90600052602060002090601f0160209004810192826108f95760008555610947565b82601f1061090a5780548555610947565b8280016001018555821561094757600052602060002091601f016020900482015b8281111561094657825482559160010191906001019061092b565b5b50905061095491906108ae565b5090565b50805461096490610e24565b6000825580601f106109765750610995565b601f01602090049060005260206000209081019061099491906108ae565b5b50565b60006109ab6109a684610d42565b610d1d565b9050828152602081018484840111156109c357600080fd5b6109ce848285610de2565b509392505050565b6000813590506109e581610fe6565b92915050565b600082601f8301126109fc57600080fd5b8135610a0c848260208601610998565b91505092915050565b600081359050610a2481610ffd565b92915050565b600060208284031215610a3c57600080fd5b6000610a4a848285016109d6565b91505092915050565b60008060408385031215610a6657600080fd5b6000610a74858286016109d6565b925050602083013567ffffffffffffffff811115610a9157600080fd5b610a9d858286016109eb565b9150509250929050565b60008060408385031215610aba57600080fd5b6000610ac8858286016109d6565b9250506020610ad985828601610a15565b9150509250929050565b600060208284031215610af557600080fd5b600082013567ffffffffffffffff811115610b0f57600080fd5b610b1b848285016109eb565b91505092915050565b600060208284031215610b3657600080fd5b6000610b4484828501610a15565b91505092915050565b610b5681610d9a565b82525050565b610b6581610dac565b82525050565b6000610b7682610d73565b610b808185610d7e565b9350610b90818560208601610df1565b610b9981610f5d565b840191505092915050565b6000610baf82610d73565b610bb98185610d8f565b9350610bc9818560208601610df1565b80840191505092915050565b6000610be2602583610d7e565b9150610bed82610f6e565b604082019050919050565b6000610c05601d83610d7e565b9150610c1082610fbd565b602082019050919050565b610c2481610dd8565b82525050565b6000610c368284610ba4565b915081905092915050565b6000602082019050610c566000830184610b4d565b92915050565b6000602082019050610c716000830184610b5c565b92915050565b60006020820190508181036000830152610c918184610b6b565b905092915050565b60006020820190508181036000830152610cb281610bd5565b9050919050565b60006020820190508181036000830152610cd281610bf8565b9050919050565b6000602082019050610cee6000830184610c1b565b92915050565b6000604082019050610d096000830185610c1b565b610d166020830184610c1b565b9392505050565b6000610d27610d38565b9050610d338282610e56565b919050565b6000604051905090565b600067ffffffffffffffff821115610d5d57610d5c610f2e565b5b610d6682610f5d565b9050602081019050919050565b600081519050919050565b600082825260208201905092915050565b600081905092915050565b6000610da582610db8565b9050919050565b60008115159050919050565b600073ffffffffffffffffffffffffffffffffffffffff82169050919050565b6000819050919050565b82818337600083830152505050565b60005b83811015610e0f578082015181840152602081019050610df4565b83811115610e1e576000848401525b50505050565b60006002820490506001821680610e3c57607f821691505b60208210811415610e5057610e4f610eff565b5b50919050565b610e5f82610f5d565b810181811067ffffffffffffffff82111715610e7e57610e7d610f2e565b5b80604052505050565b6000610e9282610dd8565b91507fffffffffffffffffffffffffffffffffffffffffffffffffffffffffffffffff821415610ec557610ec4610ed0565b5b600182019050919050565b7f4e487b7100000000000000000000000000000000000000000000000000000000600052601160045260246000fd5b7f4e487b7100000000000000000000000000000000000000000000000000000000600052602260045260246000fd5b7f4e487b7100000000000000000000000000000000000000000000000000000000600052604160045260246000fd5b6000601f19601f8301169050919050565b7f5468697320776f72642068617320616c7265616479206265656e20726567697360008201527f7465726564000000000000000000000000000000000000000000000000000000602082015250565b7f506c61796572206164647265737320646f6573206e6f74206578697374000000600082015250565b610fef81610d9a565b8114610ffa57600080fd5b50565b61100681610dd8565b811461101157600080fd5b5056fea2646970667358221220620d174485a9523593fc48a67f1cad241a85f0206c6869f7d4d1487c388e0cdf64736f6c63430008010033",
  "immutableReferences": {},
  "source": "// SPDX-License-Identifier: MIT\r\npragma solidity >=0.4.22 <0.9.0;\r\n\r\ncontract EthordleGame {\r\n    uint256 public playerCount = 0;\r\n    uint256 public wordCount = 0;\r\n\r\n    struct Player {\r\n        uint256 id;\r\n        uint256 wordCount;\r\n        string[] words;\r\n    }\r\n\r\n    mapping(address => Player) public players;\r\n    mapping(string => Player) public words;\r\n\r\n    address[] public playerList;\r\n\r\n    function registerWord(address _player, string memory _word) public {\r\n        require(words[_word].id == 0, 'This word has already been registered');\r\n\r\n        if (players[_player].id == 0) {\r\n            playerCount++;\r\n            Player memory player;\r\n            player.id = playerCount;\r\n            players[_player] = player;\r\n        }\r\n\r\n        wordCount++;\r\n        players[_player].wordCount++;\r\n        players[_player].words.push(_word);\r\n        words[_word] = players[_player];     \r\n    }\r\n\r\n    function getWord(address _player, uint256 _index) public view returns (string memory) {\r\n        require(players[_player].id != 0, 'Player address does not exist');\r\n\r\n        string memory word = players[_player].words[_index];\r\n\r\n        return word;\r\n    }\r\n\r\n    function isWordUnique(string memory _word) public view returns (bool) {\r\n        return words[_word].id == 0;\r\n    }\r\n}\r\n",
  "sourcePath": "C:\\Dev\\Github\\ethordle\\contracts\\EthordleGame.sol",
  "compiler": {
    "name": "solc",
    "version": "0.8.1+commit.df193b15.Emscripten.clang"
  },
  "schemaVersion": "3.4.6",
  "updatedAt": "2022-04-12T17:15:00.478Z",
  "networkType": "ethereum",
  "devdoc": {
    "kind": "dev",
    "methods": {},
    "version": 1
  },
  "userdoc": {
    "kind": "user",
    "methods": {},
    "version": 1
  }
}