{
  "contractName": "EthordleToken",
  "abi": [
    {
      "inputs": [
        {
          "internalType": "string",
          "name": "_name",
          "type": "string"
        },
        {
          "internalType": "string",
          "name": "_symbol",
          "type": "string"
        }
      ],
      "stateMutability": "nonpayable",
      "type": "constructor"
    },
    {
      "anonymous": false,
      "inputs": [
        {
          "indexed": true,
          "internalType": "address",
          "name": "owner",
          "type": "address"
        },
        {
          "indexed": true,
          "internalType": "address",
          "name": "approved",
          "type": "address"
        },
        {
          "indexed": true,
          "internalType": "uint256",
          "name": "tokenId",
          "type": "uint256"
        }
      ],
      "name": "Approval",
      "type": "event"
    },
    {
      "anonymous": false,
      "inputs": [
        {
          "indexed": true,
          "internalType": "address",
          "name": "owner",
          "type": "address"
        },
        {
          "indexed": true,
          "internalType": "address",
          "name": "operator",
          "type": "address"
        },
        {
          "indexed": false,
          "internalType": "bool",
          "name": "approved",
          "type": "bool"
        }
      ],
      "name": "ApprovalForAll",
      "type": "event"
    },
    {
      "anonymous": false,
      "inputs": [
        {
          "indexed": true,
          "internalType": "address",
          "name": "previousOwner",
          "type": "address"
        },
        {
          "indexed": true,
          "internalType": "address",
          "name": "newOwner",
          "type": "address"
        }
      ],
      "name": "OwnershipTransferred",
      "type": "event"
    },
    {
      "anonymous": false,
      "inputs": [
        {
          "indexed": true,
          "internalType": "address",
          "name": "from",
          "type": "address"
        },
        {
          "indexed": true,
          "internalType": "address",
          "name": "to",
          "type": "address"
        },
        {
          "indexed": true,
          "internalType": "uint256",
          "name": "tokenId",
          "type": "uint256"
        }
      ],
      "name": "Transfer",
      "type": "event"
    },
    {
      "inputs": [
        {
          "internalType": "address",
          "name": "to",
          "type": "address"
        },
        {
          "internalType": "uint256",
          "name": "tokenId",
          "type": "uint256"
        }
      ],
      "name": "approve",
      "outputs": [],
      "stateMutability": "nonpayable",
      "type": "function"
    },
    {
      "inputs": [
        {
          "internalType": "address",
          "name": "owner",
          "type": "address"
        }
      ],
      "name": "balanceOf",
      "outputs": [
        {
          "internalType": "uint256",
          "name": "",
          "type": "uint256"
        }
      ],
      "stateMutability": "view",
      "type": "function",
      "constant": true
    },
    {
      "inputs": [
        {
          "internalType": "uint256",
          "name": "tokenId",
          "type": "uint256"
        }
      ],
      "name": "getApproved",
      "outputs": [
        {
          "internalType": "address",
          "name": "",
          "type": "address"
        }
      ],
      "stateMutability": "view",
      "type": "function",
      "constant": true
    },
    {
      "inputs": [
        {
          "internalType": "address",
          "name": "owner",
          "type": "address"
        },
        {
          "internalType": "address",
          "name": "operator",
          "type": "address"
        }
      ],
      "name": "isApprovedForAll",
      "outputs": [
        {
          "internalType": "bool",
          "name": "",
          "type": "bool"
        }
      ],
      "stateMutability": "view",
      "type": "function",
      "constant": true
    },
    {
      "inputs": [],
      "name": "name",
      "outputs": [
        {
          "internalType": "string",
          "name": "",
          "type": "string"
        }
      ],
      "stateMutability": "view",
      "type": "function",
      "constant": true
    },
    {
      "inputs": [],
      "name": "owner",
      "outputs": [
        {
          "internalType": "address",
          "name": "",
          "type": "address"
        }
      ],
      "stateMutability": "view",
      "type": "function",
      "constant": true
    },
    {
      "inputs": [
        {
          "internalType": "uint256",
          "name": "tokenId",
          "type": "uint256"
        }
      ],
      "name": "ownerOf",
      "outputs": [
        {
          "internalType": "address",
          "name": "",
          "type": "address"
        }
      ],
      "stateMutability": "view",
      "type": "function",
      "constant": true
    },
    {
      "inputs": [],
      "name": "renounceOwnership",
      "outputs": [],
      "stateMutability": "nonpayable",
      "type": "function"
    },
    {
      "inputs": [
        {
          "internalType": "address",
          "name": "from",
          "type": "address"
        },
        {
          "internalType": "address",
          "name": "to",
          "type": "address"
        },
        {
          "internalType": "uint256",
          "name": "tokenId",
          "type": "uint256"
        }
      ],
      "name": "safeTransferFrom",
      "outputs": [],
      "stateMutability": "nonpayable",
      "type": "function"
    },
    {
      "inputs": [
        {
          "internalType": "address",
          "name": "from",
          "type": "address"
        },
        {
          "internalType": "address",
          "name": "to",
          "type": "address"
        },
        {
          "internalType": "uint256",
          "name": "tokenId",
          "type": "uint256"
        },
        {
          "internalType": "bytes",
          "name": "_data",
          "type": "bytes"
        }
      ],
      "name": "safeTransferFrom",
      "outputs": [],
      "stateMutability": "nonpayable",
      "type": "function"
    },
    {
      "inputs": [
        {
          "internalType": "address",
          "name": "operator",
          "type": "address"
        },
        {
          "internalType": "bool",
          "name": "approved",
          "type": "bool"
        }
      ],
      "name": "setApprovalForAll",
      "outputs": [],
      "stateMutability": "nonpayable",
      "type": "function"
    },
    {
      "inputs": [
        {
          "internalType": "bytes4",
          "name": "interfaceId",
          "type": "bytes4"
        }
      ],
      "name": "supportsInterface",
      "outputs": [
        {
          "internalType": "bool",
          "name": "",
          "type": "bool"
        }
      ],
      "stateMutability": "view",
      "type": "function",
      "constant": true
    },
    {
      "inputs": [],
      "name": "symbol",
      "outputs": [
        {
          "internalType": "string",
          "name": "",
          "type": "string"
        }
      ],
      "stateMutability": "view",
      "type": "function",
      "constant": true
    },
    {
      "inputs": [
        {
          "internalType": "address",
          "name": "from",
          "type": "address"
        },
        {
          "internalType": "address",
          "name": "to",
          "type": "address"
        },
        {
          "internalType": "uint256",
          "name": "tokenId",
          "type": "uint256"
        }
      ],
      "name": "transferFrom",
      "outputs": [],
      "stateMutability": "nonpayable",
      "type": "function"
    },
    {
      "inputs": [
        {
          "internalType": "address",
          "name": "newOwner",
          "type": "address"
        }
      ],
      "name": "transferOwnership",
      "outputs": [],
      "stateMutability": "nonpayable",
      "type": "function"
    },
    {
      "inputs": [
        {
          "internalType": "string",
          "name": "baseURI_",
          "type": "string"
        }
      ],
      "name": "setBaseURI",
      "outputs": [],
      "stateMutability": "nonpayable",
      "type": "function"
    },
    {
      "inputs": [],
      "name": "getMintedTokenCount",
      "outputs": [
        {
          "internalType": "uint256",
          "name": "",
          "type": "uint256"
        }
      ],
      "stateMutability": "view",
      "type": "function",
      "constant": true
    },
    {
      "inputs": [
        {
          "internalType": "uint256",
          "name": "tokenId",
          "type": "uint256"
        }
      ],
      "name": "tokenURI",
      "outputs": [
        {
          "internalType": "string",
          "name": "",
          "type": "string"
        }
      ],
      "stateMutability": "view",
      "type": "function",
      "constant": true
    },
    {
      "inputs": [
        {
          "internalType": "uint256",
          "name": "tokenId",
          "type": "uint256"
        }
      ],
      "name": "tokenWord",
      "outputs": [
        {
          "internalType": "string",
          "name": "",
          "type": "string"
        }
      ],
      "stateMutability": "view",
      "type": "function",
      "constant": true
    },
    {
      "inputs": [
        {
          "internalType": "address",
          "name": "_to",
          "type": "address"
        },
        {
          "internalType": "string",
          "name": "tokenWord_",
          "type": "string"
        },
        {
          "internalType": "string",
          "name": "tokenURI_",
          "type": "string"
        }
      ],
      "name": "mint",
      "outputs": [],
      "stateMutability": "nonpayable",
      "type": "function"
    }
  ],
  "bytecode": "0x60806040523480156200001157600080fd5b50604051620036cc380380620036cc833981810160405281019062000037919062000285565b818181600090805190602001906200005192919062000163565b5080600190805190602001906200006a92919062000163565b5050506200008d620000816200009560201b60201c565b6200009d60201b60201c565b505062000468565b600033905090565b6000600660009054906101000a900473ffffffffffffffffffffffffffffffffffffffff16905081600660006101000a81548173ffffffffffffffffffffffffffffffffffffffff021916908373ffffffffffffffffffffffffffffffffffffffff1602179055508173ffffffffffffffffffffffffffffffffffffffff168173ffffffffffffffffffffffffffffffffffffffff167f8be0079c531659141344cd1fd0a4f28419497f9722a3daafe3b4186f6b6457e060405160405180910390a35050565b82805462000171906200038d565b90600052602060002090601f016020900481019282620001955760008555620001e1565b82601f10620001b057805160ff1916838001178555620001e1565b82800160010185558215620001e1579182015b82811115620001e0578251825591602001919060010190620001c3565b5b509050620001f09190620001f4565b5090565b5b808211156200020f576000816000905550600101620001f5565b5090565b60006200022a620002248462000321565b620002f8565b9050828152602081018484840111156200024357600080fd5b6200025084828562000357565b509392505050565b600082601f8301126200026a57600080fd5b81516200027c84826020860162000213565b91505092915050565b600080604083850312156200029957600080fd5b600083015167ffffffffffffffff811115620002b457600080fd5b620002c28582860162000258565b925050602083015167ffffffffffffffff811115620002e057600080fd5b620002ee8582860162000258565b9150509250929050565b60006200030462000317565b9050620003128282620003c3565b919050565b6000604051905090565b600067ffffffffffffffff8211156200033f576200033e62000428565b5b6200034a8262000457565b9050602081019050919050565b60005b83811015620003775780820151818401526020810190506200035a565b8381111562000387576000848401525b50505050565b60006002820490506001821680620003a657607f821691505b60208210811415620003bd57620003bc620003f9565b5b50919050565b620003ce8262000457565b810181811067ffffffffffffffff82111715620003f057620003ef62000428565b5b80604052505050565b7f4e487b7100000000000000000000000000000000000000000000000000000000600052602260045260246000fd5b7f4e487b7100000000000000000000000000000000000000000000000000000000600052604160045260246000fd5b6000601f19601f8301169050919050565b61325480620004786000396000f3fe608060405234801561001057600080fd5b506004361061012c5760003560e01c8063715018a6116100ad578063a22cb46511610071578063a22cb4651461032f578063b88d4fde1461034b578063c87b56dd14610367578063e985e9c514610397578063f2fde38b146103c75761012c565b8063715018a6146102af5780638671bc8b146102b95780638da5cb5b146102d757806395d89b41146102f557806399071190146103135761012c565b806342842e0e116100f457806342842e0e146101e757806355f804b3146102035780636352211e1461021f5780636be342101461024f57806370a082311461027f5761012c565b806301ffc9a71461013157806306fdde0314610161578063081812fc1461017f578063095ea7b3146101af57806323b872dd146101cb575b600080fd5b61014b600480360381019061014691906121c2565b6103e3565b604051610158919061264f565b60405180910390f35b6101696104c5565b604051610176919061266a565b60405180910390f35b61019960048036038101906101949190612255565b610557565b6040516101a691906125e8565b60405180910390f35b6101c960048036038101906101c49190612186565b6105dc565b005b6101e560048036038101906101e09190612001565b6106f4565b005b61020160048036038101906101fc9190612001565b610754565b005b61021d60048036038101906102189190612214565b610774565b005b61023960048036038101906102349190612255565b61080a565b60405161024691906125e8565b60405180910390f35b61026960048036038101906102649190612255565b6108bc565b604051610276919061266a565b60405180910390f35b61029960048036038101906102949190611f9c565b6109af565b6040516102a691906128cc565b60405180910390f35b6102b7610a67565b005b6102c1610aef565b6040516102ce91906128cc565b60405180910390f35b6102df610af9565b6040516102ec91906125e8565b60405180910390f35b6102fd610b23565b60405161030a919061266a565b60405180910390f35b61032d60048036038101906103289190612107565b610bb5565b005b610349600480360381019061034491906120cb565b610beb565b005b61036560048036038101906103609190612050565b610c01565b005b610381600480360381019061037c9190612255565b610c63565b60405161038e919061266a565b60405180910390f35b6103b160048036038101906103ac9190611fc5565b610dd6565b6040516103be919061264f565b60405180910390f35b6103e160048036038101906103dc9190611f9c565b610e6a565b005b60007f80ac58cd000000000000000000000000000000000000000000000000000000007bffffffffffffffffffffffffffffffffffffffffffffffffffffffff1916827bffffffffffffffffffffffffffffffffffffffffffffffffffffffff191614806104ae57507f5b5e139f000000000000000000000000000000000000000000000000000000007bffffffffffffffffffffffffffffffffffffffffffffffffffffffff1916827bffffffffffffffffffffffffffffffffffffffffffffffffffffffff1916145b806104be57506104bd82610f62565b5b9050919050565b6060600080546104d490612b22565b80601f016020809104026020016040519081016040528092919081815260200182805461050090612b22565b801561054d5780601f106105225761010080835404028352916020019161054d565b820191906000526020600020905b81548152906001019060200180831161053057829003601f168201915b5050505050905090565b600061056282610fcc565b6105a1576040517f08c379a0000000000000000000000000000000000000000000000000000000008152600401610598906127ec565b60405180910390fd5b6004600083815260200190815260200160002060009054906101000a900473ffffffffffffffffffffffffffffffffffffffff169050919050565b60006105e78261080a565b90508073ffffffffffffffffffffffffffffffffffffffff168373ffffffffffffffffffffffffffffffffffffffff161415610658576040517f08c379a000000000000000000000000000000000000000000000000000000000815260040161064f9061288c565b60405180910390fd5b8073ffffffffffffffffffffffffffffffffffffffff16610677611038565b73ffffffffffffffffffffffffffffffffffffffff1614806106a657506106a5816106a0611038565b610dd6565b5b6106e5576040517f08c379a00000000000000000000000000000000000000000000000000000000081526004016106dc9061276c565b60405180910390fd5b6106ef8383611040565b505050565b6107056106ff611038565b826110f9565b610744576040517f08c379a000000000000000000000000000000000000000000000000000000000815260040161073b906128ac565b60405180910390fd5b61074f8383836111d7565b505050565b61076f83838360405180602001604052806000815250610c01565b505050565b61077c611038565b73ffffffffffffffffffffffffffffffffffffffff1661079a610af9565b73ffffffffffffffffffffffffffffffffffffffff16146107f0576040517f08c379a00000000000000000000000000000000000000000000000000000000081526004016107e79061282c565b60405180910390fd5b80600a9080519060200190610806929190611dc0565b5050565b6000806002600084815260200190815260200160002060009054906101000a900473ffffffffffffffffffffffffffffffffffffffff169050600073ffffffffffffffffffffffffffffffffffffffff168173ffffffffffffffffffffffffffffffffffffffff1614156108b3576040517f08c379a00000000000000000000000000000000000000000000000000000000081526004016108aa906127ac565b60405180910390fd5b80915050919050565b60606108c782610fcc565b610906576040517f08c379a00000000000000000000000000000000000000000000000000000000081526004016108fd9061284c565b60405180910390fd5b600060086000848152602001908152602001600020805461092690612b22565b80601f016020809104026020016040519081016040528092919081815260200182805461095290612b22565b801561099f5780601f106109745761010080835404028352916020019161099f565b820191906000526020600020905b81548152906001019060200180831161098257829003601f168201915b5050505050905080915050919050565b60008073ffffffffffffffffffffffffffffffffffffffff168273ffffffffffffffffffffffffffffffffffffffff161415610a20576040517f08c379a0000000000000000000000000000000000000000000000000000000008152600401610a179061278c565b60405180910390fd5b600360008373ffffffffffffffffffffffffffffffffffffffff1673ffffffffffffffffffffffffffffffffffffffff168152602001908152602001600020549050919050565b610a6f611038565b73ffffffffffffffffffffffffffffffffffffffff16610a8d610af9565b73ffffffffffffffffffffffffffffffffffffffff1614610ae3576040517f08c379a0000000000000000000000000000000000000000000000000000000008152600401610ada9061282c565b60405180910390fd5b610aed600061143e565b565b6000600954905090565b6000600660009054906101000a900473ffffffffffffffffffffffffffffffffffffffff16905090565b606060018054610b3290612b22565b80601f0160208091040260200160405190810160405280929190818152602001828054610b5e90612b22565b8015610bab5780601f10610b8057610100808354040283529160200191610bab565b820191906000526020600020905b815481529060010190602001808311610b8e57829003601f168201915b5050505050905090565b610bc183600954611504565b610bce6009548383611522565b60096000815480929190610be190612b85565b9190505550505050565b610bfd610bf6611038565b83836115bf565b5050565b610c12610c0c611038565b836110f9565b610c51576040517f08c379a0000000000000000000000000000000000000000000000000000000008152600401610c48906128ac565b60405180910390fd5b610c5d8484848461172c565b50505050565b6060610c6e82610fcc565b610cad576040517f08c379a0000000000000000000000000000000000000000000000000000000008152600401610ca49061286c565b60405180910390fd5b6000600760008481526020019081526020016000208054610ccd90612b22565b80601f0160208091040260200160405190810160405280929190818152602001828054610cf990612b22565b8015610d465780601f10610d1b57610100808354040283529160200191610d46565b820191906000526020600020905b815481529060010190602001808311610d2957829003601f168201915b505050505090506000610d57611788565b9050600081511415610d6d578192505050610dd1565b600082511115610da2578082604051602001610d8a9291906125c4565b60405160208183030381529060405292505050610dd1565b80610dac8561181a565b604051602001610dbd9291906125c4565b604051602081830303815290604052925050505b919050565b6000600560008473ffffffffffffffffffffffffffffffffffffffff1673ffffffffffffffffffffffffffffffffffffffff16815260200190815260200160002060008373ffffffffffffffffffffffffffffffffffffffff1673ffffffffffffffffffffffffffffffffffffffff16815260200190815260200160002060009054906101000a900460ff16905092915050565b610e72611038565b73ffffffffffffffffffffffffffffffffffffffff16610e90610af9565b73ffffffffffffffffffffffffffffffffffffffff1614610ee6576040517f08c379a0000000000000000000000000000000000000000000000000000000008152600401610edd9061282c565b60405180910390fd5b600073ffffffffffffffffffffffffffffffffffffffff168173ffffffffffffffffffffffffffffffffffffffff161415610f56576040517f08c379a0000000000000000000000000000000000000000000000000000000008152600401610f4d906126ac565b60405180910390fd5b610f5f8161143e565b50565b60007f01ffc9a7000000000000000000000000000000000000000000000000000000007bffffffffffffffffffffffffffffffffffffffffffffffffffffffff1916827bffffffffffffffffffffffffffffffffffffffffffffffffffffffff1916149050919050565b60008073ffffffffffffffffffffffffffffffffffffffff166002600084815260200190815260200160002060009054906101000a900473ffffffffffffffffffffffffffffffffffffffff1673ffffffffffffffffffffffffffffffffffffffff1614159050919050565b600033905090565b816004600083815260200190815260200160002060006101000a81548173ffffffffffffffffffffffffffffffffffffffff021916908373ffffffffffffffffffffffffffffffffffffffff160217905550808273ffffffffffffffffffffffffffffffffffffffff166110b38361080a565b73ffffffffffffffffffffffffffffffffffffffff167f8c5be1e5ebec7d5bd14f71427d1e84f3dd0314c0f7b2291e5b200ac8c7c3b92560405160405180910390a45050565b600061110482610fcc565b611143576040517f08c379a000000000000000000000000000000000000000000000000000000000815260040161113a9061274c565b60405180910390fd5b600061114e8361080a565b90508073ffffffffffffffffffffffffffffffffffffffff168473ffffffffffffffffffffffffffffffffffffffff1614806111bd57508373ffffffffffffffffffffffffffffffffffffffff166111a584610557565b73ffffffffffffffffffffffffffffffffffffffff16145b806111ce57506111cd8185610dd6565b5b91505092915050565b8273ffffffffffffffffffffffffffffffffffffffff166111f78261080a565b73ffffffffffffffffffffffffffffffffffffffff161461124d576040517f08c379a0000000000000000000000000000000000000000000000000000000008152600401611244906126cc565b60405180910390fd5b600073ffffffffffffffffffffffffffffffffffffffff168273ffffffffffffffffffffffffffffffffffffffff1614156112bd576040517f08c379a00000000000000000000000000000000000000000000000000000000081526004016112b49061270c565b60405180910390fd5b6112c88383836119c7565b6112d3600082611040565b6001600360008573ffffffffffffffffffffffffffffffffffffffff1673ffffffffffffffffffffffffffffffffffffffff16815260200190815260200160002060008282546113239190612a38565b925050819055506001600360008473ffffffffffffffffffffffffffffffffffffffff1673ffffffffffffffffffffffffffffffffffffffff168152602001908152602001600020600082825461137a91906129b1565b92505081905550816002600083815260200190815260200160002060006101000a81548173ffffffffffffffffffffffffffffffffffffffff021916908373ffffffffffffffffffffffffffffffffffffffff160217905550808273ffffffffffffffffffffffffffffffffffffffff168473ffffffffffffffffffffffffffffffffffffffff167fddf252ad1be2c89b69c2b068fc378daa952ba7f163c4a11628f55a4df523b3ef60405160405180910390a46114398383836119cc565b505050565b6000600660009054906101000a900473ffffffffffffffffffffffffffffffffffffffff16905081600660006101000a81548173ffffffffffffffffffffffffffffffffffffffff021916908373ffffffffffffffffffffffffffffffffffffffff1602179055508173ffffffffffffffffffffffffffffffffffffffff168173ffffffffffffffffffffffffffffffffffffffff167f8be0079c531659141344cd1fd0a4f28419497f9722a3daafe3b4186f6b6457e060405160405180910390a35050565b61151e8282604051806020016040528060008152506119d1565b5050565b61152b83610fcc565b61156a576040517f08c379a00000000000000000000000000000000000000000000000000000000081526004016115619061280c565b60405180910390fd5b80600760008581526020019081526020016000209080519060200190611591929190611dc0565b50816008600085815260200190815260200160002090805190602001906115b9929190611dc0565b50505050565b8173ffffffffffffffffffffffffffffffffffffffff168373ffffffffffffffffffffffffffffffffffffffff16141561162e576040517f08c379a00000000000000000000000000000000000000000000000000000000081526004016116259061272c565b60405180910390fd5b80600560008573ffffffffffffffffffffffffffffffffffffffff1673ffffffffffffffffffffffffffffffffffffffff16815260200190815260200160002060008473ffffffffffffffffffffffffffffffffffffffff1673ffffffffffffffffffffffffffffffffffffffff16815260200190815260200160002060006101000a81548160ff0219169083151502179055508173ffffffffffffffffffffffffffffffffffffffff168373ffffffffffffffffffffffffffffffffffffffff167f17307eab39ab6107e8899845ad3d59bd9653f200f220920489ca2b5937696c318360405161171f919061264f565b60405180910390a3505050565b6117378484846111d7565b61174384848484611a2c565b611782576040517f08c379a00000000000000000000000000000000000000000000000000000000081526004016117799061268c565b60405180910390fd5b50505050565b6060600a805461179790612b22565b80601f01602080910402602001604051908101604052809291908181526020018280546117c390612b22565b80156118105780601f106117e557610100808354040283529160200191611810565b820191906000526020600020905b8154815290600101906020018083116117f357829003601f168201915b5050505050905090565b60606000821415611862576040518060400160405280600181526020017f300000000000000000000000000000000000000000000000000000000000000081525090506119c2565b600082905060005b6000821461189457808061187d90612b85565b915050600a8261188d9190612a07565b915061186a565b60008167ffffffffffffffff8111156118d6577f4e487b7100000000000000000000000000000000000000000000000000000000600052604160045260246000fd5b6040519080825280601f01601f1916602001820160405280156119085781602001600182028036833780820191505090505b5090505b600085146119bb576001826119219190612a38565b9150600a856119309190612bce565b603061193c91906129b1565b60f81b818381518110611978577f4e487b7100000000000000000000000000000000000000000000000000000000600052603260045260246000fd5b60200101907effffffffffffffffffffffffffffffffffffffffffffffffffffffffffffff1916908160001a905350600a856119b49190612a07565b945061190c565b8093505050505b919050565b505050565b505050565b6119db8383611bc3565b6119e86000848484611a2c565b611a27576040517f08c379a0000000000000000000000000000000000000000000000000000000008152600401611a1e9061268c565b60405180910390fd5b505050565b6000611a4d8473ffffffffffffffffffffffffffffffffffffffff16611d9d565b15611bb6578373ffffffffffffffffffffffffffffffffffffffff1663150b7a02611a76611038565b8786866040518563ffffffff1660e01b8152600401611a989493929190612603565b602060405180830381600087803b158015611ab257600080fd5b505af1925050508015611ae357506040513d601f19601f82011682018060405250810190611ae091906121eb565b60015b611b66573d8060008114611b13576040519150601f19603f3d011682016040523d82523d6000602084013e611b18565b606091505b50600081511415611b5e576040517f08c379a0000000000000000000000000000000000000000000000000000000008152600401611b559061268c565b60405180910390fd5b805181602001fd5b63150b7a0260e01b7bffffffffffffffffffffffffffffffffffffffffffffffffffffffff1916817bffffffffffffffffffffffffffffffffffffffffffffffffffffffff191614915050611bbb565b600190505b949350505050565b600073ffffffffffffffffffffffffffffffffffffffff168273ffffffffffffffffffffffffffffffffffffffff161415611c33576040517f08c379a0000000000000000000000000000000000000000000000000000000008152600401611c2a906127cc565b60405180910390fd5b611c3c81610fcc565b15611c7c576040517f08c379a0000000000000000000000000000000000000000000000000000000008152600401611c73906126ec565b60405180910390fd5b611c88600083836119c7565b6001600360008473ffffffffffffffffffffffffffffffffffffffff1673ffffffffffffffffffffffffffffffffffffffff1681526020019081526020016000206000828254611cd891906129b1565b92505081905550816002600083815260200190815260200160002060006101000a81548173ffffffffffffffffffffffffffffffffffffffff021916908373ffffffffffffffffffffffffffffffffffffffff160217905550808273ffffffffffffffffffffffffffffffffffffffff16600073ffffffffffffffffffffffffffffffffffffffff167fddf252ad1be2c89b69c2b068fc378daa952ba7f163c4a11628f55a4df523b3ef60405160405180910390a4611d99600083836119cc565b5050565b6000808273ffffffffffffffffffffffffffffffffffffffff163b119050919050565b828054611dcc90612b22565b90600052602060002090601f016020900481019282611dee5760008555611e35565b82601f10611e0757805160ff1916838001178555611e35565b82800160010185558215611e35579182015b82811115611e34578251825591602001919060010190611e19565b5b509050611e429190611e46565b5090565b5b80821115611e5f576000816000905550600101611e47565b5090565b6000611e76611e718461290c565b6128e7565b905082815260208101848484011115611e8e57600080fd5b611e99848285612ae0565b509392505050565b6000611eb4611eaf8461293d565b6128e7565b905082815260208101848484011115611ecc57600080fd5b611ed7848285612ae0565b509392505050565b600081359050611eee816131c2565b92915050565b600081359050611f03816131d9565b92915050565b600081359050611f18816131f0565b92915050565b600081519050611f2d816131f0565b92915050565b600082601f830112611f4457600080fd5b8135611f54848260208601611e63565b91505092915050565b600082601f830112611f6e57600080fd5b8135611f7e848260208601611ea1565b91505092915050565b600081359050611f9681613207565b92915050565b600060208284031215611fae57600080fd5b6000611fbc84828501611edf565b91505092915050565b60008060408385031215611fd857600080fd5b6000611fe685828601611edf565b9250506020611ff785828601611edf565b9150509250929050565b60008060006060848603121561201657600080fd5b600061202486828701611edf565b935050602061203586828701611edf565b925050604061204686828701611f87565b9150509250925092565b6000806000806080858703121561206657600080fd5b600061207487828801611edf565b945050602061208587828801611edf565b935050604061209687828801611f87565b925050606085013567ffffffffffffffff8111156120b357600080fd5b6120bf87828801611f33565b91505092959194509250565b600080604083850312156120de57600080fd5b60006120ec85828601611edf565b92505060206120fd85828601611ef4565b9150509250929050565b60008060006060848603121561211c57600080fd5b600061212a86828701611edf565b935050602084013567ffffffffffffffff81111561214757600080fd5b61215386828701611f5d565b925050604084013567ffffffffffffffff81111561217057600080fd5b61217c86828701611f5d565b9150509250925092565b6000806040838503121561219957600080fd5b60006121a785828601611edf565b92505060206121b885828601611f87565b9150509250929050565b6000602082840312156121d457600080fd5b60006121e284828501611f09565b91505092915050565b6000602082840312156121fd57600080fd5b600061220b84828501611f1e565b91505092915050565b60006020828403121561222657600080fd5b600082013567ffffffffffffffff81111561224057600080fd5b61224c84828501611f5d565b91505092915050565b60006020828403121561226757600080fd5b600061227584828501611f87565b91505092915050565b61228781612a6c565b82525050565b61229681612a7e565b82525050565b60006122a78261296e565b6122b18185612984565b93506122c1818560208601612aef565b6122ca81612cbb565b840191505092915050565b60006122e082612979565b6122ea8185612995565b93506122fa818560208601612aef565b61230381612cbb565b840191505092915050565b600061231982612979565b61232381856129a6565b9350612333818560208601612aef565b80840191505092915050565b600061234c603283612995565b915061235782612ccc565b604082019050919050565b600061236f602683612995565b915061237a82612d1b565b604082019050919050565b6000612392602583612995565b915061239d82612d6a565b604082019050919050565b60006123b5601c83612995565b91506123c082612db9565b602082019050919050565b60006123d8602483612995565b91506123e382612de2565b604082019050919050565b60006123fb601983612995565b915061240682612e31565b602082019050919050565b600061241e602c83612995565b915061242982612e5a565b604082019050919050565b6000612441603883612995565b915061244c82612ea9565b604082019050919050565b6000612464602a83612995565b915061246f82612ef8565b604082019050919050565b6000612487602983612995565b915061249282612f47565b604082019050919050565b60006124aa602083612995565b91506124b582612f96565b602082019050919050565b60006124cd602c83612995565b91506124d882612fbf565b604082019050919050565b60006124f0602c83612995565b91506124fb8261300e565b604082019050919050565b6000612513602083612995565b915061251e8261305d565b602082019050919050565b6000612536603083612995565b915061254182613086565b604082019050919050565b6000612559602f83612995565b9150612564826130d5565b604082019050919050565b600061257c602183612995565b915061258782613124565b604082019050919050565b600061259f603183612995565b91506125aa82613173565b604082019050919050565b6125be81612ad6565b82525050565b60006125d0828561230e565b91506125dc828461230e565b91508190509392505050565b60006020820190506125fd600083018461227e565b92915050565b6000608082019050612618600083018761227e565b612625602083018661227e565b61263260408301856125b5565b8181036060830152612644818461229c565b905095945050505050565b6000602082019050612664600083018461228d565b92915050565b6000602082019050818103600083015261268481846122d5565b905092915050565b600060208201905081810360008301526126a58161233f565b9050919050565b600060208201905081810360008301526126c581612362565b9050919050565b600060208201905081810360008301526126e581612385565b9050919050565b60006020820190508181036000830152612705816123a8565b9050919050565b60006020820190508181036000830152612725816123cb565b9050919050565b60006020820190508181036000830152612745816123ee565b9050919050565b6000602082019050818103600083015261276581612411565b9050919050565b6000602082019050818103600083015261278581612434565b9050919050565b600060208201905081810360008301526127a581612457565b9050919050565b600060208201905081810360008301526127c58161247a565b9050919050565b600060208201905081810360008301526127e58161249d565b9050919050565b60006020820190508181036000830152612805816124c0565b9050919050565b60006020820190508181036000830152612825816124e3565b9050919050565b6000602082019050818103600083015261284581612506565b9050919050565b6000602082019050818103600083015261286581612529565b9050919050565b600060208201905081810360008301526128858161254c565b9050919050565b600060208201905081810360008301526128a58161256f565b9050919050565b600060208201905081810360008301526128c581612592565b9050919050565b60006020820190506128e160008301846125b5565b92915050565b60006128f1612902565b90506128fd8282612b54565b919050565b6000604051905090565b600067ffffffffffffffff82111561292757612926612c8c565b5b61293082612cbb565b9050602081019050919050565b600067ffffffffffffffff82111561295857612957612c8c565b5b61296182612cbb565b9050602081019050919050565b600081519050919050565b600081519050919050565b600082825260208201905092915050565b600082825260208201905092915050565b600081905092915050565b60006129bc82612ad6565b91506129c783612ad6565b9250827fffffffffffffffffffffffffffffffffffffffffffffffffffffffffffffffff038211156129fc576129fb612bff565b5b828201905092915050565b6000612a1282612ad6565b9150612a1d83612ad6565b925082612a2d57612a2c612c2e565b5b828204905092915050565b6000612a4382612ad6565b9150612a4e83612ad6565b925082821015612a6157612a60612bff565b5b828203905092915050565b6000612a7782612ab6565b9050919050565b60008115159050919050565b60007fffffffff0000000000000000000000000000000000000000000000000000000082169050919050565b600073ffffffffffffffffffffffffffffffffffffffff82169050919050565b6000819050919050565b82818337600083830152505050565b60005b83811015612b0d578082015181840152602081019050612af2565b83811115612b1c576000848401525b50505050565b60006002820490506001821680612b3a57607f821691505b60208210811415612b4e57612b4d612c5d565b5b50919050565b612b5d82612cbb565b810181811067ffffffffffffffff82111715612b7c57612b7b612c8c565b5b80604052505050565b6000612b9082612ad6565b91507fffffffffffffffffffffffffffffffffffffffffffffffffffffffffffffffff821415612bc357612bc2612bff565b5b600182019050919050565b6000612bd982612ad6565b9150612be483612ad6565b925082612bf457612bf3612c2e565b5b828206905092915050565b7f4e487b7100000000000000000000000000000000000000000000000000000000600052601160045260246000fd5b7f4e487b7100000000000000000000000000000000000000000000000000000000600052601260045260246000fd5b7f4e487b7100000000000000000000000000000000000000000000000000000000600052602260045260246000fd5b7f4e487b7100000000000000000000000000000000000000000000000000000000600052604160045260246000fd5b6000601f19601f8301169050919050565b7f4552433732313a207472616e7366657220746f206e6f6e20455243373231526560008201527f63656976657220696d706c656d656e7465720000000000000000000000000000602082015250565b7f4f776e61626c653a206e6577206f776e657220697320746865207a65726f206160008201527f6464726573730000000000000000000000000000000000000000000000000000602082015250565b7f4552433732313a207472616e736665722066726f6d20696e636f72726563742060008201527f6f776e6572000000000000000000000000000000000000000000000000000000602082015250565b7f4552433732313a20746f6b656e20616c7265616479206d696e74656400000000600082015250565b7f4552433732313a207472616e7366657220746f20746865207a65726f2061646460008201527f7265737300000000000000000000000000000000000000000000000000000000602082015250565b7f4552433732313a20617070726f766520746f2063616c6c657200000000000000600082015250565b7f4552433732313a206f70657261746f7220717565727920666f72206e6f6e657860008201527f697374656e7420746f6b656e0000000000000000000000000000000000000000602082015250565b7f4552433732313a20617070726f76652063616c6c6572206973206e6f74206f7760008201527f6e6572206e6f7220617070726f76656420666f7220616c6c0000000000000000602082015250565b7f4552433732313a2062616c616e636520717565727920666f7220746865207a6560008201527f726f206164647265737300000000000000000000000000000000000000000000602082015250565b7f4552433732313a206f776e657220717565727920666f72206e6f6e657869737460008201527f656e7420746f6b656e0000000000000000000000000000000000000000000000602082015250565b7f4552433732313a206d696e7420746f20746865207a65726f2061646472657373600082015250565b7f4552433732313a20617070726f76656420717565727920666f72206e6f6e657860008201527f697374656e7420746f6b656e0000000000000000000000000000000000000000602082015250565b7f4552433732314d657461646174613a2055524920736574206f66206e6f6e657860008201527f697374656e7420746f6b656e0000000000000000000000000000000000000000602082015250565b7f4f776e61626c653a2063616c6c6572206973206e6f7420746865206f776e6572600082015250565b7f4552433732314d657461646174613a20776f726420717565727920666f72206e60008201527f6f6e6578697374656e7420746f6b656e00000000000000000000000000000000602082015250565b7f4552433732314d657461646174613a2055524920717565727920666f72206e6f60008201527f6e6578697374656e7420746f6b656e0000000000000000000000000000000000602082015250565b7f4552433732313a20617070726f76616c20746f2063757272656e74206f776e6560008201527f7200000000000000000000000000000000000000000000000000000000000000602082015250565b7f4552433732313a207472616e736665722063616c6c6572206973206e6f74206f60008201527f776e6572206e6f7220617070726f766564000000000000000000000000000000602082015250565b6131cb81612a6c565b81146131d657600080fd5b50565b6131e281612a7e565b81146131ed57600080fd5b50565b6131f981612a8a565b811461320457600080fd5b50565b61321081612ad6565b811461321b57600080fd5b5056fea26469706673582212203c2d59cc76a408e6ee272a3cd555f1d463857514a95df91c21508240ab06b77564736f6c63430008010033",
  "immutableReferences": {},
  "source": "// SPDX-License-Identifier: MIT\r\npragma solidity >=0.4.22 <0.9.0;\r\n\r\nimport \"@openzeppelin/contracts/token/ERC721/ERC721.sol\";\r\nimport \"@openzeppelin/contracts/access/Ownable.sol\";\r\n\r\ncontract EthordleToken is ERC721, Ownable {\r\n    \r\n    using Strings for uint256;\r\n    \r\n    // Optional mapping for token URIs\r\n    mapping (uint256 => string) private _tokenURIs;\r\n    mapping (uint256 => string) private _tokenWords;\r\n\r\n    uint256 private _mintedTokenCount;\r\n    string private _baseURIextended;\r\n    \r\n    constructor(string memory _name, string memory _symbol)\r\n        ERC721(_name, _symbol)\r\n    {}\r\n    \r\n    function setBaseURI(string memory baseURI_) external onlyOwner() {\r\n        _baseURIextended = baseURI_;\r\n    }\r\n\r\n    function getMintedTokenCount() public view returns (uint256) {\r\n        return _mintedTokenCount;\r\n    }\r\n    \r\n    function _setTokenDetails(uint256 tokenId,  string memory _tokenWord, string memory _tokenURI) virtual internal {\r\n        require(_exists(tokenId), \"ERC721Metadata: URI set of nonexistent token\");\r\n        _tokenURIs[tokenId] = _tokenURI;\r\n        _tokenWords[tokenId] = _tokenWord;\r\n    }\r\n    \r\n    function _baseURI() internal view virtual override returns (string memory) {\r\n        return _baseURIextended;\r\n    }\r\n    \r\n    function tokenURI(uint256 tokenId) public view virtual override returns (string memory) {\r\n        require(_exists(tokenId), \"ERC721Metadata: URI query for nonexistent token\");\r\n\r\n        string memory _tokenURI = _tokenURIs[tokenId];\r\n        string memory base = _baseURI();\r\n        \r\n        // If there is no base URI, return the token URI.\r\n        if (bytes(base).length == 0) {\r\n            return _tokenURI;\r\n        }\r\n        // If both are set, concatenate the baseURI and tokenURI (via abi.encodePacked).\r\n        if (bytes(_tokenURI).length > 0) {\r\n            return string(abi.encodePacked(base, _tokenURI));\r\n        }\r\n        // If there is a baseURI but no tokenURI, concatenate the tokenID to the baseURI.\r\n        return string(abi.encodePacked(base, tokenId.toString()));\r\n    }\r\n    \r\n    function tokenWord(uint256 tokenId) public view virtual returns (string memory) {\r\n        require(_exists(tokenId), \"ERC721Metadata: word query for nonexistent token\");\r\n\r\n        string memory _tokenWord = _tokenWords[tokenId];\r\n\r\n        return _tokenWord;\r\n    }\r\n\r\n    function mint(\r\n        address _to,\r\n        string memory tokenWord_,\r\n        string memory tokenURI_\r\n    ) external {        \r\n        _safeMint(_to, _mintedTokenCount);\r\n        _setTokenDetails(_mintedTokenCount, tokenWord_, tokenURI_);\r\n        _mintedTokenCount++;\r\n    }\r\n}\r\n",
  "sourcePath": "C:\\Dev\\Github\\ethordle\\contracts\\EthordleToken.sol",
  "compiler": {
    "name": "solc",
    "version": "0.8.1+commit.df193b15.Emscripten.clang"
  },
  "schemaVersion": "3.4.6",
  "updatedAt": "2022-03-31T15:12:46.722Z",
  "networkType": "ethereum",
  "devdoc": {
    "kind": "dev",
    "methods": {
      "approve(address,uint256)": {
        "details": "See {IERC721-approve}."
      },
      "balanceOf(address)": {
        "details": "See {IERC721-balanceOf}."
      },
      "getApproved(uint256)": {
        "details": "See {IERC721-getApproved}."
      },
      "isApprovedForAll(address,address)": {
        "details": "See {IERC721-isApprovedForAll}."
      },
      "name()": {
        "details": "See {IERC721Metadata-name}."
      },
      "owner()": {
        "details": "Returns the address of the current owner."
      },
      "ownerOf(uint256)": {
        "details": "See {IERC721-ownerOf}."
      },
      "renounceOwnership()": {
        "details": "Leaves the contract without owner. It will not be possible to call `onlyOwner` functions anymore. Can only be called by the current owner. NOTE: Renouncing ownership will leave the contract without an owner, thereby removing any functionality that is only available to the owner."
      },
      "safeTransferFrom(address,address,uint256)": {
        "details": "See {IERC721-safeTransferFrom}."
      },
      "safeTransferFrom(address,address,uint256,bytes)": {
        "details": "See {IERC721-safeTransferFrom}."
      },
      "setApprovalForAll(address,bool)": {
        "details": "See {IERC721-setApprovalForAll}."
      },
      "supportsInterface(bytes4)": {
        "details": "See {IERC165-supportsInterface}."
      },
      "symbol()": {
        "details": "See {IERC721Metadata-symbol}."
      },
      "tokenURI(uint256)": {
        "details": "See {IERC721Metadata-tokenURI}."
      },
      "transferFrom(address,address,uint256)": {
        "details": "See {IERC721-transferFrom}."
      },
      "transferOwnership(address)": {
        "details": "Transfers ownership of the contract to a new account (`newOwner`). Can only be called by the current owner."
      }
    },
    "version": 1
  },
  "userdoc": {
    "kind": "user",
    "methods": {},
    "version": 1
  }
}