{
  "contractName": "EthordleToken",
  "abi": [
    {
      "inputs": [
        {
          "internalType": "string",
          "name": "_name",
          "type": "string"
        },
        {
          "internalType": "string",
          "name": "_symbol",
          "type": "string"
        },
        {
          "internalType": "uint256",
          "name": "initialPrice_",
          "type": "uint256"
        },
        {
          "internalType": "uint256",
          "name": "minimumPrice_",
          "type": "uint256"
        },
        {
          "internalType": "uint256",
          "name": "royaltyRate_",
          "type": "uint256"
        },
        {
          "internalType": "uint256",
          "name": "priceEscalationRate_",
          "type": "uint256"
        },
        {
          "internalType": "string",
          "name": "password_",
          "type": "string"
        },
        {
          "internalType": "address",
          "name": "beneficiary_",
          "type": "address"
        }
      ],
      "stateMutability": "nonpayable",
      "type": "constructor"
    },
    {
      "anonymous": false,
      "inputs": [
        {
          "indexed": true,
          "internalType": "address",
          "name": "owner",
          "type": "address"
        },
        {
          "indexed": true,
          "internalType": "address",
          "name": "approved",
          "type": "address"
        },
        {
          "indexed": true,
          "internalType": "uint256",
          "name": "tokenId",
          "type": "uint256"
        }
      ],
      "name": "Approval",
      "type": "event"
    },
    {
      "anonymous": false,
      "inputs": [
        {
          "indexed": true,
          "internalType": "address",
          "name": "owner",
          "type": "address"
        },
        {
          "indexed": true,
          "internalType": "address",
          "name": "operator",
          "type": "address"
        },
        {
          "indexed": false,
          "internalType": "bool",
          "name": "approved",
          "type": "bool"
        }
      ],
      "name": "ApprovalForAll",
      "type": "event"
    },
    {
      "anonymous": false,
      "inputs": [
        {
          "indexed": false,
          "internalType": "uint256",
          "name": "tokenId",
          "type": "uint256"
        },
        {
          "indexed": false,
          "internalType": "address",
          "name": "owner",
          "type": "address"
        },
        {
          "indexed": false,
          "internalType": "uint256",
          "name": "price",
          "type": "uint256"
        },
        {
          "indexed": false,
          "internalType": "string",
          "name": "solution",
          "type": "string"
        },
        {
          "indexed": false,
          "internalType": "string",
          "name": "metadataURI",
          "type": "string"
        }
      ],
      "name": "Minted",
      "type": "event"
    },
    {
      "anonymous": false,
      "inputs": [
        {
          "indexed": true,
          "internalType": "address",
          "name": "previousOwner",
          "type": "address"
        },
        {
          "indexed": true,
          "internalType": "address",
          "name": "newOwner",
          "type": "address"
        }
      ],
      "name": "OwnershipTransferred",
      "type": "event"
    },
    {
      "anonymous": false,
      "inputs": [
        {
          "indexed": false,
          "internalType": "uint256",
          "name": "tokenId",
          "type": "uint256"
        },
        {
          "indexed": false,
          "internalType": "address",
          "name": "seller",
          "type": "address"
        },
        {
          "indexed": false,
          "internalType": "string",
          "name": "solution",
          "type": "string"
        },
        {
          "indexed": false,
          "internalType": "string",
          "name": "metadataURI",
          "type": "string"
        }
      ],
      "name": "SaleCanceled",
      "type": "event"
    },
    {
      "anonymous": false,
      "inputs": [
        {
          "indexed": false,
          "internalType": "uint256",
          "name": "tokenId",
          "type": "uint256"
        },
        {
          "indexed": false,
          "internalType": "address",
          "name": "seller",
          "type": "address"
        },
        {
          "indexed": false,
          "internalType": "uint256",
          "name": "price",
          "type": "uint256"
        },
        {
          "indexed": false,
          "internalType": "string",
          "name": "solution",
          "type": "string"
        },
        {
          "indexed": false,
          "internalType": "string",
          "name": "metadataURI",
          "type": "string"
        }
      ],
      "name": "SaleCreated",
      "type": "event"
    },
    {
      "anonymous": false,
      "inputs": [
        {
          "indexed": false,
          "internalType": "uint256",
          "name": "tokenId",
          "type": "uint256"
        },
        {
          "indexed": false,
          "internalType": "address",
          "name": "buyer",
          "type": "address"
        },
        {
          "indexed": false,
          "internalType": "address",
          "name": "seller",
          "type": "address"
        },
        {
          "indexed": false,
          "internalType": "uint256",
          "name": "price",
          "type": "uint256"
        },
        {
          "indexed": false,
          "internalType": "string",
          "name": "solution",
          "type": "string"
        },
        {
          "indexed": false,
          "internalType": "string",
          "name": "metadataURI",
          "type": "string"
        }
      ],
      "name": "SaleSuccessful",
      "type": "event"
    },
    {
      "anonymous": false,
      "inputs": [
        {
          "indexed": true,
          "internalType": "address",
          "name": "from",
          "type": "address"
        },
        {
          "indexed": true,
          "internalType": "address",
          "name": "to",
          "type": "address"
        },
        {
          "indexed": true,
          "internalType": "uint256",
          "name": "tokenId",
          "type": "uint256"
        }
      ],
      "name": "Transfer",
      "type": "event"
    },
    {
      "anonymous": false,
      "inputs": [
        {
          "indexed": false,
          "internalType": "uint256",
          "name": "tokenId",
          "type": "uint256"
        },
        {
          "indexed": false,
          "internalType": "address",
          "name": "transferee",
          "type": "address"
        },
        {
          "indexed": false,
          "internalType": "string",
          "name": "solution",
          "type": "string"
        },
        {
          "indexed": false,
          "internalType": "string",
          "name": "metadataURI",
          "type": "string"
        }
      ],
      "name": "TransferSuccessful",
      "type": "event"
    },
    {
      "inputs": [
        {
          "internalType": "uint256",
          "name": "",
          "type": "uint256"
        }
      ],
      "name": "_tokens",
      "outputs": [
        {
          "internalType": "uint256",
          "name": "id",
          "type": "uint256"
        },
        {
          "internalType": "address",
          "name": "owner",
          "type": "address"
        },
        {
          "internalType": "uint256",
          "name": "price",
          "type": "uint256"
        },
        {
          "internalType": "uint256",
          "name": "lastPrice",
          "type": "uint256"
        },
        {
          "internalType": "string",
          "name": "url",
          "type": "string"
        },
        {
          "internalType": "string",
          "name": "solution",
          "type": "string"
        },
        {
          "internalType": "bool",
          "name": "isForSale",
          "type": "bool"
        },
        {
          "internalType": "uint256",
          "name": "lastTransactionTimestamp",
          "type": "uint256"
        },
        {
          "internalType": "uint256",
          "name": "transactionCount",
          "type": "uint256"
        }
      ],
      "stateMutability": "view",
      "type": "function",
      "constant": true
    },
    {
      "inputs": [
        {
          "internalType": "address",
          "name": "to",
          "type": "address"
        },
        {
          "internalType": "uint256",
          "name": "tokenId",
          "type": "uint256"
        }
      ],
      "name": "approve",
      "outputs": [],
      "stateMutability": "nonpayable",
      "type": "function"
    },
    {
      "inputs": [
        {
          "internalType": "address",
          "name": "owner",
          "type": "address"
        }
      ],
      "name": "balanceOf",
      "outputs": [
        {
          "internalType": "uint256",
          "name": "",
          "type": "uint256"
        }
      ],
      "stateMutability": "view",
      "type": "function",
      "constant": true
    },
    {
      "inputs": [
        {
          "internalType": "uint256",
          "name": "tokenId",
          "type": "uint256"
        }
      ],
      "name": "getApproved",
      "outputs": [
        {
          "internalType": "address",
          "name": "",
          "type": "address"
        }
      ],
      "stateMutability": "view",
      "type": "function",
      "constant": true
    },
    {
      "inputs": [
        {
          "internalType": "address",
          "name": "owner",
          "type": "address"
        },
        {
          "internalType": "address",
          "name": "operator",
          "type": "address"
        }
      ],
      "name": "isApprovedForAll",
      "outputs": [
        {
          "internalType": "bool",
          "name": "",
          "type": "bool"
        }
      ],
      "stateMutability": "view",
      "type": "function",
      "constant": true
    },
    {
      "inputs": [],
      "name": "name",
      "outputs": [
        {
          "internalType": "string",
          "name": "",
          "type": "string"
        }
      ],
      "stateMutability": "view",
      "type": "function",
      "constant": true
    },
    {
      "inputs": [],
      "name": "owner",
      "outputs": [
        {
          "internalType": "address",
          "name": "",
          "type": "address"
        }
      ],
      "stateMutability": "view",
      "type": "function",
      "constant": true
    },
    {
      "inputs": [
        {
          "internalType": "uint256",
          "name": "tokenId",
          "type": "uint256"
        }
      ],
      "name": "ownerOf",
      "outputs": [
        {
          "internalType": "address",
          "name": "",
          "type": "address"
        }
      ],
      "stateMutability": "view",
      "type": "function",
      "constant": true
    },
    {
      "inputs": [],
      "name": "renounceOwnership",
      "outputs": [],
      "stateMutability": "nonpayable",
      "type": "function"
    },
    {
      "inputs": [
        {
          "internalType": "address",
          "name": "operator",
          "type": "address"
        },
        {
          "internalType": "bool",
          "name": "approved",
          "type": "bool"
        }
      ],
      "name": "setApprovalForAll",
      "outputs": [],
      "stateMutability": "nonpayable",
      "type": "function"
    },
    {
      "inputs": [
        {
          "internalType": "bytes4",
          "name": "interfaceId",
          "type": "bytes4"
        }
      ],
      "name": "supportsInterface",
      "outputs": [
        {
          "internalType": "bool",
          "name": "",
          "type": "bool"
        }
      ],
      "stateMutability": "view",
      "type": "function",
      "constant": true
    },
    {
      "inputs": [],
      "name": "symbol",
      "outputs": [
        {
          "internalType": "string",
          "name": "",
          "type": "string"
        }
      ],
      "stateMutability": "view",
      "type": "function",
      "constant": true
    },
    {
      "inputs": [
        {
          "internalType": "address",
          "name": "newOwner",
          "type": "address"
        }
      ],
      "name": "transferOwnership",
      "outputs": [],
      "stateMutability": "nonpayable",
      "type": "function"
    },
    {
      "inputs": [
        {
          "internalType": "string",
          "name": "a",
          "type": "string"
        },
        {
          "internalType": "string",
          "name": "b",
          "type": "string"
        }
      ],
      "name": "_compareStrings",
      "outputs": [
        {
          "internalType": "bool",
          "name": "",
          "type": "bool"
        }
      ],
      "stateMutability": "pure",
      "type": "function",
      "constant": true
    },
    {
      "inputs": [
        {
          "internalType": "uint256",
          "name": "initialPrice_",
          "type": "uint256"
        }
      ],
      "name": "setInitialPrice",
      "outputs": [],
      "stateMutability": "nonpayable",
      "type": "function"
    },
    {
      "inputs": [],
      "name": "initialPrice",
      "outputs": [
        {
          "internalType": "uint256",
          "name": "",
          "type": "uint256"
        }
      ],
      "stateMutability": "view",
      "type": "function",
      "constant": true
    },
    {
      "inputs": [
        {
          "internalType": "uint256",
          "name": "minimumPrice_",
          "type": "uint256"
        }
      ],
      "name": "setMinimumPrice",
      "outputs": [],
      "stateMutability": "nonpayable",
      "type": "function"
    },
    {
      "inputs": [],
      "name": "minimumPrice",
      "outputs": [
        {
          "internalType": "uint256",
          "name": "",
          "type": "uint256"
        }
      ],
      "stateMutability": "view",
      "type": "function",
      "constant": true
    },
    {
      "inputs": [
        {
          "internalType": "uint256",
          "name": "royaltyRate_",
          "type": "uint256"
        }
      ],
      "name": "setRoyaltyRate",
      "outputs": [],
      "stateMutability": "nonpayable",
      "type": "function"
    },
    {
      "inputs": [],
      "name": "royaltyRate",
      "outputs": [
        {
          "internalType": "uint256",
          "name": "",
          "type": "uint256"
        }
      ],
      "stateMutability": "view",
      "type": "function",
      "constant": true
    },
    {
      "inputs": [
        {
          "internalType": "uint256",
          "name": "priceEscalationRate_",
          "type": "uint256"
        }
      ],
      "name": "setPriceEscalationRate",
      "outputs": [],
      "stateMutability": "nonpayable",
      "type": "function"
    },
    {
      "inputs": [],
      "name": "priceEscalationRate",
      "outputs": [
        {
          "internalType": "uint256",
          "name": "",
          "type": "uint256"
        }
      ],
      "stateMutability": "view",
      "type": "function",
      "constant": true
    },
    {
      "inputs": [
        {
          "internalType": "string",
          "name": "password_",
          "type": "string"
        }
      ],
      "name": "setPassword",
      "outputs": [],
      "stateMutability": "nonpayable",
      "type": "function"
    },
    {
      "inputs": [
        {
          "internalType": "address",
          "name": "beneficiary_",
          "type": "address"
        }
      ],
      "name": "setBeneficiary",
      "outputs": [],
      "stateMutability": "nonpayable",
      "type": "function"
    },
    {
      "inputs": [],
      "name": "tokenCount",
      "outputs": [
        {
          "internalType": "uint256",
          "name": "",
          "type": "uint256"
        }
      ],
      "stateMutability": "view",
      "type": "function",
      "constant": true
    },
    {
      "inputs": [
        {
          "internalType": "uint256",
          "name": "tokenId",
          "type": "uint256"
        }
      ],
      "name": "tokenById",
      "outputs": [
        {
          "components": [
            {
              "internalType": "uint256",
              "name": "id",
              "type": "uint256"
            },
            {
              "internalType": "address",
              "name": "owner",
              "type": "address"
            },
            {
              "internalType": "uint256",
              "name": "price",
              "type": "uint256"
            },
            {
              "internalType": "uint256",
              "name": "lastPrice",
              "type": "uint256"
            },
            {
              "internalType": "string",
              "name": "url",
              "type": "string"
            },
            {
              "internalType": "string",
              "name": "solution",
              "type": "string"
            },
            {
              "internalType": "bool",
              "name": "isForSale",
              "type": "bool"
            },
            {
              "internalType": "uint256",
              "name": "lastTransactionTimestamp",
              "type": "uint256"
            },
            {
              "internalType": "uint256",
              "name": "transactionCount",
              "type": "uint256"
            }
          ],
          "internalType": "struct EthordleToken.Token",
          "name": "",
          "type": "tuple"
        }
      ],
      "stateMutability": "view",
      "type": "function",
      "constant": true
    },
    {
      "inputs": [
        {
          "internalType": "address",
          "name": "_from",
          "type": "address"
        }
      ],
      "name": "tokensOfOwner",
      "outputs": [
        {
          "components": [
            {
              "internalType": "uint256",
              "name": "id",
              "type": "uint256"
            },
            {
              "internalType": "address",
              "name": "owner",
              "type": "address"
            },
            {
              "internalType": "uint256",
              "name": "price",
              "type": "uint256"
            },
            {
              "internalType": "uint256",
              "name": "lastPrice",
              "type": "uint256"
            },
            {
              "internalType": "string",
              "name": "url",
              "type": "string"
            },
            {
              "internalType": "string",
              "name": "solution",
              "type": "string"
            },
            {
              "internalType": "bool",
              "name": "isForSale",
              "type": "bool"
            },
            {
              "internalType": "uint256",
              "name": "lastTransactionTimestamp",
              "type": "uint256"
            },
            {
              "internalType": "uint256",
              "name": "transactionCount",
              "type": "uint256"
            }
          ],
          "internalType": "struct EthordleToken.Token[]",
          "name": "",
          "type": "tuple[]"
        }
      ],
      "stateMutability": "view",
      "type": "function",
      "constant": true
    },
    {
      "inputs": [],
      "name": "tokens",
      "outputs": [
        {
          "components": [
            {
              "internalType": "uint256",
              "name": "id",
              "type": "uint256"
            },
            {
              "internalType": "address",
              "name": "owner",
              "type": "address"
            },
            {
              "internalType": "uint256",
              "name": "price",
              "type": "uint256"
            },
            {
              "internalType": "uint256",
              "name": "lastPrice",
              "type": "uint256"
            },
            {
              "internalType": "string",
              "name": "url",
              "type": "string"
            },
            {
              "internalType": "string",
              "name": "solution",
              "type": "string"
            },
            {
              "internalType": "bool",
              "name": "isForSale",
              "type": "bool"
            },
            {
              "internalType": "uint256",
              "name": "lastTransactionTimestamp",
              "type": "uint256"
            },
            {
              "internalType": "uint256",
              "name": "transactionCount",
              "type": "uint256"
            }
          ],
          "internalType": "struct EthordleToken.Token[]",
          "name": "",
          "type": "tuple[]"
        }
      ],
      "stateMutability": "view",
      "type": "function",
      "constant": true
    },
    {
      "inputs": [],
      "name": "tokenSupply",
      "outputs": [
        {
          "internalType": "uint256",
          "name": "",
          "type": "uint256"
        }
      ],
      "stateMutability": "view",
      "type": "function",
      "constant": true
    },
    {
      "inputs": [
        {
          "internalType": "string",
          "name": "baseURI",
          "type": "string"
        }
      ],
      "name": "setBaseURI",
      "outputs": [],
      "stateMutability": "nonpayable",
      "type": "function"
    },
    {
      "inputs": [
        {
          "internalType": "string",
          "name": "solution_",
          "type": "string"
        }
      ],
      "name": "isSolutionUnique",
      "outputs": [
        {
          "internalType": "bool",
          "name": "",
          "type": "bool"
        }
      ],
      "stateMutability": "view",
      "type": "function",
      "constant": true
    },
    {
      "inputs": [
        {
          "internalType": "uint256",
          "name": "tokenId",
          "type": "uint256"
        }
      ],
      "name": "tokenURI",
      "outputs": [
        {
          "internalType": "string",
          "name": "",
          "type": "string"
        }
      ],
      "stateMutability": "view",
      "type": "function",
      "constant": true
    },
    {
      "inputs": [
        {
          "internalType": "address payable",
          "name": "to",
          "type": "address"
        },
        {
          "internalType": "string",
          "name": "solution_",
          "type": "string"
        },
        {
          "internalType": "string",
          "name": "tokenURI_",
          "type": "string"
        },
        {
          "internalType": "string",
          "name": "password_",
          "type": "string"
        }
      ],
      "name": "mint",
      "outputs": [],
      "stateMutability": "payable",
      "type": "function",
      "payable": true
    },
    {
      "inputs": [
        {
          "internalType": "uint256",
          "name": "tokenId",
          "type": "uint256"
        },
        {
          "internalType": "uint256",
          "name": "price",
          "type": "uint256"
        }
      ],
      "name": "createSale",
      "outputs": [],
      "stateMutability": "nonpayable",
      "type": "function"
    },
    {
      "inputs": [
        {
          "internalType": "uint256",
          "name": "tokenId",
          "type": "uint256"
        }
      ],
      "name": "cancelSale",
      "outputs": [],
      "stateMutability": "nonpayable",
      "type": "function"
    },
    {
      "inputs": [
        {
          "internalType": "uint256",
          "name": "tokenId",
          "type": "uint256"
        },
        {
          "internalType": "string",
          "name": "password_",
          "type": "string"
        }
      ],
      "name": "buy",
      "outputs": [],
      "stateMutability": "payable",
      "type": "function",
      "payable": true
    },
    {
      "inputs": [
        {
          "internalType": "uint256",
          "name": "tokenId",
          "type": "uint256"
        },
        {
          "internalType": "address",
          "name": "to",
          "type": "address"
        }
      ],
      "name": "transferAsContractOwner",
      "outputs": [],
      "stateMutability": "payable",
      "type": "function",
      "payable": true
    },
    {
      "inputs": [
        {
          "internalType": "address",
          "name": "",
          "type": "address"
        },
        {
          "internalType": "address",
          "name": "",
          "type": "address"
        },
        {
          "internalType": "uint256",
          "name": "",
          "type": "uint256"
        }
      ],
      "name": "transferFrom",
      "outputs": [],
      "stateMutability": "view",
      "type": "function",
      "constant": true
    },
    {
      "inputs": [
        {
          "internalType": "address",
          "name": "",
          "type": "address"
        },
        {
          "internalType": "address",
          "name": "",
          "type": "address"
        },
        {
          "internalType": "uint256",
          "name": "",
          "type": "uint256"
        }
      ],
      "name": "safeTransferFrom",
      "outputs": [],
      "stateMutability": "view",
      "type": "function",
      "constant": true
    },
    {
      "inputs": [
        {
          "internalType": "address",
          "name": "",
          "type": "address"
        },
        {
          "internalType": "address",
          "name": "",
          "type": "address"
        },
        {
          "internalType": "uint256",
          "name": "",
          "type": "uint256"
        },
        {
          "internalType": "bytes",
          "name": "",
          "type": "bytes"
        }
      ],
      "name": "safeTransferFrom",
      "outputs": [],
      "stateMutability": "view",
      "type": "function",
      "constant": true
    }
  ],
  "bytecode": "0x608060405266038d7ea4c680006012553480156200001c57600080fd5b5060405162003e4f38038062003e4f8339810160408190526200003f91620002b3565b875188908890620000589060009060208501906200013d565b5080516200006e9060019060208401906200013d565b50506001600655506200008a62000084620000e7565b620000eb565b6000600f55600b869055600c859055600d849055600e8390558151620000b89060119060208501906200013d565b50601380546001600160a01b0319166001600160a01b039290921691909117905550620003cd95505050505050565b3390565b600780546001600160a01b038381166001600160a01b0319831681179093556040519116919082907f8be0079c531659141344cd1fd0a4f28419497f9722a3daafe3b4186f6b6457e090600090a35050565b8280546200014b906200037a565b90600052602060002090601f0160209004810192826200016f5760008555620001ba565b82601f106200018a57805160ff1916838001178555620001ba565b82800160010185558215620001ba579182015b82811115620001ba5782518255916020019190600101906200019d565b50620001c8929150620001cc565b5090565b5b80821115620001c85760008155600101620001cd565b80516001600160a01b0381168114620001fb57600080fd5b919050565b600082601f83011262000211578081fd5b81516001600160401b03808211156200022e576200022e620003b7565b604051601f8301601f19908116603f01168101908282118183101715620002595762000259620003b7565b8160405283815260209250868385880101111562000275578485fd5b8491505b8382101562000298578582018301518183018401529082019062000279565b83821115620002a957848385830101525b9695505050505050565b600080600080600080600080610100898b031215620002d0578384fd5b88516001600160401b0380821115620002e7578586fd5b620002f58c838d0162000200565b995060208b01519150808211156200030b578586fd5b620003198c838d0162000200565b985060408b0151975060608b0151965060808b0151955060a08b0151945060c08b01519150808211156200034b578384fd5b506200035a8b828c0162000200565b9250506200036b60e08a01620001e3565b90509295985092959890939650565b6002810460018216806200038f57607f821691505b60208210811415620003b157634e487b7160e01b600052602260045260246000fd5b50919050565b634e487b7160e01b600052604160045260246000fd5b613a7280620003dd6000396000f3fe60806040526004361061023b5760003560e01c80637824407f1161012e578063a22cb465116100ab578063c4d1510d1161006f578063c4d1510d1461062f578063c87b56dd14610644578063e985e9c514610664578063ed70554d14610684578063f2fde38b146106b95761023b565b8063a22cb4651461059c578063a5a02584146105bc578063b7dc3b18146105dc578063b88d4fde146105ef578063bd94b0051461060f5761023b565b806395d89b41116100f257806395d89b41146105325780639d63848a146105475780639f181b5e146104a65780639f4ba0ee1461055c578063a129ece91461057c5761023b565b80637824407f146104a65780637c68ec4c146104bb5780637f386b6c146104db5780638462151c146104f05780638da5cb5b1461051d5761023b565b806342842e0e116101bc5780636352211e116101805780636352211e1461040f5780636b6af2d51461042f57806370a082311461045c578063715018a61461047c578063755381f7146104915761023b565b806342842e0e146103295780634a0706be1461039c578063537782a2146103af57806355f804b3146103cf5780636019061b146103ef5761023b565b80631d0806ae116102035780631d0806ae1461030757806323b872dd14610329578063251d89641461034957806325cea9761461035c578063290bb4531461037c5761023b565b806301ffc9a71461024057806306fdde0314610276578063081812fc14610298578063095ea7b3146102c55780631c31f710146102e7575b600080fd5b34801561024c57600080fd5b5061026061025b366004612c91565b6106d9565b60405161026d9190612f48565b60405180910390f35b34801561028257600080fd5b5061028b610721565b60405161026d9190612f53565b3480156102a457600080fd5b506102b86102b3366004612d4d565b6107b3565b60405161026d9190612ed4565b3480156102d157600080fd5b506102e56102e0366004612b15565b6107ff565b005b3480156102f357600080fd5b506102e561030236600461294c565b610897565b34801561031357600080fd5b5061031c6108f8565b60405161026d9190613746565b34801561033557600080fd5b506102e5610344366004612a37565b6108fe565b6102e5610357366004612d65565b61093d565b34801561036857600080fd5b506102e5610377366004612d4d565b610bb5565b34801561038857600080fd5b506102e5610397366004612cb9565b610bf9565b6102e56103aa366004612968565b610c4f565b3480156103bb57600080fd5b506102e56103ca366004612d4d565b6110bb565b3480156103db57600080fd5b506102e56103ea366004612cb9565b6110ff565b3480156103fb57600080fd5b506102e561040a366004612dc4565b611151565b34801561041b57600080fd5b506102b861042a366004612d4d565b611333565b34801561043b57600080fd5b5061044f61044a366004612d4d565b611368565b60405161026d9190613733565b34801561046857600080fd5b5061031c61047736600461294c565b611382565b34801561048857600080fd5b506102e56113c6565b34801561049d57600080fd5b5061031c611411565b3480156104b257600080fd5b5061031c611417565b3480156104c757600080fd5b506102606104d6366004612cec565b61141d565b3480156104e757600080fd5b5061031c611476565b3480156104fc57600080fd5b5061051061050b36600461294c565b61147c565b60405161026d9190612ee8565b34801561052957600080fd5b506102b8611649565b34801561053e57600080fd5b5061028b611658565b34801561055357600080fd5b50610510611667565b34801561056857600080fd5b506102e5610577366004612d4d565b6118bd565b34801561058857600080fd5b506102e5610597366004612d4d565b611901565b3480156105a857600080fd5b506102e56105b7366004612ae8565b611945565b3480156105c857600080fd5b506102606105d7366004612cb9565b611957565b6102e56105ea366004612d89565b611994565b3480156105fb57600080fd5b506102e561060a366004612a77565b611cfc565b34801561061b57600080fd5b506102e561062a366004612d4d565b611d41565b34801561063b57600080fd5b5061031c611ebd565b34801561065057600080fd5b5061028b61065f366004612d4d565b611ec3565b34801561067057600080fd5b5061026061067f3660046129ff565b611edb565b34801561069057600080fd5b506106a461069f366004612d4d565b611f09565b60405161026d99989796959493929190613839565b3480156106c557600080fd5b506102e56106d436600461294c565b612072565b60006001600160e01b031982166380ac58cd60e01b148061070a57506001600160e01b03198216635b5e139f60e01b145b806107195750610719826120e3565b90505b919050565b60606000805461073090613997565b80601f016020809104026020016040519081016040528092919081815260200182805461075c90613997565b80156107a95780601f1061077e576101008083540402835291602001916107a9565b820191906000526020600020905b81548152906001019060200180831161078c57829003601f168201915b5050505050905090565b60006107be826120fc565b6107e35760405162461bcd60e51b81526004016107da9061336b565b60405180910390fd5b506000908152600460205260409020546001600160a01b031690565b600061080a82611333565b9050806001600160a01b0316836001600160a01b0316141561083e5760405162461bcd60e51b81526004016107da906134ce565b806001600160a01b0316610850612119565b6001600160a01b0316148061086c575061086c8161067f612119565b6108885760405162461bcd60e51b81526004016107da906131f4565b610892838361211d565b505050565b61089f612119565b6001600160a01b03166108b0611649565b6001600160a01b0316146108d65760405162461bcd60e51b81526004016107da90613447565b601380546001600160a01b0319166001600160a01b0392909216919091179055565b600b5490565b610906612119565b6001600160a01b0316610917611649565b6001600160a01b0316146108925760405162461bcd60e51b81526004016107da90613447565b600260065414156109605760405162461bcd60e51b81526004016107da9061369f565b600260065561096d612119565b6001600160a01b031661097e611649565b6001600160a01b0316146109a45760405162461bcd60e51b81526004016107da90613447565b60006109af8361218b565b9050816001600160a01b03166109c484611333565b6001600160a01b031614156109eb5760405162461bcd60e51b81526004016107da906131bd565b60a08101516080820151610a08610a0186611333565b8587612382565b83600983604051610a199190612eb8565b908152602001604051809103902060006101000a8154816001600160a01b0302191690836001600160a01b0316021790555083600a82604051610a5c9190612eb8565b9081526040516020918190038201902080546001600160a01b0319166001600160a01b0393841617905590851690840152600060c08401524260e08401526101008301805190610aab826139d2565b90525060008581526008602090815260409182902085518155858201516001820180546001600160a01b0319166001600160a01b039092169190911790559185015160028301556060850151600383015560808501518051869392610b179260048501929101906127a6565b5060a08201518051610b339160058401916020909101906127a6565b5060c082015160068201805460ff191691151591909117905560e082015160078201556101009091015160089091015560a083015160808401516040517fb48efa98dc874c5fbf1c01837c5cb93d79b08738b1ae210c8c85672fac0404cd92610ba1928992899291906137f2565b60405180910390a150506001600655505050565b610bbd612119565b6001600160a01b0316610bce611649565b6001600160a01b031614610bf45760405162461bcd60e51b81526004016107da90613447565b600c55565b610c01612119565b6001600160a01b0316610c12611649565b6001600160a01b031614610c385760405162461bcd60e51b81526004016107da90613447565b8051610c4b9060119060208401906127a6565b5050565b60026006541415610c725760405162461bcd60e51b81526004016107da9061369f565b6002600655601180548291610d0e91610c8a90613997565b80601f0160208091040260200160405190810160405280929190818152602001828054610cb690613997565b8015610d035780601f10610cd857610100808354040283529160200191610d03565b820191906000526020600020905b815481529060010190602001808311610ce657829003601f168201915b50505050508261141d565b610d2a5760405162461bcd60e51b81526004016107da9061347c565b336001600160a01b0386161480610d595750610d44611649565b6001600160a01b0316336001600160a01b0316145b610d755760405162461bcd60e51b81526004016107da9061341b565b600b54341015610d975760405162461bcd60e51b81526004016107da9061359c565b60006001600160a01b0316600985604051610db29190612eb8565b908152604051908190036020019020546001600160a01b031614610de85760405162461bcd60e51b81526004016107da906132e4565b60006001600160a01b0316600a84604051610e039190612eb8565b908152604051908190036020019020546001600160a01b031614610e395760405162461bcd60e51b81526004016107da90612f66565b600584511015610e5b5760405162461bcd60e51b81526004016107da906133e6565b601c83511015610e7d5760405162461bcd60e51b81526004016107da906135e9565b3415610ebe576013546040516001600160a01b03909116903480156108fc02916000818181858888f19350505050158015610ebc573d6000803e3d6000fd5b505b610eca85600f546124b5565b6000610ed53461259c565b6040805161012081018252600f548082526001600160a01b038a81166020808501918252848601878152600b5460608701908152608087018d815260a088018f9052600060c089018190524260e08a015260016101008a01819052978152600885529890982087518155935195840180546001600160a01b0319169690951695909517909355915160028201559151600383015592518051949550919384939192610f879260048501929101906127a6565b5060a08201518051610fa39160058401916020909101906127a6565b5060c082015160068201805460ff191691151591909117905560e08201516007820155610100909101516008909101556040518790600990610fe6908990612eb8565b908152602001604051809103902060006101000a8154816001600160a01b0302191690836001600160a01b0316021790555086600a866040516110299190612eb8565b90815260405190819003602001812080546001600160a01b03939093166001600160a01b031990931692909217909155600f547f44f2343552d6dfa841d166e5e35863f415bd87eff575964c3d838d3fa19676429161109091908a9086908b908b9061374f565b60405180910390a1600f80549060006110a8836139d2565b9091555050600160065550505050505050565b6110c3612119565b6001600160a01b03166110d4611649565b6001600160a01b0316146110fa5760405162461bcd60e51b81526004016107da90613447565b600d55565b611107612119565b6001600160a01b0316611118611649565b6001600160a01b03161461113e5760405162461bcd60e51b81526004016107da90613447565b8051610c4b9060109060208401906127a6565b600061115c8361218b565b9050611166611649565b6001600160a01b0316336001600160a01b0316148061118a575061118a33846125f8565b6111a65760405162461bcd60e51b81526004016107da90613171565b8060c00151156111c85760405162461bcd60e51b81526004016107da906130f0565b80604001518210156111ec5760405162461bcd60e51b81526004016107da9061350f565b600c5482101561120e5760405162461bcd60e51b81526004016107da906136d6565b6012546112259061121f848261267c565b90612688565b6040828101918252600160c08401819052600086815260086020908152929020845181558285015191810180546001600160a01b0319166001600160a01b039093169290921790915591516002830155606083015160038301556080830151805184939261129a9260048501929101906127a6565b5060a082015180516112b69160058401916020909101906127a6565b5060c082015160068201805460ff191691151591909117905560e082015160078201556101009091015160089091015560a081015160808201516040517f5eb7e190fe7aefdbe1568be4aeca28f154250bc01a8d39c8be6a4da35af45d639261132692879233928892909161374f565b60405180910390a1505050565b6000818152600260205260408120546001600160a01b0316806107195760405162461bcd60e51b81526004016107da9061329b565b61137061282a565b600061137b8361218b565b9392505050565b60006001600160a01b0382166113aa5760405162461bcd60e51b81526004016107da90613251565b506001600160a01b031660009081526003602052604090205490565b6113ce612119565b6001600160a01b03166113df611649565b6001600160a01b0316146114055760405162461bcd60e51b81526004016107da90613447565b61140f6000612694565b565b600e5490565b600f5490565b6000816040516020016114309190612eb8565b60405160208183030381529060405280519060200120836040516020016114579190612eb8565b6040516020818303038152906040528051906020012014905092915050565b600c5490565b6060600061148983611382565b90506000808267ffffffffffffffff8111156114b557634e487b7160e01b600052604160045260246000fd5b6040519080825280602002602001820160405280156114ee57816020015b6114db61282a565b8152602001906001900390816114d35790505b5090508215611641576000306001600160a01b0316639d63848a6040518163ffffffff1660e01b815260040160006040518083038186803b15801561153257600080fd5b505afa158015611546573d6000803e3d6000fd5b505050506040513d6000823e601f3d908101601f1916820160405261156e9190810190612b40565b905060005b600f5481101561163e57866001600160a01b03166115bb8383815181106115aa57634e487b7160e01b600052603260045260246000fd5b602002602001015160000151611333565b6001600160a01b0316141561162c578181815181106115ea57634e487b7160e01b600052603260045260246000fd5b602002602001015183858151811061161257634e487b7160e01b600052603260045260246000fd5b60200260200101819052508380611628906139d2565b9450505b80611636816139d2565b915050611573565b50505b949350505050565b6007546001600160a01b031690565b60606001805461073090613997565b60606000600f5467ffffffffffffffff81111561169457634e487b7160e01b600052604160045260246000fd5b6040519080825280602002602001820160405280156116cd57816020015b6116ba61282a565b8152602001906001900390816116b25790505b50905060005b600f548110156118b7576000818152600860209081526040918290208251610120810184528154815260018201546001600160a01b0316928101929092526002810154928201929092526003820154606082015260048201805491929160808401919061173f90613997565b80601f016020809104026020016040519081016040528092919081815260200182805461176b90613997565b80156117b85780601f1061178d576101008083540402835291602001916117b8565b820191906000526020600020905b81548152906001019060200180831161179b57829003601f168201915b505050505081526020016005820180546117d190613997565b80601f01602080910402602001604051908101604052809291908181526020018280546117fd90613997565b801561184a5780601f1061181f5761010080835404028352916020019161184a565b820191906000526020600020905b81548152906001019060200180831161182d57829003601f168201915b5050509183525050600682015460ff161515602082015260078201546040820152600890910154606090910152825183908390811061189957634e487b7160e01b600052603260045260246000fd5b602002602001018190525080806118af906139d2565b9150506116d3565b50905090565b6118c5612119565b6001600160a01b03166118d6611649565b6001600160a01b0316146118fc5760405162461bcd60e51b81526004016107da90613447565b600b55565b611909612119565b6001600160a01b031661191a611649565b6001600160a01b0316146119405760405162461bcd60e51b81526004016107da90613447565b600e55565b610c4b611950612119565b83836126e6565b6000806001600160a01b03166009836040516119739190612eb8565b908152604051908190036020019020546001600160a01b0316149050919050565b600260065414156119b75760405162461bcd60e51b81526004016107da9061369f565b60026006556011805482916119cf91610c8a90613997565b6119eb5760405162461bcd60e51b81526004016107da9061347c565b60006119f68461218b565b90508060400151341015611a1c5760405162461bcd60e51b81526004016107da9061359c565b8060c00151611a3d5760405162461bcd60e51b81526004016107da906133b7565b33611a4785611333565b6001600160a01b03161415611a6e5760405162461bcd60e51b81526004016107da906131bd565b60a081015160808201516000611a8334612789565b90506000611a918234613954565b6013546040519192506001600160a01b03169083156108fc029084906000818181858888f19350505050158015611acc573d6000803e3d6000fd5b50611ad688611333565b6001600160a01b03166108fc829081150290604051600060405180830381858888f19350505050158015611b0e573d6000803e3d6000fd5b50611b22611b1b89611333565b338a612382565b33600985604051611b339190612eb8565b908152602001604051809103902060006101000a8154816001600160a01b0302191690836001600160a01b0316021790555033600a84604051611b769190612eb8565b90815260405190819003602001902080546001600160a01b03929092166001600160a01b03199092169190911790556000611bb03461259c565b6020870180513390915260408801805160608a0152829052600060c08901524260e089015261010088018051929350909190611beb826139d2565b90525060008a81526008602090815260409182902089518155898201516001820180546001600160a01b0319166001600160a01b0390921691909117905591890151600283015560608901516003830155608089015180518a9392611c579260048501929101906127a6565b5060a08201518051611c739160058401916020909101906127a6565b5060c082015160068201805460ff191691151591909117905560e082015160078201556101009091015160089091015560a087015160808801516040517f98c19d237c722ec5cdb7cf8e74a8326f1b47eca3d46f396f26213b90597df02092611ce3928e9233928792899261379a565b60405180910390a1505060016006555050505050505050565b611d04612119565b6001600160a01b0316611d15611649565b6001600160a01b031614611d3b5760405162461bcd60e51b81526004016107da90613447565b50505050565b6000611d4c8261218b565b9050611d56611649565b6001600160a01b0316336001600160a01b03161480611d7a5750611d7a33836125f8565b611d965760405162461bcd60e51b81526004016107da90613171565b8060c00151611db75760405162461bcd60e51b81526004016107da90613655565b600060c082018190528281526008602090815260409182902083518155818401516001820180546001600160a01b0319166001600160a01b039092169190911790559183015160028301556060830151600383015560808301518051849392611e279260048501929101906127a6565b5060a08201518051611e439160058401916020909101906127a6565b5060c082015160068201805460ff191691151591909117905560e082015160078201556101009091015160089091015560a081015160808201516040517f7551733fb3dcb47e226e092d11b7fa481a463dd79568761a5d78264f98f85e5092611eb1928692339291906137f2565b60405180910390a15050565b600d5490565b60606000611ed08361218b565b608001519392505050565b6001600160a01b03918216600090815260056020908152604080832093909416825291909152205460ff1690565b6008602052600090815260409020805460018201546002830154600384015460048501805494956001600160a01b039094169492939192611f4990613997565b80601f0160208091040260200160405190810160405280929190818152602001828054611f7590613997565b8015611fc25780601f10611f9757610100808354040283529160200191611fc2565b820191906000526020600020905b815481529060010190602001808311611fa557829003601f168201915b505050505090806005018054611fd790613997565b80601f016020809104026020016040519081016040528092919081815260200182805461200390613997565b80156120505780601f1061202557610100808354040283529160200191612050565b820191906000526020600020905b81548152906001019060200180831161203357829003601f168201915b5050505060068301546007840154600890940154929360ff9091169290915089565b61207a612119565b6001600160a01b031661208b611649565b6001600160a01b0316146120b15760405162461bcd60e51b81526004016107da90613447565b6001600160a01b0381166120d75760405162461bcd60e51b81526004016107da90612fb3565b6120e081612694565b50565b6001600160e01b031981166301ffc9a760e01b14919050565b6000908152600260205260409020546001600160a01b0316151590565b3390565b600081815260046020526040902080546001600160a01b0319166001600160a01b038416908117909155819061215282611333565b6001600160a01b03167f8c5be1e5ebec7d5bd14f71427d1e84f3dd0314c0f7b2291e5b200ac8c7c3b92560405160405180910390a45050565b61219361282a565b61219c826120fc565b6121b85760405162461bcd60e51b81526004016107da9061356c565b60008281526008602090815260408083208151610120810183528154815260018201546001600160a01b0316938101939093526002810154918301919091526003810154606083015260048101805460808401919061221690613997565b80601f016020809104026020016040519081016040528092919081815260200182805461224290613997565b801561228f5780601f106122645761010080835404028352916020019161228f565b820191906000526020600020905b81548152906001019060200180831161227257829003601f168201915b505050505081526020016005820180546122a890613997565b80601f01602080910402602001604051908101604052809291908181526020018280546122d490613997565b80156123215780601f106122f657610100808354040283529160200191612321565b820191906000526020600020905b81548152906001019060200180831161230457829003601f168201915b5050509183525050600682015460ff1615156020820152600782015460408201526008909101546060909101529050600061235b84611333565b6001600160a01b031614156107195760405162461bcd60e51b81526004016107da9061361e565b826001600160a01b031661239582611333565b6001600160a01b0316146123bb5760405162461bcd60e51b81526004016107da90612ff9565b6001600160a01b0382166123e15760405162461bcd60e51b81526004016107da90613075565b6123ec838383610892565b6123f760008261211d565b6001600160a01b0383166000908152600360205260408120805460019290612420908490613954565b90915550506001600160a01b038216600090815260036020526040812080546001929061244e9084906138fd565b909155505060008181526002602052604080822080546001600160a01b0319166001600160a01b0386811691821790925591518493918716917fddf252ad1be2c89b69c2b068fc378daa952ba7f163c4a11628f55a4df523b3ef91a4610892838383610892565b6001600160a01b0382166124db5760405162461bcd60e51b81526004016107da90613336565b6124e4816120fc565b156125015760405162461bcd60e51b81526004016107da9061303e565b61250d60008383610892565b6001600160a01b03821660009081526003602052604081208054600192906125369084906138fd565b909155505060008181526002602052604080822080546001600160a01b0319166001600160a01b03861690811790915590518392907fddf252ad1be2c89b69c2b068fc378daa952ba7f163c4a11628f55a4df523b3ef908290a4610c4b60008383610892565b6000806125c06127106125ba600e548661268890919063ffffffff16565b9061267c565b6012549091506000906125d79061121f848261267c565b9050600c548110156125ef57600c549250505061071c565b915061071c9050565b6000612603826120fc565b61261f5760405162461bcd60e51b81526004016107da90613125565b600061262a83611333565b9050806001600160a01b0316846001600160a01b0316148061265157506126518185611edb565b806116415750836001600160a01b031661266a846107b3565b6001600160a01b031614949350505050565b600061137b8284613915565b600061137b8284613935565b600780546001600160a01b038381166001600160a01b0319831681179093556040519116919082907f8be0079c531659141344cd1fd0a4f28419497f9722a3daafe3b4186f6b6457e090600090a35050565b816001600160a01b0316836001600160a01b031614156127185760405162461bcd60e51b81526004016107da906130b9565b6001600160a01b0383811660008181526005602090815260408083209487168084529490915290819020805460ff1916851515179055517f17307eab39ab6107e8899845ad3d59bd9653f200f220920489ca2b5937696c319061277c908590612f48565b60405180910390a3505050565b60006107196127106125ba600d548561268890919063ffffffff16565b8280546127b290613997565b90600052602060002090601f0160209004810192826127d4576000855561281a565b82601f106127ed57805160ff191683800117855561281a565b8280016001018555821561281a579182015b8281111561281a5782518255916020019190600101906127ff565b50612826929150612881565b5090565b6040518061012001604052806000815260200160006001600160a01b031681526020016000815260200160008152602001606081526020016060815260200160001515815260200160008152602001600081525090565b5b808211156128265760008155600101612882565b60006128a96128a4846138d5565b6138a4565b90508281528383830111156128bd57600080fd5b828260208301376000602084830101529392505050565b805161071c81613a19565b805161071c81613a2e565b600082601f8301126128fa578081fd5b61137b83833560208501612896565b600082601f830112612919578081fd5b81516129276128a4826138d5565b81815284602083860101111561293b578283fd5b61164182602083016020870161396b565b60006020828403121561295d578081fd5b813561137b81613a19565b6000806000806080858703121561297d578283fd5b843561298881613a19565b9350602085013567ffffffffffffffff808211156129a4578485fd5b6129b0888389016128ea565b945060408701359150808211156129c5578384fd5b6129d1888389016128ea565b935060608701359150808211156129e6578283fd5b506129f3878288016128ea565b91505092959194509250565b60008060408385031215612a11578182fd5b8235612a1c81613a19565b91506020830135612a2c81613a19565b809150509250929050565b600080600060608486031215612a4b578283fd5b8335612a5681613a19565b92506020840135612a6681613a19565b929592945050506040919091013590565b60008060008060808587031215612a8c578384fd5b8435612a9781613a19565b93506020850135612aa781613a19565b925060408501359150606085013567ffffffffffffffff811115612ac9578182fd5b8501601f81018713612ad9578182fd5b6129f387823560208401612896565b60008060408385031215612afa578182fd5b8235612b0581613a19565b91506020830135612a2c81613a2e565b60008060408385031215612b27578182fd5b8235612b3281613a19565b946020939093013593505050565b60006020808385031215612b52578182fd5b825167ffffffffffffffff80821115612b69578384fd5b818501915085601f830112612b7c578384fd5b815181811115612b8e57612b8e613a03565b612b9b84858302016138a4565b81815284810190848601875b84811015612c82578151870161012080601f19838f03011215612bc8578a8bfd5b612bd1816138a4565b8a83015181526040612be48185016128d4565b8c83015260608085015182840152608085015181840152505060a083015189811115612c0e578c8dfd5b612c1c8f8d83870101612909565b60808301525060c083015189811115612c33578c8dfd5b612c418f8d83870101612909565b60a08301525060e0612c548185016128df565b60c0830152610100848101519183019190915291909201519082015284529287019290870190600101612ba7565b50909998505050505050505050565b600060208284031215612ca2578081fd5b81356001600160e01b03198116811461137b578182fd5b600060208284031215612cca578081fd5b813567ffffffffffffffff811115612ce0578182fd5b611641848285016128ea565b60008060408385031215612cfe578182fd5b823567ffffffffffffffff80821115612d15578384fd5b612d21868387016128ea565b93506020850135915080821115612d36578283fd5b50612d43858286016128ea565b9150509250929050565b600060208284031215612d5e578081fd5b5035919050565b60008060408385031215612d77578182fd5b823591506020830135612a2c81613a19565b60008060408385031215612d9b578182fd5b82359150602083013567ffffffffffffffff811115612db8578182fd5b612d43858286016128ea565b60008060408385031215612dd6578182fd5b50508035926020909101359150565b6001600160a01b03169052565b15159052565b60008151808452612e1081602086016020860161396b565b601f01601f19169290920160200192915050565b6000610120825184526020830151612e3f6020860182612de5565b5060408301516040850152606083015160608501526080830151816080860152612e6b82860182612df8565b91505060a083015184820360a0860152612e858282612df8565b91505060c0830151612e9a60c0860182612df2565b5060e083810151908501526101009283015192909301919091525090565b60008251612eca81846020870161396b565b9190910192915050565b6001600160a01b0391909116815260200190565b6000602080830181845280855180835260408601915060408482028701019250838701855b82811015612f3b57603f19888603018452612f29858351612e24565b94509285019290850190600101612f0d565b5092979650505050505050565b901515815260200190565b60006020825261137b6020830184612df8565b6020808252602d908201527f4120746f6b656e2068617320616c7265616479206265656e206d696e7465642060408201526c7769746820746869732055524960981b606082015260800190565b60208082526026908201527f4f776e61626c653a206e6577206f776e657220697320746865207a65726f206160408201526564647265737360d01b606082015260800190565b60208082526025908201527f4552433732313a207472616e736665722066726f6d20696e636f72726563742060408201526437bbb732b960d91b606082015260800190565b6020808252601c908201527f4552433732313a20746f6b656e20616c7265616479206d696e74656400000000604082015260600190565b60208082526024908201527f4552433732313a207472616e7366657220746f20746865207a65726f206164646040820152637265737360e01b606082015260800190565b60208082526019908201527f4552433732313a20617070726f766520746f2063616c6c657200000000000000604082015260600190565b6020808252818101527f546f6b656e20697320616c7265616479206d61726b656420666f722073616c65604082015260600190565b6020808252602c908201527f4552433732313a206f70657261746f7220717565727920666f72206e6f6e657860408201526b34b9ba32b73a103a37b5b2b760a11b606082015260800190565b6020808252602c908201527f53656e646572206d75737420626520746f6b656e206f776e6572206f7220636f60408201526b373a3930b1ba1037bbb732b960a11b606082015260800190565b60208082526018908201527f427579657220616c7265616479206f776e7320746f6b656e0000000000000000604082015260600190565b60208082526038908201527f4552433732313a20617070726f76652063616c6c6572206973206e6f74206f7760408201527f6e6572206e6f7220617070726f76656420666f7220616c6c0000000000000000606082015260800190565b6020808252602a908201527f4552433732313a2062616c616e636520717565727920666f7220746865207a65604082015269726f206164647265737360b01b606082015260800190565b60208082526029908201527f4552433732313a206f776e657220717565727920666f72206e6f6e657869737460408201526832b73a103a37b5b2b760b91b606082015260800190565b60208082526032908201527f4120746f6b656e2068617320616c7265616479206265656e206d696e746564206040820152713bb4ba34103a3434b99039b7b63aba34b7b760711b606082015260800190565b6020808252818101527f4552433732313a206d696e7420746f20746865207a65726f2061646472657373604082015260600190565b6020808252602c908201527f4552433732313a20617070726f76656420717565727920666f72206e6f6e657860408201526b34b9ba32b73a103a37b5b2b760a11b606082015260800190565b602080825260159082015274546f6b656e206973206e6f7420666f722073616c6560581b604082015260600190565b6020808252818101527f412076616c756520666f7220736f6c7574696f6e206973207265717569726564604082015260600190565b602080825260129082015271496e76616c696420746f206164647265737360701b604082015260600190565b6020808252818101527f4f776e61626c653a2063616c6c6572206973206e6f7420746865206f776e6572604082015260600190565b60208082526032908201527f412076616c69642070617373776f726420697320726571756972656420746f2060408201527131b0b636103a3434b990333ab731ba34b7b760711b606082015260800190565b60208082526021908201527f4552433732313a20617070726f76616c20746f2063757272656e74206f776e656040820152603960f91b606082015260800190565b60208082526039908201527f546f6b656e2063616e6e6f7420626520707269636564206c657373207468616e60408201527f207468652063757272656e742061736b696e6720707269636500000000000000606082015260800190565b602080825260169082015275151bdad95b925908191bd95cc81b9bdd08195e1a5cdd60521b604082015260600190565b6020808252602d908201527f496e73756666696369656e742065746865722073656e7420776974682074686960408201526c39903a3930b739b0b1ba34b7b760991b606082015260800190565b6020808252818101527f412076616c756520666f7220746f6b656e555249206973207265717569726564604082015260600190565b6020808252601b908201527f546f6b656e206f626a65637420646f6573206e6f742065786973740000000000604082015260600190565b6020808252602a908201527f546f6b656e20697320616c72656164792070726576656e7465642066726f6d2060408201526918995a5b99c81cdbdb1960b21b606082015260800190565b6020808252601f908201527f5265656e7472616e637947756172643a207265656e7472616e742063616c6c00604082015260600190565b6020808252603a908201527f546f6b656e2063616e6e6f7420626520707269636564206c657373207468616e60408201527f207468652063757272656e74206d696e696d756d207072696365000000000000606082015260800190565b60006020825261137b6020830184612e24565b90815260200190565b600086825260018060a01b038616602083015284604083015260a0606083015261377c60a0830185612df8565b828103608084015261378e8185612df8565b98975050505050505050565b8681526001600160a01b038681166020830152851660408201526060810184905260c0608082018190526000906137d390830185612df8565b82810360a08401526137e58185612df8565b9998505050505050505050565b8481526001600160a01b038416602082015260806040820181905260009061381c90830185612df8565b828103606084015261382e8185612df8565b979650505050505050565b60006101208b835260018060a01b038b16602084015289604084015288606084015280608084015261386d81840189612df8565b905082810360a08401526138818188612df8565b95151560c0840152505060e0810192909252610100909101529695505050505050565b604051601f8201601f1916810167ffffffffffffffff811182821017156138cd576138cd613a03565b604052919050565b600067ffffffffffffffff8211156138ef576138ef613a03565b50601f01601f191660200190565b60008219821115613910576139106139ed565b500190565b60008261393057634e487b7160e01b81526012600452602481fd5b500490565b600081600019048311821515161561394f5761394f6139ed565b500290565b600082821015613966576139666139ed565b500390565b60005b8381101561398657818101518382015260200161396e565b83811115611d3b5750506000910152565b6002810460018216806139ab57607f821691505b602082108114156139cc57634e487b7160e01b600052602260045260246000fd5b50919050565b60006000198214156139e6576139e66139ed565b5060010190565b634e487b7160e01b600052601160045260246000fd5b634e487b7160e01b600052604160045260246000fd5b6001600160a01b03811681146120e057600080fd5b80151581146120e057600080fdfea2646970667358221220715f557f87fec48157621736245d6e46add32cfec74438dfbb472b86978a82d264736f6c63430008010033",
  "immutableReferences": {},
  "source": "// SPDX-License-Identifier: MIT\r\npragma solidity >=0.4.22 <0.9.0;\r\nimport \"@openzeppelin/contracts/token/ERC721/ERC721.sol\"; // ERC721Enumerable\r\nimport \"@openzeppelin/contracts/access/Ownable.sol\";\r\nimport \"@openzeppelin/contracts/utils/math/SafeMath.sol\";\r\nimport \"@openzeppelin/contracts/security/ReentrancyGuard.sol\";\r\n\r\ncontract EthordleToken is ERC721, ReentrancyGuard, Ownable {\r\n    using Strings for uint256;\r\n    using SafeMath for uint256;\r\n\r\n    struct Token {\r\n        uint256 id;        \r\n        address owner;\r\n        uint256 price;\r\n        uint256 lastPrice;\r\n        string url;\r\n        string solution;\r\n        bool isForSale;\r\n        uint256 lastTransactionTimestamp;\r\n        uint256 transactionCount;        \r\n    }\r\n\r\n    mapping (uint256 => Token) public _tokens;\r\n    mapping (string => address) private _solutionOwners;\r\n    mapping (string => address) private _tokenURIOwners;\r\n\r\n    uint256 private _initialPrice;\r\n    uint256 private _minimumPrice;\r\n    uint256 private _royaltyRate;\r\n    uint256 private _priceEscalationRate;\r\n    uint256 private _currentTokenId;\r\n    string private _baseURIextended;\r\n    string private _password;\r\n    uint256 private _roundingDivisor = 10**15;\r\n    address private _beneficiary;\r\n\r\n    event Minted (\r\n        uint256 tokenId,\r\n        address owner,\r\n        uint256 price,\r\n        string solution,\r\n        string metadataURI\r\n    );\r\n\r\n    event SaleCreated (\r\n        uint256 tokenId,\r\n        address seller,\r\n        uint256 price,\r\n        string solution,\r\n        string metadataURI\r\n    );\r\n\r\n    event SaleCanceled (\r\n        uint256 tokenId,        \r\n        address seller,\r\n        string solution,\r\n        string metadataURI\r\n    );\r\n\r\n    event SaleSuccessful (\r\n        uint256 tokenId,        \r\n        address buyer,\r\n        address seller,\r\n        uint256 price,\r\n        string solution,\r\n        string metadataURI\r\n    );\r\n\r\n    event TransferSuccessful (\r\n        uint256 tokenId, \r\n        address transferee, \r\n        string solution, \r\n        string metadataURI\r\n    );\r\n\r\n    constructor(\r\n        string memory _name, \r\n        string memory _symbol, \r\n        uint256 initialPrice_, \r\n        uint256 minimumPrice_, \r\n        uint256 royaltyRate_, \r\n        uint256 priceEscalationRate_, \r\n        string memory password_,\r\n        address beneficiary_) \r\n    ERC721(_name, _symbol) {\r\n        _currentTokenId = 0;\r\n        _initialPrice = initialPrice_;\r\n        _minimumPrice = minimumPrice_;\r\n        _royaltyRate = royaltyRate_;\r\n        _priceEscalationRate = priceEscalationRate_;\r\n        _password = password_;\r\n        _beneficiary = beneficiary_;\r\n    }\r\n    \r\n    modifier requirePassword(string memory password_) {\r\n      require (_compareStrings(_password, password_), 'A valid password is required to call this function');\r\n      _;\r\n    }\r\n\r\n    function _compareStrings(string memory a, string memory b) public pure returns (bool) {\r\n        return (keccak256(abi.encodePacked((a))) == keccak256(abi.encodePacked((b))));\r\n    }\r\n\r\n    function _validateTokenId(uint256 tokenId) internal view returns (Token memory) {\r\n        require(_exists(tokenId), 'TokenId does not exist');\r\n        \r\n        Token memory token = _tokens[tokenId];    \r\n        \r\n        require(ownerOf(tokenId) != address(0x0), 'Token object does not exist');\r\n\r\n        return token;\r\n    }\r\n\r\n    function setInitialPrice(uint256 initialPrice_) external onlyOwner {\r\n        _initialPrice = initialPrice_;\r\n    }\r\n    \r\n    function initialPrice() external view returns (uint256) {\r\n        return _initialPrice;\r\n    }\r\n    \r\n    function setMinimumPrice(uint256 minimumPrice_) external onlyOwner {\r\n        _minimumPrice = minimumPrice_;\r\n    }\r\n\r\n    function minimumPrice() external view returns (uint256) {\r\n        return _minimumPrice;\r\n    }\r\n\r\n    function setRoyaltyRate(uint256 royaltyRate_) external onlyOwner {\r\n        _royaltyRate = royaltyRate_;   \r\n    }\r\n\r\n    function royaltyRate() external view returns (uint256) {\r\n        return _royaltyRate;\r\n    }\r\n\r\n    function setPriceEscalationRate(uint256 priceEscalationRate_) external onlyOwner {\r\n        _priceEscalationRate = priceEscalationRate_;\r\n    }\r\n\r\n    function priceEscalationRate() external view returns (uint256) {\r\n        return _priceEscalationRate;\r\n    }\r\n\r\n    function setPassword(string memory password_) external onlyOwner {\r\n        _password = password_;\r\n    }\r\n\r\n    function setBeneficiary(address beneficiary_) external onlyOwner {\r\n        _beneficiary = beneficiary_;   \r\n    }\r\n\r\n    function tokenCount() external view returns (uint256) {\r\n        return _currentTokenId;\r\n    }\r\n\r\n    function tokenById(uint256 tokenId) external view returns(Token memory) {        \r\n        Token memory token = _validateTokenId(tokenId);\r\n        return token;\r\n    }\r\n\r\n    function tokensOfOwner(address _from) external view returns(Token[] memory) {\r\n        uint256 ownerCount = balanceOf(_from);\r\n        uint256 ownerIndex = 0;\r\n        Token[] memory ownerTokens = new Token[](ownerCount);\r\n\r\n        if (ownerCount > 0) {\r\n            Token[] memory allTokens = this.tokens();\r\n            \r\n            for (uint256 i = 0; i < _currentTokenId; i++) {\r\n                if (ownerOf(allTokens[i].id) == _from) {\r\n                    ownerTokens[ownerIndex] = allTokens[i];\r\n                    ownerIndex++;\r\n                }\r\n            }\r\n        }\r\n\r\n        return ownerTokens;\r\n    }\r\n\r\n    function tokens() external view returns(Token[] memory) {  \r\n        Token[] memory allTokens = new Token[](_currentTokenId);\r\n\r\n        for (uint256 i = 0; i < _currentTokenId; i++) {\r\n            allTokens[i] = _tokens[i];\r\n        }\r\n\r\n        return allTokens;\r\n    }\r\n\r\n    function tokenSupply() external view returns (uint256) {\r\n        return _currentTokenId;\r\n    }\r\n    \r\n    function setBaseURI(string memory baseURI) external onlyOwner {\r\n        _baseURIextended = baseURI;\r\n    }\r\n    \r\n    function _baseURI() internal view virtual override returns (string memory) {\r\n        return _baseURIextended;\r\n    }\r\n    \r\n    function isSolutionUnique(string memory solution_) public view returns (bool) {\r\n        return _solutionOwners[solution_] == address(0x0);\r\n    }\r\n\r\n    function tokenURI(uint256 tokenId) public view virtual override returns (string memory) {\r\n        Token memory token = _validateTokenId(tokenId);\r\n\r\n        return token.url;\r\n    }\r\n\r\n    function mint(\r\n        address payable to,\r\n        string memory solution_,\r\n        string memory tokenURI_,\r\n        string memory password_\r\n    ) external payable nonReentrant requirePassword(password_) {  \r\n        require(msg.sender == to || msg.sender == owner(), 'Invalid to address');      \r\n        require(msg.value >= _initialPrice, 'Insufficient ether sent with this transaction'); \r\n        require(_solutionOwners[solution_] == address(0x0), 'A token has already been minted with this solution');\r\n        require(_tokenURIOwners[tokenURI_] == address(0x0), 'A token has already been minted with this URI');\r\n        require(bytes(solution_).length >= 5, 'A value for solution is required');\r\n        require(bytes(tokenURI_).length >= 28, 'A value for tokenURI is required'); // https://ipfs.infura.io/ipfs/\r\n        \r\n        if (msg.value > 0) {\r\n            payable(_beneficiary).transfer(msg.value);\r\n        }\r\n\r\n        _mint(to, _currentTokenId);\r\n\r\n        uint256 newPrice =_getEscalatedPrice(msg.value);\r\n\r\n        Token memory token = Token(_currentTokenId, to, newPrice, _initialPrice, tokenURI_, solution_, false, block.timestamp, 1);\r\n       \r\n        _tokens[_currentTokenId] = token;\r\n        _solutionOwners[solution_] = to;\r\n        _tokenURIOwners[tokenURI_] = to;\r\n        \r\n        emit Minted(_currentTokenId, to, newPrice, solution_, tokenURI_);     \r\n\r\n        _currentTokenId++;   \r\n    }\r\n\r\n    function createSale(uint256 tokenId, uint256 price) external {    \r\n        Token memory token = _validateTokenId(tokenId);\r\n        \r\n        require(msg.sender == owner() || _isApprovedOrOwner(msg.sender, tokenId), 'Sender must be token owner or contract owner'); \r\n        require(!token.isForSale, 'Token is already marked for sale');\r\n        require(price >= token.price, 'Token cannot be priced less than the current asking price');\r\n        require(price >= _minimumPrice, 'Token cannot be priced less than the current minimum price');\r\n        \r\n        token.price = price.div(_roundingDivisor).mul(_roundingDivisor); // round to nearest 1/1000 eth\r\n        token.isForSale = true;\r\n\r\n        _tokens[tokenId] = token; \r\n\r\n        emit SaleCreated(tokenId, msg.sender, price, token.solution, token.url);\r\n    }\r\n\r\n    function cancelSale(uint256 tokenId) external {   \r\n        Token memory token = _validateTokenId(tokenId);\r\n\r\n        require(msg.sender == owner() || _isApprovedOrOwner(msg.sender, tokenId), 'Sender must be token owner or contract owner'); \r\n        \r\n        require(token.isForSale, 'Token is already prevented from being sold'); \r\n        \r\n        token.isForSale = false;\r\n        \r\n        _tokens[tokenId] = token; \r\n\r\n        emit SaleCanceled(tokenId, msg.sender, token.solution, token.url);\r\n    }\r\n\r\n    function buy(uint256 tokenId, string memory password_) external payable nonReentrant requirePassword(password_) {      \r\n        Token memory token = _validateTokenId(tokenId);\r\n        \r\n        require(msg.value >= token.price, 'Insufficient ether sent with this transaction');\r\n        require(token.isForSale, 'Token is not for sale');\r\n        require(ownerOf(tokenId) != msg.sender, 'Buyer already owns token'); \r\n       \r\n        string memory solution_ = token.solution;\r\n        string memory tokenURI_ = token.url;\r\n\r\n        uint256 totalRoyalty = _getRoyalty(msg.value); \r\n        uint256 remainder = msg.value - totalRoyalty;\r\n\r\n        payable(_beneficiary).transfer(totalRoyalty);\r\n        payable(address(ownerOf(tokenId))).transfer(remainder);\r\n        \r\n        _transfer(ownerOf(tokenId), msg.sender, tokenId);\r\n\r\n        _solutionOwners[solution_] = msg.sender;\r\n        _tokenURIOwners[tokenURI_] = msg.sender;\r\n\r\n        uint256 newPrice = _getEscalatedPrice(msg.value);\r\n        address oldOwner = token.owner;\r\n\r\n        token.owner = msg.sender;\r\n        token.lastPrice = token.price;\r\n        token.price = newPrice;\r\n        token.isForSale = false;\r\n        token.lastTransactionTimestamp = block.timestamp;\r\n        token.transactionCount++;       \r\n\r\n        _tokens[tokenId] = token; \r\n\r\n        emit SaleSuccessful(tokenId, msg.sender, oldOwner, newPrice, token.solution, token.url);\r\n    }\r\n    \r\n    function transferAsContractOwner(uint256 tokenId, address to) external payable nonReentrant onlyOwner {        \r\n        Token memory token = _validateTokenId(tokenId);\r\n        \r\n        require(ownerOf(tokenId) != to, 'Buyer already owns token'); \r\n       \r\n        string memory solution_ = token.solution;\r\n        string memory tokenURI_ = token.url;\r\n  \r\n        _transfer(ownerOf(tokenId), to, tokenId);\r\n\r\n        _solutionOwners[solution_] = to;\r\n        _tokenURIOwners[tokenURI_] = to;\r\n\r\n        token.owner = to;\r\n        token.isForSale = false;\r\n        token.lastTransactionTimestamp = block.timestamp;\r\n        token.transactionCount++;       \r\n\r\n        _tokens[tokenId] = token; \r\n\r\n        emit TransferSuccessful(tokenId, to, token.solution, token.url);\r\n    }\r\n\r\n    function _getRoyalty(uint256 value) private view returns (uint256) {\r\n        return value.mul(_royaltyRate).div(10000);\r\n    }\r\n\r\n    function _getEscalatedPrice(uint256 value) private view returns (uint256) {\r\n        uint256 newPrice = value.mul(_priceEscalationRate).div(10000);\r\n        uint256 updatedPrice = newPrice.div(_roundingDivisor).mul(_roundingDivisor);  // round off new price to nearest 1/1000 eth\r\n\r\n        if (updatedPrice < _minimumPrice) {\r\n            return _minimumPrice;\r\n        }\r\n        else {\r\n            return updatedPrice;\r\n        }\r\n    }\r\n  \r\n     function transferFrom(\r\n        address /*from*/,\r\n        address /*to*/,\r\n        uint256 /*tokenId*/\r\n    ) public view override onlyOwner {\r\n    }\r\n\r\n    function safeTransferFrom(\r\n        address /*from*/,\r\n        address /*to*/,\r\n        uint256 /*tokenId*/\r\n    ) public view override onlyOwner {\r\n    }\r\n\r\n    function safeTransferFrom(\r\n        address /*from*/,\r\n        address /*to*/,\r\n        uint256 /*tokenId*/,\r\n        bytes memory /*_data*/\r\n    ) public view override onlyOwner {\r\n    }\r\n}",
  "sourcePath": "C:\\Dev\\Github\\ethordle\\contracts\\EthordleToken.sol",
  "compiler": {
    "name": "solc",
    "version": "0.8.1+commit.df193b15.Emscripten.clang"
  },
  "schemaVersion": "3.4.7",
  "updatedAt": "2022-05-20T14:09:33.075Z",
  "networkType": "ethereum",
  "devdoc": {
    "kind": "dev",
    "methods": {
      "approve(address,uint256)": {
        "details": "See {IERC721-approve}."
      },
      "balanceOf(address)": {
        "details": "See {IERC721-balanceOf}."
      },
      "getApproved(uint256)": {
        "details": "See {IERC721-getApproved}."
      },
      "isApprovedForAll(address,address)": {
        "details": "See {IERC721-isApprovedForAll}."
      },
      "name()": {
        "details": "See {IERC721Metadata-name}."
      },
      "owner()": {
        "details": "Returns the address of the current owner."
      },
      "ownerOf(uint256)": {
        "details": "See {IERC721-ownerOf}."
      },
      "renounceOwnership()": {
        "details": "Leaves the contract without owner. It will not be possible to call `onlyOwner` functions anymore. Can only be called by the current owner. NOTE: Renouncing ownership will leave the contract without an owner, thereby removing any functionality that is only available to the owner."
      },
      "setApprovalForAll(address,bool)": {
        "details": "See {IERC721-setApprovalForAll}."
      },
      "supportsInterface(bytes4)": {
        "details": "See {IERC165-supportsInterface}."
      },
      "symbol()": {
        "details": "See {IERC721Metadata-symbol}."
      },
      "tokenURI(uint256)": {
        "details": "See {IERC721Metadata-tokenURI}."
      },
      "transferOwnership(address)": {
        "details": "Transfers ownership of the contract to a new account (`newOwner`). Can only be called by the current owner."
      }
    },
    "version": 1
  },
  "userdoc": {
    "kind": "user",
    "methods": {},
    "version": 1
  }
}