{
  "contractName": "EthordleToken",
  "abi": [
    {
      "inputs": [
        {
          "internalType": "string",
          "name": "_name",
          "type": "string"
        },
        {
          "internalType": "string",
          "name": "_symbol",
          "type": "string"
        },
        {
          "internalType": "uint256",
          "name": "initialPrice_",
          "type": "uint256"
        },
        {
          "internalType": "uint256",
          "name": "royaltyRate_",
          "type": "uint256"
        },
        {
          "internalType": "uint256",
          "name": "priceEscalationRate_",
          "type": "uint256"
        }
      ],
      "stateMutability": "nonpayable",
      "type": "constructor"
    },
    {
      "anonymous": false,
      "inputs": [
        {
          "indexed": true,
          "internalType": "address",
          "name": "owner",
          "type": "address"
        },
        {
          "indexed": true,
          "internalType": "address",
          "name": "approved",
          "type": "address"
        },
        {
          "indexed": true,
          "internalType": "uint256",
          "name": "tokenId",
          "type": "uint256"
        }
      ],
      "name": "Approval",
      "type": "event"
    },
    {
      "anonymous": false,
      "inputs": [
        {
          "indexed": true,
          "internalType": "address",
          "name": "owner",
          "type": "address"
        },
        {
          "indexed": true,
          "internalType": "address",
          "name": "operator",
          "type": "address"
        },
        {
          "indexed": false,
          "internalType": "bool",
          "name": "approved",
          "type": "bool"
        }
      ],
      "name": "ApprovalForAll",
      "type": "event"
    },
    {
      "anonymous": false,
      "inputs": [
        {
          "indexed": true,
          "internalType": "address",
          "name": "previousOwner",
          "type": "address"
        },
        {
          "indexed": true,
          "internalType": "address",
          "name": "newOwner",
          "type": "address"
        }
      ],
      "name": "OwnershipTransferred",
      "type": "event"
    },
    {
      "anonymous": false,
      "inputs": [
        {
          "indexed": false,
          "internalType": "string",
          "name": "solution",
          "type": "string"
        },
        {
          "indexed": false,
          "internalType": "address payable",
          "name": "account",
          "type": "address"
        },
        {
          "indexed": false,
          "internalType": "uint256",
          "name": "tokenId",
          "type": "uint256"
        },
        {
          "indexed": false,
          "internalType": "string",
          "name": "metadataURI",
          "type": "string"
        }
      ],
      "name": "TokenMinted",
      "type": "event"
    },
    {
      "anonymous": false,
      "inputs": [
        {
          "indexed": false,
          "internalType": "string",
          "name": "solution",
          "type": "string"
        },
        {
          "indexed": false,
          "internalType": "address",
          "name": "account",
          "type": "address"
        },
        {
          "indexed": false,
          "internalType": "uint256",
          "name": "tokenId",
          "type": "uint256"
        },
        {
          "indexed": false,
          "internalType": "string",
          "name": "metadataURI",
          "type": "string"
        },
        {
          "indexed": false,
          "internalType": "uint256",
          "name": "price",
          "type": "uint256"
        }
      ],
      "name": "TokenSaleAllowed",
      "type": "event"
    },
    {
      "anonymous": false,
      "inputs": [
        {
          "indexed": false,
          "internalType": "string",
          "name": "solution",
          "type": "string"
        },
        {
          "indexed": false,
          "internalType": "address",
          "name": "account",
          "type": "address"
        },
        {
          "indexed": false,
          "internalType": "uint256",
          "name": "tokenId",
          "type": "uint256"
        },
        {
          "indexed": false,
          "internalType": "string",
          "name": "metadataURI",
          "type": "string"
        }
      ],
      "name": "TokenSalePrevented",
      "type": "event"
    },
    {
      "anonymous": false,
      "inputs": [
        {
          "indexed": true,
          "internalType": "address",
          "name": "from",
          "type": "address"
        },
        {
          "indexed": true,
          "internalType": "address",
          "name": "to",
          "type": "address"
        },
        {
          "indexed": true,
          "internalType": "uint256",
          "name": "tokenId",
          "type": "uint256"
        }
      ],
      "name": "Transfer",
      "type": "event"
    },
    {
      "inputs": [
        {
          "internalType": "uint256",
          "name": "",
          "type": "uint256"
        }
      ],
      "name": "_tokens",
      "outputs": [
        {
          "internalType": "uint256",
          "name": "id",
          "type": "uint256"
        },
        {
          "internalType": "address",
          "name": "owner",
          "type": "address"
        },
        {
          "internalType": "uint256",
          "name": "price",
          "type": "uint256"
        },
        {
          "internalType": "uint256",
          "name": "lastPrice",
          "type": "uint256"
        },
        {
          "internalType": "string",
          "name": "url",
          "type": "string"
        },
        {
          "internalType": "string",
          "name": "solution",
          "type": "string"
        },
        {
          "internalType": "bool",
          "name": "isForSale",
          "type": "bool"
        },
        {
          "internalType": "uint256",
          "name": "lastTransactionTimestamp",
          "type": "uint256"
        },
        {
          "internalType": "uint256",
          "name": "transactionCount",
          "type": "uint256"
        }
      ],
      "stateMutability": "view",
      "type": "function",
      "constant": true
    },
    {
      "inputs": [
        {
          "internalType": "address",
          "name": "to",
          "type": "address"
        },
        {
          "internalType": "uint256",
          "name": "tokenId",
          "type": "uint256"
        }
      ],
      "name": "approve",
      "outputs": [],
      "stateMutability": "nonpayable",
      "type": "function"
    },
    {
      "inputs": [
        {
          "internalType": "address",
          "name": "owner",
          "type": "address"
        }
      ],
      "name": "balanceOf",
      "outputs": [
        {
          "internalType": "uint256",
          "name": "",
          "type": "uint256"
        }
      ],
      "stateMutability": "view",
      "type": "function",
      "constant": true
    },
    {
      "inputs": [
        {
          "internalType": "uint256",
          "name": "tokenId",
          "type": "uint256"
        }
      ],
      "name": "getApproved",
      "outputs": [
        {
          "internalType": "address",
          "name": "",
          "type": "address"
        }
      ],
      "stateMutability": "view",
      "type": "function",
      "constant": true
    },
    {
      "inputs": [
        {
          "internalType": "address",
          "name": "owner",
          "type": "address"
        },
        {
          "internalType": "address",
          "name": "operator",
          "type": "address"
        }
      ],
      "name": "isApprovedForAll",
      "outputs": [
        {
          "internalType": "bool",
          "name": "",
          "type": "bool"
        }
      ],
      "stateMutability": "view",
      "type": "function",
      "constant": true
    },
    {
      "inputs": [],
      "name": "name",
      "outputs": [
        {
          "internalType": "string",
          "name": "",
          "type": "string"
        }
      ],
      "stateMutability": "view",
      "type": "function",
      "constant": true
    },
    {
      "inputs": [],
      "name": "owner",
      "outputs": [
        {
          "internalType": "address",
          "name": "",
          "type": "address"
        }
      ],
      "stateMutability": "view",
      "type": "function",
      "constant": true
    },
    {
      "inputs": [
        {
          "internalType": "uint256",
          "name": "tokenId",
          "type": "uint256"
        }
      ],
      "name": "ownerOf",
      "outputs": [
        {
          "internalType": "address",
          "name": "",
          "type": "address"
        }
      ],
      "stateMutability": "view",
      "type": "function",
      "constant": true
    },
    {
      "inputs": [],
      "name": "renounceOwnership",
      "outputs": [],
      "stateMutability": "nonpayable",
      "type": "function"
    },
    {
      "inputs": [
        {
          "internalType": "address",
          "name": "operator",
          "type": "address"
        },
        {
          "internalType": "bool",
          "name": "approved",
          "type": "bool"
        }
      ],
      "name": "setApprovalForAll",
      "outputs": [],
      "stateMutability": "nonpayable",
      "type": "function"
    },
    {
      "inputs": [
        {
          "internalType": "bytes4",
          "name": "interfaceId",
          "type": "bytes4"
        }
      ],
      "name": "supportsInterface",
      "outputs": [
        {
          "internalType": "bool",
          "name": "",
          "type": "bool"
        }
      ],
      "stateMutability": "view",
      "type": "function",
      "constant": true
    },
    {
      "inputs": [],
      "name": "symbol",
      "outputs": [
        {
          "internalType": "string",
          "name": "",
          "type": "string"
        }
      ],
      "stateMutability": "view",
      "type": "function",
      "constant": true
    },
    {
      "inputs": [
        {
          "internalType": "address",
          "name": "newOwner",
          "type": "address"
        }
      ],
      "name": "transferOwnership",
      "outputs": [],
      "stateMutability": "nonpayable",
      "type": "function"
    },
    {
      "inputs": [
        {
          "internalType": "uint256",
          "name": "initialPrice_",
          "type": "uint256"
        }
      ],
      "name": "setInitialPrice",
      "outputs": [],
      "stateMutability": "nonpayable",
      "type": "function"
    },
    {
      "inputs": [],
      "name": "initialPrice",
      "outputs": [
        {
          "internalType": "uint256",
          "name": "",
          "type": "uint256"
        }
      ],
      "stateMutability": "view",
      "type": "function",
      "constant": true
    },
    {
      "inputs": [
        {
          "internalType": "uint256",
          "name": "royaltyRate_",
          "type": "uint256"
        }
      ],
      "name": "setRoyaltyRate",
      "outputs": [],
      "stateMutability": "nonpayable",
      "type": "function"
    },
    {
      "inputs": [],
      "name": "royaltyRate",
      "outputs": [
        {
          "internalType": "uint256",
          "name": "",
          "type": "uint256"
        }
      ],
      "stateMutability": "view",
      "type": "function",
      "constant": true
    },
    {
      "inputs": [
        {
          "internalType": "uint256",
          "name": "priceEscalationRate_",
          "type": "uint256"
        }
      ],
      "name": "setPriceEscalationRate",
      "outputs": [],
      "stateMutability": "nonpayable",
      "type": "function"
    },
    {
      "inputs": [],
      "name": "priceEscalationRate",
      "outputs": [
        {
          "internalType": "uint256",
          "name": "",
          "type": "uint256"
        }
      ],
      "stateMutability": "view",
      "type": "function",
      "constant": true
    },
    {
      "inputs": [],
      "name": "tokenCount",
      "outputs": [
        {
          "internalType": "uint256",
          "name": "",
          "type": "uint256"
        }
      ],
      "stateMutability": "view",
      "type": "function",
      "constant": true
    },
    {
      "inputs": [
        {
          "internalType": "uint256",
          "name": "tokenId",
          "type": "uint256"
        }
      ],
      "name": "tokenById",
      "outputs": [
        {
          "components": [
            {
              "internalType": "uint256",
              "name": "id",
              "type": "uint256"
            },
            {
              "internalType": "address",
              "name": "owner",
              "type": "address"
            },
            {
              "internalType": "uint256",
              "name": "price",
              "type": "uint256"
            },
            {
              "internalType": "uint256",
              "name": "lastPrice",
              "type": "uint256"
            },
            {
              "internalType": "string",
              "name": "url",
              "type": "string"
            },
            {
              "internalType": "string",
              "name": "solution",
              "type": "string"
            },
            {
              "internalType": "bool",
              "name": "isForSale",
              "type": "bool"
            },
            {
              "internalType": "uint256",
              "name": "lastTransactionTimestamp",
              "type": "uint256"
            },
            {
              "internalType": "uint256",
              "name": "transactionCount",
              "type": "uint256"
            }
          ],
          "internalType": "struct EthordleToken.Token",
          "name": "",
          "type": "tuple"
        }
      ],
      "stateMutability": "view",
      "type": "function",
      "constant": true
    },
    {
      "inputs": [
        {
          "internalType": "address",
          "name": "_from",
          "type": "address"
        }
      ],
      "name": "tokensOfOwner",
      "outputs": [
        {
          "components": [
            {
              "internalType": "uint256",
              "name": "id",
              "type": "uint256"
            },
            {
              "internalType": "address",
              "name": "owner",
              "type": "address"
            },
            {
              "internalType": "uint256",
              "name": "price",
              "type": "uint256"
            },
            {
              "internalType": "uint256",
              "name": "lastPrice",
              "type": "uint256"
            },
            {
              "internalType": "string",
              "name": "url",
              "type": "string"
            },
            {
              "internalType": "string",
              "name": "solution",
              "type": "string"
            },
            {
              "internalType": "bool",
              "name": "isForSale",
              "type": "bool"
            },
            {
              "internalType": "uint256",
              "name": "lastTransactionTimestamp",
              "type": "uint256"
            },
            {
              "internalType": "uint256",
              "name": "transactionCount",
              "type": "uint256"
            }
          ],
          "internalType": "struct EthordleToken.Token[]",
          "name": "",
          "type": "tuple[]"
        }
      ],
      "stateMutability": "view",
      "type": "function",
      "constant": true
    },
    {
      "inputs": [],
      "name": "tokens",
      "outputs": [
        {
          "components": [
            {
              "internalType": "uint256",
              "name": "id",
              "type": "uint256"
            },
            {
              "internalType": "address",
              "name": "owner",
              "type": "address"
            },
            {
              "internalType": "uint256",
              "name": "price",
              "type": "uint256"
            },
            {
              "internalType": "uint256",
              "name": "lastPrice",
              "type": "uint256"
            },
            {
              "internalType": "string",
              "name": "url",
              "type": "string"
            },
            {
              "internalType": "string",
              "name": "solution",
              "type": "string"
            },
            {
              "internalType": "bool",
              "name": "isForSale",
              "type": "bool"
            },
            {
              "internalType": "uint256",
              "name": "lastTransactionTimestamp",
              "type": "uint256"
            },
            {
              "internalType": "uint256",
              "name": "transactionCount",
              "type": "uint256"
            }
          ],
          "internalType": "struct EthordleToken.Token[]",
          "name": "",
          "type": "tuple[]"
        }
      ],
      "stateMutability": "view",
      "type": "function",
      "constant": true
    },
    {
      "inputs": [
        {
          "internalType": "string",
          "name": "baseURI",
          "type": "string"
        }
      ],
      "name": "setBaseURI",
      "outputs": [],
      "stateMutability": "nonpayable",
      "type": "function"
    },
    {
      "inputs": [
        {
          "internalType": "string",
          "name": "solution_",
          "type": "string"
        }
      ],
      "name": "isSolutionUnique",
      "outputs": [
        {
          "internalType": "bool",
          "name": "",
          "type": "bool"
        }
      ],
      "stateMutability": "view",
      "type": "function",
      "constant": true
    },
    {
      "inputs": [
        {
          "internalType": "uint256",
          "name": "tokenId",
          "type": "uint256"
        }
      ],
      "name": "tokenURI",
      "outputs": [
        {
          "internalType": "string",
          "name": "",
          "type": "string"
        }
      ],
      "stateMutability": "view",
      "type": "function",
      "constant": true
    },
    {
      "inputs": [
        {
          "internalType": "address payable",
          "name": "to",
          "type": "address"
        },
        {
          "internalType": "string",
          "name": "solution_",
          "type": "string"
        },
        {
          "internalType": "string",
          "name": "tokenURI_",
          "type": "string"
        }
      ],
      "name": "mint",
      "outputs": [],
      "stateMutability": "payable",
      "type": "function",
      "payable": true
    },
    {
      "inputs": [
        {
          "internalType": "address",
          "name": "from",
          "type": "address"
        },
        {
          "internalType": "uint256",
          "name": "tokenId",
          "type": "uint256"
        },
        {
          "internalType": "uint256",
          "name": "price",
          "type": "uint256"
        }
      ],
      "name": "allowSale",
      "outputs": [],
      "stateMutability": "nonpayable",
      "type": "function"
    },
    {
      "inputs": [
        {
          "internalType": "address",
          "name": "from",
          "type": "address"
        },
        {
          "internalType": "uint256",
          "name": "tokenId",
          "type": "uint256"
        }
      ],
      "name": "preventSale",
      "outputs": [],
      "stateMutability": "nonpayable",
      "type": "function"
    },
    {
      "inputs": [
        {
          "internalType": "address",
          "name": "to",
          "type": "address"
        },
        {
          "internalType": "uint256",
          "name": "tokenId",
          "type": "uint256"
        }
      ],
      "name": "buy",
      "outputs": [],
      "stateMutability": "payable",
      "type": "function",
      "payable": true
    },
    {
      "inputs": [
        {
          "internalType": "address",
          "name": "",
          "type": "address"
        },
        {
          "internalType": "address",
          "name": "",
          "type": "address"
        },
        {
          "internalType": "uint256",
          "name": "",
          "type": "uint256"
        }
      ],
      "name": "transferFrom",
      "outputs": [],
      "stateMutability": "view",
      "type": "function",
      "constant": true
    },
    {
      "inputs": [
        {
          "internalType": "address",
          "name": "",
          "type": "address"
        },
        {
          "internalType": "address",
          "name": "",
          "type": "address"
        },
        {
          "internalType": "uint256",
          "name": "",
          "type": "uint256"
        }
      ],
      "name": "safeTransferFrom",
      "outputs": [],
      "stateMutability": "view",
      "type": "function",
      "constant": true
    },
    {
      "inputs": [
        {
          "internalType": "address",
          "name": "",
          "type": "address"
        },
        {
          "internalType": "address",
          "name": "",
          "type": "address"
        },
        {
          "internalType": "uint256",
          "name": "",
          "type": "uint256"
        },
        {
          "internalType": "bytes",
          "name": "",
          "type": "bytes"
        }
      ],
      "name": "safeTransferFrom",
      "outputs": [],
      "stateMutability": "view",
      "type": "function",
      "constant": true
    }
  ],
  "bytecode": "0x608060405266038d7ea4c680006010553480156200001c57600080fd5b506040516200650c3803806200650c833981810160405281019062000042919062000308565b848481600090805190602001906200005c929190620001cf565b50806001908051906020019062000075929190620001cf565b505050620000986200008c6200010160201b60201c565b6200010960201b60201c565b33600a60006101000a81548173ffffffffffffffffffffffffffffffffffffffff021916908373ffffffffffffffffffffffffffffffffffffffff1602179055506000600e8190555082600b8190555081600c8190555080600d81905550505050505062000550565b600033905090565b6000600660009054906101000a900473ffffffffffffffffffffffffffffffffffffffff16905081600660006101000a81548173ffffffffffffffffffffffffffffffffffffffff021916908373ffffffffffffffffffffffffffffffffffffffff1602179055508173ffffffffffffffffffffffffffffffffffffffff168173ffffffffffffffffffffffffffffffffffffffff167f8be0079c531659141344cd1fd0a4f28419497f9722a3daafe3b4186f6b6457e060405160405180910390a35050565b828054620001dd906200045b565b90600052602060002090601f0160209004810192826200020157600085556200024d565b82601f106200021c57805160ff19168380011785556200024d565b828001600101855582156200024d579182015b828111156200024c5782518255916020019190600101906200022f565b5b5090506200025c919062000260565b5090565b5b808211156200027b57600081600090555060010162000261565b5090565b6000620002966200029084620003e5565b620003bc565b905082815260208101848484011115620002af57600080fd5b620002bc84828562000425565b509392505050565b600082601f830112620002d657600080fd5b8151620002e88482602086016200027f565b91505092915050565b600081519050620003028162000536565b92915050565b600080600080600060a086880312156200032157600080fd5b600086015167ffffffffffffffff8111156200033c57600080fd5b6200034a88828901620002c4565b955050602086015167ffffffffffffffff8111156200036857600080fd5b6200037688828901620002c4565b94505060406200038988828901620002f1565b93505060606200039c88828901620002f1565b9250506080620003af88828901620002f1565b9150509295509295909350565b6000620003c8620003db565b9050620003d6828262000491565b919050565b6000604051905090565b600067ffffffffffffffff821115620004035762000402620004f6565b5b6200040e8262000525565b9050602081019050919050565b6000819050919050565b60005b838110156200044557808201518184015260208101905062000428565b8381111562000455576000848401525b50505050565b600060028204905060018216806200047457607f821691505b602082108114156200048b576200048a620004c7565b5b50919050565b6200049c8262000525565b810181811067ffffffffffffffff82111715620004be57620004bd620004f6565b5b80604052505050565b7f4e487b7100000000000000000000000000000000000000000000000000000000600052602260045260246000fd5b7f4e487b7100000000000000000000000000000000000000000000000000000000600052604160045260246000fd5b6000601f19601f8301169050919050565b62000541816200041b565b81146200054d57600080fd5b50565b615fac80620005606000396000f3fe6080604052600436106101ee5760003560e01c80638da5cb5b1161010d578063a22cb465116100a0578063c87b56dd1161006f578063c87b56dd146106ec578063cce7ec1314610729578063e985e9c514610745578063ed70554d14610782578063f2fde38b146107c7576101ee565b8063a22cb46514610632578063a5a025841461065b578063b88d4fde14610698578063c4d1510d146106c1576101ee565b80639d9504f9116100dc5780639d9504f91461058c5780639f181b5e146105b55780639f4ba0ee146105e0578063a129ece914610609576101ee565b80638da5cb5b146104ef57806395d89b411461051a57806399071190146105455780639d63848a14610561576101ee565b806355f804b31161018557806370a082311161015457806370a0823114610433578063715018a614610470578063755381f7146104875780638462151c146104b2576101ee565b806355f804b314610367578063585944e0146103905780636352211e146103b95780636b6af2d5146103f6576101ee565b80631d0806ae116101c15780631d0806ae146102c157806323b872dd146102ec57806342842e0e14610315578063537782a21461033e576101ee565b806301ffc9a7146101f357806306fdde0314610230578063081812fc1461025b578063095ea7b314610298575b600080fd5b3480156101ff57600080fd5b5061021a60048036038101906102159190614629565b6107f0565b6040516102279190614e11565b60405180910390f35b34801561023c57600080fd5b506102456108d2565b6040516102529190614e2c565b60405180910390f35b34801561026757600080fd5b50610282600480360381019061027d9190614693565b610964565b60405161028f9190614dd4565b60405180910390f35b3480156102a457600080fd5b506102bf60048036038101906102ba919061455d565b6109e9565b005b3480156102cd57600080fd5b506102d6610b01565b6040516102e391906152f7565b60405180910390f35b3480156102f857600080fd5b50610313600480360381019061030e9190614457565b610b0b565b005b34801561032157600080fd5b5061033c60048036038101906103379190614457565b610ba7565b005b34801561034a57600080fd5b5061036560048036038101906103609190614693565b610c43565b005b34801561037357600080fd5b5061038e60048036038101906103899190614652565b610cc9565b005b34801561039c57600080fd5b506103b760048036038101906103b29190614599565b610d5f565b005b3480156103c557600080fd5b506103e060048036038101906103db9190614693565b61130c565b6040516103ed9190614dd4565b60405180910390f35b34801561040257600080fd5b5061041d60048036038101906104189190614693565b6113be565b60405161042a91906152d5565b60405180910390f35b34801561043f57600080fd5b5061045a60048036038101906104559190614373565b611649565b60405161046791906152f7565b60405180910390f35b34801561047c57600080fd5b50610485611701565b005b34801561049357600080fd5b5061049c611789565b6040516104a991906152f7565b60405180910390f35b3480156104be57600080fd5b506104d960048036038101906104d49190614373565b611793565b6040516104e69190614def565b60405180910390f35b3480156104fb57600080fd5b506105046119eb565b6040516105119190614dd4565b60405180910390f35b34801561052657600080fd5b5061052f611a15565b60405161053c9190614e2c565b60405180910390f35b61055f600480360381019061055a919061439c565b611aa7565b005b34801561056d57600080fd5b50610576612064565b6040516105839190614def565b60405180910390f35b34801561059857600080fd5b506105b360048036038101906105ae919061455d565b612338565b005b3480156105c157600080fd5b506105ca612868565b6040516105d791906152f7565b60405180910390f35b3480156105ec57600080fd5b5061060760048036038101906106029190614693565b612872565b005b34801561061557600080fd5b50610630600480360381019061062b9190614693565b6128f8565b005b34801561063e57600080fd5b5061065960048036038101906106549190614521565b61297e565b005b34801561066757600080fd5b50610682600480360381019061067d9190614652565b612994565b60405161068f9190614e11565b60405180910390f35b3480156106a457600080fd5b506106bf60048036038101906106ba91906144a6565b612a0a565b005b3480156106cd57600080fd5b506106d6612aa7565b6040516106e391906152f7565b60405180910390f35b3480156106f857600080fd5b50610713600480360381019061070e9190614693565b612ab1565b6040516107209190614e2c565b60405180910390f35b610743600480360381019061073e919061455d565b612ba1565b005b34801561075157600080fd5b5061076c6004803603810190610767919061441b565b613232565b6040516107799190614e11565b60405180910390f35b34801561078e57600080fd5b506107a960048036038101906107a49190614693565b6132c6565b6040516107be99989796959493929190615312565b60405180910390f35b3480156107d357600080fd5b506107ee60048036038101906107e99190614373565b613451565b005b60007f80ac58cd000000000000000000000000000000000000000000000000000000007bffffffffffffffffffffffffffffffffffffffffffffffffffffffff1916827bffffffffffffffffffffffffffffffffffffffffffffffffffffffff191614806108bb57507f5b5e139f000000000000000000000000000000000000000000000000000000007bffffffffffffffffffffffffffffffffffffffffffffffffffffffff1916827bffffffffffffffffffffffffffffffffffffffffffffffffffffffff1916145b806108cb57506108ca82613549565b5b9050919050565b6060600080546108e1906156ae565b80601f016020809104026020016040519081016040528092919081815260200182805461090d906156ae565b801561095a5780601f1061092f5761010080835404028352916020019161095a565b820191906000526020600020905b81548152906001019060200180831161093d57829003601f168201915b5050505050905090565b600061096f826135b3565b6109ae576040517f08c379a00000000000000000000000000000000000000000000000000000000081526004016109a590615175565b60405180910390fd5b6004600083815260200190815260200160002060009054906101000a900473ffffffffffffffffffffffffffffffffffffffff169050919050565b60006109f48261130c565b90508073ffffffffffffffffffffffffffffffffffffffff168373ffffffffffffffffffffffffffffffffffffffff161415610a65576040517f08c379a0000000000000000000000000000000000000000000000000000000008152600401610a5c90615215565b60405180910390fd5b8073ffffffffffffffffffffffffffffffffffffffff16610a8461361f565b73ffffffffffffffffffffffffffffffffffffffff161480610ab35750610ab281610aad61361f565b613232565b5b610af2576040517f08c379a0000000000000000000000000000000000000000000000000000000008152600401610ae9906150d5565b60405180910390fd5b610afc8383613627565b505050565b6000600b54905090565b600a60009054906101000a900473ffffffffffffffffffffffffffffffffffffffff1673ffffffffffffffffffffffffffffffffffffffff16610b4c61361f565b73ffffffffffffffffffffffffffffffffffffffff1614610ba2576040517f08c379a0000000000000000000000000000000000000000000000000000000008152600401610b9990615015565b60405180910390fd5b505050565b600a60009054906101000a900473ffffffffffffffffffffffffffffffffffffffff1673ffffffffffffffffffffffffffffffffffffffff16610be861361f565b73ffffffffffffffffffffffffffffffffffffffff1614610c3e576040517f08c379a0000000000000000000000000000000000000000000000000000000008152600401610c3590615015565b60405180910390fd5b505050565b610c4b61361f565b73ffffffffffffffffffffffffffffffffffffffff16610c696119eb565b73ffffffffffffffffffffffffffffffffffffffff1614610cbf576040517f08c379a0000000000000000000000000000000000000000000000000000000008152600401610cb6906151f5565b60405180910390fd5b80600c8190555050565b610cd161361f565b73ffffffffffffffffffffffffffffffffffffffff16610cef6119eb565b73ffffffffffffffffffffffffffffffffffffffff1614610d45576040517f08c379a0000000000000000000000000000000000000000000000000000000008152600401610d3c906151f5565b60405180910390fd5b80600f9080519060200190610d5b929190613ef9565b5050565b610d68826135b3565b610da7576040517f08c379a0000000000000000000000000000000000000000000000000000000008152600401610d9e90615255565b60405180910390fd5b8273ffffffffffffffffffffffffffffffffffffffff16610dc661361f565b73ffffffffffffffffffffffffffffffffffffffff161480610e3c5750600a60009054906101000a900473ffffffffffffffffffffffffffffffffffffffff1673ffffffffffffffffffffffffffffffffffffffff16610e2461361f565b73ffffffffffffffffffffffffffffffffffffffff16145b610e7b576040517f08c379a0000000000000000000000000000000000000000000000000000000008152600401610e7290615095565b60405180910390fd5b610e8c610e8661361f565b836136e0565b610ecb576040517f08c379a0000000000000000000000000000000000000000000000000000000008152600401610ec290615095565b60405180910390fd5b60006007600084815260200190815260200160002060405180610120016040529081600082015481526020016001820160009054906101000a900473ffffffffffffffffffffffffffffffffffffffff1673ffffffffffffffffffffffffffffffffffffffff1673ffffffffffffffffffffffffffffffffffffffff1681526020016002820154815260200160038201548152602001600482018054610f70906156ae565b80601f0160208091040260200160405190810160405280929190818152602001828054610f9c906156ae565b8015610fe95780601f10610fbe57610100808354040283529160200191610fe9565b820191906000526020600020905b815481529060010190602001808311610fcc57829003601f168201915b50505050508152602001600582018054611002906156ae565b80601f016020809104026020016040519081016040528092919081815260200182805461102e906156ae565b801561107b5780601f106110505761010080835404028352916020019161107b565b820191906000526020600020905b81548152906001019060200180831161105e57829003601f168201915b505050505081526020016006820160009054906101000a900460ff161515151581526020016007820154815260200160088201548152505090506110c281600001516135b3565b611101576040517f08c379a00000000000000000000000000000000000000000000000000000000081526004016110f890615055565b60405180910390fd5b8060c0015115611146576040517f08c379a000000000000000000000000000000000000000000000000000000000815260040161113d90615035565b60405180910390fd5b806040015182101561118d576040517f08c379a000000000000000000000000000000000000000000000000000000000815260040161118490615235565b60405180910390fd5b6111b66010546111a8601054856137be90919063ffffffff16565b6137d490919063ffffffff16565b81604001818152505060018160c001901515908115158152505080600760008581526020019081526020016000206000820151816000015560208201518160010160006101000a81548173ffffffffffffffffffffffffffffffffffffffff021916908373ffffffffffffffffffffffffffffffffffffffff16021790555060408201518160020155606082015181600301556080820151816004019080519060200190611265929190613ef9565b5060a0820151816005019080519060200190611282929190613ef9565b5060c08201518160060160006101000a81548160ff02191690831515021790555060e0820151816007015561010082015181600801559050507f5d2c7bf90f1fb93dc5c1a182708e82e00fe9ea38d825a4c875373e4829a804438160a001518260200151858460800151866040516112fe959493929190614ef4565b60405180910390a150505050565b6000806002600084815260200190815260200160002060009054906101000a900473ffffffffffffffffffffffffffffffffffffffff169050600073ffffffffffffffffffffffffffffffffffffffff168173ffffffffffffffffffffffffffffffffffffffff1614156113b5576040517f08c379a00000000000000000000000000000000000000000000000000000000081526004016113ac90615115565b60405180910390fd5b80915050919050565b6113c6613f7f565b6113cf826135b3565b61140e576040517f08c379a000000000000000000000000000000000000000000000000000000000815260040161140590615255565b60405180910390fd5b60006007600084815260200190815260200160002060405180610120016040529081600082015481526020016001820160009054906101000a900473ffffffffffffffffffffffffffffffffffffffff1673ffffffffffffffffffffffffffffffffffffffff1673ffffffffffffffffffffffffffffffffffffffff16815260200160028201548152602001600382015481526020016004820180546114b3906156ae565b80601f01602080910402602001604051908101604052809291908181526020018280546114df906156ae565b801561152c5780601f106115015761010080835404028352916020019161152c565b820191906000526020600020905b81548152906001019060200180831161150f57829003601f168201915b50505050508152602001600582018054611545906156ae565b80601f0160208091040260200160405190810160405280929190818152602001828054611571906156ae565b80156115be5780601f10611593576101008083540402835291602001916115be565b820191906000526020600020905b8154815290600101906020018083116115a157829003601f168201915b505050505081526020016006820160009054906101000a900460ff16151515158152602001600782015481526020016008820154815250509050611601836135b3565b611640576040517f08c379a000000000000000000000000000000000000000000000000000000000815260040161163790615055565b60405180910390fd5b80915050919050565b60008073ffffffffffffffffffffffffffffffffffffffff168273ffffffffffffffffffffffffffffffffffffffff1614156116ba576040517f08c379a00000000000000000000000000000000000000000000000000000000081526004016116b1906150f5565b60405180910390fd5b600360008373ffffffffffffffffffffffffffffffffffffffff1673ffffffffffffffffffffffffffffffffffffffff168152602001908152602001600020549050919050565b61170961361f565b73ffffffffffffffffffffffffffffffffffffffff166117276119eb565b73ffffffffffffffffffffffffffffffffffffffff161461177d576040517f08c379a0000000000000000000000000000000000000000000000000000000008152600401611774906151f5565b60405180910390fd5b61178760006137ea565b565b6000600d54905090565b606060006117a083611649565b90506000808267ffffffffffffffff8111156117e5577f4e487b7100000000000000000000000000000000000000000000000000000000600052604160045260246000fd5b60405190808252806020026020018201604052801561181e57816020015b61180b613f7f565b8152602001906001900390816118035790505b50905060008311156119e05760003073ffffffffffffffffffffffffffffffffffffffff16639d63848a6040518163ffffffff1660e01b815260040160006040518083038186803b15801561187257600080fd5b505afa158015611886573d6000803e3d6000fd5b505050506040513d6000823e3d601f19601f820116820180604052508101906118af91906145e8565b905060005b600e548110156119dd578673ffffffffffffffffffffffffffffffffffffffff1682828151811061190e577f4e487b7100000000000000000000000000000000000000000000000000000000600052603260045260246000fd5b60200260200101516020015173ffffffffffffffffffffffffffffffffffffffff1614156119ca5781818151811061196f577f4e487b7100000000000000000000000000000000000000000000000000000000600052603260045260246000fd5b60200260200101518385815181106119b0577f4e487b7100000000000000000000000000000000000000000000000000000000600052603260045260246000fd5b602002602001018190525083806119c690615711565b9450505b80806119d590615711565b9150506118b4565b50505b809350505050919050565b6000600660009054906101000a900473ffffffffffffffffffffffffffffffffffffffff16905090565b606060018054611a24906156ae565b80601f0160208091040260200160405190810160405280929190818152602001828054611a50906156ae565b8015611a9d5780601f10611a7257610100808354040283529160200191611a9d565b820191906000526020600020905b815481529060010190602001808311611a8057829003601f168201915b5050505050905090565b8273ffffffffffffffffffffffffffffffffffffffff163373ffffffffffffffffffffffffffffffffffffffff161480611b2e5750600a60009054906101000a900473ffffffffffffffffffffffffffffffffffffffff1673ffffffffffffffffffffffffffffffffffffffff163373ffffffffffffffffffffffffffffffffffffffff16145b611b6d576040517f08c379a0000000000000000000000000000000000000000000000000000000008152600401611b64906151d5565b60405180910390fd5b600b54341015611bb2576040517f08c379a0000000000000000000000000000000000000000000000000000000008152600401611ba990615275565b60405180910390fd5b600073ffffffffffffffffffffffffffffffffffffffff16600883604051611bda9190614dbd565b908152602001604051809103902060009054906101000a900473ffffffffffffffffffffffffffffffffffffffff1673ffffffffffffffffffffffffffffffffffffffff1614611c5f576040517f08c379a0000000000000000000000000000000000000000000000000000000008152600401611c5690615135565b60405180910390fd5b600073ffffffffffffffffffffffffffffffffffffffff16600982604051611c879190614dbd565b908152602001604051809103902060009054906101000a900473ffffffffffffffffffffffffffffffffffffffff1673ffffffffffffffffffffffffffffffffffffffff1614611d0c576040517f08c379a0000000000000000000000000000000000000000000000000000000008152600401611d0390614f55565b60405180910390fd5b600582511015611d51576040517f08c379a0000000000000000000000000000000000000000000000000000000008152600401611d48906151b5565b60405180910390fd5b601c81511015611d96576040517f08c379a0000000000000000000000000000000000000000000000000000000008152600401611d8d90615295565b60405180910390fd5b611d9e6119eb565b73ffffffffffffffffffffffffffffffffffffffff166108fc349081150290604051600060405180830381858888f19350505050158015611de3573d6000803e3d6000fd5b50611df083600e546138b0565b6000611dfb34613a8a565b90506000604051806101200160405280600e5481526020018673ffffffffffffffffffffffffffffffffffffffff168152602001838152602001600b548152602001848152602001858152602001600015158152602001428152602001600181525090508060076000600e5481526020019081526020016000206000820151816000015560208201518160010160006101000a81548173ffffffffffffffffffffffffffffffffffffffff021916908373ffffffffffffffffffffffffffffffffffffffff16021790555060408201518160020155606082015181600301556080820151816004019080519060200190611ef6929190613ef9565b5060a0820151816005019080519060200190611f13929190613ef9565b5060c08201518160060160006101000a81548160ff02191690831515021790555060e08201518160070155610100820151816008015590505084600885604051611f5d9190614dbd565b908152602001604051809103902060006101000a81548173ffffffffffffffffffffffffffffffffffffffff021916908373ffffffffffffffffffffffffffffffffffffffff16021790555084600984604051611fba9190614dbd565b908152602001604051809103902060006101000a81548173ffffffffffffffffffffffffffffffffffffffff021916908373ffffffffffffffffffffffffffffffffffffffff160217905550600e600081548092919061201990615711565b91905055507f69e2cadceb55416f48e5a82e3641de7889495c2e02c86d37aaa313d121e8e7428486600e54866040516120559493929190614e4e565b60405180910390a15050505050565b60606000600e5467ffffffffffffffff8111156120aa577f4e487b7100000000000000000000000000000000000000000000000000000000600052604160045260246000fd5b6040519080825280602002602001820160405280156120e357816020015b6120d0613f7f565b8152602001906001900390816120c85790505b50905060005b600e54811015612330576007600082815260200190815260200160002060405180610120016040529081600082015481526020016001820160009054906101000a900473ffffffffffffffffffffffffffffffffffffffff1673ffffffffffffffffffffffffffffffffffffffff1673ffffffffffffffffffffffffffffffffffffffff1681526020016002820154815260200160038201548152602001600482018054612196906156ae565b80601f01602080910402602001604051908101604052809291908181526020018280546121c2906156ae565b801561220f5780601f106121e45761010080835404028352916020019161220f565b820191906000526020600020905b8154815290600101906020018083116121f257829003601f168201915b50505050508152602001600582018054612228906156ae565b80601f0160208091040260200160405190810160405280929190818152602001828054612254906156ae565b80156122a15780601f10612276576101008083540402835291602001916122a1565b820191906000526020600020905b81548152906001019060200180831161228457829003601f168201915b505050505081526020016006820160009054906101000a900460ff1615151515815260200160078201548152602001600882015481525050828281518110612312577f4e487b7100000000000000000000000000000000000000000000000000000000600052603260045260246000fd5b6020026020010181905250808061232890615711565b9150506120e9565b508091505090565b612341816135b3565b612380576040517f08c379a000000000000000000000000000000000000000000000000000000000815260040161237790615255565b60405180910390fd5b8173ffffffffffffffffffffffffffffffffffffffff1661239f61361f565b73ffffffffffffffffffffffffffffffffffffffff1614806124155750600a60009054906101000a900473ffffffffffffffffffffffffffffffffffffffff1673ffffffffffffffffffffffffffffffffffffffff166123fd61361f565b73ffffffffffffffffffffffffffffffffffffffff16145b612454576040517f08c379a000000000000000000000000000000000000000000000000000000000815260040161244b90615095565b60405180910390fd5b61246561245f61361f565b826136e0565b6124a4576040517f08c379a000000000000000000000000000000000000000000000000000000000815260040161249b90615095565b60405180910390fd5b60006007600083815260200190815260200160002060405180610120016040529081600082015481526020016001820160009054906101000a900473ffffffffffffffffffffffffffffffffffffffff1673ffffffffffffffffffffffffffffffffffffffff1673ffffffffffffffffffffffffffffffffffffffff1681526020016002820154815260200160038201548152602001600482018054612549906156ae565b80601f0160208091040260200160405190810160405280929190818152602001828054612575906156ae565b80156125c25780601f10612597576101008083540402835291602001916125c2565b820191906000526020600020905b8154815290600101906020018083116125a557829003601f168201915b505050505081526020016005820180546125db906156ae565b80601f0160208091040260200160405190810160405280929190818152602001828054612607906156ae565b80156126545780601f1061262957610100808354040283529160200191612654565b820191906000526020600020905b81548152906001019060200180831161263757829003601f168201915b505050505081526020016006820160009054906101000a900460ff1615151515815260200160078201548152602001600882015481525050905061269b81600001516135b3565b6126da576040517f08c379a00000000000000000000000000000000000000000000000000000000081526004016126d190615055565b60405180910390fd5b8060c0015161271e576040517f08c379a0000000000000000000000000000000000000000000000000000000008152600401612715906152b5565b60405180910390fd5b60008160c001901515908115158152505080600760008481526020019081526020016000206000820151816000015560208201518160010160006101000a81548173ffffffffffffffffffffffffffffffffffffffff021916908373ffffffffffffffffffffffffffffffffffffffff160217905550604082015181600201556060820151816003015560808201518160040190805190602001906127c4929190613ef9565b5060a08201518160050190805190602001906127e1929190613ef9565b5060c08201518160060160006101000a81548160ff02191690831515021790555060e0820151816007015561010082015181600801559050507fc3b5a2843f6447d7f106f5f37fa2da559718e6690e8567e2a9a707074388a81c8160a00151826020015184846080015160405161285b9493929190614ea1565b60405180910390a1505050565b6000600e54905090565b61287a61361f565b73ffffffffffffffffffffffffffffffffffffffff166128986119eb565b73ffffffffffffffffffffffffffffffffffffffff16146128ee576040517f08c379a00000000000000000000000000000000000000000000000000000000081526004016128e5906151f5565b60405180910390fd5b80600b8190555050565b61290061361f565b73ffffffffffffffffffffffffffffffffffffffff1661291e6119eb565b73ffffffffffffffffffffffffffffffffffffffff1614612974576040517f08c379a000000000000000000000000000000000000000000000000000000000815260040161296b906151f5565b60405180910390fd5b80600d8190555050565b61299061298961361f565b8383613ae9565b5050565b60008073ffffffffffffffffffffffffffffffffffffffff166008836040516129bd9190614dbd565b908152602001604051809103902060009054906101000a900473ffffffffffffffffffffffffffffffffffffffff1673ffffffffffffffffffffffffffffffffffffffff16149050919050565b600a60009054906101000a900473ffffffffffffffffffffffffffffffffffffffff1673ffffffffffffffffffffffffffffffffffffffff16612a4b61361f565b73ffffffffffffffffffffffffffffffffffffffff1614612aa1576040517f08c379a0000000000000000000000000000000000000000000000000000000008152600401612a9890615015565b60405180910390fd5b50505050565b6000600c54905090565b6060612abc826135b3565b612afb576040517f08c379a0000000000000000000000000000000000000000000000000000000008152600401612af290615255565b60405180910390fd5b600760008381526020019081526020016000206004018054612b1c906156ae565b80601f0160208091040260200160405190810160405280929190818152602001828054612b48906156ae565b8015612b955780601f10612b6a57610100808354040283529160200191612b95565b820191906000526020600020905b815481529060010190602001808311612b7857829003601f168201915b50505050509050919050565b612baa816135b3565b612be9576040517f08c379a0000000000000000000000000000000000000000000000000000000008152600401612be090615255565b60405180910390fd5b60006007600083815260200190815260200160002060405180610120016040529081600082015481526020016001820160009054906101000a900473ffffffffffffffffffffffffffffffffffffffff1673ffffffffffffffffffffffffffffffffffffffff1673ffffffffffffffffffffffffffffffffffffffff1681526020016002820154815260200160038201548152602001600482018054612c8e906156ae565b80601f0160208091040260200160405190810160405280929190818152602001828054612cba906156ae565b8015612d075780601f10612cdc57610100808354040283529160200191612d07565b820191906000526020600020905b815481529060010190602001808311612cea57829003601f168201915b50505050508152602001600582018054612d20906156ae565b80601f0160208091040260200160405190810160405280929190818152602001828054612d4c906156ae565b8015612d995780601f10612d6e57610100808354040283529160200191612d99565b820191906000526020600020905b815481529060010190602001808311612d7c57829003601f168201915b505050505081526020016006820160009054906101000a900460ff16151515158152602001600782015481526020016008820154815250509050612de081600001516135b3565b612e1f576040517f08c379a0000000000000000000000000000000000000000000000000000000008152600401612e1690615055565b60405180910390fd5b8060400151341015612e66576040517f08c379a0000000000000000000000000000000000000000000000000000000008152600401612e5d90615275565b60405180910390fd5b8060c00151612eaa576040517f08c379a0000000000000000000000000000000000000000000000000000000008152600401612ea190615195565b60405180910390fd5b8273ffffffffffffffffffffffffffffffffffffffff16816020015173ffffffffffffffffffffffffffffffffffffffff161415612f1d576040517f08c379a0000000000000000000000000000000000000000000000000000000008152600401612f14906150b5565b60405180910390fd5b60008160a0015190506000826080015190506000612f3a34613c56565b905060008134612f4a91906155b2565b9050612f546119eb565b73ffffffffffffffffffffffffffffffffffffffff166108fc839081150290604051600060405180830381858888f19350505050158015612f99573d6000803e3d6000fd5b50846020015173ffffffffffffffffffffffffffffffffffffffff166108fc829081150290604051600060405180830381858888f19350505050158015612fe4573d6000803e3d6000fd5b50612ff485602001518888613c88565b866008856040516130059190614dbd565b908152602001604051809103902060006101000a81548173ffffffffffffffffffffffffffffffffffffffff021916908373ffffffffffffffffffffffffffffffffffffffff160217905550866009846040516130629190614dbd565b908152602001604051809103902060006101000a81548173ffffffffffffffffffffffffffffffffffffffff021916908373ffffffffffffffffffffffffffffffffffffffff16021790555060006130b934613a8a565b905087866020019073ffffffffffffffffffffffffffffffffffffffff16908173ffffffffffffffffffffffffffffffffffffffff168152505085604001518660600181815250508086604001818152505060008660c0019015159081151581525050428660e00181815250508561010001805180919061313990615711565b8152505085600760008981526020019081526020016000206000820151816000015560208201518160010160006101000a81548173ffffffffffffffffffffffffffffffffffffffff021916908373ffffffffffffffffffffffffffffffffffffffff160217905550604082015181600201556060820151816003015560808201518160040190805190602001906131d2929190613ef9565b5060a08201518160050190805190602001906131ef929190613ef9565b5060c08201518160060160006101000a81548160ff02191690831515021790555060e0820151816007015561010082015181600801559050505050505050505050565b6000600560008473ffffffffffffffffffffffffffffffffffffffff1673ffffffffffffffffffffffffffffffffffffffff16815260200190815260200160002060008373ffffffffffffffffffffffffffffffffffffffff1673ffffffffffffffffffffffffffffffffffffffff16815260200190815260200160002060009054906101000a900460ff16905092915050565b60076020528060005260406000206000915090508060000154908060010160009054906101000a900473ffffffffffffffffffffffffffffffffffffffff1690806002015490806003015490806004018054613321906156ae565b80601f016020809104026020016040519081016040528092919081815260200182805461334d906156ae565b801561339a5780601f1061336f5761010080835404028352916020019161339a565b820191906000526020600020905b81548152906001019060200180831161337d57829003601f168201915b5050505050908060050180546133af906156ae565b80601f01602080910402602001604051908101604052809291908181526020018280546133db906156ae565b80156134285780601f106133fd57610100808354040283529160200191613428565b820191906000526020600020905b81548152906001019060200180831161340b57829003601f168201915b5050505050908060060160009054906101000a900460ff16908060070154908060080154905089565b61345961361f565b73ffffffffffffffffffffffffffffffffffffffff166134776119eb565b73ffffffffffffffffffffffffffffffffffffffff16146134cd576040517f08c379a00000000000000000000000000000000000000000000000000000000081526004016134c4906151f5565b60405180910390fd5b600073ffffffffffffffffffffffffffffffffffffffff168173ffffffffffffffffffffffffffffffffffffffff16141561353d576040517f08c379a000000000000000000000000000000000000000000000000000000000815260040161353490614f75565b60405180910390fd5b613546816137ea565b50565b60007f01ffc9a7000000000000000000000000000000000000000000000000000000007bffffffffffffffffffffffffffffffffffffffffffffffffffffffff1916827bffffffffffffffffffffffffffffffffffffffffffffffffffffffff1916149050919050565b60008073ffffffffffffffffffffffffffffffffffffffff166002600084815260200190815260200160002060009054906101000a900473ffffffffffffffffffffffffffffffffffffffff1673ffffffffffffffffffffffffffffffffffffffff1614159050919050565b600033905090565b816004600083815260200190815260200160002060006101000a81548173ffffffffffffffffffffffffffffffffffffffff021916908373ffffffffffffffffffffffffffffffffffffffff160217905550808273ffffffffffffffffffffffffffffffffffffffff1661369a8361130c565b73ffffffffffffffffffffffffffffffffffffffff167f8c5be1e5ebec7d5bd14f71427d1e84f3dd0314c0f7b2291e5b200ac8c7c3b92560405160405180910390a45050565b60006136eb826135b3565b61372a576040517f08c379a000000000000000000000000000000000000000000000000000000000815260040161372190615075565b60405180910390fd5b60006137358361130c565b90508073ffffffffffffffffffffffffffffffffffffffff168473ffffffffffffffffffffffffffffffffffffffff1614806137a457508373ffffffffffffffffffffffffffffffffffffffff1661378c84610964565b73ffffffffffffffffffffffffffffffffffffffff16145b806137b557506137b48185613232565b5b91505092915050565b600081836137cc9190615527565b905092915050565b600081836137e29190615558565b905092915050565b6000600660009054906101000a900473ffffffffffffffffffffffffffffffffffffffff16905081600660006101000a81548173ffffffffffffffffffffffffffffffffffffffff021916908373ffffffffffffffffffffffffffffffffffffffff1602179055508173ffffffffffffffffffffffffffffffffffffffff168173ffffffffffffffffffffffffffffffffffffffff167f8be0079c531659141344cd1fd0a4f28419497f9722a3daafe3b4186f6b6457e060405160405180910390a35050565b600073ffffffffffffffffffffffffffffffffffffffff168273ffffffffffffffffffffffffffffffffffffffff161415613920576040517f08c379a000000000000000000000000000000000000000000000000000000000815260040161391790615155565b60405180910390fd5b613929816135b3565b15613969576040517f08c379a000000000000000000000000000000000000000000000000000000000815260040161396090614fb5565b60405180910390fd5b61397560008383613eef565b6001600360008473ffffffffffffffffffffffffffffffffffffffff1673ffffffffffffffffffffffffffffffffffffffff16815260200190815260200160002060008282546139c591906154d1565b92505081905550816002600083815260200190815260200160002060006101000a81548173ffffffffffffffffffffffffffffffffffffffff021916908373ffffffffffffffffffffffffffffffffffffffff160217905550808273ffffffffffffffffffffffffffffffffffffffff16600073ffffffffffffffffffffffffffffffffffffffff167fddf252ad1be2c89b69c2b068fc378daa952ba7f163c4a11628f55a4df523b3ef60405160405180910390a4613a8660008383613ef4565b5050565b600080613ab6612710613aa8600d54866137d490919063ffffffff16565b6137be90919063ffffffff16565b9050613ae1601054613ad3601054846137be90919063ffffffff16565b6137d490919063ffffffff16565b915050919050565b8173ffffffffffffffffffffffffffffffffffffffff168373ffffffffffffffffffffffffffffffffffffffff161415613b58576040517f08c379a0000000000000000000000000000000000000000000000000000000008152600401613b4f90614ff5565b60405180910390fd5b80600560008573ffffffffffffffffffffffffffffffffffffffff1673ffffffffffffffffffffffffffffffffffffffff16815260200190815260200160002060008473ffffffffffffffffffffffffffffffffffffffff1673ffffffffffffffffffffffffffffffffffffffff16815260200190815260200160002060006101000a81548160ff0219169083151502179055508173ffffffffffffffffffffffffffffffffffffffff168373ffffffffffffffffffffffffffffffffffffffff167f17307eab39ab6107e8899845ad3d59bd9653f200f220920489ca2b5937696c3183604051613c499190614e11565b60405180910390a3505050565b6000613c81612710613c73600c54856137d490919063ffffffff16565b6137be90919063ffffffff16565b9050919050565b8273ffffffffffffffffffffffffffffffffffffffff16613ca88261130c565b73ffffffffffffffffffffffffffffffffffffffff1614613cfe576040517f08c379a0000000000000000000000000000000000000000000000000000000008152600401613cf590614f95565b60405180910390fd5b600073ffffffffffffffffffffffffffffffffffffffff168273ffffffffffffffffffffffffffffffffffffffff161415613d6e576040517f08c379a0000000000000000000000000000000000000000000000000000000008152600401613d6590614fd5565b60405180910390fd5b613d79838383613eef565b613d84600082613627565b6001600360008573ffffffffffffffffffffffffffffffffffffffff1673ffffffffffffffffffffffffffffffffffffffff1681526020019081526020016000206000828254613dd491906155b2565b925050819055506001600360008473ffffffffffffffffffffffffffffffffffffffff1673ffffffffffffffffffffffffffffffffffffffff1681526020019081526020016000206000828254613e2b91906154d1565b92505081905550816002600083815260200190815260200160002060006101000a81548173ffffffffffffffffffffffffffffffffffffffff021916908373ffffffffffffffffffffffffffffffffffffffff160217905550808273ffffffffffffffffffffffffffffffffffffffff168473ffffffffffffffffffffffffffffffffffffffff167fddf252ad1be2c89b69c2b068fc378daa952ba7f163c4a11628f55a4df523b3ef60405160405180910390a4613eea838383613ef4565b505050565b505050565b505050565b828054613f05906156ae565b90600052602060002090601f016020900481019282613f275760008555613f6e565b82601f10613f4057805160ff1916838001178555613f6e565b82800160010185558215613f6e579182015b82811115613f6d578251825591602001919060010190613f52565b5b509050613f7b9190613fe3565b5090565b60405180610120016040528060008152602001600073ffffffffffffffffffffffffffffffffffffffff1681526020016000815260200160008152602001606081526020016060815260200160001515815260200160008152602001600081525090565b5b80821115613ffc576000816000905550600101613fe4565b5090565b600061401361400e846153d2565b6153ad565b9050808382526020820190508260005b858110156140535781518501614039888261423d565b845260208401935060208301925050600181019050614023565b5050509392505050565b600061407061406b846153fe565b6153ad565b90508281526020810184848401111561408857600080fd5b61409384828561566c565b509392505050565b60006140ae6140a98461542f565b6153ad565b9050828152602081018484840111156140c657600080fd5b6140d184828561566c565b509392505050565b60006140ec6140e78461542f565b6153ad565b90508281526020810184848401111561410457600080fd5b61410f84828561567b565b509392505050565b60008135905061412681615f03565b92915050565b60008151905061413b81615f03565b92915050565b60008135905061415081615f1a565b92915050565b600082601f83011261416757600080fd5b8151614177848260208601614000565b91505092915050565b60008135905061418f81615f31565b92915050565b6000815190506141a481615f31565b92915050565b6000813590506141b981615f48565b92915050565b600082601f8301126141d057600080fd5b81356141e084826020860161405d565b91505092915050565b600082601f8301126141fa57600080fd5b813561420a84826020860161409b565b91505092915050565b600082601f83011261422457600080fd5b81516142348482602086016140d9565b91505092915050565b6000610120828403121561425057600080fd5b61425b6101206153ad565b9050600061426b8482850161435e565b600083015250602061427f8482850161412c565b60208301525060406142938482850161435e565b60408301525060606142a78482850161435e565b606083015250608082015167ffffffffffffffff8111156142c757600080fd5b6142d384828501614213565b60808301525060a082015167ffffffffffffffff8111156142f357600080fd5b6142ff84828501614213565b60a08301525060c061431384828501614195565b60c08301525060e06143278482850161435e565b60e08301525061010061433c8482850161435e565b6101008301525092915050565b60008135905061435881615f5f565b92915050565b60008151905061436d81615f5f565b92915050565b60006020828403121561438557600080fd5b600061439384828501614117565b91505092915050565b6000806000606084860312156143b157600080fd5b60006143bf86828701614141565b935050602084013567ffffffffffffffff8111156143dc57600080fd5b6143e8868287016141e9565b925050604084013567ffffffffffffffff81111561440557600080fd5b614411868287016141e9565b9150509250925092565b6000806040838503121561442e57600080fd5b600061443c85828601614117565b925050602061444d85828601614117565b9150509250929050565b60008060006060848603121561446c57600080fd5b600061447a86828701614117565b935050602061448b86828701614117565b925050604061449c86828701614349565b9150509250925092565b600080600080608085870312156144bc57600080fd5b60006144ca87828801614117565b94505060206144db87828801614117565b93505060406144ec87828801614349565b925050606085013567ffffffffffffffff81111561450957600080fd5b614515878288016141bf565b91505092959194509250565b6000806040838503121561453457600080fd5b600061454285828601614117565b925050602061455385828601614180565b9150509250929050565b6000806040838503121561457057600080fd5b600061457e85828601614117565b925050602061458f85828601614349565b9150509250929050565b6000806000606084860312156145ae57600080fd5b60006145bc86828701614117565b93505060206145cd86828701614349565b92505060406145de86828701614349565b9150509250925092565b6000602082840312156145fa57600080fd5b600082015167ffffffffffffffff81111561461457600080fd5b61462084828501614156565b91505092915050565b60006020828403121561463b57600080fd5b6000614649848285016141aa565b91505092915050565b60006020828403121561466457600080fd5b600082013567ffffffffffffffff81111561467e57600080fd5b61468a848285016141e9565b91505092915050565b6000602082840312156146a557600080fd5b60006146b384828501614349565b91505092915050565b60006146c88383614c07565b905092915050565b6146d9816155f8565b82525050565b6146e8816155e6565b82525050565b6146f7816155e6565b82525050565b600061470882615470565b6147128185615493565b93508360208202850161472485615460565b8060005b85811015614760578484038952815161474185826146bc565b945061474c83615486565b925060208a01995050600181019050614728565b50829750879550505050505092915050565b61477b8161560a565b82525050565b61478a8161560a565b82525050565b600061479b8261547b565b6147a581856154a4565b93506147b581856020860161567b565b6147be81615816565b840191505092915050565b60006147d48261547b565b6147de81856154b5565b93506147ee81856020860161567b565b6147f781615816565b840191505092915050565b600061480d8261547b565b61481781856154c6565b935061482781856020860161567b565b80840191505092915050565b6000614840602d836154b5565b915061484b82615827565b604082019050919050565b60006148636026836154b5565b915061486e82615876565b604082019050919050565b60006148866025836154b5565b9150614891826158c5565b604082019050919050565b60006148a9601c836154b5565b91506148b482615914565b602082019050919050565b60006148cc6024836154b5565b91506148d78261593d565b604082019050919050565b60006148ef6019836154b5565b91506148fa8261598c565b602082019050919050565b60006149126026836154b5565b915061491d826159b5565b604082019050919050565b60006149356020836154b5565b915061494082615a04565b602082019050919050565b60006149586014836154b5565b915061496382615a2d565b602082019050919050565b600061497b602c836154b5565b915061498682615a56565b604082019050919050565b600061499e602c836154b5565b91506149a982615aa5565b604082019050919050565b60006149c16018836154b5565b91506149cc82615af4565b602082019050919050565b60006149e46038836154b5565b91506149ef82615b1d565b604082019050919050565b6000614a07602a836154b5565b9150614a1282615b6c565b604082019050919050565b6000614a2a6029836154b5565b9150614a3582615bbb565b604082019050919050565b6000614a4d6032836154b5565b9150614a5882615c0a565b604082019050919050565b6000614a706020836154b5565b9150614a7b82615c59565b602082019050919050565b6000614a93602c836154b5565b9150614a9e82615c82565b604082019050919050565b6000614ab66015836154b5565b9150614ac182615cd1565b602082019050919050565b6000614ad96020836154b5565b9150614ae482615cfa565b602082019050919050565b6000614afc6012836154b5565b9150614b0782615d23565b602082019050919050565b6000614b1f6020836154b5565b9150614b2a82615d4c565b602082019050919050565b6000614b426021836154b5565b9150614b4d82615d75565b604082019050919050565b6000614b656039836154b5565b9150614b7082615dc4565b604082019050919050565b6000614b886016836154b5565b9150614b9382615e13565b602082019050919050565b6000614bab602d836154b5565b9150614bb682615e3c565b604082019050919050565b6000614bce6020836154b5565b9150614bd982615e8b565b602082019050919050565b6000614bf1602a836154b5565b9150614bfc82615eb4565b604082019050919050565b600061012083016000830151614c206000860182614d9f565b506020830151614c3360208601826146df565b506040830151614c466040860182614d9f565b506060830151614c596060860182614d9f565b5060808301518482036080860152614c718282614790565b91505060a083015184820360a0860152614c8b8282614790565b91505060c0830151614ca060c0860182614772565b5060e0830151614cb360e0860182614d9f565b50610100830151614cc8610100860182614d9f565b508091505092915050565b600061012083016000830151614cec6000860182614d9f565b506020830151614cff60208601826146df565b506040830151614d126040860182614d9f565b506060830151614d256060860182614d9f565b5060808301518482036080860152614d3d8282614790565b91505060a083015184820360a0860152614d578282614790565b91505060c0830151614d6c60c0860182614772565b5060e0830151614d7f60e0860182614d9f565b50610100830151614d94610100860182614d9f565b508091505092915050565b614da881615662565b82525050565b614db781615662565b82525050565b6000614dc98284614802565b915081905092915050565b6000602082019050614de960008301846146ee565b92915050565b60006020820190508181036000830152614e0981846146fd565b905092915050565b6000602082019050614e266000830184614781565b92915050565b60006020820190508181036000830152614e4681846147c9565b905092915050565b60006080820190508181036000830152614e6881876147c9565b9050614e7760208301866146d0565b614e846040830185614dae565b8181036060830152614e9681846147c9565b905095945050505050565b60006080820190508181036000830152614ebb81876147c9565b9050614eca60208301866146ee565b614ed76040830185614dae565b8181036060830152614ee981846147c9565b905095945050505050565b600060a0820190508181036000830152614f0e81886147c9565b9050614f1d60208301876146ee565b614f2a6040830186614dae565b8181036060830152614f3c81856147c9565b9050614f4b6080830184614dae565b9695505050505050565b60006020820190508181036000830152614f6e81614833565b9050919050565b60006020820190508181036000830152614f8e81614856565b9050919050565b60006020820190508181036000830152614fae81614879565b9050919050565b60006020820190508181036000830152614fce8161489c565b9050919050565b60006020820190508181036000830152614fee816148bf565b9050919050565b6000602082019050818103600083015261500e816148e2565b9050919050565b6000602082019050818103600083015261502e81614905565b9050919050565b6000602082019050818103600083015261504e81614928565b9050919050565b6000602082019050818103600083015261506e8161494b565b9050919050565b6000602082019050818103600083015261508e8161496e565b9050919050565b600060208201905081810360008301526150ae81614991565b9050919050565b600060208201905081810360008301526150ce816149b4565b9050919050565b600060208201905081810360008301526150ee816149d7565b9050919050565b6000602082019050818103600083015261510e816149fa565b9050919050565b6000602082019050818103600083015261512e81614a1d565b9050919050565b6000602082019050818103600083015261514e81614a40565b9050919050565b6000602082019050818103600083015261516e81614a63565b9050919050565b6000602082019050818103600083015261518e81614a86565b9050919050565b600060208201905081810360008301526151ae81614aa9565b9050919050565b600060208201905081810360008301526151ce81614acc565b9050919050565b600060208201905081810360008301526151ee81614aef565b9050919050565b6000602082019050818103600083015261520e81614b12565b9050919050565b6000602082019050818103600083015261522e81614b35565b9050919050565b6000602082019050818103600083015261524e81614b58565b9050919050565b6000602082019050818103600083015261526e81614b7b565b9050919050565b6000602082019050818103600083015261528e81614b9e565b9050919050565b600060208201905081810360008301526152ae81614bc1565b9050919050565b600060208201905081810360008301526152ce81614be4565b9050919050565b600060208201905081810360008301526152ef8184614cd3565b905092915050565b600060208201905061530c6000830184614dae565b92915050565b600061012082019050615328600083018c614dae565b615335602083018b6146ee565b615342604083018a614dae565b61534f6060830189614dae565b818103608083015261536181886147c9565b905081810360a083015261537581876147c9565b905061538460c0830186614781565b61539160e0830185614dae565b61539f610100830184614dae565b9a9950505050505050505050565b60006153b76153c8565b90506153c382826156e0565b919050565b6000604051905090565b600067ffffffffffffffff8211156153ed576153ec6157e7565b5b602082029050602081019050919050565b600067ffffffffffffffff821115615419576154186157e7565b5b61542282615816565b9050602081019050919050565b600067ffffffffffffffff82111561544a576154496157e7565b5b61545382615816565b9050602081019050919050565b6000819050602082019050919050565b600081519050919050565b600081519050919050565b6000602082019050919050565b600082825260208201905092915050565b600082825260208201905092915050565b600082825260208201905092915050565b600081905092915050565b60006154dc82615662565b91506154e783615662565b9250827fffffffffffffffffffffffffffffffffffffffffffffffffffffffffffffffff0382111561551c5761551b61575a565b5b828201905092915050565b600061553282615662565b915061553d83615662565b92508261554d5761554c615789565b5b828204905092915050565b600061556382615662565b915061556e83615662565b9250817fffffffffffffffffffffffffffffffffffffffffffffffffffffffffffffffff04831182151516156155a7576155a661575a565b5b828202905092915050565b60006155bd82615662565b91506155c883615662565b9250828210156155db576155da61575a565b5b828203905092915050565b60006155f182615642565b9050919050565b600061560382615642565b9050919050565b60008115159050919050565b60007fffffffff0000000000000000000000000000000000000000000000000000000082169050919050565b600073ffffffffffffffffffffffffffffffffffffffff82169050919050565b6000819050919050565b82818337600083830152505050565b60005b8381101561569957808201518184015260208101905061567e565b838111156156a8576000848401525b50505050565b600060028204905060018216806156c657607f821691505b602082108114156156da576156d96157b8565b5b50919050565b6156e982615816565b810181811067ffffffffffffffff82111715615708576157076157e7565b5b80604052505050565b600061571c82615662565b91507fffffffffffffffffffffffffffffffffffffffffffffffffffffffffffffffff82141561574f5761574e61575a565b5b600182019050919050565b7f4e487b7100000000000000000000000000000000000000000000000000000000600052601160045260246000fd5b7f4e487b7100000000000000000000000000000000000000000000000000000000600052601260045260246000fd5b7f4e487b7100000000000000000000000000000000000000000000000000000000600052602260045260246000fd5b7f4e487b7100000000000000000000000000000000000000000000000000000000600052604160045260246000fd5b6000601f19601f8301169050919050565b7f4120746f6b656e2068617320616c7265616479206265656e206d696e7465642060008201527f7769746820746869732055524900000000000000000000000000000000000000602082015250565b7f4f776e61626c653a206e6577206f776e657220697320746865207a65726f206160008201527f6464726573730000000000000000000000000000000000000000000000000000602082015250565b7f4552433732313a207472616e736665722066726f6d20696e636f72726563742060008201527f6f776e6572000000000000000000000000000000000000000000000000000000602082015250565b7f4552433732313a20746f6b656e20616c7265616479206d696e74656400000000600082015250565b7f4552433732313a207472616e7366657220746f20746865207a65726f2061646460008201527f7265737300000000000000000000000000000000000000000000000000000000602082015250565b7f4552433732313a20617070726f766520746f2063616c6c657200000000000000600082015250565b7f4d6574686f64206d6179206f6e6c792062652063616c6c65642062792074686560008201527f206f776e65720000000000000000000000000000000000000000000000000000602082015250565b7f546f6b656e20697320616c7265616479206d61726b656420666f722073616c65600082015250565b7f546f6b656e20646f6573206e6f74206578697374000000000000000000000000600082015250565b7f4552433732313a206f70657261746f7220717565727920666f72206e6f6e657860008201527f697374656e7420746f6b656e0000000000000000000000000000000000000000602082015250565b7f53656e646572206d75737420626520746f6b656e206f776e6572206f7220636f60008201527f6e7472616374206f776e65720000000000000000000000000000000000000000602082015250565b7f427579657220616c7265616479206f776e7320746f6b656e0000000000000000600082015250565b7f4552433732313a20617070726f76652063616c6c6572206973206e6f74206f7760008201527f6e6572206e6f7220617070726f76656420666f7220616c6c0000000000000000602082015250565b7f4552433732313a2062616c616e636520717565727920666f7220746865207a6560008201527f726f206164647265737300000000000000000000000000000000000000000000602082015250565b7f4552433732313a206f776e657220717565727920666f72206e6f6e657869737460008201527f656e7420746f6b656e0000000000000000000000000000000000000000000000602082015250565b7f4120746f6b656e2068617320616c7265616479206265656e206d696e7465642060008201527f77697468207468697320736f6c7574696f6e0000000000000000000000000000602082015250565b7f4552433732313a206d696e7420746f20746865207a65726f2061646472657373600082015250565b7f4552433732313a20617070726f76656420717565727920666f72206e6f6e657860008201527f697374656e7420746f6b656e0000000000000000000000000000000000000000602082015250565b7f546f6b656e206973206e6f7420666f722073616c650000000000000000000000600082015250565b7f412076616c756520666f7220736f6c7574696f6e206973207265717569726564600082015250565b7f496e76616c696420746f20616464726573730000000000000000000000000000600082015250565b7f4f776e61626c653a2063616c6c6572206973206e6f7420746865206f776e6572600082015250565b7f4552433732313a20617070726f76616c20746f2063757272656e74206f776e6560008201527f7200000000000000000000000000000000000000000000000000000000000000602082015250565b7f546f6b656e2063616e6e6f7420626520707269636564206c657373207468616e60008201527f207468652063757272656e742061736b696e6720707269636500000000000000602082015250565b7f546f6b656e496420646f6573206e6f7420657869737400000000000000000000600082015250565b7f496e73756666696369656e742065746865722073656e7420776974682074686960008201527f73207472616e73616374696f6e00000000000000000000000000000000000000602082015250565b7f412076616c756520666f7220746f6b656e555249206973207265717569726564600082015250565b7f546f6b656e20697320616c72656164792070726576656e7465642066726f6d2060008201527f6265696e6720736f6c6400000000000000000000000000000000000000000000602082015250565b615f0c816155e6565b8114615f1757600080fd5b50565b615f23816155f8565b8114615f2e57600080fd5b50565b615f3a8161560a565b8114615f4557600080fd5b50565b615f5181615616565b8114615f5c57600080fd5b50565b615f6881615662565b8114615f7357600080fd5b5056fea2646970667358221220b0e8976da4515a6a6df22a869bee810357453b344edcfc26991b8d35604d1d5a64736f6c63430008010033",
  "immutableReferences": {},
  "source": "// SPDX-License-Identifier: MIT\r\npragma solidity >=0.4.22 <0.9.0;\r\nimport \"@openzeppelin/contracts/token/ERC721/ERC721.sol\";\r\nimport \"@openzeppelin/contracts/access/Ownable.sol\";\r\nimport \"@openzeppelin/contracts/utils/math/SafeMath.sol\";\r\n\r\ncontract EthordleToken is ERC721, Ownable {\r\n    using Strings for uint256;\r\n    using SafeMath for uint256;\r\n\r\n    struct Token {\r\n        uint256 id;        \r\n        address owner;\r\n        uint256 price;\r\n        uint256 lastPrice;\r\n        string url;\r\n        string solution;\r\n        bool isForSale;\r\n        uint256 lastTransactionTimestamp;\r\n        uint256 transactionCount;        \r\n    }\r\n\r\n    mapping (uint256 => Token) public _tokens;\r\n    mapping (string => address) private _solutionOwners;\r\n    mapping (string => address) private _tokenURIOwners;\r\n\r\n    address private _owner;\r\n    uint256 private _initialPrice;\r\n    uint256 private _royaltyRate;\r\n    uint256 private _priceEscalationRate;\r\n    uint256 private _currentTokenId;\r\n    string private _baseURIextended;\r\n\r\n    uint256 roundingDivisor = 10**15;\r\n\r\n    event TokenMinted (\r\n        string solution,\r\n        address payable account,\r\n        uint256 tokenId,\r\n        string metadataURI\r\n    );\r\n\r\n    event TokenSaleAllowed (\r\n        string solution,\r\n        address account,\r\n        uint256 tokenId,\r\n        string metadataURI,\r\n        uint256 price\r\n    );\r\n\r\n    event TokenSalePrevented (\r\n        string solution,\r\n        address account,\r\n        uint256 tokenId,\r\n        string metadataURI\r\n    );\r\n\r\n    constructor(string memory _name, string memory _symbol, uint256 initialPrice_, uint256 royaltyRate_, uint256 priceEscalationRate_) ERC721(_name, _symbol) {\r\n        _owner = msg.sender;\r\n        _currentTokenId = 0;\r\n        _initialPrice = initialPrice_;\r\n        _royaltyRate = royaltyRate_;\r\n        _priceEscalationRate = priceEscalationRate_;\r\n    }\r\n    \r\n    function setInitialPrice(uint256 initialPrice_) external onlyOwner() {\r\n        _initialPrice = initialPrice_;\r\n    }\r\n\r\n    function initialPrice() external view returns (uint256) {\r\n        return _initialPrice;\r\n    }\r\n\r\n    function setRoyaltyRate(uint256 royaltyRate_) external onlyOwner() {\r\n        _royaltyRate = royaltyRate_;   \r\n    }\r\n\r\n    function royaltyRate() external view returns (uint256) {\r\n        return _royaltyRate;\r\n    }\r\n\r\n    function setPriceEscalationRate(uint256 priceEscalationRate_) external onlyOwner() {\r\n        _priceEscalationRate = priceEscalationRate_;\r\n    }\r\n\r\n    function priceEscalationRate() external view returns (uint256) {\r\n        return _priceEscalationRate;\r\n    }\r\n\r\n    function tokenCount() external view returns (uint256) {\r\n        return _currentTokenId;\r\n    }\r\n\r\n    function tokenById(uint256 tokenId) external view returns(Token memory) {\r\n        require(_exists(tokenId), 'TokenId does not exist');  \r\n\r\n        Token memory token = _tokens[tokenId];\r\n        require(_exists(tokenId), 'Token does not exist');   \r\n\r\n        return token;\r\n    }\r\n\r\n    function tokensOfOwner(address _from) external view returns(Token[] memory) {\r\n        uint256 ownerCount = balanceOf(_from);\r\n        uint256 ownerIndex = 0;\r\n        Token[] memory ownerTokens = new Token[](ownerCount);\r\n\r\n        if (ownerCount > 0) {\r\n            Token[] memory allTokens = this.tokens();\r\n            \r\n            for (uint256 i = 0; i < _currentTokenId; i++) {\r\n                if (allTokens[i].owner == _from) {\r\n                    ownerTokens[ownerIndex] = allTokens[i];\r\n                    ownerIndex++;\r\n                }\r\n            }\r\n        }\r\n\r\n        return ownerTokens;\r\n    }\r\n\r\n    function tokens() external view returns(Token[] memory) {  \r\n        Token[] memory allTokens = new Token[](_currentTokenId);\r\n\r\n        for (uint256 i = 0; i < _currentTokenId; i++) {\r\n            allTokens[i] = _tokens[i];\r\n        }\r\n\r\n        return allTokens;\r\n    }\r\n    \r\n    function setBaseURI(string memory baseURI) external onlyOwner() {\r\n        _baseURIextended = baseURI;\r\n    }\r\n    \r\n    function _baseURI() internal view virtual override returns (string memory) {\r\n        return _baseURIextended;\r\n    }\r\n    \r\n    function isSolutionUnique(string memory solution_) public view returns (bool) {\r\n        return _solutionOwners[solution_] == address(0x0);\r\n    }\r\n\r\n    function tokenURI(uint256 tokenId) public view virtual override returns (string memory) {\r\n        require(_exists(tokenId), 'TokenId does not exist');\r\n\r\n        return _tokens[tokenId].url;\r\n    }\r\n\r\n    function mint(\r\n        address payable to,\r\n        string memory solution_,\r\n        string memory tokenURI_\r\n    ) external payable {  \r\n        require(msg.sender == to || msg.sender == _owner, 'Invalid to address');      \r\n        require(msg.value >= _initialPrice, 'Insufficient ether sent with this transaction'); \r\n        require(_solutionOwners[solution_] == address(0x0), 'A token has already been minted with this solution');\r\n        require(_tokenURIOwners[tokenURI_] == address(0x0), 'A token has already been minted with this URI');\r\n        require(bytes(solution_).length >= 5, 'A value for solution is required');\r\n        require(bytes(tokenURI_).length >= 28, 'A value for tokenURI is required'); // https://ipfs.infura.io/ipfs/\r\n\r\n        payable(owner()).transfer(msg.value);\r\n\r\n        _mint(to, _currentTokenId);\r\n\r\n        uint256 newPrice =_getEscalatedPrice(msg.value);\r\n\r\n        Token memory token = Token(_currentTokenId, to, newPrice, _initialPrice, tokenURI_, solution_, false, block.timestamp, 1);\r\n       \r\n        _tokens[_currentTokenId] = token;\r\n        _solutionOwners[solution_] = to;\r\n        _tokenURIOwners[tokenURI_] = to;\r\n        _currentTokenId++;        \r\n        \r\n        emit TokenMinted(solution_, to, _currentTokenId, tokenURI_);\r\n    }\r\n\r\n    function allowSale(\r\n        address from,\r\n        uint256 tokenId,\r\n        uint256 price\r\n    ) external {    \r\n        require(_exists(tokenId), 'TokenId does not exist');   \r\n        require(_msgSender() == from || _msgSender() == _owner, 'Sender must be token owner or contract owner'); \r\n        require(_isApprovedOrOwner(_msgSender(), tokenId), 'Sender must be token owner or contract owner');         \r\n        \r\n        Token memory token = _tokens[tokenId];\r\n        require(_exists(token.id), 'Token does not exist');  \r\n        require(!token.isForSale, 'Token is already marked for sale');\r\n        require(price >= token.price, 'Token cannot be priced less than the current asking price');\r\n        \r\n        token.price = price.div(roundingDivisor).mul(roundingDivisor); // round to nearest 1/1000 eth\r\n        token.isForSale = true;\r\n\r\n        _tokens[tokenId] = token; \r\n\r\n        emit TokenSaleAllowed(token.solution, token.owner, tokenId, token.url, price);\r\n    }\r\n\r\n    function preventSale(\r\n        address from,\r\n        uint256 tokenId\r\n    ) external {   \r\n        require(_exists(tokenId), 'TokenId does not exist');   \r\n        require(_msgSender() == from || _msgSender() == _owner, 'Sender must be token owner or contract owner'); \r\n        require(_isApprovedOrOwner(_msgSender(), tokenId), 'Sender must be token owner or contract owner');    \r\n        \r\n        Token memory token = _tokens[tokenId];\r\n        require(_exists(token.id), 'Token does not exist');  \r\n        require(token.isForSale, 'Token is already prevented from being sold'); \r\n        \r\n        token.isForSale = false;\r\n        \r\n        _tokens[tokenId] = token; \r\n\r\n        emit TokenSalePrevented(token.solution, token.owner, tokenId, token.url);\r\n    }\r\n\r\n    function buy(\r\n        address to,\r\n        uint256 tokenId\r\n    ) external payable {        \r\n        require(_exists(tokenId), 'TokenId does not exist');   \r\n\r\n        Token memory token = _tokens[tokenId];\r\n        require(_exists(token.id), 'Token does not exist');        \r\n        require(msg.value >= token.price, 'Insufficient ether sent with this transaction');\r\n        require(token.isForSale, 'Token is not for sale');\r\n        require(token.owner != to, 'Buyer already owns token'); \r\n       \r\n        string memory solution_ = token.solution;\r\n        string memory tokenURI_ = token.url;\r\n\r\n        uint256 totalRoyalty = _getRoyalty(msg.value); \r\n        uint256 remainder = msg.value - totalRoyalty;\r\n\r\n        payable(owner()).transfer(totalRoyalty);\r\n        payable(address(token.owner)).transfer(remainder);\r\n        \r\n        _transfer(token.owner, to, tokenId);\r\n\r\n        _solutionOwners[solution_] = to;\r\n        _tokenURIOwners[tokenURI_] = to;\r\n\r\n        uint256 newPrice = _getEscalatedPrice(msg.value);\r\n\r\n        token.owner = to;\r\n        token.lastPrice = token.price;\r\n        token.price = newPrice;\r\n        token.isForSale = false;\r\n        token.lastTransactionTimestamp = block.timestamp;\r\n        token.transactionCount++;       \r\n\r\n        _tokens[tokenId] = token; \r\n    }\r\n  \r\n    function _getRoyalty(uint256 value) private view returns (uint256) {\r\n        return value.mul(_royaltyRate).div(10000);\r\n    }\r\n\r\n    function _getEscalatedPrice(uint256 value) private view returns (uint256) {\r\n        uint256 newPrice = value.mul(_priceEscalationRate).div(10000);\r\n\r\n        return newPrice.div(roundingDivisor).mul(roundingDivisor);  // round off new price to nearest 1/1000 eth\r\n    }\r\n  \r\n    // todo how to prevent base _transfer from being called directly\r\n\r\n    function transferFrom(\r\n        address /*from*/,\r\n        address /*to*/,\r\n        uint256 /*tokenId*/\r\n    ) public view override {\r\n        require(_msgSender() == _owner, 'Method may only be called by the owner');\r\n    }\r\n\r\n    function safeTransferFrom(\r\n        address /*from*/,\r\n        address /*to*/,\r\n        uint256 /*tokenId*/\r\n    ) public view override {\r\n        require(_msgSender() == _owner, 'Method may only be called by the owner');\r\n    }\r\n\r\n    function safeTransferFrom(\r\n        address /*from*/,\r\n        address /*to*/,\r\n        uint256 /*tokenId*/,\r\n        bytes memory /*_data*/\r\n    ) public view override {\r\n        require(_msgSender() == _owner, 'Method may only be called by the owner');\r\n    }\r\n}",
  "sourcePath": "C:\\Dev\\Github\\ethordle\\contracts\\EthordleToken.sol",
  "compiler": {
    "name": "solc",
    "version": "0.8.1+commit.df193b15.Emscripten.clang"
  },
  "schemaVersion": "3.4.6",
  "updatedAt": "2022-05-02T15:16:15.819Z",
  "networkType": "ethereum",
  "devdoc": {
    "kind": "dev",
    "methods": {
      "approve(address,uint256)": {
        "details": "See {IERC721-approve}."
      },
      "balanceOf(address)": {
        "details": "See {IERC721-balanceOf}."
      },
      "getApproved(uint256)": {
        "details": "See {IERC721-getApproved}."
      },
      "isApprovedForAll(address,address)": {
        "details": "See {IERC721-isApprovedForAll}."
      },
      "name()": {
        "details": "See {IERC721Metadata-name}."
      },
      "owner()": {
        "details": "Returns the address of the current owner."
      },
      "ownerOf(uint256)": {
        "details": "See {IERC721-ownerOf}."
      },
      "renounceOwnership()": {
        "details": "Leaves the contract without owner. It will not be possible to call `onlyOwner` functions anymore. Can only be called by the current owner. NOTE: Renouncing ownership will leave the contract without an owner, thereby removing any functionality that is only available to the owner."
      },
      "setApprovalForAll(address,bool)": {
        "details": "See {IERC721-setApprovalForAll}."
      },
      "supportsInterface(bytes4)": {
        "details": "See {IERC165-supportsInterface}."
      },
      "symbol()": {
        "details": "See {IERC721Metadata-symbol}."
      },
      "tokenURI(uint256)": {
        "details": "See {IERC721Metadata-tokenURI}."
      },
      "transferOwnership(address)": {
        "details": "Transfers ownership of the contract to a new account (`newOwner`). Can only be called by the current owner."
      }
    },
    "version": 1
  },
  "userdoc": {
    "kind": "user",
    "methods": {},
    "version": 1
  }
}