{
  "contractName": "EthordleToken",
  "abi": [
    {
      "inputs": [
        {
          "internalType": "string",
          "name": "_name",
          "type": "string"
        },
        {
          "internalType": "string",
          "name": "_symbol",
          "type": "string"
        },
        {
          "internalType": "uint256",
          "name": "initialPrice_",
          "type": "uint256"
        },
        {
          "internalType": "uint256",
          "name": "royaltyRate_",
          "type": "uint256"
        },
        {
          "internalType": "uint256",
          "name": "priceEscalationRate_",
          "type": "uint256"
        }
      ],
      "stateMutability": "nonpayable",
      "type": "constructor"
    },
    {
      "anonymous": false,
      "inputs": [
        {
          "indexed": true,
          "internalType": "address",
          "name": "owner",
          "type": "address"
        },
        {
          "indexed": true,
          "internalType": "address",
          "name": "approved",
          "type": "address"
        },
        {
          "indexed": true,
          "internalType": "uint256",
          "name": "tokenId",
          "type": "uint256"
        }
      ],
      "name": "Approval",
      "type": "event"
    },
    {
      "anonymous": false,
      "inputs": [
        {
          "indexed": true,
          "internalType": "address",
          "name": "owner",
          "type": "address"
        },
        {
          "indexed": true,
          "internalType": "address",
          "name": "operator",
          "type": "address"
        },
        {
          "indexed": false,
          "internalType": "bool",
          "name": "approved",
          "type": "bool"
        }
      ],
      "name": "ApprovalForAll",
      "type": "event"
    },
    {
      "anonymous": false,
      "inputs": [
        {
          "indexed": true,
          "internalType": "address",
          "name": "previousOwner",
          "type": "address"
        },
        {
          "indexed": true,
          "internalType": "address",
          "name": "newOwner",
          "type": "address"
        }
      ],
      "name": "OwnershipTransferred",
      "type": "event"
    },
    {
      "anonymous": false,
      "inputs": [
        {
          "indexed": false,
          "internalType": "string",
          "name": "solution",
          "type": "string"
        },
        {
          "indexed": false,
          "internalType": "address",
          "name": "account",
          "type": "address"
        },
        {
          "indexed": false,
          "internalType": "uint256",
          "name": "tokenId",
          "type": "uint256"
        },
        {
          "indexed": false,
          "internalType": "string",
          "name": "metadataURI",
          "type": "string"
        },
        {
          "indexed": false,
          "internalType": "bool",
          "name": "isForSale",
          "type": "bool"
        }
      ],
      "name": "TokenForSaleStatusChanged",
      "type": "event"
    },
    {
      "anonymous": false,
      "inputs": [
        {
          "indexed": false,
          "internalType": "string",
          "name": "solution",
          "type": "string"
        },
        {
          "indexed": false,
          "internalType": "address payable",
          "name": "account",
          "type": "address"
        },
        {
          "indexed": false,
          "internalType": "uint256",
          "name": "tokenId",
          "type": "uint256"
        },
        {
          "indexed": false,
          "internalType": "string",
          "name": "metadataURI",
          "type": "string"
        }
      ],
      "name": "TokenMinted",
      "type": "event"
    },
    {
      "anonymous": false,
      "inputs": [
        {
          "indexed": true,
          "internalType": "address",
          "name": "from",
          "type": "address"
        },
        {
          "indexed": true,
          "internalType": "address",
          "name": "to",
          "type": "address"
        },
        {
          "indexed": true,
          "internalType": "uint256",
          "name": "tokenId",
          "type": "uint256"
        }
      ],
      "name": "Transfer",
      "type": "event"
    },
    {
      "inputs": [
        {
          "internalType": "uint256",
          "name": "",
          "type": "uint256"
        }
      ],
      "name": "_tokens",
      "outputs": [
        {
          "internalType": "uint256",
          "name": "id",
          "type": "uint256"
        },
        {
          "internalType": "address",
          "name": "owner",
          "type": "address"
        },
        {
          "internalType": "uint256",
          "name": "price",
          "type": "uint256"
        },
        {
          "internalType": "string",
          "name": "url",
          "type": "string"
        },
        {
          "internalType": "string",
          "name": "solution",
          "type": "string"
        },
        {
          "internalType": "bool",
          "name": "isForSale",
          "type": "bool"
        },
        {
          "internalType": "uint256",
          "name": "lastTransactionTimestamp",
          "type": "uint256"
        },
        {
          "internalType": "uint256",
          "name": "transactionCount",
          "type": "uint256"
        }
      ],
      "stateMutability": "view",
      "type": "function",
      "constant": true
    },
    {
      "inputs": [
        {
          "internalType": "address",
          "name": "to",
          "type": "address"
        },
        {
          "internalType": "uint256",
          "name": "tokenId",
          "type": "uint256"
        }
      ],
      "name": "approve",
      "outputs": [],
      "stateMutability": "nonpayable",
      "type": "function"
    },
    {
      "inputs": [
        {
          "internalType": "address",
          "name": "owner",
          "type": "address"
        }
      ],
      "name": "balanceOf",
      "outputs": [
        {
          "internalType": "uint256",
          "name": "",
          "type": "uint256"
        }
      ],
      "stateMutability": "view",
      "type": "function",
      "constant": true
    },
    {
      "inputs": [
        {
          "internalType": "uint256",
          "name": "tokenId",
          "type": "uint256"
        }
      ],
      "name": "getApproved",
      "outputs": [
        {
          "internalType": "address",
          "name": "",
          "type": "address"
        }
      ],
      "stateMutability": "view",
      "type": "function",
      "constant": true
    },
    {
      "inputs": [
        {
          "internalType": "address",
          "name": "owner",
          "type": "address"
        },
        {
          "internalType": "address",
          "name": "operator",
          "type": "address"
        }
      ],
      "name": "isApprovedForAll",
      "outputs": [
        {
          "internalType": "bool",
          "name": "",
          "type": "bool"
        }
      ],
      "stateMutability": "view",
      "type": "function",
      "constant": true
    },
    {
      "inputs": [],
      "name": "name",
      "outputs": [
        {
          "internalType": "string",
          "name": "",
          "type": "string"
        }
      ],
      "stateMutability": "view",
      "type": "function",
      "constant": true
    },
    {
      "inputs": [],
      "name": "owner",
      "outputs": [
        {
          "internalType": "address",
          "name": "",
          "type": "address"
        }
      ],
      "stateMutability": "view",
      "type": "function",
      "constant": true
    },
    {
      "inputs": [
        {
          "internalType": "uint256",
          "name": "tokenId",
          "type": "uint256"
        }
      ],
      "name": "ownerOf",
      "outputs": [
        {
          "internalType": "address",
          "name": "",
          "type": "address"
        }
      ],
      "stateMutability": "view",
      "type": "function",
      "constant": true
    },
    {
      "inputs": [],
      "name": "renounceOwnership",
      "outputs": [],
      "stateMutability": "nonpayable",
      "type": "function"
    },
    {
      "inputs": [
        {
          "internalType": "address",
          "name": "operator",
          "type": "address"
        },
        {
          "internalType": "bool",
          "name": "approved",
          "type": "bool"
        }
      ],
      "name": "setApprovalForAll",
      "outputs": [],
      "stateMutability": "nonpayable",
      "type": "function"
    },
    {
      "inputs": [
        {
          "internalType": "bytes4",
          "name": "interfaceId",
          "type": "bytes4"
        }
      ],
      "name": "supportsInterface",
      "outputs": [
        {
          "internalType": "bool",
          "name": "",
          "type": "bool"
        }
      ],
      "stateMutability": "view",
      "type": "function",
      "constant": true
    },
    {
      "inputs": [],
      "name": "symbol",
      "outputs": [
        {
          "internalType": "string",
          "name": "",
          "type": "string"
        }
      ],
      "stateMutability": "view",
      "type": "function",
      "constant": true
    },
    {
      "inputs": [
        {
          "internalType": "address",
          "name": "newOwner",
          "type": "address"
        }
      ],
      "name": "transferOwnership",
      "outputs": [],
      "stateMutability": "nonpayable",
      "type": "function"
    },
    {
      "inputs": [
        {
          "internalType": "uint256",
          "name": "initialPrice_",
          "type": "uint256"
        }
      ],
      "name": "setInitialPrice",
      "outputs": [],
      "stateMutability": "nonpayable",
      "type": "function"
    },
    {
      "inputs": [],
      "name": "initialPrice",
      "outputs": [
        {
          "internalType": "uint256",
          "name": "",
          "type": "uint256"
        }
      ],
      "stateMutability": "view",
      "type": "function",
      "constant": true
    },
    {
      "inputs": [
        {
          "internalType": "uint256",
          "name": "royaltyRate_",
          "type": "uint256"
        }
      ],
      "name": "setRoyaltyRate",
      "outputs": [],
      "stateMutability": "nonpayable",
      "type": "function"
    },
    {
      "inputs": [],
      "name": "royaltyRate",
      "outputs": [
        {
          "internalType": "uint256",
          "name": "",
          "type": "uint256"
        }
      ],
      "stateMutability": "view",
      "type": "function",
      "constant": true
    },
    {
      "inputs": [
        {
          "internalType": "uint256",
          "name": "priceEscalationRate_",
          "type": "uint256"
        }
      ],
      "name": "setPriceEscalationRate",
      "outputs": [],
      "stateMutability": "nonpayable",
      "type": "function"
    },
    {
      "inputs": [],
      "name": "priceEscalationRate",
      "outputs": [
        {
          "internalType": "uint256",
          "name": "",
          "type": "uint256"
        }
      ],
      "stateMutability": "view",
      "type": "function",
      "constant": true
    },
    {
      "inputs": [],
      "name": "tokenCount",
      "outputs": [
        {
          "internalType": "uint256",
          "name": "",
          "type": "uint256"
        }
      ],
      "stateMutability": "view",
      "type": "function",
      "constant": true
    },
    {
      "inputs": [
        {
          "internalType": "uint256",
          "name": "tokenId",
          "type": "uint256"
        }
      ],
      "name": "tokenById",
      "outputs": [
        {
          "components": [
            {
              "internalType": "uint256",
              "name": "id",
              "type": "uint256"
            },
            {
              "internalType": "address",
              "name": "owner",
              "type": "address"
            },
            {
              "internalType": "uint256",
              "name": "price",
              "type": "uint256"
            },
            {
              "internalType": "string",
              "name": "url",
              "type": "string"
            },
            {
              "internalType": "string",
              "name": "solution",
              "type": "string"
            },
            {
              "internalType": "bool",
              "name": "isForSale",
              "type": "bool"
            },
            {
              "internalType": "uint256",
              "name": "lastTransactionTimestamp",
              "type": "uint256"
            },
            {
              "internalType": "uint256",
              "name": "transactionCount",
              "type": "uint256"
            }
          ],
          "internalType": "struct EthordleToken.Token",
          "name": "",
          "type": "tuple"
        }
      ],
      "stateMutability": "view",
      "type": "function",
      "constant": true
    },
    {
      "inputs": [
        {
          "internalType": "address",
          "name": "_from",
          "type": "address"
        }
      ],
      "name": "tokensOfOwner",
      "outputs": [
        {
          "components": [
            {
              "internalType": "uint256",
              "name": "id",
              "type": "uint256"
            },
            {
              "internalType": "address",
              "name": "owner",
              "type": "address"
            },
            {
              "internalType": "uint256",
              "name": "price",
              "type": "uint256"
            },
            {
              "internalType": "string",
              "name": "url",
              "type": "string"
            },
            {
              "internalType": "string",
              "name": "solution",
              "type": "string"
            },
            {
              "internalType": "bool",
              "name": "isForSale",
              "type": "bool"
            },
            {
              "internalType": "uint256",
              "name": "lastTransactionTimestamp",
              "type": "uint256"
            },
            {
              "internalType": "uint256",
              "name": "transactionCount",
              "type": "uint256"
            }
          ],
          "internalType": "struct EthordleToken.Token[]",
          "name": "",
          "type": "tuple[]"
        }
      ],
      "stateMutability": "view",
      "type": "function",
      "constant": true
    },
    {
      "inputs": [],
      "name": "tokens",
      "outputs": [
        {
          "components": [
            {
              "internalType": "uint256",
              "name": "id",
              "type": "uint256"
            },
            {
              "internalType": "address",
              "name": "owner",
              "type": "address"
            },
            {
              "internalType": "uint256",
              "name": "price",
              "type": "uint256"
            },
            {
              "internalType": "string",
              "name": "url",
              "type": "string"
            },
            {
              "internalType": "string",
              "name": "solution",
              "type": "string"
            },
            {
              "internalType": "bool",
              "name": "isForSale",
              "type": "bool"
            },
            {
              "internalType": "uint256",
              "name": "lastTransactionTimestamp",
              "type": "uint256"
            },
            {
              "internalType": "uint256",
              "name": "transactionCount",
              "type": "uint256"
            }
          ],
          "internalType": "struct EthordleToken.Token[]",
          "name": "",
          "type": "tuple[]"
        }
      ],
      "stateMutability": "view",
      "type": "function",
      "constant": true
    },
    {
      "inputs": [
        {
          "internalType": "string",
          "name": "baseURI",
          "type": "string"
        }
      ],
      "name": "setBaseURI",
      "outputs": [],
      "stateMutability": "nonpayable",
      "type": "function"
    },
    {
      "inputs": [
        {
          "internalType": "string",
          "name": "solution_",
          "type": "string"
        }
      ],
      "name": "isSolutionUnique",
      "outputs": [
        {
          "internalType": "bool",
          "name": "",
          "type": "bool"
        }
      ],
      "stateMutability": "view",
      "type": "function",
      "constant": true
    },
    {
      "inputs": [
        {
          "internalType": "uint256",
          "name": "tokenId",
          "type": "uint256"
        }
      ],
      "name": "tokenURI",
      "outputs": [
        {
          "internalType": "string",
          "name": "",
          "type": "string"
        }
      ],
      "stateMutability": "view",
      "type": "function",
      "constant": true
    },
    {
      "inputs": [
        {
          "internalType": "address payable",
          "name": "to",
          "type": "address"
        },
        {
          "internalType": "string",
          "name": "solution_",
          "type": "string"
        },
        {
          "internalType": "string",
          "name": "tokenURI_",
          "type": "string"
        }
      ],
      "name": "mint",
      "outputs": [],
      "stateMutability": "payable",
      "type": "function",
      "payable": true
    },
    {
      "inputs": [
        {
          "internalType": "address",
          "name": "from",
          "type": "address"
        },
        {
          "internalType": "uint256",
          "name": "tokenId",
          "type": "uint256"
        }
      ],
      "name": "allowSale",
      "outputs": [],
      "stateMutability": "nonpayable",
      "type": "function"
    },
    {
      "inputs": [
        {
          "internalType": "address",
          "name": "from",
          "type": "address"
        },
        {
          "internalType": "uint256",
          "name": "tokenId",
          "type": "uint256"
        }
      ],
      "name": "preventSale",
      "outputs": [],
      "stateMutability": "nonpayable",
      "type": "function"
    },
    {
      "inputs": [
        {
          "internalType": "address",
          "name": "to",
          "type": "address"
        },
        {
          "internalType": "uint256",
          "name": "tokenId",
          "type": "uint256"
        }
      ],
      "name": "buy",
      "outputs": [],
      "stateMutability": "payable",
      "type": "function",
      "payable": true
    },
    {
      "inputs": [
        {
          "internalType": "address",
          "name": "",
          "type": "address"
        },
        {
          "internalType": "address",
          "name": "",
          "type": "address"
        },
        {
          "internalType": "uint256",
          "name": "",
          "type": "uint256"
        }
      ],
      "name": "transferFrom",
      "outputs": [],
      "stateMutability": "view",
      "type": "function",
      "constant": true
    },
    {
      "inputs": [
        {
          "internalType": "address",
          "name": "",
          "type": "address"
        },
        {
          "internalType": "address",
          "name": "",
          "type": "address"
        },
        {
          "internalType": "uint256",
          "name": "",
          "type": "uint256"
        }
      ],
      "name": "safeTransferFrom",
      "outputs": [],
      "stateMutability": "view",
      "type": "function",
      "constant": true
    },
    {
      "inputs": [
        {
          "internalType": "address",
          "name": "",
          "type": "address"
        },
        {
          "internalType": "address",
          "name": "",
          "type": "address"
        },
        {
          "internalType": "uint256",
          "name": "",
          "type": "uint256"
        },
        {
          "internalType": "bytes",
          "name": "",
          "type": "bytes"
        }
      ],
      "name": "safeTransferFrom",
      "outputs": [],
      "stateMutability": "view",
      "type": "function",
      "constant": true
    }
  ],
  "bytecode": "0x60806040523480156200001157600080fd5b5060405162005cc838038062005cc88339818101604052810190620000379190620002fd565b8484816000908051906020019062000051929190620001c4565b5080600190805190602001906200006a929190620001c4565b5050506200008d62000081620000f660201b60201c565b620000fe60201b60201c565b33600a60006101000a81548173ffffffffffffffffffffffffffffffffffffffff021916908373ffffffffffffffffffffffffffffffffffffffff1602179055506000600e8190555082600b8190555081600c8190555080600d81905550505050505062000545565b600033905090565b6000600660009054906101000a900473ffffffffffffffffffffffffffffffffffffffff16905081600660006101000a81548173ffffffffffffffffffffffffffffffffffffffff021916908373ffffffffffffffffffffffffffffffffffffffff1602179055508173ffffffffffffffffffffffffffffffffffffffff168173ffffffffffffffffffffffffffffffffffffffff167f8be0079c531659141344cd1fd0a4f28419497f9722a3daafe3b4186f6b6457e060405160405180910390a35050565b828054620001d29062000450565b90600052602060002090601f016020900481019282620001f6576000855562000242565b82601f106200021157805160ff191683800117855562000242565b8280016001018555821562000242579182015b828111156200024157825182559160200191906001019062000224565b5b50905062000251919062000255565b5090565b5b808211156200027057600081600090555060010162000256565b5090565b60006200028b6200028584620003da565b620003b1565b905082815260208101848484011115620002a457600080fd5b620002b18482856200041a565b509392505050565b600082601f830112620002cb57600080fd5b8151620002dd84826020860162000274565b91505092915050565b600081519050620002f7816200052b565b92915050565b600080600080600060a086880312156200031657600080fd5b600086015167ffffffffffffffff8111156200033157600080fd5b6200033f88828901620002b9565b955050602086015167ffffffffffffffff8111156200035d57600080fd5b6200036b88828901620002b9565b94505060406200037e88828901620002e6565b93505060606200039188828901620002e6565b9250506080620003a488828901620002e6565b9150509295509295909350565b6000620003bd620003d0565b9050620003cb828262000486565b919050565b6000604051905090565b600067ffffffffffffffff821115620003f857620003f7620004eb565b5b62000403826200051a565b9050602081019050919050565b6000819050919050565b60005b838110156200043a5780820151818401526020810190506200041d565b838111156200044a576000848401525b50505050565b600060028204905060018216806200046957607f821691505b6020821081141562000480576200047f620004bc565b5b50919050565b62000491826200051a565b810181811067ffffffffffffffff82111715620004b357620004b2620004eb565b5b80604052505050565b7f4e487b7100000000000000000000000000000000000000000000000000000000600052602260045260246000fd5b7f4e487b7100000000000000000000000000000000000000000000000000000000600052604160045260246000fd5b6000601f19601f8301169050919050565b620005368162000410565b81146200054257600080fd5b50565b61577380620005556000396000f3fe6080604052600436106101ee5760003560e01c80638da5cb5b1161010d578063a22cb465116100a0578063c87b56dd1161006f578063c87b56dd146106ec578063cce7ec1314610729578063e985e9c514610745578063ed70554d14610782578063f2fde38b146107c6576101ee565b8063a22cb46514610632578063a5a025841461065b578063b88d4fde14610698578063c4d1510d146106c1576101ee565b80639d9504f9116100dc5780639d9504f91461058c5780639f181b5e146105b55780639f4ba0ee146105e0578063a129ece914610609576101ee565b80638da5cb5b146104ef57806395d89b411461051a57806399071190146105455780639d63848a14610561576101ee565b806355f804b31161018557806370a082311161015457806370a0823114610433578063715018a614610470578063755381f7146104875780638462151c146104b2576101ee565b806355f804b3146103675780636352211e146103905780636840a4b6146103cd5780636b6af2d5146103f6576101ee565b80631d0806ae116101c15780631d0806ae146102c157806323b872dd146102ec57806342842e0e14610315578063537782a21461033e576101ee565b806301ffc9a7146101f357806306fdde0314610230578063081812fc1461025b578063095ea7b314610298575b600080fd5b3480156101ff57600080fd5b5061021a60048036038101906102159190613fe2565b6107ef565b6040516102279190614737565b60405180910390f35b34801561023c57600080fd5b506102456108d1565b6040516102529190614752565b60405180910390f35b34801561026757600080fd5b50610282600480360381019061027d919061404c565b610963565b60405161028f91906146fa565b60405180910390f35b3480156102a457600080fd5b506102bf60048036038101906102ba9190613f65565b6109e8565b005b3480156102cd57600080fd5b506102d6610b00565b6040516102e39190614b6a565b60405180910390f35b3480156102f857600080fd5b50610313600480360381019061030e9190613e5f565b610b0a565b005b34801561032157600080fd5b5061033c60048036038101906103379190613e5f565b610ba6565b005b34801561034a57600080fd5b506103656004803603810190610360919061404c565b610c42565b005b34801561037357600080fd5b5061038e6004803603810190610389919061400b565b610cc8565b005b34801561039c57600080fd5b506103b760048036038101906103b2919061404c565b610d5e565b6040516103c491906146fa565b60405180910390f35b3480156103d957600080fd5b506103f460048036038101906103ef9190613f65565b610e10565b005b34801561040257600080fd5b5061041d6004803603810190610418919061404c565b610e20565b60405161042a9190614b48565b60405180910390f35b34801561043f57600080fd5b5061045a60048036038101906104559190613d7b565b6110a1565b6040516104679190614b6a565b60405180910390f35b34801561047c57600080fd5b50610485611159565b005b34801561049357600080fd5b5061049c6111e1565b6040516104a99190614b6a565b60405180910390f35b3480156104be57600080fd5b506104d960048036038101906104d49190613d7b565b6111eb565b6040516104e69190614715565b60405180910390f35b3480156104fb57600080fd5b50610504611443565b60405161051191906146fa565b60405180910390f35b34801561052657600080fd5b5061052f61146d565b60405161053c9190614752565b60405180910390f35b61055f600480360381019061055a9190613da4565b6114ff565b005b34801561056d57600080fd5b50610576611aa9565b6040516105839190614715565b60405180910390f35b34801561059857600080fd5b506105b360048036038101906105ae9190613f65565b611d73565b005b3480156105c157600080fd5b506105ca611d83565b6040516105d79190614b6a565b60405180910390f35b3480156105ec57600080fd5b506106076004803603810190610602919061404c565b611d8d565b005b34801561061557600080fd5b50610630600480360381019061062b919061404c565b611e13565b005b34801561063e57600080fd5b5061065960048036038101906106549190613f29565b611e99565b005b34801561066757600080fd5b50610682600480360381019061067d919061400b565b611eaf565b60405161068f9190614737565b60405180910390f35b3480156106a457600080fd5b506106bf60048036038101906106ba9190613eae565b611f25565b005b3480156106cd57600080fd5b506106d6611fc2565b6040516106e39190614b6a565b60405180910390f35b3480156106f857600080fd5b50610713600480360381019061070e919061404c565b611fcc565b6040516107209190614752565b60405180910390f35b610743600480360381019061073e9190613f65565b6120bc565b005b34801561075157600080fd5b5061076c60048036038101906107679190613e23565b612729565b6040516107799190614737565b60405180910390f35b34801561078e57600080fd5b506107a960048036038101906107a4919061404c565b6127bd565b6040516107bd989796959493929190614b85565b60405180910390f35b3480156107d257600080fd5b506107ed60048036038101906107e89190613d7b565b612942565b005b60007f80ac58cd000000000000000000000000000000000000000000000000000000007bffffffffffffffffffffffffffffffffffffffffffffffffffffffff1916827bffffffffffffffffffffffffffffffffffffffffffffffffffffffff191614806108ba57507f5b5e139f000000000000000000000000000000000000000000000000000000007bffffffffffffffffffffffffffffffffffffffffffffffffffffffff1916827bffffffffffffffffffffffffffffffffffffffffffffffffffffffff1916145b806108ca57506108c982612a3a565b5b9050919050565b6060600080546108e090614f12565b80601f016020809104026020016040519081016040528092919081815260200182805461090c90614f12565b80156109595780601f1061092e57610100808354040283529160200191610959565b820191906000526020600020905b81548152906001019060200180831161093c57829003601f168201915b5050505050905090565b600061096e82612aa4565b6109ad576040517f08c379a00000000000000000000000000000000000000000000000000000000081526004016109a490614a28565b60405180910390fd5b6004600083815260200190815260200160002060009054906101000a900473ffffffffffffffffffffffffffffffffffffffff169050919050565b60006109f382610d5e565b90508073ffffffffffffffffffffffffffffffffffffffff168373ffffffffffffffffffffffffffffffffffffffff161415610a64576040517f08c379a0000000000000000000000000000000000000000000000000000000008152600401610a5b90614ac8565b60405180910390fd5b8073ffffffffffffffffffffffffffffffffffffffff16610a83612b10565b73ffffffffffffffffffffffffffffffffffffffff161480610ab25750610ab181610aac612b10565b612729565b5b610af1576040517f08c379a0000000000000000000000000000000000000000000000000000000008152600401610ae890614988565b60405180910390fd5b610afb8383612b18565b505050565b6000600b54905090565b600a60009054906101000a900473ffffffffffffffffffffffffffffffffffffffff1673ffffffffffffffffffffffffffffffffffffffff16610b4b612b10565b73ffffffffffffffffffffffffffffffffffffffff1614610ba1576040517f08c379a0000000000000000000000000000000000000000000000000000000008152600401610b98906148e8565b60405180910390fd5b505050565b600a60009054906101000a900473ffffffffffffffffffffffffffffffffffffffff1673ffffffffffffffffffffffffffffffffffffffff16610be7612b10565b73ffffffffffffffffffffffffffffffffffffffff1614610c3d576040517f08c379a0000000000000000000000000000000000000000000000000000000008152600401610c34906148e8565b60405180910390fd5b505050565b610c4a612b10565b73ffffffffffffffffffffffffffffffffffffffff16610c68611443565b73ffffffffffffffffffffffffffffffffffffffff1614610cbe576040517f08c379a0000000000000000000000000000000000000000000000000000000008152600401610cb590614aa8565b60405180910390fd5b80600c8190555050565b610cd0612b10565b73ffffffffffffffffffffffffffffffffffffffff16610cee611443565b73ffffffffffffffffffffffffffffffffffffffff1614610d44576040517f08c379a0000000000000000000000000000000000000000000000000000000008152600401610d3b90614aa8565b60405180910390fd5b80600f9080519060200190610d5a92919061391e565b5050565b6000806002600084815260200190815260200160002060009054906101000a900473ffffffffffffffffffffffffffffffffffffffff169050600073ffffffffffffffffffffffffffffffffffffffff168173ffffffffffffffffffffffffffffffffffffffff161415610e07576040517f08c379a0000000000000000000000000000000000000000000000000000000008152600401610dfe906149c8565b60405180910390fd5b80915050919050565b610e1c82826001612bd1565b5050565b610e286139a4565b610e3182612aa4565b610e70576040517f08c379a0000000000000000000000000000000000000000000000000000000008152600401610e6790614ae8565b60405180910390fd5b60006007600084815260200190815260200160002060405180610100016040529081600082015481526020016001820160009054906101000a900473ffffffffffffffffffffffffffffffffffffffff1673ffffffffffffffffffffffffffffffffffffffff1673ffffffffffffffffffffffffffffffffffffffff16815260200160028201548152602001600382018054610f0b90614f12565b80601f0160208091040260200160405190810160405280929190818152602001828054610f3790614f12565b8015610f845780601f10610f5957610100808354040283529160200191610f84565b820191906000526020600020905b815481529060010190602001808311610f6757829003601f168201915b50505050508152602001600482018054610f9d90614f12565b80601f0160208091040260200160405190810160405280929190818152602001828054610fc990614f12565b80156110165780601f10610feb57610100808354040283529160200191611016565b820191906000526020600020905b815481529060010190602001808311610ff957829003601f168201915b505050505081526020016005820160009054906101000a900460ff1615151515815260200160068201548152602001600782015481525050905061105983612aa4565b611098576040517f08c379a000000000000000000000000000000000000000000000000000000000815260040161108f90614908565b60405180910390fd5b80915050919050565b60008073ffffffffffffffffffffffffffffffffffffffff168273ffffffffffffffffffffffffffffffffffffffff161415611112576040517f08c379a0000000000000000000000000000000000000000000000000000000008152600401611109906149a8565b60405180910390fd5b600360008373ffffffffffffffffffffffffffffffffffffffff1673ffffffffffffffffffffffffffffffffffffffff168152602001908152602001600020549050919050565b611161612b10565b73ffffffffffffffffffffffffffffffffffffffff1661117f611443565b73ffffffffffffffffffffffffffffffffffffffff16146111d5576040517f08c379a00000000000000000000000000000000000000000000000000000000081526004016111cc90614aa8565b60405180910390fd5b6111df6000613152565b565b6000600d54905090565b606060006111f8836110a1565b90506000808267ffffffffffffffff81111561123d577f4e487b7100000000000000000000000000000000000000000000000000000000600052604160045260246000fd5b60405190808252806020026020018201604052801561127657816020015b6112636139a4565b81526020019060019003908161125b5790505b50905060008311156114385760003073ffffffffffffffffffffffffffffffffffffffff16639d63848a6040518163ffffffff1660e01b815260040160006040518083038186803b1580156112ca57600080fd5b505afa1580156112de573d6000803e3d6000fd5b505050506040513d6000823e3d601f19601f820116820180604052508101906113079190613fa1565b905060005b600e54811015611435578673ffffffffffffffffffffffffffffffffffffffff16828281518110611366577f4e487b7100000000000000000000000000000000000000000000000000000000600052603260045260246000fd5b60200260200101516020015173ffffffffffffffffffffffffffffffffffffffff161415611422578181815181106113c7577f4e487b7100000000000000000000000000000000000000000000000000000000600052603260045260246000fd5b6020026020010151838581518110611408577f4e487b7100000000000000000000000000000000000000000000000000000000600052603260045260246000fd5b6020026020010181905250838061141e90614f75565b9450505b808061142d90614f75565b91505061130c565b50505b809350505050919050565b6000600660009054906101000a900473ffffffffffffffffffffffffffffffffffffffff16905090565b60606001805461147c90614f12565b80601f01602080910402602001604051908101604052809291908181526020018280546114a890614f12565b80156114f55780601f106114ca576101008083540402835291602001916114f5565b820191906000526020600020905b8154815290600101906020018083116114d857829003601f168201915b5050505050905090565b8273ffffffffffffffffffffffffffffffffffffffff163373ffffffffffffffffffffffffffffffffffffffff1614806115865750600a60009054906101000a900473ffffffffffffffffffffffffffffffffffffffff1673ffffffffffffffffffffffffffffffffffffffff163373ffffffffffffffffffffffffffffffffffffffff16145b6115c5576040517f08c379a00000000000000000000000000000000000000000000000000000000081526004016115bc90614a88565b60405180910390fd5b600b5434101561160a576040517f08c379a000000000000000000000000000000000000000000000000000000000815260040161160190614b08565b60405180910390fd5b600073ffffffffffffffffffffffffffffffffffffffff1660088360405161163291906146e3565b908152602001604051809103902060009054906101000a900473ffffffffffffffffffffffffffffffffffffffff1673ffffffffffffffffffffffffffffffffffffffff16146116b7576040517f08c379a00000000000000000000000000000000000000000000000000000000081526004016116ae906149e8565b60405180910390fd5b600073ffffffffffffffffffffffffffffffffffffffff166009826040516116df91906146e3565b908152602001604051809103902060009054906101000a900473ffffffffffffffffffffffffffffffffffffffff1673ffffffffffffffffffffffffffffffffffffffff1614611764576040517f08c379a000000000000000000000000000000000000000000000000000000000815260040161175b90614828565b60405180910390fd5b6005825110156117a9576040517f08c379a00000000000000000000000000000000000000000000000000000000081526004016117a090614a68565b60405180910390fd5b601c815110156117ee576040517f08c379a00000000000000000000000000000000000000000000000000000000081526004016117e590614b28565b60405180910390fd5b6117f6611443565b73ffffffffffffffffffffffffffffffffffffffff166108fc349081150290604051600060405180830381858888f1935050505015801561183b573d6000803e3d6000fd5b5061184883600e54613218565b6000611853346133f2565b90506000604051806101000160405280600e5481526020018673ffffffffffffffffffffffffffffffffffffffff168152602001838152602001848152602001858152602001600015158152602001428152602001600181525090508060076000600e5481526020019081526020016000206000820151816000015560208201518160010160006101000a81548173ffffffffffffffffffffffffffffffffffffffff021916908373ffffffffffffffffffffffffffffffffffffffff16021790555060408201518160020155606082015181600301908051906020019061193c92919061391e565b50608082015181600401908051906020019061195992919061391e565b5060a08201518160050160006101000a81548160ff02191690831515021790555060c0820151816006015560e08201518160070155905050846008856040516119a291906146e3565b908152602001604051809103902060006101000a81548173ffffffffffffffffffffffffffffffffffffffff021916908373ffffffffffffffffffffffffffffffffffffffff160217905550846009846040516119ff91906146e3565b908152602001604051809103902060006101000a81548173ffffffffffffffffffffffffffffffffffffffff021916908373ffffffffffffffffffffffffffffffffffffffff160217905550600e6000815480929190611a5e90614f75565b91905055507f69e2cadceb55416f48e5a82e3641de7889495c2e02c86d37aaa313d121e8e7428486600e5486604051611a9a9493929190614774565b60405180910390a15050505050565b60606000600e5467ffffffffffffffff811115611aef577f4e487b7100000000000000000000000000000000000000000000000000000000600052604160045260246000fd5b604051908082528060200260200182016040528015611b2857816020015b611b156139a4565b815260200190600190039081611b0d5790505b50905060005b600e54811015611d6b576007600082815260200190815260200160002060405180610100016040529081600082015481526020016001820160009054906101000a900473ffffffffffffffffffffffffffffffffffffffff1673ffffffffffffffffffffffffffffffffffffffff1673ffffffffffffffffffffffffffffffffffffffff16815260200160028201548152602001600382018054611bd190614f12565b80601f0160208091040260200160405190810160405280929190818152602001828054611bfd90614f12565b8015611c4a5780601f10611c1f57610100808354040283529160200191611c4a565b820191906000526020600020905b815481529060010190602001808311611c2d57829003601f168201915b50505050508152602001600482018054611c6390614f12565b80601f0160208091040260200160405190810160405280929190818152602001828054611c8f90614f12565b8015611cdc5780601f10611cb157610100808354040283529160200191611cdc565b820191906000526020600020905b815481529060010190602001808311611cbf57829003601f168201915b505050505081526020016005820160009054906101000a900460ff1615151515815260200160068201548152602001600782015481525050828281518110611d4d577f4e487b7100000000000000000000000000000000000000000000000000000000600052603260045260246000fd5b60200260200101819052508080611d6390614f75565b915050611b2e565b508091505090565b611d7f82826000612bd1565b5050565b6000600e54905090565b611d95612b10565b73ffffffffffffffffffffffffffffffffffffffff16611db3611443565b73ffffffffffffffffffffffffffffffffffffffff1614611e09576040517f08c379a0000000000000000000000000000000000000000000000000000000008152600401611e0090614aa8565b60405180910390fd5b80600b8190555050565b611e1b612b10565b73ffffffffffffffffffffffffffffffffffffffff16611e39611443565b73ffffffffffffffffffffffffffffffffffffffff1614611e8f576040517f08c379a0000000000000000000000000000000000000000000000000000000008152600401611e8690614aa8565b60405180910390fd5b80600d8190555050565b611eab611ea4612b10565b838361343e565b5050565b60008073ffffffffffffffffffffffffffffffffffffffff16600883604051611ed891906146e3565b908152602001604051809103902060009054906101000a900473ffffffffffffffffffffffffffffffffffffffff1673ffffffffffffffffffffffffffffffffffffffff16149050919050565b600a60009054906101000a900473ffffffffffffffffffffffffffffffffffffffff1673ffffffffffffffffffffffffffffffffffffffff16611f66612b10565b73ffffffffffffffffffffffffffffffffffffffff1614611fbc576040517f08c379a0000000000000000000000000000000000000000000000000000000008152600401611fb3906148e8565b60405180910390fd5b50505050565b6000600c54905090565b6060611fd782612aa4565b612016576040517f08c379a000000000000000000000000000000000000000000000000000000000815260040161200d90614ae8565b60405180910390fd5b60076000838152602001908152602001600020600301805461203790614f12565b80601f016020809104026020016040519081016040528092919081815260200182805461206390614f12565b80156120b05780601f10612085576101008083540402835291602001916120b0565b820191906000526020600020905b81548152906001019060200180831161209357829003601f168201915b50505050509050919050565b6120c581612aa4565b612104576040517f08c379a00000000000000000000000000000000000000000000000000000000081526004016120fb90614ae8565b60405180910390fd5b60006007600083815260200190815260200160002060405180610100016040529081600082015481526020016001820160009054906101000a900473ffffffffffffffffffffffffffffffffffffffff1673ffffffffffffffffffffffffffffffffffffffff1673ffffffffffffffffffffffffffffffffffffffff1681526020016002820154815260200160038201805461219f90614f12565b80601f01602080910402602001604051908101604052809291908181526020018280546121cb90614f12565b80156122185780601f106121ed57610100808354040283529160200191612218565b820191906000526020600020905b8154815290600101906020018083116121fb57829003601f168201915b5050505050815260200160048201805461223190614f12565b80601f016020809104026020016040519081016040528092919081815260200182805461225d90614f12565b80156122aa5780601f1061227f576101008083540402835291602001916122aa565b820191906000526020600020905b81548152906001019060200180831161228d57829003601f168201915b505050505081526020016005820160009054906101000a900460ff161515151581526020016006820154815260200160078201548152505090506122f18160000151612aa4565b612330576040517f08c379a000000000000000000000000000000000000000000000000000000000815260040161232790614908565b60405180910390fd5b8060400151341015612377576040517f08c379a000000000000000000000000000000000000000000000000000000000815260040161236e90614b08565b60405180910390fd5b8060a001516123bb576040517f08c379a00000000000000000000000000000000000000000000000000000000081526004016123b290614a48565b60405180910390fd5b8273ffffffffffffffffffffffffffffffffffffffff16816020015173ffffffffffffffffffffffffffffffffffffffff16141561242e576040517f08c379a000000000000000000000000000000000000000000000000000000000815260040161242590614968565b60405180910390fd5b600081608001519050600082606001519050600061244b346135ab565b90506000813461245b9190614e16565b9050612465611443565b73ffffffffffffffffffffffffffffffffffffffff166108fc839081150290604051600060405180830381858888f193505050501580156124aa573d6000803e3d6000fd5b50846020015173ffffffffffffffffffffffffffffffffffffffff166108fc829081150290604051600060405180830381858888f193505050501580156124f5573d6000803e3d6000fd5b50612505856020015188886135cf565b8660088560405161251691906146e3565b908152602001604051809103902060006101000a81548173ffffffffffffffffffffffffffffffffffffffff021916908373ffffffffffffffffffffffffffffffffffffffff1602179055508660098460405161257391906146e3565b908152602001604051809103902060006101000a81548173ffffffffffffffffffffffffffffffffffffffff021916908373ffffffffffffffffffffffffffffffffffffffff16021790555060006125ca346133f2565b905087866020019073ffffffffffffffffffffffffffffffffffffffff16908173ffffffffffffffffffffffffffffffffffffffff16815250508086604001818152505060008660a0019015159081151581525050428660c00181815250508560e001805180919061263b90614f75565b8152505085600760008981526020019081526020016000206000820151816000015560208201518160010160006101000a81548173ffffffffffffffffffffffffffffffffffffffff021916908373ffffffffffffffffffffffffffffffffffffffff1602179055506040820151816002015560608201518160030190805190602001906126ca92919061391e565b5060808201518160040190805190602001906126e792919061391e565b5060a08201518160050160006101000a81548160ff02191690831515021790555060c0820151816006015560e082015181600701559050505050505050505050565b6000600560008473ffffffffffffffffffffffffffffffffffffffff1673ffffffffffffffffffffffffffffffffffffffff16815260200190815260200160002060008373ffffffffffffffffffffffffffffffffffffffff1673ffffffffffffffffffffffffffffffffffffffff16815260200190815260200160002060009054906101000a900460ff16905092915050565b60076020528060005260406000206000915090508060000154908060010160009054906101000a900473ffffffffffffffffffffffffffffffffffffffff169080600201549080600301805461281290614f12565b80601f016020809104026020016040519081016040528092919081815260200182805461283e90614f12565b801561288b5780601f106128605761010080835404028352916020019161288b565b820191906000526020600020905b81548152906001019060200180831161286e57829003601f168201915b5050505050908060040180546128a090614f12565b80601f01602080910402602001604051908101604052809291908181526020018280546128cc90614f12565b80156129195780601f106128ee57610100808354040283529160200191612919565b820191906000526020600020905b8154815290600101906020018083116128fc57829003601f168201915b5050505050908060050160009054906101000a900460ff16908060060154908060070154905088565b61294a612b10565b73ffffffffffffffffffffffffffffffffffffffff16612968611443565b73ffffffffffffffffffffffffffffffffffffffff16146129be576040517f08c379a00000000000000000000000000000000000000000000000000000000081526004016129b590614aa8565b60405180910390fd5b600073ffffffffffffffffffffffffffffffffffffffff168173ffffffffffffffffffffffffffffffffffffffff161415612a2e576040517f08c379a0000000000000000000000000000000000000000000000000000000008152600401612a2590614848565b60405180910390fd5b612a3781613152565b50565b60007f01ffc9a7000000000000000000000000000000000000000000000000000000007bffffffffffffffffffffffffffffffffffffffffffffffffffffffff1916827bffffffffffffffffffffffffffffffffffffffffffffffffffffffff1916149050919050565b60008073ffffffffffffffffffffffffffffffffffffffff166002600084815260200190815260200160002060009054906101000a900473ffffffffffffffffffffffffffffffffffffffff1673ffffffffffffffffffffffffffffffffffffffff1614159050919050565b600033905090565b816004600083815260200190815260200160002060006101000a81548173ffffffffffffffffffffffffffffffffffffffff021916908373ffffffffffffffffffffffffffffffffffffffff160217905550808273ffffffffffffffffffffffffffffffffffffffff16612b8b83610d5e565b73ffffffffffffffffffffffffffffffffffffffff167f8c5be1e5ebec7d5bd14f71427d1e84f3dd0314c0f7b2291e5b200ac8c7c3b92560405160405180910390a45050565b612bda82612aa4565b612c19576040517f08c379a0000000000000000000000000000000000000000000000000000000008152600401612c1090614ae8565b60405180910390fd5b8273ffffffffffffffffffffffffffffffffffffffff16612c38612b10565b73ffffffffffffffffffffffffffffffffffffffff161480612cae5750600a60009054906101000a900473ffffffffffffffffffffffffffffffffffffffff1673ffffffffffffffffffffffffffffffffffffffff16612c96612b10565b73ffffffffffffffffffffffffffffffffffffffff16145b612ced576040517f08c379a0000000000000000000000000000000000000000000000000000000008152600401612ce490614948565b60405180910390fd5b612cfe612cf8612b10565b83613836565b612d3d576040517f08c379a0000000000000000000000000000000000000000000000000000000008152600401612d3490614948565b60405180910390fd5b60006007600084815260200190815260200160002060405180610100016040529081600082015481526020016001820160009054906101000a900473ffffffffffffffffffffffffffffffffffffffff1673ffffffffffffffffffffffffffffffffffffffff1673ffffffffffffffffffffffffffffffffffffffff16815260200160028201548152602001600382018054612dd890614f12565b80601f0160208091040260200160405190810160405280929190818152602001828054612e0490614f12565b8015612e515780601f10612e2657610100808354040283529160200191612e51565b820191906000526020600020905b815481529060010190602001808311612e3457829003601f168201915b50505050508152602001600482018054612e6a90614f12565b80601f0160208091040260200160405190810160405280929190818152602001828054612e9690614f12565b8015612ee35780601f10612eb857610100808354040283529160200191612ee3565b820191906000526020600020905b815481529060010190602001808311612ec657829003601f168201915b505050505081526020016005820160009054906101000a900460ff16151515158152602001600682015481526020016007820154815250509050612f2a8160000151612aa4565b612f69576040517f08c379a0000000000000000000000000000000000000000000000000000000008152600401612f6090614908565b60405180910390fd5b8060a001511515821515141582612f98576040518060600160405280602a8152602001615714602a9139612fcf565b6040518060400160405280602081526020017f546f6b656e20697320616c7265616479206d61726b656420666f722073616c658152505b90613010576040517f08c379a00000000000000000000000000000000000000000000000000000000081526004016130079190614752565b60405180910390fd5b50818160a001901515908115158152505080600760008581526020019081526020016000206000820151816000015560208201518160010160006101000a81548173ffffffffffffffffffffffffffffffffffffffff021916908373ffffffffffffffffffffffffffffffffffffffff1602179055506040820151816002015560608201518160030190805190602001906130ac92919061391e565b5060808201518160040190805190602001906130c992919061391e565b5060a08201518160050160006101000a81548160ff02191690831515021790555060c0820151816006015560e082015181600701559050507f3c789f14865afbe6bd5f1403bf3b739f06a8200176e4c716c22ba92f92ea25f281608001518260200151858460600151866040516131449594939291906147c7565b60405180910390a150505050565b6000600660009054906101000a900473ffffffffffffffffffffffffffffffffffffffff16905081600660006101000a81548173ffffffffffffffffffffffffffffffffffffffff021916908373ffffffffffffffffffffffffffffffffffffffff1602179055508173ffffffffffffffffffffffffffffffffffffffff168173ffffffffffffffffffffffffffffffffffffffff167f8be0079c531659141344cd1fd0a4f28419497f9722a3daafe3b4186f6b6457e060405160405180910390a35050565b600073ffffffffffffffffffffffffffffffffffffffff168273ffffffffffffffffffffffffffffffffffffffff161415613288576040517f08c379a000000000000000000000000000000000000000000000000000000000815260040161327f90614a08565b60405180910390fd5b61329181612aa4565b156132d1576040517f08c379a00000000000000000000000000000000000000000000000000000000081526004016132c890614888565b60405180910390fd5b6132dd60008383613914565b6001600360008473ffffffffffffffffffffffffffffffffffffffff1673ffffffffffffffffffffffffffffffffffffffff168152602001908152602001600020600082825461332d9190614d35565b92505081905550816002600083815260200190815260200160002060006101000a81548173ffffffffffffffffffffffffffffffffffffffff021916908373ffffffffffffffffffffffffffffffffffffffff160217905550808273ffffffffffffffffffffffffffffffffffffffff16600073ffffffffffffffffffffffffffffffffffffffff167fddf252ad1be2c89b69c2b068fc378daa952ba7f163c4a11628f55a4df523b3ef60405160405180910390a46133ee60008383613919565b5050565b60008066038d7ea4c6800090506000612710600d54856134129190614dbc565b61341c9190614d8b565b905081828261342b9190614d8b565b6134359190614dbc565b92505050919050565b8173ffffffffffffffffffffffffffffffffffffffff168373ffffffffffffffffffffffffffffffffffffffff1614156134ad576040517f08c379a00000000000000000000000000000000000000000000000000000000081526004016134a4906148c8565b60405180910390fd5b80600560008573ffffffffffffffffffffffffffffffffffffffff1673ffffffffffffffffffffffffffffffffffffffff16815260200190815260200160002060008473ffffffffffffffffffffffffffffffffffffffff1673ffffffffffffffffffffffffffffffffffffffff16815260200190815260200160002060006101000a81548160ff0219169083151502179055508173ffffffffffffffffffffffffffffffffffffffff168373ffffffffffffffffffffffffffffffffffffffff167f17307eab39ab6107e8899845ad3d59bd9653f200f220920489ca2b5937696c318360405161359e9190614737565b60405180910390a3505050565b6000612710600c54836135be9190614dbc565b6135c89190614d8b565b9050919050565b8273ffffffffffffffffffffffffffffffffffffffff166135ef82610d5e565b73ffffffffffffffffffffffffffffffffffffffff1614613645576040517f08c379a000000000000000000000000000000000000000000000000000000000815260040161363c90614868565b60405180910390fd5b600073ffffffffffffffffffffffffffffffffffffffff168273ffffffffffffffffffffffffffffffffffffffff1614156136b5576040517f08c379a00000000000000000000000000000000000000000000000000000000081526004016136ac906148a8565b60405180910390fd5b6136c0838383613914565b6136cb600082612b18565b6001600360008573ffffffffffffffffffffffffffffffffffffffff1673ffffffffffffffffffffffffffffffffffffffff168152602001908152602001600020600082825461371b9190614e16565b925050819055506001600360008473ffffffffffffffffffffffffffffffffffffffff1673ffffffffffffffffffffffffffffffffffffffff16815260200190815260200160002060008282546137729190614d35565b92505081905550816002600083815260200190815260200160002060006101000a81548173ffffffffffffffffffffffffffffffffffffffff021916908373ffffffffffffffffffffffffffffffffffffffff160217905550808273ffffffffffffffffffffffffffffffffffffffff168473ffffffffffffffffffffffffffffffffffffffff167fddf252ad1be2c89b69c2b068fc378daa952ba7f163c4a11628f55a4df523b3ef60405160405180910390a4613831838383613919565b505050565b600061384182612aa4565b613880576040517f08c379a000000000000000000000000000000000000000000000000000000000815260040161387790614928565b60405180910390fd5b600061388b83610d5e565b90508073ffffffffffffffffffffffffffffffffffffffff168473ffffffffffffffffffffffffffffffffffffffff1614806138fa57508373ffffffffffffffffffffffffffffffffffffffff166138e284610963565b73ffffffffffffffffffffffffffffffffffffffff16145b8061390b575061390a8185612729565b5b91505092915050565b505050565b505050565b82805461392a90614f12565b90600052602060002090601f01602090048101928261394c5760008555613993565b82601f1061396557805160ff1916838001178555613993565b82800160010185558215613993579182015b82811115613992578251825591602001919060010190613977565b5b5090506139a09190613a01565b5090565b60405180610100016040528060008152602001600073ffffffffffffffffffffffffffffffffffffffff16815260200160008152602001606081526020016060815260200160001515815260200160008152602001600081525090565b5b80821115613a1a576000816000905550600101613a02565b5090565b6000613a31613a2c84614c36565b614c11565b9050808382526020820190508260005b85811015613a715781518501613a578882613c5b565b845260208401935060208301925050600181019050613a41565b5050509392505050565b6000613a8e613a8984614c62565b614c11565b905082815260208101848484011115613aa657600080fd5b613ab1848285614ed0565b509392505050565b6000613acc613ac784614c93565b614c11565b905082815260208101848484011115613ae457600080fd5b613aef848285614ed0565b509392505050565b6000613b0a613b0584614c93565b614c11565b905082815260208101848484011115613b2257600080fd5b613b2d848285614edf565b509392505050565b600081359050613b44816156a0565b92915050565b600081519050613b59816156a0565b92915050565b600081359050613b6e816156b7565b92915050565b600082601f830112613b8557600080fd5b8151613b95848260208601613a1e565b91505092915050565b600081359050613bad816156ce565b92915050565b600081519050613bc2816156ce565b92915050565b600081359050613bd7816156e5565b92915050565b600082601f830112613bee57600080fd5b8135613bfe848260208601613a7b565b91505092915050565b600082601f830112613c1857600080fd5b8135613c28848260208601613ab9565b91505092915050565b600082601f830112613c4257600080fd5b8151613c52848260208601613af7565b91505092915050565b60006101008284031215613c6e57600080fd5b613c79610100614c11565b90506000613c8984828501613d66565b6000830152506020613c9d84828501613b4a565b6020830152506040613cb184828501613d66565b604083015250606082015167ffffffffffffffff811115613cd157600080fd5b613cdd84828501613c31565b606083015250608082015167ffffffffffffffff811115613cfd57600080fd5b613d0984828501613c31565b60808301525060a0613d1d84828501613bb3565b60a08301525060c0613d3184828501613d66565b60c08301525060e0613d4584828501613d66565b60e08301525092915050565b600081359050613d60816156fc565b92915050565b600081519050613d75816156fc565b92915050565b600060208284031215613d8d57600080fd5b6000613d9b84828501613b35565b91505092915050565b600080600060608486031215613db957600080fd5b6000613dc786828701613b5f565b935050602084013567ffffffffffffffff811115613de457600080fd5b613df086828701613c07565b925050604084013567ffffffffffffffff811115613e0d57600080fd5b613e1986828701613c07565b9150509250925092565b60008060408385031215613e3657600080fd5b6000613e4485828601613b35565b9250506020613e5585828601613b35565b9150509250929050565b600080600060608486031215613e7457600080fd5b6000613e8286828701613b35565b9350506020613e9386828701613b35565b9250506040613ea486828701613d51565b9150509250925092565b60008060008060808587031215613ec457600080fd5b6000613ed287828801613b35565b9450506020613ee387828801613b35565b9350506040613ef487828801613d51565b925050606085013567ffffffffffffffff811115613f1157600080fd5b613f1d87828801613bdd565b91505092959194509250565b60008060408385031215613f3c57600080fd5b6000613f4a85828601613b35565b9250506020613f5b85828601613b9e565b9150509250929050565b60008060408385031215613f7857600080fd5b6000613f8685828601613b35565b9250506020613f9785828601613d51565b9150509250929050565b600060208284031215613fb357600080fd5b600082015167ffffffffffffffff811115613fcd57600080fd5b613fd984828501613b74565b91505092915050565b600060208284031215613ff457600080fd5b600061400284828501613bc8565b91505092915050565b60006020828403121561401d57600080fd5b600082013567ffffffffffffffff81111561403757600080fd5b61404384828501613c07565b91505092915050565b60006020828403121561405e57600080fd5b600061406c84828501613d51565b91505092915050565b60006140818383614557565b905092915050565b61409281614e5c565b82525050565b6140a181614e4a565b82525050565b6140b081614e4a565b82525050565b60006140c182614cd4565b6140cb8185614cf7565b9350836020820285016140dd85614cc4565b8060005b8581101561411957848403895281516140fa8582614075565b945061410583614cea565b925060208a019950506001810190506140e1565b50829750879550505050505092915050565b61413481614e6e565b82525050565b61414381614e6e565b82525050565b600061415482614cdf565b61415e8185614d08565b935061416e818560208601614edf565b6141778161507a565b840191505092915050565b600061418d82614cdf565b6141978185614d19565b93506141a7818560208601614edf565b6141b08161507a565b840191505092915050565b60006141c682614cdf565b6141d08185614d2a565b93506141e0818560208601614edf565b80840191505092915050565b60006141f9602d83614d19565b91506142048261508b565b604082019050919050565b600061421c602683614d19565b9150614227826150da565b604082019050919050565b600061423f602583614d19565b915061424a82615129565b604082019050919050565b6000614262601c83614d19565b915061426d82615178565b602082019050919050565b6000614285602483614d19565b9150614290826151a1565b604082019050919050565b60006142a8601983614d19565b91506142b3826151f0565b602082019050919050565b60006142cb602683614d19565b91506142d682615219565b604082019050919050565b60006142ee601483614d19565b91506142f982615268565b602082019050919050565b6000614311602c83614d19565b915061431c82615291565b604082019050919050565b6000614334602c83614d19565b915061433f826152e0565b604082019050919050565b6000614357601883614d19565b91506143628261532f565b602082019050919050565b600061437a603883614d19565b915061438582615358565b604082019050919050565b600061439d602a83614d19565b91506143a8826153a7565b604082019050919050565b60006143c0602983614d19565b91506143cb826153f6565b604082019050919050565b60006143e3603283614d19565b91506143ee82615445565b604082019050919050565b6000614406602083614d19565b915061441182615494565b602082019050919050565b6000614429602c83614d19565b9150614434826154bd565b604082019050919050565b600061444c601583614d19565b91506144578261550c565b602082019050919050565b600061446f602083614d19565b915061447a82615535565b602082019050919050565b6000614492601283614d19565b915061449d8261555e565b602082019050919050565b60006144b5602083614d19565b91506144c082615587565b602082019050919050565b60006144d8602183614d19565b91506144e3826155b0565b604082019050919050565b60006144fb601683614d19565b9150614506826155ff565b602082019050919050565b600061451e602d83614d19565b915061452982615628565b604082019050919050565b6000614541602083614d19565b915061454c82615677565b602082019050919050565b60006101008301600083015161457060008601826146c5565b5060208301516145836020860182614098565b50604083015161459660408601826146c5565b50606083015184820360608601526145ae8282614149565b915050608083015184820360808601526145c88282614149565b91505060a08301516145dd60a086018261412b565b5060c08301516145f060c08601826146c5565b5060e083015161460360e08601826146c5565b508091505092915050565b60006101008301600083015161462760008601826146c5565b50602083015161463a6020860182614098565b50604083015161464d60408601826146c5565b50606083015184820360608601526146658282614149565b9150506080830151848203608086015261467f8282614149565b91505060a083015161469460a086018261412b565b5060c08301516146a760c08601826146c5565b5060e08301516146ba60e08601826146c5565b508091505092915050565b6146ce81614ec6565b82525050565b6146dd81614ec6565b82525050565b60006146ef82846141bb565b915081905092915050565b600060208201905061470f60008301846140a7565b92915050565b6000602082019050818103600083015261472f81846140b6565b905092915050565b600060208201905061474c600083018461413a565b92915050565b6000602082019050818103600083015261476c8184614182565b905092915050565b6000608082019050818103600083015261478e8187614182565b905061479d6020830186614089565b6147aa60408301856146d4565b81810360608301526147bc8184614182565b905095945050505050565b600060a08201905081810360008301526147e18188614182565b90506147f060208301876140a7565b6147fd60408301866146d4565b818103606083015261480f8185614182565b905061481e608083018461413a565b9695505050505050565b60006020820190508181036000830152614841816141ec565b9050919050565b600060208201905081810360008301526148618161420f565b9050919050565b6000602082019050818103600083015261488181614232565b9050919050565b600060208201905081810360008301526148a181614255565b9050919050565b600060208201905081810360008301526148c181614278565b9050919050565b600060208201905081810360008301526148e18161429b565b9050919050565b60006020820190508181036000830152614901816142be565b9050919050565b60006020820190508181036000830152614921816142e1565b9050919050565b6000602082019050818103600083015261494181614304565b9050919050565b6000602082019050818103600083015261496181614327565b9050919050565b600060208201905081810360008301526149818161434a565b9050919050565b600060208201905081810360008301526149a18161436d565b9050919050565b600060208201905081810360008301526149c181614390565b9050919050565b600060208201905081810360008301526149e1816143b3565b9050919050565b60006020820190508181036000830152614a01816143d6565b9050919050565b60006020820190508181036000830152614a21816143f9565b9050919050565b60006020820190508181036000830152614a418161441c565b9050919050565b60006020820190508181036000830152614a618161443f565b9050919050565b60006020820190508181036000830152614a8181614462565b9050919050565b60006020820190508181036000830152614aa181614485565b9050919050565b60006020820190508181036000830152614ac1816144a8565b9050919050565b60006020820190508181036000830152614ae1816144cb565b9050919050565b60006020820190508181036000830152614b01816144ee565b9050919050565b60006020820190508181036000830152614b2181614511565b9050919050565b60006020820190508181036000830152614b4181614534565b9050919050565b60006020820190508181036000830152614b62818461460e565b905092915050565b6000602082019050614b7f60008301846146d4565b92915050565b600061010082019050614b9b600083018b6146d4565b614ba8602083018a6140a7565b614bb560408301896146d4565b8181036060830152614bc78188614182565b90508181036080830152614bdb8187614182565b9050614bea60a083018661413a565b614bf760c08301856146d4565b614c0460e08301846146d4565b9998505050505050505050565b6000614c1b614c2c565b9050614c278282614f44565b919050565b6000604051905090565b600067ffffffffffffffff821115614c5157614c5061504b565b5b602082029050602081019050919050565b600067ffffffffffffffff821115614c7d57614c7c61504b565b5b614c868261507a565b9050602081019050919050565b600067ffffffffffffffff821115614cae57614cad61504b565b5b614cb78261507a565b9050602081019050919050565b6000819050602082019050919050565b600081519050919050565b600081519050919050565b6000602082019050919050565b600082825260208201905092915050565b600082825260208201905092915050565b600082825260208201905092915050565b600081905092915050565b6000614d4082614ec6565b9150614d4b83614ec6565b9250827fffffffffffffffffffffffffffffffffffffffffffffffffffffffffffffffff03821115614d8057614d7f614fbe565b5b828201905092915050565b6000614d9682614ec6565b9150614da183614ec6565b925082614db157614db0614fed565b5b828204905092915050565b6000614dc782614ec6565b9150614dd283614ec6565b9250817fffffffffffffffffffffffffffffffffffffffffffffffffffffffffffffffff0483118215151615614e0b57614e0a614fbe565b5b828202905092915050565b6000614e2182614ec6565b9150614e2c83614ec6565b925082821015614e3f57614e3e614fbe565b5b828203905092915050565b6000614e5582614ea6565b9050919050565b6000614e6782614ea6565b9050919050565b60008115159050919050565b60007fffffffff0000000000000000000000000000000000000000000000000000000082169050919050565b600073ffffffffffffffffffffffffffffffffffffffff82169050919050565b6000819050919050565b82818337600083830152505050565b60005b83811015614efd578082015181840152602081019050614ee2565b83811115614f0c576000848401525b50505050565b60006002820490506001821680614f2a57607f821691505b60208210811415614f3e57614f3d61501c565b5b50919050565b614f4d8261507a565b810181811067ffffffffffffffff82111715614f6c57614f6b61504b565b5b80604052505050565b6000614f8082614ec6565b91507fffffffffffffffffffffffffffffffffffffffffffffffffffffffffffffffff821415614fb357614fb2614fbe565b5b600182019050919050565b7f4e487b7100000000000000000000000000000000000000000000000000000000600052601160045260246000fd5b7f4e487b7100000000000000000000000000000000000000000000000000000000600052601260045260246000fd5b7f4e487b7100000000000000000000000000000000000000000000000000000000600052602260045260246000fd5b7f4e487b7100000000000000000000000000000000000000000000000000000000600052604160045260246000fd5b6000601f19601f8301169050919050565b7f4120746f6b656e2068617320616c7265616479206265656e206d696e7465642060008201527f7769746820746869732055524900000000000000000000000000000000000000602082015250565b7f4f776e61626c653a206e6577206f776e657220697320746865207a65726f206160008201527f6464726573730000000000000000000000000000000000000000000000000000602082015250565b7f4552433732313a207472616e736665722066726f6d20696e636f72726563742060008201527f6f776e6572000000000000000000000000000000000000000000000000000000602082015250565b7f4552433732313a20746f6b656e20616c7265616479206d696e74656400000000600082015250565b7f4552433732313a207472616e7366657220746f20746865207a65726f2061646460008201527f7265737300000000000000000000000000000000000000000000000000000000602082015250565b7f4552433732313a20617070726f766520746f2063616c6c657200000000000000600082015250565b7f4d6574686f64206d6179206f6e6c792062652063616c6c65642062792074686560008201527f206f776e65720000000000000000000000000000000000000000000000000000602082015250565b7f546f6b656e20646f6573206e6f74206578697374000000000000000000000000600082015250565b7f4552433732313a206f70657261746f7220717565727920666f72206e6f6e657860008201527f697374656e7420746f6b656e0000000000000000000000000000000000000000602082015250565b7f53656e646572206d75737420626520746f6b656e206f776e6572206f7220636f60008201527f6e7472616374206f776e65720000000000000000000000000000000000000000602082015250565b7f427579657220616c7265616479206f776e7320746f6b656e0000000000000000600082015250565b7f4552433732313a20617070726f76652063616c6c6572206973206e6f74206f7760008201527f6e6572206e6f7220617070726f76656420666f7220616c6c0000000000000000602082015250565b7f4552433732313a2062616c616e636520717565727920666f7220746865207a6560008201527f726f206164647265737300000000000000000000000000000000000000000000602082015250565b7f4552433732313a206f776e657220717565727920666f72206e6f6e657869737460008201527f656e7420746f6b656e0000000000000000000000000000000000000000000000602082015250565b7f4120746f6b656e2068617320616c7265616479206265656e206d696e7465642060008201527f77697468207468697320736f6c7574696f6e0000000000000000000000000000602082015250565b7f4552433732313a206d696e7420746f20746865207a65726f2061646472657373600082015250565b7f4552433732313a20617070726f76656420717565727920666f72206e6f6e657860008201527f697374656e7420746f6b656e0000000000000000000000000000000000000000602082015250565b7f546f6b656e206973206e6f7420666f722073616c650000000000000000000000600082015250565b7f412076616c756520666f7220736f6c7574696f6e206973207265717569726564600082015250565b7f496e76616c696420746f20616464726573730000000000000000000000000000600082015250565b7f4f776e61626c653a2063616c6c6572206973206e6f7420746865206f776e6572600082015250565b7f4552433732313a20617070726f76616c20746f2063757272656e74206f776e6560008201527f7200000000000000000000000000000000000000000000000000000000000000602082015250565b7f546f6b656e496420646f6573206e6f7420657869737400000000000000000000600082015250565b7f496e73756666696369656e742065746865722073656e7420776974682074686960008201527f73207472616e73616374696f6e00000000000000000000000000000000000000602082015250565b7f412076616c756520666f7220746f6b656e555249206973207265717569726564600082015250565b6156a981614e4a565b81146156b457600080fd5b50565b6156c081614e5c565b81146156cb57600080fd5b50565b6156d781614e6e565b81146156e257600080fd5b50565b6156ee81614e7a565b81146156f957600080fd5b50565b61570581614ec6565b811461571057600080fd5b5056fe546f6b656e20697320616c72656164792070726576656e7465642066726f6d206265696e6720736f6c64a26469706673582212208aa902f8bae73c01edeae8140f32633d4c65cfad1e792f47700c82096677944764736f6c63430008010033",
  "immutableReferences": {},
  "source": "// SPDX-License-Identifier: MIT\r\npragma solidity >=0.4.22 <0.9.0;\r\nimport \"@openzeppelin/contracts/token/ERC721/ERC721.sol\";\r\nimport \"@openzeppelin/contracts/access/Ownable.sol\";\r\n\r\ncontract EthordleToken is ERC721, Ownable {\r\n    \r\nusing Strings for uint256;\r\n    \r\n    struct Token {\r\n        uint256 id;        \r\n        address owner;\r\n        uint256 price;\r\n        string url;\r\n        string solution;\r\n        bool isForSale;\r\n        uint256 lastTransactionTimestamp;\r\n        uint256 transactionCount;        \r\n    }\r\n\r\n    mapping (uint256 => Token) public _tokens;\r\n    mapping (string => address) private _solutionOwners;\r\n    mapping (string => address) private _tokenURIOwners;\r\n\r\n    address private _owner;\r\n    uint256 private _initialPrice;\r\n    uint256 private _royaltyRate;\r\n    uint256 private _priceEscalationRate;\r\n    uint256 private _currentTokenId;\r\n    string private _baseURIextended;\r\n\r\n    event TokenMinted (\r\n        string solution,\r\n        address payable account,\r\n        uint256 tokenId,\r\n        string metadataURI\r\n    );\r\n\r\n    event TokenForSaleStatusChanged (\r\n        string solution,\r\n        address account,\r\n        uint256 tokenId,\r\n        string metadataURI,\r\n        bool isForSale\r\n    );\r\n\r\n    constructor(string memory _name, string memory _symbol, uint256 initialPrice_, uint256 royaltyRate_, uint256 priceEscalationRate_) ERC721(_name, _symbol) {\r\n        _owner = msg.sender;\r\n        _currentTokenId = 0;\r\n        _initialPrice = initialPrice_;\r\n        _royaltyRate = royaltyRate_;\r\n        _priceEscalationRate = priceEscalationRate_;\r\n    }\r\n    \r\n    function setInitialPrice(uint256 initialPrice_) external onlyOwner() {\r\n        _initialPrice = initialPrice_;\r\n    }\r\n\r\n    function initialPrice() external view returns (uint256) {\r\n        return _initialPrice;\r\n    }\r\n\r\n    function setRoyaltyRate(uint256 royaltyRate_) external onlyOwner() {\r\n        _royaltyRate = royaltyRate_;   \r\n    }\r\n\r\n    function royaltyRate() external view returns (uint256) {\r\n        return _royaltyRate;\r\n    }\r\n\r\n    function setPriceEscalationRate(uint256 priceEscalationRate_) external onlyOwner() {\r\n        _priceEscalationRate = priceEscalationRate_;\r\n    }\r\n\r\n    function priceEscalationRate() external view returns (uint256) {\r\n        return _priceEscalationRate;\r\n    }\r\n\r\n    function tokenCount() external view returns (uint256) {\r\n        return _currentTokenId;\r\n    }\r\n\r\n    function tokenById(uint256 tokenId) external view returns(Token memory) {\r\n        require(_exists(tokenId), 'TokenId does not exist');  \r\n\r\n        Token memory token = _tokens[tokenId];\r\n        require(_exists(tokenId), 'Token does not exist');   \r\n\r\n        return token;\r\n    }\r\n\r\n    function tokensOfOwner(address _from) external view returns(Token[] memory) {\r\n        uint256 ownerCount = balanceOf(_from);\r\n        uint256 ownerIndex = 0;\r\n        Token[] memory ownerTokens = new Token[](ownerCount);\r\n\r\n        if (ownerCount > 0) {\r\n            Token[] memory allTokens = this.tokens();\r\n            \r\n            for (uint256 i = 0; i < _currentTokenId; i++) {\r\n                if (allTokens[i].owner == _from) {\r\n                    ownerTokens[ownerIndex] = allTokens[i];\r\n                    ownerIndex++;\r\n                }\r\n            }\r\n        }\r\n\r\n        return ownerTokens;\r\n    }\r\n\r\n    function tokens() external view returns(Token[] memory) {  \r\n        Token[] memory allTokens = new Token[](_currentTokenId);\r\n\r\n        for (uint256 i = 0; i < _currentTokenId; i++) {\r\n            allTokens[i] = _tokens[i];\r\n        }\r\n\r\n        return allTokens;\r\n    }\r\n    \r\n    function setBaseURI(string memory baseURI) external onlyOwner() {\r\n        _baseURIextended = baseURI;\r\n    }\r\n    \r\n    function _baseURI() internal view virtual override returns (string memory) {\r\n        return _baseURIextended;\r\n    }\r\n    \r\n    function isSolutionUnique(string memory solution_) public view returns (bool) {\r\n        return _solutionOwners[solution_] == address(0x0);\r\n    }\r\n\r\n    function tokenURI(uint256 tokenId) public view virtual override returns (string memory) {\r\n        require(_exists(tokenId), 'TokenId does not exist');\r\n\r\n        return _tokens[tokenId].url;\r\n    }\r\n\r\n    function mint(\r\n        address payable to,\r\n        string memory solution_,\r\n        string memory tokenURI_\r\n    ) external payable {  \r\n        require(msg.sender == to || msg.sender == _owner, 'Invalid to address');      \r\n        require(msg.value >= _initialPrice, 'Insufficient ether sent with this transaction'); \r\n        require(_solutionOwners[solution_] == address(0x0), 'A token has already been minted with this solution');\r\n        require(_tokenURIOwners[tokenURI_] == address(0x0), 'A token has already been minted with this URI');\r\n        require(bytes(solution_).length >= 5, 'A value for solution is required');\r\n        require(bytes(tokenURI_).length >= 28, 'A value for tokenURI is required'); // https://ipfs.infura.io/ipfs/\r\n\r\n        payable(owner()).transfer(msg.value);\r\n\r\n        _mint(to, _currentTokenId);\r\n\r\n        uint256 newPrice =_getEscalatedPrice(msg.value);\r\n\r\n        Token memory token = Token(_currentTokenId, to, newPrice, tokenURI_, solution_, false, block.timestamp, 1);\r\n       \r\n        _tokens[_currentTokenId] = token;\r\n        _solutionOwners[solution_] = to;\r\n        _tokenURIOwners[tokenURI_] = to;\r\n        _currentTokenId++;        \r\n        \r\n        emit TokenMinted(solution_, to, _currentTokenId, tokenURI_);\r\n    }\r\n\r\n    function allowSale(\r\n        address from,\r\n        uint256 tokenId\r\n    ) external {    \r\n        toggleSale(from, tokenId, true);\r\n    }\r\n\r\n    function preventSale(\r\n        address from,\r\n        uint256 tokenId\r\n    ) external {    \r\n        toggleSale(from, tokenId, false);        \r\n    }\r\n\r\n    function toggleSale( \r\n        address from, \r\n        uint256 tokenId,\r\n        bool markForSale\r\n    ) private {\r\n        require(_exists(tokenId), 'TokenId does not exist');   \r\n        require(_msgSender() == from || _msgSender() == _owner, 'Sender must be token owner or contract owner'); \r\n        require(_isApprovedOrOwner(_msgSender(), tokenId), 'Sender must be token owner or contract owner');   \r\n\r\n        Token memory token = _tokens[tokenId];\r\n        require(_exists(token.id), 'Token does not exist');  \r\n        require(markForSale != token.isForSale, markForSale ? 'Token is already marked for sale' : 'Token is already prevented from being sold'); \r\n        \r\n        token.isForSale = markForSale;\r\n        \r\n        _tokens[tokenId] = token; \r\n\r\n        emit TokenForSaleStatusChanged(token.solution, token.owner, tokenId, token.url, markForSale);\r\n    }\r\n\r\n    function buy(\r\n        address to,\r\n        uint256 tokenId\r\n    ) external payable {        \r\n        require(_exists(tokenId), 'TokenId does not exist');   \r\n\r\n        Token memory token = _tokens[tokenId];\r\n        require(_exists(token.id), 'Token does not exist');        \r\n        require(msg.value >= token.price, 'Insufficient ether sent with this transaction');\r\n        require(token.isForSale, 'Token is not for sale');\r\n        require(token.owner != to, 'Buyer already owns token'); \r\n       \r\n        string memory solution_ = token.solution;\r\n        string memory tokenURI_ = token.url;\r\n\r\n        uint256 totalRoyalty = _getRoyalty(msg.value); \r\n        uint256 remainder = msg.value - totalRoyalty;\r\n\r\n        payable(owner()).transfer(totalRoyalty);\r\n        payable(address(token.owner)).transfer(remainder);\r\n        \r\n        _transfer(token.owner, to, tokenId);\r\n\r\n        _solutionOwners[solution_] = to;\r\n        _tokenURIOwners[tokenURI_] = to;\r\n\r\n        uint256 newPrice = _getEscalatedPrice(msg.value);\r\n\r\n        token.owner = to;\r\n        token.price = newPrice;\r\n        token.isForSale = false;\r\n        token.lastTransactionTimestamp = block.timestamp;\r\n        token.transactionCount++;       \r\n\r\n        _tokens[tokenId] = token; \r\n    }\r\n  \r\n    function _getRoyalty(uint256 value) private view returns (uint256) {\r\n        return value * _royaltyRate / 10000 ;  // todo need safe multiply    \r\n    }\r\n\r\n    function _getEscalatedPrice(uint256 value) private view returns (uint256) {\r\n        uint256 divisor = 10**15;\r\n        uint256 newPrice = value * _priceEscalationRate / 10000 ;  // todo need safe multiply    \r\n        \r\n        return (newPrice / divisor) * divisor;  // round off new price to nearest 1E15\r\n    }\r\n  \r\n    // todo how to prevent base _transfer from being called directly\r\n\r\n    function transferFrom(\r\n        address /*from*/,\r\n        address /*to*/,\r\n        uint256 /*tokenId*/\r\n    ) public view override {\r\n        require(_msgSender() == _owner, 'Method may only be called by the owner');\r\n    }\r\n\r\n    function safeTransferFrom(\r\n        address /*from*/,\r\n        address /*to*/,\r\n        uint256 /*tokenId*/\r\n    ) public view override {\r\n        require(_msgSender() == _owner, 'Method may only be called by the owner');\r\n    }\r\n\r\n    function safeTransferFrom(\r\n        address /*from*/,\r\n        address /*to*/,\r\n        uint256 /*tokenId*/,\r\n        bytes memory /*_data*/\r\n    ) public view override {\r\n        require(_msgSender() == _owner, 'Method may only be called by the owner');\r\n    }\r\n}",
  "sourcePath": "C:\\Dev\\Github\\ethordle\\contracts\\EthordleToken.sol",
  "compiler": {
    "name": "solc",
    "version": "0.8.1+commit.df193b15.Emscripten.clang"
  },
  "schemaVersion": "3.4.6",
  "updatedAt": "2022-04-26T17:20:11.129Z",
  "networkType": "ethereum",
  "devdoc": {
    "kind": "dev",
    "methods": {
      "approve(address,uint256)": {
        "details": "See {IERC721-approve}."
      },
      "balanceOf(address)": {
        "details": "See {IERC721-balanceOf}."
      },
      "getApproved(uint256)": {
        "details": "See {IERC721-getApproved}."
      },
      "isApprovedForAll(address,address)": {
        "details": "See {IERC721-isApprovedForAll}."
      },
      "name()": {
        "details": "See {IERC721Metadata-name}."
      },
      "owner()": {
        "details": "Returns the address of the current owner."
      },
      "ownerOf(uint256)": {
        "details": "See {IERC721-ownerOf}."
      },
      "renounceOwnership()": {
        "details": "Leaves the contract without owner. It will not be possible to call `onlyOwner` functions anymore. Can only be called by the current owner. NOTE: Renouncing ownership will leave the contract without an owner, thereby removing any functionality that is only available to the owner."
      },
      "setApprovalForAll(address,bool)": {
        "details": "See {IERC721-setApprovalForAll}."
      },
      "supportsInterface(bytes4)": {
        "details": "See {IERC165-supportsInterface}."
      },
      "symbol()": {
        "details": "See {IERC721Metadata-symbol}."
      },
      "tokenURI(uint256)": {
        "details": "See {IERC721Metadata-tokenURI}."
      },
      "transferOwnership(address)": {
        "details": "Transfers ownership of the contract to a new account (`newOwner`). Can only be called by the current owner."
      }
    },
    "version": 1
  },
  "userdoc": {
    "kind": "user",
    "methods": {},
    "version": 1
  }
}